{
	"contracts/enclavecontract.sol": {
		"EnclaveRegistry": {
			"abi": [
				{
					"anonymous": false,
					"inputs": [
						{
							"indexed": true,
							"internalType": "string",
							"name": "enclaveId",
							"type": "string"
						}
					],
					"name": "EnclaveDeleted",
					"type": "event"
				},
				{
					"anonymous": false,
					"inputs": [
						{
							"indexed": true,
							"internalType": "string",
							"name": "enclaveId",
							"type": "string"
						},
						{
							"indexed": false,
							"internalType": "string",
							"name": "connectURL",
							"type": "string"
						},
						{
							"indexed": false,
							"internalType": "string",
							"name": "pubkey",
							"type": "string"
						},
						{
							"indexed": false,
							"internalType": "uint256",
							"name": "version",
							"type": "uint256"
						},
						{
							"indexed": false,
							"internalType": "uint256",
							"name": "timestamp",
							"type": "uint256"
						}
					],
					"name": "EnclaveRegistered",
					"type": "event"
				},
				{
					"anonymous": false,
					"inputs": [
						{
							"indexed": true,
							"internalType": "string",
							"name": "enclaveId",
							"type": "string"
						},
						{
							"indexed": false,
							"internalType": "string",
							"name": "connectURL",
							"type": "string"
						},
						{
							"indexed": false,
							"internalType": "string",
							"name": "pubkey",
							"type": "string"
						},
						{
							"indexed": false,
							"internalType": "uint256",
							"name": "version",
							"type": "uint256"
						},
						{
							"indexed": false,
							"internalType": "uint256",
							"name": "timestamp",
							"type": "uint256"
						}
					],
					"name": "EnclaveUpdated",
					"type": "event"
				},
				{
					"inputs": [
						{
							"internalType": "string",
							"name": "enclaveId",
							"type": "string"
						}
					],
					"name": "deleteEnclave",
					"outputs": [],
					"stateMutability": "nonpayable",
					"type": "function"
				},
				{
					"inputs": [],
					"name": "getAllEnclaves",
					"outputs": [
						{
							"internalType": "string[]",
							"name": "ids",
							"type": "string[]"
						},
						{
							"internalType": "string[]",
							"name": "urls",
							"type": "string[]"
						},
						{
							"internalType": "string[]",
							"name": "pubkeys",
							"type": "string[]"
						},
						{
							"internalType": "uint256[]",
							"name": "versions",
							"type": "uint256[]"
						},
						{
							"internalType": "uint256[]",
							"name": "timestamps",
							"type": "uint256[]"
						}
					],
					"stateMutability": "view",
					"type": "function"
				},
				{
					"inputs": [
						{
							"internalType": "string",
							"name": "enclaveId",
							"type": "string"
						}
					],
					"name": "getEnclave",
					"outputs": [
						{
							"internalType": "string",
							"name": "connectURL",
							"type": "string"
						},
						{
							"internalType": "string",
							"name": "pubkey",
							"type": "string"
						},
						{
							"internalType": "uint256",
							"name": "version",
							"type": "uint256"
						},
						{
							"internalType": "uint256",
							"name": "updatedAt",
							"type": "uint256"
						}
					],
					"stateMutability": "view",
					"type": "function"
				},
				{
					"inputs": [],
					"name": "listEnclaveIds",
					"outputs": [
						{
							"internalType": "string[]",
							"name": "",
							"type": "string[]"
						}
					],
					"stateMutability": "view",
					"type": "function"
				},
				{
					"inputs": [
						{
							"internalType": "string",
							"name": "enclaveId",
							"type": "string"
						},
						{
							"internalType": "string",
							"name": "connectURL",
							"type": "string"
						},
						{
							"internalType": "string",
							"name": "pubkey",
							"type": "string"
						}
					],
					"name": "registerEnclave",
					"outputs": [],
					"stateMutability": "nonpayable",
					"type": "function"
				},
				{
					"inputs": [
						{
							"internalType": "string",
							"name": "enclaveId",
							"type": "string"
						},
						{
							"internalType": "string",
							"name": "newConnectURL",
							"type": "string"
						},
						{
							"internalType": "string",
							"name": "newPubkey",
							"type": "string"
						}
					],
					"name": "updateEnclave",
					"outputs": [],
					"stateMutability": "nonpayable",
					"type": "function"
				}
			],
			"devdoc": {
				"kind": "dev",
				"methods": {},
				"version": 1
			},
			"evm": {
				"assembly": "    /* \"contracts/enclavecontract.sol\":58:4081  contract EnclaveRegistry {... */\n  mstore(0x40, 0x80)\n  callvalue\n  dup1\n  iszero\n  tag_1\n  jumpi\n  0x00\n  dup1\n  revert\ntag_1:\n  pop\n  dataSize(sub_0)\n  dup1\n  dataOffset(sub_0)\n  0x00\n  codecopy\n  0x00\n  return\nstop\n\nsub_0: assembly {\n        /* \"contracts/enclavecontract.sol\":58:4081  contract EnclaveRegistry {... */\n      mstore(0x40, 0x80)\n      callvalue\n      dup1\n      iszero\n      tag_1\n      jumpi\n      0x00\n      dup1\n      revert\n    tag_1:\n      pop\n      jumpi(tag_2, lt(calldatasize, 0x04))\n      shr(0xe0, calldataload(0x00))\n      dup1\n      0x6b934917\n      eq\n      tag_3\n      jumpi\n      dup1\n      0x702d06d1\n      eq\n      tag_4\n      jumpi\n      dup1\n      0xa23c1cf5\n      eq\n      tag_5\n      jumpi\n      dup1\n      0xd9ac8ad2\n      eq\n      tag_6\n      jumpi\n      dup1\n      0xdeba5eb8\n      eq\n      tag_7\n      jumpi\n      dup1\n      0xe39ae54b\n      eq\n      tag_8\n      jumpi\n    tag_2:\n      0x00\n      dup1\n      revert\n        /* \"contracts/enclavecontract.sol\":1477:2074  function updateEnclave(string memory enclaveId, string memory newConnectURL, string memory newPubkey) public {... */\n    tag_3:\n      tag_9\n      0x04\n      dup1\n      calldatasize\n      sub\n      dup2\n      add\n      swap1\n      tag_10\n      swap2\n      swap1\n      tag_11\n      jump\t// in\n    tag_10:\n      tag_12\n      jump\t// in\n    tag_9:\n      stop\n        /* \"contracts/enclavecontract.sol\":2584:3406  function getAllEnclaves () public view... */\n    tag_4:\n      tag_13\n      tag_14\n      jump\t// in\n    tag_13:\n      mload(0x40)\n      tag_15\n      swap6\n      swap5\n      swap4\n      swap3\n      swap2\n      swap1\n      tag_16\n      jump\t// in\n    tag_15:\n      mload(0x40)\n      dup1\n      swap2\n      sub\n      swap1\n      return\n        /* \"contracts/enclavecontract.sol\":2410:2508  function listEnclaveIds() public view returns (string[] memory) {... */\n    tag_5:\n      tag_17\n      tag_18\n      jump\t// in\n    tag_17:\n      mload(0x40)\n      tag_19\n      swap2\n      swap1\n      tag_20\n      jump\t// in\n    tag_19:\n      mload(0x40)\n      dup1\n      swap2\n      sub\n      swap1\n      return\n        /* \"contracts/enclavecontract.sol\":775:1471  function registerEnclave(string memory enclaveId, string memory connectURL, string memory pubkey) public {... */\n    tag_6:\n      tag_21\n      0x04\n      dup1\n      calldatasize\n      sub\n      dup2\n      add\n      swap1\n      tag_22\n      swap2\n      swap1\n      tag_11\n      jump\t// in\n    tag_22:\n      tag_23\n      jump\t// in\n    tag_21:\n      stop\n        /* \"contracts/enclavecontract.sol\":3465:4079  function deleteEnclave(string memory enclaveId) public {... */\n    tag_7:\n      tag_24\n      0x04\n      dup1\n      calldatasize\n      sub\n      dup2\n      add\n      swap1\n      tag_25\n      swap2\n      swap1\n      tag_26\n      jump\t// in\n    tag_25:\n      tag_27\n      jump\t// in\n    tag_24:\n      stop\n        /* \"contracts/enclavecontract.sol\":2080:2404  function getEnclave(string memory enclaveId) public view returns (string memory connectURL, string memory pubkey, uint256 version, uint256 updatedAt) {... */\n    tag_8:\n      tag_28\n      0x04\n      dup1\n      calldatasize\n      sub\n      dup2\n      add\n      swap1\n      tag_29\n      swap2\n      swap1\n      tag_26\n      jump\t// in\n    tag_29:\n      tag_30\n      jump\t// in\n    tag_28:\n      mload(0x40)\n      tag_31\n      swap5\n      swap4\n      swap3\n      swap2\n      swap1\n      tag_32\n      jump\t// in\n    tag_31:\n      mload(0x40)\n      dup1\n      swap2\n      sub\n      swap1\n      return\n        /* \"contracts/enclavecontract.sol\":1477:2074  function updateEnclave(string memory enclaveId, string memory newConnectURL, string memory newPubkey) public {... */\n    tag_12:\n        /* \"contracts/enclavecontract.sol\":1634:1635  0 */\n      0x00\n        /* \"contracts/enclavecontract.sol\":1610:1623  newConnectURL */\n      dup3\n        /* \"contracts/enclavecontract.sol\":1604:1631  bytes(newConnectURL).length */\n      mload\n        /* \"contracts/enclavecontract.sol\":1604:1635  bytes(newConnectURL).length > 0 */\n      gt\n        /* \"contracts/enclavecontract.sol\":1596:1664  require(bytes(newConnectURL).length > 0, \"New Connect URL required\") */\n      tag_34\n      jumpi\n      mload(0x40)\n      0x08c379a000000000000000000000000000000000000000000000000000000000\n      dup2\n      mstore\n      0x04\n      add\n      tag_35\n      swap1\n      tag_36\n      jump\t// in\n    tag_35:\n      mload(0x40)\n      dup1\n      swap2\n      sub\n      swap1\n      revert\n    tag_34:\n        /* \"contracts/enclavecontract.sol\":1708:1709  0 */\n      0x00\n        /* \"contracts/enclavecontract.sol\":1688:1697  newPubkey */\n      dup2\n        /* \"contracts/enclavecontract.sol\":1682:1705  bytes(newPubkey).length */\n      mload\n        /* \"contracts/enclavecontract.sol\":1682:1709  bytes(newPubkey).length > 0 */\n      gt\n        /* \"contracts/enclavecontract.sol\":1674:1737  require(bytes(newPubkey).length > 0, \"New Public key required\") */\n      tag_37\n      jumpi\n      mload(0x40)\n      0x08c379a000000000000000000000000000000000000000000000000000000000\n      dup2\n      mstore\n      0x04\n      add\n      tag_38\n      swap1\n      tag_39\n      jump\t// in\n    tag_38:\n      mload(0x40)\n      dup1\n      swap2\n      sub\n      swap1\n      revert\n    tag_37:\n        /* \"contracts/enclavecontract.sol\":1748:1765  Enclave storage e */\n      0x00\n        /* \"contracts/enclavecontract.sol\":1768:1776  enclaves */\n      dup1\n        /* \"contracts/enclavecontract.sol\":1777:1786  enclaveId */\n      dup5\n        /* \"contracts/enclavecontract.sol\":1768:1787  enclaves[enclaveId] */\n      mload(0x40)\n      tag_40\n      swap2\n      swap1\n      tag_41\n      jump\t// in\n    tag_40:\n      swap1\n      dup2\n      mstore\n      0x20\n      add\n      mload(0x40)\n      dup1\n      swap2\n      sub\n      swap1\n      keccak256\n        /* \"contracts/enclavecontract.sol\":1748:1787  Enclave storage e = enclaves[enclaveId] */\n      swap1\n      pop\n        /* \"contracts/enclavecontract.sol\":1817:1818  0 */\n      0x00\n        /* \"contracts/enclavecontract.sol\":1805:1806  e */\n      dup2\n        /* \"contracts/enclavecontract.sol\":1805:1814  e.version */\n      0x02\n      add\n      sload\n        /* \"contracts/enclavecontract.sol\":1805:1818  e.version > 0 */\n      gt\n        /* \"contracts/enclavecontract.sol\":1797:1840  require(e.version > 0, \"Enclave not found\") */\n      tag_42\n      jumpi\n      mload(0x40)\n      0x08c379a000000000000000000000000000000000000000000000000000000000\n      dup2\n      mstore\n      0x04\n      add\n      tag_43\n      swap1\n      tag_44\n      jump\t// in\n    tag_43:\n      mload(0x40)\n      dup1\n      swap2\n      sub\n      swap1\n      revert\n    tag_42:\n        /* \"contracts/enclavecontract.sol\":1866:1879  newConnectURL */\n      dup3\n        /* \"contracts/enclavecontract.sol\":1851:1852  e */\n      dup2\n        /* \"contracts/enclavecontract.sol\":1851:1863  e.connectURL */\n      0x00\n      add\n        /* \"contracts/enclavecontract.sol\":1851:1879  e.connectURL = newConnectURL */\n      swap1\n      dup2\n      tag_45\n      swap2\n      swap1\n      tag_46\n      jump\t// in\n    tag_45:\n      pop\n        /* \"contracts/enclavecontract.sol\":1900:1909  newPubkey */\n      dup2\n        /* \"contracts/enclavecontract.sol\":1889:1890  e */\n      dup2\n        /* \"contracts/enclavecontract.sol\":1889:1897  e.pubkey */\n      0x01\n      add\n        /* \"contracts/enclavecontract.sol\":1889:1909  e.pubkey = newPubkey */\n      swap1\n      dup2\n      tag_47\n      swap2\n      swap1\n      tag_46\n      jump\t// in\n    tag_47:\n      pop\n        /* \"contracts/enclavecontract.sol\":1932:1933  1 */\n      0x01\n        /* \"contracts/enclavecontract.sol\":1919:1920  e */\n      dup2\n        /* \"contracts/enclavecontract.sol\":1919:1928  e.version */\n      0x02\n      add\n      0x00\n        /* \"contracts/enclavecontract.sol\":1919:1933  e.version += 1 */\n      dup3\n      dup3\n      sload\n      tag_48\n      swap2\n      swap1\n      tag_49\n      jump\t// in\n    tag_48:\n      swap3\n      pop\n      pop\n      dup2\n      swap1\n      sstore\n      pop\n        /* \"contracts/enclavecontract.sol\":1957:1972  block.timestamp */\n      timestamp\n        /* \"contracts/enclavecontract.sol\":1943:1944  e */\n      dup2\n        /* \"contracts/enclavecontract.sol\":1943:1954  e.updatedAt */\n      0x03\n      add\n        /* \"contracts/enclavecontract.sol\":1943:1972  e.updatedAt = block.timestamp */\n      dup2\n      swap1\n      sstore\n      pop\n        /* \"contracts/enclavecontract.sol\":2003:2012  enclaveId */\n      dup4\n        /* \"contracts/enclavecontract.sol\":1988:2067  EnclaveUpdated(enclaveId, newConnectURL, newPubkey, e.version, block.timestamp) */\n      mload(0x40)\n      tag_50\n      swap2\n      swap1\n      tag_41\n      jump\t// in\n    tag_50:\n      mload(0x40)\n      dup1\n      swap2\n      sub\n      swap1\n      keccak256\n      0x32a3abc732792051b4ae39d05ce6c62827f45926bb50971e75840888d7411d35\n        /* \"contracts/enclavecontract.sol\":2014:2027  newConnectURL */\n      dup5\n        /* \"contracts/enclavecontract.sol\":2029:2038  newPubkey */\n      dup5\n        /* \"contracts/enclavecontract.sol\":2040:2041  e */\n      dup5\n        /* \"contracts/enclavecontract.sol\":2040:2049  e.version */\n      0x02\n      add\n      sload\n        /* \"contracts/enclavecontract.sol\":2051:2066  block.timestamp */\n      timestamp\n        /* \"contracts/enclavecontract.sol\":1988:2067  EnclaveUpdated(enclaveId, newConnectURL, newPubkey, e.version, block.timestamp) */\n      mload(0x40)\n      tag_51\n      swap5\n      swap4\n      swap3\n      swap2\n      swap1\n      tag_32\n      jump\t// in\n    tag_51:\n      mload(0x40)\n      dup1\n      swap2\n      sub\n      swap1\n      log2\n        /* \"contracts/enclavecontract.sol\":1586:2074  {... */\n      pop\n        /* \"contracts/enclavecontract.sol\":1477:2074  function updateEnclave(string memory enclaveId, string memory newConnectURL, string memory newPubkey) public {... */\n      pop\n      pop\n      pop\n      jump\t// out\n        /* \"contracts/enclavecontract.sol\":2584:3406  function getAllEnclaves () public view... */\n    tag_14:\n        /* \"contracts/enclavecontract.sol\":2653:2672  string[] memory ids */\n      0x60\n        /* \"contracts/enclavecontract.sol\":2686:2706  string[] memory urls */\n      dup1\n        /* \"contracts/enclavecontract.sol\":2720:2743  string[] memory pubkeys */\n      0x60\n        /* \"contracts/enclavecontract.sol\":2757:2782  uint256[] memory versions */\n      dup1\n        /* \"contracts/enclavecontract.sol\":2796:2823  uint256[] memory timestamps */\n      0x60\n        /* \"contracts/enclavecontract.sol\":2848:2861  uint256 count */\n      0x00\n        /* \"contracts/enclavecontract.sol\":2864:2874  enclaveIds */\n      0x01\n        /* \"contracts/enclavecontract.sol\":2864:2881  enclaveIds.length */\n      dup1\n      sload\n      swap1\n      pop\n        /* \"contracts/enclavecontract.sol\":2848:2881  uint256 count = enclaveIds.length */\n      swap1\n      pop\n        /* \"contracts/enclavecontract.sol\":2910:2915  count */\n      dup1\n        /* \"contracts/enclavecontract.sol\":2897:2916  new string[](count) */\n      0xffffffffffffffff\n      dup2\n      gt\n      iszero\n      tag_53\n      jumpi\n      tag_54\n      tag_55\n      jump\t// in\n    tag_54:\n    tag_53:\n      mload(0x40)\n      swap1\n      dup1\n      dup3\n      mstore\n      dup1\n      0x20\n      mul\n      0x20\n      add\n      dup3\n      add\n      0x40\n      mstore\n      dup1\n      iszero\n      tag_56\n      jumpi\n      dup2\n      0x20\n      add\n    tag_57:\n      0x60\n      dup2\n      mstore\n      0x20\n      add\n      swap1\n      0x01\n      swap1\n      sub\n      swap1\n      dup2\n      tag_57\n      jumpi\n      swap1\n      pop\n    tag_56:\n      pop\n        /* \"contracts/enclavecontract.sol\":2891:2916  ids = new string[](count) */\n      swap6\n      pop\n        /* \"contracts/enclavecontract.sol\":2946:2951  count */\n      dup1\n        /* \"contracts/enclavecontract.sol\":2933:2952  new string[](count) */\n      0xffffffffffffffff\n      dup2\n      gt\n      iszero\n      tag_58\n      jumpi\n      tag_59\n      tag_55\n      jump\t// in\n    tag_59:\n    tag_58:\n      mload(0x40)\n      swap1\n      dup1\n      dup3\n      mstore\n      dup1\n      0x20\n      mul\n      0x20\n      add\n      dup3\n      add\n      0x40\n      mstore\n      dup1\n      iszero\n      tag_60\n      jumpi\n      dup2\n      0x20\n      add\n    tag_61:\n      0x60\n      dup2\n      mstore\n      0x20\n      add\n      swap1\n      0x01\n      swap1\n      sub\n      swap1\n      dup2\n      tag_61\n      jumpi\n      swap1\n      pop\n    tag_60:\n      pop\n        /* \"contracts/enclavecontract.sol\":2926:2952  urls = new string[](count) */\n      swap5\n      pop\n        /* \"contracts/enclavecontract.sol\":2985:2990  count */\n      dup1\n        /* \"contracts/enclavecontract.sol\":2972:2991  new string[](count) */\n      0xffffffffffffffff\n      dup2\n      gt\n      iszero\n      tag_62\n      jumpi\n      tag_63\n      tag_55\n      jump\t// in\n    tag_63:\n    tag_62:\n      mload(0x40)\n      swap1\n      dup1\n      dup3\n      mstore\n      dup1\n      0x20\n      mul\n      0x20\n      add\n      dup3\n      add\n      0x40\n      mstore\n      dup1\n      iszero\n      tag_64\n      jumpi\n      dup2\n      0x20\n      add\n    tag_65:\n      0x60\n      dup2\n      mstore\n      0x20\n      add\n      swap1\n      0x01\n      swap1\n      sub\n      swap1\n      dup2\n      tag_65\n      jumpi\n      swap1\n      pop\n    tag_64:\n      pop\n        /* \"contracts/enclavecontract.sol\":2962:2991  pubkeys = new string[](count) */\n      swap4\n      pop\n        /* \"contracts/enclavecontract.sol\":3026:3031  count */\n      dup1\n        /* \"contracts/enclavecontract.sol\":3012:3032  new uint256[](count) */\n      0xffffffffffffffff\n      dup2\n      gt\n      iszero\n      tag_66\n      jumpi\n      tag_67\n      tag_55\n      jump\t// in\n    tag_67:\n    tag_66:\n      mload(0x40)\n      swap1\n      dup1\n      dup3\n      mstore\n      dup1\n      0x20\n      mul\n      0x20\n      add\n      dup3\n      add\n      0x40\n      mstore\n      dup1\n      iszero\n      tag_68\n      jumpi\n      dup2\n      0x20\n      add\n      0x20\n      dup3\n      mul\n      dup1\n      calldatasize\n      dup4\n      calldatacopy\n      dup1\n      dup3\n      add\n      swap2\n      pop\n      pop\n      swap1\n      pop\n    tag_68:\n      pop\n        /* \"contracts/enclavecontract.sol\":3001:3032  versions = new uint256[](count) */\n      swap3\n      pop\n        /* \"contracts/enclavecontract.sol\":3069:3074  count */\n      dup1\n        /* \"contracts/enclavecontract.sol\":3055:3075  new uint256[](count) */\n      0xffffffffffffffff\n      dup2\n      gt\n      iszero\n      tag_69\n      jumpi\n      tag_70\n      tag_55\n      jump\t// in\n    tag_70:\n    tag_69:\n      mload(0x40)\n      swap1\n      dup1\n      dup3\n      mstore\n      dup1\n      0x20\n      mul\n      0x20\n      add\n      dup3\n      add\n      0x40\n      mstore\n      dup1\n      iszero\n      tag_71\n      jumpi\n      dup2\n      0x20\n      add\n      0x20\n      dup3\n      mul\n      dup1\n      calldatasize\n      dup4\n      calldatacopy\n      dup1\n      dup3\n      add\n      swap2\n      pop\n      pop\n      swap1\n      pop\n    tag_71:\n      pop\n        /* \"contracts/enclavecontract.sol\":3042:3075  timestamps = new uint256[](count) */\n      swap2\n      pop\n        /* \"contracts/enclavecontract.sol\":3091:3100  uint256 i */\n      0x00\n        /* \"contracts/enclavecontract.sol\":3086:3400  for (uint256 i = 0; i < count; i++) {... */\n    tag_72:\n        /* \"contracts/enclavecontract.sol\":3110:3115  count */\n      dup2\n        /* \"contracts/enclavecontract.sol\":3106:3107  i */\n      dup2\n        /* \"contracts/enclavecontract.sol\":3106:3115  i < count */\n      lt\n        /* \"contracts/enclavecontract.sol\":3086:3400  for (uint256 i = 0; i < count; i++) {... */\n      iszero\n      tag_73\n      jumpi\n        /* \"contracts/enclavecontract.sol\":3136:3152  string memory id */\n      0x00\n        /* \"contracts/enclavecontract.sol\":3155:3165  enclaveIds */\n      0x01\n        /* \"contracts/enclavecontract.sol\":3166:3167  i */\n      dup3\n        /* \"contracts/enclavecontract.sol\":3155:3168  enclaveIds[i] */\n      dup2\n      sload\n      dup2\n      lt\n      tag_75\n      jumpi\n      tag_76\n      tag_77\n      jump\t// in\n    tag_76:\n    tag_75:\n      swap1\n      0x00\n      mstore\n      keccak256(0x00, 0x20)\n      add\n        /* \"contracts/enclavecontract.sol\":3136:3168  string memory id = enclaveIds[i] */\n      dup1\n      sload\n      tag_79\n      swap1\n      tag_80\n      jump\t// in\n    tag_79:\n      dup1\n      0x1f\n      add\n      0x20\n      dup1\n      swap2\n      div\n      mul\n      0x20\n      add\n      mload(0x40)\n      swap1\n      dup2\n      add\n      0x40\n      mstore\n      dup1\n      swap3\n      swap2\n      swap1\n      dup2\n      dup2\n      mstore\n      0x20\n      add\n      dup3\n      dup1\n      sload\n      tag_81\n      swap1\n      tag_80\n      jump\t// in\n    tag_81:\n      dup1\n      iszero\n      tag_82\n      jumpi\n      dup1\n      0x1f\n      lt\n      tag_83\n      jumpi\n      0x0100\n      dup1\n      dup4\n      sload\n      div\n      mul\n      dup4\n      mstore\n      swap2\n      0x20\n      add\n      swap2\n      jump(tag_82)\n    tag_83:\n      dup3\n      add\n      swap2\n      swap1\n      0x00\n      mstore\n      keccak256(0x00, 0x20)\n      swap1\n    tag_84:\n      dup2\n      sload\n      dup2\n      mstore\n      swap1\n      0x01\n      add\n      swap1\n      0x20\n      add\n      dup1\n      dup4\n      gt\n      tag_84\n      jumpi\n      dup3\n      swap1\n      sub\n      0x1f\n      and\n      dup3\n      add\n      swap2\n    tag_82:\n      pop\n      pop\n      pop\n      pop\n      pop\n      swap1\n      pop\n        /* \"contracts/enclavecontract.sol\":3182:3199  Enclave storage e */\n      0x00\n        /* \"contracts/enclavecontract.sol\":3202:3210  enclaves */\n      dup1\n        /* \"contracts/enclavecontract.sol\":3211:3213  id */\n      dup3\n        /* \"contracts/enclavecontract.sol\":3202:3214  enclaves[id] */\n      mload(0x40)\n      tag_85\n      swap2\n      swap1\n      tag_41\n      jump\t// in\n    tag_85:\n      swap1\n      dup2\n      mstore\n      0x20\n      add\n      mload(0x40)\n      dup1\n      swap2\n      sub\n      swap1\n      keccak256\n        /* \"contracts/enclavecontract.sol\":3182:3214  Enclave storage e = enclaves[id] */\n      swap1\n      pop\n        /* \"contracts/enclavecontract.sol\":3238:3240  id */\n      dup2\n        /* \"contracts/enclavecontract.sol\":3229:3232  ids */\n      dup10\n        /* \"contracts/enclavecontract.sol\":3233:3234  i */\n      dup5\n        /* \"contracts/enclavecontract.sol\":3229:3235  ids[i] */\n      dup2\n      mload\n      dup2\n      lt\n      tag_86\n      jumpi\n      tag_87\n      tag_77\n      jump\t// in\n    tag_87:\n    tag_86:\n      0x20\n      mul\n      0x20\n      add\n      add\n        /* \"contracts/enclavecontract.sol\":3229:3240  ids[i] = id */\n      dup2\n      swap1\n      mstore\n      pop\n        /* \"contracts/enclavecontract.sol\":3264:3265  e */\n      dup1\n        /* \"contracts/enclavecontract.sol\":3264:3276  e.connectURL */\n      0x00\n      add\n        /* \"contracts/enclavecontract.sol\":3254:3276  urls[i] = e.connectURL */\n      dup1\n      sload\n      tag_88\n      swap1\n      tag_80\n      jump\t// in\n    tag_88:\n      dup1\n      0x1f\n      add\n      0x20\n      dup1\n      swap2\n      div\n      mul\n      0x20\n      add\n      mload(0x40)\n      swap1\n      dup2\n      add\n      0x40\n      mstore\n      dup1\n      swap3\n      swap2\n      swap1\n      dup2\n      dup2\n      mstore\n      0x20\n      add\n      dup3\n      dup1\n      sload\n      tag_89\n      swap1\n      tag_80\n      jump\t// in\n    tag_89:\n      dup1\n      iszero\n      tag_90\n      jumpi\n      dup1\n      0x1f\n      lt\n      tag_91\n      jumpi\n      0x0100\n      dup1\n      dup4\n      sload\n      div\n      mul\n      dup4\n      mstore\n      swap2\n      0x20\n      add\n      swap2\n      jump(tag_90)\n    tag_91:\n      dup3\n      add\n      swap2\n      swap1\n      0x00\n      mstore\n      keccak256(0x00, 0x20)\n      swap1\n    tag_92:\n      dup2\n      sload\n      dup2\n      mstore\n      swap1\n      0x01\n      add\n      swap1\n      0x20\n      add\n      dup1\n      dup4\n      gt\n      tag_92\n      jumpi\n      dup3\n      swap1\n      sub\n      0x1f\n      and\n      dup3\n      add\n      swap2\n    tag_90:\n      pop\n      pop\n      pop\n      pop\n      pop\n        /* \"contracts/enclavecontract.sol\":3254:3258  urls */\n      dup9\n        /* \"contracts/enclavecontract.sol\":3259:3260  i */\n      dup5\n        /* \"contracts/enclavecontract.sol\":3254:3261  urls[i] */\n      dup2\n      mload\n      dup2\n      lt\n      tag_93\n      jumpi\n      tag_94\n      tag_77\n      jump\t// in\n    tag_94:\n    tag_93:\n      0x20\n      mul\n      0x20\n      add\n      add\n        /* \"contracts/enclavecontract.sol\":3254:3276  urls[i] = e.connectURL */\n      dup2\n      swap1\n      mstore\n      pop\n        /* \"contracts/enclavecontract.sol\":3303:3304  e */\n      dup1\n        /* \"contracts/enclavecontract.sol\":3303:3311  e.pubkey */\n      0x01\n      add\n        /* \"contracts/enclavecontract.sol\":3290:3311  pubkeys[i] = e.pubkey */\n      dup1\n      sload\n      tag_95\n      swap1\n      tag_80\n      jump\t// in\n    tag_95:\n      dup1\n      0x1f\n      add\n      0x20\n      dup1\n      swap2\n      div\n      mul\n      0x20\n      add\n      mload(0x40)\n      swap1\n      dup2\n      add\n      0x40\n      mstore\n      dup1\n      swap3\n      swap2\n      swap1\n      dup2\n      dup2\n      mstore\n      0x20\n      add\n      dup3\n      dup1\n      sload\n      tag_96\n      swap1\n      tag_80\n      jump\t// in\n    tag_96:\n      dup1\n      iszero\n      tag_97\n      jumpi\n      dup1\n      0x1f\n      lt\n      tag_98\n      jumpi\n      0x0100\n      dup1\n      dup4\n      sload\n      div\n      mul\n      dup4\n      mstore\n      swap2\n      0x20\n      add\n      swap2\n      jump(tag_97)\n    tag_98:\n      dup3\n      add\n      swap2\n      swap1\n      0x00\n      mstore\n      keccak256(0x00, 0x20)\n      swap1\n    tag_99:\n      dup2\n      sload\n      dup2\n      mstore\n      swap1\n      0x01\n      add\n      swap1\n      0x20\n      add\n      dup1\n      dup4\n      gt\n      tag_99\n      jumpi\n      dup3\n      swap1\n      sub\n      0x1f\n      and\n      dup3\n      add\n      swap2\n    tag_97:\n      pop\n      pop\n      pop\n      pop\n      pop\n        /* \"contracts/enclavecontract.sol\":3290:3297  pubkeys */\n      dup8\n        /* \"contracts/enclavecontract.sol\":3298:3299  i */\n      dup5\n        /* \"contracts/enclavecontract.sol\":3290:3300  pubkeys[i] */\n      dup2\n      mload\n      dup2\n      lt\n      tag_100\n      jumpi\n      tag_101\n      tag_77\n      jump\t// in\n    tag_101:\n    tag_100:\n      0x20\n      mul\n      0x20\n      add\n      add\n        /* \"contracts/enclavecontract.sol\":3290:3311  pubkeys[i] = e.pubkey */\n      dup2\n      swap1\n      mstore\n      pop\n        /* \"contracts/enclavecontract.sol\":3339:3340  e */\n      dup1\n        /* \"contracts/enclavecontract.sol\":3339:3348  e.version */\n      0x02\n      add\n      sload\n        /* \"contracts/enclavecontract.sol\":3325:3333  versions */\n      dup7\n        /* \"contracts/enclavecontract.sol\":3334:3335  i */\n      dup5\n        /* \"contracts/enclavecontract.sol\":3325:3336  versions[i] */\n      dup2\n      mload\n      dup2\n      lt\n      tag_102\n      jumpi\n      tag_103\n      tag_77\n      jump\t// in\n    tag_103:\n    tag_102:\n      0x20\n      mul\n      0x20\n      add\n      add\n        /* \"contracts/enclavecontract.sol\":3325:3348  versions[i] = e.version */\n      dup2\n      dup2\n      mstore\n      pop\n      pop\n        /* \"contracts/enclavecontract.sol\":3378:3379  e */\n      dup1\n        /* \"contracts/enclavecontract.sol\":3378:3389  e.updatedAt */\n      0x03\n      add\n      sload\n        /* \"contracts/enclavecontract.sol\":3362:3372  timestamps */\n      dup6\n        /* \"contracts/enclavecontract.sol\":3373:3374  i */\n      dup5\n        /* \"contracts/enclavecontract.sol\":3362:3375  timestamps[i] */\n      dup2\n      mload\n      dup2\n      lt\n      tag_104\n      jumpi\n      tag_105\n      tag_77\n      jump\t// in\n    tag_105:\n    tag_104:\n      0x20\n      mul\n      0x20\n      add\n      add\n        /* \"contracts/enclavecontract.sol\":3362:3389  timestamps[i] = e.updatedAt */\n      dup2\n      dup2\n      mstore\n      pop\n      pop\n        /* \"contracts/enclavecontract.sol\":3122:3400  {... */\n      pop\n      pop\n        /* \"contracts/enclavecontract.sol\":3117:3120  i++ */\n      dup1\n      dup1\n      0x01\n      add\n      swap2\n      pop\n      pop\n        /* \"contracts/enclavecontract.sol\":3086:3400  for (uint256 i = 0; i < count; i++) {... */\n      jump(tag_72)\n    tag_73:\n      pop\n        /* \"contracts/enclavecontract.sol\":2838:3406  {... */\n      pop\n        /* \"contracts/enclavecontract.sol\":2584:3406  function getAllEnclaves () public view... */\n      swap1\n      swap2\n      swap3\n      swap4\n      swap5\n      jump\t// out\n        /* \"contracts/enclavecontract.sol\":2410:2508  function listEnclaveIds() public view returns (string[] memory) {... */\n    tag_18:\n        /* \"contracts/enclavecontract.sol\":2457:2472  string[] memory */\n      0x60\n        /* \"contracts/enclavecontract.sol\":2491:2501  enclaveIds */\n      0x01\n        /* \"contracts/enclavecontract.sol\":2484:2501  return enclaveIds */\n      dup1\n      sload\n      dup1\n      0x20\n      mul\n      0x20\n      add\n      mload(0x40)\n      swap1\n      dup2\n      add\n      0x40\n      mstore\n      dup1\n      swap3\n      swap2\n      swap1\n      dup2\n      dup2\n      mstore\n      0x20\n      add\n      0x00\n      swap1\n    tag_107:\n      dup3\n      dup3\n      lt\n      iszero\n      tag_108\n      jumpi\n      dup4\n      dup3\n      swap1\n      0x00\n      mstore\n      keccak256(0x00, 0x20)\n      add\n      dup1\n      sload\n      tag_110\n      swap1\n      tag_80\n      jump\t// in\n    tag_110:\n      dup1\n      0x1f\n      add\n      0x20\n      dup1\n      swap2\n      div\n      mul\n      0x20\n      add\n      mload(0x40)\n      swap1\n      dup2\n      add\n      0x40\n      mstore\n      dup1\n      swap3\n      swap2\n      swap1\n      dup2\n      dup2\n      mstore\n      0x20\n      add\n      dup3\n      dup1\n      sload\n      tag_111\n      swap1\n      tag_80\n      jump\t// in\n    tag_111:\n      dup1\n      iszero\n      tag_112\n      jumpi\n      dup1\n      0x1f\n      lt\n      tag_113\n      jumpi\n      0x0100\n      dup1\n      dup4\n      sload\n      div\n      mul\n      dup4\n      mstore\n      swap2\n      0x20\n      add\n      swap2\n      jump(tag_112)\n    tag_113:\n      dup3\n      add\n      swap2\n      swap1\n      0x00\n      mstore\n      keccak256(0x00, 0x20)\n      swap1\n    tag_114:\n      dup2\n      sload\n      dup2\n      mstore\n      swap1\n      0x01\n      add\n      swap1\n      0x20\n      add\n      dup1\n      dup4\n      gt\n      tag_114\n      jumpi\n      dup3\n      swap1\n      sub\n      0x1f\n      and\n      dup3\n      add\n      swap2\n    tag_112:\n      pop\n      pop\n      pop\n      pop\n      pop\n      dup2\n      mstore\n      0x20\n      add\n      swap1\n      0x01\n      add\n      swap1\n      jump(tag_107)\n    tag_108:\n      pop\n      pop\n      pop\n      pop\n      swap1\n      pop\n        /* \"contracts/enclavecontract.sol\":2410:2508  function listEnclaveIds() public view returns (string[] memory) {... */\n      swap1\n      jump\t// out\n        /* \"contracts/enclavecontract.sol\":775:1471  function registerEnclave(string memory enclaveId, string memory connectURL, string memory pubkey) public {... */\n    tag_23:\n        /* \"contracts/enclavecontract.sol\":924:925  0 */\n      0x00\n        /* \"contracts/enclavecontract.sol\":904:913  enclaveId */\n      dup4\n        /* \"contracts/enclavecontract.sol\":898:921  bytes(enclaveId).length */\n      mload\n        /* \"contracts/enclavecontract.sol\":898:925  bytes(enclaveId).length > 0 */\n      gt\n        /* \"contracts/enclavecontract.sol\":890:949  require(bytes(enclaveId).length > 0, \"Enclave ID required\") */\n      tag_116\n      jumpi\n      mload(0x40)\n      0x08c379a000000000000000000000000000000000000000000000000000000000\n      dup2\n      mstore\n      0x04\n      add\n      tag_117\n      swap1\n      tag_118\n      jump\t// in\n    tag_117:\n      mload(0x40)\n      dup1\n      swap2\n      sub\n      swap1\n      revert\n    tag_116:\n        /* \"contracts/enclavecontract.sol\":994:995  0 */\n      0x00\n        /* \"contracts/enclavecontract.sol\":973:983  connectURL */\n      dup3\n        /* \"contracts/enclavecontract.sol\":967:991  bytes(connectURL).length */\n      mload\n        /* \"contracts/enclavecontract.sol\":967:995  bytes(connectURL).length > 0 */\n      gt\n        /* \"contracts/enclavecontract.sol\":959:1020  require(bytes(connectURL).length > 0, \"Connect URL required\") */\n      tag_119\n      jumpi\n      mload(0x40)\n      0x08c379a000000000000000000000000000000000000000000000000000000000\n      dup2\n      mstore\n      0x04\n      add\n      tag_120\n      swap1\n      tag_121\n      jump\t// in\n    tag_120:\n      mload(0x40)\n      dup1\n      swap2\n      sub\n      swap1\n      revert\n    tag_119:\n        /* \"contracts/enclavecontract.sol\":1061:1062  0 */\n      0x00\n        /* \"contracts/enclavecontract.sol\":1044:1050  pubkey */\n      dup2\n        /* \"contracts/enclavecontract.sol\":1038:1058  bytes(pubkey).length */\n      mload\n        /* \"contracts/enclavecontract.sol\":1038:1062  bytes(pubkey).length > 0 */\n      gt\n        /* \"contracts/enclavecontract.sol\":1030:1086  require(bytes(pubkey).length > 0, \"Public key required\") */\n      tag_122\n      jumpi\n      mload(0x40)\n      0x08c379a000000000000000000000000000000000000000000000000000000000\n      dup2\n      mstore\n      0x04\n      add\n      tag_123\n      swap1\n      tag_124\n      jump\t// in\n    tag_123:\n      mload(0x40)\n      dup1\n      swap2\n      sub\n      swap1\n      revert\n    tag_122:\n        /* \"contracts/enclavecontract.sol\":1135:1136  0 */\n      0x00\n        /* \"contracts/enclavecontract.sol\":1104:1112  enclaves */\n      dup1\n        /* \"contracts/enclavecontract.sol\":1113:1122  enclaveId */\n      dup5\n        /* \"contracts/enclavecontract.sol\":1104:1123  enclaves[enclaveId] */\n      mload(0x40)\n      tag_125\n      swap2\n      swap1\n      tag_41\n      jump\t// in\n    tag_125:\n      swap1\n      dup2\n      mstore\n      0x20\n      add\n      mload(0x40)\n      dup1\n      swap2\n      sub\n      swap1\n      keccak256\n        /* \"contracts/enclavecontract.sol\":1104:1131  enclaves[enclaveId].version */\n      0x02\n      add\n      sload\n        /* \"contracts/enclavecontract.sol\":1104:1136  enclaves[enclaveId].version == 0 */\n      eq\n        /* \"contracts/enclavecontract.sol\":1096:1163  require(enclaves[enclaveId].version == 0, \"Enclave already exists\") */\n      tag_126\n      jumpi\n      mload(0x40)\n      0x08c379a000000000000000000000000000000000000000000000000000000000\n      dup2\n      mstore\n      0x04\n      add\n      tag_127\n      swap1\n      tag_128\n      jump\t// in\n    tag_127:\n      mload(0x40)\n      dup1\n      swap2\n      sub\n      swap1\n      revert\n    tag_126:\n        /* \"contracts/enclavecontract.sol\":1196:1343  Enclave({... */\n      mload(0x40)\n      dup1\n      0x80\n      add\n      0x40\n      mstore\n      dup1\n        /* \"contracts/enclavecontract.sol\":1230:1240  connectURL */\n      dup4\n        /* \"contracts/enclavecontract.sol\":1196:1343  Enclave({... */\n      dup2\n      mstore\n      0x20\n      add\n        /* \"contracts/enclavecontract.sol\":1262:1268  pubkey */\n      dup3\n        /* \"contracts/enclavecontract.sol\":1196:1343  Enclave({... */\n      dup2\n      mstore\n      0x20\n      add\n        /* \"contracts/enclavecontract.sol\":1291:1292  1 */\n      0x01\n        /* \"contracts/enclavecontract.sol\":1196:1343  Enclave({... */\n      dup2\n      mstore\n      0x20\n      add\n        /* \"contracts/enclavecontract.sol\":1317:1332  block.timestamp */\n      timestamp\n        /* \"contracts/enclavecontract.sol\":1196:1343  Enclave({... */\n      dup2\n      mstore\n      pop\n        /* \"contracts/enclavecontract.sol\":1174:1182  enclaves */\n      0x00\n        /* \"contracts/enclavecontract.sol\":1183:1192  enclaveId */\n      dup5\n        /* \"contracts/enclavecontract.sol\":1174:1193  enclaves[enclaveId] */\n      mload(0x40)\n      tag_129\n      swap2\n      swap1\n      tag_41\n      jump\t// in\n    tag_129:\n      swap1\n      dup2\n      mstore\n      0x20\n      add\n      mload(0x40)\n      dup1\n      swap2\n      sub\n      swap1\n      keccak256\n        /* \"contracts/enclavecontract.sol\":1174:1343  enclaves[enclaveId] = Enclave({... */\n      0x00\n      dup3\n      add\n      mload\n      dup2\n      0x00\n      add\n      swap1\n      dup2\n      tag_130\n      swap2\n      swap1\n      tag_46\n      jump\t// in\n    tag_130:\n      pop\n      0x20\n      dup3\n      add\n      mload\n      dup2\n      0x01\n      add\n      swap1\n      dup2\n      tag_131\n      swap2\n      swap1\n      tag_46\n      jump\t// in\n    tag_131:\n      pop\n      0x40\n      dup3\n      add\n      mload\n      dup2\n      0x02\n      add\n      sstore\n      0x60\n      dup3\n      add\n      mload\n      dup2\n      0x03\n      add\n      sstore\n      swap1\n      pop\n      pop\n        /* \"contracts/enclavecontract.sol\":1354:1364  enclaveIds */\n      0x01\n        /* \"contracts/enclavecontract.sol\":1370:1379  enclaveId */\n      dup4\n        /* \"contracts/enclavecontract.sol\":1354:1380  enclaveIds.push(enclaveId) */\n      swap1\n      dup1\n      0x01\n      dup2\n      sload\n      add\n      dup1\n      dup3\n      sstore\n      dup1\n      swap2\n      pop\n      pop\n      0x01\n      swap1\n      sub\n      swap1\n      0x00\n      mstore\n      keccak256(0x00, 0x20)\n      add\n      0x00\n      swap1\n      swap2\n      swap1\n      swap2\n      swap1\n      swap2\n      pop\n      swap1\n      dup2\n      tag_133\n      swap2\n      swap1\n      tag_46\n      jump\t// in\n    tag_133:\n      pop\n        /* \"contracts/enclavecontract.sol\":1414:1423  enclaveId */\n      dup3\n        /* \"contracts/enclavecontract.sol\":1396:1464  EnclaveRegistered(enclaveId, connectURL, pubkey, 1, block.timestamp) */\n      mload(0x40)\n      tag_134\n      swap2\n      swap1\n      tag_41\n      jump\t// in\n    tag_134:\n      mload(0x40)\n      dup1\n      swap2\n      sub\n      swap1\n      keccak256\n      0x3fa539bee9fa84e37f78eda39fa4bcdbd2ed9727b4857312813a8a9c64b81ed4\n        /* \"contracts/enclavecontract.sol\":1425:1435  connectURL */\n      dup4\n        /* \"contracts/enclavecontract.sol\":1437:1443  pubkey */\n      dup4\n        /* \"contracts/enclavecontract.sol\":1445:1446  1 */\n      0x01\n        /* \"contracts/enclavecontract.sol\":1448:1463  block.timestamp */\n      timestamp\n        /* \"contracts/enclavecontract.sol\":1396:1464  EnclaveRegistered(enclaveId, connectURL, pubkey, 1, block.timestamp) */\n      mload(0x40)\n      tag_135\n      swap5\n      swap4\n      swap3\n      swap2\n      swap1\n      tag_136\n      jump\t// in\n    tag_135:\n      mload(0x40)\n      dup1\n      swap2\n      sub\n      swap1\n      log2\n        /* \"contracts/enclavecontract.sol\":775:1471  function registerEnclave(string memory enclaveId, string memory connectURL, string memory pubkey) public {... */\n      pop\n      pop\n      pop\n      jump\t// out\n        /* \"contracts/enclavecontract.sol\":3465:4079  function deleteEnclave(string memory enclaveId) public {... */\n    tag_27:\n        /* \"contracts/enclavecontract.sol\":3530:3547  Enclave storage e */\n      0x00\n        /* \"contracts/enclavecontract.sol\":3550:3558  enclaves */\n      dup1\n        /* \"contracts/enclavecontract.sol\":3559:3568  enclaveId */\n      dup3\n        /* \"contracts/enclavecontract.sol\":3550:3569  enclaves[enclaveId] */\n      mload(0x40)\n      tag_138\n      swap2\n      swap1\n      tag_41\n      jump\t// in\n    tag_138:\n      swap1\n      dup2\n      mstore\n      0x20\n      add\n      mload(0x40)\n      dup1\n      swap2\n      sub\n      swap1\n      keccak256\n        /* \"contracts/enclavecontract.sol\":3530:3569  Enclave storage e = enclaves[enclaveId] */\n      swap1\n      pop\n        /* \"contracts/enclavecontract.sol\":3599:3600  0 */\n      0x00\n        /* \"contracts/enclavecontract.sol\":3587:3588  e */\n      dup2\n        /* \"contracts/enclavecontract.sol\":3587:3596  e.version */\n      0x02\n      add\n      sload\n        /* \"contracts/enclavecontract.sol\":3587:3600  e.version > 0 */\n      gt\n        /* \"contracts/enclavecontract.sol\":3579:3622  require(e.version > 0, \"Enclave not found\") */\n      tag_139\n      jumpi\n      mload(0x40)\n      0x08c379a000000000000000000000000000000000000000000000000000000000\n      dup2\n      mstore\n      0x04\n      add\n      tag_140\n      swap1\n      tag_44\n      jump\t// in\n    tag_140:\n      mload(0x40)\n      dup1\n      swap2\n      sub\n      swap1\n      revert\n    tag_139:\n        /* \"contracts/enclavecontract.sol\":3640:3648  enclaves */\n      0x00\n        /* \"contracts/enclavecontract.sol\":3649:3658  enclaveId */\n      dup3\n        /* \"contracts/enclavecontract.sol\":3640:3659  enclaves[enclaveId] */\n      mload(0x40)\n      tag_141\n      swap2\n      swap1\n      tag_41\n      jump\t// in\n    tag_141:\n      swap1\n      dup2\n      mstore\n      0x20\n      add\n      mload(0x40)\n      dup1\n      swap2\n      sub\n      swap1\n      keccak256\n      0x00\n        /* \"contracts/enclavecontract.sol\":3633:3659  delete enclaves[enclaveId] */\n      dup1\n      dup3\n      add\n      0x00\n      tag_142\n      swap2\n      swap1\n      tag_143\n      jump\t// in\n    tag_142:\n      0x01\n      dup3\n      add\n      0x00\n      tag_144\n      swap2\n      swap1\n      tag_143\n      jump\t// in\n    tag_144:\n      0x02\n      dup3\n      add\n      0x00\n      swap1\n      sstore\n      0x03\n      dup3\n      add\n      0x00\n      swap1\n      sstore\n      pop\n      pop\n        /* \"contracts/enclavecontract.sol\":3712:3725  uint256 count */\n      0x00\n        /* \"contracts/enclavecontract.sol\":3728:3738  enclaveIds */\n      0x01\n        /* \"contracts/enclavecontract.sol\":3728:3745  enclaveIds.length */\n      dup1\n      sload\n      swap1\n      pop\n        /* \"contracts/enclavecontract.sol\":3712:3745  uint256 count = enclaveIds.length */\n      swap1\n      pop\n        /* \"contracts/enclavecontract.sol\":3760:3769  uint256 i */\n      0x00\n        /* \"contracts/enclavecontract.sol\":3755:4032  for (uint256 i = 0; i < count; i++) {... */\n    tag_145:\n        /* \"contracts/enclavecontract.sol\":3779:3784  count */\n      dup2\n        /* \"contracts/enclavecontract.sol\":3775:3776  i */\n      dup2\n        /* \"contracts/enclavecontract.sol\":3775:3784  i < count */\n      lt\n        /* \"contracts/enclavecontract.sol\":3755:4032  for (uint256 i = 0; i < count; i++) {... */\n      iszero\n      tag_146\n      jumpi\n        /* \"contracts/enclavecontract.sol\":3882:3891  enclaveId */\n      dup4\n        /* \"contracts/enclavecontract.sol\":3865:3892  abi.encodePacked(enclaveId) */\n      add(0x20, mload(0x40))\n      tag_148\n      swap2\n      swap1\n      tag_41\n      jump\t// in\n    tag_148:\n      mload(0x40)\n      0x20\n      dup2\n      dup4\n      sub\n      sub\n      dup2\n      mstore\n      swap1\n      0x40\n      mstore\n        /* \"contracts/enclavecontract.sol\":3855:3893  keccak256(abi.encodePacked(enclaveId)) */\n      dup1\n      mload\n      swap1\n      0x20\n      add\n      keccak256\n        /* \"contracts/enclavecontract.sol\":3836:3846  enclaveIds */\n      0x01\n        /* \"contracts/enclavecontract.sol\":3847:3848  i */\n      dup3\n        /* \"contracts/enclavecontract.sol\":3836:3849  enclaveIds[i] */\n      dup2\n      sload\n      dup2\n      lt\n      tag_149\n      jumpi\n      tag_150\n      tag_77\n      jump\t// in\n    tag_150:\n    tag_149:\n      swap1\n      0x00\n      mstore\n      keccak256(0x00, 0x20)\n      add\n        /* \"contracts/enclavecontract.sol\":3819:3850  abi.encodePacked(enclaveIds[i]) */\n      add(0x20, mload(0x40))\n      tag_152\n      swap2\n      swap1\n      tag_153\n      jump\t// in\n    tag_152:\n      mload(0x40)\n      0x20\n      dup2\n      dup4\n      sub\n      sub\n      dup2\n      mstore\n      swap1\n      0x40\n      mstore\n        /* \"contracts/enclavecontract.sol\":3809:3851  keccak256(abi.encodePacked(enclaveIds[i])) */\n      dup1\n      mload\n      swap1\n      0x20\n      add\n      keccak256\n        /* \"contracts/enclavecontract.sol\":3809:3893  keccak256(abi.encodePacked(enclaveIds[i])) == keccak256(abi.encodePacked(enclaveId)) */\n      sub\n        /* \"contracts/enclavecontract.sol\":3805:4022  if (keccak256(abi.encodePacked(enclaveIds[i])) == keccak256(abi.encodePacked(enclaveId))) {... */\n      tag_154\n      jumpi\n        /* \"contracts/enclavecontract.sol\":3929:3939  enclaveIds */\n      0x01\n        /* \"contracts/enclavecontract.sol\":3948:3949  1 */\n      dup1\n        /* \"contracts/enclavecontract.sol\":3940:3945  count */\n      dup4\n        /* \"contracts/enclavecontract.sol\":3940:3949  count - 1 */\n      tag_155\n      swap2\n      swap1\n      tag_156\n      jump\t// in\n    tag_155:\n        /* \"contracts/enclavecontract.sol\":3929:3950  enclaveIds[count - 1] */\n      dup2\n      sload\n      dup2\n      lt\n      tag_157\n      jumpi\n      tag_158\n      tag_77\n      jump\t// in\n    tag_158:\n    tag_157:\n      swap1\n      0x00\n      mstore\n      keccak256(0x00, 0x20)\n      add\n        /* \"contracts/enclavecontract.sol\":3913:3923  enclaveIds */\n      0x01\n        /* \"contracts/enclavecontract.sol\":3924:3925  i */\n      dup3\n        /* \"contracts/enclavecontract.sol\":3913:3926  enclaveIds[i] */\n      dup2\n      sload\n      dup2\n      lt\n      tag_160\n      jumpi\n      tag_161\n      tag_77\n      jump\t// in\n    tag_161:\n    tag_160:\n      swap1\n      0x00\n      mstore\n      keccak256(0x00, 0x20)\n      add\n        /* \"contracts/enclavecontract.sol\":3913:3950  enclaveIds[i] = enclaveIds[count - 1] */\n      swap1\n      dup2\n      tag_163\n      swap2\n      swap1\n      tag_164\n      jump\t// in\n    tag_163:\n      pop\n        /* \"contracts/enclavecontract.sol\":3968:3978  enclaveIds */\n      0x01\n        /* \"contracts/enclavecontract.sol\":3968:3984  enclaveIds.pop() */\n      dup1\n      sload\n      dup1\n      tag_165\n      jumpi\n      tag_166\n      tag_167\n      jump\t// in\n    tag_166:\n    tag_165:\n      0x01\n      swap1\n      sub\n      dup2\n      dup2\n      swap1\n      0x00\n      mstore\n      keccak256(0x00, 0x20)\n      add\n      0x00\n      tag_169\n      swap2\n      swap1\n      tag_143\n      jump\t// in\n    tag_169:\n      swap1\n      sstore\n        /* \"contracts/enclavecontract.sol\":4002:4007  break */\n      jump(tag_146)\n        /* \"contracts/enclavecontract.sol\":3805:4022  if (keccak256(abi.encodePacked(enclaveIds[i])) == keccak256(abi.encodePacked(enclaveId))) {... */\n    tag_154:\n        /* \"contracts/enclavecontract.sol\":3786:3789  i++ */\n      dup1\n      dup1\n      0x01\n      add\n      swap2\n      pop\n      pop\n        /* \"contracts/enclavecontract.sol\":3755:4032  for (uint256 i = 0; i < count; i++) {... */\n      jump(tag_145)\n    tag_146:\n      pop\n        /* \"contracts/enclavecontract.sol\":4062:4071  enclaveId */\n      dup3\n        /* \"contracts/enclavecontract.sol\":4047:4072  EnclaveDeleted(enclaveId) */\n      mload(0x40)\n      tag_170\n      swap2\n      swap1\n      tag_41\n      jump\t// in\n    tag_170:\n      mload(0x40)\n      dup1\n      swap2\n      sub\n      swap1\n      keccak256\n      0x89d0532994016674064c39c0f9ab6740e13cf7aa0c4491dcdbd9fd3f9f5a9e9f\n      mload(0x40)\n      mload(0x40)\n      dup1\n      swap2\n      sub\n      swap1\n      log2\n        /* \"contracts/enclavecontract.sol\":3520:4079  {... */\n      pop\n      pop\n        /* \"contracts/enclavecontract.sol\":3465:4079  function deleteEnclave(string memory enclaveId) public {... */\n      pop\n      jump\t// out\n        /* \"contracts/enclavecontract.sol\":2080:2404  function getEnclave(string memory enclaveId) public view returns (string memory connectURL, string memory pubkey, uint256 version, uint256 updatedAt) {... */\n    tag_30:\n        /* \"contracts/enclavecontract.sol\":2146:2170  string memory connectURL */\n      0x60\n        /* \"contracts/enclavecontract.sol\":2172:2192  string memory pubkey */\n      dup1\n        /* \"contracts/enclavecontract.sol\":2194:2209  uint256 version */\n      0x00\n        /* \"contracts/enclavecontract.sol\":2211:2228  uint256 updatedAt */\n      dup1\n        /* \"contracts/enclavecontract.sol\":2240:2257  Enclave storage e */\n      0x00\n        /* \"contracts/enclavecontract.sol\":2260:2268  enclaves */\n      dup1\n        /* \"contracts/enclavecontract.sol\":2269:2278  enclaveId */\n      dup7\n        /* \"contracts/enclavecontract.sol\":2260:2279  enclaves[enclaveId] */\n      mload(0x40)\n      tag_172\n      swap2\n      swap1\n      tag_41\n      jump\t// in\n    tag_172:\n      swap1\n      dup2\n      mstore\n      0x20\n      add\n      mload(0x40)\n      dup1\n      swap2\n      sub\n      swap1\n      keccak256\n        /* \"contracts/enclavecontract.sol\":2240:2279  Enclave storage e = enclaves[enclaveId] */\n      swap1\n      pop\n        /* \"contracts/enclavecontract.sol\":2309:2310  0 */\n      0x00\n        /* \"contracts/enclavecontract.sol\":2297:2298  e */\n      dup2\n        /* \"contracts/enclavecontract.sol\":2297:2306  e.version */\n      0x02\n      add\n      sload\n        /* \"contracts/enclavecontract.sol\":2297:2310  e.version > 0 */\n      gt\n        /* \"contracts/enclavecontract.sol\":2289:2332  require(e.version > 0, \"Enclave not found\") */\n      tag_173\n      jumpi\n      mload(0x40)\n      0x08c379a000000000000000000000000000000000000000000000000000000000\n      dup2\n      mstore\n      0x04\n      add\n      tag_174\n      swap1\n      tag_44\n      jump\t// in\n    tag_174:\n      mload(0x40)\n      dup1\n      swap2\n      sub\n      swap1\n      revert\n    tag_173:\n        /* \"contracts/enclavecontract.sol\":2350:2351  e */\n      dup1\n        /* \"contracts/enclavecontract.sol\":2350:2362  e.connectURL */\n      0x00\n      add\n        /* \"contracts/enclavecontract.sol\":2364:2365  e */\n      dup2\n        /* \"contracts/enclavecontract.sol\":2364:2372  e.pubkey */\n      0x01\n      add\n        /* \"contracts/enclavecontract.sol\":2374:2375  e */\n      dup3\n        /* \"contracts/enclavecontract.sol\":2374:2383  e.version */\n      0x02\n      add\n      sload\n        /* \"contracts/enclavecontract.sol\":2385:2386  e */\n      dup4\n        /* \"contracts/enclavecontract.sol\":2385:2396  e.updatedAt */\n      0x03\n      add\n      sload\n        /* \"contracts/enclavecontract.sol\":2342:2397  return (e.connectURL, e.pubkey, e.version, e.updatedAt) */\n      dup4\n      dup1\n      sload\n      tag_175\n      swap1\n      tag_80\n      jump\t// in\n    tag_175:\n      dup1\n      0x1f\n      add\n      0x20\n      dup1\n      swap2\n      div\n      mul\n      0x20\n      add\n      mload(0x40)\n      swap1\n      dup2\n      add\n      0x40\n      mstore\n      dup1\n      swap3\n      swap2\n      swap1\n      dup2\n      dup2\n      mstore\n      0x20\n      add\n      dup3\n      dup1\n      sload\n      tag_176\n      swap1\n      tag_80\n      jump\t// in\n    tag_176:\n      dup1\n      iszero\n      tag_177\n      jumpi\n      dup1\n      0x1f\n      lt\n      tag_178\n      jumpi\n      0x0100\n      dup1\n      dup4\n      sload\n      div\n      mul\n      dup4\n      mstore\n      swap2\n      0x20\n      add\n      swap2\n      jump(tag_177)\n    tag_178:\n      dup3\n      add\n      swap2\n      swap1\n      0x00\n      mstore\n      keccak256(0x00, 0x20)\n      swap1\n    tag_179:\n      dup2\n      sload\n      dup2\n      mstore\n      swap1\n      0x01\n      add\n      swap1\n      0x20\n      add\n      dup1\n      dup4\n      gt\n      tag_179\n      jumpi\n      dup3\n      swap1\n      sub\n      0x1f\n      and\n      dup3\n      add\n      swap2\n    tag_177:\n      pop\n      pop\n      pop\n      pop\n      pop\n      swap4\n      pop\n      dup3\n      dup1\n      sload\n      tag_180\n      swap1\n      tag_80\n      jump\t// in\n    tag_180:\n      dup1\n      0x1f\n      add\n      0x20\n      dup1\n      swap2\n      div\n      mul\n      0x20\n      add\n      mload(0x40)\n      swap1\n      dup2\n      add\n      0x40\n      mstore\n      dup1\n      swap3\n      swap2\n      swap1\n      dup2\n      dup2\n      mstore\n      0x20\n      add\n      dup3\n      dup1\n      sload\n      tag_181\n      swap1\n      tag_80\n      jump\t// in\n    tag_181:\n      dup1\n      iszero\n      tag_182\n      jumpi\n      dup1\n      0x1f\n      lt\n      tag_183\n      jumpi\n      0x0100\n      dup1\n      dup4\n      sload\n      div\n      mul\n      dup4\n      mstore\n      swap2\n      0x20\n      add\n      swap2\n      jump(tag_182)\n    tag_183:\n      dup3\n      add\n      swap2\n      swap1\n      0x00\n      mstore\n      keccak256(0x00, 0x20)\n      swap1\n    tag_184:\n      dup2\n      sload\n      dup2\n      mstore\n      swap1\n      0x01\n      add\n      swap1\n      0x20\n      add\n      dup1\n      dup4\n      gt\n      tag_184\n      jumpi\n      dup3\n      swap1\n      sub\n      0x1f\n      and\n      dup3\n      add\n      swap2\n    tag_182:\n      pop\n      pop\n      pop\n      pop\n      pop\n      swap3\n      pop\n      swap5\n      pop\n      swap5\n      pop\n      swap5\n      pop\n      swap5\n      pop\n      pop\n        /* \"contracts/enclavecontract.sol\":2080:2404  function getEnclave(string memory enclaveId) public view returns (string memory connectURL, string memory pubkey, uint256 version, uint256 updatedAt) {... */\n      swap2\n      swap4\n      pop\n      swap2\n      swap4\n      jump\t// out\n    tag_143:\n      pop\n      dup1\n      sload\n      tag_185\n      swap1\n      tag_80\n      jump\t// in\n    tag_185:\n      0x00\n      dup3\n      sstore\n      dup1\n      0x1f\n      lt\n      tag_187\n      jumpi\n      pop\n      jump(tag_186)\n    tag_187:\n      0x1f\n      add\n      0x20\n      swap1\n      div\n      swap1\n      0x00\n      mstore\n      keccak256(0x00, 0x20)\n      swap1\n      dup2\n      add\n      swap1\n      tag_188\n      swap2\n      swap1\n      tag_189\n      jump\t// in\n    tag_188:\n    tag_186:\n      pop\n      jump\t// out\n    tag_189:\n    tag_190:\n      dup1\n      dup3\n      gt\n      iszero\n      tag_191\n      jumpi\n      0x00\n      dup2\n      0x00\n      swap1\n      sstore\n      pop\n      0x01\n      add\n      jump(tag_190)\n    tag_191:\n      pop\n      swap1\n      jump\t// out\n        /* \"#utility.yul\":7:82   */\n    tag_192:\n        /* \"#utility.yul\":40:46   */\n      0x00\n        /* \"#utility.yul\":73:75   */\n      0x40\n        /* \"#utility.yul\":67:76   */\n      mload\n        /* \"#utility.yul\":57:76   */\n      swap1\n      pop\n        /* \"#utility.yul\":7:82   */\n      swap1\n      jump\t// out\n        /* \"#utility.yul\":88:205   */\n    tag_193:\n        /* \"#utility.yul\":197:198   */\n      0x00\n        /* \"#utility.yul\":194:195   */\n      dup1\n        /* \"#utility.yul\":187:199   */\n      revert\n        /* \"#utility.yul\":211:328   */\n    tag_194:\n        /* \"#utility.yul\":320:321   */\n      0x00\n        /* \"#utility.yul\":317:318   */\n      dup1\n        /* \"#utility.yul\":310:322   */\n      revert\n        /* \"#utility.yul\":334:451   */\n    tag_195:\n        /* \"#utility.yul\":443:444   */\n      0x00\n        /* \"#utility.yul\":440:441   */\n      dup1\n        /* \"#utility.yul\":433:445   */\n      revert\n        /* \"#utility.yul\":457:574   */\n    tag_196:\n        /* \"#utility.yul\":566:567   */\n      0x00\n        /* \"#utility.yul\":563:564   */\n      dup1\n        /* \"#utility.yul\":556:568   */\n      revert\n        /* \"#utility.yul\":580:682   */\n    tag_197:\n        /* \"#utility.yul\":621:627   */\n      0x00\n        /* \"#utility.yul\":672:674   */\n      0x1f\n        /* \"#utility.yul\":668:675   */\n      not\n        /* \"#utility.yul\":663:665   */\n      0x1f\n        /* \"#utility.yul\":656:661   */\n      dup4\n        /* \"#utility.yul\":652:666   */\n      add\n        /* \"#utility.yul\":648:676   */\n      and\n        /* \"#utility.yul\":638:676   */\n      swap1\n      pop\n        /* \"#utility.yul\":580:682   */\n      swap2\n      swap1\n      pop\n      jump\t// out\n        /* \"#utility.yul\":688:868   */\n    tag_55:\n        /* \"#utility.yul\":736:813   */\n      0x4e487b7100000000000000000000000000000000000000000000000000000000\n        /* \"#utility.yul\":733:734   */\n      0x00\n        /* \"#utility.yul\":726:814   */\n      mstore\n        /* \"#utility.yul\":833:837   */\n      0x41\n        /* \"#utility.yul\":830:831   */\n      0x04\n        /* \"#utility.yul\":823:838   */\n      mstore\n        /* \"#utility.yul\":857:861   */\n      0x24\n        /* \"#utility.yul\":854:855   */\n      0x00\n        /* \"#utility.yul\":847:862   */\n      revert\n        /* \"#utility.yul\":874:1155   */\n    tag_198:\n        /* \"#utility.yul\":957:984   */\n      tag_273\n        /* \"#utility.yul\":979:983   */\n      dup3\n        /* \"#utility.yul\":957:984   */\n      tag_197\n      jump\t// in\n    tag_273:\n        /* \"#utility.yul\":949:955   */\n      dup2\n        /* \"#utility.yul\":945:985   */\n      add\n        /* \"#utility.yul\":1087:1093   */\n      dup2\n        /* \"#utility.yul\":1075:1085   */\n      dup2\n        /* \"#utility.yul\":1072:1094   */\n      lt\n        /* \"#utility.yul\":1051:1069   */\n      0xffffffffffffffff\n        /* \"#utility.yul\":1039:1049   */\n      dup3\n        /* \"#utility.yul\":1036:1070   */\n      gt\n        /* \"#utility.yul\":1033:1095   */\n      or\n        /* \"#utility.yul\":1030:1118   */\n      iszero\n      tag_274\n      jumpi\n        /* \"#utility.yul\":1098:1116   */\n      tag_275\n      tag_55\n      jump\t// in\n    tag_275:\n        /* \"#utility.yul\":1030:1118   */\n    tag_274:\n        /* \"#utility.yul\":1138:1148   */\n      dup1\n        /* \"#utility.yul\":1134:1136   */\n      0x40\n        /* \"#utility.yul\":1127:1149   */\n      mstore\n        /* \"#utility.yul\":917:1155   */\n      pop\n        /* \"#utility.yul\":874:1155   */\n      pop\n      pop\n      jump\t// out\n        /* \"#utility.yul\":1161:1290   */\n    tag_199:\n        /* \"#utility.yul\":1195:1201   */\n      0x00\n        /* \"#utility.yul\":1222:1242   */\n      tag_277\n      tag_192\n      jump\t// in\n    tag_277:\n        /* \"#utility.yul\":1212:1242   */\n      swap1\n      pop\n        /* \"#utility.yul\":1251:1284   */\n      tag_278\n        /* \"#utility.yul\":1279:1283   */\n      dup3\n        /* \"#utility.yul\":1271:1277   */\n      dup3\n        /* \"#utility.yul\":1251:1284   */\n      tag_198\n      jump\t// in\n    tag_278:\n        /* \"#utility.yul\":1161:1290   */\n      swap2\n      swap1\n      pop\n      jump\t// out\n        /* \"#utility.yul\":1296:1604   */\n    tag_200:\n        /* \"#utility.yul\":1358:1362   */\n      0x00\n        /* \"#utility.yul\":1448:1466   */\n      0xffffffffffffffff\n        /* \"#utility.yul\":1440:1446   */\n      dup3\n        /* \"#utility.yul\":1437:1467   */\n      gt\n        /* \"#utility.yul\":1434:1490   */\n      iszero\n      tag_280\n      jumpi\n        /* \"#utility.yul\":1470:1488   */\n      tag_281\n      tag_55\n      jump\t// in\n    tag_281:\n        /* \"#utility.yul\":1434:1490   */\n    tag_280:\n        /* \"#utility.yul\":1508:1537   */\n      tag_282\n        /* \"#utility.yul\":1530:1536   */\n      dup3\n        /* \"#utility.yul\":1508:1537   */\n      tag_197\n      jump\t// in\n    tag_282:\n        /* \"#utility.yul\":1500:1537   */\n      swap1\n      pop\n        /* \"#utility.yul\":1592:1596   */\n      0x20\n        /* \"#utility.yul\":1586:1590   */\n      dup2\n        /* \"#utility.yul\":1582:1597   */\n      add\n        /* \"#utility.yul\":1574:1597   */\n      swap1\n      pop\n        /* \"#utility.yul\":1296:1604   */\n      swap2\n      swap1\n      pop\n      jump\t// out\n        /* \"#utility.yul\":1610:1756   */\n    tag_201:\n        /* \"#utility.yul\":1707:1713   */\n      dup3\n        /* \"#utility.yul\":1702:1705   */\n      dup2\n        /* \"#utility.yul\":1697:1700   */\n      dup4\n        /* \"#utility.yul\":1684:1714   */\n      calldatacopy\n        /* \"#utility.yul\":1748:1749   */\n      0x00\n        /* \"#utility.yul\":1739:1745   */\n      dup4\n        /* \"#utility.yul\":1734:1737   */\n      dup4\n        /* \"#utility.yul\":1730:1746   */\n      add\n        /* \"#utility.yul\":1723:1750   */\n      mstore\n        /* \"#utility.yul\":1610:1756   */\n      pop\n      pop\n      pop\n      jump\t// out\n        /* \"#utility.yul\":1762:2187   */\n    tag_202:\n        /* \"#utility.yul\":1840:1845   */\n      0x00\n        /* \"#utility.yul\":1865:1931   */\n      tag_285\n        /* \"#utility.yul\":1881:1930   */\n      tag_286\n        /* \"#utility.yul\":1923:1929   */\n      dup5\n        /* \"#utility.yul\":1881:1930   */\n      tag_200\n      jump\t// in\n    tag_286:\n        /* \"#utility.yul\":1865:1931   */\n      tag_199\n      jump\t// in\n    tag_285:\n        /* \"#utility.yul\":1856:1931   */\n      swap1\n      pop\n        /* \"#utility.yul\":1954:1960   */\n      dup3\n        /* \"#utility.yul\":1947:1952   */\n      dup2\n        /* \"#utility.yul\":1940:1961   */\n      mstore\n        /* \"#utility.yul\":1992:1996   */\n      0x20\n        /* \"#utility.yul\":1985:1990   */\n      dup2\n        /* \"#utility.yul\":1981:1997   */\n      add\n        /* \"#utility.yul\":2030:2033   */\n      dup5\n        /* \"#utility.yul\":2021:2027   */\n      dup5\n        /* \"#utility.yul\":2016:2019   */\n      dup5\n        /* \"#utility.yul\":2012:2028   */\n      add\n        /* \"#utility.yul\":2009:2034   */\n      gt\n        /* \"#utility.yul\":2006:2118   */\n      iszero\n      tag_287\n      jumpi\n        /* \"#utility.yul\":2037:2116   */\n      tag_288\n      tag_196\n      jump\t// in\n    tag_288:\n        /* \"#utility.yul\":2006:2118   */\n    tag_287:\n        /* \"#utility.yul\":2127:2181   */\n      tag_289\n        /* \"#utility.yul\":2174:2180   */\n      dup5\n        /* \"#utility.yul\":2169:2172   */\n      dup3\n        /* \"#utility.yul\":2164:2167   */\n      dup6\n        /* \"#utility.yul\":2127:2181   */\n      tag_201\n      jump\t// in\n    tag_289:\n        /* \"#utility.yul\":1846:2187   */\n      pop\n        /* \"#utility.yul\":1762:2187   */\n      swap4\n      swap3\n      pop\n      pop\n      pop\n      jump\t// out\n        /* \"#utility.yul\":2207:2547   */\n    tag_203:\n        /* \"#utility.yul\":2263:2268   */\n      0x00\n        /* \"#utility.yul\":2312:2315   */\n      dup3\n        /* \"#utility.yul\":2305:2309   */\n      0x1f\n        /* \"#utility.yul\":2297:2303   */\n      dup4\n        /* \"#utility.yul\":2293:2310   */\n      add\n        /* \"#utility.yul\":2289:2316   */\n      slt\n        /* \"#utility.yul\":2279:2401   */\n      tag_291\n      jumpi\n        /* \"#utility.yul\":2320:2399   */\n      tag_292\n      tag_195\n      jump\t// in\n    tag_292:\n        /* \"#utility.yul\":2279:2401   */\n    tag_291:\n        /* \"#utility.yul\":2437:2443   */\n      dup2\n        /* \"#utility.yul\":2424:2444   */\n      calldataload\n        /* \"#utility.yul\":2462:2541   */\n      tag_293\n        /* \"#utility.yul\":2537:2540   */\n      dup5\n        /* \"#utility.yul\":2529:2535   */\n      dup3\n        /* \"#utility.yul\":2522:2526   */\n      0x20\n        /* \"#utility.yul\":2514:2520   */\n      dup7\n        /* \"#utility.yul\":2510:2527   */\n      add\n        /* \"#utility.yul\":2462:2541   */\n      tag_202\n      jump\t// in\n    tag_293:\n        /* \"#utility.yul\":2453:2541   */\n      swap2\n      pop\n        /* \"#utility.yul\":2269:2547   */\n      pop\n        /* \"#utility.yul\":2207:2547   */\n      swap3\n      swap2\n      pop\n      pop\n      jump\t// out\n        /* \"#utility.yul\":2553:3712   */\n    tag_11:\n        /* \"#utility.yul\":2660:2666   */\n      0x00\n        /* \"#utility.yul\":2668:2674   */\n      dup1\n        /* \"#utility.yul\":2676:2682   */\n      0x00\n        /* \"#utility.yul\":2725:2727   */\n      0x60\n        /* \"#utility.yul\":2713:2722   */\n      dup5\n        /* \"#utility.yul\":2704:2711   */\n      dup7\n        /* \"#utility.yul\":2700:2723   */\n      sub\n        /* \"#utility.yul\":2696:2728   */\n      slt\n        /* \"#utility.yul\":2693:2812   */\n      iszero\n      tag_295\n      jumpi\n        /* \"#utility.yul\":2731:2810   */\n      tag_296\n      tag_193\n      jump\t// in\n    tag_296:\n        /* \"#utility.yul\":2693:2812   */\n    tag_295:\n        /* \"#utility.yul\":2879:2880   */\n      0x00\n        /* \"#utility.yul\":2868:2877   */\n      dup5\n        /* \"#utility.yul\":2864:2881   */\n      add\n        /* \"#utility.yul\":2851:2882   */\n      calldataload\n        /* \"#utility.yul\":2909:2927   */\n      0xffffffffffffffff\n        /* \"#utility.yul\":2901:2907   */\n      dup2\n        /* \"#utility.yul\":2898:2928   */\n      gt\n        /* \"#utility.yul\":2895:3012   */\n      iszero\n      tag_297\n      jumpi\n        /* \"#utility.yul\":2931:3010   */\n      tag_298\n      tag_194\n      jump\t// in\n    tag_298:\n        /* \"#utility.yul\":2895:3012   */\n    tag_297:\n        /* \"#utility.yul\":3036:3099   */\n      tag_299\n        /* \"#utility.yul\":3091:3098   */\n      dup7\n        /* \"#utility.yul\":3082:3088   */\n      dup3\n        /* \"#utility.yul\":3071:3080   */\n      dup8\n        /* \"#utility.yul\":3067:3089   */\n      add\n        /* \"#utility.yul\":3036:3099   */\n      tag_203\n      jump\t// in\n    tag_299:\n        /* \"#utility.yul\":3026:3099   */\n      swap4\n      pop\n        /* \"#utility.yul\":2822:3109   */\n      pop\n        /* \"#utility.yul\":3176:3178   */\n      0x20\n        /* \"#utility.yul\":3165:3174   */\n      dup5\n        /* \"#utility.yul\":3161:3179   */\n      add\n        /* \"#utility.yul\":3148:3180   */\n      calldataload\n        /* \"#utility.yul\":3207:3225   */\n      0xffffffffffffffff\n        /* \"#utility.yul\":3199:3205   */\n      dup2\n        /* \"#utility.yul\":3196:3226   */\n      gt\n        /* \"#utility.yul\":3193:3310   */\n      iszero\n      tag_300\n      jumpi\n        /* \"#utility.yul\":3229:3308   */\n      tag_301\n      tag_194\n      jump\t// in\n    tag_301:\n        /* \"#utility.yul\":3193:3310   */\n    tag_300:\n        /* \"#utility.yul\":3334:3397   */\n      tag_302\n        /* \"#utility.yul\":3389:3396   */\n      dup7\n        /* \"#utility.yul\":3380:3386   */\n      dup3\n        /* \"#utility.yul\":3369:3378   */\n      dup8\n        /* \"#utility.yul\":3365:3387   */\n      add\n        /* \"#utility.yul\":3334:3397   */\n      tag_203\n      jump\t// in\n    tag_302:\n        /* \"#utility.yul\":3324:3397   */\n      swap3\n      pop\n        /* \"#utility.yul\":3119:3407   */\n      pop\n        /* \"#utility.yul\":3474:3476   */\n      0x40\n        /* \"#utility.yul\":3463:3472   */\n      dup5\n        /* \"#utility.yul\":3459:3477   */\n      add\n        /* \"#utility.yul\":3446:3478   */\n      calldataload\n        /* \"#utility.yul\":3505:3523   */\n      0xffffffffffffffff\n        /* \"#utility.yul\":3497:3503   */\n      dup2\n        /* \"#utility.yul\":3494:3524   */\n      gt\n        /* \"#utility.yul\":3491:3608   */\n      iszero\n      tag_303\n      jumpi\n        /* \"#utility.yul\":3527:3606   */\n      tag_304\n      tag_194\n      jump\t// in\n    tag_304:\n        /* \"#utility.yul\":3491:3608   */\n    tag_303:\n        /* \"#utility.yul\":3632:3695   */\n      tag_305\n        /* \"#utility.yul\":3687:3694   */\n      dup7\n        /* \"#utility.yul\":3678:3684   */\n      dup3\n        /* \"#utility.yul\":3667:3676   */\n      dup8\n        /* \"#utility.yul\":3663:3685   */\n      add\n        /* \"#utility.yul\":3632:3695   */\n      tag_203\n      jump\t// in\n    tag_305:\n        /* \"#utility.yul\":3622:3695   */\n      swap2\n      pop\n        /* \"#utility.yul\":3417:3705   */\n      pop\n        /* \"#utility.yul\":2553:3712   */\n      swap3\n      pop\n      swap3\n      pop\n      swap3\n      jump\t// out\n        /* \"#utility.yul\":3718:3842   */\n    tag_204:\n        /* \"#utility.yul\":3795:3801   */\n      0x00\n        /* \"#utility.yul\":3829:3834   */\n      dup2\n        /* \"#utility.yul\":3823:3835   */\n      mload\n        /* \"#utility.yul\":3813:3835   */\n      swap1\n      pop\n        /* \"#utility.yul\":3718:3842   */\n      swap2\n      swap1\n      pop\n      jump\t// out\n        /* \"#utility.yul\":3848:4042   */\n    tag_205:\n        /* \"#utility.yul\":3957:3968   */\n      0x00\n        /* \"#utility.yul\":3991:3997   */\n      dup3\n        /* \"#utility.yul\":3986:3989   */\n      dup3\n        /* \"#utility.yul\":3979:3998   */\n      mstore\n        /* \"#utility.yul\":4031:4035   */\n      0x20\n        /* \"#utility.yul\":4026:4029   */\n      dup3\n        /* \"#utility.yul\":4022:4036   */\n      add\n        /* \"#utility.yul\":4007:4036   */\n      swap1\n      pop\n        /* \"#utility.yul\":3848:4042   */\n      swap3\n      swap2\n      pop\n      pop\n      jump\t// out\n        /* \"#utility.yul\":4048:4190   */\n    tag_206:\n        /* \"#utility.yul\":4125:4129   */\n      0x00\n        /* \"#utility.yul\":4148:4151   */\n      dup2\n        /* \"#utility.yul\":4140:4151   */\n      swap1\n      pop\n        /* \"#utility.yul\":4178:4182   */\n      0x20\n        /* \"#utility.yul\":4173:4176   */\n      dup3\n        /* \"#utility.yul\":4169:4183   */\n      add\n        /* \"#utility.yul\":4161:4183   */\n      swap1\n      pop\n        /* \"#utility.yul\":4048:4190   */\n      swap2\n      swap1\n      pop\n      jump\t// out\n        /* \"#utility.yul\":4196:4295   */\n    tag_207:\n        /* \"#utility.yul\":4248:4254   */\n      0x00\n        /* \"#utility.yul\":4282:4287   */\n      dup2\n        /* \"#utility.yul\":4276:4288   */\n      mload\n        /* \"#utility.yul\":4266:4288   */\n      swap1\n      pop\n        /* \"#utility.yul\":4196:4295   */\n      swap2\n      swap1\n      pop\n      jump\t// out\n        /* \"#utility.yul\":4301:4460   */\n    tag_208:\n        /* \"#utility.yul\":4375:4386   */\n      0x00\n        /* \"#utility.yul\":4409:4415   */\n      dup3\n        /* \"#utility.yul\":4404:4407   */\n      dup3\n        /* \"#utility.yul\":4397:4416   */\n      mstore\n        /* \"#utility.yul\":4449:4453   */\n      0x20\n        /* \"#utility.yul\":4444:4447   */\n      dup3\n        /* \"#utility.yul\":4440:4454   */\n      add\n        /* \"#utility.yul\":4425:4454   */\n      swap1\n      pop\n        /* \"#utility.yul\":4301:4460   */\n      swap3\n      swap2\n      pop\n      pop\n      jump\t// out\n        /* \"#utility.yul\":4466:4712   */\n    tag_209:\n        /* \"#utility.yul\":4547:4548   */\n      0x00\n        /* \"#utility.yul\":4557:4670   */\n    tag_312:\n        /* \"#utility.yul\":4571:4577   */\n      dup4\n        /* \"#utility.yul\":4568:4569   */\n      dup2\n        /* \"#utility.yul\":4565:4578   */\n      lt\n        /* \"#utility.yul\":4557:4670   */\n      iszero\n      tag_314\n      jumpi\n        /* \"#utility.yul\":4656:4657   */\n      dup1\n        /* \"#utility.yul\":4651:4654   */\n      dup3\n        /* \"#utility.yul\":4647:4658   */\n      add\n        /* \"#utility.yul\":4641:4659   */\n      mload\n        /* \"#utility.yul\":4637:4638   */\n      dup2\n        /* \"#utility.yul\":4632:4635   */\n      dup5\n        /* \"#utility.yul\":4628:4639   */\n      add\n        /* \"#utility.yul\":4621:4660   */\n      mstore\n        /* \"#utility.yul\":4593:4595   */\n      0x20\n        /* \"#utility.yul\":4590:4591   */\n      dup2\n        /* \"#utility.yul\":4586:4596   */\n      add\n        /* \"#utility.yul\":4581:4596   */\n      swap1\n      pop\n        /* \"#utility.yul\":4557:4670   */\n      jump(tag_312)\n    tag_314:\n        /* \"#utility.yul\":4704:4705   */\n      0x00\n        /* \"#utility.yul\":4695:4701   */\n      dup5\n        /* \"#utility.yul\":4690:4693   */\n      dup5\n        /* \"#utility.yul\":4686:4702   */\n      add\n        /* \"#utility.yul\":4679:4706   */\n      mstore\n        /* \"#utility.yul\":4528:4712   */\n      pop\n        /* \"#utility.yul\":4466:4712   */\n      pop\n      pop\n      pop\n      jump\t// out\n        /* \"#utility.yul\":4718:5075   */\n    tag_210:\n        /* \"#utility.yul\":4796:4799   */\n      0x00\n        /* \"#utility.yul\":4824:4863   */\n      tag_316\n        /* \"#utility.yul\":4857:4862   */\n      dup3\n        /* \"#utility.yul\":4824:4863   */\n      tag_207\n      jump\t// in\n    tag_316:\n        /* \"#utility.yul\":4879:4940   */\n      tag_317\n        /* \"#utility.yul\":4933:4939   */\n      dup2\n        /* \"#utility.yul\":4928:4931   */\n      dup6\n        /* \"#utility.yul\":4879:4940   */\n      tag_208\n      jump\t// in\n    tag_317:\n        /* \"#utility.yul\":4872:4940   */\n      swap4\n      pop\n        /* \"#utility.yul\":4949:5014   */\n      tag_318\n        /* \"#utility.yul\":5007:5013   */\n      dup2\n        /* \"#utility.yul\":5002:5005   */\n      dup6\n        /* \"#utility.yul\":4995:4999   */\n      0x20\n        /* \"#utility.yul\":4988:4993   */\n      dup7\n        /* \"#utility.yul\":4984:5000   */\n      add\n        /* \"#utility.yul\":4949:5014   */\n      tag_209\n      jump\t// in\n    tag_318:\n        /* \"#utility.yul\":5039:5068   */\n      tag_319\n        /* \"#utility.yul\":5061:5067   */\n      dup2\n        /* \"#utility.yul\":5039:5068   */\n      tag_197\n      jump\t// in\n    tag_319:\n        /* \"#utility.yul\":5034:5037   */\n      dup5\n        /* \"#utility.yul\":5030:5069   */\n      add\n        /* \"#utility.yul\":5023:5069   */\n      swap2\n      pop\n        /* \"#utility.yul\":4800:5075   */\n      pop\n        /* \"#utility.yul\":4718:5075   */\n      swap3\n      swap2\n      pop\n      pop\n      jump\t// out\n        /* \"#utility.yul\":5081:5277   */\n    tag_211:\n        /* \"#utility.yul\":5170:5180   */\n      0x00\n        /* \"#utility.yul\":5205:5271   */\n      tag_321\n        /* \"#utility.yul\":5267:5270   */\n      dup4\n        /* \"#utility.yul\":5259:5265   */\n      dup4\n        /* \"#utility.yul\":5205:5271   */\n      tag_210\n      jump\t// in\n    tag_321:\n        /* \"#utility.yul\":5191:5271   */\n      swap1\n      pop\n        /* \"#utility.yul\":5081:5277   */\n      swap3\n      swap2\n      pop\n      pop\n      jump\t// out\n        /* \"#utility.yul\":5283:5406   */\n    tag_212:\n        /* \"#utility.yul\":5363:5367   */\n      0x00\n        /* \"#utility.yul\":5395:5399   */\n      0x20\n        /* \"#utility.yul\":5390:5393   */\n      dup3\n        /* \"#utility.yul\":5386:5400   */\n      add\n        /* \"#utility.yul\":5378:5400   */\n      swap1\n      pop\n        /* \"#utility.yul\":5283:5406   */\n      swap2\n      swap1\n      pop\n      jump\t// out\n        /* \"#utility.yul\":5440:6431   */\n    tag_213:\n        /* \"#utility.yul\":5579:5582   */\n      0x00\n        /* \"#utility.yul\":5608:5672   */\n      tag_324\n        /* \"#utility.yul\":5666:5671   */\n      dup3\n        /* \"#utility.yul\":5608:5672   */\n      tag_204\n      jump\t// in\n    tag_324:\n        /* \"#utility.yul\":5688:5784   */\n      tag_325\n        /* \"#utility.yul\":5777:5783   */\n      dup2\n        /* \"#utility.yul\":5772:5775   */\n      dup6\n        /* \"#utility.yul\":5688:5784   */\n      tag_205\n      jump\t// in\n    tag_325:\n        /* \"#utility.yul\":5681:5784   */\n      swap4\n      pop\n        /* \"#utility.yul\":5810:5813   */\n      dup4\n        /* \"#utility.yul\":5855:5859   */\n      0x20\n        /* \"#utility.yul\":5847:5853   */\n      dup3\n        /* \"#utility.yul\":5843:5860   */\n      mul\n        /* \"#utility.yul\":5838:5841   */\n      dup6\n        /* \"#utility.yul\":5834:5861   */\n      add\n        /* \"#utility.yul\":5885:5951   */\n      tag_326\n        /* \"#utility.yul\":5945:5950   */\n      dup6\n        /* \"#utility.yul\":5885:5951   */\n      tag_206\n      jump\t// in\n    tag_326:\n        /* \"#utility.yul\":5974:5981   */\n      dup1\n        /* \"#utility.yul\":6005:6006   */\n      0x00\n        /* \"#utility.yul\":5990:6386   */\n    tag_327:\n        /* \"#utility.yul\":6015:6021   */\n      dup6\n        /* \"#utility.yul\":6012:6013   */\n      dup2\n        /* \"#utility.yul\":6009:6022   */\n      lt\n        /* \"#utility.yul\":5990:6386   */\n      iszero\n      tag_329\n      jumpi\n        /* \"#utility.yul\":6086:6095   */\n      dup5\n        /* \"#utility.yul\":6080:6084   */\n      dup5\n        /* \"#utility.yul\":6076:6096   */\n      sub\n        /* \"#utility.yul\":6071:6074   */\n      dup10\n        /* \"#utility.yul\":6064:6097   */\n      mstore\n        /* \"#utility.yul\":6137:6143   */\n      dup2\n        /* \"#utility.yul\":6131:6144   */\n      mload\n        /* \"#utility.yul\":6165:6249   */\n      tag_330\n        /* \"#utility.yul\":6244:6248   */\n      dup6\n        /* \"#utility.yul\":6229:6242   */\n      dup3\n        /* \"#utility.yul\":6165:6249   */\n      tag_211\n      jump\t// in\n    tag_330:\n        /* \"#utility.yul\":6157:6249   */\n      swap5\n      pop\n        /* \"#utility.yul\":6272:6342   */\n      tag_331\n        /* \"#utility.yul\":6335:6341   */\n      dup4\n        /* \"#utility.yul\":6272:6342   */\n      tag_212\n      jump\t// in\n    tag_331:\n        /* \"#utility.yul\":6262:6342   */\n      swap3\n      pop\n        /* \"#utility.yul\":6371:6375   */\n      0x20\n        /* \"#utility.yul\":6366:6369   */\n      dup11\n        /* \"#utility.yul\":6362:6376   */\n      add\n        /* \"#utility.yul\":6355:6376   */\n      swap10\n      pop\n        /* \"#utility.yul\":6050:6386   */\n      pop\n        /* \"#utility.yul\":6037:6038   */\n      0x01\n        /* \"#utility.yul\":6034:6035   */\n      dup2\n        /* \"#utility.yul\":6030:6039   */\n      add\n        /* \"#utility.yul\":6025:6039   */\n      swap1\n      pop\n        /* \"#utility.yul\":5990:6386   */\n      jump(tag_327)\n    tag_329:\n        /* \"#utility.yul\":5994:6008   */\n      pop\n        /* \"#utility.yul\":6402:6406   */\n      dup3\n        /* \"#utility.yul\":6395:6406   */\n      swap8\n      pop\n        /* \"#utility.yul\":6422:6425   */\n      dup8\n        /* \"#utility.yul\":6415:6425   */\n      swap6\n      pop\n        /* \"#utility.yul\":5584:6431   */\n      pop\n      pop\n      pop\n      pop\n      pop\n        /* \"#utility.yul\":5440:6431   */\n      swap3\n      swap2\n      pop\n      pop\n      jump\t// out\n        /* \"#utility.yul\":6437:6551   */\n    tag_214:\n        /* \"#utility.yul\":6504:6510   */\n      0x00\n        /* \"#utility.yul\":6538:6543   */\n      dup2\n        /* \"#utility.yul\":6532:6544   */\n      mload\n        /* \"#utility.yul\":6522:6544   */\n      swap1\n      pop\n        /* \"#utility.yul\":6437:6551   */\n      swap2\n      swap1\n      pop\n      jump\t// out\n        /* \"#utility.yul\":6557:6741   */\n    tag_215:\n        /* \"#utility.yul\":6656:6667   */\n      0x00\n        /* \"#utility.yul\":6690:6696   */\n      dup3\n        /* \"#utility.yul\":6685:6688   */\n      dup3\n        /* \"#utility.yul\":6678:6697   */\n      mstore\n        /* \"#utility.yul\":6730:6734   */\n      0x20\n        /* \"#utility.yul\":6725:6728   */\n      dup3\n        /* \"#utility.yul\":6721:6735   */\n      add\n        /* \"#utility.yul\":6706:6735   */\n      swap1\n      pop\n        /* \"#utility.yul\":6557:6741   */\n      swap3\n      swap2\n      pop\n      pop\n      jump\t// out\n        /* \"#utility.yul\":6747:6879   */\n    tag_216:\n        /* \"#utility.yul\":6814:6818   */\n      0x00\n        /* \"#utility.yul\":6837:6840   */\n      dup2\n        /* \"#utility.yul\":6829:6840   */\n      swap1\n      pop\n        /* \"#utility.yul\":6867:6871   */\n      0x20\n        /* \"#utility.yul\":6862:6865   */\n      dup3\n        /* \"#utility.yul\":6858:6872   */\n      add\n        /* \"#utility.yul\":6850:6872   */\n      swap1\n      pop\n        /* \"#utility.yul\":6747:6879   */\n      swap2\n      swap1\n      pop\n      jump\t// out\n        /* \"#utility.yul\":6885:6962   */\n    tag_217:\n        /* \"#utility.yul\":6922:6929   */\n      0x00\n        /* \"#utility.yul\":6951:6956   */\n      dup2\n        /* \"#utility.yul\":6940:6956   */\n      swap1\n      pop\n        /* \"#utility.yul\":6885:6962   */\n      swap2\n      swap1\n      pop\n      jump\t// out\n        /* \"#utility.yul\":6968:7076   */\n    tag_218:\n        /* \"#utility.yul\":7045:7069   */\n      tag_337\n        /* \"#utility.yul\":7063:7068   */\n      dup2\n        /* \"#utility.yul\":7045:7069   */\n      tag_217\n      jump\t// in\n    tag_337:\n        /* \"#utility.yul\":7040:7043   */\n      dup3\n        /* \"#utility.yul\":7033:7070   */\n      mstore\n        /* \"#utility.yul\":6968:7076   */\n      pop\n      pop\n      jump\t// out\n        /* \"#utility.yul\":7082:7261   */\n    tag_219:\n        /* \"#utility.yul\":7151:7161   */\n      0x00\n        /* \"#utility.yul\":7172:7218   */\n      tag_339\n        /* \"#utility.yul\":7214:7217   */\n      dup4\n        /* \"#utility.yul\":7206:7212   */\n      dup4\n        /* \"#utility.yul\":7172:7218   */\n      tag_218\n      jump\t// in\n    tag_339:\n        /* \"#utility.yul\":7250:7254   */\n      0x20\n        /* \"#utility.yul\":7245:7248   */\n      dup4\n        /* \"#utility.yul\":7241:7255   */\n      add\n        /* \"#utility.yul\":7227:7255   */\n      swap1\n      pop\n        /* \"#utility.yul\":7082:7261   */\n      swap3\n      swap2\n      pop\n      pop\n      jump\t// out\n        /* \"#utility.yul\":7267:7380   */\n    tag_220:\n        /* \"#utility.yul\":7337:7341   */\n      0x00\n        /* \"#utility.yul\":7369:7373   */\n      0x20\n        /* \"#utility.yul\":7364:7367   */\n      dup3\n        /* \"#utility.yul\":7360:7374   */\n      add\n        /* \"#utility.yul\":7352:7374   */\n      swap1\n      pop\n        /* \"#utility.yul\":7267:7380   */\n      swap2\n      swap1\n      pop\n      jump\t// out\n        /* \"#utility.yul\":7416:8148   */\n    tag_221:\n        /* \"#utility.yul\":7535:7538   */\n      0x00\n        /* \"#utility.yul\":7564:7618   */\n      tag_342\n        /* \"#utility.yul\":7612:7617   */\n      dup3\n        /* \"#utility.yul\":7564:7618   */\n      tag_214\n      jump\t// in\n    tag_342:\n        /* \"#utility.yul\":7634:7720   */\n      tag_343\n        /* \"#utility.yul\":7713:7719   */\n      dup2\n        /* \"#utility.yul\":7708:7711   */\n      dup6\n        /* \"#utility.yul\":7634:7720   */\n      tag_215\n      jump\t// in\n    tag_343:\n        /* \"#utility.yul\":7627:7720   */\n      swap4\n      pop\n        /* \"#utility.yul\":7744:7800   */\n      tag_344\n        /* \"#utility.yul\":7794:7799   */\n      dup4\n        /* \"#utility.yul\":7744:7800   */\n      tag_216\n      jump\t// in\n    tag_344:\n        /* \"#utility.yul\":7823:7830   */\n      dup1\n        /* \"#utility.yul\":7854:7855   */\n      0x00\n        /* \"#utility.yul\":7839:8123   */\n    tag_345:\n        /* \"#utility.yul\":7864:7870   */\n      dup4\n        /* \"#utility.yul\":7861:7862   */\n      dup2\n        /* \"#utility.yul\":7858:7871   */\n      lt\n        /* \"#utility.yul\":7839:8123   */\n      iszero\n      tag_347\n      jumpi\n        /* \"#utility.yul\":7940:7946   */\n      dup2\n        /* \"#utility.yul\":7934:7947   */\n      mload\n        /* \"#utility.yul\":7967:8030   */\n      tag_348\n        /* \"#utility.yul\":8026:8029   */\n      dup9\n        /* \"#utility.yul\":8011:8024   */\n      dup3\n        /* \"#utility.yul\":7967:8030   */\n      tag_219\n      jump\t// in\n    tag_348:\n        /* \"#utility.yul\":7960:8030   */\n      swap8\n      pop\n        /* \"#utility.yul\":8053:8113   */\n      tag_349\n        /* \"#utility.yul\":8106:8112   */\n      dup4\n        /* \"#utility.yul\":8053:8113   */\n      tag_220\n      jump\t// in\n    tag_349:\n        /* \"#utility.yul\":8043:8113   */\n      swap3\n      pop\n        /* \"#utility.yul\":7899:8123   */\n      pop\n        /* \"#utility.yul\":7886:7887   */\n      0x01\n        /* \"#utility.yul\":7883:7884   */\n      dup2\n        /* \"#utility.yul\":7879:7888   */\n      add\n        /* \"#utility.yul\":7874:7888   */\n      swap1\n      pop\n        /* \"#utility.yul\":7839:8123   */\n      jump(tag_345)\n    tag_347:\n        /* \"#utility.yul\":7843:7857   */\n      pop\n        /* \"#utility.yul\":8139:8142   */\n      dup6\n        /* \"#utility.yul\":8132:8142   */\n      swap4\n      pop\n        /* \"#utility.yul\":7540:8148   */\n      pop\n      pop\n      pop\n        /* \"#utility.yul\":7416:8148   */\n      swap3\n      swap2\n      pop\n      pop\n      jump\t// out\n        /* \"#utility.yul\":8154:9693   */\n    tag_16:\n        /* \"#utility.yul\":8669:8673   */\n      0x00\n        /* \"#utility.yul\":8707:8710   */\n      0xa0\n        /* \"#utility.yul\":8696:8705   */\n      dup3\n        /* \"#utility.yul\":8692:8711   */\n      add\n        /* \"#utility.yul\":8684:8711   */\n      swap1\n      pop\n        /* \"#utility.yul\":8757:8766   */\n      dup2\n        /* \"#utility.yul\":8751:8755   */\n      dup2\n        /* \"#utility.yul\":8747:8767   */\n      sub\n        /* \"#utility.yul\":8743:8744   */\n      0x00\n        /* \"#utility.yul\":8732:8741   */\n      dup4\n        /* \"#utility.yul\":8728:8745   */\n      add\n        /* \"#utility.yul\":8721:8768   */\n      mstore\n        /* \"#utility.yul\":8785:8913   */\n      tag_351\n        /* \"#utility.yul\":8908:8912   */\n      dup2\n        /* \"#utility.yul\":8899:8905   */\n      dup9\n        /* \"#utility.yul\":8785:8913   */\n      tag_213\n      jump\t// in\n    tag_351:\n        /* \"#utility.yul\":8777:8913   */\n      swap1\n      pop\n        /* \"#utility.yul\":8960:8969   */\n      dup2\n        /* \"#utility.yul\":8954:8958   */\n      dup2\n        /* \"#utility.yul\":8950:8970   */\n      sub\n        /* \"#utility.yul\":8945:8947   */\n      0x20\n        /* \"#utility.yul\":8934:8943   */\n      dup4\n        /* \"#utility.yul\":8930:8948   */\n      add\n        /* \"#utility.yul\":8923:8971   */\n      mstore\n        /* \"#utility.yul\":8988:9116   */\n      tag_352\n        /* \"#utility.yul\":9111:9115   */\n      dup2\n        /* \"#utility.yul\":9102:9108   */\n      dup8\n        /* \"#utility.yul\":8988:9116   */\n      tag_213\n      jump\t// in\n    tag_352:\n        /* \"#utility.yul\":8980:9116   */\n      swap1\n      pop\n        /* \"#utility.yul\":9163:9172   */\n      dup2\n        /* \"#utility.yul\":9157:9161   */\n      dup2\n        /* \"#utility.yul\":9153:9173   */\n      sub\n        /* \"#utility.yul\":9148:9150   */\n      0x40\n        /* \"#utility.yul\":9137:9146   */\n      dup4\n        /* \"#utility.yul\":9133:9151   */\n      add\n        /* \"#utility.yul\":9126:9174   */\n      mstore\n        /* \"#utility.yul\":9191:9319   */\n      tag_353\n        /* \"#utility.yul\":9314:9318   */\n      dup2\n        /* \"#utility.yul\":9305:9311   */\n      dup7\n        /* \"#utility.yul\":9191:9319   */\n      tag_213\n      jump\t// in\n    tag_353:\n        /* \"#utility.yul\":9183:9319   */\n      swap1\n      pop\n        /* \"#utility.yul\":9366:9375   */\n      dup2\n        /* \"#utility.yul\":9360:9364   */\n      dup2\n        /* \"#utility.yul\":9356:9376   */\n      sub\n        /* \"#utility.yul\":9351:9353   */\n      0x60\n        /* \"#utility.yul\":9340:9349   */\n      dup4\n        /* \"#utility.yul\":9336:9354   */\n      add\n        /* \"#utility.yul\":9329:9377   */\n      mstore\n        /* \"#utility.yul\":9394:9502   */\n      tag_354\n        /* \"#utility.yul\":9497:9501   */\n      dup2\n        /* \"#utility.yul\":9488:9494   */\n      dup6\n        /* \"#utility.yul\":9394:9502   */\n      tag_221\n      jump\t// in\n    tag_354:\n        /* \"#utility.yul\":9386:9502   */\n      swap1\n      pop\n        /* \"#utility.yul\":9550:9559   */\n      dup2\n        /* \"#utility.yul\":9544:9548   */\n      dup2\n        /* \"#utility.yul\":9540:9560   */\n      sub\n        /* \"#utility.yul\":9534:9537   */\n      0x80\n        /* \"#utility.yul\":9523:9532   */\n      dup4\n        /* \"#utility.yul\":9519:9538   */\n      add\n        /* \"#utility.yul\":9512:9561   */\n      mstore\n        /* \"#utility.yul\":9578:9686   */\n      tag_355\n        /* \"#utility.yul\":9681:9685   */\n      dup2\n        /* \"#utility.yul\":9672:9678   */\n      dup5\n        /* \"#utility.yul\":9578:9686   */\n      tag_221\n      jump\t// in\n    tag_355:\n        /* \"#utility.yul\":9570:9686   */\n      swap1\n      pop\n        /* \"#utility.yul\":8154:9693   */\n      swap7\n      swap6\n      pop\n      pop\n      pop\n      pop\n      pop\n      pop\n      jump\t// out\n        /* \"#utility.yul\":9699:10112   */\n    tag_20:\n        /* \"#utility.yul\":9862:9866   */\n      0x00\n        /* \"#utility.yul\":9900:9902   */\n      0x20\n        /* \"#utility.yul\":9889:9898   */\n      dup3\n        /* \"#utility.yul\":9885:9903   */\n      add\n        /* \"#utility.yul\":9877:9903   */\n      swap1\n      pop\n        /* \"#utility.yul\":9949:9958   */\n      dup2\n        /* \"#utility.yul\":9943:9947   */\n      dup2\n        /* \"#utility.yul\":9939:9959   */\n      sub\n        /* \"#utility.yul\":9935:9936   */\n      0x00\n        /* \"#utility.yul\":9924:9933   */\n      dup4\n        /* \"#utility.yul\":9920:9937   */\n      add\n        /* \"#utility.yul\":9913:9960   */\n      mstore\n        /* \"#utility.yul\":9977:10105   */\n      tag_357\n        /* \"#utility.yul\":10100:10104   */\n      dup2\n        /* \"#utility.yul\":10091:10097   */\n      dup5\n        /* \"#utility.yul\":9977:10105   */\n      tag_213\n      jump\t// in\n    tag_357:\n        /* \"#utility.yul\":9969:10105   */\n      swap1\n      pop\n        /* \"#utility.yul\":9699:10112   */\n      swap3\n      swap2\n      pop\n      pop\n      jump\t// out\n        /* \"#utility.yul\":10118:10627   */\n    tag_26:\n        /* \"#utility.yul\":10187:10193   */\n      0x00\n        /* \"#utility.yul\":10236:10238   */\n      0x20\n        /* \"#utility.yul\":10224:10233   */\n      dup3\n        /* \"#utility.yul\":10215:10222   */\n      dup5\n        /* \"#utility.yul\":10211:10234   */\n      sub\n        /* \"#utility.yul\":10207:10239   */\n      slt\n        /* \"#utility.yul\":10204:10323   */\n      iszero\n      tag_359\n      jumpi\n        /* \"#utility.yul\":10242:10321   */\n      tag_360\n      tag_193\n      jump\t// in\n    tag_360:\n        /* \"#utility.yul\":10204:10323   */\n    tag_359:\n        /* \"#utility.yul\":10390:10391   */\n      0x00\n        /* \"#utility.yul\":10379:10388   */\n      dup3\n        /* \"#utility.yul\":10375:10392   */\n      add\n        /* \"#utility.yul\":10362:10393   */\n      calldataload\n        /* \"#utility.yul\":10420:10438   */\n      0xffffffffffffffff\n        /* \"#utility.yul\":10412:10418   */\n      dup2\n        /* \"#utility.yul\":10409:10439   */\n      gt\n        /* \"#utility.yul\":10406:10523   */\n      iszero\n      tag_361\n      jumpi\n        /* \"#utility.yul\":10442:10521   */\n      tag_362\n      tag_194\n      jump\t// in\n    tag_362:\n        /* \"#utility.yul\":10406:10523   */\n    tag_361:\n        /* \"#utility.yul\":10547:10610   */\n      tag_363\n        /* \"#utility.yul\":10602:10609   */\n      dup5\n        /* \"#utility.yul\":10593:10599   */\n      dup3\n        /* \"#utility.yul\":10582:10591   */\n      dup6\n        /* \"#utility.yul\":10578:10600   */\n      add\n        /* \"#utility.yul\":10547:10610   */\n      tag_203\n      jump\t// in\n    tag_363:\n        /* \"#utility.yul\":10537:10610   */\n      swap2\n      pop\n        /* \"#utility.yul\":10333:10620   */\n      pop\n        /* \"#utility.yul\":10118:10627   */\n      swap3\n      swap2\n      pop\n      pop\n      jump\t// out\n        /* \"#utility.yul\":10633:10802   */\n    tag_222:\n        /* \"#utility.yul\":10717:10728   */\n      0x00\n        /* \"#utility.yul\":10751:10757   */\n      dup3\n        /* \"#utility.yul\":10746:10749   */\n      dup3\n        /* \"#utility.yul\":10739:10758   */\n      mstore\n        /* \"#utility.yul\":10791:10795   */\n      0x20\n        /* \"#utility.yul\":10786:10789   */\n      dup3\n        /* \"#utility.yul\":10782:10796   */\n      add\n        /* \"#utility.yul\":10767:10796   */\n      swap1\n      pop\n        /* \"#utility.yul\":10633:10802   */\n      swap3\n      swap2\n      pop\n      pop\n      jump\t// out\n        /* \"#utility.yul\":10808:11185   */\n    tag_223:\n        /* \"#utility.yul\":10896:10899   */\n      0x00\n        /* \"#utility.yul\":10924:10963   */\n      tag_366\n        /* \"#utility.yul\":10957:10962   */\n      dup3\n        /* \"#utility.yul\":10924:10963   */\n      tag_207\n      jump\t// in\n    tag_366:\n        /* \"#utility.yul\":10979:11050   */\n      tag_367\n        /* \"#utility.yul\":11043:11049   */\n      dup2\n        /* \"#utility.yul\":11038:11041   */\n      dup6\n        /* \"#utility.yul\":10979:11050   */\n      tag_222\n      jump\t// in\n    tag_367:\n        /* \"#utility.yul\":10972:11050   */\n      swap4\n      pop\n        /* \"#utility.yul\":11059:11124   */\n      tag_368\n        /* \"#utility.yul\":11117:11123   */\n      dup2\n        /* \"#utility.yul\":11112:11115   */\n      dup6\n        /* \"#utility.yul\":11105:11109   */\n      0x20\n        /* \"#utility.yul\":11098:11103   */\n      dup7\n        /* \"#utility.yul\":11094:11110   */\n      add\n        /* \"#utility.yul\":11059:11124   */\n      tag_209\n      jump\t// in\n    tag_368:\n        /* \"#utility.yul\":11149:11178   */\n      tag_369\n        /* \"#utility.yul\":11171:11177   */\n      dup2\n        /* \"#utility.yul\":11149:11178   */\n      tag_197\n      jump\t// in\n    tag_369:\n        /* \"#utility.yul\":11144:11147   */\n      dup5\n        /* \"#utility.yul\":11140:11179   */\n      add\n        /* \"#utility.yul\":11133:11179   */\n      swap2\n      pop\n        /* \"#utility.yul\":10900:11185   */\n      pop\n        /* \"#utility.yul\":10808:11185   */\n      swap3\n      swap2\n      pop\n      pop\n      jump\t// out\n        /* \"#utility.yul\":11191:11309   */\n    tag_224:\n        /* \"#utility.yul\":11278:11302   */\n      tag_371\n        /* \"#utility.yul\":11296:11301   */\n      dup2\n        /* \"#utility.yul\":11278:11302   */\n      tag_217\n      jump\t// in\n    tag_371:\n        /* \"#utility.yul\":11273:11276   */\n      dup3\n        /* \"#utility.yul\":11266:11303   */\n      mstore\n        /* \"#utility.yul\":11191:11309   */\n      pop\n      pop\n      jump\t// out\n        /* \"#utility.yul\":11315:12050   */\n    tag_32:\n        /* \"#utility.yul\":11532:11536   */\n      0x00\n        /* \"#utility.yul\":11570:11573   */\n      0x80\n        /* \"#utility.yul\":11559:11568   */\n      dup3\n        /* \"#utility.yul\":11555:11574   */\n      add\n        /* \"#utility.yul\":11547:11574   */\n      swap1\n      pop\n        /* \"#utility.yul\":11620:11629   */\n      dup2\n        /* \"#utility.yul\":11614:11618   */\n      dup2\n        /* \"#utility.yul\":11610:11630   */\n      sub\n        /* \"#utility.yul\":11606:11607   */\n      0x00\n        /* \"#utility.yul\":11595:11604   */\n      dup4\n        /* \"#utility.yul\":11591:11608   */\n      add\n        /* \"#utility.yul\":11584:11631   */\n      mstore\n        /* \"#utility.yul\":11648:11726   */\n      tag_373\n        /* \"#utility.yul\":11721:11725   */\n      dup2\n        /* \"#utility.yul\":11712:11718   */\n      dup8\n        /* \"#utility.yul\":11648:11726   */\n      tag_223\n      jump\t// in\n    tag_373:\n        /* \"#utility.yul\":11640:11726   */\n      swap1\n      pop\n        /* \"#utility.yul\":11773:11782   */\n      dup2\n        /* \"#utility.yul\":11767:11771   */\n      dup2\n        /* \"#utility.yul\":11763:11783   */\n      sub\n        /* \"#utility.yul\":11758:11760   */\n      0x20\n        /* \"#utility.yul\":11747:11756   */\n      dup4\n        /* \"#utility.yul\":11743:11761   */\n      add\n        /* \"#utility.yul\":11736:11784   */\n      mstore\n        /* \"#utility.yul\":11801:11879   */\n      tag_374\n        /* \"#utility.yul\":11874:11878   */\n      dup2\n        /* \"#utility.yul\":11865:11871   */\n      dup7\n        /* \"#utility.yul\":11801:11879   */\n      tag_223\n      jump\t// in\n    tag_374:\n        /* \"#utility.yul\":11793:11879   */\n      swap1\n      pop\n        /* \"#utility.yul\":11889:11961   */\n      tag_375\n        /* \"#utility.yul\":11957:11959   */\n      0x40\n        /* \"#utility.yul\":11946:11955   */\n      dup4\n        /* \"#utility.yul\":11942:11960   */\n      add\n        /* \"#utility.yul\":11933:11939   */\n      dup6\n        /* \"#utility.yul\":11889:11961   */\n      tag_224\n      jump\t// in\n    tag_375:\n        /* \"#utility.yul\":11971:12043   */\n      tag_376\n        /* \"#utility.yul\":12039:12041   */\n      0x60\n        /* \"#utility.yul\":12028:12037   */\n      dup4\n        /* \"#utility.yul\":12024:12042   */\n      add\n        /* \"#utility.yul\":12015:12021   */\n      dup5\n        /* \"#utility.yul\":11971:12043   */\n      tag_224\n      jump\t// in\n    tag_376:\n        /* \"#utility.yul\":11315:12050   */\n      swap6\n      swap5\n      pop\n      pop\n      pop\n      pop\n      pop\n      jump\t// out\n        /* \"#utility.yul\":12056:12230   */\n    tag_225:\n        /* \"#utility.yul\":12196:12222   */\n      0x4e657720436f6e6e6563742055524c2072657175697265640000000000000000\n        /* \"#utility.yul\":12192:12193   */\n      0x00\n        /* \"#utility.yul\":12184:12190   */\n      dup3\n        /* \"#utility.yul\":12180:12194   */\n      add\n        /* \"#utility.yul\":12173:12223   */\n      mstore\n        /* \"#utility.yul\":12056:12230   */\n      pop\n      jump\t// out\n        /* \"#utility.yul\":12236:12602   */\n    tag_226:\n        /* \"#utility.yul\":12378:12381   */\n      0x00\n        /* \"#utility.yul\":12399:12466   */\n      tag_379\n        /* \"#utility.yul\":12463:12465   */\n      0x18\n        /* \"#utility.yul\":12458:12461   */\n      dup4\n        /* \"#utility.yul\":12399:12466   */\n      tag_222\n      jump\t// in\n    tag_379:\n        /* \"#utility.yul\":12392:12466   */\n      swap2\n      pop\n        /* \"#utility.yul\":12475:12568   */\n      tag_380\n        /* \"#utility.yul\":12564:12567   */\n      dup3\n        /* \"#utility.yul\":12475:12568   */\n      tag_225\n      jump\t// in\n    tag_380:\n        /* \"#utility.yul\":12593:12595   */\n      0x20\n        /* \"#utility.yul\":12588:12591   */\n      dup3\n        /* \"#utility.yul\":12584:12596   */\n      add\n        /* \"#utility.yul\":12577:12596   */\n      swap1\n      pop\n        /* \"#utility.yul\":12236:12602   */\n      swap2\n      swap1\n      pop\n      jump\t// out\n        /* \"#utility.yul\":12608:13027   */\n    tag_36:\n        /* \"#utility.yul\":12774:12778   */\n      0x00\n        /* \"#utility.yul\":12812:12814   */\n      0x20\n        /* \"#utility.yul\":12801:12810   */\n      dup3\n        /* \"#utility.yul\":12797:12815   */\n      add\n        /* \"#utility.yul\":12789:12815   */\n      swap1\n      pop\n        /* \"#utility.yul\":12861:12870   */\n      dup2\n        /* \"#utility.yul\":12855:12859   */\n      dup2\n        /* \"#utility.yul\":12851:12871   */\n      sub\n        /* \"#utility.yul\":12847:12848   */\n      0x00\n        /* \"#utility.yul\":12836:12845   */\n      dup4\n        /* \"#utility.yul\":12832:12849   */\n      add\n        /* \"#utility.yul\":12825:12872   */\n      mstore\n        /* \"#utility.yul\":12889:13020   */\n      tag_382\n        /* \"#utility.yul\":13015:13019   */\n      dup2\n        /* \"#utility.yul\":12889:13020   */\n      tag_226\n      jump\t// in\n    tag_382:\n        /* \"#utility.yul\":12881:13020   */\n      swap1\n      pop\n        /* \"#utility.yul\":12608:13027   */\n      swap2\n      swap1\n      pop\n      jump\t// out\n        /* \"#utility.yul\":13033:13206   */\n    tag_227:\n        /* \"#utility.yul\":13173:13198   */\n      0x4e6577205075626c6963206b6579207265717569726564000000000000000000\n        /* \"#utility.yul\":13169:13170   */\n      0x00\n        /* \"#utility.yul\":13161:13167   */\n      dup3\n        /* \"#utility.yul\":13157:13171   */\n      add\n        /* \"#utility.yul\":13150:13199   */\n      mstore\n        /* \"#utility.yul\":13033:13206   */\n      pop\n      jump\t// out\n        /* \"#utility.yul\":13212:13578   */\n    tag_228:\n        /* \"#utility.yul\":13354:13357   */\n      0x00\n        /* \"#utility.yul\":13375:13442   */\n      tag_385\n        /* \"#utility.yul\":13439:13441   */\n      0x17\n        /* \"#utility.yul\":13434:13437   */\n      dup4\n        /* \"#utility.yul\":13375:13442   */\n      tag_222\n      jump\t// in\n    tag_385:\n        /* \"#utility.yul\":13368:13442   */\n      swap2\n      pop\n        /* \"#utility.yul\":13451:13544   */\n      tag_386\n        /* \"#utility.yul\":13540:13543   */\n      dup3\n        /* \"#utility.yul\":13451:13544   */\n      tag_227\n      jump\t// in\n    tag_386:\n        /* \"#utility.yul\":13569:13571   */\n      0x20\n        /* \"#utility.yul\":13564:13567   */\n      dup3\n        /* \"#utility.yul\":13560:13572   */\n      add\n        /* \"#utility.yul\":13553:13572   */\n      swap1\n      pop\n        /* \"#utility.yul\":13212:13578   */\n      swap2\n      swap1\n      pop\n      jump\t// out\n        /* \"#utility.yul\":13584:14003   */\n    tag_39:\n        /* \"#utility.yul\":13750:13754   */\n      0x00\n        /* \"#utility.yul\":13788:13790   */\n      0x20\n        /* \"#utility.yul\":13777:13786   */\n      dup3\n        /* \"#utility.yul\":13773:13791   */\n      add\n        /* \"#utility.yul\":13765:13791   */\n      swap1\n      pop\n        /* \"#utility.yul\":13837:13846   */\n      dup2\n        /* \"#utility.yul\":13831:13835   */\n      dup2\n        /* \"#utility.yul\":13827:13847   */\n      sub\n        /* \"#utility.yul\":13823:13824   */\n      0x00\n        /* \"#utility.yul\":13812:13821   */\n      dup4\n        /* \"#utility.yul\":13808:13825   */\n      add\n        /* \"#utility.yul\":13801:13848   */\n      mstore\n        /* \"#utility.yul\":13865:13996   */\n      tag_388\n        /* \"#utility.yul\":13991:13995   */\n      dup2\n        /* \"#utility.yul\":13865:13996   */\n      tag_228\n      jump\t// in\n    tag_388:\n        /* \"#utility.yul\":13857:13996   */\n      swap1\n      pop\n        /* \"#utility.yul\":13584:14003   */\n      swap2\n      swap1\n      pop\n      jump\t// out\n        /* \"#utility.yul\":14009:14157   */\n    tag_229:\n        /* \"#utility.yul\":14111:14122   */\n      0x00\n        /* \"#utility.yul\":14148:14151   */\n      dup2\n        /* \"#utility.yul\":14133:14151   */\n      swap1\n      pop\n        /* \"#utility.yul\":14009:14157   */\n      swap3\n      swap2\n      pop\n      pop\n      jump\t// out\n        /* \"#utility.yul\":14163:14553   */\n    tag_230:\n        /* \"#utility.yul\":14269:14272   */\n      0x00\n        /* \"#utility.yul\":14297:14336   */\n      tag_391\n        /* \"#utility.yul\":14330:14335   */\n      dup3\n        /* \"#utility.yul\":14297:14336   */\n      tag_207\n      jump\t// in\n    tag_391:\n        /* \"#utility.yul\":14352:14441   */\n      tag_392\n        /* \"#utility.yul\":14434:14440   */\n      dup2\n        /* \"#utility.yul\":14429:14432   */\n      dup6\n        /* \"#utility.yul\":14352:14441   */\n      tag_229\n      jump\t// in\n    tag_392:\n        /* \"#utility.yul\":14345:14441   */\n      swap4\n      pop\n        /* \"#utility.yul\":14450:14515   */\n      tag_393\n        /* \"#utility.yul\":14508:14514   */\n      dup2\n        /* \"#utility.yul\":14503:14506   */\n      dup6\n        /* \"#utility.yul\":14496:14500   */\n      0x20\n        /* \"#utility.yul\":14489:14494   */\n      dup7\n        /* \"#utility.yul\":14485:14501   */\n      add\n        /* \"#utility.yul\":14450:14515   */\n      tag_209\n      jump\t// in\n    tag_393:\n        /* \"#utility.yul\":14540:14546   */\n      dup1\n        /* \"#utility.yul\":14535:14538   */\n      dup5\n        /* \"#utility.yul\":14531:14547   */\n      add\n        /* \"#utility.yul\":14524:14547   */\n      swap2\n      pop\n        /* \"#utility.yul\":14273:14553   */\n      pop\n        /* \"#utility.yul\":14163:14553   */\n      swap3\n      swap2\n      pop\n      pop\n      jump\t// out\n        /* \"#utility.yul\":14559:14834   */\n    tag_41:\n        /* \"#utility.yul\":14691:14694   */\n      0x00\n        /* \"#utility.yul\":14713:14808   */\n      tag_395\n        /* \"#utility.yul\":14804:14807   */\n      dup3\n        /* \"#utility.yul\":14795:14801   */\n      dup5\n        /* \"#utility.yul\":14713:14808   */\n      tag_230\n      jump\t// in\n    tag_395:\n        /* \"#utility.yul\":14706:14808   */\n      swap2\n      pop\n        /* \"#utility.yul\":14825:14828   */\n      dup2\n        /* \"#utility.yul\":14818:14828   */\n      swap1\n      pop\n        /* \"#utility.yul\":14559:14834   */\n      swap3\n      swap2\n      pop\n      pop\n      jump\t// out\n        /* \"#utility.yul\":14840:15007   */\n    tag_231:\n        /* \"#utility.yul\":14980:14999   */\n      0x456e636c617665206e6f7420666f756e64000000000000000000000000000000\n        /* \"#utility.yul\":14976:14977   */\n      0x00\n        /* \"#utility.yul\":14968:14974   */\n      dup3\n        /* \"#utility.yul\":14964:14978   */\n      add\n        /* \"#utility.yul\":14957:15000   */\n      mstore\n        /* \"#utility.yul\":14840:15007   */\n      pop\n      jump\t// out\n        /* \"#utility.yul\":15013:15379   */\n    tag_232:\n        /* \"#utility.yul\":15155:15158   */\n      0x00\n        /* \"#utility.yul\":15176:15243   */\n      tag_398\n        /* \"#utility.yul\":15240:15242   */\n      0x11\n        /* \"#utility.yul\":15235:15238   */\n      dup4\n        /* \"#utility.yul\":15176:15243   */\n      tag_222\n      jump\t// in\n    tag_398:\n        /* \"#utility.yul\":15169:15243   */\n      swap2\n      pop\n        /* \"#utility.yul\":15252:15345   */\n      tag_399\n        /* \"#utility.yul\":15341:15344   */\n      dup3\n        /* \"#utility.yul\":15252:15345   */\n      tag_231\n      jump\t// in\n    tag_399:\n        /* \"#utility.yul\":15370:15372   */\n      0x20\n        /* \"#utility.yul\":15365:15368   */\n      dup3\n        /* \"#utility.yul\":15361:15373   */\n      add\n        /* \"#utility.yul\":15354:15373   */\n      swap1\n      pop\n        /* \"#utility.yul\":15013:15379   */\n      swap2\n      swap1\n      pop\n      jump\t// out\n        /* \"#utility.yul\":15385:15804   */\n    tag_44:\n        /* \"#utility.yul\":15551:15555   */\n      0x00\n        /* \"#utility.yul\":15589:15591   */\n      0x20\n        /* \"#utility.yul\":15578:15587   */\n      dup3\n        /* \"#utility.yul\":15574:15592   */\n      add\n        /* \"#utility.yul\":15566:15592   */\n      swap1\n      pop\n        /* \"#utility.yul\":15638:15647   */\n      dup2\n        /* \"#utility.yul\":15632:15636   */\n      dup2\n        /* \"#utility.yul\":15628:15648   */\n      sub\n        /* \"#utility.yul\":15624:15625   */\n      0x00\n        /* \"#utility.yul\":15613:15622   */\n      dup4\n        /* \"#utility.yul\":15609:15626   */\n      add\n        /* \"#utility.yul\":15602:15649   */\n      mstore\n        /* \"#utility.yul\":15666:15797   */\n      tag_401\n        /* \"#utility.yul\":15792:15796   */\n      dup2\n        /* \"#utility.yul\":15666:15797   */\n      tag_232\n      jump\t// in\n    tag_401:\n        /* \"#utility.yul\":15658:15797   */\n      swap1\n      pop\n        /* \"#utility.yul\":15385:15804   */\n      swap2\n      swap1\n      pop\n      jump\t// out\n        /* \"#utility.yul\":15810:15990   */\n    tag_233:\n        /* \"#utility.yul\":15858:15935   */\n      0x4e487b7100000000000000000000000000000000000000000000000000000000\n        /* \"#utility.yul\":15855:15856   */\n      0x00\n        /* \"#utility.yul\":15848:15936   */\n      mstore\n        /* \"#utility.yul\":15955:15959   */\n      0x22\n        /* \"#utility.yul\":15952:15953   */\n      0x04\n        /* \"#utility.yul\":15945:15960   */\n      mstore\n        /* \"#utility.yul\":15979:15983   */\n      0x24\n        /* \"#utility.yul\":15976:15977   */\n      0x00\n        /* \"#utility.yul\":15969:15984   */\n      revert\n        /* \"#utility.yul\":15996:16316   */\n    tag_80:\n        /* \"#utility.yul\":16040:16046   */\n      0x00\n        /* \"#utility.yul\":16077:16078   */\n      0x02\n        /* \"#utility.yul\":16071:16075   */\n      dup3\n        /* \"#utility.yul\":16067:16079   */\n      div\n        /* \"#utility.yul\":16057:16079   */\n      swap1\n      pop\n        /* \"#utility.yul\":16124:16125   */\n      0x01\n        /* \"#utility.yul\":16118:16122   */\n      dup3\n        /* \"#utility.yul\":16114:16126   */\n      and\n        /* \"#utility.yul\":16145:16163   */\n      dup1\n        /* \"#utility.yul\":16135:16216   */\n      tag_404\n      jumpi\n        /* \"#utility.yul\":16201:16205   */\n      0x7f\n        /* \"#utility.yul\":16193:16199   */\n      dup3\n        /* \"#utility.yul\":16189:16206   */\n      and\n        /* \"#utility.yul\":16179:16206   */\n      swap2\n      pop\n        /* \"#utility.yul\":16135:16216   */\n    tag_404:\n        /* \"#utility.yul\":16263:16265   */\n      0x20\n        /* \"#utility.yul\":16255:16261   */\n      dup3\n        /* \"#utility.yul\":16252:16266   */\n      lt\n        /* \"#utility.yul\":16232:16250   */\n      dup2\n        /* \"#utility.yul\":16229:16267   */\n      sub\n        /* \"#utility.yul\":16226:16310   */\n      tag_405\n      jumpi\n        /* \"#utility.yul\":16282:16300   */\n      tag_406\n      tag_233\n      jump\t// in\n    tag_406:\n        /* \"#utility.yul\":16226:16310   */\n    tag_405:\n        /* \"#utility.yul\":16047:16316   */\n      pop\n        /* \"#utility.yul\":15996:16316   */\n      swap2\n      swap1\n      pop\n      jump\t// out\n        /* \"#utility.yul\":16322:16463   */\n    tag_234:\n        /* \"#utility.yul\":16371:16375   */\n      0x00\n        /* \"#utility.yul\":16394:16397   */\n      dup2\n        /* \"#utility.yul\":16386:16397   */\n      swap1\n      pop\n        /* \"#utility.yul\":16417:16420   */\n      dup2\n        /* \"#utility.yul\":16414:16415   */\n      0x00\n        /* \"#utility.yul\":16407:16421   */\n      mstore\n        /* \"#utility.yul\":16451:16455   */\n      0x20\n        /* \"#utility.yul\":16448:16449   */\n      0x00\n        /* \"#utility.yul\":16438:16456   */\n      keccak256\n        /* \"#utility.yul\":16430:16456   */\n      swap1\n      pop\n        /* \"#utility.yul\":16322:16463   */\n      swap2\n      swap1\n      pop\n      jump\t// out\n        /* \"#utility.yul\":16469:16562   */\n    tag_235:\n        /* \"#utility.yul\":16506:16512   */\n      0x00\n        /* \"#utility.yul\":16553:16555   */\n      0x20\n        /* \"#utility.yul\":16548:16550   */\n      0x1f\n        /* \"#utility.yul\":16541:16546   */\n      dup4\n        /* \"#utility.yul\":16537:16551   */\n      add\n        /* \"#utility.yul\":16533:16556   */\n      div\n        /* \"#utility.yul\":16523:16556   */\n      swap1\n      pop\n        /* \"#utility.yul\":16469:16562   */\n      swap2\n      swap1\n      pop\n      jump\t// out\n        /* \"#utility.yul\":16568:16675   */\n    tag_236:\n        /* \"#utility.yul\":16612:16620   */\n      0x00\n        /* \"#utility.yul\":16662:16667   */\n      dup3\n        /* \"#utility.yul\":16656:16660   */\n      dup3\n        /* \"#utility.yul\":16652:16668   */\n      shl\n        /* \"#utility.yul\":16631:16668   */\n      swap1\n      pop\n        /* \"#utility.yul\":16568:16675   */\n      swap3\n      swap2\n      pop\n      pop\n      jump\t// out\n        /* \"#utility.yul\":16681:17074   */\n    tag_237:\n        /* \"#utility.yul\":16750:16756   */\n      0x00\n        /* \"#utility.yul\":16800:16801   */\n      0x08\n        /* \"#utility.yul\":16788:16798   */\n      dup4\n        /* \"#utility.yul\":16784:16802   */\n      mul\n        /* \"#utility.yul\":16823:16920   */\n      tag_411\n        /* \"#utility.yul\":16853:16919   */\n      0xffffffffffffffffffffffffffffffffffffffffffffffffffffffffffffffff\n        /* \"#utility.yul\":16842:16851   */\n      dup3\n        /* \"#utility.yul\":16823:16920   */\n      tag_236\n      jump\t// in\n    tag_411:\n        /* \"#utility.yul\":16941:16980   */\n      tag_412\n        /* \"#utility.yul\":16971:16979   */\n      dup7\n        /* \"#utility.yul\":16960:16969   */\n      dup4\n        /* \"#utility.yul\":16941:16980   */\n      tag_236\n      jump\t// in\n    tag_412:\n        /* \"#utility.yul\":16929:16980   */\n      swap6\n      pop\n        /* \"#utility.yul\":17013:17017   */\n      dup1\n        /* \"#utility.yul\":17009:17018   */\n      not\n        /* \"#utility.yul\":17002:17007   */\n      dup5\n        /* \"#utility.yul\":16998:17019   */\n      and\n        /* \"#utility.yul\":16989:17019   */\n      swap4\n      pop\n        /* \"#utility.yul\":17062:17066   */\n      dup1\n        /* \"#utility.yul\":17052:17060   */\n      dup7\n        /* \"#utility.yul\":17048:17067   */\n      and\n        /* \"#utility.yul\":17041:17046   */\n      dup5\n        /* \"#utility.yul\":17038:17068   */\n      or\n        /* \"#utility.yul\":17028:17068   */\n      swap3\n      pop\n        /* \"#utility.yul\":16757:17074   */\n      pop\n      pop\n        /* \"#utility.yul\":16681:17074   */\n      swap4\n      swap3\n      pop\n      pop\n      pop\n      jump\t// out\n        /* \"#utility.yul\":17080:17140   */\n    tag_238:\n        /* \"#utility.yul\":17108:17111   */\n      0x00\n        /* \"#utility.yul\":17129:17134   */\n      dup2\n        /* \"#utility.yul\":17122:17134   */\n      swap1\n      pop\n        /* \"#utility.yul\":17080:17140   */\n      swap2\n      swap1\n      pop\n      jump\t// out\n        /* \"#utility.yul\":17146:17288   */\n    tag_239:\n        /* \"#utility.yul\":17196:17205   */\n      0x00\n        /* \"#utility.yul\":17229:17282   */\n      tag_415\n        /* \"#utility.yul\":17247:17281   */\n      tag_416\n        /* \"#utility.yul\":17256:17280   */\n      tag_417\n        /* \"#utility.yul\":17274:17279   */\n      dup5\n        /* \"#utility.yul\":17256:17280   */\n      tag_217\n      jump\t// in\n    tag_417:\n        /* \"#utility.yul\":17247:17281   */\n      tag_238\n      jump\t// in\n    tag_416:\n        /* \"#utility.yul\":17229:17282   */\n      tag_217\n      jump\t// in\n    tag_415:\n        /* \"#utility.yul\":17216:17282   */\n      swap1\n      pop\n        /* \"#utility.yul\":17146:17288   */\n      swap2\n      swap1\n      pop\n      jump\t// out\n        /* \"#utility.yul\":17294:17369   */\n    tag_240:\n        /* \"#utility.yul\":17337:17340   */\n      0x00\n        /* \"#utility.yul\":17358:17363   */\n      dup2\n        /* \"#utility.yul\":17351:17363   */\n      swap1\n      pop\n        /* \"#utility.yul\":17294:17369   */\n      swap2\n      swap1\n      pop\n      jump\t// out\n        /* \"#utility.yul\":17375:17644   */\n    tag_241:\n        /* \"#utility.yul\":17485:17524   */\n      tag_420\n        /* \"#utility.yul\":17516:17523   */\n      dup4\n        /* \"#utility.yul\":17485:17524   */\n      tag_239\n      jump\t// in\n    tag_420:\n        /* \"#utility.yul\":17546:17637   */\n      tag_421\n        /* \"#utility.yul\":17595:17636   */\n      tag_422\n        /* \"#utility.yul\":17619:17635   */\n      dup3\n        /* \"#utility.yul\":17595:17636   */\n      tag_240\n      jump\t// in\n    tag_422:\n        /* \"#utility.yul\":17587:17593   */\n      dup5\n        /* \"#utility.yul\":17580:17584   */\n      dup5\n        /* \"#utility.yul\":17574:17585   */\n      sload\n        /* \"#utility.yul\":17546:17637   */\n      tag_237\n      jump\t// in\n    tag_421:\n        /* \"#utility.yul\":17540:17544   */\n      dup3\n        /* \"#utility.yul\":17533:17638   */\n      sstore\n        /* \"#utility.yul\":17451:17644   */\n      pop\n        /* \"#utility.yul\":17375:17644   */\n      pop\n      pop\n      pop\n      jump\t// out\n        /* \"#utility.yul\":17650:17723   */\n    tag_242:\n        /* \"#utility.yul\":17695:17698   */\n      0x00\n        /* \"#utility.yul\":17650:17723   */\n      swap1\n      jump\t// out\n        /* \"#utility.yul\":17729:17918   */\n    tag_243:\n        /* \"#utility.yul\":17806:17838   */\n      tag_425\n      tag_242\n      jump\t// in\n    tag_425:\n        /* \"#utility.yul\":17847:17912   */\n      tag_426\n        /* \"#utility.yul\":17905:17911   */\n      dup2\n        /* \"#utility.yul\":17897:17903   */\n      dup5\n        /* \"#utility.yul\":17891:17895   */\n      dup5\n        /* \"#utility.yul\":17847:17912   */\n      tag_241\n      jump\t// in\n    tag_426:\n        /* \"#utility.yul\":17782:17918   */\n      pop\n        /* \"#utility.yul\":17729:17918   */\n      pop\n      pop\n      jump\t// out\n        /* \"#utility.yul\":17924:18110   */\n    tag_244:\n        /* \"#utility.yul\":17984:18104   */\n    tag_428:\n        /* \"#utility.yul\":18001:18004   */\n      dup2\n        /* \"#utility.yul\":17994:17999   */\n      dup2\n        /* \"#utility.yul\":17991:18005   */\n      lt\n        /* \"#utility.yul\":17984:18104   */\n      iszero\n      tag_430\n      jumpi\n        /* \"#utility.yul\":18055:18094   */\n      tag_431\n        /* \"#utility.yul\":18092:18093   */\n      0x00\n        /* \"#utility.yul\":18085:18090   */\n      dup3\n        /* \"#utility.yul\":18055:18094   */\n      tag_243\n      jump\t// in\n    tag_431:\n        /* \"#utility.yul\":18028:18029   */\n      0x01\n        /* \"#utility.yul\":18021:18026   */\n      dup2\n        /* \"#utility.yul\":18017:18030   */\n      add\n        /* \"#utility.yul\":18008:18030   */\n      swap1\n      pop\n        /* \"#utility.yul\":17984:18104   */\n      jump(tag_428)\n    tag_430:\n        /* \"#utility.yul\":17924:18110   */\n      pop\n      pop\n      jump\t// out\n        /* \"#utility.yul\":18116:18659   */\n    tag_245:\n        /* \"#utility.yul\":18217:18219   */\n      0x1f\n        /* \"#utility.yul\":18212:18215   */\n      dup3\n        /* \"#utility.yul\":18209:18220   */\n      gt\n        /* \"#utility.yul\":18206:18652   */\n      iszero\n      tag_433\n      jumpi\n        /* \"#utility.yul\":18251:18289   */\n      tag_434\n        /* \"#utility.yul\":18283:18288   */\n      dup2\n        /* \"#utility.yul\":18251:18289   */\n      tag_234\n      jump\t// in\n    tag_434:\n        /* \"#utility.yul\":18335:18364   */\n      tag_435\n        /* \"#utility.yul\":18353:18363   */\n      dup5\n        /* \"#utility.yul\":18335:18364   */\n      tag_235\n      jump\t// in\n    tag_435:\n        /* \"#utility.yul\":18325:18333   */\n      dup2\n        /* \"#utility.yul\":18321:18365   */\n      add\n        /* \"#utility.yul\":18518:18520   */\n      0x20\n        /* \"#utility.yul\":18506:18516   */\n      dup6\n        /* \"#utility.yul\":18503:18521   */\n      lt\n        /* \"#utility.yul\":18500:18549   */\n      iszero\n      tag_436\n      jumpi\n        /* \"#utility.yul\":18539:18547   */\n      dup2\n        /* \"#utility.yul\":18524:18547   */\n      swap1\n      pop\n        /* \"#utility.yul\":18500:18549   */\n    tag_436:\n        /* \"#utility.yul\":18562:18642   */\n      tag_437\n        /* \"#utility.yul\":18618:18640   */\n      tag_438\n        /* \"#utility.yul\":18636:18639   */\n      dup6\n        /* \"#utility.yul\":18618:18640   */\n      tag_235\n      jump\t// in\n    tag_438:\n        /* \"#utility.yul\":18608:18616   */\n      dup4\n        /* \"#utility.yul\":18604:18641   */\n      add\n        /* \"#utility.yul\":18591:18602   */\n      dup3\n        /* \"#utility.yul\":18562:18642   */\n      tag_244\n      jump\t// in\n    tag_437:\n        /* \"#utility.yul\":18221:18652   */\n      pop\n      pop\n        /* \"#utility.yul\":18206:18652   */\n    tag_433:\n        /* \"#utility.yul\":18116:18659   */\n      pop\n      pop\n      pop\n      jump\t// out\n        /* \"#utility.yul\":18665:18782   */\n    tag_246:\n        /* \"#utility.yul\":18719:18727   */\n      0x00\n        /* \"#utility.yul\":18769:18774   */\n      dup3\n        /* \"#utility.yul\":18763:18767   */\n      dup3\n        /* \"#utility.yul\":18759:18775   */\n      shr\n        /* \"#utility.yul\":18738:18775   */\n      swap1\n      pop\n        /* \"#utility.yul\":18665:18782   */\n      swap3\n      swap2\n      pop\n      pop\n      jump\t// out\n        /* \"#utility.yul\":18788:18957   */\n    tag_247:\n        /* \"#utility.yul\":18832:18838   */\n      0x00\n        /* \"#utility.yul\":18865:18916   */\n      tag_441\n        /* \"#utility.yul\":18913:18914   */\n      0x00\n        /* \"#utility.yul\":18909:18915   */\n      not\n        /* \"#utility.yul\":18901:18906   */\n      dup5\n        /* \"#utility.yul\":18898:18899   */\n      0x08\n        /* \"#utility.yul\":18894:18907   */\n      mul\n        /* \"#utility.yul\":18865:18916   */\n      tag_246\n      jump\t// in\n    tag_441:\n        /* \"#utility.yul\":18861:18917   */\n      not\n        /* \"#utility.yul\":18946:18950   */\n      dup1\n        /* \"#utility.yul\":18940:18944   */\n      dup4\n        /* \"#utility.yul\":18936:18951   */\n      and\n        /* \"#utility.yul\":18926:18951   */\n      swap2\n      pop\n        /* \"#utility.yul\":18839:18957   */\n      pop\n        /* \"#utility.yul\":18788:18957   */\n      swap3\n      swap2\n      pop\n      pop\n      jump\t// out\n        /* \"#utility.yul\":18962:19257   */\n    tag_248:\n        /* \"#utility.yul\":19038:19042   */\n      0x00\n        /* \"#utility.yul\":19184:19213   */\n      tag_443\n        /* \"#utility.yul\":19209:19212   */\n      dup4\n        /* \"#utility.yul\":19203:19207   */\n      dup4\n        /* \"#utility.yul\":19184:19213   */\n      tag_247\n      jump\t// in\n    tag_443:\n        /* \"#utility.yul\":19176:19213   */\n      swap2\n      pop\n        /* \"#utility.yul\":19246:19249   */\n      dup3\n        /* \"#utility.yul\":19243:19244   */\n      0x02\n        /* \"#utility.yul\":19239:19250   */\n      mul\n        /* \"#utility.yul\":19233:19237   */\n      dup3\n        /* \"#utility.yul\":19230:19251   */\n      or\n        /* \"#utility.yul\":19222:19251   */\n      swap1\n      pop\n        /* \"#utility.yul\":18962:19257   */\n      swap3\n      swap2\n      pop\n      pop\n      jump\t// out\n        /* \"#utility.yul\":19262:20657   */\n    tag_46:\n        /* \"#utility.yul\":19379:19416   */\n      tag_445\n        /* \"#utility.yul\":19412:19415   */\n      dup3\n        /* \"#utility.yul\":19379:19416   */\n      tag_207\n      jump\t// in\n    tag_445:\n        /* \"#utility.yul\":19481:19499   */\n      0xffffffffffffffff\n        /* \"#utility.yul\":19473:19479   */\n      dup2\n        /* \"#utility.yul\":19470:19500   */\n      gt\n        /* \"#utility.yul\":19467:19523   */\n      iszero\n      tag_446\n      jumpi\n        /* \"#utility.yul\":19503:19521   */\n      tag_447\n      tag_55\n      jump\t// in\n    tag_447:\n        /* \"#utility.yul\":19467:19523   */\n    tag_446:\n        /* \"#utility.yul\":19547:19585   */\n      tag_448\n        /* \"#utility.yul\":19579:19583   */\n      dup3\n        /* \"#utility.yul\":19573:19584   */\n      sload\n        /* \"#utility.yul\":19547:19585   */\n      tag_80\n      jump\t// in\n    tag_448:\n        /* \"#utility.yul\":19632:19699   */\n      tag_449\n        /* \"#utility.yul\":19692:19698   */\n      dup3\n        /* \"#utility.yul\":19684:19690   */\n      dup3\n        /* \"#utility.yul\":19678:19682   */\n      dup6\n        /* \"#utility.yul\":19632:19699   */\n      tag_245\n      jump\t// in\n    tag_449:\n        /* \"#utility.yul\":19726:19727   */\n      0x00\n        /* \"#utility.yul\":19750:19754   */\n      0x20\n        /* \"#utility.yul\":19737:19754   */\n      swap1\n      pop\n        /* \"#utility.yul\":19782:19784   */\n      0x1f\n        /* \"#utility.yul\":19774:19780   */\n      dup4\n        /* \"#utility.yul\":19771:19785   */\n      gt\n        /* \"#utility.yul\":19799:19800   */\n      0x01\n        /* \"#utility.yul\":19794:20412   */\n      dup2\n      eq\n      tag_451\n      jumpi\n        /* \"#utility.yul\":20456:20457   */\n      0x00\n        /* \"#utility.yul\":20473:20479   */\n      dup5\n        /* \"#utility.yul\":20470:20547   */\n      iszero\n      tag_452\n      jumpi\n        /* \"#utility.yul\":20522:20531   */\n      dup3\n        /* \"#utility.yul\":20517:20520   */\n      dup8\n        /* \"#utility.yul\":20513:20532   */\n      add\n        /* \"#utility.yul\":20507:20533   */\n      mload\n        /* \"#utility.yul\":20498:20533   */\n      swap1\n      pop\n        /* \"#utility.yul\":20470:20547   */\n    tag_452:\n        /* \"#utility.yul\":20573:20640   */\n      tag_453\n        /* \"#utility.yul\":20633:20639   */\n      dup6\n        /* \"#utility.yul\":20626:20631   */\n      dup3\n        /* \"#utility.yul\":20573:20640   */\n      tag_248\n      jump\t// in\n    tag_453:\n        /* \"#utility.yul\":20567:20571   */\n      dup7\n        /* \"#utility.yul\":20560:20641   */\n      sstore\n        /* \"#utility.yul\":20429:20651   */\n      pop\n        /* \"#utility.yul\":19764:20651   */\n      jump(tag_450)\n        /* \"#utility.yul\":19794:20412   */\n    tag_451:\n        /* \"#utility.yul\":19846:19850   */\n      0x1f\n        /* \"#utility.yul\":19842:19851   */\n      not\n        /* \"#utility.yul\":19834:19840   */\n      dup5\n        /* \"#utility.yul\":19830:19852   */\n      and\n        /* \"#utility.yul\":19880:19917   */\n      tag_454\n        /* \"#utility.yul\":19912:19916   */\n      dup7\n        /* \"#utility.yul\":19880:19917   */\n      tag_234\n      jump\t// in\n    tag_454:\n        /* \"#utility.yul\":19939:19940   */\n      0x00\n        /* \"#utility.yul\":19953:20161   */\n    tag_455:\n        /* \"#utility.yul\":19967:19974   */\n      dup3\n        /* \"#utility.yul\":19964:19965   */\n      dup2\n        /* \"#utility.yul\":19961:19975   */\n      lt\n        /* \"#utility.yul\":19953:20161   */\n      iszero\n      tag_457\n      jumpi\n        /* \"#utility.yul\":20046:20055   */\n      dup5\n        /* \"#utility.yul\":20041:20044   */\n      dup10\n        /* \"#utility.yul\":20037:20056   */\n      add\n        /* \"#utility.yul\":20031:20057   */\n      mload\n        /* \"#utility.yul\":20023:20029   */\n      dup3\n        /* \"#utility.yul\":20016:20058   */\n      sstore\n        /* \"#utility.yul\":20097:20098   */\n      0x01\n        /* \"#utility.yul\":20089:20095   */\n      dup3\n        /* \"#utility.yul\":20085:20099   */\n      add\n        /* \"#utility.yul\":20075:20099   */\n      swap2\n      pop\n        /* \"#utility.yul\":20144:20146   */\n      0x20\n        /* \"#utility.yul\":20133:20142   */\n      dup6\n        /* \"#utility.yul\":20129:20147   */\n      add\n        /* \"#utility.yul\":20116:20147   */\n      swap5\n      pop\n        /* \"#utility.yul\":19990:19994   */\n      0x20\n        /* \"#utility.yul\":19987:19988   */\n      dup2\n        /* \"#utility.yul\":19983:19995   */\n      add\n        /* \"#utility.yul\":19978:19995   */\n      swap1\n      pop\n        /* \"#utility.yul\":19953:20161   */\n      jump(tag_455)\n    tag_457:\n        /* \"#utility.yul\":20189:20195   */\n      dup7\n        /* \"#utility.yul\":20180:20187   */\n      dup4\n        /* \"#utility.yul\":20177:20196   */\n      lt\n        /* \"#utility.yul\":20174:20353   */\n      iszero\n      tag_458\n      jumpi\n        /* \"#utility.yul\":20247:20256   */\n      dup5\n        /* \"#utility.yul\":20242:20245   */\n      dup10\n        /* \"#utility.yul\":20238:20257   */\n      add\n        /* \"#utility.yul\":20232:20258   */\n      mload\n        /* \"#utility.yul\":20290:20338   */\n      tag_459\n        /* \"#utility.yul\":20332:20336   */\n      0x1f\n        /* \"#utility.yul\":20324:20330   */\n      dup10\n        /* \"#utility.yul\":20320:20337   */\n      and\n        /* \"#utility.yul\":20309:20318   */\n      dup3\n        /* \"#utility.yul\":20290:20338   */\n      tag_247\n      jump\t// in\n    tag_459:\n        /* \"#utility.yul\":20282:20288   */\n      dup4\n        /* \"#utility.yul\":20275:20339   */\n      sstore\n        /* \"#utility.yul\":20197:20353   */\n      pop\n        /* \"#utility.yul\":20174:20353   */\n    tag_458:\n        /* \"#utility.yul\":20399:20400   */\n      0x01\n        /* \"#utility.yul\":20395:20396   */\n      0x02\n        /* \"#utility.yul\":20387:20393   */\n      dup9\n        /* \"#utility.yul\":20383:20397   */\n      mul\n        /* \"#utility.yul\":20379:20401   */\n      add\n        /* \"#utility.yul\":20373:20377   */\n      dup9\n        /* \"#utility.yul\":20366:20402   */\n      sstore\n        /* \"#utility.yul\":19801:20412   */\n      pop\n      pop\n      pop\n        /* \"#utility.yul\":19764:20651   */\n    tag_450:\n      pop\n        /* \"#utility.yul\":19354:20657   */\n      pop\n      pop\n      pop\n        /* \"#utility.yul\":19262:20657   */\n      pop\n      pop\n      jump\t// out\n        /* \"#utility.yul\":20663:20843   */\n    tag_249:\n        /* \"#utility.yul\":20711:20788   */\n      0x4e487b7100000000000000000000000000000000000000000000000000000000\n        /* \"#utility.yul\":20708:20709   */\n      0x00\n        /* \"#utility.yul\":20701:20789   */\n      mstore\n        /* \"#utility.yul\":20808:20812   */\n      0x11\n        /* \"#utility.yul\":20805:20806   */\n      0x04\n        /* \"#utility.yul\":20798:20813   */\n      mstore\n        /* \"#utility.yul\":20832:20836   */\n      0x24\n        /* \"#utility.yul\":20829:20830   */\n      0x00\n        /* \"#utility.yul\":20822:20837   */\n      revert\n        /* \"#utility.yul\":20849:21040   */\n    tag_49:\n        /* \"#utility.yul\":20889:20892   */\n      0x00\n        /* \"#utility.yul\":20908:20928   */\n      tag_462\n        /* \"#utility.yul\":20926:20927   */\n      dup3\n        /* \"#utility.yul\":20908:20928   */\n      tag_217\n      jump\t// in\n    tag_462:\n        /* \"#utility.yul\":20903:20928   */\n      swap2\n      pop\n        /* \"#utility.yul\":20942:20962   */\n      tag_463\n        /* \"#utility.yul\":20960:20961   */\n      dup4\n        /* \"#utility.yul\":20942:20962   */\n      tag_217\n      jump\t// in\n    tag_463:\n        /* \"#utility.yul\":20937:20962   */\n      swap3\n      pop\n        /* \"#utility.yul\":20985:20986   */\n      dup3\n        /* \"#utility.yul\":20982:20983   */\n      dup3\n        /* \"#utility.yul\":20978:20987   */\n      add\n        /* \"#utility.yul\":20971:20987   */\n      swap1\n      pop\n        /* \"#utility.yul\":21006:21009   */\n      dup1\n        /* \"#utility.yul\":21003:21004   */\n      dup3\n        /* \"#utility.yul\":21000:21010   */\n      gt\n        /* \"#utility.yul\":20997:21033   */\n      iszero\n      tag_464\n      jumpi\n        /* \"#utility.yul\":21013:21031   */\n      tag_465\n      tag_249\n      jump\t// in\n    tag_465:\n        /* \"#utility.yul\":20997:21033   */\n    tag_464:\n        /* \"#utility.yul\":20849:21040   */\n      swap3\n      swap2\n      pop\n      pop\n      jump\t// out\n        /* \"#utility.yul\":21046:21226   */\n    tag_77:\n        /* \"#utility.yul\":21094:21171   */\n      0x4e487b7100000000000000000000000000000000000000000000000000000000\n        /* \"#utility.yul\":21091:21092   */\n      0x00\n        /* \"#utility.yul\":21084:21172   */\n      mstore\n        /* \"#utility.yul\":21191:21195   */\n      0x32\n        /* \"#utility.yul\":21188:21189   */\n      0x04\n        /* \"#utility.yul\":21181:21196   */\n      mstore\n        /* \"#utility.yul\":21215:21219   */\n      0x24\n        /* \"#utility.yul\":21212:21213   */\n      0x00\n        /* \"#utility.yul\":21205:21220   */\n      revert\n        /* \"#utility.yul\":21232:21401   */\n    tag_250:\n        /* \"#utility.yul\":21372:21393   */\n      0x456e636c61766520494420726571756972656400000000000000000000000000\n        /* \"#utility.yul\":21368:21369   */\n      0x00\n        /* \"#utility.yul\":21360:21366   */\n      dup3\n        /* \"#utility.yul\":21356:21370   */\n      add\n        /* \"#utility.yul\":21349:21394   */\n      mstore\n        /* \"#utility.yul\":21232:21401   */\n      pop\n      jump\t// out\n        /* \"#utility.yul\":21407:21773   */\n    tag_251:\n        /* \"#utility.yul\":21549:21552   */\n      0x00\n        /* \"#utility.yul\":21570:21637   */\n      tag_469\n        /* \"#utility.yul\":21634:21636   */\n      0x13\n        /* \"#utility.yul\":21629:21632   */\n      dup4\n        /* \"#utility.yul\":21570:21637   */\n      tag_222\n      jump\t// in\n    tag_469:\n        /* \"#utility.yul\":21563:21637   */\n      swap2\n      pop\n        /* \"#utility.yul\":21646:21739   */\n      tag_470\n        /* \"#utility.yul\":21735:21738   */\n      dup3\n        /* \"#utility.yul\":21646:21739   */\n      tag_250\n      jump\t// in\n    tag_470:\n        /* \"#utility.yul\":21764:21766   */\n      0x20\n        /* \"#utility.yul\":21759:21762   */\n      dup3\n        /* \"#utility.yul\":21755:21767   */\n      add\n        /* \"#utility.yul\":21748:21767   */\n      swap1\n      pop\n        /* \"#utility.yul\":21407:21773   */\n      swap2\n      swap1\n      pop\n      jump\t// out\n        /* \"#utility.yul\":21779:22198   */\n    tag_118:\n        /* \"#utility.yul\":21945:21949   */\n      0x00\n        /* \"#utility.yul\":21983:21985   */\n      0x20\n        /* \"#utility.yul\":21972:21981   */\n      dup3\n        /* \"#utility.yul\":21968:21986   */\n      add\n        /* \"#utility.yul\":21960:21986   */\n      swap1\n      pop\n        /* \"#utility.yul\":22032:22041   */\n      dup2\n        /* \"#utility.yul\":22026:22030   */\n      dup2\n        /* \"#utility.yul\":22022:22042   */\n      sub\n        /* \"#utility.yul\":22018:22019   */\n      0x00\n        /* \"#utility.yul\":22007:22016   */\n      dup4\n        /* \"#utility.yul\":22003:22020   */\n      add\n        /* \"#utility.yul\":21996:22043   */\n      mstore\n        /* \"#utility.yul\":22060:22191   */\n      tag_472\n        /* \"#utility.yul\":22186:22190   */\n      dup2\n        /* \"#utility.yul\":22060:22191   */\n      tag_251\n      jump\t// in\n    tag_472:\n        /* \"#utility.yul\":22052:22191   */\n      swap1\n      pop\n        /* \"#utility.yul\":21779:22198   */\n      swap2\n      swap1\n      pop\n      jump\t// out\n        /* \"#utility.yul\":22204:22374   */\n    tag_252:\n        /* \"#utility.yul\":22344:22366   */\n      0x436f6e6e6563742055524c207265717569726564000000000000000000000000\n        /* \"#utility.yul\":22340:22341   */\n      0x00\n        /* \"#utility.yul\":22332:22338   */\n      dup3\n        /* \"#utility.yul\":22328:22342   */\n      add\n        /* \"#utility.yul\":22321:22367   */\n      mstore\n        /* \"#utility.yul\":22204:22374   */\n      pop\n      jump\t// out\n        /* \"#utility.yul\":22380:22746   */\n    tag_253:\n        /* \"#utility.yul\":22522:22525   */\n      0x00\n        /* \"#utility.yul\":22543:22610   */\n      tag_475\n        /* \"#utility.yul\":22607:22609   */\n      0x14\n        /* \"#utility.yul\":22602:22605   */\n      dup4\n        /* \"#utility.yul\":22543:22610   */\n      tag_222\n      jump\t// in\n    tag_475:\n        /* \"#utility.yul\":22536:22610   */\n      swap2\n      pop\n        /* \"#utility.yul\":22619:22712   */\n      tag_476\n        /* \"#utility.yul\":22708:22711   */\n      dup3\n        /* \"#utility.yul\":22619:22712   */\n      tag_252\n      jump\t// in\n    tag_476:\n        /* \"#utility.yul\":22737:22739   */\n      0x20\n        /* \"#utility.yul\":22732:22735   */\n      dup3\n        /* \"#utility.yul\":22728:22740   */\n      add\n        /* \"#utility.yul\":22721:22740   */\n      swap1\n      pop\n        /* \"#utility.yul\":22380:22746   */\n      swap2\n      swap1\n      pop\n      jump\t// out\n        /* \"#utility.yul\":22752:23171   */\n    tag_121:\n        /* \"#utility.yul\":22918:22922   */\n      0x00\n        /* \"#utility.yul\":22956:22958   */\n      0x20\n        /* \"#utility.yul\":22945:22954   */\n      dup3\n        /* \"#utility.yul\":22941:22959   */\n      add\n        /* \"#utility.yul\":22933:22959   */\n      swap1\n      pop\n        /* \"#utility.yul\":23005:23014   */\n      dup2\n        /* \"#utility.yul\":22999:23003   */\n      dup2\n        /* \"#utility.yul\":22995:23015   */\n      sub\n        /* \"#utility.yul\":22991:22992   */\n      0x00\n        /* \"#utility.yul\":22980:22989   */\n      dup4\n        /* \"#utility.yul\":22976:22993   */\n      add\n        /* \"#utility.yul\":22969:23016   */\n      mstore\n        /* \"#utility.yul\":23033:23164   */\n      tag_478\n        /* \"#utility.yul\":23159:23163   */\n      dup2\n        /* \"#utility.yul\":23033:23164   */\n      tag_253\n      jump\t// in\n    tag_478:\n        /* \"#utility.yul\":23025:23164   */\n      swap1\n      pop\n        /* \"#utility.yul\":22752:23171   */\n      swap2\n      swap1\n      pop\n      jump\t// out\n        /* \"#utility.yul\":23177:23346   */\n    tag_254:\n        /* \"#utility.yul\":23317:23338   */\n      0x5075626c6963206b657920726571756972656400000000000000000000000000\n        /* \"#utility.yul\":23313:23314   */\n      0x00\n        /* \"#utility.yul\":23305:23311   */\n      dup3\n        /* \"#utility.yul\":23301:23315   */\n      add\n        /* \"#utility.yul\":23294:23339   */\n      mstore\n        /* \"#utility.yul\":23177:23346   */\n      pop\n      jump\t// out\n        /* \"#utility.yul\":23352:23718   */\n    tag_255:\n        /* \"#utility.yul\":23494:23497   */\n      0x00\n        /* \"#utility.yul\":23515:23582   */\n      tag_481\n        /* \"#utility.yul\":23579:23581   */\n      0x13\n        /* \"#utility.yul\":23574:23577   */\n      dup4\n        /* \"#utility.yul\":23515:23582   */\n      tag_222\n      jump\t// in\n    tag_481:\n        /* \"#utility.yul\":23508:23582   */\n      swap2\n      pop\n        /* \"#utility.yul\":23591:23684   */\n      tag_482\n        /* \"#utility.yul\":23680:23683   */\n      dup3\n        /* \"#utility.yul\":23591:23684   */\n      tag_254\n      jump\t// in\n    tag_482:\n        /* \"#utility.yul\":23709:23711   */\n      0x20\n        /* \"#utility.yul\":23704:23707   */\n      dup3\n        /* \"#utility.yul\":23700:23712   */\n      add\n        /* \"#utility.yul\":23693:23712   */\n      swap1\n      pop\n        /* \"#utility.yul\":23352:23718   */\n      swap2\n      swap1\n      pop\n      jump\t// out\n        /* \"#utility.yul\":23724:24143   */\n    tag_124:\n        /* \"#utility.yul\":23890:23894   */\n      0x00\n        /* \"#utility.yul\":23928:23930   */\n      0x20\n        /* \"#utility.yul\":23917:23926   */\n      dup3\n        /* \"#utility.yul\":23913:23931   */\n      add\n        /* \"#utility.yul\":23905:23931   */\n      swap1\n      pop\n        /* \"#utility.yul\":23977:23986   */\n      dup2\n        /* \"#utility.yul\":23971:23975   */\n      dup2\n        /* \"#utility.yul\":23967:23987   */\n      sub\n        /* \"#utility.yul\":23963:23964   */\n      0x00\n        /* \"#utility.yul\":23952:23961   */\n      dup4\n        /* \"#utility.yul\":23948:23965   */\n      add\n        /* \"#utility.yul\":23941:23988   */\n      mstore\n        /* \"#utility.yul\":24005:24136   */\n      tag_484\n        /* \"#utility.yul\":24131:24135   */\n      dup2\n        /* \"#utility.yul\":24005:24136   */\n      tag_255\n      jump\t// in\n    tag_484:\n        /* \"#utility.yul\":23997:24136   */\n      swap1\n      pop\n        /* \"#utility.yul\":23724:24143   */\n      swap2\n      swap1\n      pop\n      jump\t// out\n        /* \"#utility.yul\":24149:24321   */\n    tag_256:\n        /* \"#utility.yul\":24289:24313   */\n      0x456e636c61766520616c72656164792065786973747300000000000000000000\n        /* \"#utility.yul\":24285:24286   */\n      0x00\n        /* \"#utility.yul\":24277:24283   */\n      dup3\n        /* \"#utility.yul\":24273:24287   */\n      add\n        /* \"#utility.yul\":24266:24314   */\n      mstore\n        /* \"#utility.yul\":24149:24321   */\n      pop\n      jump\t// out\n        /* \"#utility.yul\":24327:24693   */\n    tag_257:\n        /* \"#utility.yul\":24469:24472   */\n      0x00\n        /* \"#utility.yul\":24490:24557   */\n      tag_487\n        /* \"#utility.yul\":24554:24556   */\n      0x16\n        /* \"#utility.yul\":24549:24552   */\n      dup4\n        /* \"#utility.yul\":24490:24557   */\n      tag_222\n      jump\t// in\n    tag_487:\n        /* \"#utility.yul\":24483:24557   */\n      swap2\n      pop\n        /* \"#utility.yul\":24566:24659   */\n      tag_488\n        /* \"#utility.yul\":24655:24658   */\n      dup3\n        /* \"#utility.yul\":24566:24659   */\n      tag_256\n      jump\t// in\n    tag_488:\n        /* \"#utility.yul\":24684:24686   */\n      0x20\n        /* \"#utility.yul\":24679:24682   */\n      dup3\n        /* \"#utility.yul\":24675:24687   */\n      add\n        /* \"#utility.yul\":24668:24687   */\n      swap1\n      pop\n        /* \"#utility.yul\":24327:24693   */\n      swap2\n      swap1\n      pop\n      jump\t// out\n        /* \"#utility.yul\":24699:25118   */\n    tag_128:\n        /* \"#utility.yul\":24865:24869   */\n      0x00\n        /* \"#utility.yul\":24903:24905   */\n      0x20\n        /* \"#utility.yul\":24892:24901   */\n      dup3\n        /* \"#utility.yul\":24888:24906   */\n      add\n        /* \"#utility.yul\":24880:24906   */\n      swap1\n      pop\n        /* \"#utility.yul\":24952:24961   */\n      dup2\n        /* \"#utility.yul\":24946:24950   */\n      dup2\n        /* \"#utility.yul\":24942:24962   */\n      sub\n        /* \"#utility.yul\":24938:24939   */\n      0x00\n        /* \"#utility.yul\":24927:24936   */\n      dup4\n        /* \"#utility.yul\":24923:24940   */\n      add\n        /* \"#utility.yul\":24916:24963   */\n      mstore\n        /* \"#utility.yul\":24980:25111   */\n      tag_490\n        /* \"#utility.yul\":25106:25110   */\n      dup2\n        /* \"#utility.yul\":24980:25111   */\n      tag_257\n      jump\t// in\n    tag_490:\n        /* \"#utility.yul\":24972:25111   */\n      swap1\n      pop\n        /* \"#utility.yul\":24699:25118   */\n      swap2\n      swap1\n      pop\n      jump\t// out\n        /* \"#utility.yul\":25124:25209   */\n    tag_258:\n        /* \"#utility.yul\":25169:25176   */\n      0x00\n        /* \"#utility.yul\":25198:25203   */\n      dup2\n        /* \"#utility.yul\":25187:25203   */\n      swap1\n      pop\n        /* \"#utility.yul\":25124:25209   */\n      swap2\n      swap1\n      pop\n      jump\t// out\n        /* \"#utility.yul\":25215:25373   */\n    tag_259:\n        /* \"#utility.yul\":25273:25282   */\n      0x00\n        /* \"#utility.yul\":25306:25367   */\n      tag_493\n        /* \"#utility.yul\":25324:25366   */\n      tag_494\n        /* \"#utility.yul\":25333:25365   */\n      tag_495\n        /* \"#utility.yul\":25359:25364   */\n      dup5\n        /* \"#utility.yul\":25333:25365   */\n      tag_258\n      jump\t// in\n    tag_495:\n        /* \"#utility.yul\":25324:25366   */\n      tag_238\n      jump\t// in\n    tag_494:\n        /* \"#utility.yul\":25306:25367   */\n      tag_217\n      jump\t// in\n    tag_493:\n        /* \"#utility.yul\":25293:25367   */\n      swap1\n      pop\n        /* \"#utility.yul\":25215:25373   */\n      swap2\n      swap1\n      pop\n      jump\t// out\n        /* \"#utility.yul\":25379:25526   */\n    tag_260:\n        /* \"#utility.yul\":25474:25519   */\n      tag_497\n        /* \"#utility.yul\":25513:25518   */\n      dup2\n        /* \"#utility.yul\":25474:25519   */\n      tag_259\n      jump\t// in\n    tag_497:\n        /* \"#utility.yul\":25469:25472   */\n      dup3\n        /* \"#utility.yul\":25462:25520   */\n      mstore\n        /* \"#utility.yul\":25379:25526   */\n      pop\n      pop\n      jump\t// out\n        /* \"#utility.yul\":25532:26283   */\n    tag_136:\n        /* \"#utility.yul\":25757:25761   */\n      0x00\n        /* \"#utility.yul\":25795:25798   */\n      0x80\n        /* \"#utility.yul\":25784:25793   */\n      dup3\n        /* \"#utility.yul\":25780:25799   */\n      add\n        /* \"#utility.yul\":25772:25799   */\n      swap1\n      pop\n        /* \"#utility.yul\":25845:25854   */\n      dup2\n        /* \"#utility.yul\":25839:25843   */\n      dup2\n        /* \"#utility.yul\":25835:25855   */\n      sub\n        /* \"#utility.yul\":25831:25832   */\n      0x00\n        /* \"#utility.yul\":25820:25829   */\n      dup4\n        /* \"#utility.yul\":25816:25833   */\n      add\n        /* \"#utility.yul\":25809:25856   */\n      mstore\n        /* \"#utility.yul\":25873:25951   */\n      tag_499\n        /* \"#utility.yul\":25946:25950   */\n      dup2\n        /* \"#utility.yul\":25937:25943   */\n      dup8\n        /* \"#utility.yul\":25873:25951   */\n      tag_223\n      jump\t// in\n    tag_499:\n        /* \"#utility.yul\":25865:25951   */\n      swap1\n      pop\n        /* \"#utility.yul\":25998:26007   */\n      dup2\n        /* \"#utility.yul\":25992:25996   */\n      dup2\n        /* \"#utility.yul\":25988:26008   */\n      sub\n        /* \"#utility.yul\":25983:25985   */\n      0x20\n        /* \"#utility.yul\":25972:25981   */\n      dup4\n        /* \"#utility.yul\":25968:25986   */\n      add\n        /* \"#utility.yul\":25961:26009   */\n      mstore\n        /* \"#utility.yul\":26026:26104   */\n      tag_500\n        /* \"#utility.yul\":26099:26103   */\n      dup2\n        /* \"#utility.yul\":26090:26096   */\n      dup7\n        /* \"#utility.yul\":26026:26104   */\n      tag_223\n      jump\t// in\n    tag_500:\n        /* \"#utility.yul\":26018:26104   */\n      swap1\n      pop\n        /* \"#utility.yul\":26114:26194   */\n      tag_501\n        /* \"#utility.yul\":26190:26192   */\n      0x40\n        /* \"#utility.yul\":26179:26188   */\n      dup4\n        /* \"#utility.yul\":26175:26193   */\n      add\n        /* \"#utility.yul\":26166:26172   */\n      dup6\n        /* \"#utility.yul\":26114:26194   */\n      tag_260\n      jump\t// in\n    tag_501:\n        /* \"#utility.yul\":26204:26276   */\n      tag_502\n        /* \"#utility.yul\":26272:26274   */\n      0x60\n        /* \"#utility.yul\":26261:26270   */\n      dup4\n        /* \"#utility.yul\":26257:26275   */\n      add\n        /* \"#utility.yul\":26248:26254   */\n      dup5\n        /* \"#utility.yul\":26204:26276   */\n      tag_224\n      jump\t// in\n    tag_502:\n        /* \"#utility.yul\":25532:26283   */\n      swap6\n      swap5\n      pop\n      pop\n      pop\n      pop\n      pop\n      jump\t// out\n        /* \"#utility.yul\":26313:27187   */\n    tag_261:\n        /* \"#utility.yul\":26416:26419   */\n      0x00\n        /* \"#utility.yul\":26453:26458   */\n      dup2\n        /* \"#utility.yul\":26447:26459   */\n      sload\n        /* \"#utility.yul\":26482:26518   */\n      tag_504\n        /* \"#utility.yul\":26508:26517   */\n      dup2\n        /* \"#utility.yul\":26482:26518   */\n      tag_80\n      jump\t// in\n    tag_504:\n        /* \"#utility.yul\":26534:26623   */\n      tag_505\n        /* \"#utility.yul\":26616:26622   */\n      dup2\n        /* \"#utility.yul\":26611:26614   */\n      dup7\n        /* \"#utility.yul\":26534:26623   */\n      tag_229\n      jump\t// in\n    tag_505:\n        /* \"#utility.yul\":26527:26623   */\n      swap5\n      pop\n        /* \"#utility.yul\":26654:26655   */\n      0x01\n        /* \"#utility.yul\":26643:26652   */\n      dup3\n        /* \"#utility.yul\":26639:26656   */\n      and\n        /* \"#utility.yul\":26670:26671   */\n      0x00\n        /* \"#utility.yul\":26665:26831   */\n      dup2\n      eq\n      tag_507\n      jumpi\n        /* \"#utility.yul\":26845:26846   */\n      0x01\n        /* \"#utility.yul\":26840:27181   */\n      dup2\n      eq\n      tag_508\n      jumpi\n        /* \"#utility.yul\":26632:27181   */\n      jump(tag_506)\n        /* \"#utility.yul\":26665:26831   */\n    tag_507:\n        /* \"#utility.yul\":26749:26753   */\n      0xff\n        /* \"#utility.yul\":26745:26754   */\n      not\n        /* \"#utility.yul\":26734:26743   */\n      dup4\n        /* \"#utility.yul\":26730:26755   */\n      and\n        /* \"#utility.yul\":26725:26728   */\n      dup7\n        /* \"#utility.yul\":26718:26756   */\n      mstore\n        /* \"#utility.yul\":26811:26817   */\n      dup2\n        /* \"#utility.yul\":26804:26818   */\n      iszero\n        /* \"#utility.yul\":26797:26819   */\n      iszero\n        /* \"#utility.yul\":26789:26795   */\n      dup3\n        /* \"#utility.yul\":26785:26820   */\n      mul\n        /* \"#utility.yul\":26780:26783   */\n      dup7\n        /* \"#utility.yul\":26776:26821   */\n      add\n        /* \"#utility.yul\":26769:26821   */\n      swap4\n      pop\n        /* \"#utility.yul\":26665:26831   */\n      jump(tag_506)\n        /* \"#utility.yul\":26840:27181   */\n    tag_508:\n        /* \"#utility.yul\":26907:26945   */\n      tag_509\n        /* \"#utility.yul\":26939:26944   */\n      dup6\n        /* \"#utility.yul\":26907:26945   */\n      tag_234\n      jump\t// in\n    tag_509:\n        /* \"#utility.yul\":26967:26968   */\n      0x00\n        /* \"#utility.yul\":26981:27135   */\n    tag_510:\n        /* \"#utility.yul\":26995:27001   */\n      dup4\n        /* \"#utility.yul\":26992:26993   */\n      dup2\n        /* \"#utility.yul\":26989:27002   */\n      lt\n        /* \"#utility.yul\":26981:27135   */\n      iszero\n      tag_512\n      jumpi\n        /* \"#utility.yul\":27069:27076   */\n      dup2\n        /* \"#utility.yul\":27063:27077   */\n      sload\n        /* \"#utility.yul\":27059:27060   */\n      dup2\n        /* \"#utility.yul\":27054:27057   */\n      dup10\n        /* \"#utility.yul\":27050:27061   */\n      add\n        /* \"#utility.yul\":27043:27078   */\n      mstore\n        /* \"#utility.yul\":27119:27120   */\n      0x01\n        /* \"#utility.yul\":27110:27117   */\n      dup3\n        /* \"#utility.yul\":27106:27121   */\n      add\n        /* \"#utility.yul\":27095:27121   */\n      swap2\n      pop\n        /* \"#utility.yul\":27017:27021   */\n      0x20\n        /* \"#utility.yul\":27014:27015   */\n      dup2\n        /* \"#utility.yul\":27010:27022   */\n      add\n        /* \"#utility.yul\":27005:27022   */\n      swap1\n      pop\n        /* \"#utility.yul\":26981:27135   */\n      jump(tag_510)\n    tag_512:\n        /* \"#utility.yul\":27164:27170   */\n      dup4\n        /* \"#utility.yul\":27159:27162   */\n      dup9\n        /* \"#utility.yul\":27155:27171   */\n      add\n        /* \"#utility.yul\":27148:27171   */\n      swap6\n      pop\n        /* \"#utility.yul\":26847:27181   */\n      pop\n      pop\n        /* \"#utility.yul\":26632:27181   */\n    tag_506:\n      pop\n        /* \"#utility.yul\":26420:27187   */\n      pop\n      pop\n        /* \"#utility.yul\":26313:27187   */\n      swap3\n      swap2\n      pop\n      pop\n      jump\t// out\n        /* \"#utility.yul\":27193:27462   */\n    tag_153:\n        /* \"#utility.yul\":27322:27325   */\n      0x00\n        /* \"#utility.yul\":27344:27436   */\n      tag_514\n        /* \"#utility.yul\":27432:27435   */\n      dup3\n        /* \"#utility.yul\":27423:27429   */\n      dup5\n        /* \"#utility.yul\":27344:27436   */\n      tag_261\n      jump\t// in\n    tag_514:\n        /* \"#utility.yul\":27337:27436   */\n      swap2\n      pop\n        /* \"#utility.yul\":27453:27456   */\n      dup2\n        /* \"#utility.yul\":27446:27456   */\n      swap1\n      pop\n        /* \"#utility.yul\":27193:27462   */\n      swap3\n      swap2\n      pop\n      pop\n      jump\t// out\n        /* \"#utility.yul\":27468:27662   */\n    tag_156:\n        /* \"#utility.yul\":27508:27512   */\n      0x00\n        /* \"#utility.yul\":27528:27548   */\n      tag_516\n        /* \"#utility.yul\":27546:27547   */\n      dup3\n        /* \"#utility.yul\":27528:27548   */\n      tag_217\n      jump\t// in\n    tag_516:\n        /* \"#utility.yul\":27523:27548   */\n      swap2\n      pop\n        /* \"#utility.yul\":27562:27582   */\n      tag_517\n        /* \"#utility.yul\":27580:27581   */\n      dup4\n        /* \"#utility.yul\":27562:27582   */\n      tag_217\n      jump\t// in\n    tag_517:\n        /* \"#utility.yul\":27557:27582   */\n      swap3\n      pop\n        /* \"#utility.yul\":27606:27607   */\n      dup3\n        /* \"#utility.yul\":27603:27604   */\n      dup3\n        /* \"#utility.yul\":27599:27608   */\n      sub\n        /* \"#utility.yul\":27591:27608   */\n      swap1\n      pop\n        /* \"#utility.yul\":27630:27631   */\n      dup2\n        /* \"#utility.yul\":27624:27628   */\n      dup2\n        /* \"#utility.yul\":27621:27632   */\n      gt\n        /* \"#utility.yul\":27618:27655   */\n      iszero\n      tag_518\n      jumpi\n        /* \"#utility.yul\":27635:27653   */\n      tag_519\n      tag_249\n      jump\t// in\n    tag_519:\n        /* \"#utility.yul\":27618:27655   */\n    tag_518:\n        /* \"#utility.yul\":27468:27662   */\n      swap3\n      swap2\n      pop\n      pop\n      jump\t// out\n        /* \"#utility.yul\":27668:27821   */\n    tag_262:\n        /* \"#utility.yul\":27721:27727   */\n      0x00\n        /* \"#utility.yul\":27755:27760   */\n      dup2\n        /* \"#utility.yul\":27749:27761   */\n      sload\n        /* \"#utility.yul\":27739:27761   */\n      swap1\n      pop\n        /* \"#utility.yul\":27781:27814   */\n      tag_521\n        /* \"#utility.yul\":27807:27813   */\n      dup2\n        /* \"#utility.yul\":27781:27814   */\n      tag_80\n      jump\t// in\n    tag_521:\n        /* \"#utility.yul\":27771:27814   */\n      swap1\n      pop\n        /* \"#utility.yul\":27668:27821   */\n      swap2\n      swap1\n      pop\n      jump\t// out\n        /* \"#utility.yul\":27827:27972   */\n    tag_263:\n        /* \"#utility.yul\":27880:27884   */\n      0x00\n        /* \"#utility.yul\":27903:27906   */\n      dup2\n        /* \"#utility.yul\":27895:27906   */\n      swap1\n      pop\n        /* \"#utility.yul\":27926:27929   */\n      dup2\n        /* \"#utility.yul\":27923:27924   */\n      0x00\n        /* \"#utility.yul\":27916:27930   */\n      mstore\n        /* \"#utility.yul\":27960:27964   */\n      0x20\n        /* \"#utility.yul\":27957:27958   */\n      0x00\n        /* \"#utility.yul\":27947:27965   */\n      keccak256\n        /* \"#utility.yul\":27939:27965   */\n      swap1\n      pop\n        /* \"#utility.yul\":27827:27972   */\n      swap2\n      swap1\n      pop\n      jump\t// out\n        /* \"#utility.yul\":27978:29441   */\n    tag_164:\n        /* \"#utility.yul\":28093:28096   */\n      dup2\n        /* \"#utility.yul\":28087:28091   */\n      dup2\n        /* \"#utility.yul\":28084:28097   */\n      sub\n        /* \"#utility.yul\":28081:28107   */\n      tag_524\n      jumpi\n        /* \"#utility.yul\":28100:28105   */\n      pop\n      pop\n      jump(tag_523)\n        /* \"#utility.yul\":28081:28107   */\n    tag_524:\n        /* \"#utility.yul\":28131:28169   */\n      tag_525\n        /* \"#utility.yul\":28165:28168   */\n      dup3\n        /* \"#utility.yul\":28131:28169   */\n      tag_262\n      jump\t// in\n    tag_525:\n        /* \"#utility.yul\":28234:28252   */\n      0xffffffffffffffff\n        /* \"#utility.yul\":28226:28232   */\n      dup2\n        /* \"#utility.yul\":28223:28253   */\n      gt\n        /* \"#utility.yul\":28220:28276   */\n      iszero\n      tag_526\n      jumpi\n        /* \"#utility.yul\":28256:28274   */\n      tag_527\n      tag_55\n      jump\t// in\n    tag_527:\n        /* \"#utility.yul\":28220:28276   */\n    tag_526:\n        /* \"#utility.yul\":28300:28338   */\n      tag_528\n        /* \"#utility.yul\":28332:28336   */\n      dup3\n        /* \"#utility.yul\":28326:28337   */\n      sload\n        /* \"#utility.yul\":28300:28338   */\n      tag_80\n      jump\t// in\n    tag_528:\n        /* \"#utility.yul\":28385:28452   */\n      tag_529\n        /* \"#utility.yul\":28445:28451   */\n      dup3\n        /* \"#utility.yul\":28437:28443   */\n      dup3\n        /* \"#utility.yul\":28431:28435   */\n      dup6\n        /* \"#utility.yul\":28385:28452   */\n      tag_245\n      jump\t// in\n    tag_529:\n        /* \"#utility.yul\":28479:28480   */\n      0x00\n        /* \"#utility.yul\":28508:28510   */\n      0x1f\n        /* \"#utility.yul\":28500:28506   */\n      dup4\n        /* \"#utility.yul\":28497:28511   */\n      gt\n        /* \"#utility.yul\":28525:28526   */\n      0x01\n        /* \"#utility.yul\":28520:29196   */\n      dup2\n      eq\n      tag_531\n      jumpi\n        /* \"#utility.yul\":29240:29241   */\n      0x00\n        /* \"#utility.yul\":29257:29263   */\n      dup5\n        /* \"#utility.yul\":29254:29331   */\n      iszero\n      tag_532\n      jumpi\n        /* \"#utility.yul\":29306:29315   */\n      dup3\n        /* \"#utility.yul\":29301:29304   */\n      dup8\n        /* \"#utility.yul\":29297:29316   */\n      add\n        /* \"#utility.yul\":29291:29317   */\n      sload\n        /* \"#utility.yul\":29282:29317   */\n      swap1\n      pop\n        /* \"#utility.yul\":29254:29331   */\n    tag_532:\n        /* \"#utility.yul\":29357:29424   */\n      tag_533\n        /* \"#utility.yul\":29417:29423   */\n      dup6\n        /* \"#utility.yul\":29410:29415   */\n      dup3\n        /* \"#utility.yul\":29357:29424   */\n      tag_248\n      jump\t// in\n    tag_533:\n        /* \"#utility.yul\":29351:29355   */\n      dup7\n        /* \"#utility.yul\":29344:29425   */\n      sstore\n        /* \"#utility.yul\":29213:29435   */\n      pop\n        /* \"#utility.yul\":28490:29435   */\n      jump(tag_530)\n        /* \"#utility.yul\":28520:29196   */\n    tag_531:\n        /* \"#utility.yul\":28572:28576   */\n      0x1f\n        /* \"#utility.yul\":28568:28577   */\n      not\n        /* \"#utility.yul\":28560:28566   */\n      dup5\n        /* \"#utility.yul\":28556:28578   */\n      and\n        /* \"#utility.yul\":28598:28638   */\n      tag_534\n        /* \"#utility.yul\":28634:28637   */\n      dup8\n        /* \"#utility.yul\":28598:28638   */\n      tag_263\n      jump\t// in\n    tag_534:\n        /* \"#utility.yul\":28591:28638   */\n      swap7\n      pop\n        /* \"#utility.yul\":28665:28702   */\n      tag_535\n        /* \"#utility.yul\":28697:28701   */\n      dup7\n        /* \"#utility.yul\":28665:28702   */\n      tag_234\n      jump\t// in\n    tag_535:\n        /* \"#utility.yul\":28724:28725   */\n      0x00\n        /* \"#utility.yul\":28738:28945   */\n    tag_536:\n        /* \"#utility.yul\":28752:28759   */\n      dup3\n        /* \"#utility.yul\":28749:28750   */\n      dup2\n        /* \"#utility.yul\":28746:28760   */\n      lt\n        /* \"#utility.yul\":28738:28945   */\n      iszero\n      tag_538\n      jumpi\n        /* \"#utility.yul\":28831:28840   */\n      dup5\n        /* \"#utility.yul\":28826:28829   */\n      dup10\n        /* \"#utility.yul\":28822:28841   */\n      add\n        /* \"#utility.yul\":28816:28842   */\n      sload\n        /* \"#utility.yul\":28808:28814   */\n      dup3\n        /* \"#utility.yul\":28801:28843   */\n      sstore\n        /* \"#utility.yul\":28882:28883   */\n      0x01\n        /* \"#utility.yul\":28874:28880   */\n      dup3\n        /* \"#utility.yul\":28870:28884   */\n      add\n        /* \"#utility.yul\":28860:28884   */\n      swap2\n      pop\n        /* \"#utility.yul\":28929:28930   */\n      0x01\n        /* \"#utility.yul\":28918:28927   */\n      dup6\n        /* \"#utility.yul\":28914:28931   */\n      add\n        /* \"#utility.yul\":28901:28931   */\n      swap5\n      pop\n        /* \"#utility.yul\":28775:28779   */\n      0x20\n        /* \"#utility.yul\":28772:28773   */\n      dup2\n        /* \"#utility.yul\":28768:28780   */\n      add\n        /* \"#utility.yul\":28763:28780   */\n      swap1\n      pop\n        /* \"#utility.yul\":28738:28945   */\n      jump(tag_536)\n    tag_538:\n        /* \"#utility.yul\":28973:28979   */\n      dup7\n        /* \"#utility.yul\":28964:28971   */\n      dup4\n        /* \"#utility.yul\":28961:28980   */\n      lt\n        /* \"#utility.yul\":28958:29137   */\n      iszero\n      tag_539\n      jumpi\n        /* \"#utility.yul\":29031:29040   */\n      dup5\n        /* \"#utility.yul\":29026:29029   */\n      dup10\n        /* \"#utility.yul\":29022:29041   */\n      add\n        /* \"#utility.yul\":29016:29042   */\n      sload\n        /* \"#utility.yul\":29074:29122   */\n      tag_540\n        /* \"#utility.yul\":29116:29120   */\n      0x1f\n        /* \"#utility.yul\":29108:29114   */\n      dup10\n        /* \"#utility.yul\":29104:29121   */\n      and\n        /* \"#utility.yul\":29093:29102   */\n      dup3\n        /* \"#utility.yul\":29074:29122   */\n      tag_247\n      jump\t// in\n    tag_540:\n        /* \"#utility.yul\":29066:29072   */\n      dup4\n        /* \"#utility.yul\":29059:29123   */\n      sstore\n        /* \"#utility.yul\":28981:29137   */\n      pop\n        /* \"#utility.yul\":28958:29137   */\n    tag_539:\n        /* \"#utility.yul\":29183:29184   */\n      0x01\n        /* \"#utility.yul\":29179:29180   */\n      0x02\n        /* \"#utility.yul\":29171:29177   */\n      dup9\n        /* \"#utility.yul\":29167:29181   */\n      mul\n        /* \"#utility.yul\":29163:29185   */\n      add\n        /* \"#utility.yul\":29157:29161   */\n      dup9\n        /* \"#utility.yul\":29150:29186   */\n      sstore\n        /* \"#utility.yul\":28527:29196   */\n      pop\n      pop\n      pop\n        /* \"#utility.yul\":28490:29435   */\n    tag_530:\n      pop\n        /* \"#utility.yul\":28071:29441   */\n      pop\n      pop\n      pop\n        /* \"#utility.yul\":27978:29441   */\n      pop\n      pop\n    tag_523:\n      jump\t// out\n        /* \"#utility.yul\":29447:29627   */\n    tag_167:\n        /* \"#utility.yul\":29495:29572   */\n      0x4e487b7100000000000000000000000000000000000000000000000000000000\n        /* \"#utility.yul\":29492:29493   */\n      0x00\n        /* \"#utility.yul\":29485:29573   */\n      mstore\n        /* \"#utility.yul\":29592:29596   */\n      0x31\n        /* \"#utility.yul\":29589:29590   */\n      0x04\n        /* \"#utility.yul\":29582:29597   */\n      mstore\n        /* \"#utility.yul\":29616:29620   */\n      0x24\n        /* \"#utility.yul\":29613:29614   */\n      0x00\n        /* \"#utility.yul\":29606:29621   */\n      revert\n\n    auxdata: 0xa264697066735822122048dcbe59f5fc1e632a32d0d7799f5648bc356936fc7eaa3093c19fb6e0ced6ff64736f6c63430008180033\n}\n",
				"bytecode": {
					"linkReferences": {},
					"object": "608060405234801561001057600080fd5b50611d64806100206000396000f3fe608060405234801561001057600080fd5b50600436106100625760003560e01c80636b93491714610067578063702d06d114610083578063a23c1cf5146100a5578063d9ac8ad2146100c3578063deba5eb8146100df578063e39ae54b146100fb575b600080fd5b610081600480360381019061007c9190610f9c565b61012e565b005b61008b6102c4565b60405161009c95949392919061124c565b60405180910390f35b6100ad610708565b6040516100ba91906112c2565b60405180910390f35b6100dd60048036038101906100d89190610f9c565b6107e1565b005b6100f960048036038101906100f491906112e4565b610a21565b005b610115600480360381019061011091906112e4565b610c3d565b6040516101259493929190611386565b60405180910390f35b6000825111610172576040517f08c379a000000000000000000000000000000000000000000000000000000000815260040161016990611425565b60405180910390fd5b60008151116101b6576040517f08c379a00000000000000000000000000000000000000000000000000000000081526004016101ad90611491565b60405180910390fd5b600080846040516101c791906114ed565b90815260200160405180910390209050600081600201541161021e576040517f08c379a000000000000000000000000000000000000000000000000000000000815260040161021590611550565b60405180910390fd5b8281600001908161022f919061177c565b5081816001019081610241919061177c565b506001816002016000828254610257919061187d565b925050819055504281600301819055508360405161027591906114ed565b60405180910390207f32a3abc732792051b4ae39d05ce6c62827f45926bb50971e75840888d7411d3584848460020154426040516102b69493929190611386565b60405180910390a250505050565b6060806060806060600060018054905090508067ffffffffffffffff8111156102f0576102ef610e71565b5b60405190808252806020026020018201604052801561032357816020015b606081526020019060019003908161030e5790505b5095508067ffffffffffffffff8111156103405761033f610e71565b5b60405190808252806020026020018201604052801561037357816020015b606081526020019060019003908161035e5790505b5094508067ffffffffffffffff8111156103905761038f610e71565b5b6040519080825280602002602001820160405280156103c357816020015b60608152602001906001900390816103ae5790505b5093508067ffffffffffffffff8111156103e0576103df610e71565b5b60405190808252806020026020018201604052801561040e5781602001602082028036833780820191505090505b5092508067ffffffffffffffff81111561042b5761042a610e71565b5b6040519080825280602002602001820160405280156104595781602001602082028036833780820191505090505b50915060005b818110156106ff5760006001828154811061047d5761047c6118b1565b5b9060005260206000200180546104929061159f565b80601f01602080910402602001604051908101604052809291908181526020018280546104be9061159f565b801561050b5780601f106104e05761010080835404028352916020019161050b565b820191906000526020600020905b8154815290600101906020018083116104ee57829003601f168201915b505050505090506000808260405161052391906114ed565b9081526020016040518091039020905081898481518110610547576105466118b1565b5b60200260200101819052508060000180546105619061159f565b80601f016020809104026020016040519081016040528092919081815260200182805461058d9061159f565b80156105da5780601f106105af576101008083540402835291602001916105da565b820191906000526020600020905b8154815290600101906020018083116105bd57829003601f168201915b50505050508884815181106105f2576105f16118b1565b5b602002602001018190525080600101805461060c9061159f565b80601f01602080910402602001604051908101604052809291908181526020018280546106389061159f565b80156106855780601f1061065a57610100808354040283529160200191610685565b820191906000526020600020905b81548152906001019060200180831161066857829003601f168201915b505050505087848151811061069d5761069c6118b1565b5b602002602001018190525080600201548684815181106106c0576106bf6118b1565b5b60200260200101818152505080600301548584815181106106e4576106e36118b1565b5b6020026020010181815250505050808060010191505061045f565b50509091929394565b60606001805480602002602001604051908101604052809291908181526020016000905b828210156107d857838290600052602060002001805461074b9061159f565b80601f01602080910402602001604051908101604052809291908181526020018280546107779061159f565b80156107c45780601f10610799576101008083540402835291602001916107c4565b820191906000526020600020905b8154815290600101906020018083116107a757829003601f168201915b50505050508152602001906001019061072c565b50505050905090565b6000835111610825576040517f08c379a000000000000000000000000000000000000000000000000000000000815260040161081c9061192c565b60405180910390fd5b6000825111610869576040517f08c379a000000000000000000000000000000000000000000000000000000000815260040161086090611998565b60405180910390fd5b60008151116108ad576040517f08c379a00000000000000000000000000000000000000000000000000000000081526004016108a490611a04565b60405180910390fd5b600080846040516108be91906114ed565b90815260200160405180910390206002015414610910576040517f08c379a000000000000000000000000000000000000000000000000000000000815260040161090790611a70565b60405180910390fd5b6040518060800160405280838152602001828152602001600181526020014281525060008460405161094291906114ed565b90815260200160405180910390206000820151816000019081610965919061177c565b50602082015181600101908161097b919061177c565b5060408201518160020155606082015181600301559050506001839080600181540180825580915050600190039060005260206000200160009091909190915090816109c7919061177c565b50826040516109d691906114ed565b60405180910390207f3fa539bee9fa84e37f78eda39fa4bcdbd2ed9727b4857312813a8a9c64b81ed48383600142604051610a149493929190611acb565b60405180910390a2505050565b60008082604051610a3291906114ed565b908152602001604051809103902090506000816002015411610a89576040517f08c379a0000000000000000000000000000000000000000000000000000000008152600401610a8090611550565b60405180910390fd5b600082604051610a9991906114ed565b908152602001604051809103902060008082016000610ab89190610de5565b600182016000610ac89190610de5565b6002820160009055600382016000905550506000600180549050905060005b81811015610bf55783604051602001610b0091906114ed565b6040516020818303038152906040528051906020012060018281548110610b2a57610b296118b1565b5b90600052602060002001604051602001610b449190611ba1565b6040516020818303038152906040528051906020012003610be85760018083610b6d9190611bb8565b81548110610b7e57610b7d6118b1565b5b9060005260206000200160018281548110610b9c57610b9b6118b1565b5b906000526020600020019081610bb29190611c17565b506001805480610bc557610bc4611cff565b5b600190038181906000526020600020016000610be19190610de5565b9055610bf5565b8080600101915050610ae7565b5082604051610c0491906114ed565b60405180910390207f89d0532994016674064c39c0f9ab6740e13cf7aa0c4491dcdbd9fd3f9f5a9e9f60405160405180910390a2505050565b60608060008060008086604051610c5491906114ed565b908152602001604051809103902090506000816002015411610cab576040517f08c379a0000000000000000000000000000000000000000000000000000000008152600401610ca290611550565b60405180910390fd5b806000018160010182600201548360030154838054610cc99061159f565b80601f0160208091040260200160405190810160405280929190818152602001828054610cf59061159f565b8015610d425780601f10610d1757610100808354040283529160200191610d42565b820191906000526020600020905b815481529060010190602001808311610d2557829003601f168201915b50505050509350828054610d559061159f565b80601f0160208091040260200160405190810160405280929190818152602001828054610d819061159f565b8015610dce5780601f10610da357610100808354040283529160200191610dce565b820191906000526020600020905b815481529060010190602001808311610db157829003601f168201915b505050505092509450945094509450509193509193565b508054610df19061159f565b6000825580601f10610e035750610e22565b601f016020900490600052602060002090810190610e219190610e25565b5b50565b5b80821115610e3e576000816000905550600101610e26565b5090565b6000604051905090565b600080fd5b600080fd5b600080fd5b600080fd5b6000601f19601f8301169050919050565b7f4e487b7100000000000000000000000000000000000000000000000000000000600052604160045260246000fd5b610ea982610e60565b810181811067ffffffffffffffff82111715610ec857610ec7610e71565b5b80604052505050565b6000610edb610e42565b9050610ee78282610ea0565b919050565b600067ffffffffffffffff821115610f0757610f06610e71565b5b610f1082610e60565b9050602081019050919050565b82818337600083830152505050565b6000610f3f610f3a84610eec565b610ed1565b905082815260208101848484011115610f5b57610f5a610e5b565b5b610f66848285610f1d565b509392505050565b600082601f830112610f8357610f82610e56565b5b8135610f93848260208601610f2c565b91505092915050565b600080600060608486031215610fb557610fb4610e4c565b5b600084013567ffffffffffffffff811115610fd357610fd2610e51565b5b610fdf86828701610f6e565b935050602084013567ffffffffffffffff81111561100057610fff610e51565b5b61100c86828701610f6e565b925050604084013567ffffffffffffffff81111561102d5761102c610e51565b5b61103986828701610f6e565b9150509250925092565b600081519050919050565b600082825260208201905092915050565b6000819050602082019050919050565b600081519050919050565b600082825260208201905092915050565b60005b838110156110a957808201518184015260208101905061108e565b60008484015250505050565b60006110c08261106f565b6110ca818561107a565b93506110da81856020860161108b565b6110e381610e60565b840191505092915050565b60006110fa83836110b5565b905092915050565b6000602082019050919050565b600061111a82611043565b611124818561104e565b9350836020820285016111368561105f565b8060005b85811015611172578484038952815161115385826110ee565b945061115e83611102565b925060208a0199505060018101905061113a565b50829750879550505050505092915050565b600081519050919050565b600082825260208201905092915050565b6000819050602082019050919050565b6000819050919050565b6111c3816111b0565b82525050565b60006111d583836111ba565b60208301905092915050565b6000602082019050919050565b60006111f982611184565b611203818561118f565b935061120e836111a0565b8060005b8381101561123f57815161122688826111c9565b9750611231836111e1565b925050600181019050611212565b5085935050505092915050565b600060a0820190508181036000830152611266818861110f565b9050818103602083015261127a818761110f565b9050818103604083015261128e818661110f565b905081810360608301526112a281856111ee565b905081810360808301526112b681846111ee565b90509695505050505050565b600060208201905081810360008301526112dc818461110f565b905092915050565b6000602082840312156112fa576112f9610e4c565b5b600082013567ffffffffffffffff81111561131857611317610e51565b5b61132484828501610f6e565b91505092915050565b600082825260208201905092915050565b60006113498261106f565b611353818561132d565b935061136381856020860161108b565b61136c81610e60565b840191505092915050565b611380816111b0565b82525050565b600060808201905081810360008301526113a0818761133e565b905081810360208301526113b4818661133e565b90506113c36040830185611377565b6113d06060830184611377565b95945050505050565b7f4e657720436f6e6e6563742055524c2072657175697265640000000000000000600082015250565b600061140f60188361132d565b915061141a826113d9565b602082019050919050565b6000602082019050818103600083015261143e81611402565b9050919050565b7f4e6577205075626c6963206b6579207265717569726564000000000000000000600082015250565b600061147b60178361132d565b915061148682611445565b602082019050919050565b600060208201905081810360008301526114aa8161146e565b9050919050565b600081905092915050565b60006114c78261106f565b6114d181856114b1565b93506114e181856020860161108b565b80840191505092915050565b60006114f982846114bc565b915081905092915050565b7f456e636c617665206e6f7420666f756e64000000000000000000000000000000600082015250565b600061153a60118361132d565b915061154582611504565b602082019050919050565b600060208201905081810360008301526115698161152d565b9050919050565b7f4e487b7100000000000000000000000000000000000000000000000000000000600052602260045260246000fd5b600060028204905060018216806115b757607f821691505b6020821081036115ca576115c9611570565b5b50919050565b60008190508160005260206000209050919050565b60006020601f8301049050919050565b600082821b905092915050565b6000600883026116327fffffffffffffffffffffffffffffffffffffffffffffffffffffffffffffffff826115f5565b61163c86836115f5565b95508019841693508086168417925050509392505050565b6000819050919050565b600061167961167461166f846111b0565b611654565b6111b0565b9050919050565b6000819050919050565b6116938361165e565b6116a761169f82611680565b848454611602565b825550505050565b600090565b6116bc6116af565b6116c781848461168a565b505050565b5b818110156116eb576116e06000826116b4565b6001810190506116cd565b5050565b601f82111561173057611701816115d0565b61170a846115e5565b81016020851015611719578190505b61172d611725856115e5565b8301826116cc565b50505b505050565b600082821c905092915050565b600061175360001984600802611735565b1980831691505092915050565b600061176c8383611742565b9150826002028217905092915050565b6117858261106f565b67ffffffffffffffff81111561179e5761179d610e71565b5b6117a8825461159f565b6117b38282856116ef565b600060209050601f8311600181146117e657600084156117d4578287015190505b6117de8582611760565b865550611846565b601f1984166117f4866115d0565b60005b8281101561181c578489015182556001820191506020850194506020810190506117f7565b868310156118395784890151611835601f891682611742565b8355505b6001600288020188555050505b505050505050565b7f4e487b7100000000000000000000000000000000000000000000000000000000600052601160045260246000fd5b6000611888826111b0565b9150611893836111b0565b92508282019050808211156118ab576118aa61184e565b5b92915050565b7f4e487b7100000000000000000000000000000000000000000000000000000000600052603260045260246000fd5b7f456e636c61766520494420726571756972656400000000000000000000000000600082015250565b600061191660138361132d565b9150611921826118e0565b602082019050919050565b6000602082019050818103600083015261194581611909565b9050919050565b7f436f6e6e6563742055524c207265717569726564000000000000000000000000600082015250565b600061198260148361132d565b915061198d8261194c565b602082019050919050565b600060208201905081810360008301526119b181611975565b9050919050565b7f5075626c6963206b657920726571756972656400000000000000000000000000600082015250565b60006119ee60138361132d565b91506119f9826119b8565b602082019050919050565b60006020820190508181036000830152611a1d816119e1565b9050919050565b7f456e636c61766520616c72656164792065786973747300000000000000000000600082015250565b6000611a5a60168361132d565b9150611a6582611a24565b602082019050919050565b60006020820190508181036000830152611a8981611a4d565b9050919050565b6000819050919050565b6000611ab5611ab0611aab84611a90565b611654565b6111b0565b9050919050565b611ac581611a9a565b82525050565b60006080820190508181036000830152611ae5818761133e565b90508181036020830152611af9818661133e565b9050611b086040830185611abc565b611b156060830184611377565b95945050505050565b60008154611b2b8161159f565b611b3581866114b1565b94506001821660008114611b505760018114611b6557611b98565b60ff1983168652811515820286019350611b98565b611b6e856115d0565b60005b83811015611b9057815481890152600182019150602081019050611b71565b838801955050505b50505092915050565b6000611bad8284611b1e565b915081905092915050565b6000611bc3826111b0565b9150611bce836111b0565b9250828203905081811115611be657611be561184e565b5b92915050565b600081549050611bfb8161159f565b9050919050565b60008190508160005260206000209050919050565b818103611c25575050611cfd565b611c2e82611bec565b67ffffffffffffffff811115611c4757611c46610e71565b5b611c51825461159f565b611c5c8282856116ef565b6000601f831160018114611c8b5760008415611c79578287015490505b611c838582611760565b865550611cf6565b601f198416611c9987611c02565b9650611ca4866115d0565b60005b82811015611ccc57848901548255600182019150600185019450602081019050611ca7565b86831015611ce95784890154611ce5601f891682611742565b8355505b6001600288020188555050505b5050505050505b565b7f4e487b7100000000000000000000000000000000000000000000000000000000600052603160045260246000fdfea264697066735822122048dcbe59f5fc1e632a32d0d7799f5648bc356936fc7eaa3093c19fb6e0ced6ff64736f6c63430008180033",
					"opcodes": "PUSH1 0x80 PUSH1 0x40 MSTORE CALLVALUE DUP1 ISZERO PUSH2 0x10 JUMPI PUSH1 0x0 DUP1 REVERT JUMPDEST POP PUSH2 0x1D64 DUP1 PUSH2 0x20 PUSH1 0x0 CODECOPY PUSH1 0x0 RETURN INVALID PUSH1 0x80 PUSH1 0x40 MSTORE CALLVALUE DUP1 ISZERO PUSH2 0x10 JUMPI PUSH1 0x0 DUP1 REVERT JUMPDEST POP PUSH1 0x4 CALLDATASIZE LT PUSH2 0x62 JUMPI PUSH1 0x0 CALLDATALOAD PUSH1 0xE0 SHR DUP1 PUSH4 0x6B934917 EQ PUSH2 0x67 JUMPI DUP1 PUSH4 0x702D06D1 EQ PUSH2 0x83 JUMPI DUP1 PUSH4 0xA23C1CF5 EQ PUSH2 0xA5 JUMPI DUP1 PUSH4 0xD9AC8AD2 EQ PUSH2 0xC3 JUMPI DUP1 PUSH4 0xDEBA5EB8 EQ PUSH2 0xDF JUMPI DUP1 PUSH4 0xE39AE54B EQ PUSH2 0xFB JUMPI JUMPDEST PUSH1 0x0 DUP1 REVERT JUMPDEST PUSH2 0x81 PUSH1 0x4 DUP1 CALLDATASIZE SUB DUP2 ADD SWAP1 PUSH2 0x7C SWAP2 SWAP1 PUSH2 0xF9C JUMP JUMPDEST PUSH2 0x12E JUMP JUMPDEST STOP JUMPDEST PUSH2 0x8B PUSH2 0x2C4 JUMP JUMPDEST PUSH1 0x40 MLOAD PUSH2 0x9C SWAP6 SWAP5 SWAP4 SWAP3 SWAP2 SWAP1 PUSH2 0x124C JUMP JUMPDEST PUSH1 0x40 MLOAD DUP1 SWAP2 SUB SWAP1 RETURN JUMPDEST PUSH2 0xAD PUSH2 0x708 JUMP JUMPDEST PUSH1 0x40 MLOAD PUSH2 0xBA SWAP2 SWAP1 PUSH2 0x12C2 JUMP JUMPDEST PUSH1 0x40 MLOAD DUP1 SWAP2 SUB SWAP1 RETURN JUMPDEST PUSH2 0xDD PUSH1 0x4 DUP1 CALLDATASIZE SUB DUP2 ADD SWAP1 PUSH2 0xD8 SWAP2 SWAP1 PUSH2 0xF9C JUMP JUMPDEST PUSH2 0x7E1 JUMP JUMPDEST STOP JUMPDEST PUSH2 0xF9 PUSH1 0x4 DUP1 CALLDATASIZE SUB DUP2 ADD SWAP1 PUSH2 0xF4 SWAP2 SWAP1 PUSH2 0x12E4 JUMP JUMPDEST PUSH2 0xA21 JUMP JUMPDEST STOP JUMPDEST PUSH2 0x115 PUSH1 0x4 DUP1 CALLDATASIZE SUB DUP2 ADD SWAP1 PUSH2 0x110 SWAP2 SWAP1 PUSH2 0x12E4 JUMP JUMPDEST PUSH2 0xC3D JUMP JUMPDEST PUSH1 0x40 MLOAD PUSH2 0x125 SWAP5 SWAP4 SWAP3 SWAP2 SWAP1 PUSH2 0x1386 JUMP JUMPDEST PUSH1 0x40 MLOAD DUP1 SWAP2 SUB SWAP1 RETURN JUMPDEST PUSH1 0x0 DUP3 MLOAD GT PUSH2 0x172 JUMPI PUSH1 0x40 MLOAD PUSH32 0x8C379A000000000000000000000000000000000000000000000000000000000 DUP2 MSTORE PUSH1 0x4 ADD PUSH2 0x169 SWAP1 PUSH2 0x1425 JUMP JUMPDEST PUSH1 0x40 MLOAD DUP1 SWAP2 SUB SWAP1 REVERT JUMPDEST PUSH1 0x0 DUP2 MLOAD GT PUSH2 0x1B6 JUMPI PUSH1 0x40 MLOAD PUSH32 0x8C379A000000000000000000000000000000000000000000000000000000000 DUP2 MSTORE PUSH1 0x4 ADD PUSH2 0x1AD SWAP1 PUSH2 0x1491 JUMP JUMPDEST PUSH1 0x40 MLOAD DUP1 SWAP2 SUB SWAP1 REVERT JUMPDEST PUSH1 0x0 DUP1 DUP5 PUSH1 0x40 MLOAD PUSH2 0x1C7 SWAP2 SWAP1 PUSH2 0x14ED JUMP JUMPDEST SWAP1 DUP2 MSTORE PUSH1 0x20 ADD PUSH1 0x40 MLOAD DUP1 SWAP2 SUB SWAP1 KECCAK256 SWAP1 POP PUSH1 0x0 DUP2 PUSH1 0x2 ADD SLOAD GT PUSH2 0x21E JUMPI PUSH1 0x40 MLOAD PUSH32 0x8C379A000000000000000000000000000000000000000000000000000000000 DUP2 MSTORE PUSH1 0x4 ADD PUSH2 0x215 SWAP1 PUSH2 0x1550 JUMP JUMPDEST PUSH1 0x40 MLOAD DUP1 SWAP2 SUB SWAP1 REVERT JUMPDEST DUP3 DUP2 PUSH1 0x0 ADD SWAP1 DUP2 PUSH2 0x22F SWAP2 SWAP1 PUSH2 0x177C JUMP JUMPDEST POP DUP2 DUP2 PUSH1 0x1 ADD SWAP1 DUP2 PUSH2 0x241 SWAP2 SWAP1 PUSH2 0x177C JUMP JUMPDEST POP PUSH1 0x1 DUP2 PUSH1 0x2 ADD PUSH1 0x0 DUP3 DUP3 SLOAD PUSH2 0x257 SWAP2 SWAP1 PUSH2 0x187D JUMP JUMPDEST SWAP3 POP POP DUP2 SWAP1 SSTORE POP TIMESTAMP DUP2 PUSH1 0x3 ADD DUP2 SWAP1 SSTORE POP DUP4 PUSH1 0x40 MLOAD PUSH2 0x275 SWAP2 SWAP1 PUSH2 0x14ED JUMP JUMPDEST PUSH1 0x40 MLOAD DUP1 SWAP2 SUB SWAP1 KECCAK256 PUSH32 0x32A3ABC732792051B4AE39D05CE6C62827F45926BB50971E75840888D7411D35 DUP5 DUP5 DUP5 PUSH1 0x2 ADD SLOAD TIMESTAMP PUSH1 0x40 MLOAD PUSH2 0x2B6 SWAP5 SWAP4 SWAP3 SWAP2 SWAP1 PUSH2 0x1386 JUMP JUMPDEST PUSH1 0x40 MLOAD DUP1 SWAP2 SUB SWAP1 LOG2 POP POP POP POP JUMP JUMPDEST PUSH1 0x60 DUP1 PUSH1 0x60 DUP1 PUSH1 0x60 PUSH1 0x0 PUSH1 0x1 DUP1 SLOAD SWAP1 POP SWAP1 POP DUP1 PUSH8 0xFFFFFFFFFFFFFFFF DUP2 GT ISZERO PUSH2 0x2F0 JUMPI PUSH2 0x2EF PUSH2 0xE71 JUMP JUMPDEST JUMPDEST PUSH1 0x40 MLOAD SWAP1 DUP1 DUP3 MSTORE DUP1 PUSH1 0x20 MUL PUSH1 0x20 ADD DUP3 ADD PUSH1 0x40 MSTORE DUP1 ISZERO PUSH2 0x323 JUMPI DUP2 PUSH1 0x20 ADD JUMPDEST PUSH1 0x60 DUP2 MSTORE PUSH1 0x20 ADD SWAP1 PUSH1 0x1 SWAP1 SUB SWAP1 DUP2 PUSH2 0x30E JUMPI SWAP1 POP JUMPDEST POP SWAP6 POP DUP1 PUSH8 0xFFFFFFFFFFFFFFFF DUP2 GT ISZERO PUSH2 0x340 JUMPI PUSH2 0x33F PUSH2 0xE71 JUMP JUMPDEST JUMPDEST PUSH1 0x40 MLOAD SWAP1 DUP1 DUP3 MSTORE DUP1 PUSH1 0x20 MUL PUSH1 0x20 ADD DUP3 ADD PUSH1 0x40 MSTORE DUP1 ISZERO PUSH2 0x373 JUMPI DUP2 PUSH1 0x20 ADD JUMPDEST PUSH1 0x60 DUP2 MSTORE PUSH1 0x20 ADD SWAP1 PUSH1 0x1 SWAP1 SUB SWAP1 DUP2 PUSH2 0x35E JUMPI SWAP1 POP JUMPDEST POP SWAP5 POP DUP1 PUSH8 0xFFFFFFFFFFFFFFFF DUP2 GT ISZERO PUSH2 0x390 JUMPI PUSH2 0x38F PUSH2 0xE71 JUMP JUMPDEST JUMPDEST PUSH1 0x40 MLOAD SWAP1 DUP1 DUP3 MSTORE DUP1 PUSH1 0x20 MUL PUSH1 0x20 ADD DUP3 ADD PUSH1 0x40 MSTORE DUP1 ISZERO PUSH2 0x3C3 JUMPI DUP2 PUSH1 0x20 ADD JUMPDEST PUSH1 0x60 DUP2 MSTORE PUSH1 0x20 ADD SWAP1 PUSH1 0x1 SWAP1 SUB SWAP1 DUP2 PUSH2 0x3AE JUMPI SWAP1 POP JUMPDEST POP SWAP4 POP DUP1 PUSH8 0xFFFFFFFFFFFFFFFF DUP2 GT ISZERO PUSH2 0x3E0 JUMPI PUSH2 0x3DF PUSH2 0xE71 JUMP JUMPDEST JUMPDEST PUSH1 0x40 MLOAD SWAP1 DUP1 DUP3 MSTORE DUP1 PUSH1 0x20 MUL PUSH1 0x20 ADD DUP3 ADD PUSH1 0x40 MSTORE DUP1 ISZERO PUSH2 0x40E JUMPI DUP2 PUSH1 0x20 ADD PUSH1 0x20 DUP3 MUL DUP1 CALLDATASIZE DUP4 CALLDATACOPY DUP1 DUP3 ADD SWAP2 POP POP SWAP1 POP JUMPDEST POP SWAP3 POP DUP1 PUSH8 0xFFFFFFFFFFFFFFFF DUP2 GT ISZERO PUSH2 0x42B JUMPI PUSH2 0x42A PUSH2 0xE71 JUMP JUMPDEST JUMPDEST PUSH1 0x40 MLOAD SWAP1 DUP1 DUP3 MSTORE DUP1 PUSH1 0x20 MUL PUSH1 0x20 ADD DUP3 ADD PUSH1 0x40 MSTORE DUP1 ISZERO PUSH2 0x459 JUMPI DUP2 PUSH1 0x20 ADD PUSH1 0x20 DUP3 MUL DUP1 CALLDATASIZE DUP4 CALLDATACOPY DUP1 DUP3 ADD SWAP2 POP POP SWAP1 POP JUMPDEST POP SWAP2 POP PUSH1 0x0 JUMPDEST DUP2 DUP2 LT ISZERO PUSH2 0x6FF JUMPI PUSH1 0x0 PUSH1 0x1 DUP3 DUP2 SLOAD DUP2 LT PUSH2 0x47D JUMPI PUSH2 0x47C PUSH2 0x18B1 JUMP JUMPDEST JUMPDEST SWAP1 PUSH1 0x0 MSTORE PUSH1 0x20 PUSH1 0x0 KECCAK256 ADD DUP1 SLOAD PUSH2 0x492 SWAP1 PUSH2 0x159F JUMP JUMPDEST DUP1 PUSH1 0x1F ADD PUSH1 0x20 DUP1 SWAP2 DIV MUL PUSH1 0x20 ADD PUSH1 0x40 MLOAD SWAP1 DUP2 ADD PUSH1 0x40 MSTORE DUP1 SWAP3 SWAP2 SWAP1 DUP2 DUP2 MSTORE PUSH1 0x20 ADD DUP3 DUP1 SLOAD PUSH2 0x4BE SWAP1 PUSH2 0x159F JUMP JUMPDEST DUP1 ISZERO PUSH2 0x50B JUMPI DUP1 PUSH1 0x1F LT PUSH2 0x4E0 JUMPI PUSH2 0x100 DUP1 DUP4 SLOAD DIV MUL DUP4 MSTORE SWAP2 PUSH1 0x20 ADD SWAP2 PUSH2 0x50B JUMP JUMPDEST DUP3 ADD SWAP2 SWAP1 PUSH1 0x0 MSTORE PUSH1 0x20 PUSH1 0x0 KECCAK256 SWAP1 JUMPDEST DUP2 SLOAD DUP2 MSTORE SWAP1 PUSH1 0x1 ADD SWAP1 PUSH1 0x20 ADD DUP1 DUP4 GT PUSH2 0x4EE JUMPI DUP3 SWAP1 SUB PUSH1 0x1F AND DUP3 ADD SWAP2 JUMPDEST POP POP POP POP POP SWAP1 POP PUSH1 0x0 DUP1 DUP3 PUSH1 0x40 MLOAD PUSH2 0x523 SWAP2 SWAP1 PUSH2 0x14ED JUMP JUMPDEST SWAP1 DUP2 MSTORE PUSH1 0x20 ADD PUSH1 0x40 MLOAD DUP1 SWAP2 SUB SWAP1 KECCAK256 SWAP1 POP DUP2 DUP10 DUP5 DUP2 MLOAD DUP2 LT PUSH2 0x547 JUMPI PUSH2 0x546 PUSH2 0x18B1 JUMP JUMPDEST JUMPDEST PUSH1 0x20 MUL PUSH1 0x20 ADD ADD DUP2 SWAP1 MSTORE POP DUP1 PUSH1 0x0 ADD DUP1 SLOAD PUSH2 0x561 SWAP1 PUSH2 0x159F JUMP JUMPDEST DUP1 PUSH1 0x1F ADD PUSH1 0x20 DUP1 SWAP2 DIV MUL PUSH1 0x20 ADD PUSH1 0x40 MLOAD SWAP1 DUP2 ADD PUSH1 0x40 MSTORE DUP1 SWAP3 SWAP2 SWAP1 DUP2 DUP2 MSTORE PUSH1 0x20 ADD DUP3 DUP1 SLOAD PUSH2 0x58D SWAP1 PUSH2 0x159F JUMP JUMPDEST DUP1 ISZERO PUSH2 0x5DA JUMPI DUP1 PUSH1 0x1F LT PUSH2 0x5AF JUMPI PUSH2 0x100 DUP1 DUP4 SLOAD DIV MUL DUP4 MSTORE SWAP2 PUSH1 0x20 ADD SWAP2 PUSH2 0x5DA JUMP JUMPDEST DUP3 ADD SWAP2 SWAP1 PUSH1 0x0 MSTORE PUSH1 0x20 PUSH1 0x0 KECCAK256 SWAP1 JUMPDEST DUP2 SLOAD DUP2 MSTORE SWAP1 PUSH1 0x1 ADD SWAP1 PUSH1 0x20 ADD DUP1 DUP4 GT PUSH2 0x5BD JUMPI DUP3 SWAP1 SUB PUSH1 0x1F AND DUP3 ADD SWAP2 JUMPDEST POP POP POP POP POP DUP9 DUP5 DUP2 MLOAD DUP2 LT PUSH2 0x5F2 JUMPI PUSH2 0x5F1 PUSH2 0x18B1 JUMP JUMPDEST JUMPDEST PUSH1 0x20 MUL PUSH1 0x20 ADD ADD DUP2 SWAP1 MSTORE POP DUP1 PUSH1 0x1 ADD DUP1 SLOAD PUSH2 0x60C SWAP1 PUSH2 0x159F JUMP JUMPDEST DUP1 PUSH1 0x1F ADD PUSH1 0x20 DUP1 SWAP2 DIV MUL PUSH1 0x20 ADD PUSH1 0x40 MLOAD SWAP1 DUP2 ADD PUSH1 0x40 MSTORE DUP1 SWAP3 SWAP2 SWAP1 DUP2 DUP2 MSTORE PUSH1 0x20 ADD DUP3 DUP1 SLOAD PUSH2 0x638 SWAP1 PUSH2 0x159F JUMP JUMPDEST DUP1 ISZERO PUSH2 0x685 JUMPI DUP1 PUSH1 0x1F LT PUSH2 0x65A JUMPI PUSH2 0x100 DUP1 DUP4 SLOAD DIV MUL DUP4 MSTORE SWAP2 PUSH1 0x20 ADD SWAP2 PUSH2 0x685 JUMP JUMPDEST DUP3 ADD SWAP2 SWAP1 PUSH1 0x0 MSTORE PUSH1 0x20 PUSH1 0x0 KECCAK256 SWAP1 JUMPDEST DUP2 SLOAD DUP2 MSTORE SWAP1 PUSH1 0x1 ADD SWAP1 PUSH1 0x20 ADD DUP1 DUP4 GT PUSH2 0x668 JUMPI DUP3 SWAP1 SUB PUSH1 0x1F AND DUP3 ADD SWAP2 JUMPDEST POP POP POP POP POP DUP8 DUP5 DUP2 MLOAD DUP2 LT PUSH2 0x69D JUMPI PUSH2 0x69C PUSH2 0x18B1 JUMP JUMPDEST JUMPDEST PUSH1 0x20 MUL PUSH1 0x20 ADD ADD DUP2 SWAP1 MSTORE POP DUP1 PUSH1 0x2 ADD SLOAD DUP7 DUP5 DUP2 MLOAD DUP2 LT PUSH2 0x6C0 JUMPI PUSH2 0x6BF PUSH2 0x18B1 JUMP JUMPDEST JUMPDEST PUSH1 0x20 MUL PUSH1 0x20 ADD ADD DUP2 DUP2 MSTORE POP POP DUP1 PUSH1 0x3 ADD SLOAD DUP6 DUP5 DUP2 MLOAD DUP2 LT PUSH2 0x6E4 JUMPI PUSH2 0x6E3 PUSH2 0x18B1 JUMP JUMPDEST JUMPDEST PUSH1 0x20 MUL PUSH1 0x20 ADD ADD DUP2 DUP2 MSTORE POP POP POP POP DUP1 DUP1 PUSH1 0x1 ADD SWAP2 POP POP PUSH2 0x45F JUMP JUMPDEST POP POP SWAP1 SWAP2 SWAP3 SWAP4 SWAP5 JUMP JUMPDEST PUSH1 0x60 PUSH1 0x1 DUP1 SLOAD DUP1 PUSH1 0x20 MUL PUSH1 0x20 ADD PUSH1 0x40 MLOAD SWAP1 DUP2 ADD PUSH1 0x40 MSTORE DUP1 SWAP3 SWAP2 SWAP1 DUP2 DUP2 MSTORE PUSH1 0x20 ADD PUSH1 0x0 SWAP1 JUMPDEST DUP3 DUP3 LT ISZERO PUSH2 0x7D8 JUMPI DUP4 DUP3 SWAP1 PUSH1 0x0 MSTORE PUSH1 0x20 PUSH1 0x0 KECCAK256 ADD DUP1 SLOAD PUSH2 0x74B SWAP1 PUSH2 0x159F JUMP JUMPDEST DUP1 PUSH1 0x1F ADD PUSH1 0x20 DUP1 SWAP2 DIV MUL PUSH1 0x20 ADD PUSH1 0x40 MLOAD SWAP1 DUP2 ADD PUSH1 0x40 MSTORE DUP1 SWAP3 SWAP2 SWAP1 DUP2 DUP2 MSTORE PUSH1 0x20 ADD DUP3 DUP1 SLOAD PUSH2 0x777 SWAP1 PUSH2 0x159F JUMP JUMPDEST DUP1 ISZERO PUSH2 0x7C4 JUMPI DUP1 PUSH1 0x1F LT PUSH2 0x799 JUMPI PUSH2 0x100 DUP1 DUP4 SLOAD DIV MUL DUP4 MSTORE SWAP2 PUSH1 0x20 ADD SWAP2 PUSH2 0x7C4 JUMP JUMPDEST DUP3 ADD SWAP2 SWAP1 PUSH1 0x0 MSTORE PUSH1 0x20 PUSH1 0x0 KECCAK256 SWAP1 JUMPDEST DUP2 SLOAD DUP2 MSTORE SWAP1 PUSH1 0x1 ADD SWAP1 PUSH1 0x20 ADD DUP1 DUP4 GT PUSH2 0x7A7 JUMPI DUP3 SWAP1 SUB PUSH1 0x1F AND DUP3 ADD SWAP2 JUMPDEST POP POP POP POP POP DUP2 MSTORE PUSH1 0x20 ADD SWAP1 PUSH1 0x1 ADD SWAP1 PUSH2 0x72C JUMP JUMPDEST POP POP POP POP SWAP1 POP SWAP1 JUMP JUMPDEST PUSH1 0x0 DUP4 MLOAD GT PUSH2 0x825 JUMPI PUSH1 0x40 MLOAD PUSH32 0x8C379A000000000000000000000000000000000000000000000000000000000 DUP2 MSTORE PUSH1 0x4 ADD PUSH2 0x81C SWAP1 PUSH2 0x192C JUMP JUMPDEST PUSH1 0x40 MLOAD DUP1 SWAP2 SUB SWAP1 REVERT JUMPDEST PUSH1 0x0 DUP3 MLOAD GT PUSH2 0x869 JUMPI PUSH1 0x40 MLOAD PUSH32 0x8C379A000000000000000000000000000000000000000000000000000000000 DUP2 MSTORE PUSH1 0x4 ADD PUSH2 0x860 SWAP1 PUSH2 0x1998 JUMP JUMPDEST PUSH1 0x40 MLOAD DUP1 SWAP2 SUB SWAP1 REVERT JUMPDEST PUSH1 0x0 DUP2 MLOAD GT PUSH2 0x8AD JUMPI PUSH1 0x40 MLOAD PUSH32 0x8C379A000000000000000000000000000000000000000000000000000000000 DUP2 MSTORE PUSH1 0x4 ADD PUSH2 0x8A4 SWAP1 PUSH2 0x1A04 JUMP JUMPDEST PUSH1 0x40 MLOAD DUP1 SWAP2 SUB SWAP1 REVERT JUMPDEST PUSH1 0x0 DUP1 DUP5 PUSH1 0x40 MLOAD PUSH2 0x8BE SWAP2 SWAP1 PUSH2 0x14ED JUMP JUMPDEST SWAP1 DUP2 MSTORE PUSH1 0x20 ADD PUSH1 0x40 MLOAD DUP1 SWAP2 SUB SWAP1 KECCAK256 PUSH1 0x2 ADD SLOAD EQ PUSH2 0x910 JUMPI PUSH1 0x40 MLOAD PUSH32 0x8C379A000000000000000000000000000000000000000000000000000000000 DUP2 MSTORE PUSH1 0x4 ADD PUSH2 0x907 SWAP1 PUSH2 0x1A70 JUMP JUMPDEST PUSH1 0x40 MLOAD DUP1 SWAP2 SUB SWAP1 REVERT JUMPDEST PUSH1 0x40 MLOAD DUP1 PUSH1 0x80 ADD PUSH1 0x40 MSTORE DUP1 DUP4 DUP2 MSTORE PUSH1 0x20 ADD DUP3 DUP2 MSTORE PUSH1 0x20 ADD PUSH1 0x1 DUP2 MSTORE PUSH1 0x20 ADD TIMESTAMP DUP2 MSTORE POP PUSH1 0x0 DUP5 PUSH1 0x40 MLOAD PUSH2 0x942 SWAP2 SWAP1 PUSH2 0x14ED JUMP JUMPDEST SWAP1 DUP2 MSTORE PUSH1 0x20 ADD PUSH1 0x40 MLOAD DUP1 SWAP2 SUB SWAP1 KECCAK256 PUSH1 0x0 DUP3 ADD MLOAD DUP2 PUSH1 0x0 ADD SWAP1 DUP2 PUSH2 0x965 SWAP2 SWAP1 PUSH2 0x177C JUMP JUMPDEST POP PUSH1 0x20 DUP3 ADD MLOAD DUP2 PUSH1 0x1 ADD SWAP1 DUP2 PUSH2 0x97B SWAP2 SWAP1 PUSH2 0x177C JUMP JUMPDEST POP PUSH1 0x40 DUP3 ADD MLOAD DUP2 PUSH1 0x2 ADD SSTORE PUSH1 0x60 DUP3 ADD MLOAD DUP2 PUSH1 0x3 ADD SSTORE SWAP1 POP POP PUSH1 0x1 DUP4 SWAP1 DUP1 PUSH1 0x1 DUP2 SLOAD ADD DUP1 DUP3 SSTORE DUP1 SWAP2 POP POP PUSH1 0x1 SWAP1 SUB SWAP1 PUSH1 0x0 MSTORE PUSH1 0x20 PUSH1 0x0 KECCAK256 ADD PUSH1 0x0 SWAP1 SWAP2 SWAP1 SWAP2 SWAP1 SWAP2 POP SWAP1 DUP2 PUSH2 0x9C7 SWAP2 SWAP1 PUSH2 0x177C JUMP JUMPDEST POP DUP3 PUSH1 0x40 MLOAD PUSH2 0x9D6 SWAP2 SWAP1 PUSH2 0x14ED JUMP JUMPDEST PUSH1 0x40 MLOAD DUP1 SWAP2 SUB SWAP1 KECCAK256 PUSH32 0x3FA539BEE9FA84E37F78EDA39FA4BCDBD2ED9727B4857312813A8A9C64B81ED4 DUP4 DUP4 PUSH1 0x1 TIMESTAMP PUSH1 0x40 MLOAD PUSH2 0xA14 SWAP5 SWAP4 SWAP3 SWAP2 SWAP1 PUSH2 0x1ACB JUMP JUMPDEST PUSH1 0x40 MLOAD DUP1 SWAP2 SUB SWAP1 LOG2 POP POP POP JUMP JUMPDEST PUSH1 0x0 DUP1 DUP3 PUSH1 0x40 MLOAD PUSH2 0xA32 SWAP2 SWAP1 PUSH2 0x14ED JUMP JUMPDEST SWAP1 DUP2 MSTORE PUSH1 0x20 ADD PUSH1 0x40 MLOAD DUP1 SWAP2 SUB SWAP1 KECCAK256 SWAP1 POP PUSH1 0x0 DUP2 PUSH1 0x2 ADD SLOAD GT PUSH2 0xA89 JUMPI PUSH1 0x40 MLOAD PUSH32 0x8C379A000000000000000000000000000000000000000000000000000000000 DUP2 MSTORE PUSH1 0x4 ADD PUSH2 0xA80 SWAP1 PUSH2 0x1550 JUMP JUMPDEST PUSH1 0x40 MLOAD DUP1 SWAP2 SUB SWAP1 REVERT JUMPDEST PUSH1 0x0 DUP3 PUSH1 0x40 MLOAD PUSH2 0xA99 SWAP2 SWAP1 PUSH2 0x14ED JUMP JUMPDEST SWAP1 DUP2 MSTORE PUSH1 0x20 ADD PUSH1 0x40 MLOAD DUP1 SWAP2 SUB SWAP1 KECCAK256 PUSH1 0x0 DUP1 DUP3 ADD PUSH1 0x0 PUSH2 0xAB8 SWAP2 SWAP1 PUSH2 0xDE5 JUMP JUMPDEST PUSH1 0x1 DUP3 ADD PUSH1 0x0 PUSH2 0xAC8 SWAP2 SWAP1 PUSH2 0xDE5 JUMP JUMPDEST PUSH1 0x2 DUP3 ADD PUSH1 0x0 SWAP1 SSTORE PUSH1 0x3 DUP3 ADD PUSH1 0x0 SWAP1 SSTORE POP POP PUSH1 0x0 PUSH1 0x1 DUP1 SLOAD SWAP1 POP SWAP1 POP PUSH1 0x0 JUMPDEST DUP2 DUP2 LT ISZERO PUSH2 0xBF5 JUMPI DUP4 PUSH1 0x40 MLOAD PUSH1 0x20 ADD PUSH2 0xB00 SWAP2 SWAP1 PUSH2 0x14ED JUMP JUMPDEST PUSH1 0x40 MLOAD PUSH1 0x20 DUP2 DUP4 SUB SUB DUP2 MSTORE SWAP1 PUSH1 0x40 MSTORE DUP1 MLOAD SWAP1 PUSH1 0x20 ADD KECCAK256 PUSH1 0x1 DUP3 DUP2 SLOAD DUP2 LT PUSH2 0xB2A JUMPI PUSH2 0xB29 PUSH2 0x18B1 JUMP JUMPDEST JUMPDEST SWAP1 PUSH1 0x0 MSTORE PUSH1 0x20 PUSH1 0x0 KECCAK256 ADD PUSH1 0x40 MLOAD PUSH1 0x20 ADD PUSH2 0xB44 SWAP2 SWAP1 PUSH2 0x1BA1 JUMP JUMPDEST PUSH1 0x40 MLOAD PUSH1 0x20 DUP2 DUP4 SUB SUB DUP2 MSTORE SWAP1 PUSH1 0x40 MSTORE DUP1 MLOAD SWAP1 PUSH1 0x20 ADD KECCAK256 SUB PUSH2 0xBE8 JUMPI PUSH1 0x1 DUP1 DUP4 PUSH2 0xB6D SWAP2 SWAP1 PUSH2 0x1BB8 JUMP JUMPDEST DUP2 SLOAD DUP2 LT PUSH2 0xB7E JUMPI PUSH2 0xB7D PUSH2 0x18B1 JUMP JUMPDEST JUMPDEST SWAP1 PUSH1 0x0 MSTORE PUSH1 0x20 PUSH1 0x0 KECCAK256 ADD PUSH1 0x1 DUP3 DUP2 SLOAD DUP2 LT PUSH2 0xB9C JUMPI PUSH2 0xB9B PUSH2 0x18B1 JUMP JUMPDEST JUMPDEST SWAP1 PUSH1 0x0 MSTORE PUSH1 0x20 PUSH1 0x0 KECCAK256 ADD SWAP1 DUP2 PUSH2 0xBB2 SWAP2 SWAP1 PUSH2 0x1C17 JUMP JUMPDEST POP PUSH1 0x1 DUP1 SLOAD DUP1 PUSH2 0xBC5 JUMPI PUSH2 0xBC4 PUSH2 0x1CFF JUMP JUMPDEST JUMPDEST PUSH1 0x1 SWAP1 SUB DUP2 DUP2 SWAP1 PUSH1 0x0 MSTORE PUSH1 0x20 PUSH1 0x0 KECCAK256 ADD PUSH1 0x0 PUSH2 0xBE1 SWAP2 SWAP1 PUSH2 0xDE5 JUMP JUMPDEST SWAP1 SSTORE PUSH2 0xBF5 JUMP JUMPDEST DUP1 DUP1 PUSH1 0x1 ADD SWAP2 POP POP PUSH2 0xAE7 JUMP JUMPDEST POP DUP3 PUSH1 0x40 MLOAD PUSH2 0xC04 SWAP2 SWAP1 PUSH2 0x14ED JUMP JUMPDEST PUSH1 0x40 MLOAD DUP1 SWAP2 SUB SWAP1 KECCAK256 PUSH32 0x89D0532994016674064C39C0F9AB6740E13CF7AA0C4491DCDBD9FD3F9F5A9E9F PUSH1 0x40 MLOAD PUSH1 0x40 MLOAD DUP1 SWAP2 SUB SWAP1 LOG2 POP POP POP JUMP JUMPDEST PUSH1 0x60 DUP1 PUSH1 0x0 DUP1 PUSH1 0x0 DUP1 DUP7 PUSH1 0x40 MLOAD PUSH2 0xC54 SWAP2 SWAP1 PUSH2 0x14ED JUMP JUMPDEST SWAP1 DUP2 MSTORE PUSH1 0x20 ADD PUSH1 0x40 MLOAD DUP1 SWAP2 SUB SWAP1 KECCAK256 SWAP1 POP PUSH1 0x0 DUP2 PUSH1 0x2 ADD SLOAD GT PUSH2 0xCAB JUMPI PUSH1 0x40 MLOAD PUSH32 0x8C379A000000000000000000000000000000000000000000000000000000000 DUP2 MSTORE PUSH1 0x4 ADD PUSH2 0xCA2 SWAP1 PUSH2 0x1550 JUMP JUMPDEST PUSH1 0x40 MLOAD DUP1 SWAP2 SUB SWAP1 REVERT JUMPDEST DUP1 PUSH1 0x0 ADD DUP2 PUSH1 0x1 ADD DUP3 PUSH1 0x2 ADD SLOAD DUP4 PUSH1 0x3 ADD SLOAD DUP4 DUP1 SLOAD PUSH2 0xCC9 SWAP1 PUSH2 0x159F JUMP JUMPDEST DUP1 PUSH1 0x1F ADD PUSH1 0x20 DUP1 SWAP2 DIV MUL PUSH1 0x20 ADD PUSH1 0x40 MLOAD SWAP1 DUP2 ADD PUSH1 0x40 MSTORE DUP1 SWAP3 SWAP2 SWAP1 DUP2 DUP2 MSTORE PUSH1 0x20 ADD DUP3 DUP1 SLOAD PUSH2 0xCF5 SWAP1 PUSH2 0x159F JUMP JUMPDEST DUP1 ISZERO PUSH2 0xD42 JUMPI DUP1 PUSH1 0x1F LT PUSH2 0xD17 JUMPI PUSH2 0x100 DUP1 DUP4 SLOAD DIV MUL DUP4 MSTORE SWAP2 PUSH1 0x20 ADD SWAP2 PUSH2 0xD42 JUMP JUMPDEST DUP3 ADD SWAP2 SWAP1 PUSH1 0x0 MSTORE PUSH1 0x20 PUSH1 0x0 KECCAK256 SWAP1 JUMPDEST DUP2 SLOAD DUP2 MSTORE SWAP1 PUSH1 0x1 ADD SWAP1 PUSH1 0x20 ADD DUP1 DUP4 GT PUSH2 0xD25 JUMPI DUP3 SWAP1 SUB PUSH1 0x1F AND DUP3 ADD SWAP2 JUMPDEST POP POP POP POP POP SWAP4 POP DUP3 DUP1 SLOAD PUSH2 0xD55 SWAP1 PUSH2 0x159F JUMP JUMPDEST DUP1 PUSH1 0x1F ADD PUSH1 0x20 DUP1 SWAP2 DIV MUL PUSH1 0x20 ADD PUSH1 0x40 MLOAD SWAP1 DUP2 ADD PUSH1 0x40 MSTORE DUP1 SWAP3 SWAP2 SWAP1 DUP2 DUP2 MSTORE PUSH1 0x20 ADD DUP3 DUP1 SLOAD PUSH2 0xD81 SWAP1 PUSH2 0x159F JUMP JUMPDEST DUP1 ISZERO PUSH2 0xDCE JUMPI DUP1 PUSH1 0x1F LT PUSH2 0xDA3 JUMPI PUSH2 0x100 DUP1 DUP4 SLOAD DIV MUL DUP4 MSTORE SWAP2 PUSH1 0x20 ADD SWAP2 PUSH2 0xDCE JUMP JUMPDEST DUP3 ADD SWAP2 SWAP1 PUSH1 0x0 MSTORE PUSH1 0x20 PUSH1 0x0 KECCAK256 SWAP1 JUMPDEST DUP2 SLOAD DUP2 MSTORE SWAP1 PUSH1 0x1 ADD SWAP1 PUSH1 0x20 ADD DUP1 DUP4 GT PUSH2 0xDB1 JUMPI DUP3 SWAP1 SUB PUSH1 0x1F AND DUP3 ADD SWAP2 JUMPDEST POP POP POP POP POP SWAP3 POP SWAP5 POP SWAP5 POP SWAP5 POP SWAP5 POP POP SWAP2 SWAP4 POP SWAP2 SWAP4 JUMP JUMPDEST POP DUP1 SLOAD PUSH2 0xDF1 SWAP1 PUSH2 0x159F JUMP JUMPDEST PUSH1 0x0 DUP3 SSTORE DUP1 PUSH1 0x1F LT PUSH2 0xE03 JUMPI POP PUSH2 0xE22 JUMP JUMPDEST PUSH1 0x1F ADD PUSH1 0x20 SWAP1 DIV SWAP1 PUSH1 0x0 MSTORE PUSH1 0x20 PUSH1 0x0 KECCAK256 SWAP1 DUP2 ADD SWAP1 PUSH2 0xE21 SWAP2 SWAP1 PUSH2 0xE25 JUMP JUMPDEST JUMPDEST POP JUMP JUMPDEST JUMPDEST DUP1 DUP3 GT ISZERO PUSH2 0xE3E JUMPI PUSH1 0x0 DUP2 PUSH1 0x0 SWAP1 SSTORE POP PUSH1 0x1 ADD PUSH2 0xE26 JUMP JUMPDEST POP SWAP1 JUMP JUMPDEST PUSH1 0x0 PUSH1 0x40 MLOAD SWAP1 POP SWAP1 JUMP JUMPDEST PUSH1 0x0 DUP1 REVERT JUMPDEST PUSH1 0x0 DUP1 REVERT JUMPDEST PUSH1 0x0 DUP1 REVERT JUMPDEST PUSH1 0x0 DUP1 REVERT JUMPDEST PUSH1 0x0 PUSH1 0x1F NOT PUSH1 0x1F DUP4 ADD AND SWAP1 POP SWAP2 SWAP1 POP JUMP JUMPDEST PUSH32 0x4E487B7100000000000000000000000000000000000000000000000000000000 PUSH1 0x0 MSTORE PUSH1 0x41 PUSH1 0x4 MSTORE PUSH1 0x24 PUSH1 0x0 REVERT JUMPDEST PUSH2 0xEA9 DUP3 PUSH2 0xE60 JUMP JUMPDEST DUP2 ADD DUP2 DUP2 LT PUSH8 0xFFFFFFFFFFFFFFFF DUP3 GT OR ISZERO PUSH2 0xEC8 JUMPI PUSH2 0xEC7 PUSH2 0xE71 JUMP JUMPDEST JUMPDEST DUP1 PUSH1 0x40 MSTORE POP POP POP JUMP JUMPDEST PUSH1 0x0 PUSH2 0xEDB PUSH2 0xE42 JUMP JUMPDEST SWAP1 POP PUSH2 0xEE7 DUP3 DUP3 PUSH2 0xEA0 JUMP JUMPDEST SWAP2 SWAP1 POP JUMP JUMPDEST PUSH1 0x0 PUSH8 0xFFFFFFFFFFFFFFFF DUP3 GT ISZERO PUSH2 0xF07 JUMPI PUSH2 0xF06 PUSH2 0xE71 JUMP JUMPDEST JUMPDEST PUSH2 0xF10 DUP3 PUSH2 0xE60 JUMP JUMPDEST SWAP1 POP PUSH1 0x20 DUP2 ADD SWAP1 POP SWAP2 SWAP1 POP JUMP JUMPDEST DUP3 DUP2 DUP4 CALLDATACOPY PUSH1 0x0 DUP4 DUP4 ADD MSTORE POP POP POP JUMP JUMPDEST PUSH1 0x0 PUSH2 0xF3F PUSH2 0xF3A DUP5 PUSH2 0xEEC JUMP JUMPDEST PUSH2 0xED1 JUMP JUMPDEST SWAP1 POP DUP3 DUP2 MSTORE PUSH1 0x20 DUP2 ADD DUP5 DUP5 DUP5 ADD GT ISZERO PUSH2 0xF5B JUMPI PUSH2 0xF5A PUSH2 0xE5B JUMP JUMPDEST JUMPDEST PUSH2 0xF66 DUP5 DUP3 DUP6 PUSH2 0xF1D JUMP JUMPDEST POP SWAP4 SWAP3 POP POP POP JUMP JUMPDEST PUSH1 0x0 DUP3 PUSH1 0x1F DUP4 ADD SLT PUSH2 0xF83 JUMPI PUSH2 0xF82 PUSH2 0xE56 JUMP JUMPDEST JUMPDEST DUP2 CALLDATALOAD PUSH2 0xF93 DUP5 DUP3 PUSH1 0x20 DUP7 ADD PUSH2 0xF2C JUMP JUMPDEST SWAP2 POP POP SWAP3 SWAP2 POP POP JUMP JUMPDEST PUSH1 0x0 DUP1 PUSH1 0x0 PUSH1 0x60 DUP5 DUP7 SUB SLT ISZERO PUSH2 0xFB5 JUMPI PUSH2 0xFB4 PUSH2 0xE4C JUMP JUMPDEST JUMPDEST PUSH1 0x0 DUP5 ADD CALLDATALOAD PUSH8 0xFFFFFFFFFFFFFFFF DUP2 GT ISZERO PUSH2 0xFD3 JUMPI PUSH2 0xFD2 PUSH2 0xE51 JUMP JUMPDEST JUMPDEST PUSH2 0xFDF DUP7 DUP3 DUP8 ADD PUSH2 0xF6E JUMP JUMPDEST SWAP4 POP POP PUSH1 0x20 DUP5 ADD CALLDATALOAD PUSH8 0xFFFFFFFFFFFFFFFF DUP2 GT ISZERO PUSH2 0x1000 JUMPI PUSH2 0xFFF PUSH2 0xE51 JUMP JUMPDEST JUMPDEST PUSH2 0x100C DUP7 DUP3 DUP8 ADD PUSH2 0xF6E JUMP JUMPDEST SWAP3 POP POP PUSH1 0x40 DUP5 ADD CALLDATALOAD PUSH8 0xFFFFFFFFFFFFFFFF DUP2 GT ISZERO PUSH2 0x102D JUMPI PUSH2 0x102C PUSH2 0xE51 JUMP JUMPDEST JUMPDEST PUSH2 0x1039 DUP7 DUP3 DUP8 ADD PUSH2 0xF6E JUMP JUMPDEST SWAP2 POP POP SWAP3 POP SWAP3 POP SWAP3 JUMP JUMPDEST PUSH1 0x0 DUP2 MLOAD SWAP1 POP SWAP2 SWAP1 POP JUMP JUMPDEST PUSH1 0x0 DUP3 DUP3 MSTORE PUSH1 0x20 DUP3 ADD SWAP1 POP SWAP3 SWAP2 POP POP JUMP JUMPDEST PUSH1 0x0 DUP2 SWAP1 POP PUSH1 0x20 DUP3 ADD SWAP1 POP SWAP2 SWAP1 POP JUMP JUMPDEST PUSH1 0x0 DUP2 MLOAD SWAP1 POP SWAP2 SWAP1 POP JUMP JUMPDEST PUSH1 0x0 DUP3 DUP3 MSTORE PUSH1 0x20 DUP3 ADD SWAP1 POP SWAP3 SWAP2 POP POP JUMP JUMPDEST PUSH1 0x0 JUMPDEST DUP4 DUP2 LT ISZERO PUSH2 0x10A9 JUMPI DUP1 DUP3 ADD MLOAD DUP2 DUP5 ADD MSTORE PUSH1 0x20 DUP2 ADD SWAP1 POP PUSH2 0x108E JUMP JUMPDEST PUSH1 0x0 DUP5 DUP5 ADD MSTORE POP POP POP POP JUMP JUMPDEST PUSH1 0x0 PUSH2 0x10C0 DUP3 PUSH2 0x106F JUMP JUMPDEST PUSH2 0x10CA DUP2 DUP6 PUSH2 0x107A JUMP JUMPDEST SWAP4 POP PUSH2 0x10DA DUP2 DUP6 PUSH1 0x20 DUP7 ADD PUSH2 0x108B JUMP JUMPDEST PUSH2 0x10E3 DUP2 PUSH2 0xE60 JUMP JUMPDEST DUP5 ADD SWAP2 POP POP SWAP3 SWAP2 POP POP JUMP JUMPDEST PUSH1 0x0 PUSH2 0x10FA DUP4 DUP4 PUSH2 0x10B5 JUMP JUMPDEST SWAP1 POP SWAP3 SWAP2 POP POP JUMP JUMPDEST PUSH1 0x0 PUSH1 0x20 DUP3 ADD SWAP1 POP SWAP2 SWAP1 POP JUMP JUMPDEST PUSH1 0x0 PUSH2 0x111A DUP3 PUSH2 0x1043 JUMP JUMPDEST PUSH2 0x1124 DUP2 DUP6 PUSH2 0x104E JUMP JUMPDEST SWAP4 POP DUP4 PUSH1 0x20 DUP3 MUL DUP6 ADD PUSH2 0x1136 DUP6 PUSH2 0x105F JUMP JUMPDEST DUP1 PUSH1 0x0 JUMPDEST DUP6 DUP2 LT ISZERO PUSH2 0x1172 JUMPI DUP5 DUP5 SUB DUP10 MSTORE DUP2 MLOAD PUSH2 0x1153 DUP6 DUP3 PUSH2 0x10EE JUMP JUMPDEST SWAP5 POP PUSH2 0x115E DUP4 PUSH2 0x1102 JUMP JUMPDEST SWAP3 POP PUSH1 0x20 DUP11 ADD SWAP10 POP POP PUSH1 0x1 DUP2 ADD SWAP1 POP PUSH2 0x113A JUMP JUMPDEST POP DUP3 SWAP8 POP DUP8 SWAP6 POP POP POP POP POP POP SWAP3 SWAP2 POP POP JUMP JUMPDEST PUSH1 0x0 DUP2 MLOAD SWAP1 POP SWAP2 SWAP1 POP JUMP JUMPDEST PUSH1 0x0 DUP3 DUP3 MSTORE PUSH1 0x20 DUP3 ADD SWAP1 POP SWAP3 SWAP2 POP POP JUMP JUMPDEST PUSH1 0x0 DUP2 SWAP1 POP PUSH1 0x20 DUP3 ADD SWAP1 POP SWAP2 SWAP1 POP JUMP JUMPDEST PUSH1 0x0 DUP2 SWAP1 POP SWAP2 SWAP1 POP JUMP JUMPDEST PUSH2 0x11C3 DUP2 PUSH2 0x11B0 JUMP JUMPDEST DUP3 MSTORE POP POP JUMP JUMPDEST PUSH1 0x0 PUSH2 0x11D5 DUP4 DUP4 PUSH2 0x11BA JUMP JUMPDEST PUSH1 0x20 DUP4 ADD SWAP1 POP SWAP3 SWAP2 POP POP JUMP JUMPDEST PUSH1 0x0 PUSH1 0x20 DUP3 ADD SWAP1 POP SWAP2 SWAP1 POP JUMP JUMPDEST PUSH1 0x0 PUSH2 0x11F9 DUP3 PUSH2 0x1184 JUMP JUMPDEST PUSH2 0x1203 DUP2 DUP6 PUSH2 0x118F JUMP JUMPDEST SWAP4 POP PUSH2 0x120E DUP4 PUSH2 0x11A0 JUMP JUMPDEST DUP1 PUSH1 0x0 JUMPDEST DUP4 DUP2 LT ISZERO PUSH2 0x123F JUMPI DUP2 MLOAD PUSH2 0x1226 DUP9 DUP3 PUSH2 0x11C9 JUMP JUMPDEST SWAP8 POP PUSH2 0x1231 DUP4 PUSH2 0x11E1 JUMP JUMPDEST SWAP3 POP POP PUSH1 0x1 DUP2 ADD SWAP1 POP PUSH2 0x1212 JUMP JUMPDEST POP DUP6 SWAP4 POP POP POP POP SWAP3 SWAP2 POP POP JUMP JUMPDEST PUSH1 0x0 PUSH1 0xA0 DUP3 ADD SWAP1 POP DUP2 DUP2 SUB PUSH1 0x0 DUP4 ADD MSTORE PUSH2 0x1266 DUP2 DUP9 PUSH2 0x110F JUMP JUMPDEST SWAP1 POP DUP2 DUP2 SUB PUSH1 0x20 DUP4 ADD MSTORE PUSH2 0x127A DUP2 DUP8 PUSH2 0x110F JUMP JUMPDEST SWAP1 POP DUP2 DUP2 SUB PUSH1 0x40 DUP4 ADD MSTORE PUSH2 0x128E DUP2 DUP7 PUSH2 0x110F JUMP JUMPDEST SWAP1 POP DUP2 DUP2 SUB PUSH1 0x60 DUP4 ADD MSTORE PUSH2 0x12A2 DUP2 DUP6 PUSH2 0x11EE JUMP JUMPDEST SWAP1 POP DUP2 DUP2 SUB PUSH1 0x80 DUP4 ADD MSTORE PUSH2 0x12B6 DUP2 DUP5 PUSH2 0x11EE JUMP JUMPDEST SWAP1 POP SWAP7 SWAP6 POP POP POP POP POP POP JUMP JUMPDEST PUSH1 0x0 PUSH1 0x20 DUP3 ADD SWAP1 POP DUP2 DUP2 SUB PUSH1 0x0 DUP4 ADD MSTORE PUSH2 0x12DC DUP2 DUP5 PUSH2 0x110F JUMP JUMPDEST SWAP1 POP SWAP3 SWAP2 POP POP JUMP JUMPDEST PUSH1 0x0 PUSH1 0x20 DUP3 DUP5 SUB SLT ISZERO PUSH2 0x12FA JUMPI PUSH2 0x12F9 PUSH2 0xE4C JUMP JUMPDEST JUMPDEST PUSH1 0x0 DUP3 ADD CALLDATALOAD PUSH8 0xFFFFFFFFFFFFFFFF DUP2 GT ISZERO PUSH2 0x1318 JUMPI PUSH2 0x1317 PUSH2 0xE51 JUMP JUMPDEST JUMPDEST PUSH2 0x1324 DUP5 DUP3 DUP6 ADD PUSH2 0xF6E JUMP JUMPDEST SWAP2 POP POP SWAP3 SWAP2 POP POP JUMP JUMPDEST PUSH1 0x0 DUP3 DUP3 MSTORE PUSH1 0x20 DUP3 ADD SWAP1 POP SWAP3 SWAP2 POP POP JUMP JUMPDEST PUSH1 0x0 PUSH2 0x1349 DUP3 PUSH2 0x106F JUMP JUMPDEST PUSH2 0x1353 DUP2 DUP6 PUSH2 0x132D JUMP JUMPDEST SWAP4 POP PUSH2 0x1363 DUP2 DUP6 PUSH1 0x20 DUP7 ADD PUSH2 0x108B JUMP JUMPDEST PUSH2 0x136C DUP2 PUSH2 0xE60 JUMP JUMPDEST DUP5 ADD SWAP2 POP POP SWAP3 SWAP2 POP POP JUMP JUMPDEST PUSH2 0x1380 DUP2 PUSH2 0x11B0 JUMP JUMPDEST DUP3 MSTORE POP POP JUMP JUMPDEST PUSH1 0x0 PUSH1 0x80 DUP3 ADD SWAP1 POP DUP2 DUP2 SUB PUSH1 0x0 DUP4 ADD MSTORE PUSH2 0x13A0 DUP2 DUP8 PUSH2 0x133E JUMP JUMPDEST SWAP1 POP DUP2 DUP2 SUB PUSH1 0x20 DUP4 ADD MSTORE PUSH2 0x13B4 DUP2 DUP7 PUSH2 0x133E JUMP JUMPDEST SWAP1 POP PUSH2 0x13C3 PUSH1 0x40 DUP4 ADD DUP6 PUSH2 0x1377 JUMP JUMPDEST PUSH2 0x13D0 PUSH1 0x60 DUP4 ADD DUP5 PUSH2 0x1377 JUMP JUMPDEST SWAP6 SWAP5 POP POP POP POP POP JUMP JUMPDEST PUSH32 0x4E657720436F6E6E6563742055524C2072657175697265640000000000000000 PUSH1 0x0 DUP3 ADD MSTORE POP JUMP JUMPDEST PUSH1 0x0 PUSH2 0x140F PUSH1 0x18 DUP4 PUSH2 0x132D JUMP JUMPDEST SWAP2 POP PUSH2 0x141A DUP3 PUSH2 0x13D9 JUMP JUMPDEST PUSH1 0x20 DUP3 ADD SWAP1 POP SWAP2 SWAP1 POP JUMP JUMPDEST PUSH1 0x0 PUSH1 0x20 DUP3 ADD SWAP1 POP DUP2 DUP2 SUB PUSH1 0x0 DUP4 ADD MSTORE PUSH2 0x143E DUP2 PUSH2 0x1402 JUMP JUMPDEST SWAP1 POP SWAP2 SWAP1 POP JUMP JUMPDEST PUSH32 0x4E6577205075626C6963206B6579207265717569726564000000000000000000 PUSH1 0x0 DUP3 ADD MSTORE POP JUMP JUMPDEST PUSH1 0x0 PUSH2 0x147B PUSH1 0x17 DUP4 PUSH2 0x132D JUMP JUMPDEST SWAP2 POP PUSH2 0x1486 DUP3 PUSH2 0x1445 JUMP JUMPDEST PUSH1 0x20 DUP3 ADD SWAP1 POP SWAP2 SWAP1 POP JUMP JUMPDEST PUSH1 0x0 PUSH1 0x20 DUP3 ADD SWAP1 POP DUP2 DUP2 SUB PUSH1 0x0 DUP4 ADD MSTORE PUSH2 0x14AA DUP2 PUSH2 0x146E JUMP JUMPDEST SWAP1 POP SWAP2 SWAP1 POP JUMP JUMPDEST PUSH1 0x0 DUP2 SWAP1 POP SWAP3 SWAP2 POP POP JUMP JUMPDEST PUSH1 0x0 PUSH2 0x14C7 DUP3 PUSH2 0x106F JUMP JUMPDEST PUSH2 0x14D1 DUP2 DUP6 PUSH2 0x14B1 JUMP JUMPDEST SWAP4 POP PUSH2 0x14E1 DUP2 DUP6 PUSH1 0x20 DUP7 ADD PUSH2 0x108B JUMP JUMPDEST DUP1 DUP5 ADD SWAP2 POP POP SWAP3 SWAP2 POP POP JUMP JUMPDEST PUSH1 0x0 PUSH2 0x14F9 DUP3 DUP5 PUSH2 0x14BC JUMP JUMPDEST SWAP2 POP DUP2 SWAP1 POP SWAP3 SWAP2 POP POP JUMP JUMPDEST PUSH32 0x456E636C617665206E6F7420666F756E64000000000000000000000000000000 PUSH1 0x0 DUP3 ADD MSTORE POP JUMP JUMPDEST PUSH1 0x0 PUSH2 0x153A PUSH1 0x11 DUP4 PUSH2 0x132D JUMP JUMPDEST SWAP2 POP PUSH2 0x1545 DUP3 PUSH2 0x1504 JUMP JUMPDEST PUSH1 0x20 DUP3 ADD SWAP1 POP SWAP2 SWAP1 POP JUMP JUMPDEST PUSH1 0x0 PUSH1 0x20 DUP3 ADD SWAP1 POP DUP2 DUP2 SUB PUSH1 0x0 DUP4 ADD MSTORE PUSH2 0x1569 DUP2 PUSH2 0x152D JUMP JUMPDEST SWAP1 POP SWAP2 SWAP1 POP JUMP JUMPDEST PUSH32 0x4E487B7100000000000000000000000000000000000000000000000000000000 PUSH1 0x0 MSTORE PUSH1 0x22 PUSH1 0x4 MSTORE PUSH1 0x24 PUSH1 0x0 REVERT JUMPDEST PUSH1 0x0 PUSH1 0x2 DUP3 DIV SWAP1 POP PUSH1 0x1 DUP3 AND DUP1 PUSH2 0x15B7 JUMPI PUSH1 0x7F DUP3 AND SWAP2 POP JUMPDEST PUSH1 0x20 DUP3 LT DUP2 SUB PUSH2 0x15CA JUMPI PUSH2 0x15C9 PUSH2 0x1570 JUMP JUMPDEST JUMPDEST POP SWAP2 SWAP1 POP JUMP JUMPDEST PUSH1 0x0 DUP2 SWAP1 POP DUP2 PUSH1 0x0 MSTORE PUSH1 0x20 PUSH1 0x0 KECCAK256 SWAP1 POP SWAP2 SWAP1 POP JUMP JUMPDEST PUSH1 0x0 PUSH1 0x20 PUSH1 0x1F DUP4 ADD DIV SWAP1 POP SWAP2 SWAP1 POP JUMP JUMPDEST PUSH1 0x0 DUP3 DUP3 SHL SWAP1 POP SWAP3 SWAP2 POP POP JUMP JUMPDEST PUSH1 0x0 PUSH1 0x8 DUP4 MUL PUSH2 0x1632 PUSH32 0xFFFFFFFFFFFFFFFFFFFFFFFFFFFFFFFFFFFFFFFFFFFFFFFFFFFFFFFFFFFFFFFF DUP3 PUSH2 0x15F5 JUMP JUMPDEST PUSH2 0x163C DUP7 DUP4 PUSH2 0x15F5 JUMP JUMPDEST SWAP6 POP DUP1 NOT DUP5 AND SWAP4 POP DUP1 DUP7 AND DUP5 OR SWAP3 POP POP POP SWAP4 SWAP3 POP POP POP JUMP JUMPDEST PUSH1 0x0 DUP2 SWAP1 POP SWAP2 SWAP1 POP JUMP JUMPDEST PUSH1 0x0 PUSH2 0x1679 PUSH2 0x1674 PUSH2 0x166F DUP5 PUSH2 0x11B0 JUMP JUMPDEST PUSH2 0x1654 JUMP JUMPDEST PUSH2 0x11B0 JUMP JUMPDEST SWAP1 POP SWAP2 SWAP1 POP JUMP JUMPDEST PUSH1 0x0 DUP2 SWAP1 POP SWAP2 SWAP1 POP JUMP JUMPDEST PUSH2 0x1693 DUP4 PUSH2 0x165E JUMP JUMPDEST PUSH2 0x16A7 PUSH2 0x169F DUP3 PUSH2 0x1680 JUMP JUMPDEST DUP5 DUP5 SLOAD PUSH2 0x1602 JUMP JUMPDEST DUP3 SSTORE POP POP POP POP JUMP JUMPDEST PUSH1 0x0 SWAP1 JUMP JUMPDEST PUSH2 0x16BC PUSH2 0x16AF JUMP JUMPDEST PUSH2 0x16C7 DUP2 DUP5 DUP5 PUSH2 0x168A JUMP JUMPDEST POP POP POP JUMP JUMPDEST JUMPDEST DUP2 DUP2 LT ISZERO PUSH2 0x16EB JUMPI PUSH2 0x16E0 PUSH1 0x0 DUP3 PUSH2 0x16B4 JUMP JUMPDEST PUSH1 0x1 DUP2 ADD SWAP1 POP PUSH2 0x16CD JUMP JUMPDEST POP POP JUMP JUMPDEST PUSH1 0x1F DUP3 GT ISZERO PUSH2 0x1730 JUMPI PUSH2 0x1701 DUP2 PUSH2 0x15D0 JUMP JUMPDEST PUSH2 0x170A DUP5 PUSH2 0x15E5 JUMP JUMPDEST DUP2 ADD PUSH1 0x20 DUP6 LT ISZERO PUSH2 0x1719 JUMPI DUP2 SWAP1 POP JUMPDEST PUSH2 0x172D PUSH2 0x1725 DUP6 PUSH2 0x15E5 JUMP JUMPDEST DUP4 ADD DUP3 PUSH2 0x16CC JUMP JUMPDEST POP POP JUMPDEST POP POP POP JUMP JUMPDEST PUSH1 0x0 DUP3 DUP3 SHR SWAP1 POP SWAP3 SWAP2 POP POP JUMP JUMPDEST PUSH1 0x0 PUSH2 0x1753 PUSH1 0x0 NOT DUP5 PUSH1 0x8 MUL PUSH2 0x1735 JUMP JUMPDEST NOT DUP1 DUP4 AND SWAP2 POP POP SWAP3 SWAP2 POP POP JUMP JUMPDEST PUSH1 0x0 PUSH2 0x176C DUP4 DUP4 PUSH2 0x1742 JUMP JUMPDEST SWAP2 POP DUP3 PUSH1 0x2 MUL DUP3 OR SWAP1 POP SWAP3 SWAP2 POP POP JUMP JUMPDEST PUSH2 0x1785 DUP3 PUSH2 0x106F JUMP JUMPDEST PUSH8 0xFFFFFFFFFFFFFFFF DUP2 GT ISZERO PUSH2 0x179E JUMPI PUSH2 0x179D PUSH2 0xE71 JUMP JUMPDEST JUMPDEST PUSH2 0x17A8 DUP3 SLOAD PUSH2 0x159F JUMP JUMPDEST PUSH2 0x17B3 DUP3 DUP3 DUP6 PUSH2 0x16EF JUMP JUMPDEST PUSH1 0x0 PUSH1 0x20 SWAP1 POP PUSH1 0x1F DUP4 GT PUSH1 0x1 DUP2 EQ PUSH2 0x17E6 JUMPI PUSH1 0x0 DUP5 ISZERO PUSH2 0x17D4 JUMPI DUP3 DUP8 ADD MLOAD SWAP1 POP JUMPDEST PUSH2 0x17DE DUP6 DUP3 PUSH2 0x1760 JUMP JUMPDEST DUP7 SSTORE POP PUSH2 0x1846 JUMP JUMPDEST PUSH1 0x1F NOT DUP5 AND PUSH2 0x17F4 DUP7 PUSH2 0x15D0 JUMP JUMPDEST PUSH1 0x0 JUMPDEST DUP3 DUP2 LT ISZERO PUSH2 0x181C JUMPI DUP5 DUP10 ADD MLOAD DUP3 SSTORE PUSH1 0x1 DUP3 ADD SWAP2 POP PUSH1 0x20 DUP6 ADD SWAP5 POP PUSH1 0x20 DUP2 ADD SWAP1 POP PUSH2 0x17F7 JUMP JUMPDEST DUP7 DUP4 LT ISZERO PUSH2 0x1839 JUMPI DUP5 DUP10 ADD MLOAD PUSH2 0x1835 PUSH1 0x1F DUP10 AND DUP3 PUSH2 0x1742 JUMP JUMPDEST DUP4 SSTORE POP JUMPDEST PUSH1 0x1 PUSH1 0x2 DUP9 MUL ADD DUP9 SSTORE POP POP POP JUMPDEST POP POP POP POP POP POP JUMP JUMPDEST PUSH32 0x4E487B7100000000000000000000000000000000000000000000000000000000 PUSH1 0x0 MSTORE PUSH1 0x11 PUSH1 0x4 MSTORE PUSH1 0x24 PUSH1 0x0 REVERT JUMPDEST PUSH1 0x0 PUSH2 0x1888 DUP3 PUSH2 0x11B0 JUMP JUMPDEST SWAP2 POP PUSH2 0x1893 DUP4 PUSH2 0x11B0 JUMP JUMPDEST SWAP3 POP DUP3 DUP3 ADD SWAP1 POP DUP1 DUP3 GT ISZERO PUSH2 0x18AB JUMPI PUSH2 0x18AA PUSH2 0x184E JUMP JUMPDEST JUMPDEST SWAP3 SWAP2 POP POP JUMP JUMPDEST PUSH32 0x4E487B7100000000000000000000000000000000000000000000000000000000 PUSH1 0x0 MSTORE PUSH1 0x32 PUSH1 0x4 MSTORE PUSH1 0x24 PUSH1 0x0 REVERT JUMPDEST PUSH32 0x456E636C61766520494420726571756972656400000000000000000000000000 PUSH1 0x0 DUP3 ADD MSTORE POP JUMP JUMPDEST PUSH1 0x0 PUSH2 0x1916 PUSH1 0x13 DUP4 PUSH2 0x132D JUMP JUMPDEST SWAP2 POP PUSH2 0x1921 DUP3 PUSH2 0x18E0 JUMP JUMPDEST PUSH1 0x20 DUP3 ADD SWAP1 POP SWAP2 SWAP1 POP JUMP JUMPDEST PUSH1 0x0 PUSH1 0x20 DUP3 ADD SWAP1 POP DUP2 DUP2 SUB PUSH1 0x0 DUP4 ADD MSTORE PUSH2 0x1945 DUP2 PUSH2 0x1909 JUMP JUMPDEST SWAP1 POP SWAP2 SWAP1 POP JUMP JUMPDEST PUSH32 0x436F6E6E6563742055524C207265717569726564000000000000000000000000 PUSH1 0x0 DUP3 ADD MSTORE POP JUMP JUMPDEST PUSH1 0x0 PUSH2 0x1982 PUSH1 0x14 DUP4 PUSH2 0x132D JUMP JUMPDEST SWAP2 POP PUSH2 0x198D DUP3 PUSH2 0x194C JUMP JUMPDEST PUSH1 0x20 DUP3 ADD SWAP1 POP SWAP2 SWAP1 POP JUMP JUMPDEST PUSH1 0x0 PUSH1 0x20 DUP3 ADD SWAP1 POP DUP2 DUP2 SUB PUSH1 0x0 DUP4 ADD MSTORE PUSH2 0x19B1 DUP2 PUSH2 0x1975 JUMP JUMPDEST SWAP1 POP SWAP2 SWAP1 POP JUMP JUMPDEST PUSH32 0x5075626C6963206B657920726571756972656400000000000000000000000000 PUSH1 0x0 DUP3 ADD MSTORE POP JUMP JUMPDEST PUSH1 0x0 PUSH2 0x19EE PUSH1 0x13 DUP4 PUSH2 0x132D JUMP JUMPDEST SWAP2 POP PUSH2 0x19F9 DUP3 PUSH2 0x19B8 JUMP JUMPDEST PUSH1 0x20 DUP3 ADD SWAP1 POP SWAP2 SWAP1 POP JUMP JUMPDEST PUSH1 0x0 PUSH1 0x20 DUP3 ADD SWAP1 POP DUP2 DUP2 SUB PUSH1 0x0 DUP4 ADD MSTORE PUSH2 0x1A1D DUP2 PUSH2 0x19E1 JUMP JUMPDEST SWAP1 POP SWAP2 SWAP1 POP JUMP JUMPDEST PUSH32 0x456E636C61766520616C72656164792065786973747300000000000000000000 PUSH1 0x0 DUP3 ADD MSTORE POP JUMP JUMPDEST PUSH1 0x0 PUSH2 0x1A5A PUSH1 0x16 DUP4 PUSH2 0x132D JUMP JUMPDEST SWAP2 POP PUSH2 0x1A65 DUP3 PUSH2 0x1A24 JUMP JUMPDEST PUSH1 0x20 DUP3 ADD SWAP1 POP SWAP2 SWAP1 POP JUMP JUMPDEST PUSH1 0x0 PUSH1 0x20 DUP3 ADD SWAP1 POP DUP2 DUP2 SUB PUSH1 0x0 DUP4 ADD MSTORE PUSH2 0x1A89 DUP2 PUSH2 0x1A4D JUMP JUMPDEST SWAP1 POP SWAP2 SWAP1 POP JUMP JUMPDEST PUSH1 0x0 DUP2 SWAP1 POP SWAP2 SWAP1 POP JUMP JUMPDEST PUSH1 0x0 PUSH2 0x1AB5 PUSH2 0x1AB0 PUSH2 0x1AAB DUP5 PUSH2 0x1A90 JUMP JUMPDEST PUSH2 0x1654 JUMP JUMPDEST PUSH2 0x11B0 JUMP JUMPDEST SWAP1 POP SWAP2 SWAP1 POP JUMP JUMPDEST PUSH2 0x1AC5 DUP2 PUSH2 0x1A9A JUMP JUMPDEST DUP3 MSTORE POP POP JUMP JUMPDEST PUSH1 0x0 PUSH1 0x80 DUP3 ADD SWAP1 POP DUP2 DUP2 SUB PUSH1 0x0 DUP4 ADD MSTORE PUSH2 0x1AE5 DUP2 DUP8 PUSH2 0x133E JUMP JUMPDEST SWAP1 POP DUP2 DUP2 SUB PUSH1 0x20 DUP4 ADD MSTORE PUSH2 0x1AF9 DUP2 DUP7 PUSH2 0x133E JUMP JUMPDEST SWAP1 POP PUSH2 0x1B08 PUSH1 0x40 DUP4 ADD DUP6 PUSH2 0x1ABC JUMP JUMPDEST PUSH2 0x1B15 PUSH1 0x60 DUP4 ADD DUP5 PUSH2 0x1377 JUMP JUMPDEST SWAP6 SWAP5 POP POP POP POP POP JUMP JUMPDEST PUSH1 0x0 DUP2 SLOAD PUSH2 0x1B2B DUP2 PUSH2 0x159F JUMP JUMPDEST PUSH2 0x1B35 DUP2 DUP7 PUSH2 0x14B1 JUMP JUMPDEST SWAP5 POP PUSH1 0x1 DUP3 AND PUSH1 0x0 DUP2 EQ PUSH2 0x1B50 JUMPI PUSH1 0x1 DUP2 EQ PUSH2 0x1B65 JUMPI PUSH2 0x1B98 JUMP JUMPDEST PUSH1 0xFF NOT DUP4 AND DUP7 MSTORE DUP2 ISZERO ISZERO DUP3 MUL DUP7 ADD SWAP4 POP PUSH2 0x1B98 JUMP JUMPDEST PUSH2 0x1B6E DUP6 PUSH2 0x15D0 JUMP JUMPDEST PUSH1 0x0 JUMPDEST DUP4 DUP2 LT ISZERO PUSH2 0x1B90 JUMPI DUP2 SLOAD DUP2 DUP10 ADD MSTORE PUSH1 0x1 DUP3 ADD SWAP2 POP PUSH1 0x20 DUP2 ADD SWAP1 POP PUSH2 0x1B71 JUMP JUMPDEST DUP4 DUP9 ADD SWAP6 POP POP POP JUMPDEST POP POP POP SWAP3 SWAP2 POP POP JUMP JUMPDEST PUSH1 0x0 PUSH2 0x1BAD DUP3 DUP5 PUSH2 0x1B1E JUMP JUMPDEST SWAP2 POP DUP2 SWAP1 POP SWAP3 SWAP2 POP POP JUMP JUMPDEST PUSH1 0x0 PUSH2 0x1BC3 DUP3 PUSH2 0x11B0 JUMP JUMPDEST SWAP2 POP PUSH2 0x1BCE DUP4 PUSH2 0x11B0 JUMP JUMPDEST SWAP3 POP DUP3 DUP3 SUB SWAP1 POP DUP2 DUP2 GT ISZERO PUSH2 0x1BE6 JUMPI PUSH2 0x1BE5 PUSH2 0x184E JUMP JUMPDEST JUMPDEST SWAP3 SWAP2 POP POP JUMP JUMPDEST PUSH1 0x0 DUP2 SLOAD SWAP1 POP PUSH2 0x1BFB DUP2 PUSH2 0x159F JUMP JUMPDEST SWAP1 POP SWAP2 SWAP1 POP JUMP JUMPDEST PUSH1 0x0 DUP2 SWAP1 POP DUP2 PUSH1 0x0 MSTORE PUSH1 0x20 PUSH1 0x0 KECCAK256 SWAP1 POP SWAP2 SWAP1 POP JUMP JUMPDEST DUP2 DUP2 SUB PUSH2 0x1C25 JUMPI POP POP PUSH2 0x1CFD JUMP JUMPDEST PUSH2 0x1C2E DUP3 PUSH2 0x1BEC JUMP JUMPDEST PUSH8 0xFFFFFFFFFFFFFFFF DUP2 GT ISZERO PUSH2 0x1C47 JUMPI PUSH2 0x1C46 PUSH2 0xE71 JUMP JUMPDEST JUMPDEST PUSH2 0x1C51 DUP3 SLOAD PUSH2 0x159F JUMP JUMPDEST PUSH2 0x1C5C DUP3 DUP3 DUP6 PUSH2 0x16EF JUMP JUMPDEST PUSH1 0x0 PUSH1 0x1F DUP4 GT PUSH1 0x1 DUP2 EQ PUSH2 0x1C8B JUMPI PUSH1 0x0 DUP5 ISZERO PUSH2 0x1C79 JUMPI DUP3 DUP8 ADD SLOAD SWAP1 POP JUMPDEST PUSH2 0x1C83 DUP6 DUP3 PUSH2 0x1760 JUMP JUMPDEST DUP7 SSTORE POP PUSH2 0x1CF6 JUMP JUMPDEST PUSH1 0x1F NOT DUP5 AND PUSH2 0x1C99 DUP8 PUSH2 0x1C02 JUMP JUMPDEST SWAP7 POP PUSH2 0x1CA4 DUP7 PUSH2 0x15D0 JUMP JUMPDEST PUSH1 0x0 JUMPDEST DUP3 DUP2 LT ISZERO PUSH2 0x1CCC JUMPI DUP5 DUP10 ADD SLOAD DUP3 SSTORE PUSH1 0x1 DUP3 ADD SWAP2 POP PUSH1 0x1 DUP6 ADD SWAP5 POP PUSH1 0x20 DUP2 ADD SWAP1 POP PUSH2 0x1CA7 JUMP JUMPDEST DUP7 DUP4 LT ISZERO PUSH2 0x1CE9 JUMPI DUP5 DUP10 ADD SLOAD PUSH2 0x1CE5 PUSH1 0x1F DUP10 AND DUP3 PUSH2 0x1742 JUMP JUMPDEST DUP4 SSTORE POP JUMPDEST PUSH1 0x1 PUSH1 0x2 DUP9 MUL ADD DUP9 SSTORE POP POP POP JUMPDEST POP POP POP POP POP POP JUMPDEST JUMP JUMPDEST PUSH32 0x4E487B7100000000000000000000000000000000000000000000000000000000 PUSH1 0x0 MSTORE PUSH1 0x31 PUSH1 0x4 MSTORE PUSH1 0x24 PUSH1 0x0 REVERT INVALID LOG2 PUSH5 0x6970667358 0x22 SLT KECCAK256 BASEFEE 0xDC 0xBE MSIZE CREATE2 0xFC 0x1E PUSH4 0x2A32D0D7 PUSH26 0x9F5648BC356936FC7EAA3093C19FB6E0CED6FF64736F6C634300 ADDMOD XOR STOP CALLER "
				},
				"gasEstimates": {
					"creation": {
						"codeDepositCost": "1504800",
						"executionCost": "1575",
						"totalCost": "1506375"
					},
					"external": {
						"deleteEnclave(string)": "infinite",
						"getAllEnclaves()": "infinite",
						"getEnclave(string)": "infinite",
						"listEnclaveIds()": "infinite",
						"registerEnclave(string,string,string)": "infinite",
						"updateEnclave(string,string,string)": "infinite"
					}
				},
				"methodIdentifiers": {
					"deleteEnclave(string)": "deba5eb8",
					"getAllEnclaves()": "702d06d1",
					"getEnclave(string)": "e39ae54b",
					"listEnclaveIds()": "a23c1cf5",
					"registerEnclave(string,string,string)": "d9ac8ad2",
					"updateEnclave(string,string,string)": "6b934917"
				}
			},
			"storageLayout": {
				"storage": [
					{
						"astId": 15,
						"contract": "contracts/enclavecontract.sol:EnclaveRegistry",
						"label": "enclaves",
						"offset": 0,
						"slot": "0",
						"type": "t_mapping(t_string_memory_ptr,t_struct(Enclave)10_storage)"
					},
					{
						"astId": 18,
						"contract": "contracts/enclavecontract.sol:EnclaveRegistry",
						"label": "enclaveIds",
						"offset": 0,
						"slot": "1",
						"type": "t_array(t_string_storage)dyn_storage"
					}
				],
				"types": {
					"t_array(t_string_storage)dyn_storage": {
						"base": "t_string_storage",
						"encoding": "dynamic_array",
						"label": "string[]",
						"numberOfBytes": "32"
					},
					"t_mapping(t_string_memory_ptr,t_struct(Enclave)10_storage)": {
						"encoding": "mapping",
						"key": "t_string_memory_ptr",
						"label": "mapping(string => struct EnclaveRegistry.Enclave)",
						"numberOfBytes": "32",
						"value": "t_struct(Enclave)10_storage"
					},
					"t_string_memory_ptr": {
						"encoding": "bytes",
						"label": "string",
						"numberOfBytes": "32"
					},
					"t_string_storage": {
						"encoding": "bytes",
						"label": "string",
						"numberOfBytes": "32"
					},
					"t_struct(Enclave)10_storage": {
						"encoding": "inplace",
						"label": "struct EnclaveRegistry.Enclave",
						"members": [
							{
								"astId": 3,
								"contract": "contracts/enclavecontract.sol:EnclaveRegistry",
								"label": "connectURL",
								"offset": 0,
								"slot": "0",
								"type": "t_string_storage"
							},
							{
								"astId": 5,
								"contract": "contracts/enclavecontract.sol:EnclaveRegistry",
								"label": "pubkey",
								"offset": 0,
								"slot": "1",
								"type": "t_string_storage"
							},
							{
								"astId": 7,
								"contract": "contracts/enclavecontract.sol:EnclaveRegistry",
								"label": "version",
								"offset": 0,
								"slot": "2",
								"type": "t_uint256"
							},
							{
								"astId": 9,
								"contract": "contracts/enclavecontract.sol:EnclaveRegistry",
								"label": "updatedAt",
								"offset": 0,
								"slot": "3",
								"type": "t_uint256"
							}
						],
						"numberOfBytes": "128"
					},
					"t_uint256": {
						"encoding": "inplace",
						"label": "uint256",
						"numberOfBytes": "32"
					}
				}
			},
			"userdoc": {
				"kind": "user",
				"methods": {
					"getAllEnclaves()": {
						"notice": "✅ New function: get all enclaves in one call (for frontend)"
					}
				},
				"version": 1
			}
		}
	}
}