{
	"contracts/BS_UserContract.sol": {
		"UserContract": {
			"abi": [
				{
					"inputs": [
						{
							"internalType": "bytes32",
							"name": "_emailHash",
							"type": "bytes32"
						},
						{
							"internalType": "bytes32[]",
							"name": "_initialPCR0s",
							"type": "bytes32[]"
						}
					],
					"stateMutability": "nonpayable",
					"type": "constructor"
				},
				{
					"inputs": [
						{
							"internalType": "bytes32",
							"name": "askPubkey",
							"type": "bytes32"
						},
						{
							"internalType": "uint64",
							"name": "expiry",
							"type": "uint64"
						},
						{
							"internalType": "bytes32",
							"name": "enclavePCR0",
							"type": "bytes32"
						}
					],
					"name": "activateASK",
					"outputs": [],
					"stateMutability": "nonpayable",
					"type": "function"
				},
				{
					"inputs": [],
					"name": "activeASK",
					"outputs": [
						{
							"internalType": "bytes32",
							"name": "",
							"type": "bytes32"
						}
					],
					"stateMutability": "view",
					"type": "function"
				},
				{
					"inputs": [
						{
							"internalType": "bytes32",
							"name": "",
							"type": "bytes32"
						}
					],
					"name": "allowedPCR0",
					"outputs": [
						{
							"internalType": "bool",
							"name": "",
							"type": "bool"
						}
					],
					"stateMutability": "view",
					"type": "function"
				},
				{
					"inputs": [],
					"name": "askExpiry",
					"outputs": [
						{
							"internalType": "uint64",
							"name": "",
							"type": "uint64"
						}
					],
					"stateMutability": "view",
					"type": "function"
				},
				{
					"inputs": [],
					"name": "backupKey",
					"outputs": [],
					"stateMutability": "nonpayable",
					"type": "function"
				},
				{
					"inputs": [],
					"name": "emailHash",
					"outputs": [
						{
							"internalType": "bytes32",
							"name": "",
							"type": "bytes32"
						}
					],
					"stateMutability": "view",
					"type": "function"
				},
				{
					"inputs": [],
					"name": "enclave",
					"outputs": [
						{
							"internalType": "address",
							"name": "",
							"type": "address"
						}
					],
					"stateMutability": "view",
					"type": "function"
				},
				{
					"inputs": [],
					"name": "factory",
					"outputs": [
						{
							"internalType": "address",
							"name": "",
							"type": "address"
						}
					],
					"stateMutability": "view",
					"type": "function"
				},
				{
					"inputs": [],
					"name": "initialize",
					"outputs": [],
					"stateMutability": "nonpayable",
					"type": "function"
				},
				{
					"inputs": [],
					"name": "initialized",
					"outputs": [
						{
							"internalType": "bool",
							"name": "",
							"type": "bool"
						}
					],
					"stateMutability": "view",
					"type": "function"
				},
				{
					"inputs": [
						{
							"internalType": "bytes32",
							"name": "askPubkey",
							"type": "bytes32"
						}
					],
					"name": "isASKActive",
					"outputs": [
						{
							"internalType": "bool",
							"name": "",
							"type": "bool"
						}
					],
					"stateMutability": "view",
					"type": "function"
				}
			],
			"devdoc": {
				"kind": "dev",
				"methods": {},
				"version": 1
			},
			"evm": {
				"assembly": "    /* \"contracts/BS_UserContract.sol\":57:1757  contract UserContract {... */\n  mstore(0x40, 0xe0)\n    /* \"contracts/BS_UserContract.sol\":646:920  constructor(... */\n  callvalue\n  dup1\n  iszero\n  tag_1\n  jumpi\n  0x00\n  dup1\n  revert\ntag_1:\n  pop\n  mload(0x40)\n  sub(codesize, bytecodeSize)\n  dup1\n  bytecodeSize\n  dup4\n  codecopy\n  dup2\n  dup2\n  add\n  0x40\n  mstore\n  dup2\n  add\n  swap1\n  tag_2\n  swap2\n  swap1\n  tag_3\n  jump\t// in\ntag_2:\n    /* \"contracts/BS_UserContract.sol\":752:762  msg.sender */\n  caller\n    /* \"contracts/BS_UserContract.sol\":742:762  factory = msg.sender */\n  0xffffffffffffffffffffffffffffffffffffffff\n  and\n  0x80\n  dup2\n  0xffffffffffffffffffffffffffffffffffffffff\n  and\n  dup2\n  mstore\n  pop\n  pop\n    /* \"contracts/BS_UserContract.sol\":784:794  _emailHash */\n  dup2\n    /* \"contracts/BS_UserContract.sol\":772:794  emailHash = _emailHash */\n  0xc0\n  dup2\n  dup2\n  mstore\n  pop\n  pop\n    /* \"contracts/BS_UserContract.sol\":810:816  uint i */\n  0x00\n    /* \"contracts/BS_UserContract.sol\":805:914  for (uint i = 0; i < _initialPCR0s.length; i++) {... */\ntag_6:\n    /* \"contracts/BS_UserContract.sol\":826:839  _initialPCR0s */\n  dup2\n    /* \"contracts/BS_UserContract.sol\":826:846  _initialPCR0s.length */\n  mload\n    /* \"contracts/BS_UserContract.sol\":822:823  i */\n  dup2\n    /* \"contracts/BS_UserContract.sol\":822:846  i < _initialPCR0s.length */\n  lt\n    /* \"contracts/BS_UserContract.sol\":805:914  for (uint i = 0; i < _initialPCR0s.length; i++) {... */\n  iszero\n  tag_7\n  jumpi\n    /* \"contracts/BS_UserContract.sol\":899:903  true */\n  0x01\n    /* \"contracts/BS_UserContract.sol\":867:878  allowedPCR0 */\n  0x03\n    /* \"contracts/BS_UserContract.sol\":867:896  allowedPCR0[_initialPCR0s[i]] */\n  0x00\n    /* \"contracts/BS_UserContract.sol\":879:892  _initialPCR0s */\n  dup5\n    /* \"contracts/BS_UserContract.sol\":893:894  i */\n  dup5\n    /* \"contracts/BS_UserContract.sol\":879:895  _initialPCR0s[i] */\n  dup2\n  mload\n  dup2\n  lt\n  tag_9\n  jumpi\n  tag_10\n  tag_11\n  jump\t// in\ntag_10:\ntag_9:\n  0x20\n  mul\n  0x20\n  add\n  add\n  mload\n    /* \"contracts/BS_UserContract.sol\":867:896  allowedPCR0[_initialPCR0s[i]] */\n  dup2\n  mstore\n  0x20\n  add\n  swap1\n  dup2\n  mstore\n  0x20\n  add\n  0x00\n  keccak256\n  0x00\n    /* \"contracts/BS_UserContract.sol\":867:903  allowedPCR0[_initialPCR0s[i]] = true */\n  0x0100\n  exp\n  dup2\n  sload\n  dup2\n  0xff\n  mul\n  not\n  and\n  swap1\n  dup4\n  iszero\n  iszero\n  mul\n  or\n  swap1\n  sstore\n  pop\n    /* \"contracts/BS_UserContract.sol\":848:851  i++ */\n  dup1\n  dup1\n  0x01\n  add\n  swap2\n  pop\n  pop\n    /* \"contracts/BS_UserContract.sol\":805:914  for (uint i = 0; i < _initialPCR0s.length; i++) {... */\n  jump(tag_6)\ntag_7:\n  pop\n    /* \"contracts/BS_UserContract.sol\":646:920  constructor(... */\n  pop\n  pop\n    /* \"contracts/BS_UserContract.sol\":57:1757  contract UserContract {... */\n  jump(tag_12)\n    /* \"#utility.yul\":7:82   */\ntag_13:\n    /* \"#utility.yul\":40:46   */\n  0x00\n    /* \"#utility.yul\":73:75   */\n  0x40\n    /* \"#utility.yul\":67:76   */\n  mload\n    /* \"#utility.yul\":57:76   */\n  swap1\n  pop\n    /* \"#utility.yul\":7:82   */\n  swap1\n  jump\t// out\n    /* \"#utility.yul\":88:205   */\ntag_14:\n    /* \"#utility.yul\":197:198   */\n  0x00\n    /* \"#utility.yul\":194:195   */\n  dup1\n    /* \"#utility.yul\":187:199   */\n  revert\n    /* \"#utility.yul\":211:328   */\ntag_15:\n    /* \"#utility.yul\":320:321   */\n  0x00\n    /* \"#utility.yul\":317:318   */\n  dup1\n    /* \"#utility.yul\":310:322   */\n  revert\n    /* \"#utility.yul\":334:411   */\ntag_16:\n    /* \"#utility.yul\":371:378   */\n  0x00\n    /* \"#utility.yul\":400:405   */\n  dup2\n    /* \"#utility.yul\":389:405   */\n  swap1\n  pop\n    /* \"#utility.yul\":334:411   */\n  swap2\n  swap1\n  pop\n  jump\t// out\n    /* \"#utility.yul\":417:539   */\ntag_17:\n    /* \"#utility.yul\":490:514   */\n  tag_34\n    /* \"#utility.yul\":508:513   */\n  dup2\n    /* \"#utility.yul\":490:514   */\n  tag_16\n  jump\t// in\ntag_34:\n    /* \"#utility.yul\":483:488   */\n  dup2\n    /* \"#utility.yul\":480:515   */\n  eq\n    /* \"#utility.yul\":470:533   */\n  tag_35\n  jumpi\n    /* \"#utility.yul\":529:530   */\n  0x00\n    /* \"#utility.yul\":526:527   */\n  dup1\n    /* \"#utility.yul\":519:531   */\n  revert\n    /* \"#utility.yul\":470:533   */\ntag_35:\n    /* \"#utility.yul\":417:539   */\n  pop\n  jump\t// out\n    /* \"#utility.yul\":545:688   */\ntag_18:\n    /* \"#utility.yul\":602:607   */\n  0x00\n    /* \"#utility.yul\":633:639   */\n  dup2\n    /* \"#utility.yul\":627:640   */\n  mload\n    /* \"#utility.yul\":618:640   */\n  swap1\n  pop\n    /* \"#utility.yul\":649:682   */\n  tag_37\n    /* \"#utility.yul\":676:681   */\n  dup2\n    /* \"#utility.yul\":649:682   */\n  tag_17\n  jump\t// in\ntag_37:\n    /* \"#utility.yul\":545:688   */\n  swap3\n  swap2\n  pop\n  pop\n  jump\t// out\n    /* \"#utility.yul\":694:811   */\ntag_19:\n    /* \"#utility.yul\":803:804   */\n  0x00\n    /* \"#utility.yul\":800:801   */\n  dup1\n    /* \"#utility.yul\":793:805   */\n  revert\n    /* \"#utility.yul\":817:919   */\ntag_20:\n    /* \"#utility.yul\":858:864   */\n  0x00\n    /* \"#utility.yul\":909:911   */\n  0x1f\n    /* \"#utility.yul\":905:912   */\n  not\n    /* \"#utility.yul\":900:902   */\n  0x1f\n    /* \"#utility.yul\":893:898   */\n  dup4\n    /* \"#utility.yul\":889:903   */\n  add\n    /* \"#utility.yul\":885:913   */\n  and\n    /* \"#utility.yul\":875:913   */\n  swap1\n  pop\n    /* \"#utility.yul\":817:919   */\n  swap2\n  swap1\n  pop\n  jump\t// out\n    /* \"#utility.yul\":925:1105   */\ntag_21:\n    /* \"#utility.yul\":973:1050   */\n  0x4e487b7100000000000000000000000000000000000000000000000000000000\n    /* \"#utility.yul\":970:971   */\n  0x00\n    /* \"#utility.yul\":963:1051   */\n  mstore\n    /* \"#utility.yul\":1070:1074   */\n  0x41\n    /* \"#utility.yul\":1067:1068   */\n  0x04\n    /* \"#utility.yul\":1060:1075   */\n  mstore\n    /* \"#utility.yul\":1094:1098   */\n  0x24\n    /* \"#utility.yul\":1091:1092   */\n  0x00\n    /* \"#utility.yul\":1084:1099   */\n  revert\n    /* \"#utility.yul\":1111:1392   */\ntag_22:\n    /* \"#utility.yul\":1194:1221   */\n  tag_42\n    /* \"#utility.yul\":1216:1220   */\n  dup3\n    /* \"#utility.yul\":1194:1221   */\n  tag_20\n  jump\t// in\ntag_42:\n    /* \"#utility.yul\":1186:1192   */\n  dup2\n    /* \"#utility.yul\":1182:1222   */\n  add\n    /* \"#utility.yul\":1324:1330   */\n  dup2\n    /* \"#utility.yul\":1312:1322   */\n  dup2\n    /* \"#utility.yul\":1309:1331   */\n  lt\n    /* \"#utility.yul\":1288:1306   */\n  0xffffffffffffffff\n    /* \"#utility.yul\":1276:1286   */\n  dup3\n    /* \"#utility.yul\":1273:1307   */\n  gt\n    /* \"#utility.yul\":1270:1332   */\n  or\n    /* \"#utility.yul\":1267:1355   */\n  iszero\n  tag_43\n  jumpi\n    /* \"#utility.yul\":1335:1353   */\n  tag_44\n  tag_21\n  jump\t// in\ntag_44:\n    /* \"#utility.yul\":1267:1355   */\ntag_43:\n    /* \"#utility.yul\":1375:1385   */\n  dup1\n    /* \"#utility.yul\":1371:1373   */\n  0x40\n    /* \"#utility.yul\":1364:1386   */\n  mstore\n    /* \"#utility.yul\":1154:1392   */\n  pop\n    /* \"#utility.yul\":1111:1392   */\n  pop\n  pop\n  jump\t// out\n    /* \"#utility.yul\":1398:1527   */\ntag_23:\n    /* \"#utility.yul\":1432:1438   */\n  0x00\n    /* \"#utility.yul\":1459:1479   */\n  tag_46\n  tag_13\n  jump\t// in\ntag_46:\n    /* \"#utility.yul\":1449:1479   */\n  swap1\n  pop\n    /* \"#utility.yul\":1488:1521   */\n  tag_47\n    /* \"#utility.yul\":1516:1520   */\n  dup3\n    /* \"#utility.yul\":1508:1514   */\n  dup3\n    /* \"#utility.yul\":1488:1521   */\n  tag_22\n  jump\t// in\ntag_47:\n    /* \"#utility.yul\":1398:1527   */\n  swap2\n  swap1\n  pop\n  jump\t// out\n    /* \"#utility.yul\":1533:1844   */\ntag_24:\n    /* \"#utility.yul\":1610:1614   */\n  0x00\n    /* \"#utility.yul\":1700:1718   */\n  0xffffffffffffffff\n    /* \"#utility.yul\":1692:1698   */\n  dup3\n    /* \"#utility.yul\":1689:1719   */\n  gt\n    /* \"#utility.yul\":1686:1742   */\n  iszero\n  tag_49\n  jumpi\n    /* \"#utility.yul\":1722:1740   */\n  tag_50\n  tag_21\n  jump\t// in\ntag_50:\n    /* \"#utility.yul\":1686:1742   */\ntag_49:\n    /* \"#utility.yul\":1772:1776   */\n  0x20\n    /* \"#utility.yul\":1764:1770   */\n  dup3\n    /* \"#utility.yul\":1760:1777   */\n  mul\n    /* \"#utility.yul\":1752:1777   */\n  swap1\n  pop\n    /* \"#utility.yul\":1832:1836   */\n  0x20\n    /* \"#utility.yul\":1826:1830   */\n  dup2\n    /* \"#utility.yul\":1822:1837   */\n  add\n    /* \"#utility.yul\":1814:1837   */\n  swap1\n  pop\n    /* \"#utility.yul\":1533:1844   */\n  swap2\n  swap1\n  pop\n  jump\t// out\n    /* \"#utility.yul\":1850:1967   */\ntag_25:\n    /* \"#utility.yul\":1959:1960   */\n  0x00\n    /* \"#utility.yul\":1956:1957   */\n  dup1\n    /* \"#utility.yul\":1949:1961   */\n  revert\n    /* \"#utility.yul\":1990:2722   */\ntag_26:\n    /* \"#utility.yul\":2097:2102   */\n  0x00\n    /* \"#utility.yul\":2122:2203   */\n  tag_53\n    /* \"#utility.yul\":2138:2202   */\n  tag_54\n    /* \"#utility.yul\":2195:2201   */\n  dup5\n    /* \"#utility.yul\":2138:2202   */\n  tag_24\n  jump\t// in\ntag_54:\n    /* \"#utility.yul\":2122:2203   */\n  tag_23\n  jump\t// in\ntag_53:\n    /* \"#utility.yul\":2113:2203   */\n  swap1\n  pop\n    /* \"#utility.yul\":2223:2228   */\n  dup1\n    /* \"#utility.yul\":2252:2258   */\n  dup4\n    /* \"#utility.yul\":2245:2250   */\n  dup3\n    /* \"#utility.yul\":2238:2259   */\n  mstore\n    /* \"#utility.yul\":2286:2290   */\n  0x20\n    /* \"#utility.yul\":2279:2284   */\n  dup3\n    /* \"#utility.yul\":2275:2291   */\n  add\n    /* \"#utility.yul\":2268:2291   */\n  swap1\n  pop\n    /* \"#utility.yul\":2339:2343   */\n  0x20\n    /* \"#utility.yul\":2331:2337   */\n  dup5\n    /* \"#utility.yul\":2327:2344   */\n  mul\n    /* \"#utility.yul\":2319:2325   */\n  dup4\n    /* \"#utility.yul\":2315:2345   */\n  add\n    /* \"#utility.yul\":2368:2371   */\n  dup6\n    /* \"#utility.yul\":2360:2366   */\n  dup2\n    /* \"#utility.yul\":2357:2372   */\n  gt\n    /* \"#utility.yul\":2354:2476   */\n  iszero\n  tag_55\n  jumpi\n    /* \"#utility.yul\":2387:2466   */\n  tag_56\n  tag_25\n  jump\t// in\ntag_56:\n    /* \"#utility.yul\":2354:2476   */\ntag_55:\n    /* \"#utility.yul\":2502:2508   */\n  dup4\n    /* \"#utility.yul\":2485:2716   */\ntag_57:\n    /* \"#utility.yul\":2519:2525   */\n  dup2\n    /* \"#utility.yul\":2514:2517   */\n  dup2\n    /* \"#utility.yul\":2511:2526   */\n  lt\n    /* \"#utility.yul\":2485:2716   */\n  iszero\n  tag_59\n  jumpi\n    /* \"#utility.yul\":2594:2597   */\n  dup1\n    /* \"#utility.yul\":2623:2671   */\n  tag_60\n    /* \"#utility.yul\":2667:2670   */\n  dup9\n    /* \"#utility.yul\":2655:2665   */\n  dup3\n    /* \"#utility.yul\":2623:2671   */\n  tag_18\n  jump\t// in\ntag_60:\n    /* \"#utility.yul\":2618:2621   */\n  dup5\n    /* \"#utility.yul\":2611:2672   */\n  mstore\n    /* \"#utility.yul\":2701:2705   */\n  0x20\n    /* \"#utility.yul\":2696:2699   */\n  dup5\n    /* \"#utility.yul\":2692:2706   */\n  add\n    /* \"#utility.yul\":2685:2706   */\n  swap4\n  pop\n    /* \"#utility.yul\":2561:2716   */\n  pop\n    /* \"#utility.yul\":2545:2549   */\n  0x20\n    /* \"#utility.yul\":2540:2543   */\n  dup2\n    /* \"#utility.yul\":2536:2550   */\n  add\n    /* \"#utility.yul\":2529:2550   */\n  swap1\n  pop\n    /* \"#utility.yul\":2485:2716   */\n  jump(tag_57)\ntag_59:\n    /* \"#utility.yul\":2489:2510   */\n  pop\n    /* \"#utility.yul\":2103:2722   */\n  pop\n  pop\n    /* \"#utility.yul\":1990:2722   */\n  swap4\n  swap3\n  pop\n  pop\n  pop\n  jump\t// out\n    /* \"#utility.yul\":2745:3130   */\ntag_27:\n    /* \"#utility.yul\":2827:2832   */\n  0x00\n    /* \"#utility.yul\":2876:2879   */\n  dup3\n    /* \"#utility.yul\":2869:2873   */\n  0x1f\n    /* \"#utility.yul\":2861:2867   */\n  dup4\n    /* \"#utility.yul\":2857:2874   */\n  add\n    /* \"#utility.yul\":2853:2880   */\n  slt\n    /* \"#utility.yul\":2843:2965   */\n  tag_62\n  jumpi\n    /* \"#utility.yul\":2884:2963   */\n  tag_63\n  tag_19\n  jump\t// in\ntag_63:\n    /* \"#utility.yul\":2843:2965   */\ntag_62:\n    /* \"#utility.yul\":2994:3000   */\n  dup2\n    /* \"#utility.yul\":2988:3001   */\n  mload\n    /* \"#utility.yul\":3019:3124   */\n  tag_64\n    /* \"#utility.yul\":3120:3123   */\n  dup5\n    /* \"#utility.yul\":3112:3118   */\n  dup3\n    /* \"#utility.yul\":3105:3109   */\n  0x20\n    /* \"#utility.yul\":3097:3103   */\n  dup7\n    /* \"#utility.yul\":3093:3110   */\n  add\n    /* \"#utility.yul\":3019:3124   */\n  tag_26\n  jump\t// in\ntag_64:\n    /* \"#utility.yul\":3010:3124   */\n  swap2\n  pop\n    /* \"#utility.yul\":2833:3130   */\n  pop\n    /* \"#utility.yul\":2745:3130   */\n  swap3\n  swap2\n  pop\n  pop\n  jump\t// out\n    /* \"#utility.yul\":3136:3846   */\ntag_3:\n    /* \"#utility.yul\":3240:3246   */\n  0x00\n    /* \"#utility.yul\":3248:3254   */\n  dup1\n    /* \"#utility.yul\":3297:3299   */\n  0x40\n    /* \"#utility.yul\":3285:3294   */\n  dup4\n    /* \"#utility.yul\":3276:3283   */\n  dup6\n    /* \"#utility.yul\":3272:3295   */\n  sub\n    /* \"#utility.yul\":3268:3300   */\n  slt\n    /* \"#utility.yul\":3265:3384   */\n  iszero\n  tag_66\n  jumpi\n    /* \"#utility.yul\":3303:3382   */\n  tag_67\n  tag_14\n  jump\t// in\ntag_67:\n    /* \"#utility.yul\":3265:3384   */\ntag_66:\n    /* \"#utility.yul\":3423:3424   */\n  0x00\n    /* \"#utility.yul\":3448:3512   */\n  tag_68\n    /* \"#utility.yul\":3504:3511   */\n  dup6\n    /* \"#utility.yul\":3495:3501   */\n  dup3\n    /* \"#utility.yul\":3484:3493   */\n  dup7\n    /* \"#utility.yul\":3480:3502   */\n  add\n    /* \"#utility.yul\":3448:3512   */\n  tag_18\n  jump\t// in\ntag_68:\n    /* \"#utility.yul\":3438:3512   */\n  swap3\n  pop\n    /* \"#utility.yul\":3394:3522   */\n  pop\n    /* \"#utility.yul\":3582:3584   */\n  0x20\n    /* \"#utility.yul\":3571:3580   */\n  dup4\n    /* \"#utility.yul\":3567:3585   */\n  add\n    /* \"#utility.yul\":3561:3586   */\n  mload\n    /* \"#utility.yul\":3613:3631   */\n  0xffffffffffffffff\n    /* \"#utility.yul\":3605:3611   */\n  dup2\n    /* \"#utility.yul\":3602:3632   */\n  gt\n    /* \"#utility.yul\":3599:3716   */\n  iszero\n  tag_69\n  jumpi\n    /* \"#utility.yul\":3635:3714   */\n  tag_70\n  tag_15\n  jump\t// in\ntag_70:\n    /* \"#utility.yul\":3599:3716   */\ntag_69:\n    /* \"#utility.yul\":3740:3829   */\n  tag_71\n    /* \"#utility.yul\":3821:3828   */\n  dup6\n    /* \"#utility.yul\":3812:3818   */\n  dup3\n    /* \"#utility.yul\":3801:3810   */\n  dup7\n    /* \"#utility.yul\":3797:3819   */\n  add\n    /* \"#utility.yul\":3740:3829   */\n  tag_27\n  jump\t// in\ntag_71:\n    /* \"#utility.yul\":3730:3829   */\n  swap2\n  pop\n    /* \"#utility.yul\":3532:3839   */\n  pop\n    /* \"#utility.yul\":3136:3846   */\n  swap3\n  pop\n  swap3\n  swap1\n  pop\n  jump\t// out\n    /* \"#utility.yul\":3852:4032   */\ntag_11:\n    /* \"#utility.yul\":3900:3977   */\n  0x4e487b7100000000000000000000000000000000000000000000000000000000\n    /* \"#utility.yul\":3897:3898   */\n  0x00\n    /* \"#utility.yul\":3890:3978   */\n  mstore\n    /* \"#utility.yul\":3997:4001   */\n  0x32\n    /* \"#utility.yul\":3994:3995   */\n  0x04\n    /* \"#utility.yul\":3987:4002   */\n  mstore\n    /* \"#utility.yul\":4021:4025   */\n  0x24\n    /* \"#utility.yul\":4018:4019   */\n  0x00\n    /* \"#utility.yul\":4011:4026   */\n  revert\n    /* \"contracts/BS_UserContract.sol\":57:1757  contract UserContract {... */\ntag_12:\n  mload(0x80)\n  mload(0xa0)\n  mload(0xc0)\n  codecopy(0x00, dataOffset(sub_0), dataSize(sub_0))\n  0x00\n  assignImmutable(\"0x52f1a9b320cab38e5da8a8f97989383aab0a49165fc91c737310e4f7e9821021\")\n  0x00\n  assignImmutable(\"0xceebf77a833b30520287ddd9478ff51abbdffa30aa90a8d655dba0e8a79ce0c1\")\n  0x00\n  assignImmutable(\"0x2a80e1ef1d7842f27f2e6be0972bb708b9a135c38860dbe73c27c3486c34f4de\")\n  return(0x00, dataSize(sub_0))\nstop\n\nsub_0: assembly {\n        /* \"contracts/BS_UserContract.sol\":57:1757  contract UserContract {... */\n      mstore(0x40, 0x80)\n      callvalue\n      dup1\n      iszero\n      tag_1\n      jumpi\n      0x00\n      dup1\n      revert\n    tag_1:\n      pop\n      jumpi(tag_2, lt(calldatasize, 0x04))\n      shr(0xe0, calldataload(0x00))\n      dup1\n      0x8129fc1c\n      gt\n      tag_14\n      jumpi\n      dup1\n      0x8129fc1c\n      eq\n      tag_8\n      jumpi\n      dup1\n      0x99fe2628\n      eq\n      tag_9\n      jumpi\n      dup1\n      0xaf596c99\n      eq\n      tag_10\n      jumpi\n      dup1\n      0xc45a0155\n      eq\n      tag_11\n      jumpi\n      dup1\n      0xd071cb0f\n      eq\n      tag_12\n      jumpi\n      dup1\n      0xdbb06c93\n      eq\n      tag_13\n      jumpi\n      jump(tag_2)\n    tag_14:\n      dup1\n      0x158ef93e\n      eq\n      tag_3\n      jumpi\n      dup1\n      0x1dc5b2d8\n      eq\n      tag_4\n      jumpi\n      dup1\n      0x36cb8477\n      eq\n      tag_5\n      jumpi\n      dup1\n      0x476b4364\n      eq\n      tag_6\n      jumpi\n      dup1\n      0x7d729478\n      eq\n      tag_7\n      jumpi\n    tag_2:\n      0x00\n      dup1\n      revert\n        /* \"contracts/BS_UserContract.sol\":412:435  bool public initialized */\n    tag_3:\n      tag_15\n      tag_16\n      jump\t// in\n    tag_15:\n      mload(0x40)\n      tag_17\n      swap2\n      swap1\n      tag_18\n      jump\t// in\n    tag_17:\n      mload(0x40)\n      dup1\n      swap2\n      sub\n      swap1\n      return\n        /* \"contracts/BS_UserContract.sol\":237:261  bytes32 public activeASK */\n    tag_4:\n      tag_19\n      tag_20\n      jump\t// in\n    tag_19:\n      mload(0x40)\n      tag_21\n      swap2\n      swap1\n      tag_22\n      jump\t// in\n    tag_21:\n      mload(0x40)\n      dup1\n      swap2\n      sub\n      swap1\n      return\n        /* \"contracts/BS_UserContract.sol\":161:195  bytes32 public immutable emailHash */\n    tag_5:\n      tag_23\n      tag_24\n      jump\t// in\n    tag_23:\n      mload(0x40)\n      tag_25\n      swap2\n      swap1\n      tag_22\n      jump\t// in\n    tag_25:\n      mload(0x40)\n      dup1\n      swap2\n      sub\n      swap1\n      return\n        /* \"contracts/BS_UserContract.sol\":267:291  uint64  public askExpiry */\n    tag_6:\n      tag_26\n      tag_27\n      jump\t// in\n    tag_26:\n      mload(0x40)\n      tag_28\n      swap2\n      swap1\n      tag_29\n      jump\t// in\n    tag_28:\n      mload(0x40)\n      dup1\n      swap2\n      sub\n      swap1\n      return\n        /* \"contracts/BS_UserContract.sol\":970:1029  function backupKey() external  onlyEnclave {... */\n    tag_7:\n      tag_30\n      tag_31\n      jump\t// in\n    tag_30:\n      stop\n        /* \"contracts/BS_UserContract.sol\":1085:1210  function initialize() external onlyFactory {... */\n    tag_8:\n      tag_32\n      tag_33\n      jump\t// in\n    tag_32:\n      stop\n        /* \"contracts/BS_UserContract.sol\":1609:1755  function isASKActive(bytes32 askPubkey) external view returns (bool) {... */\n    tag_9:\n      tag_34\n      0x04\n      dup1\n      calldatasize\n      sub\n      dup2\n      add\n      swap1\n      tag_35\n      swap2\n      swap1\n      tag_36\n      jump\t// in\n    tag_35:\n      tag_37\n      jump\t// in\n    tag_34:\n      mload(0x40)\n      tag_38\n      swap2\n      swap1\n      tag_18\n      jump\t// in\n    tag_38:\n      mload(0x40)\n      dup1\n      swap2\n      sub\n      swap1\n      return\n        /* \"contracts/BS_UserContract.sol\":1256:1603  function activateASK(... */\n    tag_10:\n      tag_39\n      0x04\n      dup1\n      calldatasize\n      sub\n      dup2\n      add\n      swap1\n      tag_40\n      swap2\n      swap1\n      tag_41\n      jump\t// in\n    tag_40:\n      tag_42\n      jump\t// in\n    tag_39:\n      stop\n        /* \"contracts/BS_UserContract.sol\":85:117  address public immutable factory */\n    tag_11:\n      tag_43\n      tag_44\n      jump\t// in\n    tag_43:\n      mload(0x40)\n      tag_45\n      swap2\n      swap1\n      tag_46\n      jump\t// in\n    tag_45:\n      mload(0x40)\n      dup1\n      swap2\n      sub\n      swap1\n      return\n        /* \"contracts/BS_UserContract.sol\":362:405  mapping(bytes32 => bool) public allowedPCR0 */\n    tag_12:\n      tag_47\n      0x04\n      dup1\n      calldatasize\n      sub\n      dup2\n      add\n      swap1\n      tag_48\n      swap2\n      swap1\n      tag_36\n      jump\t// in\n    tag_48:\n      tag_49\n      jump\t// in\n    tag_47:\n      mload(0x40)\n      tag_50\n      swap2\n      swap1\n      tag_18\n      jump\t// in\n    tag_50:\n      mload(0x40)\n      dup1\n      swap2\n      sub\n      swap1\n      return\n        /* \"contracts/BS_UserContract.sol\":123:155  address public immutable enclave */\n    tag_13:\n      tag_51\n      tag_52\n      jump\t// in\n    tag_51:\n      mload(0x40)\n      tag_53\n      swap2\n      swap1\n      tag_46\n      jump\t// in\n    tag_53:\n      mload(0x40)\n      dup1\n      swap2\n      sub\n      swap1\n      return\n        /* \"contracts/BS_UserContract.sol\":412:435  bool public initialized */\n    tag_16:\n      0x04\n      0x00\n      swap1\n      sload\n      swap1\n      0x0100\n      exp\n      swap1\n      div\n      0xff\n      and\n      dup2\n      jump\t// out\n        /* \"contracts/BS_UserContract.sol\":237:261  bytes32 public activeASK */\n    tag_20:\n      sload(0x00)\n      dup2\n      jump\t// out\n        /* \"contracts/BS_UserContract.sol\":161:195  bytes32 public immutable emailHash */\n    tag_24:\n      immutable(\"0x52f1a9b320cab38e5da8a8f97989383aab0a49165fc91c737310e4f7e9821021\")\n      dup2\n      jump\t// out\n        /* \"contracts/BS_UserContract.sol\":267:291  uint64  public askExpiry */\n    tag_27:\n      0x01\n      0x00\n      swap1\n      sload\n      swap1\n      0x0100\n      exp\n      swap1\n      div\n      0xffffffffffffffff\n      and\n      dup2\n      jump\t// out\n        /* \"contracts/BS_UserContract.sol\":970:1029  function backupKey() external  onlyEnclave {... */\n    tag_31:\n        /* \"contracts/BS_UserContract.sol\":599:606  enclave */\n      immutable(\"0xceebf77a833b30520287ddd9478ff51abbdffa30aa90a8d655dba0e8a79ce0c1\")\n        /* \"contracts/BS_UserContract.sol\":585:606  msg.sender == enclave */\n      0xffffffffffffffffffffffffffffffffffffffff\n      and\n        /* \"contracts/BS_UserContract.sol\":585:595  msg.sender */\n      caller\n        /* \"contracts/BS_UserContract.sol\":585:606  msg.sender == enclave */\n      0xffffffffffffffffffffffffffffffffffffffff\n      and\n      eq\n        /* \"contracts/BS_UserContract.sol\":577:622  require(msg.sender == enclave, \"NOT_ENCLAVE\") */\n      tag_55\n      jumpi\n      mload(0x40)\n      0x08c379a000000000000000000000000000000000000000000000000000000000\n      dup2\n      mstore\n      0x04\n      add\n      tag_56\n      swap1\n      tag_57\n      jump\t// in\n    tag_56:\n      mload(0x40)\n      dup1\n      swap2\n      sub\n      swap1\n      revert\n    tag_55:\n        /* \"contracts/BS_UserContract.sol\":970:1029  function backupKey() external  onlyEnclave {... */\n      jump\t// out\n        /* \"contracts/BS_UserContract.sol\":1085:1210  function initialize() external onlyFactory {... */\n    tag_33:\n        /* \"contracts/BS_UserContract.sol\":497:504  factory */\n      immutable(\"0x2a80e1ef1d7842f27f2e6be0972bb708b9a135c38860dbe73c27c3486c34f4de\")\n        /* \"contracts/BS_UserContract.sol\":483:504  msg.sender == factory */\n      0xffffffffffffffffffffffffffffffffffffffff\n      and\n        /* \"contracts/BS_UserContract.sol\":483:493  msg.sender */\n      caller\n        /* \"contracts/BS_UserContract.sol\":483:504  msg.sender == factory */\n      0xffffffffffffffffffffffffffffffffffffffff\n      and\n      eq\n        /* \"contracts/BS_UserContract.sol\":475:520  require(msg.sender == factory, \"NOT_FACTORY\") */\n      tag_60\n      jumpi\n      mload(0x40)\n      0x08c379a000000000000000000000000000000000000000000000000000000000\n      dup2\n      mstore\n      0x04\n      add\n      tag_61\n      swap1\n      tag_62\n      jump\t// in\n    tag_61:\n      mload(0x40)\n      dup1\n      swap2\n      sub\n      swap1\n      revert\n    tag_60:\n        /* \"contracts/BS_UserContract.sol\":1147:1158  initialized */\n      0x04\n      0x00\n      swap1\n      sload\n      swap1\n      0x0100\n      exp\n      swap1\n      div\n      0xff\n      and\n        /* \"contracts/BS_UserContract.sol\":1146:1158  !initialized */\n      iszero\n        /* \"contracts/BS_UserContract.sol\":1138:1175  require(!initialized, \"ALREADY_INIT\") */\n      tag_64\n      jumpi\n      mload(0x40)\n      0x08c379a000000000000000000000000000000000000000000000000000000000\n      dup2\n      mstore\n      0x04\n      add\n      tag_65\n      swap1\n      tag_66\n      jump\t// in\n    tag_65:\n      mload(0x40)\n      dup1\n      swap2\n      sub\n      swap1\n      revert\n    tag_64:\n        /* \"contracts/BS_UserContract.sol\":1199:1203  true */\n      0x01\n        /* \"contracts/BS_UserContract.sol\":1185:1196  initialized */\n      0x04\n      0x00\n        /* \"contracts/BS_UserContract.sol\":1185:1203  initialized = true */\n      0x0100\n      exp\n      dup2\n      sload\n      dup2\n      0xff\n      mul\n      not\n      and\n      swap1\n      dup4\n      iszero\n      iszero\n      mul\n      or\n      swap1\n      sstore\n      pop\n        /* \"contracts/BS_UserContract.sol\":1085:1210  function initialize() external onlyFactory {... */\n      jump\t// out\n        /* \"contracts/BS_UserContract.sol\":1609:1755  function isASKActive(bytes32 askPubkey) external view returns (bool) {... */\n    tag_37:\n        /* \"contracts/BS_UserContract.sol\":1672:1676  bool */\n      0x00\n        /* \"contracts/BS_UserContract.sol\":1708:1717  askPubkey */\n      dup2\n        /* \"contracts/BS_UserContract.sol\":1695:1704  activeASK */\n      sload(0x00)\n        /* \"contracts/BS_UserContract.sol\":1695:1717  activeASK == askPubkey */\n      eq\n        /* \"contracts/BS_UserContract.sol\":1695:1748  activeASK == askPubkey && block.timestamp < askExpiry */\n      dup1\n      iszero\n      tag_68\n      jumpi\n      pop\n        /* \"contracts/BS_UserContract.sol\":1739:1748  askExpiry */\n      0x01\n      0x00\n      swap1\n      sload\n      swap1\n      0x0100\n      exp\n      swap1\n      div\n      0xffffffffffffffff\n      and\n        /* \"contracts/BS_UserContract.sol\":1721:1748  block.timestamp < askExpiry */\n      0xffffffffffffffff\n      and\n        /* \"contracts/BS_UserContract.sol\":1721:1736  block.timestamp */\n      timestamp\n        /* \"contracts/BS_UserContract.sol\":1721:1748  block.timestamp < askExpiry */\n      lt\n        /* \"contracts/BS_UserContract.sol\":1695:1748  activeASK == askPubkey && block.timestamp < askExpiry */\n    tag_68:\n        /* \"contracts/BS_UserContract.sol\":1688:1748  return activeASK == askPubkey && block.timestamp < askExpiry */\n      swap1\n      pop\n        /* \"contracts/BS_UserContract.sol\":1609:1755  function isASKActive(bytes32 askPubkey) external view returns (bool) {... */\n      swap2\n      swap1\n      pop\n      jump\t// out\n        /* \"contracts/BS_UserContract.sol\":1256:1603  function activateASK(... */\n    tag_42:\n        /* \"contracts/BS_UserContract.sol\":1389:1400  allowedPCR0 */\n      0x03\n        /* \"contracts/BS_UserContract.sol\":1389:1413  allowedPCR0[enclavePCR0] */\n      0x00\n        /* \"contracts/BS_UserContract.sol\":1401:1412  enclavePCR0 */\n      dup3\n        /* \"contracts/BS_UserContract.sol\":1389:1413  allowedPCR0[enclavePCR0] */\n      dup2\n      mstore\n      0x20\n      add\n      swap1\n      dup2\n      mstore\n      0x20\n      add\n      0x00\n      keccak256\n      0x00\n      swap1\n      sload\n      swap1\n      0x0100\n      exp\n      swap1\n      div\n      0xff\n      and\n        /* \"contracts/BS_UserContract.sol\":1381:1434  require(allowedPCR0[enclavePCR0], \"PCR0_NOT_ALLOWED\") */\n      tag_70\n      jumpi\n      mload(0x40)\n      0x08c379a000000000000000000000000000000000000000000000000000000000\n      dup2\n      mstore\n      0x04\n      add\n      tag_71\n      swap1\n      tag_72\n      jump\t// in\n    tag_71:\n      mload(0x40)\n      dup1\n      swap2\n      sub\n      swap1\n      revert\n    tag_70:\n        /* \"contracts/BS_UserContract.sol\":1470:1476  expiry */\n      dup2\n        /* \"contracts/BS_UserContract.sol\":1452:1476  block.timestamp < expiry */\n      0xffffffffffffffff\n      and\n        /* \"contracts/BS_UserContract.sol\":1452:1467  block.timestamp */\n      timestamp\n        /* \"contracts/BS_UserContract.sol\":1452:1476  block.timestamp < expiry */\n      lt\n        /* \"contracts/BS_UserContract.sol\":1444:1488  require(block.timestamp < expiry, \"EXPIRED\") */\n      tag_73\n      jumpi\n      mload(0x40)\n      0x08c379a000000000000000000000000000000000000000000000000000000000\n      dup2\n      mstore\n      0x04\n      add\n      tag_74\n      swap1\n      tag_75\n      jump\t// in\n    tag_74:\n      mload(0x40)\n      dup1\n      swap2\n      sub\n      swap1\n      revert\n    tag_73:\n        /* \"contracts/BS_UserContract.sol\":1559:1568  askPubkey */\n      dup3\n        /* \"contracts/BS_UserContract.sol\":1547:1556  activeASK */\n      0x00\n        /* \"contracts/BS_UserContract.sol\":1547:1568  activeASK = askPubkey */\n      dup2\n      swap1\n      sstore\n      pop\n        /* \"contracts/BS_UserContract.sol\":1590:1596  expiry */\n      dup2\n        /* \"contracts/BS_UserContract.sol\":1578:1587  askExpiry */\n      0x01\n      0x00\n        /* \"contracts/BS_UserContract.sol\":1578:1596  askExpiry = expiry */\n      0x0100\n      exp\n      dup2\n      sload\n      dup2\n      0xffffffffffffffff\n      mul\n      not\n      and\n      swap1\n      dup4\n      0xffffffffffffffff\n      and\n      mul\n      or\n      swap1\n      sstore\n      pop\n        /* \"contracts/BS_UserContract.sol\":1256:1603  function activateASK(... */\n      pop\n      pop\n      pop\n      jump\t// out\n        /* \"contracts/BS_UserContract.sol\":85:117  address public immutable factory */\n    tag_44:\n      immutable(\"0x2a80e1ef1d7842f27f2e6be0972bb708b9a135c38860dbe73c27c3486c34f4de\")\n      dup2\n      jump\t// out\n        /* \"contracts/BS_UserContract.sol\":362:405  mapping(bytes32 => bool) public allowedPCR0 */\n    tag_49:\n      mstore(0x20, 0x03)\n      dup1\n      0x00\n      mstore\n      keccak256(0x00, 0x40)\n      0x00\n      swap2\n      pop\n      sload\n      swap1\n      0x0100\n      exp\n      swap1\n      div\n      0xff\n      and\n      dup2\n      jump\t// out\n        /* \"contracts/BS_UserContract.sol\":123:155  address public immutable enclave */\n    tag_52:\n      immutable(\"0xceebf77a833b30520287ddd9478ff51abbdffa30aa90a8d655dba0e8a79ce0c1\")\n      dup2\n      jump\t// out\n        /* \"#utility.yul\":7:97   */\n    tag_76:\n        /* \"#utility.yul\":41:48   */\n      0x00\n        /* \"#utility.yul\":84:89   */\n      dup2\n        /* \"#utility.yul\":77:90   */\n      iszero\n        /* \"#utility.yul\":70:91   */\n      iszero\n        /* \"#utility.yul\":59:91   */\n      swap1\n      pop\n        /* \"#utility.yul\":7:97   */\n      swap2\n      swap1\n      pop\n      jump\t// out\n        /* \"#utility.yul\":103:212   */\n    tag_77:\n        /* \"#utility.yul\":184:205   */\n      tag_106\n        /* \"#utility.yul\":199:204   */\n      dup2\n        /* \"#utility.yul\":184:205   */\n      tag_76\n      jump\t// in\n    tag_106:\n        /* \"#utility.yul\":179:182   */\n      dup3\n        /* \"#utility.yul\":172:206   */\n      mstore\n        /* \"#utility.yul\":103:212   */\n      pop\n      pop\n      jump\t// out\n        /* \"#utility.yul\":218:428   */\n    tag_18:\n        /* \"#utility.yul\":305:309   */\n      0x00\n        /* \"#utility.yul\":343:345   */\n      0x20\n        /* \"#utility.yul\":332:341   */\n      dup3\n        /* \"#utility.yul\":328:346   */\n      add\n        /* \"#utility.yul\":320:346   */\n      swap1\n      pop\n        /* \"#utility.yul\":356:421   */\n      tag_108\n        /* \"#utility.yul\":418:419   */\n      0x00\n        /* \"#utility.yul\":407:416   */\n      dup4\n        /* \"#utility.yul\":403:420   */\n      add\n        /* \"#utility.yul\":394:400   */\n      dup5\n        /* \"#utility.yul\":356:421   */\n      tag_77\n      jump\t// in\n    tag_108:\n        /* \"#utility.yul\":218:428   */\n      swap3\n      swap2\n      pop\n      pop\n      jump\t// out\n        /* \"#utility.yul\":434:511   */\n    tag_78:\n        /* \"#utility.yul\":471:478   */\n      0x00\n        /* \"#utility.yul\":500:505   */\n      dup2\n        /* \"#utility.yul\":489:505   */\n      swap1\n      pop\n        /* \"#utility.yul\":434:511   */\n      swap2\n      swap1\n      pop\n      jump\t// out\n        /* \"#utility.yul\":517:635   */\n    tag_79:\n        /* \"#utility.yul\":604:628   */\n      tag_111\n        /* \"#utility.yul\":622:627   */\n      dup2\n        /* \"#utility.yul\":604:628   */\n      tag_78\n      jump\t// in\n    tag_111:\n        /* \"#utility.yul\":599:602   */\n      dup3\n        /* \"#utility.yul\":592:629   */\n      mstore\n        /* \"#utility.yul\":517:635   */\n      pop\n      pop\n      jump\t// out\n        /* \"#utility.yul\":641:863   */\n    tag_22:\n        /* \"#utility.yul\":734:738   */\n      0x00\n        /* \"#utility.yul\":772:774   */\n      0x20\n        /* \"#utility.yul\":761:770   */\n      dup3\n        /* \"#utility.yul\":757:775   */\n      add\n        /* \"#utility.yul\":749:775   */\n      swap1\n      pop\n        /* \"#utility.yul\":785:856   */\n      tag_113\n        /* \"#utility.yul\":853:854   */\n      0x00\n        /* \"#utility.yul\":842:851   */\n      dup4\n        /* \"#utility.yul\":838:855   */\n      add\n        /* \"#utility.yul\":829:835   */\n      dup5\n        /* \"#utility.yul\":785:856   */\n      tag_79\n      jump\t// in\n    tag_113:\n        /* \"#utility.yul\":641:863   */\n      swap3\n      swap2\n      pop\n      pop\n      jump\t// out\n        /* \"#utility.yul\":869:970   */\n    tag_80:\n        /* \"#utility.yul\":905:912   */\n      0x00\n        /* \"#utility.yul\":945:963   */\n      0xffffffffffffffff\n        /* \"#utility.yul\":938:943   */\n      dup3\n        /* \"#utility.yul\":934:964   */\n      and\n        /* \"#utility.yul\":923:964   */\n      swap1\n      pop\n        /* \"#utility.yul\":869:970   */\n      swap2\n      swap1\n      pop\n      jump\t// out\n        /* \"#utility.yul\":976:1091   */\n    tag_81:\n        /* \"#utility.yul\":1061:1084   */\n      tag_116\n        /* \"#utility.yul\":1078:1083   */\n      dup2\n        /* \"#utility.yul\":1061:1084   */\n      tag_80\n      jump\t// in\n    tag_116:\n        /* \"#utility.yul\":1056:1059   */\n      dup3\n        /* \"#utility.yul\":1049:1085   */\n      mstore\n        /* \"#utility.yul\":976:1091   */\n      pop\n      pop\n      jump\t// out\n        /* \"#utility.yul\":1097:1315   */\n    tag_29:\n        /* \"#utility.yul\":1188:1192   */\n      0x00\n        /* \"#utility.yul\":1226:1228   */\n      0x20\n        /* \"#utility.yul\":1215:1224   */\n      dup3\n        /* \"#utility.yul\":1211:1229   */\n      add\n        /* \"#utility.yul\":1203:1229   */\n      swap1\n      pop\n        /* \"#utility.yul\":1239:1308   */\n      tag_118\n        /* \"#utility.yul\":1305:1306   */\n      0x00\n        /* \"#utility.yul\":1294:1303   */\n      dup4\n        /* \"#utility.yul\":1290:1307   */\n      add\n        /* \"#utility.yul\":1281:1287   */\n      dup5\n        /* \"#utility.yul\":1239:1308   */\n      tag_81\n      jump\t// in\n    tag_118:\n        /* \"#utility.yul\":1097:1315   */\n      swap3\n      swap2\n      pop\n      pop\n      jump\t// out\n        /* \"#utility.yul\":1402:1519   */\n    tag_83:\n        /* \"#utility.yul\":1511:1512   */\n      0x00\n        /* \"#utility.yul\":1508:1509   */\n      dup1\n        /* \"#utility.yul\":1501:1513   */\n      revert\n        /* \"#utility.yul\":1648:1770   */\n    tag_85:\n        /* \"#utility.yul\":1721:1745   */\n      tag_123\n        /* \"#utility.yul\":1739:1744   */\n      dup2\n        /* \"#utility.yul\":1721:1745   */\n      tag_78\n      jump\t// in\n    tag_123:\n        /* \"#utility.yul\":1714:1719   */\n      dup2\n        /* \"#utility.yul\":1711:1746   */\n      eq\n        /* \"#utility.yul\":1701:1764   */\n      tag_124\n      jumpi\n        /* \"#utility.yul\":1760:1761   */\n      0x00\n        /* \"#utility.yul\":1757:1758   */\n      dup1\n        /* \"#utility.yul\":1750:1762   */\n      revert\n        /* \"#utility.yul\":1701:1764   */\n    tag_124:\n        /* \"#utility.yul\":1648:1770   */\n      pop\n      jump\t// out\n        /* \"#utility.yul\":1776:1915   */\n    tag_86:\n        /* \"#utility.yul\":1822:1827   */\n      0x00\n        /* \"#utility.yul\":1860:1866   */\n      dup2\n        /* \"#utility.yul\":1847:1867   */\n      calldataload\n        /* \"#utility.yul\":1838:1867   */\n      swap1\n      pop\n        /* \"#utility.yul\":1876:1909   */\n      tag_126\n        /* \"#utility.yul\":1903:1908   */\n      dup2\n        /* \"#utility.yul\":1876:1909   */\n      tag_85\n      jump\t// in\n    tag_126:\n        /* \"#utility.yul\":1776:1915   */\n      swap3\n      swap2\n      pop\n      pop\n      jump\t// out\n        /* \"#utility.yul\":1921:2250   */\n    tag_36:\n        /* \"#utility.yul\":1980:1986   */\n      0x00\n        /* \"#utility.yul\":2029:2031   */\n      0x20\n        /* \"#utility.yul\":2017:2026   */\n      dup3\n        /* \"#utility.yul\":2008:2015   */\n      dup5\n        /* \"#utility.yul\":2004:2027   */\n      sub\n        /* \"#utility.yul\":2000:2032   */\n      slt\n        /* \"#utility.yul\":1997:2116   */\n      iszero\n      tag_128\n      jumpi\n        /* \"#utility.yul\":2035:2114   */\n      tag_129\n      tag_83\n      jump\t// in\n    tag_129:\n        /* \"#utility.yul\":1997:2116   */\n    tag_128:\n        /* \"#utility.yul\":2155:2156   */\n      0x00\n        /* \"#utility.yul\":2180:2233   */\n      tag_130\n        /* \"#utility.yul\":2225:2232   */\n      dup5\n        /* \"#utility.yul\":2216:2222   */\n      dup3\n        /* \"#utility.yul\":2205:2214   */\n      dup6\n        /* \"#utility.yul\":2201:2223   */\n      add\n        /* \"#utility.yul\":2180:2233   */\n      tag_86\n      jump\t// in\n    tag_130:\n        /* \"#utility.yul\":2170:2233   */\n      swap2\n      pop\n        /* \"#utility.yul\":2126:2243   */\n      pop\n        /* \"#utility.yul\":1921:2250   */\n      swap3\n      swap2\n      pop\n      pop\n      jump\t// out\n        /* \"#utility.yul\":2256:2376   */\n    tag_87:\n        /* \"#utility.yul\":2328:2351   */\n      tag_132\n        /* \"#utility.yul\":2345:2350   */\n      dup2\n        /* \"#utility.yul\":2328:2351   */\n      tag_80\n      jump\t// in\n    tag_132:\n        /* \"#utility.yul\":2321:2326   */\n      dup2\n        /* \"#utility.yul\":2318:2352   */\n      eq\n        /* \"#utility.yul\":2308:2370   */\n      tag_133\n      jumpi\n        /* \"#utility.yul\":2366:2367   */\n      0x00\n        /* \"#utility.yul\":2363:2364   */\n      dup1\n        /* \"#utility.yul\":2356:2368   */\n      revert\n        /* \"#utility.yul\":2308:2370   */\n    tag_133:\n        /* \"#utility.yul\":2256:2376   */\n      pop\n      jump\t// out\n        /* \"#utility.yul\":2382:2519   */\n    tag_88:\n        /* \"#utility.yul\":2427:2432   */\n      0x00\n        /* \"#utility.yul\":2465:2471   */\n      dup2\n        /* \"#utility.yul\":2452:2472   */\n      calldataload\n        /* \"#utility.yul\":2443:2472   */\n      swap1\n      pop\n        /* \"#utility.yul\":2481:2513   */\n      tag_135\n        /* \"#utility.yul\":2507:2512   */\n      dup2\n        /* \"#utility.yul\":2481:2513   */\n      tag_87\n      jump\t// in\n    tag_135:\n        /* \"#utility.yul\":2382:2519   */\n      swap3\n      swap2\n      pop\n      pop\n      jump\t// out\n        /* \"#utility.yul\":2525:3142   */\n    tag_41:\n        /* \"#utility.yul\":2601:2607   */\n      0x00\n        /* \"#utility.yul\":2609:2615   */\n      dup1\n        /* \"#utility.yul\":2617:2623   */\n      0x00\n        /* \"#utility.yul\":2666:2668   */\n      0x60\n        /* \"#utility.yul\":2654:2663   */\n      dup5\n        /* \"#utility.yul\":2645:2652   */\n      dup7\n        /* \"#utility.yul\":2641:2664   */\n      sub\n        /* \"#utility.yul\":2637:2669   */\n      slt\n        /* \"#utility.yul\":2634:2753   */\n      iszero\n      tag_137\n      jumpi\n        /* \"#utility.yul\":2672:2751   */\n      tag_138\n      tag_83\n      jump\t// in\n    tag_138:\n        /* \"#utility.yul\":2634:2753   */\n    tag_137:\n        /* \"#utility.yul\":2792:2793   */\n      0x00\n        /* \"#utility.yul\":2817:2870   */\n      tag_139\n        /* \"#utility.yul\":2862:2869   */\n      dup7\n        /* \"#utility.yul\":2853:2859   */\n      dup3\n        /* \"#utility.yul\":2842:2851   */\n      dup8\n        /* \"#utility.yul\":2838:2860   */\n      add\n        /* \"#utility.yul\":2817:2870   */\n      tag_86\n      jump\t// in\n    tag_139:\n        /* \"#utility.yul\":2807:2870   */\n      swap4\n      pop\n        /* \"#utility.yul\":2763:2880   */\n      pop\n        /* \"#utility.yul\":2919:2921   */\n      0x20\n        /* \"#utility.yul\":2945:2997   */\n      tag_140\n        /* \"#utility.yul\":2989:2996   */\n      dup7\n        /* \"#utility.yul\":2980:2986   */\n      dup3\n        /* \"#utility.yul\":2969:2978   */\n      dup8\n        /* \"#utility.yul\":2965:2987   */\n      add\n        /* \"#utility.yul\":2945:2997   */\n      tag_88\n      jump\t// in\n    tag_140:\n        /* \"#utility.yul\":2935:2997   */\n      swap3\n      pop\n        /* \"#utility.yul\":2890:3007   */\n      pop\n        /* \"#utility.yul\":3046:3048   */\n      0x40\n        /* \"#utility.yul\":3072:3125   */\n      tag_141\n        /* \"#utility.yul\":3117:3124   */\n      dup7\n        /* \"#utility.yul\":3108:3114   */\n      dup3\n        /* \"#utility.yul\":3097:3106   */\n      dup8\n        /* \"#utility.yul\":3093:3115   */\n      add\n        /* \"#utility.yul\":3072:3125   */\n      tag_86\n      jump\t// in\n    tag_141:\n        /* \"#utility.yul\":3062:3125   */\n      swap2\n      pop\n        /* \"#utility.yul\":3017:3135   */\n      pop\n        /* \"#utility.yul\":2525:3142   */\n      swap3\n      pop\n      swap3\n      pop\n      swap3\n      jump\t// out\n        /* \"#utility.yul\":3148:3274   */\n    tag_89:\n        /* \"#utility.yul\":3185:3192   */\n      0x00\n        /* \"#utility.yul\":3225:3267   */\n      0xffffffffffffffffffffffffffffffffffffffff\n        /* \"#utility.yul\":3218:3223   */\n      dup3\n        /* \"#utility.yul\":3214:3268   */\n      and\n        /* \"#utility.yul\":3203:3268   */\n      swap1\n      pop\n        /* \"#utility.yul\":3148:3274   */\n      swap2\n      swap1\n      pop\n      jump\t// out\n        /* \"#utility.yul\":3280:3376   */\n    tag_90:\n        /* \"#utility.yul\":3317:3324   */\n      0x00\n        /* \"#utility.yul\":3346:3370   */\n      tag_144\n        /* \"#utility.yul\":3364:3369   */\n      dup3\n        /* \"#utility.yul\":3346:3370   */\n      tag_89\n      jump\t// in\n    tag_144:\n        /* \"#utility.yul\":3335:3370   */\n      swap1\n      pop\n        /* \"#utility.yul\":3280:3376   */\n      swap2\n      swap1\n      pop\n      jump\t// out\n        /* \"#utility.yul\":3382:3500   */\n    tag_91:\n        /* \"#utility.yul\":3469:3493   */\n      tag_146\n        /* \"#utility.yul\":3487:3492   */\n      dup2\n        /* \"#utility.yul\":3469:3493   */\n      tag_90\n      jump\t// in\n    tag_146:\n        /* \"#utility.yul\":3464:3467   */\n      dup3\n        /* \"#utility.yul\":3457:3494   */\n      mstore\n        /* \"#utility.yul\":3382:3500   */\n      pop\n      pop\n      jump\t// out\n        /* \"#utility.yul\":3506:3728   */\n    tag_46:\n        /* \"#utility.yul\":3599:3603   */\n      0x00\n        /* \"#utility.yul\":3637:3639   */\n      0x20\n        /* \"#utility.yul\":3626:3635   */\n      dup3\n        /* \"#utility.yul\":3622:3640   */\n      add\n        /* \"#utility.yul\":3614:3640   */\n      swap1\n      pop\n        /* \"#utility.yul\":3650:3721   */\n      tag_148\n        /* \"#utility.yul\":3718:3719   */\n      0x00\n        /* \"#utility.yul\":3707:3716   */\n      dup4\n        /* \"#utility.yul\":3703:3720   */\n      add\n        /* \"#utility.yul\":3694:3700   */\n      dup5\n        /* \"#utility.yul\":3650:3721   */\n      tag_91\n      jump\t// in\n    tag_148:\n        /* \"#utility.yul\":3506:3728   */\n      swap3\n      swap2\n      pop\n      pop\n      jump\t// out\n        /* \"#utility.yul\":3734:3903   */\n    tag_92:\n        /* \"#utility.yul\":3818:3829   */\n      0x00\n        /* \"#utility.yul\":3852:3858   */\n      dup3\n        /* \"#utility.yul\":3847:3850   */\n      dup3\n        /* \"#utility.yul\":3840:3859   */\n      mstore\n        /* \"#utility.yul\":3892:3896   */\n      0x20\n        /* \"#utility.yul\":3887:3890   */\n      dup3\n        /* \"#utility.yul\":3883:3897   */\n      add\n        /* \"#utility.yul\":3868:3897   */\n      swap1\n      pop\n        /* \"#utility.yul\":3734:3903   */\n      swap3\n      swap2\n      pop\n      pop\n      jump\t// out\n        /* \"#utility.yul\":3909:4070   */\n    tag_93:\n        /* \"#utility.yul\":4049:4062   */\n      0x4e4f545f454e434c415645000000000000000000000000000000000000000000\n        /* \"#utility.yul\":4045:4046   */\n      0x00\n        /* \"#utility.yul\":4037:4043   */\n      dup3\n        /* \"#utility.yul\":4033:4047   */\n      add\n        /* \"#utility.yul\":4026:4063   */\n      mstore\n        /* \"#utility.yul\":3909:4070   */\n      pop\n      jump\t// out\n        /* \"#utility.yul\":4076:4442   */\n    tag_94:\n        /* \"#utility.yul\":4218:4221   */\n      0x00\n        /* \"#utility.yul\":4239:4306   */\n      tag_152\n        /* \"#utility.yul\":4303:4305   */\n      0x0b\n        /* \"#utility.yul\":4298:4301   */\n      dup4\n        /* \"#utility.yul\":4239:4306   */\n      tag_92\n      jump\t// in\n    tag_152:\n        /* \"#utility.yul\":4232:4306   */\n      swap2\n      pop\n        /* \"#utility.yul\":4315:4408   */\n      tag_153\n        /* \"#utility.yul\":4404:4407   */\n      dup3\n        /* \"#utility.yul\":4315:4408   */\n      tag_93\n      jump\t// in\n    tag_153:\n        /* \"#utility.yul\":4433:4435   */\n      0x20\n        /* \"#utility.yul\":4428:4431   */\n      dup3\n        /* \"#utility.yul\":4424:4436   */\n      add\n        /* \"#utility.yul\":4417:4436   */\n      swap1\n      pop\n        /* \"#utility.yul\":4076:4442   */\n      swap2\n      swap1\n      pop\n      jump\t// out\n        /* \"#utility.yul\":4448:4867   */\n    tag_57:\n        /* \"#utility.yul\":4614:4618   */\n      0x00\n        /* \"#utility.yul\":4652:4654   */\n      0x20\n        /* \"#utility.yul\":4641:4650   */\n      dup3\n        /* \"#utility.yul\":4637:4655   */\n      add\n        /* \"#utility.yul\":4629:4655   */\n      swap1\n      pop\n        /* \"#utility.yul\":4701:4710   */\n      dup2\n        /* \"#utility.yul\":4695:4699   */\n      dup2\n        /* \"#utility.yul\":4691:4711   */\n      sub\n        /* \"#utility.yul\":4687:4688   */\n      0x00\n        /* \"#utility.yul\":4676:4685   */\n      dup4\n        /* \"#utility.yul\":4672:4689   */\n      add\n        /* \"#utility.yul\":4665:4712   */\n      mstore\n        /* \"#utility.yul\":4729:4860   */\n      tag_155\n        /* \"#utility.yul\":4855:4859   */\n      dup2\n        /* \"#utility.yul\":4729:4860   */\n      tag_94\n      jump\t// in\n    tag_155:\n        /* \"#utility.yul\":4721:4860   */\n      swap1\n      pop\n        /* \"#utility.yul\":4448:4867   */\n      swap2\n      swap1\n      pop\n      jump\t// out\n        /* \"#utility.yul\":4873:5034   */\n    tag_95:\n        /* \"#utility.yul\":5013:5026   */\n      0x4e4f545f464143544f5259000000000000000000000000000000000000000000\n        /* \"#utility.yul\":5009:5010   */\n      0x00\n        /* \"#utility.yul\":5001:5007   */\n      dup3\n        /* \"#utility.yul\":4997:5011   */\n      add\n        /* \"#utility.yul\":4990:5027   */\n      mstore\n        /* \"#utility.yul\":4873:5034   */\n      pop\n      jump\t// out\n        /* \"#utility.yul\":5040:5406   */\n    tag_96:\n        /* \"#utility.yul\":5182:5185   */\n      0x00\n        /* \"#utility.yul\":5203:5270   */\n      tag_158\n        /* \"#utility.yul\":5267:5269   */\n      0x0b\n        /* \"#utility.yul\":5262:5265   */\n      dup4\n        /* \"#utility.yul\":5203:5270   */\n      tag_92\n      jump\t// in\n    tag_158:\n        /* \"#utility.yul\":5196:5270   */\n      swap2\n      pop\n        /* \"#utility.yul\":5279:5372   */\n      tag_159\n        /* \"#utility.yul\":5368:5371   */\n      dup3\n        /* \"#utility.yul\":5279:5372   */\n      tag_95\n      jump\t// in\n    tag_159:\n        /* \"#utility.yul\":5397:5399   */\n      0x20\n        /* \"#utility.yul\":5392:5395   */\n      dup3\n        /* \"#utility.yul\":5388:5400   */\n      add\n        /* \"#utility.yul\":5381:5400   */\n      swap1\n      pop\n        /* \"#utility.yul\":5040:5406   */\n      swap2\n      swap1\n      pop\n      jump\t// out\n        /* \"#utility.yul\":5412:5831   */\n    tag_62:\n        /* \"#utility.yul\":5578:5582   */\n      0x00\n        /* \"#utility.yul\":5616:5618   */\n      0x20\n        /* \"#utility.yul\":5605:5614   */\n      dup3\n        /* \"#utility.yul\":5601:5619   */\n      add\n        /* \"#utility.yul\":5593:5619   */\n      swap1\n      pop\n        /* \"#utility.yul\":5665:5674   */\n      dup2\n        /* \"#utility.yul\":5659:5663   */\n      dup2\n        /* \"#utility.yul\":5655:5675   */\n      sub\n        /* \"#utility.yul\":5651:5652   */\n      0x00\n        /* \"#utility.yul\":5640:5649   */\n      dup4\n        /* \"#utility.yul\":5636:5653   */\n      add\n        /* \"#utility.yul\":5629:5676   */\n      mstore\n        /* \"#utility.yul\":5693:5824   */\n      tag_161\n        /* \"#utility.yul\":5819:5823   */\n      dup2\n        /* \"#utility.yul\":5693:5824   */\n      tag_96\n      jump\t// in\n    tag_161:\n        /* \"#utility.yul\":5685:5824   */\n      swap1\n      pop\n        /* \"#utility.yul\":5412:5831   */\n      swap2\n      swap1\n      pop\n      jump\t// out\n        /* \"#utility.yul\":5837:5999   */\n    tag_97:\n        /* \"#utility.yul\":5977:5991   */\n      0x414c52454144595f494e49540000000000000000000000000000000000000000\n        /* \"#utility.yul\":5973:5974   */\n      0x00\n        /* \"#utility.yul\":5965:5971   */\n      dup3\n        /* \"#utility.yul\":5961:5975   */\n      add\n        /* \"#utility.yul\":5954:5992   */\n      mstore\n        /* \"#utility.yul\":5837:5999   */\n      pop\n      jump\t// out\n        /* \"#utility.yul\":6005:6371   */\n    tag_98:\n        /* \"#utility.yul\":6147:6150   */\n      0x00\n        /* \"#utility.yul\":6168:6235   */\n      tag_164\n        /* \"#utility.yul\":6232:6234   */\n      0x0c\n        /* \"#utility.yul\":6227:6230   */\n      dup4\n        /* \"#utility.yul\":6168:6235   */\n      tag_92\n      jump\t// in\n    tag_164:\n        /* \"#utility.yul\":6161:6235   */\n      swap2\n      pop\n        /* \"#utility.yul\":6244:6337   */\n      tag_165\n        /* \"#utility.yul\":6333:6336   */\n      dup3\n        /* \"#utility.yul\":6244:6337   */\n      tag_97\n      jump\t// in\n    tag_165:\n        /* \"#utility.yul\":6362:6364   */\n      0x20\n        /* \"#utility.yul\":6357:6360   */\n      dup3\n        /* \"#utility.yul\":6353:6365   */\n      add\n        /* \"#utility.yul\":6346:6365   */\n      swap1\n      pop\n        /* \"#utility.yul\":6005:6371   */\n      swap2\n      swap1\n      pop\n      jump\t// out\n        /* \"#utility.yul\":6377:6796   */\n    tag_66:\n        /* \"#utility.yul\":6543:6547   */\n      0x00\n        /* \"#utility.yul\":6581:6583   */\n      0x20\n        /* \"#utility.yul\":6570:6579   */\n      dup3\n        /* \"#utility.yul\":6566:6584   */\n      add\n        /* \"#utility.yul\":6558:6584   */\n      swap1\n      pop\n        /* \"#utility.yul\":6630:6639   */\n      dup2\n        /* \"#utility.yul\":6624:6628   */\n      dup2\n        /* \"#utility.yul\":6620:6640   */\n      sub\n        /* \"#utility.yul\":6616:6617   */\n      0x00\n        /* \"#utility.yul\":6605:6614   */\n      dup4\n        /* \"#utility.yul\":6601:6618   */\n      add\n        /* \"#utility.yul\":6594:6641   */\n      mstore\n        /* \"#utility.yul\":6658:6789   */\n      tag_167\n        /* \"#utility.yul\":6784:6788   */\n      dup2\n        /* \"#utility.yul\":6658:6789   */\n      tag_98\n      jump\t// in\n    tag_167:\n        /* \"#utility.yul\":6650:6789   */\n      swap1\n      pop\n        /* \"#utility.yul\":6377:6796   */\n      swap2\n      swap1\n      pop\n      jump\t// out\n        /* \"#utility.yul\":6802:6968   */\n    tag_99:\n        /* \"#utility.yul\":6942:6960   */\n      0x504352305f4e4f545f414c4c4f57454400000000000000000000000000000000\n        /* \"#utility.yul\":6938:6939   */\n      0x00\n        /* \"#utility.yul\":6930:6936   */\n      dup3\n        /* \"#utility.yul\":6926:6940   */\n      add\n        /* \"#utility.yul\":6919:6961   */\n      mstore\n        /* \"#utility.yul\":6802:6968   */\n      pop\n      jump\t// out\n        /* \"#utility.yul\":6974:7340   */\n    tag_100:\n        /* \"#utility.yul\":7116:7119   */\n      0x00\n        /* \"#utility.yul\":7137:7204   */\n      tag_170\n        /* \"#utility.yul\":7201:7203   */\n      0x10\n        /* \"#utility.yul\":7196:7199   */\n      dup4\n        /* \"#utility.yul\":7137:7204   */\n      tag_92\n      jump\t// in\n    tag_170:\n        /* \"#utility.yul\":7130:7204   */\n      swap2\n      pop\n        /* \"#utility.yul\":7213:7306   */\n      tag_171\n        /* \"#utility.yul\":7302:7305   */\n      dup3\n        /* \"#utility.yul\":7213:7306   */\n      tag_99\n      jump\t// in\n    tag_171:\n        /* \"#utility.yul\":7331:7333   */\n      0x20\n        /* \"#utility.yul\":7326:7329   */\n      dup3\n        /* \"#utility.yul\":7322:7334   */\n      add\n        /* \"#utility.yul\":7315:7334   */\n      swap1\n      pop\n        /* \"#utility.yul\":6974:7340   */\n      swap2\n      swap1\n      pop\n      jump\t// out\n        /* \"#utility.yul\":7346:7765   */\n    tag_72:\n        /* \"#utility.yul\":7512:7516   */\n      0x00\n        /* \"#utility.yul\":7550:7552   */\n      0x20\n        /* \"#utility.yul\":7539:7548   */\n      dup3\n        /* \"#utility.yul\":7535:7553   */\n      add\n        /* \"#utility.yul\":7527:7553   */\n      swap1\n      pop\n        /* \"#utility.yul\":7599:7608   */\n      dup2\n        /* \"#utility.yul\":7593:7597   */\n      dup2\n        /* \"#utility.yul\":7589:7609   */\n      sub\n        /* \"#utility.yul\":7585:7586   */\n      0x00\n        /* \"#utility.yul\":7574:7583   */\n      dup4\n        /* \"#utility.yul\":7570:7587   */\n      add\n        /* \"#utility.yul\":7563:7610   */\n      mstore\n        /* \"#utility.yul\":7627:7758   */\n      tag_173\n        /* \"#utility.yul\":7753:7757   */\n      dup2\n        /* \"#utility.yul\":7627:7758   */\n      tag_100\n      jump\t// in\n    tag_173:\n        /* \"#utility.yul\":7619:7758   */\n      swap1\n      pop\n        /* \"#utility.yul\":7346:7765   */\n      swap2\n      swap1\n      pop\n      jump\t// out\n        /* \"#utility.yul\":7771:7928   */\n    tag_101:\n        /* \"#utility.yul\":7911:7920   */\n      0x4558504952454400000000000000000000000000000000000000000000000000\n        /* \"#utility.yul\":7907:7908   */\n      0x00\n        /* \"#utility.yul\":7899:7905   */\n      dup3\n        /* \"#utility.yul\":7895:7909   */\n      add\n        /* \"#utility.yul\":7888:7921   */\n      mstore\n        /* \"#utility.yul\":7771:7928   */\n      pop\n      jump\t// out\n        /* \"#utility.yul\":7934:8299   */\n    tag_102:\n        /* \"#utility.yul\":8076:8079   */\n      0x00\n        /* \"#utility.yul\":8097:8163   */\n      tag_176\n        /* \"#utility.yul\":8161:8162   */\n      0x07\n        /* \"#utility.yul\":8156:8159   */\n      dup4\n        /* \"#utility.yul\":8097:8163   */\n      tag_92\n      jump\t// in\n    tag_176:\n        /* \"#utility.yul\":8090:8163   */\n      swap2\n      pop\n        /* \"#utility.yul\":8172:8265   */\n      tag_177\n        /* \"#utility.yul\":8261:8264   */\n      dup3\n        /* \"#utility.yul\":8172:8265   */\n      tag_101\n      jump\t// in\n    tag_177:\n        /* \"#utility.yul\":8290:8292   */\n      0x20\n        /* \"#utility.yul\":8285:8288   */\n      dup3\n        /* \"#utility.yul\":8281:8293   */\n      add\n        /* \"#utility.yul\":8274:8293   */\n      swap1\n      pop\n        /* \"#utility.yul\":7934:8299   */\n      swap2\n      swap1\n      pop\n      jump\t// out\n        /* \"#utility.yul\":8305:8724   */\n    tag_75:\n        /* \"#utility.yul\":8471:8475   */\n      0x00\n        /* \"#utility.yul\":8509:8511   */\n      0x20\n        /* \"#utility.yul\":8498:8507   */\n      dup3\n        /* \"#utility.yul\":8494:8512   */\n      add\n        /* \"#utility.yul\":8486:8512   */\n      swap1\n      pop\n        /* \"#utility.yul\":8558:8567   */\n      dup2\n        /* \"#utility.yul\":8552:8556   */\n      dup2\n        /* \"#utility.yul\":8548:8568   */\n      sub\n        /* \"#utility.yul\":8544:8545   */\n      0x00\n        /* \"#utility.yul\":8533:8542   */\n      dup4\n        /* \"#utility.yul\":8529:8546   */\n      add\n        /* \"#utility.yul\":8522:8569   */\n      mstore\n        /* \"#utility.yul\":8586:8717   */\n      tag_179\n        /* \"#utility.yul\":8712:8716   */\n      dup2\n        /* \"#utility.yul\":8586:8717   */\n      tag_102\n      jump\t// in\n    tag_179:\n        /* \"#utility.yul\":8578:8717   */\n      swap1\n      pop\n        /* \"#utility.yul\":8305:8724   */\n      swap2\n      swap1\n      pop\n      jump\t// out\n\n    auxdata: 0xa2646970667358221220c9f2627a5e268218825e912c4186436901a7a8ce7fe1184ea1150e411491eb8164736f6c63430008180033\n}\n",
				"bytecode": {
					"linkReferences": {},
					"object": "60e06040523480156200001157600080fd5b5060405162000d1138038062000d118339818101604052810190620000379190620002a4565b3373ffffffffffffffffffffffffffffffffffffffff1660808173ffffffffffffffffffffffffffffffffffffffff16815250508160c0818152505060005b8151811015620000d7576001600360008484815181106200009c576200009b6200030a565b5b6020026020010151815260200190815260200160002060006101000a81548160ff021916908315150217905550808060010191505062000076565b50505062000339565b6000604051905090565b600080fd5b600080fd5b6000819050919050565b6200010981620000f4565b81146200011557600080fd5b50565b6000815190506200012981620000fe565b92915050565b600080fd5b6000601f19601f8301169050919050565b7f4e487b7100000000000000000000000000000000000000000000000000000000600052604160045260246000fd5b6200017f8262000134565b810181811067ffffffffffffffff82111715620001a157620001a062000145565b5b80604052505050565b6000620001b6620000e0565b9050620001c4828262000174565b919050565b600067ffffffffffffffff821115620001e757620001e662000145565b5b602082029050602081019050919050565b600080fd5b6000620002146200020e84620001c9565b620001aa565b905080838252602082019050602084028301858111156200023a5762000239620001f8565b5b835b8181101562000267578062000252888262000118565b8452602084019350506020810190506200023c565b5050509392505050565b600082601f8301126200028957620002886200012f565b5b81516200029b848260208601620001fd565b91505092915050565b60008060408385031215620002be57620002bd620000ea565b5b6000620002ce8582860162000118565b925050602083015167ffffffffffffffff811115620002f257620002f1620000ef565b5b620003008582860162000271565b9150509250929050565b7f4e487b7100000000000000000000000000000000000000000000000000000000600052603260045260246000fd5b60805160a05160c05161099a62000377600039600061020d01526000818161024b01526105340152600081816102db01526104f0015261099a6000f3fe608060405234801561001057600080fd5b50600436106100a95760003560e01c80638129fc1c116100715780638129fc1c1461013057806399fe26281461013a578063af596c991461016a578063c45a015514610186578063d071cb0f146101a4578063dbb06c93146101d4576100a9565b8063158ef93e146100ae5780631dc5b2d8146100cc57806336cb8477146100ea578063476b4364146101085780637d72947814610126575b600080fd5b6100b66101f2565b6040516100c39190610571565b60405180910390f35b6100d4610205565b6040516100e191906105a5565b60405180910390f35b6100f261020b565b6040516100ff91906105a5565b60405180910390f35b61011061022f565b60405161011d91906105e3565b60405180910390f35b61012e610249565b005b6101386102d9565b005b610154600480360381019061014f919061062f565b6103d4565b6040516101619190610571565b60405180910390f35b610184600480360381019061017f9190610688565b61040d565b005b61018e6104ee565b60405161019b919061071c565b60405180910390f35b6101be60048036038101906101b9919061062f565b610512565b6040516101cb9190610571565b60405180910390f35b6101dc610532565b6040516101e9919061071c565b60405180910390f35b600460009054906101000a900460ff1681565b60005481565b7f000000000000000000000000000000000000000000000000000000000000000081565b600160009054906101000a900467ffffffffffffffff1681565b7f000000000000000000000000000000000000000000000000000000000000000073ffffffffffffffffffffffffffffffffffffffff163373ffffffffffffffffffffffffffffffffffffffff16146102d7576040517f08c379a00000000000000000000000000000000000000000000000000000000081526004016102ce90610794565b60405180910390fd5b565b7f000000000000000000000000000000000000000000000000000000000000000073ffffffffffffffffffffffffffffffffffffffff163373ffffffffffffffffffffffffffffffffffffffff1614610367576040517f08c379a000000000000000000000000000000000000000000000000000000000815260040161035e90610800565b60405180910390fd5b600460009054906101000a900460ff16156103b7576040517f08c379a00000000000000000000000000000000000000000000000000000000081526004016103ae9061086c565b60405180910390fd5b6001600460006101000a81548160ff021916908315150217905550565b6000816000541480156104065750600160009054906101000a900467ffffffffffffffff1667ffffffffffffffff1642105b9050919050565b6003600082815260200190815260200160002060009054906101000a900460ff1661046d576040517f08c379a0000000000000000000000000000000000000000000000000000000008152600401610464906108d8565b60405180910390fd5b8167ffffffffffffffff1642106104b9576040517f08c379a00000000000000000000000000000000000000000000000000000000081526004016104b090610944565b60405180910390fd5b8260008190555081600160006101000a81548167ffffffffffffffff021916908367ffffffffffffffff160217905550505050565b7f000000000000000000000000000000000000000000000000000000000000000081565b60036020528060005260406000206000915054906101000a900460ff1681565b7f000000000000000000000000000000000000000000000000000000000000000081565b60008115159050919050565b61056b81610556565b82525050565b60006020820190506105866000830184610562565b92915050565b6000819050919050565b61059f8161058c565b82525050565b60006020820190506105ba6000830184610596565b92915050565b600067ffffffffffffffff82169050919050565b6105dd816105c0565b82525050565b60006020820190506105f860008301846105d4565b92915050565b600080fd5b61060c8161058c565b811461061757600080fd5b50565b60008135905061062981610603565b92915050565b600060208284031215610645576106446105fe565b5b60006106538482850161061a565b91505092915050565b610665816105c0565b811461067057600080fd5b50565b6000813590506106828161065c565b92915050565b6000806000606084860312156106a1576106a06105fe565b5b60006106af8682870161061a565b93505060206106c086828701610673565b92505060406106d18682870161061a565b9150509250925092565b600073ffffffffffffffffffffffffffffffffffffffff82169050919050565b6000610706826106db565b9050919050565b610716816106fb565b82525050565b6000602082019050610731600083018461070d565b92915050565b600082825260208201905092915050565b7f4e4f545f454e434c415645000000000000000000000000000000000000000000600082015250565b600061077e600b83610737565b915061078982610748565b602082019050919050565b600060208201905081810360008301526107ad81610771565b9050919050565b7f4e4f545f464143544f5259000000000000000000000000000000000000000000600082015250565b60006107ea600b83610737565b91506107f5826107b4565b602082019050919050565b60006020820190508181036000830152610819816107dd565b9050919050565b7f414c52454144595f494e49540000000000000000000000000000000000000000600082015250565b6000610856600c83610737565b915061086182610820565b602082019050919050565b6000602082019050818103600083015261088581610849565b9050919050565b7f504352305f4e4f545f414c4c4f57454400000000000000000000000000000000600082015250565b60006108c2601083610737565b91506108cd8261088c565b602082019050919050565b600060208201905081810360008301526108f1816108b5565b9050919050565b7f4558504952454400000000000000000000000000000000000000000000000000600082015250565b600061092e600783610737565b9150610939826108f8565b602082019050919050565b6000602082019050818103600083015261095d81610921565b905091905056fea2646970667358221220c9f2627a5e268218825e912c4186436901a7a8ce7fe1184ea1150e411491eb8164736f6c63430008180033",
					"opcodes": "PUSH1 0xE0 PUSH1 0x40 MSTORE CALLVALUE DUP1 ISZERO PUSH3 0x11 JUMPI PUSH1 0x0 DUP1 REVERT JUMPDEST POP PUSH1 0x40 MLOAD PUSH3 0xD11 CODESIZE SUB DUP1 PUSH3 0xD11 DUP4 CODECOPY DUP2 DUP2 ADD PUSH1 0x40 MSTORE DUP2 ADD SWAP1 PUSH3 0x37 SWAP2 SWAP1 PUSH3 0x2A4 JUMP JUMPDEST CALLER PUSH20 0xFFFFFFFFFFFFFFFFFFFFFFFFFFFFFFFFFFFFFFFF AND PUSH1 0x80 DUP2 PUSH20 0xFFFFFFFFFFFFFFFFFFFFFFFFFFFFFFFFFFFFFFFF AND DUP2 MSTORE POP POP DUP2 PUSH1 0xC0 DUP2 DUP2 MSTORE POP POP PUSH1 0x0 JUMPDEST DUP2 MLOAD DUP2 LT ISZERO PUSH3 0xD7 JUMPI PUSH1 0x1 PUSH1 0x3 PUSH1 0x0 DUP5 DUP5 DUP2 MLOAD DUP2 LT PUSH3 0x9C JUMPI PUSH3 0x9B PUSH3 0x30A JUMP JUMPDEST JUMPDEST PUSH1 0x20 MUL PUSH1 0x20 ADD ADD MLOAD DUP2 MSTORE PUSH1 0x20 ADD SWAP1 DUP2 MSTORE PUSH1 0x20 ADD PUSH1 0x0 KECCAK256 PUSH1 0x0 PUSH2 0x100 EXP DUP2 SLOAD DUP2 PUSH1 0xFF MUL NOT AND SWAP1 DUP4 ISZERO ISZERO MUL OR SWAP1 SSTORE POP DUP1 DUP1 PUSH1 0x1 ADD SWAP2 POP POP PUSH3 0x76 JUMP JUMPDEST POP POP POP PUSH3 0x339 JUMP JUMPDEST PUSH1 0x0 PUSH1 0x40 MLOAD SWAP1 POP SWAP1 JUMP JUMPDEST PUSH1 0x0 DUP1 REVERT JUMPDEST PUSH1 0x0 DUP1 REVERT JUMPDEST PUSH1 0x0 DUP2 SWAP1 POP SWAP2 SWAP1 POP JUMP JUMPDEST PUSH3 0x109 DUP2 PUSH3 0xF4 JUMP JUMPDEST DUP2 EQ PUSH3 0x115 JUMPI PUSH1 0x0 DUP1 REVERT JUMPDEST POP JUMP JUMPDEST PUSH1 0x0 DUP2 MLOAD SWAP1 POP PUSH3 0x129 DUP2 PUSH3 0xFE JUMP JUMPDEST SWAP3 SWAP2 POP POP JUMP JUMPDEST PUSH1 0x0 DUP1 REVERT JUMPDEST PUSH1 0x0 PUSH1 0x1F NOT PUSH1 0x1F DUP4 ADD AND SWAP1 POP SWAP2 SWAP1 POP JUMP JUMPDEST PUSH32 0x4E487B7100000000000000000000000000000000000000000000000000000000 PUSH1 0x0 MSTORE PUSH1 0x41 PUSH1 0x4 MSTORE PUSH1 0x24 PUSH1 0x0 REVERT JUMPDEST PUSH3 0x17F DUP3 PUSH3 0x134 JUMP JUMPDEST DUP2 ADD DUP2 DUP2 LT PUSH8 0xFFFFFFFFFFFFFFFF DUP3 GT OR ISZERO PUSH3 0x1A1 JUMPI PUSH3 0x1A0 PUSH3 0x145 JUMP JUMPDEST JUMPDEST DUP1 PUSH1 0x40 MSTORE POP POP POP JUMP JUMPDEST PUSH1 0x0 PUSH3 0x1B6 PUSH3 0xE0 JUMP JUMPDEST SWAP1 POP PUSH3 0x1C4 DUP3 DUP3 PUSH3 0x174 JUMP JUMPDEST SWAP2 SWAP1 POP JUMP JUMPDEST PUSH1 0x0 PUSH8 0xFFFFFFFFFFFFFFFF DUP3 GT ISZERO PUSH3 0x1E7 JUMPI PUSH3 0x1E6 PUSH3 0x145 JUMP JUMPDEST JUMPDEST PUSH1 0x20 DUP3 MUL SWAP1 POP PUSH1 0x20 DUP2 ADD SWAP1 POP SWAP2 SWAP1 POP JUMP JUMPDEST PUSH1 0x0 DUP1 REVERT JUMPDEST PUSH1 0x0 PUSH3 0x214 PUSH3 0x20E DUP5 PUSH3 0x1C9 JUMP JUMPDEST PUSH3 0x1AA JUMP JUMPDEST SWAP1 POP DUP1 DUP4 DUP3 MSTORE PUSH1 0x20 DUP3 ADD SWAP1 POP PUSH1 0x20 DUP5 MUL DUP4 ADD DUP6 DUP2 GT ISZERO PUSH3 0x23A JUMPI PUSH3 0x239 PUSH3 0x1F8 JUMP JUMPDEST JUMPDEST DUP4 JUMPDEST DUP2 DUP2 LT ISZERO PUSH3 0x267 JUMPI DUP1 PUSH3 0x252 DUP9 DUP3 PUSH3 0x118 JUMP JUMPDEST DUP5 MSTORE PUSH1 0x20 DUP5 ADD SWAP4 POP POP PUSH1 0x20 DUP2 ADD SWAP1 POP PUSH3 0x23C JUMP JUMPDEST POP POP POP SWAP4 SWAP3 POP POP POP JUMP JUMPDEST PUSH1 0x0 DUP3 PUSH1 0x1F DUP4 ADD SLT PUSH3 0x289 JUMPI PUSH3 0x288 PUSH3 0x12F JUMP JUMPDEST JUMPDEST DUP2 MLOAD PUSH3 0x29B DUP5 DUP3 PUSH1 0x20 DUP7 ADD PUSH3 0x1FD JUMP JUMPDEST SWAP2 POP POP SWAP3 SWAP2 POP POP JUMP JUMPDEST PUSH1 0x0 DUP1 PUSH1 0x40 DUP4 DUP6 SUB SLT ISZERO PUSH3 0x2BE JUMPI PUSH3 0x2BD PUSH3 0xEA JUMP JUMPDEST JUMPDEST PUSH1 0x0 PUSH3 0x2CE DUP6 DUP3 DUP7 ADD PUSH3 0x118 JUMP JUMPDEST SWAP3 POP POP PUSH1 0x20 DUP4 ADD MLOAD PUSH8 0xFFFFFFFFFFFFFFFF DUP2 GT ISZERO PUSH3 0x2F2 JUMPI PUSH3 0x2F1 PUSH3 0xEF JUMP JUMPDEST JUMPDEST PUSH3 0x300 DUP6 DUP3 DUP7 ADD PUSH3 0x271 JUMP JUMPDEST SWAP2 POP POP SWAP3 POP SWAP3 SWAP1 POP JUMP JUMPDEST PUSH32 0x4E487B7100000000000000000000000000000000000000000000000000000000 PUSH1 0x0 MSTORE PUSH1 0x32 PUSH1 0x4 MSTORE PUSH1 0x24 PUSH1 0x0 REVERT JUMPDEST PUSH1 0x80 MLOAD PUSH1 0xA0 MLOAD PUSH1 0xC0 MLOAD PUSH2 0x99A PUSH3 0x377 PUSH1 0x0 CODECOPY PUSH1 0x0 PUSH2 0x20D ADD MSTORE PUSH1 0x0 DUP2 DUP2 PUSH2 0x24B ADD MSTORE PUSH2 0x534 ADD MSTORE PUSH1 0x0 DUP2 DUP2 PUSH2 0x2DB ADD MSTORE PUSH2 0x4F0 ADD MSTORE PUSH2 0x99A PUSH1 0x0 RETURN INVALID PUSH1 0x80 PUSH1 0x40 MSTORE CALLVALUE DUP1 ISZERO PUSH2 0x10 JUMPI PUSH1 0x0 DUP1 REVERT JUMPDEST POP PUSH1 0x4 CALLDATASIZE LT PUSH2 0xA9 JUMPI PUSH1 0x0 CALLDATALOAD PUSH1 0xE0 SHR DUP1 PUSH4 0x8129FC1C GT PUSH2 0x71 JUMPI DUP1 PUSH4 0x8129FC1C EQ PUSH2 0x130 JUMPI DUP1 PUSH4 0x99FE2628 EQ PUSH2 0x13A JUMPI DUP1 PUSH4 0xAF596C99 EQ PUSH2 0x16A JUMPI DUP1 PUSH4 0xC45A0155 EQ PUSH2 0x186 JUMPI DUP1 PUSH4 0xD071CB0F EQ PUSH2 0x1A4 JUMPI DUP1 PUSH4 0xDBB06C93 EQ PUSH2 0x1D4 JUMPI PUSH2 0xA9 JUMP JUMPDEST DUP1 PUSH4 0x158EF93E EQ PUSH2 0xAE JUMPI DUP1 PUSH4 0x1DC5B2D8 EQ PUSH2 0xCC JUMPI DUP1 PUSH4 0x36CB8477 EQ PUSH2 0xEA JUMPI DUP1 PUSH4 0x476B4364 EQ PUSH2 0x108 JUMPI DUP1 PUSH4 0x7D729478 EQ PUSH2 0x126 JUMPI JUMPDEST PUSH1 0x0 DUP1 REVERT JUMPDEST PUSH2 0xB6 PUSH2 0x1F2 JUMP JUMPDEST PUSH1 0x40 MLOAD PUSH2 0xC3 SWAP2 SWAP1 PUSH2 0x571 JUMP JUMPDEST PUSH1 0x40 MLOAD DUP1 SWAP2 SUB SWAP1 RETURN JUMPDEST PUSH2 0xD4 PUSH2 0x205 JUMP JUMPDEST PUSH1 0x40 MLOAD PUSH2 0xE1 SWAP2 SWAP1 PUSH2 0x5A5 JUMP JUMPDEST PUSH1 0x40 MLOAD DUP1 SWAP2 SUB SWAP1 RETURN JUMPDEST PUSH2 0xF2 PUSH2 0x20B JUMP JUMPDEST PUSH1 0x40 MLOAD PUSH2 0xFF SWAP2 SWAP1 PUSH2 0x5A5 JUMP JUMPDEST PUSH1 0x40 MLOAD DUP1 SWAP2 SUB SWAP1 RETURN JUMPDEST PUSH2 0x110 PUSH2 0x22F JUMP JUMPDEST PUSH1 0x40 MLOAD PUSH2 0x11D SWAP2 SWAP1 PUSH2 0x5E3 JUMP JUMPDEST PUSH1 0x40 MLOAD DUP1 SWAP2 SUB SWAP1 RETURN JUMPDEST PUSH2 0x12E PUSH2 0x249 JUMP JUMPDEST STOP JUMPDEST PUSH2 0x138 PUSH2 0x2D9 JUMP JUMPDEST STOP JUMPDEST PUSH2 0x154 PUSH1 0x4 DUP1 CALLDATASIZE SUB DUP2 ADD SWAP1 PUSH2 0x14F SWAP2 SWAP1 PUSH2 0x62F JUMP JUMPDEST PUSH2 0x3D4 JUMP JUMPDEST PUSH1 0x40 MLOAD PUSH2 0x161 SWAP2 SWAP1 PUSH2 0x571 JUMP JUMPDEST PUSH1 0x40 MLOAD DUP1 SWAP2 SUB SWAP1 RETURN JUMPDEST PUSH2 0x184 PUSH1 0x4 DUP1 CALLDATASIZE SUB DUP2 ADD SWAP1 PUSH2 0x17F SWAP2 SWAP1 PUSH2 0x688 JUMP JUMPDEST PUSH2 0x40D JUMP JUMPDEST STOP JUMPDEST PUSH2 0x18E PUSH2 0x4EE JUMP JUMPDEST PUSH1 0x40 MLOAD PUSH2 0x19B SWAP2 SWAP1 PUSH2 0x71C JUMP JUMPDEST PUSH1 0x40 MLOAD DUP1 SWAP2 SUB SWAP1 RETURN JUMPDEST PUSH2 0x1BE PUSH1 0x4 DUP1 CALLDATASIZE SUB DUP2 ADD SWAP1 PUSH2 0x1B9 SWAP2 SWAP1 PUSH2 0x62F JUMP JUMPDEST PUSH2 0x512 JUMP JUMPDEST PUSH1 0x40 MLOAD PUSH2 0x1CB SWAP2 SWAP1 PUSH2 0x571 JUMP JUMPDEST PUSH1 0x40 MLOAD DUP1 SWAP2 SUB SWAP1 RETURN JUMPDEST PUSH2 0x1DC PUSH2 0x532 JUMP JUMPDEST PUSH1 0x40 MLOAD PUSH2 0x1E9 SWAP2 SWAP1 PUSH2 0x71C JUMP JUMPDEST PUSH1 0x40 MLOAD DUP1 SWAP2 SUB SWAP1 RETURN JUMPDEST PUSH1 0x4 PUSH1 0x0 SWAP1 SLOAD SWAP1 PUSH2 0x100 EXP SWAP1 DIV PUSH1 0xFF AND DUP2 JUMP JUMPDEST PUSH1 0x0 SLOAD DUP2 JUMP JUMPDEST PUSH32 0x0 DUP2 JUMP JUMPDEST PUSH1 0x1 PUSH1 0x0 SWAP1 SLOAD SWAP1 PUSH2 0x100 EXP SWAP1 DIV PUSH8 0xFFFFFFFFFFFFFFFF AND DUP2 JUMP JUMPDEST PUSH32 0x0 PUSH20 0xFFFFFFFFFFFFFFFFFFFFFFFFFFFFFFFFFFFFFFFF AND CALLER PUSH20 0xFFFFFFFFFFFFFFFFFFFFFFFFFFFFFFFFFFFFFFFF AND EQ PUSH2 0x2D7 JUMPI PUSH1 0x40 MLOAD PUSH32 0x8C379A000000000000000000000000000000000000000000000000000000000 DUP2 MSTORE PUSH1 0x4 ADD PUSH2 0x2CE SWAP1 PUSH2 0x794 JUMP JUMPDEST PUSH1 0x40 MLOAD DUP1 SWAP2 SUB SWAP1 REVERT JUMPDEST JUMP JUMPDEST PUSH32 0x0 PUSH20 0xFFFFFFFFFFFFFFFFFFFFFFFFFFFFFFFFFFFFFFFF AND CALLER PUSH20 0xFFFFFFFFFFFFFFFFFFFFFFFFFFFFFFFFFFFFFFFF AND EQ PUSH2 0x367 JUMPI PUSH1 0x40 MLOAD PUSH32 0x8C379A000000000000000000000000000000000000000000000000000000000 DUP2 MSTORE PUSH1 0x4 ADD PUSH2 0x35E SWAP1 PUSH2 0x800 JUMP JUMPDEST PUSH1 0x40 MLOAD DUP1 SWAP2 SUB SWAP1 REVERT JUMPDEST PUSH1 0x4 PUSH1 0x0 SWAP1 SLOAD SWAP1 PUSH2 0x100 EXP SWAP1 DIV PUSH1 0xFF AND ISZERO PUSH2 0x3B7 JUMPI PUSH1 0x40 MLOAD PUSH32 0x8C379A000000000000000000000000000000000000000000000000000000000 DUP2 MSTORE PUSH1 0x4 ADD PUSH2 0x3AE SWAP1 PUSH2 0x86C JUMP JUMPDEST PUSH1 0x40 MLOAD DUP1 SWAP2 SUB SWAP1 REVERT JUMPDEST PUSH1 0x1 PUSH1 0x4 PUSH1 0x0 PUSH2 0x100 EXP DUP2 SLOAD DUP2 PUSH1 0xFF MUL NOT AND SWAP1 DUP4 ISZERO ISZERO MUL OR SWAP1 SSTORE POP JUMP JUMPDEST PUSH1 0x0 DUP2 PUSH1 0x0 SLOAD EQ DUP1 ISZERO PUSH2 0x406 JUMPI POP PUSH1 0x1 PUSH1 0x0 SWAP1 SLOAD SWAP1 PUSH2 0x100 EXP SWAP1 DIV PUSH8 0xFFFFFFFFFFFFFFFF AND PUSH8 0xFFFFFFFFFFFFFFFF AND TIMESTAMP LT JUMPDEST SWAP1 POP SWAP2 SWAP1 POP JUMP JUMPDEST PUSH1 0x3 PUSH1 0x0 DUP3 DUP2 MSTORE PUSH1 0x20 ADD SWAP1 DUP2 MSTORE PUSH1 0x20 ADD PUSH1 0x0 KECCAK256 PUSH1 0x0 SWAP1 SLOAD SWAP1 PUSH2 0x100 EXP SWAP1 DIV PUSH1 0xFF AND PUSH2 0x46D JUMPI PUSH1 0x40 MLOAD PUSH32 0x8C379A000000000000000000000000000000000000000000000000000000000 DUP2 MSTORE PUSH1 0x4 ADD PUSH2 0x464 SWAP1 PUSH2 0x8D8 JUMP JUMPDEST PUSH1 0x40 MLOAD DUP1 SWAP2 SUB SWAP1 REVERT JUMPDEST DUP2 PUSH8 0xFFFFFFFFFFFFFFFF AND TIMESTAMP LT PUSH2 0x4B9 JUMPI PUSH1 0x40 MLOAD PUSH32 0x8C379A000000000000000000000000000000000000000000000000000000000 DUP2 MSTORE PUSH1 0x4 ADD PUSH2 0x4B0 SWAP1 PUSH2 0x944 JUMP JUMPDEST PUSH1 0x40 MLOAD DUP1 SWAP2 SUB SWAP1 REVERT JUMPDEST DUP3 PUSH1 0x0 DUP2 SWAP1 SSTORE POP DUP2 PUSH1 0x1 PUSH1 0x0 PUSH2 0x100 EXP DUP2 SLOAD DUP2 PUSH8 0xFFFFFFFFFFFFFFFF MUL NOT AND SWAP1 DUP4 PUSH8 0xFFFFFFFFFFFFFFFF AND MUL OR SWAP1 SSTORE POP POP POP POP JUMP JUMPDEST PUSH32 0x0 DUP2 JUMP JUMPDEST PUSH1 0x3 PUSH1 0x20 MSTORE DUP1 PUSH1 0x0 MSTORE PUSH1 0x40 PUSH1 0x0 KECCAK256 PUSH1 0x0 SWAP2 POP SLOAD SWAP1 PUSH2 0x100 EXP SWAP1 DIV PUSH1 0xFF AND DUP2 JUMP JUMPDEST PUSH32 0x0 DUP2 JUMP JUMPDEST PUSH1 0x0 DUP2 ISZERO ISZERO SWAP1 POP SWAP2 SWAP1 POP JUMP JUMPDEST PUSH2 0x56B DUP2 PUSH2 0x556 JUMP JUMPDEST DUP3 MSTORE POP POP JUMP JUMPDEST PUSH1 0x0 PUSH1 0x20 DUP3 ADD SWAP1 POP PUSH2 0x586 PUSH1 0x0 DUP4 ADD DUP5 PUSH2 0x562 JUMP JUMPDEST SWAP3 SWAP2 POP POP JUMP JUMPDEST PUSH1 0x0 DUP2 SWAP1 POP SWAP2 SWAP1 POP JUMP JUMPDEST PUSH2 0x59F DUP2 PUSH2 0x58C JUMP JUMPDEST DUP3 MSTORE POP POP JUMP JUMPDEST PUSH1 0x0 PUSH1 0x20 DUP3 ADD SWAP1 POP PUSH2 0x5BA PUSH1 0x0 DUP4 ADD DUP5 PUSH2 0x596 JUMP JUMPDEST SWAP3 SWAP2 POP POP JUMP JUMPDEST PUSH1 0x0 PUSH8 0xFFFFFFFFFFFFFFFF DUP3 AND SWAP1 POP SWAP2 SWAP1 POP JUMP JUMPDEST PUSH2 0x5DD DUP2 PUSH2 0x5C0 JUMP JUMPDEST DUP3 MSTORE POP POP JUMP JUMPDEST PUSH1 0x0 PUSH1 0x20 DUP3 ADD SWAP1 POP PUSH2 0x5F8 PUSH1 0x0 DUP4 ADD DUP5 PUSH2 0x5D4 JUMP JUMPDEST SWAP3 SWAP2 POP POP JUMP JUMPDEST PUSH1 0x0 DUP1 REVERT JUMPDEST PUSH2 0x60C DUP2 PUSH2 0x58C JUMP JUMPDEST DUP2 EQ PUSH2 0x617 JUMPI PUSH1 0x0 DUP1 REVERT JUMPDEST POP JUMP JUMPDEST PUSH1 0x0 DUP2 CALLDATALOAD SWAP1 POP PUSH2 0x629 DUP2 PUSH2 0x603 JUMP JUMPDEST SWAP3 SWAP2 POP POP JUMP JUMPDEST PUSH1 0x0 PUSH1 0x20 DUP3 DUP5 SUB SLT ISZERO PUSH2 0x645 JUMPI PUSH2 0x644 PUSH2 0x5FE JUMP JUMPDEST JUMPDEST PUSH1 0x0 PUSH2 0x653 DUP5 DUP3 DUP6 ADD PUSH2 0x61A JUMP JUMPDEST SWAP2 POP POP SWAP3 SWAP2 POP POP JUMP JUMPDEST PUSH2 0x665 DUP2 PUSH2 0x5C0 JUMP JUMPDEST DUP2 EQ PUSH2 0x670 JUMPI PUSH1 0x0 DUP1 REVERT JUMPDEST POP JUMP JUMPDEST PUSH1 0x0 DUP2 CALLDATALOAD SWAP1 POP PUSH2 0x682 DUP2 PUSH2 0x65C JUMP JUMPDEST SWAP3 SWAP2 POP POP JUMP JUMPDEST PUSH1 0x0 DUP1 PUSH1 0x0 PUSH1 0x60 DUP5 DUP7 SUB SLT ISZERO PUSH2 0x6A1 JUMPI PUSH2 0x6A0 PUSH2 0x5FE JUMP JUMPDEST JUMPDEST PUSH1 0x0 PUSH2 0x6AF DUP7 DUP3 DUP8 ADD PUSH2 0x61A JUMP JUMPDEST SWAP4 POP POP PUSH1 0x20 PUSH2 0x6C0 DUP7 DUP3 DUP8 ADD PUSH2 0x673 JUMP JUMPDEST SWAP3 POP POP PUSH1 0x40 PUSH2 0x6D1 DUP7 DUP3 DUP8 ADD PUSH2 0x61A JUMP JUMPDEST SWAP2 POP POP SWAP3 POP SWAP3 POP SWAP3 JUMP JUMPDEST PUSH1 0x0 PUSH20 0xFFFFFFFFFFFFFFFFFFFFFFFFFFFFFFFFFFFFFFFF DUP3 AND SWAP1 POP SWAP2 SWAP1 POP JUMP JUMPDEST PUSH1 0x0 PUSH2 0x706 DUP3 PUSH2 0x6DB JUMP JUMPDEST SWAP1 POP SWAP2 SWAP1 POP JUMP JUMPDEST PUSH2 0x716 DUP2 PUSH2 0x6FB JUMP JUMPDEST DUP3 MSTORE POP POP JUMP JUMPDEST PUSH1 0x0 PUSH1 0x20 DUP3 ADD SWAP1 POP PUSH2 0x731 PUSH1 0x0 DUP4 ADD DUP5 PUSH2 0x70D JUMP JUMPDEST SWAP3 SWAP2 POP POP JUMP JUMPDEST PUSH1 0x0 DUP3 DUP3 MSTORE PUSH1 0x20 DUP3 ADD SWAP1 POP SWAP3 SWAP2 POP POP JUMP JUMPDEST PUSH32 0x4E4F545F454E434C415645000000000000000000000000000000000000000000 PUSH1 0x0 DUP3 ADD MSTORE POP JUMP JUMPDEST PUSH1 0x0 PUSH2 0x77E PUSH1 0xB DUP4 PUSH2 0x737 JUMP JUMPDEST SWAP2 POP PUSH2 0x789 DUP3 PUSH2 0x748 JUMP JUMPDEST PUSH1 0x20 DUP3 ADD SWAP1 POP SWAP2 SWAP1 POP JUMP JUMPDEST PUSH1 0x0 PUSH1 0x20 DUP3 ADD SWAP1 POP DUP2 DUP2 SUB PUSH1 0x0 DUP4 ADD MSTORE PUSH2 0x7AD DUP2 PUSH2 0x771 JUMP JUMPDEST SWAP1 POP SWAP2 SWAP1 POP JUMP JUMPDEST PUSH32 0x4E4F545F464143544F5259000000000000000000000000000000000000000000 PUSH1 0x0 DUP3 ADD MSTORE POP JUMP JUMPDEST PUSH1 0x0 PUSH2 0x7EA PUSH1 0xB DUP4 PUSH2 0x737 JUMP JUMPDEST SWAP2 POP PUSH2 0x7F5 DUP3 PUSH2 0x7B4 JUMP JUMPDEST PUSH1 0x20 DUP3 ADD SWAP1 POP SWAP2 SWAP1 POP JUMP JUMPDEST PUSH1 0x0 PUSH1 0x20 DUP3 ADD SWAP1 POP DUP2 DUP2 SUB PUSH1 0x0 DUP4 ADD MSTORE PUSH2 0x819 DUP2 PUSH2 0x7DD JUMP JUMPDEST SWAP1 POP SWAP2 SWAP1 POP JUMP JUMPDEST PUSH32 0x414C52454144595F494E49540000000000000000000000000000000000000000 PUSH1 0x0 DUP3 ADD MSTORE POP JUMP JUMPDEST PUSH1 0x0 PUSH2 0x856 PUSH1 0xC DUP4 PUSH2 0x737 JUMP JUMPDEST SWAP2 POP PUSH2 0x861 DUP3 PUSH2 0x820 JUMP JUMPDEST PUSH1 0x20 DUP3 ADD SWAP1 POP SWAP2 SWAP1 POP JUMP JUMPDEST PUSH1 0x0 PUSH1 0x20 DUP3 ADD SWAP1 POP DUP2 DUP2 SUB PUSH1 0x0 DUP4 ADD MSTORE PUSH2 0x885 DUP2 PUSH2 0x849 JUMP JUMPDEST SWAP1 POP SWAP2 SWAP1 POP JUMP JUMPDEST PUSH32 0x504352305F4E4F545F414C4C4F57454400000000000000000000000000000000 PUSH1 0x0 DUP3 ADD MSTORE POP JUMP JUMPDEST PUSH1 0x0 PUSH2 0x8C2 PUSH1 0x10 DUP4 PUSH2 0x737 JUMP JUMPDEST SWAP2 POP PUSH2 0x8CD DUP3 PUSH2 0x88C JUMP JUMPDEST PUSH1 0x20 DUP3 ADD SWAP1 POP SWAP2 SWAP1 POP JUMP JUMPDEST PUSH1 0x0 PUSH1 0x20 DUP3 ADD SWAP1 POP DUP2 DUP2 SUB PUSH1 0x0 DUP4 ADD MSTORE PUSH2 0x8F1 DUP2 PUSH2 0x8B5 JUMP JUMPDEST SWAP1 POP SWAP2 SWAP1 POP JUMP JUMPDEST PUSH32 0x4558504952454400000000000000000000000000000000000000000000000000 PUSH1 0x0 DUP3 ADD MSTORE POP JUMP JUMPDEST PUSH1 0x0 PUSH2 0x92E PUSH1 0x7 DUP4 PUSH2 0x737 JUMP JUMPDEST SWAP2 POP PUSH2 0x939 DUP3 PUSH2 0x8F8 JUMP JUMPDEST PUSH1 0x20 DUP3 ADD SWAP1 POP SWAP2 SWAP1 POP JUMP JUMPDEST PUSH1 0x0 PUSH1 0x20 DUP3 ADD SWAP1 POP DUP2 DUP2 SUB PUSH1 0x0 DUP4 ADD MSTORE PUSH2 0x95D DUP2 PUSH2 0x921 JUMP JUMPDEST SWAP1 POP SWAP2 SWAP1 POP JUMP INVALID LOG2 PUSH5 0x6970667358 0x22 SLT KECCAK256 0xC9 CALLCODE PUSH3 0x7A5E26 DUP3 XOR DUP3 MCOPY SWAP2 0x2C COINBASE DUP7 NUMBER PUSH10 0x1A7A8CE7FE1184EA115 0xE COINBASE EQ SWAP2 0xEB DUP2 PUSH5 0x736F6C6343 STOP ADDMOD XOR STOP CALLER "
				},
				"gasEstimates": {
					"creation": {
						"codeDepositCost": "491600",
						"executionCost": "infinite",
						"totalCost": "infinite"
					},
					"external": {
						"activateASK(bytes32,uint64,bytes32)": "infinite",
						"activeASK()": "2452",
						"allowedPCR0(bytes32)": "2884",
						"askExpiry()": "2538",
						"backupKey()": "infinite",
						"emailHash()": "infinite",
						"enclave()": "infinite",
						"factory()": "infinite",
						"initialize()": "infinite",
						"initialized()": "2472",
						"isASKActive(bytes32)": "4908"
					}
				},
				"methodIdentifiers": {
					"activateASK(bytes32,uint64,bytes32)": "af596c99",
					"activeASK()": "1dc5b2d8",
					"allowedPCR0(bytes32)": "d071cb0f",
					"askExpiry()": "476b4364",
					"backupKey()": "7d729478",
					"emailHash()": "36cb8477",
					"enclave()": "dbb06c93",
					"factory()": "c45a0155",
					"initialize()": "8129fc1c",
					"initialized()": "158ef93e",
					"isASKActive(bytes32)": "99fe2628"
				}
			},
			"storageLayout": {
				"storage": [
					{
						"astId": 9,
						"contract": "contracts/BS_UserContract.sol:UserContract",
						"label": "activeASK",
						"offset": 0,
						"slot": "0",
						"type": "t_bytes32"
					},
					{
						"astId": 11,
						"contract": "contracts/BS_UserContract.sol:UserContract",
						"label": "askExpiry",
						"offset": 0,
						"slot": "1",
						"type": "t_uint64"
					},
					{
						"astId": 13,
						"contract": "contracts/BS_UserContract.sol:UserContract",
						"label": "privateKey",
						"offset": 0,
						"slot": "2",
						"type": "t_bytes32"
					},
					{
						"astId": 17,
						"contract": "contracts/BS_UserContract.sol:UserContract",
						"label": "allowedPCR0",
						"offset": 0,
						"slot": "3",
						"type": "t_mapping(t_bytes32,t_bool)"
					},
					{
						"astId": 19,
						"contract": "contracts/BS_UserContract.sol:UserContract",
						"label": "initialized",
						"offset": 0,
						"slot": "4",
						"type": "t_bool"
					}
				],
				"types": {
					"t_bool": {
						"encoding": "inplace",
						"label": "bool",
						"numberOfBytes": "1"
					},
					"t_bytes32": {
						"encoding": "inplace",
						"label": "bytes32",
						"numberOfBytes": "32"
					},
					"t_mapping(t_bytes32,t_bool)": {
						"encoding": "mapping",
						"key": "t_bytes32",
						"label": "mapping(bytes32 => bool)",
						"numberOfBytes": "32",
						"value": "t_bool"
					},
					"t_uint64": {
						"encoding": "inplace",
						"label": "uint64",
						"numberOfBytes": "8"
					}
				}
			},
			"userdoc": {
				"kind": "user",
				"methods": {
					"activateASK(bytes32,uint64,bytes32)": {
						"notice": "Activate ASK after JWT approval"
					},
					"initialize()": {
						"notice": "Called once by factory, then UC is frozen"
					}
				},
				"version": 1
			}
		}
	}
}