{
	"contracts/enclavecontract.sol": {
		"EnclaveRegistry": {
			"abi": [
				{
					"anonymous": false,
					"inputs": [
						{
							"indexed": true,
							"internalType": "string",
							"name": "enclaveId",
							"type": "string"
						}
					],
					"name": "EnclaveDeleted",
					"type": "event"
				},
				{
					"anonymous": false,
					"inputs": [
						{
							"indexed": true,
							"internalType": "string",
							"name": "enclaveId",
							"type": "string"
						},
						{
							"indexed": false,
							"internalType": "string",
							"name": "connectURL",
							"type": "string"
						},
						{
							"indexed": false,
							"internalType": "string",
							"name": "pubkey",
							"type": "string"
						},
						{
							"indexed": false,
							"internalType": "uint256",
							"name": "version",
							"type": "uint256"
						},
						{
							"indexed": false,
							"internalType": "uint256",
							"name": "timestamp",
							"type": "uint256"
						}
					],
					"name": "EnclaveRegistered",
					"type": "event"
				},
				{
					"anonymous": false,
					"inputs": [
						{
							"indexed": true,
							"internalType": "string",
							"name": "enclaveId",
							"type": "string"
						},
						{
							"indexed": false,
							"internalType": "string",
							"name": "connectURL",
							"type": "string"
						},
						{
							"indexed": false,
							"internalType": "string",
							"name": "pubkey",
							"type": "string"
						},
						{
							"indexed": false,
							"internalType": "uint256",
							"name": "version",
							"type": "uint256"
						},
						{
							"indexed": false,
							"internalType": "uint256",
							"name": "timestamp",
							"type": "uint256"
						}
					],
					"name": "EnclaveUpdated",
					"type": "event"
				},
				{
					"inputs": [
						{
							"internalType": "string",
							"name": "enclaveId",
							"type": "string"
						}
					],
					"name": "deleteEnclave",
					"outputs": [],
					"stateMutability": "nonpayable",
					"type": "function"
				},
				{
					"inputs": [],
					"name": "getAllEnclaves",
					"outputs": [
						{
							"internalType": "string[]",
							"name": "ids",
							"type": "string[]"
						},
						{
							"internalType": "string[]",
							"name": "urls",
							"type": "string[]"
						},
						{
							"internalType": "string[]",
							"name": "pubkeys",
							"type": "string[]"
						},
						{
							"internalType": "uint256[]",
							"name": "versions",
							"type": "uint256[]"
						},
						{
							"internalType": "uint256[]",
							"name": "timestamps",
							"type": "uint256[]"
						}
					],
					"stateMutability": "view",
					"type": "function"
				},
				{
					"inputs": [
						{
							"internalType": "string",
							"name": "enclaveId",
							"type": "string"
						}
					],
					"name": "getEnclave",
					"outputs": [
						{
							"internalType": "string",
							"name": "connectURL",
							"type": "string"
						},
						{
							"internalType": "string",
							"name": "pubkey",
							"type": "string"
						},
						{
							"internalType": "uint256",
							"name": "version",
							"type": "uint256"
						},
						{
							"internalType": "uint256",
							"name": "updatedAt",
							"type": "uint256"
						}
					],
					"stateMutability": "view",
					"type": "function"
				},
				{
					"inputs": [],
					"name": "listEnclaveIds",
					"outputs": [
						{
							"internalType": "string[]",
							"name": "",
							"type": "string[]"
						}
					],
					"stateMutability": "view",
					"type": "function"
				},
				{
					"inputs": [
						{
							"internalType": "string",
							"name": "enclaveId",
							"type": "string"
						},
						{
							"internalType": "string",
							"name": "connectURL",
							"type": "string"
						},
						{
							"internalType": "string",
							"name": "pubkey",
							"type": "string"
						}
					],
					"name": "registerEnclave",
					"outputs": [],
					"stateMutability": "nonpayable",
					"type": "function"
				},
				{
					"inputs": [
						{
							"internalType": "string",
							"name": "enclaveId",
							"type": "string"
						},
						{
							"internalType": "string",
							"name": "newConnectURL",
							"type": "string"
						},
						{
							"internalType": "string",
							"name": "newPubkey",
							"type": "string"
						}
					],
					"name": "updateEnclave",
					"outputs": [],
					"stateMutability": "nonpayable",
					"type": "function"
				}
			],
			"devdoc": {
				"kind": "dev",
				"methods": {},
				"version": 1
			},
			"evm": {
				"assembly": "    /* \"contracts/enclavecontract.sol\":58:4081  contract EnclaveRegistry {... */\n  mstore(0x40, 0x80)\n  callvalue\n  dup1\n  iszero\n  tag_1\n  jumpi\n  0x00\n  dup1\n  revert\ntag_1:\n  pop\n  dataSize(sub_0)\n  dup1\n  dataOffset(sub_0)\n  0x00\n  codecopy\n  0x00\n  return\nstop\n\nsub_0: assembly {\n        /* \"contracts/enclavecontract.sol\":58:4081  contract EnclaveRegistry {... */\n      mstore(0x40, 0x80)\n      callvalue\n      dup1\n      iszero\n      tag_1\n      jumpi\n      0x00\n      dup1\n      revert\n    tag_1:\n      pop\n      jumpi(tag_2, lt(calldatasize, 0x04))\n      shr(0xe0, calldataload(0x00))\n      dup1\n      0x6b934917\n      eq\n      tag_3\n      jumpi\n      dup1\n      0x702d06d1\n      eq\n      tag_4\n      jumpi\n      dup1\n      0xa23c1cf5\n      eq\n      tag_5\n      jumpi\n      dup1\n      0xd9ac8ad2\n      eq\n      tag_6\n      jumpi\n      dup1\n      0xdeba5eb8\n      eq\n      tag_7\n      jumpi\n      dup1\n      0xe39ae54b\n      eq\n      tag_8\n      jumpi\n    tag_2:\n      0x00\n      dup1\n      revert\n        /* \"contracts/enclavecontract.sol\":1477:2074  function updateEnclave(string memory enclaveId, string memory newConnectURL, string memory newPubkey) public {... */\n    tag_3:\n      tag_9\n      0x04\n      dup1\n      calldatasize\n      sub\n      dup2\n      add\n      swap1\n      tag_10\n      swap2\n      swap1\n      tag_11\n      jump\t// in\n    tag_10:\n      tag_12\n      jump\t// in\n    tag_9:\n      stop\n        /* \"contracts/enclavecontract.sol\":2584:3406  function getAllEnclaves () public view... */\n    tag_4:\n      tag_13\n      tag_14\n      jump\t// in\n    tag_13:\n      mload(0x40)\n      tag_15\n      swap6\n      swap5\n      swap4\n      swap3\n      swap2\n      swap1\n      tag_16\n      jump\t// in\n    tag_15:\n      mload(0x40)\n      dup1\n      swap2\n      sub\n      swap1\n      return\n        /* \"contracts/enclavecontract.sol\":2410:2508  function listEnclaveIds() public view returns (string[] memory) {... */\n    tag_5:\n      tag_17\n      tag_18\n      jump\t// in\n    tag_17:\n      mload(0x40)\n      tag_19\n      swap2\n      swap1\n      tag_20\n      jump\t// in\n    tag_19:\n      mload(0x40)\n      dup1\n      swap2\n      sub\n      swap1\n      return\n        /* \"contracts/enclavecontract.sol\":775:1471  function registerEnclave(string memory enclaveId, string memory connectURL, string memory pubkey) public {... */\n    tag_6:\n      tag_21\n      0x04\n      dup1\n      calldatasize\n      sub\n      dup2\n      add\n      swap1\n      tag_22\n      swap2\n      swap1\n      tag_11\n      jump\t// in\n    tag_22:\n      tag_23\n      jump\t// in\n    tag_21:\n      stop\n        /* \"contracts/enclavecontract.sol\":3465:4079  function deleteEnclave(string memory enclaveId) public {... */\n    tag_7:\n      tag_24\n      0x04\n      dup1\n      calldatasize\n      sub\n      dup2\n      add\n      swap1\n      tag_25\n      swap2\n      swap1\n      tag_26\n      jump\t// in\n    tag_25:\n      tag_27\n      jump\t// in\n    tag_24:\n      stop\n        /* \"contracts/enclavecontract.sol\":2080:2404  function getEnclave(string memory enclaveId) public view returns (string memory connectURL, string memory pubkey, uint256 version, uint256 updatedAt) {... */\n    tag_8:\n      tag_28\n      0x04\n      dup1\n      calldatasize\n      sub\n      dup2\n      add\n      swap1\n      tag_29\n      swap2\n      swap1\n      tag_26\n      jump\t// in\n    tag_29:\n      tag_30\n      jump\t// in\n    tag_28:\n      mload(0x40)\n      tag_31\n      swap5\n      swap4\n      swap3\n      swap2\n      swap1\n      tag_32\n      jump\t// in\n    tag_31:\n      mload(0x40)\n      dup1\n      swap2\n      sub\n      swap1\n      return\n        /* \"contracts/enclavecontract.sol\":1477:2074  function updateEnclave(string memory enclaveId, string memory newConnectURL, string memory newPubkey) public {... */\n    tag_12:\n        /* \"contracts/enclavecontract.sol\":1634:1635  0 */\n      0x00\n        /* \"contracts/enclavecontract.sol\":1610:1623  newConnectURL */\n      dup3\n        /* \"contracts/enclavecontract.sol\":1604:1631  bytes(newConnectURL).length */\n      mload\n        /* \"contracts/enclavecontract.sol\":1604:1635  bytes(newConnectURL).length > 0 */\n      gt\n        /* \"contracts/enclavecontract.sol\":1596:1664  require(bytes(newConnectURL).length > 0, \"New Connect URL required\") */\n      tag_34\n      jumpi\n      mload(0x40)\n      0x08c379a000000000000000000000000000000000000000000000000000000000\n      dup2\n      mstore\n      0x04\n      add\n      tag_35\n      swap1\n      tag_36\n      jump\t// in\n    tag_35:\n      mload(0x40)\n      dup1\n      swap2\n      sub\n      swap1\n      revert\n    tag_34:\n        /* \"contracts/enclavecontract.sol\":1708:1709  0 */\n      0x00\n        /* \"contracts/enclavecontract.sol\":1688:1697  newPubkey */\n      dup2\n        /* \"contracts/enclavecontract.sol\":1682:1705  bytes(newPubkey).length */\n      mload\n        /* \"contracts/enclavecontract.sol\":1682:1709  bytes(newPubkey).length > 0 */\n      gt\n        /* \"contracts/enclavecontract.sol\":1674:1737  require(bytes(newPubkey).length > 0, \"New Public key required\") */\n      tag_37\n      jumpi\n      mload(0x40)\n      0x08c379a000000000000000000000000000000000000000000000000000000000\n      dup2\n      mstore\n      0x04\n      add\n      tag_38\n      swap1\n      tag_39\n      jump\t// in\n    tag_38:\n      mload(0x40)\n      dup1\n      swap2\n      sub\n      swap1\n      revert\n    tag_37:\n        /* \"contracts/enclavecontract.sol\":1748:1765  Enclave storage e */\n      0x00\n        /* \"contracts/enclavecontract.sol\":1768:1776  enclaves */\n      dup1\n        /* \"contracts/enclavecontract.sol\":1777:1786  enclaveId */\n      dup5\n        /* \"contracts/enclavecontract.sol\":1768:1787  enclaves[enclaveId] */\n      mload(0x40)\n      tag_40\n      swap2\n      swap1\n      tag_41\n      jump\t// in\n    tag_40:\n      swap1\n      dup2\n      mstore\n      0x20\n      add\n      mload(0x40)\n      dup1\n      swap2\n      sub\n      swap1\n      keccak256\n        /* \"contracts/enclavecontract.sol\":1748:1787  Enclave storage e = enclaves[enclaveId] */\n      swap1\n      pop\n        /* \"contracts/enclavecontract.sol\":1817:1818  0 */\n      0x00\n        /* \"contracts/enclavecontract.sol\":1805:1806  e */\n      dup2\n        /* \"contracts/enclavecontract.sol\":1805:1814  e.version */\n      0x02\n      add\n      sload\n        /* \"contracts/enclavecontract.sol\":1805:1818  e.version > 0 */\n      gt\n        /* \"contracts/enclavecontract.sol\":1797:1840  require(e.version > 0, \"Enclave not found\") */\n      tag_42\n      jumpi\n      mload(0x40)\n      0x08c379a000000000000000000000000000000000000000000000000000000000\n      dup2\n      mstore\n      0x04\n      add\n      tag_43\n      swap1\n      tag_44\n      jump\t// in\n    tag_43:\n      mload(0x40)\n      dup1\n      swap2\n      sub\n      swap1\n      revert\n    tag_42:\n        /* \"contracts/enclavecontract.sol\":1866:1879  newConnectURL */\n      dup3\n        /* \"contracts/enclavecontract.sol\":1851:1852  e */\n      dup2\n        /* \"contracts/enclavecontract.sol\":1851:1863  e.connectURL */\n      0x00\n      add\n        /* \"contracts/enclavecontract.sol\":1851:1879  e.connectURL = newConnectURL */\n      swap1\n      dup2\n      tag_45\n      swap2\n      swap1\n      tag_46\n      jump\t// in\n    tag_45:\n      pop\n        /* \"contracts/enclavecontract.sol\":1900:1909  newPubkey */\n      dup2\n        /* \"contracts/enclavecontract.sol\":1889:1890  e */\n      dup2\n        /* \"contracts/enclavecontract.sol\":1889:1897  e.pubkey */\n      0x01\n      add\n        /* \"contracts/enclavecontract.sol\":1889:1909  e.pubkey = newPubkey */\n      swap1\n      dup2\n      tag_47\n      swap2\n      swap1\n      tag_46\n      jump\t// in\n    tag_47:\n      pop\n        /* \"contracts/enclavecontract.sol\":1932:1933  1 */\n      0x01\n        /* \"contracts/enclavecontract.sol\":1919:1920  e */\n      dup2\n        /* \"contracts/enclavecontract.sol\":1919:1928  e.version */\n      0x02\n      add\n      0x00\n        /* \"contracts/enclavecontract.sol\":1919:1933  e.version += 1 */\n      dup3\n      dup3\n      sload\n      tag_48\n      swap2\n      swap1\n      tag_49\n      jump\t// in\n    tag_48:\n      swap3\n      pop\n      pop\n      dup2\n      swap1\n      sstore\n      pop\n        /* \"contracts/enclavecontract.sol\":1957:1972  block.timestamp */\n      timestamp\n        /* \"contracts/enclavecontract.sol\":1943:1944  e */\n      dup2\n        /* \"contracts/enclavecontract.sol\":1943:1954  e.updatedAt */\n      0x03\n      add\n        /* \"contracts/enclavecontract.sol\":1943:1972  e.updatedAt = block.timestamp */\n      dup2\n      swap1\n      sstore\n      pop\n        /* \"contracts/enclavecontract.sol\":2003:2012  enclaveId */\n      dup4\n        /* \"contracts/enclavecontract.sol\":1988:2067  EnclaveUpdated(enclaveId, newConnectURL, newPubkey, e.version, block.timestamp) */\n      mload(0x40)\n      tag_50\n      swap2\n      swap1\n      tag_41\n      jump\t// in\n    tag_50:\n      mload(0x40)\n      dup1\n      swap2\n      sub\n      swap1\n      keccak256\n      0x32a3abc732792051b4ae39d05ce6c62827f45926bb50971e75840888d7411d35\n        /* \"contracts/enclavecontract.sol\":2014:2027  newConnectURL */\n      dup5\n        /* \"contracts/enclavecontract.sol\":2029:2038  newPubkey */\n      dup5\n        /* \"contracts/enclavecontract.sol\":2040:2041  e */\n      dup5\n        /* \"contracts/enclavecontract.sol\":2040:2049  e.version */\n      0x02\n      add\n      sload\n        /* \"contracts/enclavecontract.sol\":2051:2066  block.timestamp */\n      timestamp\n        /* \"contracts/enclavecontract.sol\":1988:2067  EnclaveUpdated(enclaveId, newConnectURL, newPubkey, e.version, block.timestamp) */\n      mload(0x40)\n      tag_51\n      swap5\n      swap4\n      swap3\n      swap2\n      swap1\n      tag_32\n      jump\t// in\n    tag_51:\n      mload(0x40)\n      dup1\n      swap2\n      sub\n      swap1\n      log2\n        /* \"contracts/enclavecontract.sol\":1586:2074  {... */\n      pop\n        /* \"contracts/enclavecontract.sol\":1477:2074  function updateEnclave(string memory enclaveId, string memory newConnectURL, string memory newPubkey) public {... */\n      pop\n      pop\n      pop\n      jump\t// out\n        /* \"contracts/enclavecontract.sol\":2584:3406  function getAllEnclaves () public view... */\n    tag_14:\n        /* \"contracts/enclavecontract.sol\":2653:2672  string[] memory ids */\n      0x60\n        /* \"contracts/enclavecontract.sol\":2686:2706  string[] memory urls */\n      dup1\n        /* \"contracts/enclavecontract.sol\":2720:2743  string[] memory pubkeys */\n      0x60\n        /* \"contracts/enclavecontract.sol\":2757:2782  uint256[] memory versions */\n      dup1\n        /* \"contracts/enclavecontract.sol\":2796:2823  uint256[] memory timestamps */\n      0x60\n        /* \"contracts/enclavecontract.sol\":2848:2861  uint256 count */\n      0x00\n        /* \"contracts/enclavecontract.sol\":2864:2874  enclaveIds */\n      0x01\n        /* \"contracts/enclavecontract.sol\":2864:2881  enclaveIds.length */\n      dup1\n      sload\n      swap1\n      pop\n        /* \"contracts/enclavecontract.sol\":2848:2881  uint256 count = enclaveIds.length */\n      swap1\n      pop\n        /* \"contracts/enclavecontract.sol\":2910:2915  count */\n      dup1\n        /* \"contracts/enclavecontract.sol\":2897:2916  new string[](count) */\n      0xffffffffffffffff\n      dup2\n      gt\n      iszero\n      tag_53\n      jumpi\n      tag_54\n      tag_55\n      jump\t// in\n    tag_54:\n    tag_53:\n      mload(0x40)\n      swap1\n      dup1\n      dup3\n      mstore\n      dup1\n      0x20\n      mul\n      0x20\n      add\n      dup3\n      add\n      0x40\n      mstore\n      dup1\n      iszero\n      tag_56\n      jumpi\n      dup2\n      0x20\n      add\n    tag_57:\n      0x60\n      dup2\n      mstore\n      0x20\n      add\n      swap1\n      0x01\n      swap1\n      sub\n      swap1\n      dup2\n      tag_57\n      jumpi\n      swap1\n      pop\n    tag_56:\n      pop\n        /* \"contracts/enclavecontract.sol\":2891:2916  ids = new string[](count) */\n      swap6\n      pop\n        /* \"contracts/enclavecontract.sol\":2946:2951  count */\n      dup1\n        /* \"contracts/enclavecontract.sol\":2933:2952  new string[](count) */\n      0xffffffffffffffff\n      dup2\n      gt\n      iszero\n      tag_58\n      jumpi\n      tag_59\n      tag_55\n      jump\t// in\n    tag_59:\n    tag_58:\n      mload(0x40)\n      swap1\n      dup1\n      dup3\n      mstore\n      dup1\n      0x20\n      mul\n      0x20\n      add\n      dup3\n      add\n      0x40\n      mstore\n      dup1\n      iszero\n      tag_60\n      jumpi\n      dup2\n      0x20\n      add\n    tag_61:\n      0x60\n      dup2\n      mstore\n      0x20\n      add\n      swap1\n      0x01\n      swap1\n      sub\n      swap1\n      dup2\n      tag_61\n      jumpi\n      swap1\n      pop\n    tag_60:\n      pop\n        /* \"contracts/enclavecontract.sol\":2926:2952  urls = new string[](count) */\n      swap5\n      pop\n        /* \"contracts/enclavecontract.sol\":2985:2990  count */\n      dup1\n        /* \"contracts/enclavecontract.sol\":2972:2991  new string[](count) */\n      0xffffffffffffffff\n      dup2\n      gt\n      iszero\n      tag_62\n      jumpi\n      tag_63\n      tag_55\n      jump\t// in\n    tag_63:\n    tag_62:\n      mload(0x40)\n      swap1\n      dup1\n      dup3\n      mstore\n      dup1\n      0x20\n      mul\n      0x20\n      add\n      dup3\n      add\n      0x40\n      mstore\n      dup1\n      iszero\n      tag_64\n      jumpi\n      dup2\n      0x20\n      add\n    tag_65:\n      0x60\n      dup2\n      mstore\n      0x20\n      add\n      swap1\n      0x01\n      swap1\n      sub\n      swap1\n      dup2\n      tag_65\n      jumpi\n      swap1\n      pop\n    tag_64:\n      pop\n        /* \"contracts/enclavecontract.sol\":2962:2991  pubkeys = new string[](count) */\n      swap4\n      pop\n        /* \"contracts/enclavecontract.sol\":3026:3031  count */\n      dup1\n        /* \"contracts/enclavecontract.sol\":3012:3032  new uint256[](count) */\n      0xffffffffffffffff\n      dup2\n      gt\n      iszero\n      tag_66\n      jumpi\n      tag_67\n      tag_55\n      jump\t// in\n    tag_67:\n    tag_66:\n      mload(0x40)\n      swap1\n      dup1\n      dup3\n      mstore\n      dup1\n      0x20\n      mul\n      0x20\n      add\n      dup3\n      add\n      0x40\n      mstore\n      dup1\n      iszero\n      tag_68\n      jumpi\n      dup2\n      0x20\n      add\n      0x20\n      dup3\n      mul\n      dup1\n      calldatasize\n      dup4\n      calldatacopy\n      dup1\n      dup3\n      add\n      swap2\n      pop\n      pop\n      swap1\n      pop\n    tag_68:\n      pop\n        /* \"contracts/enclavecontract.sol\":3001:3032  versions = new uint256[](count) */\n      swap3\n      pop\n        /* \"contracts/enclavecontract.sol\":3069:3074  count */\n      dup1\n        /* \"contracts/enclavecontract.sol\":3055:3075  new uint256[](count) */\n      0xffffffffffffffff\n      dup2\n      gt\n      iszero\n      tag_69\n      jumpi\n      tag_70\n      tag_55\n      jump\t// in\n    tag_70:\n    tag_69:\n      mload(0x40)\n      swap1\n      dup1\n      dup3\n      mstore\n      dup1\n      0x20\n      mul\n      0x20\n      add\n      dup3\n      add\n      0x40\n      mstore\n      dup1\n      iszero\n      tag_71\n      jumpi\n      dup2\n      0x20\n      add\n      0x20\n      dup3\n      mul\n      dup1\n      calldatasize\n      dup4\n      calldatacopy\n      dup1\n      dup3\n      add\n      swap2\n      pop\n      pop\n      swap1\n      pop\n    tag_71:\n      pop\n        /* \"contracts/enclavecontract.sol\":3042:3075  timestamps = new uint256[](count) */\n      swap2\n      pop\n        /* \"contracts/enclavecontract.sol\":3091:3100  uint256 i */\n      0x00\n        /* \"contracts/enclavecontract.sol\":3086:3400  for (uint256 i = 0; i < count; i++) {... */\n    tag_72:\n        /* \"contracts/enclavecontract.sol\":3110:3115  count */\n      dup2\n        /* \"contracts/enclavecontract.sol\":3106:3107  i */\n      dup2\n        /* \"contracts/enclavecontract.sol\":3106:3115  i < count */\n      lt\n        /* \"contracts/enclavecontract.sol\":3086:3400  for (uint256 i = 0; i < count; i++) {... */\n      iszero\n      tag_73\n      jumpi\n        /* \"contracts/enclavecontract.sol\":3136:3152  string memory id */\n      0x00\n        /* \"contracts/enclavecontract.sol\":3155:3165  enclaveIds */\n      0x01\n        /* \"contracts/enclavecontract.sol\":3166:3167  i */\n      dup3\n        /* \"contracts/enclavecontract.sol\":3155:3168  enclaveIds[i] */\n      dup2\n      sload\n      dup2\n      lt\n      tag_75\n      jumpi\n      tag_76\n      tag_77\n      jump\t// in\n    tag_76:\n    tag_75:\n      swap1\n      0x00\n      mstore\n      keccak256(0x00, 0x20)\n      add\n        /* \"contracts/enclavecontract.sol\":3136:3168  string memory id = enclaveIds[i] */\n      dup1\n      sload\n      tag_79\n      swap1\n      tag_80\n      jump\t// in\n    tag_79:\n      dup1\n      0x1f\n      add\n      0x20\n      dup1\n      swap2\n      div\n      mul\n      0x20\n      add\n      mload(0x40)\n      swap1\n      dup2\n      add\n      0x40\n      mstore\n      dup1\n      swap3\n      swap2\n      swap1\n      dup2\n      dup2\n      mstore\n      0x20\n      add\n      dup3\n      dup1\n      sload\n      tag_81\n      swap1\n      tag_80\n      jump\t// in\n    tag_81:\n      dup1\n      iszero\n      tag_82\n      jumpi\n      dup1\n      0x1f\n      lt\n      tag_83\n      jumpi\n      0x0100\n      dup1\n      dup4\n      sload\n      div\n      mul\n      dup4\n      mstore\n      swap2\n      0x20\n      add\n      swap2\n      jump(tag_82)\n    tag_83:\n      dup3\n      add\n      swap2\n      swap1\n      0x00\n      mstore\n      keccak256(0x00, 0x20)\n      swap1\n    tag_84:\n      dup2\n      sload\n      dup2\n      mstore\n      swap1\n      0x01\n      add\n      swap1\n      0x20\n      add\n      dup1\n      dup4\n      gt\n      tag_84\n      jumpi\n      dup3\n      swap1\n      sub\n      0x1f\n      and\n      dup3\n      add\n      swap2\n    tag_82:\n      pop\n      pop\n      pop\n      pop\n      pop\n      swap1\n      pop\n        /* \"contracts/enclavecontract.sol\":3182:3199  Enclave storage e */\n      0x00\n        /* \"contracts/enclavecontract.sol\":3202:3210  enclaves */\n      dup1\n        /* \"contracts/enclavecontract.sol\":3211:3213  id */\n      dup3\n        /* \"contracts/enclavecontract.sol\":3202:3214  enclaves[id] */\n      mload(0x40)\n      tag_85\n      swap2\n      swap1\n      tag_41\n      jump\t// in\n    tag_85:\n      swap1\n      dup2\n      mstore\n      0x20\n      add\n      mload(0x40)\n      dup1\n      swap2\n      sub\n      swap1\n      keccak256\n        /* \"contracts/enclavecontract.sol\":3182:3214  Enclave storage e = enclaves[id] */\n      swap1\n      pop\n        /* \"contracts/enclavecontract.sol\":3238:3240  id */\n      dup2\n        /* \"contracts/enclavecontract.sol\":3229:3232  ids */\n      dup10\n        /* \"contracts/enclavecontract.sol\":3233:3234  i */\n      dup5\n        /* \"contracts/enclavecontract.sol\":3229:3235  ids[i] */\n      dup2\n      mload\n      dup2\n      lt\n      tag_86\n      jumpi\n      tag_87\n      tag_77\n      jump\t// in\n    tag_87:\n    tag_86:\n      0x20\n      mul\n      0x20\n      add\n      add\n        /* \"contracts/enclavecontract.sol\":3229:3240  ids[i] = id */\n      dup2\n      swap1\n      mstore\n      pop\n        /* \"contracts/enclavecontract.sol\":3264:3265  e */\n      dup1\n        /* \"contracts/enclavecontract.sol\":3264:3276  e.connectURL */\n      0x00\n      add\n        /* \"contracts/enclavecontract.sol\":3254:3276  urls[i] = e.connectURL */\n      dup1\n      sload\n      tag_88\n      swap1\n      tag_80\n      jump\t// in\n    tag_88:\n      dup1\n      0x1f\n      add\n      0x20\n      dup1\n      swap2\n      div\n      mul\n      0x20\n      add\n      mload(0x40)\n      swap1\n      dup2\n      add\n      0x40\n      mstore\n      dup1\n      swap3\n      swap2\n      swap1\n      dup2\n      dup2\n      mstore\n      0x20\n      add\n      dup3\n      dup1\n      sload\n      tag_89\n      swap1\n      tag_80\n      jump\t// in\n    tag_89:\n      dup1\n      iszero\n      tag_90\n      jumpi\n      dup1\n      0x1f\n      lt\n      tag_91\n      jumpi\n      0x0100\n      dup1\n      dup4\n      sload\n      div\n      mul\n      dup4\n      mstore\n      swap2\n      0x20\n      add\n      swap2\n      jump(tag_90)\n    tag_91:\n      dup3\n      add\n      swap2\n      swap1\n      0x00\n      mstore\n      keccak256(0x00, 0x20)\n      swap1\n    tag_92:\n      dup2\n      sload\n      dup2\n      mstore\n      swap1\n      0x01\n      add\n      swap1\n      0x20\n      add\n      dup1\n      dup4\n      gt\n      tag_92\n      jumpi\n      dup3\n      swap1\n      sub\n      0x1f\n      and\n      dup3\n      add\n      swap2\n    tag_90:\n      pop\n      pop\n      pop\n      pop\n      pop\n        /* \"contracts/enclavecontract.sol\":3254:3258  urls */\n      dup9\n        /* \"contracts/enclavecontract.sol\":3259:3260  i */\n      dup5\n        /* \"contracts/enclavecontract.sol\":3254:3261  urls[i] */\n      dup2\n      mload\n      dup2\n      lt\n      tag_93\n      jumpi\n      tag_94\n      tag_77\n      jump\t// in\n    tag_94:\n    tag_93:\n      0x20\n      mul\n      0x20\n      add\n      add\n        /* \"contracts/enclavecontract.sol\":3254:3276  urls[i] = e.connectURL */\n      dup2\n      swap1\n      mstore\n      pop\n        /* \"contracts/enclavecontract.sol\":3303:3304  e */\n      dup1\n        /* \"contracts/enclavecontract.sol\":3303:3311  e.pubkey */\n      0x01\n      add\n        /* \"contracts/enclavecontract.sol\":3290:3311  pubkeys[i] = e.pubkey */\n      dup1\n      sload\n      tag_95\n      swap1\n      tag_80\n      jump\t// in\n    tag_95:\n      dup1\n      0x1f\n      add\n      0x20\n      dup1\n      swap2\n      div\n      mul\n      0x20\n      add\n      mload(0x40)\n      swap1\n      dup2\n      add\n      0x40\n      mstore\n      dup1\n      swap3\n      swap2\n      swap1\n      dup2\n      dup2\n      mstore\n      0x20\n      add\n      dup3\n      dup1\n      sload\n      tag_96\n      swap1\n      tag_80\n      jump\t// in\n    tag_96:\n      dup1\n      iszero\n      tag_97\n      jumpi\n      dup1\n      0x1f\n      lt\n      tag_98\n      jumpi\n      0x0100\n      dup1\n      dup4\n      sload\n      div\n      mul\n      dup4\n      mstore\n      swap2\n      0x20\n      add\n      swap2\n      jump(tag_97)\n    tag_98:\n      dup3\n      add\n      swap2\n      swap1\n      0x00\n      mstore\n      keccak256(0x00, 0x20)\n      swap1\n    tag_99:\n      dup2\n      sload\n      dup2\n      mstore\n      swap1\n      0x01\n      add\n      swap1\n      0x20\n      add\n      dup1\n      dup4\n      gt\n      tag_99\n      jumpi\n      dup3\n      swap1\n      sub\n      0x1f\n      and\n      dup3\n      add\n      swap2\n    tag_97:\n      pop\n      pop\n      pop\n      pop\n      pop\n        /* \"contracts/enclavecontract.sol\":3290:3297  pubkeys */\n      dup8\n        /* \"contracts/enclavecontract.sol\":3298:3299  i */\n      dup5\n        /* \"contracts/enclavecontract.sol\":3290:3300  pubkeys[i] */\n      dup2\n      mload\n      dup2\n      lt\n      tag_100\n      jumpi\n      tag_101\n      tag_77\n      jump\t// in\n    tag_101:\n    tag_100:\n      0x20\n      mul\n      0x20\n      add\n      add\n        /* \"contracts/enclavecontract.sol\":3290:3311  pubkeys[i] = e.pubkey */\n      dup2\n      swap1\n      mstore\n      pop\n        /* \"contracts/enclavecontract.sol\":3339:3340  e */\n      dup1\n        /* \"contracts/enclavecontract.sol\":3339:3348  e.version */\n      0x02\n      add\n      sload\n        /* \"contracts/enclavecontract.sol\":3325:3333  versions */\n      dup7\n        /* \"contracts/enclavecontract.sol\":3334:3335  i */\n      dup5\n        /* \"contracts/enclavecontract.sol\":3325:3336  versions[i] */\n      dup2\n      mload\n      dup2\n      lt\n      tag_102\n      jumpi\n      tag_103\n      tag_77\n      jump\t// in\n    tag_103:\n    tag_102:\n      0x20\n      mul\n      0x20\n      add\n      add\n        /* \"contracts/enclavecontract.sol\":3325:3348  versions[i] = e.version */\n      dup2\n      dup2\n      mstore\n      pop\n      pop\n        /* \"contracts/enclavecontract.sol\":3378:3379  e */\n      dup1\n        /* \"contracts/enclavecontract.sol\":3378:3389  e.updatedAt */\n      0x03\n      add\n      sload\n        /* \"contracts/enclavecontract.sol\":3362:3372  timestamps */\n      dup6\n        /* \"contracts/enclavecontract.sol\":3373:3374  i */\n      dup5\n        /* \"contracts/enclavecontract.sol\":3362:3375  timestamps[i] */\n      dup2\n      mload\n      dup2\n      lt\n      tag_104\n      jumpi\n      tag_105\n      tag_77\n      jump\t// in\n    tag_105:\n    tag_104:\n      0x20\n      mul\n      0x20\n      add\n      add\n        /* \"contracts/enclavecontract.sol\":3362:3389  timestamps[i] = e.updatedAt */\n      dup2\n      dup2\n      mstore\n      pop\n      pop\n        /* \"contracts/enclavecontract.sol\":3122:3400  {... */\n      pop\n      pop\n        /* \"contracts/enclavecontract.sol\":3117:3120  i++ */\n      dup1\n      dup1\n      tag_106\n      swap1\n      tag_107\n      jump\t// in\n    tag_106:\n      swap2\n      pop\n      pop\n        /* \"contracts/enclavecontract.sol\":3086:3400  for (uint256 i = 0; i < count; i++) {... */\n      jump(tag_72)\n    tag_73:\n      pop\n        /* \"contracts/enclavecontract.sol\":2838:3406  {... */\n      pop\n        /* \"contracts/enclavecontract.sol\":2584:3406  function getAllEnclaves () public view... */\n      swap1\n      swap2\n      swap3\n      swap4\n      swap5\n      jump\t// out\n        /* \"contracts/enclavecontract.sol\":2410:2508  function listEnclaveIds() public view returns (string[] memory) {... */\n    tag_18:\n        /* \"contracts/enclavecontract.sol\":2457:2472  string[] memory */\n      0x60\n        /* \"contracts/enclavecontract.sol\":2491:2501  enclaveIds */\n      0x01\n        /* \"contracts/enclavecontract.sol\":2484:2501  return enclaveIds */\n      dup1\n      sload\n      dup1\n      0x20\n      mul\n      0x20\n      add\n      mload(0x40)\n      swap1\n      dup2\n      add\n      0x40\n      mstore\n      dup1\n      swap3\n      swap2\n      swap1\n      dup2\n      dup2\n      mstore\n      0x20\n      add\n      0x00\n      swap1\n    tag_109:\n      dup3\n      dup3\n      lt\n      iszero\n      tag_110\n      jumpi\n      dup4\n      dup3\n      swap1\n      0x00\n      mstore\n      keccak256(0x00, 0x20)\n      add\n      dup1\n      sload\n      tag_112\n      swap1\n      tag_80\n      jump\t// in\n    tag_112:\n      dup1\n      0x1f\n      add\n      0x20\n      dup1\n      swap2\n      div\n      mul\n      0x20\n      add\n      mload(0x40)\n      swap1\n      dup2\n      add\n      0x40\n      mstore\n      dup1\n      swap3\n      swap2\n      swap1\n      dup2\n      dup2\n      mstore\n      0x20\n      add\n      dup3\n      dup1\n      sload\n      tag_113\n      swap1\n      tag_80\n      jump\t// in\n    tag_113:\n      dup1\n      iszero\n      tag_114\n      jumpi\n      dup1\n      0x1f\n      lt\n      tag_115\n      jumpi\n      0x0100\n      dup1\n      dup4\n      sload\n      div\n      mul\n      dup4\n      mstore\n      swap2\n      0x20\n      add\n      swap2\n      jump(tag_114)\n    tag_115:\n      dup3\n      add\n      swap2\n      swap1\n      0x00\n      mstore\n      keccak256(0x00, 0x20)\n      swap1\n    tag_116:\n      dup2\n      sload\n      dup2\n      mstore\n      swap1\n      0x01\n      add\n      swap1\n      0x20\n      add\n      dup1\n      dup4\n      gt\n      tag_116\n      jumpi\n      dup3\n      swap1\n      sub\n      0x1f\n      and\n      dup3\n      add\n      swap2\n    tag_114:\n      pop\n      pop\n      pop\n      pop\n      pop\n      dup2\n      mstore\n      0x20\n      add\n      swap1\n      0x01\n      add\n      swap1\n      jump(tag_109)\n    tag_110:\n      pop\n      pop\n      pop\n      pop\n      swap1\n      pop\n        /* \"contracts/enclavecontract.sol\":2410:2508  function listEnclaveIds() public view returns (string[] memory) {... */\n      swap1\n      jump\t// out\n        /* \"contracts/enclavecontract.sol\":775:1471  function registerEnclave(string memory enclaveId, string memory connectURL, string memory pubkey) public {... */\n    tag_23:\n        /* \"contracts/enclavecontract.sol\":924:925  0 */\n      0x00\n        /* \"contracts/enclavecontract.sol\":904:913  enclaveId */\n      dup4\n        /* \"contracts/enclavecontract.sol\":898:921  bytes(enclaveId).length */\n      mload\n        /* \"contracts/enclavecontract.sol\":898:925  bytes(enclaveId).length > 0 */\n      gt\n        /* \"contracts/enclavecontract.sol\":890:949  require(bytes(enclaveId).length > 0, \"Enclave ID required\") */\n      tag_118\n      jumpi\n      mload(0x40)\n      0x08c379a000000000000000000000000000000000000000000000000000000000\n      dup2\n      mstore\n      0x04\n      add\n      tag_119\n      swap1\n      tag_120\n      jump\t// in\n    tag_119:\n      mload(0x40)\n      dup1\n      swap2\n      sub\n      swap1\n      revert\n    tag_118:\n        /* \"contracts/enclavecontract.sol\":994:995  0 */\n      0x00\n        /* \"contracts/enclavecontract.sol\":973:983  connectURL */\n      dup3\n        /* \"contracts/enclavecontract.sol\":967:991  bytes(connectURL).length */\n      mload\n        /* \"contracts/enclavecontract.sol\":967:995  bytes(connectURL).length > 0 */\n      gt\n        /* \"contracts/enclavecontract.sol\":959:1020  require(bytes(connectURL).length > 0, \"Connect URL required\") */\n      tag_121\n      jumpi\n      mload(0x40)\n      0x08c379a000000000000000000000000000000000000000000000000000000000\n      dup2\n      mstore\n      0x04\n      add\n      tag_122\n      swap1\n      tag_123\n      jump\t// in\n    tag_122:\n      mload(0x40)\n      dup1\n      swap2\n      sub\n      swap1\n      revert\n    tag_121:\n        /* \"contracts/enclavecontract.sol\":1061:1062  0 */\n      0x00\n        /* \"contracts/enclavecontract.sol\":1044:1050  pubkey */\n      dup2\n        /* \"contracts/enclavecontract.sol\":1038:1058  bytes(pubkey).length */\n      mload\n        /* \"contracts/enclavecontract.sol\":1038:1062  bytes(pubkey).length > 0 */\n      gt\n        /* \"contracts/enclavecontract.sol\":1030:1086  require(bytes(pubkey).length > 0, \"Public key required\") */\n      tag_124\n      jumpi\n      mload(0x40)\n      0x08c379a000000000000000000000000000000000000000000000000000000000\n      dup2\n      mstore\n      0x04\n      add\n      tag_125\n      swap1\n      tag_126\n      jump\t// in\n    tag_125:\n      mload(0x40)\n      dup1\n      swap2\n      sub\n      swap1\n      revert\n    tag_124:\n        /* \"contracts/enclavecontract.sol\":1135:1136  0 */\n      0x00\n        /* \"contracts/enclavecontract.sol\":1104:1112  enclaves */\n      dup1\n        /* \"contracts/enclavecontract.sol\":1113:1122  enclaveId */\n      dup5\n        /* \"contracts/enclavecontract.sol\":1104:1123  enclaves[enclaveId] */\n      mload(0x40)\n      tag_127\n      swap2\n      swap1\n      tag_41\n      jump\t// in\n    tag_127:\n      swap1\n      dup2\n      mstore\n      0x20\n      add\n      mload(0x40)\n      dup1\n      swap2\n      sub\n      swap1\n      keccak256\n        /* \"contracts/enclavecontract.sol\":1104:1131  enclaves[enclaveId].version */\n      0x02\n      add\n      sload\n        /* \"contracts/enclavecontract.sol\":1104:1136  enclaves[enclaveId].version == 0 */\n      eq\n        /* \"contracts/enclavecontract.sol\":1096:1163  require(enclaves[enclaveId].version == 0, \"Enclave already exists\") */\n      tag_128\n      jumpi\n      mload(0x40)\n      0x08c379a000000000000000000000000000000000000000000000000000000000\n      dup2\n      mstore\n      0x04\n      add\n      tag_129\n      swap1\n      tag_130\n      jump\t// in\n    tag_129:\n      mload(0x40)\n      dup1\n      swap2\n      sub\n      swap1\n      revert\n    tag_128:\n        /* \"contracts/enclavecontract.sol\":1196:1343  Enclave({... */\n      mload(0x40)\n      dup1\n      0x80\n      add\n      0x40\n      mstore\n      dup1\n        /* \"contracts/enclavecontract.sol\":1230:1240  connectURL */\n      dup4\n        /* \"contracts/enclavecontract.sol\":1196:1343  Enclave({... */\n      dup2\n      mstore\n      0x20\n      add\n        /* \"contracts/enclavecontract.sol\":1262:1268  pubkey */\n      dup3\n        /* \"contracts/enclavecontract.sol\":1196:1343  Enclave({... */\n      dup2\n      mstore\n      0x20\n      add\n        /* \"contracts/enclavecontract.sol\":1291:1292  1 */\n      0x01\n        /* \"contracts/enclavecontract.sol\":1196:1343  Enclave({... */\n      dup2\n      mstore\n      0x20\n      add\n        /* \"contracts/enclavecontract.sol\":1317:1332  block.timestamp */\n      timestamp\n        /* \"contracts/enclavecontract.sol\":1196:1343  Enclave({... */\n      dup2\n      mstore\n      pop\n        /* \"contracts/enclavecontract.sol\":1174:1182  enclaves */\n      0x00\n        /* \"contracts/enclavecontract.sol\":1183:1192  enclaveId */\n      dup5\n        /* \"contracts/enclavecontract.sol\":1174:1193  enclaves[enclaveId] */\n      mload(0x40)\n      tag_131\n      swap2\n      swap1\n      tag_41\n      jump\t// in\n    tag_131:\n      swap1\n      dup2\n      mstore\n      0x20\n      add\n      mload(0x40)\n      dup1\n      swap2\n      sub\n      swap1\n      keccak256\n        /* \"contracts/enclavecontract.sol\":1174:1343  enclaves[enclaveId] = Enclave({... */\n      0x00\n      dup3\n      add\n      mload\n      dup2\n      0x00\n      add\n      swap1\n      dup2\n      tag_132\n      swap2\n      swap1\n      tag_46\n      jump\t// in\n    tag_132:\n      pop\n      0x20\n      dup3\n      add\n      mload\n      dup2\n      0x01\n      add\n      swap1\n      dup2\n      tag_133\n      swap2\n      swap1\n      tag_46\n      jump\t// in\n    tag_133:\n      pop\n      0x40\n      dup3\n      add\n      mload\n      dup2\n      0x02\n      add\n      sstore\n      0x60\n      dup3\n      add\n      mload\n      dup2\n      0x03\n      add\n      sstore\n      swap1\n      pop\n      pop\n        /* \"contracts/enclavecontract.sol\":1354:1364  enclaveIds */\n      0x01\n        /* \"contracts/enclavecontract.sol\":1370:1379  enclaveId */\n      dup4\n        /* \"contracts/enclavecontract.sol\":1354:1380  enclaveIds.push(enclaveId) */\n      swap1\n      dup1\n      0x01\n      dup2\n      sload\n      add\n      dup1\n      dup3\n      sstore\n      dup1\n      swap2\n      pop\n      pop\n      0x01\n      swap1\n      sub\n      swap1\n      0x00\n      mstore\n      keccak256(0x00, 0x20)\n      add\n      0x00\n      swap1\n      swap2\n      swap1\n      swap2\n      swap1\n      swap2\n      pop\n      swap1\n      dup2\n      tag_135\n      swap2\n      swap1\n      tag_46\n      jump\t// in\n    tag_135:\n      pop\n        /* \"contracts/enclavecontract.sol\":1414:1423  enclaveId */\n      dup3\n        /* \"contracts/enclavecontract.sol\":1396:1464  EnclaveRegistered(enclaveId, connectURL, pubkey, 1, block.timestamp) */\n      mload(0x40)\n      tag_136\n      swap2\n      swap1\n      tag_41\n      jump\t// in\n    tag_136:\n      mload(0x40)\n      dup1\n      swap2\n      sub\n      swap1\n      keccak256\n      0x3fa539bee9fa84e37f78eda39fa4bcdbd2ed9727b4857312813a8a9c64b81ed4\n        /* \"contracts/enclavecontract.sol\":1425:1435  connectURL */\n      dup4\n        /* \"contracts/enclavecontract.sol\":1437:1443  pubkey */\n      dup4\n        /* \"contracts/enclavecontract.sol\":1445:1446  1 */\n      0x01\n        /* \"contracts/enclavecontract.sol\":1448:1463  block.timestamp */\n      timestamp\n        /* \"contracts/enclavecontract.sol\":1396:1464  EnclaveRegistered(enclaveId, connectURL, pubkey, 1, block.timestamp) */\n      mload(0x40)\n      tag_137\n      swap5\n      swap4\n      swap3\n      swap2\n      swap1\n      tag_138\n      jump\t// in\n    tag_137:\n      mload(0x40)\n      dup1\n      swap2\n      sub\n      swap1\n      log2\n        /* \"contracts/enclavecontract.sol\":775:1471  function registerEnclave(string memory enclaveId, string memory connectURL, string memory pubkey) public {... */\n      pop\n      pop\n      pop\n      jump\t// out\n        /* \"contracts/enclavecontract.sol\":3465:4079  function deleteEnclave(string memory enclaveId) public {... */\n    tag_27:\n        /* \"contracts/enclavecontract.sol\":3530:3547  Enclave storage e */\n      0x00\n        /* \"contracts/enclavecontract.sol\":3550:3558  enclaves */\n      dup1\n        /* \"contracts/enclavecontract.sol\":3559:3568  enclaveId */\n      dup3\n        /* \"contracts/enclavecontract.sol\":3550:3569  enclaves[enclaveId] */\n      mload(0x40)\n      tag_140\n      swap2\n      swap1\n      tag_41\n      jump\t// in\n    tag_140:\n      swap1\n      dup2\n      mstore\n      0x20\n      add\n      mload(0x40)\n      dup1\n      swap2\n      sub\n      swap1\n      keccak256\n        /* \"contracts/enclavecontract.sol\":3530:3569  Enclave storage e = enclaves[enclaveId] */\n      swap1\n      pop\n        /* \"contracts/enclavecontract.sol\":3599:3600  0 */\n      0x00\n        /* \"contracts/enclavecontract.sol\":3587:3588  e */\n      dup2\n        /* \"contracts/enclavecontract.sol\":3587:3596  e.version */\n      0x02\n      add\n      sload\n        /* \"contracts/enclavecontract.sol\":3587:3600  e.version > 0 */\n      gt\n        /* \"contracts/enclavecontract.sol\":3579:3622  require(e.version > 0, \"Enclave not found\") */\n      tag_141\n      jumpi\n      mload(0x40)\n      0x08c379a000000000000000000000000000000000000000000000000000000000\n      dup2\n      mstore\n      0x04\n      add\n      tag_142\n      swap1\n      tag_44\n      jump\t// in\n    tag_142:\n      mload(0x40)\n      dup1\n      swap2\n      sub\n      swap1\n      revert\n    tag_141:\n        /* \"contracts/enclavecontract.sol\":3640:3648  enclaves */\n      0x00\n        /* \"contracts/enclavecontract.sol\":3649:3658  enclaveId */\n      dup3\n        /* \"contracts/enclavecontract.sol\":3640:3659  enclaves[enclaveId] */\n      mload(0x40)\n      tag_143\n      swap2\n      swap1\n      tag_41\n      jump\t// in\n    tag_143:\n      swap1\n      dup2\n      mstore\n      0x20\n      add\n      mload(0x40)\n      dup1\n      swap2\n      sub\n      swap1\n      keccak256\n      0x00\n        /* \"contracts/enclavecontract.sol\":3633:3659  delete enclaves[enclaveId] */\n      dup1\n      dup3\n      add\n      0x00\n      tag_144\n      swap2\n      swap1\n      tag_145\n      jump\t// in\n    tag_144:\n      0x01\n      dup3\n      add\n      0x00\n      tag_146\n      swap2\n      swap1\n      tag_145\n      jump\t// in\n    tag_146:\n      0x02\n      dup3\n      add\n      0x00\n      swap1\n      sstore\n      0x03\n      dup3\n      add\n      0x00\n      swap1\n      sstore\n      pop\n      pop\n        /* \"contracts/enclavecontract.sol\":3712:3725  uint256 count */\n      0x00\n        /* \"contracts/enclavecontract.sol\":3728:3738  enclaveIds */\n      0x01\n        /* \"contracts/enclavecontract.sol\":3728:3745  enclaveIds.length */\n      dup1\n      sload\n      swap1\n      pop\n        /* \"contracts/enclavecontract.sol\":3712:3745  uint256 count = enclaveIds.length */\n      swap1\n      pop\n        /* \"contracts/enclavecontract.sol\":3760:3769  uint256 i */\n      0x00\n        /* \"contracts/enclavecontract.sol\":3755:4032  for (uint256 i = 0; i < count; i++) {... */\n    tag_147:\n        /* \"contracts/enclavecontract.sol\":3779:3784  count */\n      dup2\n        /* \"contracts/enclavecontract.sol\":3775:3776  i */\n      dup2\n        /* \"contracts/enclavecontract.sol\":3775:3784  i < count */\n      lt\n        /* \"contracts/enclavecontract.sol\":3755:4032  for (uint256 i = 0; i < count; i++) {... */\n      iszero\n      tag_148\n      jumpi\n        /* \"contracts/enclavecontract.sol\":3882:3891  enclaveId */\n      dup4\n        /* \"contracts/enclavecontract.sol\":3865:3892  abi.encodePacked(enclaveId) */\n      add(0x20, mload(0x40))\n      tag_150\n      swap2\n      swap1\n      tag_41\n      jump\t// in\n    tag_150:\n      mload(0x40)\n      0x20\n      dup2\n      dup4\n      sub\n      sub\n      dup2\n      mstore\n      swap1\n      0x40\n      mstore\n        /* \"contracts/enclavecontract.sol\":3855:3893  keccak256(abi.encodePacked(enclaveId)) */\n      dup1\n      mload\n      swap1\n      0x20\n      add\n      keccak256\n        /* \"contracts/enclavecontract.sol\":3836:3846  enclaveIds */\n      0x01\n        /* \"contracts/enclavecontract.sol\":3847:3848  i */\n      dup3\n        /* \"contracts/enclavecontract.sol\":3836:3849  enclaveIds[i] */\n      dup2\n      sload\n      dup2\n      lt\n      tag_151\n      jumpi\n      tag_152\n      tag_77\n      jump\t// in\n    tag_152:\n    tag_151:\n      swap1\n      0x00\n      mstore\n      keccak256(0x00, 0x20)\n      add\n        /* \"contracts/enclavecontract.sol\":3819:3850  abi.encodePacked(enclaveIds[i]) */\n      add(0x20, mload(0x40))\n      tag_154\n      swap2\n      swap1\n      tag_155\n      jump\t// in\n    tag_154:\n      mload(0x40)\n      0x20\n      dup2\n      dup4\n      sub\n      sub\n      dup2\n      mstore\n      swap1\n      0x40\n      mstore\n        /* \"contracts/enclavecontract.sol\":3809:3851  keccak256(abi.encodePacked(enclaveIds[i])) */\n      dup1\n      mload\n      swap1\n      0x20\n      add\n      keccak256\n        /* \"contracts/enclavecontract.sol\":3809:3893  keccak256(abi.encodePacked(enclaveIds[i])) == keccak256(abi.encodePacked(enclaveId)) */\n      sub\n        /* \"contracts/enclavecontract.sol\":3805:4022  if (keccak256(abi.encodePacked(enclaveIds[i])) == keccak256(abi.encodePacked(enclaveId))) {... */\n      tag_156\n      jumpi\n        /* \"contracts/enclavecontract.sol\":3929:3939  enclaveIds */\n      0x01\n        /* \"contracts/enclavecontract.sol\":3948:3949  1 */\n      dup1\n        /* \"contracts/enclavecontract.sol\":3940:3945  count */\n      dup4\n        /* \"contracts/enclavecontract.sol\":3940:3949  count - 1 */\n      tag_157\n      swap2\n      swap1\n      tag_158\n      jump\t// in\n    tag_157:\n        /* \"contracts/enclavecontract.sol\":3929:3950  enclaveIds[count - 1] */\n      dup2\n      sload\n      dup2\n      lt\n      tag_159\n      jumpi\n      tag_160\n      tag_77\n      jump\t// in\n    tag_160:\n    tag_159:\n      swap1\n      0x00\n      mstore\n      keccak256(0x00, 0x20)\n      add\n        /* \"contracts/enclavecontract.sol\":3913:3923  enclaveIds */\n      0x01\n        /* \"contracts/enclavecontract.sol\":3924:3925  i */\n      dup3\n        /* \"contracts/enclavecontract.sol\":3913:3926  enclaveIds[i] */\n      dup2\n      sload\n      dup2\n      lt\n      tag_162\n      jumpi\n      tag_163\n      tag_77\n      jump\t// in\n    tag_163:\n    tag_162:\n      swap1\n      0x00\n      mstore\n      keccak256(0x00, 0x20)\n      add\n        /* \"contracts/enclavecontract.sol\":3913:3950  enclaveIds[i] = enclaveIds[count - 1] */\n      swap1\n      dup2\n      tag_165\n      swap2\n      swap1\n      tag_166\n      jump\t// in\n    tag_165:\n      pop\n        /* \"contracts/enclavecontract.sol\":3968:3978  enclaveIds */\n      0x01\n        /* \"contracts/enclavecontract.sol\":3968:3984  enclaveIds.pop() */\n      dup1\n      sload\n      dup1\n      tag_167\n      jumpi\n      tag_168\n      tag_169\n      jump\t// in\n    tag_168:\n    tag_167:\n      0x01\n      swap1\n      sub\n      dup2\n      dup2\n      swap1\n      0x00\n      mstore\n      keccak256(0x00, 0x20)\n      add\n      0x00\n      tag_171\n      swap2\n      swap1\n      tag_145\n      jump\t// in\n    tag_171:\n      swap1\n      sstore\n        /* \"contracts/enclavecontract.sol\":4002:4007  break */\n      jump(tag_148)\n        /* \"contracts/enclavecontract.sol\":3805:4022  if (keccak256(abi.encodePacked(enclaveIds[i])) == keccak256(abi.encodePacked(enclaveId))) {... */\n    tag_156:\n        /* \"contracts/enclavecontract.sol\":3786:3789  i++ */\n      dup1\n      dup1\n      tag_172\n      swap1\n      tag_107\n      jump\t// in\n    tag_172:\n      swap2\n      pop\n      pop\n        /* \"contracts/enclavecontract.sol\":3755:4032  for (uint256 i = 0; i < count; i++) {... */\n      jump(tag_147)\n    tag_148:\n      pop\n        /* \"contracts/enclavecontract.sol\":4062:4071  enclaveId */\n      dup3\n        /* \"contracts/enclavecontract.sol\":4047:4072  EnclaveDeleted(enclaveId) */\n      mload(0x40)\n      tag_173\n      swap2\n      swap1\n      tag_41\n      jump\t// in\n    tag_173:\n      mload(0x40)\n      dup1\n      swap2\n      sub\n      swap1\n      keccak256\n      0x89d0532994016674064c39c0f9ab6740e13cf7aa0c4491dcdbd9fd3f9f5a9e9f\n      mload(0x40)\n      mload(0x40)\n      dup1\n      swap2\n      sub\n      swap1\n      log2\n        /* \"contracts/enclavecontract.sol\":3520:4079  {... */\n      pop\n      pop\n        /* \"contracts/enclavecontract.sol\":3465:4079  function deleteEnclave(string memory enclaveId) public {... */\n      pop\n      jump\t// out\n        /* \"contracts/enclavecontract.sol\":2080:2404  function getEnclave(string memory enclaveId) public view returns (string memory connectURL, string memory pubkey, uint256 version, uint256 updatedAt) {... */\n    tag_30:\n        /* \"contracts/enclavecontract.sol\":2146:2170  string memory connectURL */\n      0x60\n        /* \"contracts/enclavecontract.sol\":2172:2192  string memory pubkey */\n      dup1\n        /* \"contracts/enclavecontract.sol\":2194:2209  uint256 version */\n      0x00\n        /* \"contracts/enclavecontract.sol\":2211:2228  uint256 updatedAt */\n      dup1\n        /* \"contracts/enclavecontract.sol\":2240:2257  Enclave storage e */\n      0x00\n        /* \"contracts/enclavecontract.sol\":2260:2268  enclaves */\n      dup1\n        /* \"contracts/enclavecontract.sol\":2269:2278  enclaveId */\n      dup7\n        /* \"contracts/enclavecontract.sol\":2260:2279  enclaves[enclaveId] */\n      mload(0x40)\n      tag_175\n      swap2\n      swap1\n      tag_41\n      jump\t// in\n    tag_175:\n      swap1\n      dup2\n      mstore\n      0x20\n      add\n      mload(0x40)\n      dup1\n      swap2\n      sub\n      swap1\n      keccak256\n        /* \"contracts/enclavecontract.sol\":2240:2279  Enclave storage e = enclaves[enclaveId] */\n      swap1\n      pop\n        /* \"contracts/enclavecontract.sol\":2309:2310  0 */\n      0x00\n        /* \"contracts/enclavecontract.sol\":2297:2298  e */\n      dup2\n        /* \"contracts/enclavecontract.sol\":2297:2306  e.version */\n      0x02\n      add\n      sload\n        /* \"contracts/enclavecontract.sol\":2297:2310  e.version > 0 */\n      gt\n        /* \"contracts/enclavecontract.sol\":2289:2332  require(e.version > 0, \"Enclave not found\") */\n      tag_176\n      jumpi\n      mload(0x40)\n      0x08c379a000000000000000000000000000000000000000000000000000000000\n      dup2\n      mstore\n      0x04\n      add\n      tag_177\n      swap1\n      tag_44\n      jump\t// in\n    tag_177:\n      mload(0x40)\n      dup1\n      swap2\n      sub\n      swap1\n      revert\n    tag_176:\n        /* \"contracts/enclavecontract.sol\":2350:2351  e */\n      dup1\n        /* \"contracts/enclavecontract.sol\":2350:2362  e.connectURL */\n      0x00\n      add\n        /* \"contracts/enclavecontract.sol\":2364:2365  e */\n      dup2\n        /* \"contracts/enclavecontract.sol\":2364:2372  e.pubkey */\n      0x01\n      add\n        /* \"contracts/enclavecontract.sol\":2374:2375  e */\n      dup3\n        /* \"contracts/enclavecontract.sol\":2374:2383  e.version */\n      0x02\n      add\n      sload\n        /* \"contracts/enclavecontract.sol\":2385:2386  e */\n      dup4\n        /* \"contracts/enclavecontract.sol\":2385:2396  e.updatedAt */\n      0x03\n      add\n      sload\n        /* \"contracts/enclavecontract.sol\":2342:2397  return (e.connectURL, e.pubkey, e.version, e.updatedAt) */\n      dup4\n      dup1\n      sload\n      tag_178\n      swap1\n      tag_80\n      jump\t// in\n    tag_178:\n      dup1\n      0x1f\n      add\n      0x20\n      dup1\n      swap2\n      div\n      mul\n      0x20\n      add\n      mload(0x40)\n      swap1\n      dup2\n      add\n      0x40\n      mstore\n      dup1\n      swap3\n      swap2\n      swap1\n      dup2\n      dup2\n      mstore\n      0x20\n      add\n      dup3\n      dup1\n      sload\n      tag_179\n      swap1\n      tag_80\n      jump\t// in\n    tag_179:\n      dup1\n      iszero\n      tag_180\n      jumpi\n      dup1\n      0x1f\n      lt\n      tag_181\n      jumpi\n      0x0100\n      dup1\n      dup4\n      sload\n      div\n      mul\n      dup4\n      mstore\n      swap2\n      0x20\n      add\n      swap2\n      jump(tag_180)\n    tag_181:\n      dup3\n      add\n      swap2\n      swap1\n      0x00\n      mstore\n      keccak256(0x00, 0x20)\n      swap1\n    tag_182:\n      dup2\n      sload\n      dup2\n      mstore\n      swap1\n      0x01\n      add\n      swap1\n      0x20\n      add\n      dup1\n      dup4\n      gt\n      tag_182\n      jumpi\n      dup3\n      swap1\n      sub\n      0x1f\n      and\n      dup3\n      add\n      swap2\n    tag_180:\n      pop\n      pop\n      pop\n      pop\n      pop\n      swap4\n      pop\n      dup3\n      dup1\n      sload\n      tag_183\n      swap1\n      tag_80\n      jump\t// in\n    tag_183:\n      dup1\n      0x1f\n      add\n      0x20\n      dup1\n      swap2\n      div\n      mul\n      0x20\n      add\n      mload(0x40)\n      swap1\n      dup2\n      add\n      0x40\n      mstore\n      dup1\n      swap3\n      swap2\n      swap1\n      dup2\n      dup2\n      mstore\n      0x20\n      add\n      dup3\n      dup1\n      sload\n      tag_184\n      swap1\n      tag_80\n      jump\t// in\n    tag_184:\n      dup1\n      iszero\n      tag_185\n      jumpi\n      dup1\n      0x1f\n      lt\n      tag_186\n      jumpi\n      0x0100\n      dup1\n      dup4\n      sload\n      div\n      mul\n      dup4\n      mstore\n      swap2\n      0x20\n      add\n      swap2\n      jump(tag_185)\n    tag_186:\n      dup3\n      add\n      swap2\n      swap1\n      0x00\n      mstore\n      keccak256(0x00, 0x20)\n      swap1\n    tag_187:\n      dup2\n      sload\n      dup2\n      mstore\n      swap1\n      0x01\n      add\n      swap1\n      0x20\n      add\n      dup1\n      dup4\n      gt\n      tag_187\n      jumpi\n      dup3\n      swap1\n      sub\n      0x1f\n      and\n      dup3\n      add\n      swap2\n    tag_185:\n      pop\n      pop\n      pop\n      pop\n      pop\n      swap3\n      pop\n      swap5\n      pop\n      swap5\n      pop\n      swap5\n      pop\n      swap5\n      pop\n      pop\n        /* \"contracts/enclavecontract.sol\":2080:2404  function getEnclave(string memory enclaveId) public view returns (string memory connectURL, string memory pubkey, uint256 version, uint256 updatedAt) {... */\n      swap2\n      swap4\n      pop\n      swap2\n      swap4\n      jump\t// out\n    tag_145:\n      pop\n      dup1\n      sload\n      tag_188\n      swap1\n      tag_80\n      jump\t// in\n    tag_188:\n      0x00\n      dup3\n      sstore\n      dup1\n      0x1f\n      lt\n      tag_190\n      jumpi\n      pop\n      jump(tag_189)\n    tag_190:\n      0x1f\n      add\n      0x20\n      swap1\n      div\n      swap1\n      0x00\n      mstore\n      keccak256(0x00, 0x20)\n      swap1\n      dup2\n      add\n      swap1\n      tag_191\n      swap2\n      swap1\n      tag_192\n      jump\t// in\n    tag_191:\n    tag_189:\n      pop\n      jump\t// out\n    tag_192:\n    tag_193:\n      dup1\n      dup3\n      gt\n      iszero\n      tag_194\n      jumpi\n      0x00\n      dup2\n      0x00\n      swap1\n      sstore\n      pop\n      0x01\n      add\n      jump(tag_193)\n    tag_194:\n      pop\n      swap1\n      jump\t// out\n        /* \"#utility.yul\":7:82   */\n    tag_195:\n        /* \"#utility.yul\":40:46   */\n      0x00\n        /* \"#utility.yul\":73:75   */\n      0x40\n        /* \"#utility.yul\":67:76   */\n      mload\n        /* \"#utility.yul\":57:76   */\n      swap1\n      pop\n        /* \"#utility.yul\":7:82   */\n      swap1\n      jump\t// out\n        /* \"#utility.yul\":88:205   */\n    tag_196:\n        /* \"#utility.yul\":197:198   */\n      0x00\n        /* \"#utility.yul\":194:195   */\n      dup1\n        /* \"#utility.yul\":187:199   */\n      revert\n        /* \"#utility.yul\":211:328   */\n    tag_197:\n        /* \"#utility.yul\":320:321   */\n      0x00\n        /* \"#utility.yul\":317:318   */\n      dup1\n        /* \"#utility.yul\":310:322   */\n      revert\n        /* \"#utility.yul\":334:451   */\n    tag_198:\n        /* \"#utility.yul\":443:444   */\n      0x00\n        /* \"#utility.yul\":440:441   */\n      dup1\n        /* \"#utility.yul\":433:445   */\n      revert\n        /* \"#utility.yul\":457:574   */\n    tag_199:\n        /* \"#utility.yul\":566:567   */\n      0x00\n        /* \"#utility.yul\":563:564   */\n      dup1\n        /* \"#utility.yul\":556:568   */\n      revert\n        /* \"#utility.yul\":580:682   */\n    tag_200:\n        /* \"#utility.yul\":621:627   */\n      0x00\n        /* \"#utility.yul\":672:674   */\n      0x1f\n        /* \"#utility.yul\":668:675   */\n      not\n        /* \"#utility.yul\":663:665   */\n      0x1f\n        /* \"#utility.yul\":656:661   */\n      dup4\n        /* \"#utility.yul\":652:666   */\n      add\n        /* \"#utility.yul\":648:676   */\n      and\n        /* \"#utility.yul\":638:676   */\n      swap1\n      pop\n        /* \"#utility.yul\":580:682   */\n      swap2\n      swap1\n      pop\n      jump\t// out\n        /* \"#utility.yul\":688:868   */\n    tag_55:\n        /* \"#utility.yul\":736:813   */\n      0x4e487b7100000000000000000000000000000000000000000000000000000000\n        /* \"#utility.yul\":733:734   */\n      0x00\n        /* \"#utility.yul\":726:814   */\n      mstore\n        /* \"#utility.yul\":833:837   */\n      0x41\n        /* \"#utility.yul\":830:831   */\n      0x04\n        /* \"#utility.yul\":823:838   */\n      mstore\n        /* \"#utility.yul\":857:861   */\n      0x24\n        /* \"#utility.yul\":854:855   */\n      0x00\n        /* \"#utility.yul\":847:862   */\n      revert\n        /* \"#utility.yul\":874:1155   */\n    tag_201:\n        /* \"#utility.yul\":957:984   */\n      tag_276\n        /* \"#utility.yul\":979:983   */\n      dup3\n        /* \"#utility.yul\":957:984   */\n      tag_200\n      jump\t// in\n    tag_276:\n        /* \"#utility.yul\":949:955   */\n      dup2\n        /* \"#utility.yul\":945:985   */\n      add\n        /* \"#utility.yul\":1087:1093   */\n      dup2\n        /* \"#utility.yul\":1075:1085   */\n      dup2\n        /* \"#utility.yul\":1072:1094   */\n      lt\n        /* \"#utility.yul\":1051:1069   */\n      0xffffffffffffffff\n        /* \"#utility.yul\":1039:1049   */\n      dup3\n        /* \"#utility.yul\":1036:1070   */\n      gt\n        /* \"#utility.yul\":1033:1095   */\n      or\n        /* \"#utility.yul\":1030:1118   */\n      iszero\n      tag_277\n      jumpi\n        /* \"#utility.yul\":1098:1116   */\n      tag_278\n      tag_55\n      jump\t// in\n    tag_278:\n        /* \"#utility.yul\":1030:1118   */\n    tag_277:\n        /* \"#utility.yul\":1138:1148   */\n      dup1\n        /* \"#utility.yul\":1134:1136   */\n      0x40\n        /* \"#utility.yul\":1127:1149   */\n      mstore\n        /* \"#utility.yul\":917:1155   */\n      pop\n        /* \"#utility.yul\":874:1155   */\n      pop\n      pop\n      jump\t// out\n        /* \"#utility.yul\":1161:1290   */\n    tag_202:\n        /* \"#utility.yul\":1195:1201   */\n      0x00\n        /* \"#utility.yul\":1222:1242   */\n      tag_280\n      tag_195\n      jump\t// in\n    tag_280:\n        /* \"#utility.yul\":1212:1242   */\n      swap1\n      pop\n        /* \"#utility.yul\":1251:1284   */\n      tag_281\n        /* \"#utility.yul\":1279:1283   */\n      dup3\n        /* \"#utility.yul\":1271:1277   */\n      dup3\n        /* \"#utility.yul\":1251:1284   */\n      tag_201\n      jump\t// in\n    tag_281:\n        /* \"#utility.yul\":1161:1290   */\n      swap2\n      swap1\n      pop\n      jump\t// out\n        /* \"#utility.yul\":1296:1604   */\n    tag_203:\n        /* \"#utility.yul\":1358:1362   */\n      0x00\n        /* \"#utility.yul\":1448:1466   */\n      0xffffffffffffffff\n        /* \"#utility.yul\":1440:1446   */\n      dup3\n        /* \"#utility.yul\":1437:1467   */\n      gt\n        /* \"#utility.yul\":1434:1490   */\n      iszero\n      tag_283\n      jumpi\n        /* \"#utility.yul\":1470:1488   */\n      tag_284\n      tag_55\n      jump\t// in\n    tag_284:\n        /* \"#utility.yul\":1434:1490   */\n    tag_283:\n        /* \"#utility.yul\":1508:1537   */\n      tag_285\n        /* \"#utility.yul\":1530:1536   */\n      dup3\n        /* \"#utility.yul\":1508:1537   */\n      tag_200\n      jump\t// in\n    tag_285:\n        /* \"#utility.yul\":1500:1537   */\n      swap1\n      pop\n        /* \"#utility.yul\":1592:1596   */\n      0x20\n        /* \"#utility.yul\":1586:1590   */\n      dup2\n        /* \"#utility.yul\":1582:1597   */\n      add\n        /* \"#utility.yul\":1574:1597   */\n      swap1\n      pop\n        /* \"#utility.yul\":1296:1604   */\n      swap2\n      swap1\n      pop\n      jump\t// out\n        /* \"#utility.yul\":1610:1756   */\n    tag_204:\n        /* \"#utility.yul\":1707:1713   */\n      dup3\n        /* \"#utility.yul\":1702:1705   */\n      dup2\n        /* \"#utility.yul\":1697:1700   */\n      dup4\n        /* \"#utility.yul\":1684:1714   */\n      calldatacopy\n        /* \"#utility.yul\":1748:1749   */\n      0x00\n        /* \"#utility.yul\":1739:1745   */\n      dup4\n        /* \"#utility.yul\":1734:1737   */\n      dup4\n        /* \"#utility.yul\":1730:1746   */\n      add\n        /* \"#utility.yul\":1723:1750   */\n      mstore\n        /* \"#utility.yul\":1610:1756   */\n      pop\n      pop\n      pop\n      jump\t// out\n        /* \"#utility.yul\":1762:2187   */\n    tag_205:\n        /* \"#utility.yul\":1840:1845   */\n      0x00\n        /* \"#utility.yul\":1865:1931   */\n      tag_288\n        /* \"#utility.yul\":1881:1930   */\n      tag_289\n        /* \"#utility.yul\":1923:1929   */\n      dup5\n        /* \"#utility.yul\":1881:1930   */\n      tag_203\n      jump\t// in\n    tag_289:\n        /* \"#utility.yul\":1865:1931   */\n      tag_202\n      jump\t// in\n    tag_288:\n        /* \"#utility.yul\":1856:1931   */\n      swap1\n      pop\n        /* \"#utility.yul\":1954:1960   */\n      dup3\n        /* \"#utility.yul\":1947:1952   */\n      dup2\n        /* \"#utility.yul\":1940:1961   */\n      mstore\n        /* \"#utility.yul\":1992:1996   */\n      0x20\n        /* \"#utility.yul\":1985:1990   */\n      dup2\n        /* \"#utility.yul\":1981:1997   */\n      add\n        /* \"#utility.yul\":2030:2033   */\n      dup5\n        /* \"#utility.yul\":2021:2027   */\n      dup5\n        /* \"#utility.yul\":2016:2019   */\n      dup5\n        /* \"#utility.yul\":2012:2028   */\n      add\n        /* \"#utility.yul\":2009:2034   */\n      gt\n        /* \"#utility.yul\":2006:2118   */\n      iszero\n      tag_290\n      jumpi\n        /* \"#utility.yul\":2037:2116   */\n      tag_291\n      tag_199\n      jump\t// in\n    tag_291:\n        /* \"#utility.yul\":2006:2118   */\n    tag_290:\n        /* \"#utility.yul\":2127:2181   */\n      tag_292\n        /* \"#utility.yul\":2174:2180   */\n      dup5\n        /* \"#utility.yul\":2169:2172   */\n      dup3\n        /* \"#utility.yul\":2164:2167   */\n      dup6\n        /* \"#utility.yul\":2127:2181   */\n      tag_204\n      jump\t// in\n    tag_292:\n        /* \"#utility.yul\":1846:2187   */\n      pop\n        /* \"#utility.yul\":1762:2187   */\n      swap4\n      swap3\n      pop\n      pop\n      pop\n      jump\t// out\n        /* \"#utility.yul\":2207:2547   */\n    tag_206:\n        /* \"#utility.yul\":2263:2268   */\n      0x00\n        /* \"#utility.yul\":2312:2315   */\n      dup3\n        /* \"#utility.yul\":2305:2309   */\n      0x1f\n        /* \"#utility.yul\":2297:2303   */\n      dup4\n        /* \"#utility.yul\":2293:2310   */\n      add\n        /* \"#utility.yul\":2289:2316   */\n      slt\n        /* \"#utility.yul\":2279:2401   */\n      tag_294\n      jumpi\n        /* \"#utility.yul\":2320:2399   */\n      tag_295\n      tag_198\n      jump\t// in\n    tag_295:\n        /* \"#utility.yul\":2279:2401   */\n    tag_294:\n        /* \"#utility.yul\":2437:2443   */\n      dup2\n        /* \"#utility.yul\":2424:2444   */\n      calldataload\n        /* \"#utility.yul\":2462:2541   */\n      tag_296\n        /* \"#utility.yul\":2537:2540   */\n      dup5\n        /* \"#utility.yul\":2529:2535   */\n      dup3\n        /* \"#utility.yul\":2522:2526   */\n      0x20\n        /* \"#utility.yul\":2514:2520   */\n      dup7\n        /* \"#utility.yul\":2510:2527   */\n      add\n        /* \"#utility.yul\":2462:2541   */\n      tag_205\n      jump\t// in\n    tag_296:\n        /* \"#utility.yul\":2453:2541   */\n      swap2\n      pop\n        /* \"#utility.yul\":2269:2547   */\n      pop\n        /* \"#utility.yul\":2207:2547   */\n      swap3\n      swap2\n      pop\n      pop\n      jump\t// out\n        /* \"#utility.yul\":2553:3712   */\n    tag_11:\n        /* \"#utility.yul\":2660:2666   */\n      0x00\n        /* \"#utility.yul\":2668:2674   */\n      dup1\n        /* \"#utility.yul\":2676:2682   */\n      0x00\n        /* \"#utility.yul\":2725:2727   */\n      0x60\n        /* \"#utility.yul\":2713:2722   */\n      dup5\n        /* \"#utility.yul\":2704:2711   */\n      dup7\n        /* \"#utility.yul\":2700:2723   */\n      sub\n        /* \"#utility.yul\":2696:2728   */\n      slt\n        /* \"#utility.yul\":2693:2812   */\n      iszero\n      tag_298\n      jumpi\n        /* \"#utility.yul\":2731:2810   */\n      tag_299\n      tag_196\n      jump\t// in\n    tag_299:\n        /* \"#utility.yul\":2693:2812   */\n    tag_298:\n        /* \"#utility.yul\":2879:2880   */\n      0x00\n        /* \"#utility.yul\":2868:2877   */\n      dup5\n        /* \"#utility.yul\":2864:2881   */\n      add\n        /* \"#utility.yul\":2851:2882   */\n      calldataload\n        /* \"#utility.yul\":2909:2927   */\n      0xffffffffffffffff\n        /* \"#utility.yul\":2901:2907   */\n      dup2\n        /* \"#utility.yul\":2898:2928   */\n      gt\n        /* \"#utility.yul\":2895:3012   */\n      iszero\n      tag_300\n      jumpi\n        /* \"#utility.yul\":2931:3010   */\n      tag_301\n      tag_197\n      jump\t// in\n    tag_301:\n        /* \"#utility.yul\":2895:3012   */\n    tag_300:\n        /* \"#utility.yul\":3036:3099   */\n      tag_302\n        /* \"#utility.yul\":3091:3098   */\n      dup7\n        /* \"#utility.yul\":3082:3088   */\n      dup3\n        /* \"#utility.yul\":3071:3080   */\n      dup8\n        /* \"#utility.yul\":3067:3089   */\n      add\n        /* \"#utility.yul\":3036:3099   */\n      tag_206\n      jump\t// in\n    tag_302:\n        /* \"#utility.yul\":3026:3099   */\n      swap4\n      pop\n        /* \"#utility.yul\":2822:3109   */\n      pop\n        /* \"#utility.yul\":3176:3178   */\n      0x20\n        /* \"#utility.yul\":3165:3174   */\n      dup5\n        /* \"#utility.yul\":3161:3179   */\n      add\n        /* \"#utility.yul\":3148:3180   */\n      calldataload\n        /* \"#utility.yul\":3207:3225   */\n      0xffffffffffffffff\n        /* \"#utility.yul\":3199:3205   */\n      dup2\n        /* \"#utility.yul\":3196:3226   */\n      gt\n        /* \"#utility.yul\":3193:3310   */\n      iszero\n      tag_303\n      jumpi\n        /* \"#utility.yul\":3229:3308   */\n      tag_304\n      tag_197\n      jump\t// in\n    tag_304:\n        /* \"#utility.yul\":3193:3310   */\n    tag_303:\n        /* \"#utility.yul\":3334:3397   */\n      tag_305\n        /* \"#utility.yul\":3389:3396   */\n      dup7\n        /* \"#utility.yul\":3380:3386   */\n      dup3\n        /* \"#utility.yul\":3369:3378   */\n      dup8\n        /* \"#utility.yul\":3365:3387   */\n      add\n        /* \"#utility.yul\":3334:3397   */\n      tag_206\n      jump\t// in\n    tag_305:\n        /* \"#utility.yul\":3324:3397   */\n      swap3\n      pop\n        /* \"#utility.yul\":3119:3407   */\n      pop\n        /* \"#utility.yul\":3474:3476   */\n      0x40\n        /* \"#utility.yul\":3463:3472   */\n      dup5\n        /* \"#utility.yul\":3459:3477   */\n      add\n        /* \"#utility.yul\":3446:3478   */\n      calldataload\n        /* \"#utility.yul\":3505:3523   */\n      0xffffffffffffffff\n        /* \"#utility.yul\":3497:3503   */\n      dup2\n        /* \"#utility.yul\":3494:3524   */\n      gt\n        /* \"#utility.yul\":3491:3608   */\n      iszero\n      tag_306\n      jumpi\n        /* \"#utility.yul\":3527:3606   */\n      tag_307\n      tag_197\n      jump\t// in\n    tag_307:\n        /* \"#utility.yul\":3491:3608   */\n    tag_306:\n        /* \"#utility.yul\":3632:3695   */\n      tag_308\n        /* \"#utility.yul\":3687:3694   */\n      dup7\n        /* \"#utility.yul\":3678:3684   */\n      dup3\n        /* \"#utility.yul\":3667:3676   */\n      dup8\n        /* \"#utility.yul\":3663:3685   */\n      add\n        /* \"#utility.yul\":3632:3695   */\n      tag_206\n      jump\t// in\n    tag_308:\n        /* \"#utility.yul\":3622:3695   */\n      swap2\n      pop\n        /* \"#utility.yul\":3417:3705   */\n      pop\n        /* \"#utility.yul\":2553:3712   */\n      swap3\n      pop\n      swap3\n      pop\n      swap3\n      jump\t// out\n        /* \"#utility.yul\":3718:3842   */\n    tag_207:\n        /* \"#utility.yul\":3795:3801   */\n      0x00\n        /* \"#utility.yul\":3829:3834   */\n      dup2\n        /* \"#utility.yul\":3823:3835   */\n      mload\n        /* \"#utility.yul\":3813:3835   */\n      swap1\n      pop\n        /* \"#utility.yul\":3718:3842   */\n      swap2\n      swap1\n      pop\n      jump\t// out\n        /* \"#utility.yul\":3848:4042   */\n    tag_208:\n        /* \"#utility.yul\":3957:3968   */\n      0x00\n        /* \"#utility.yul\":3991:3997   */\n      dup3\n        /* \"#utility.yul\":3986:3989   */\n      dup3\n        /* \"#utility.yul\":3979:3998   */\n      mstore\n        /* \"#utility.yul\":4031:4035   */\n      0x20\n        /* \"#utility.yul\":4026:4029   */\n      dup3\n        /* \"#utility.yul\":4022:4036   */\n      add\n        /* \"#utility.yul\":4007:4036   */\n      swap1\n      pop\n        /* \"#utility.yul\":3848:4042   */\n      swap3\n      swap2\n      pop\n      pop\n      jump\t// out\n        /* \"#utility.yul\":4048:4190   */\n    tag_209:\n        /* \"#utility.yul\":4125:4129   */\n      0x00\n        /* \"#utility.yul\":4148:4151   */\n      dup2\n        /* \"#utility.yul\":4140:4151   */\n      swap1\n      pop\n        /* \"#utility.yul\":4178:4182   */\n      0x20\n        /* \"#utility.yul\":4173:4176   */\n      dup3\n        /* \"#utility.yul\":4169:4183   */\n      add\n        /* \"#utility.yul\":4161:4183   */\n      swap1\n      pop\n        /* \"#utility.yul\":4048:4190   */\n      swap2\n      swap1\n      pop\n      jump\t// out\n        /* \"#utility.yul\":4196:4295   */\n    tag_210:\n        /* \"#utility.yul\":4248:4254   */\n      0x00\n        /* \"#utility.yul\":4282:4287   */\n      dup2\n        /* \"#utility.yul\":4276:4288   */\n      mload\n        /* \"#utility.yul\":4266:4288   */\n      swap1\n      pop\n        /* \"#utility.yul\":4196:4295   */\n      swap2\n      swap1\n      pop\n      jump\t// out\n        /* \"#utility.yul\":4301:4460   */\n    tag_211:\n        /* \"#utility.yul\":4375:4386   */\n      0x00\n        /* \"#utility.yul\":4409:4415   */\n      dup3\n        /* \"#utility.yul\":4404:4407   */\n      dup3\n        /* \"#utility.yul\":4397:4416   */\n      mstore\n        /* \"#utility.yul\":4449:4453   */\n      0x20\n        /* \"#utility.yul\":4444:4447   */\n      dup3\n        /* \"#utility.yul\":4440:4454   */\n      add\n        /* \"#utility.yul\":4425:4454   */\n      swap1\n      pop\n        /* \"#utility.yul\":4301:4460   */\n      swap3\n      swap2\n      pop\n      pop\n      jump\t// out\n        /* \"#utility.yul\":4466:4712   */\n    tag_212:\n        /* \"#utility.yul\":4547:4548   */\n      0x00\n        /* \"#utility.yul\":4557:4670   */\n    tag_315:\n        /* \"#utility.yul\":4571:4577   */\n      dup4\n        /* \"#utility.yul\":4568:4569   */\n      dup2\n        /* \"#utility.yul\":4565:4578   */\n      lt\n        /* \"#utility.yul\":4557:4670   */\n      iszero\n      tag_317\n      jumpi\n        /* \"#utility.yul\":4656:4657   */\n      dup1\n        /* \"#utility.yul\":4651:4654   */\n      dup3\n        /* \"#utility.yul\":4647:4658   */\n      add\n        /* \"#utility.yul\":4641:4659   */\n      mload\n        /* \"#utility.yul\":4637:4638   */\n      dup2\n        /* \"#utility.yul\":4632:4635   */\n      dup5\n        /* \"#utility.yul\":4628:4639   */\n      add\n        /* \"#utility.yul\":4621:4660   */\n      mstore\n        /* \"#utility.yul\":4593:4595   */\n      0x20\n        /* \"#utility.yul\":4590:4591   */\n      dup2\n        /* \"#utility.yul\":4586:4596   */\n      add\n        /* \"#utility.yul\":4581:4596   */\n      swap1\n      pop\n        /* \"#utility.yul\":4557:4670   */\n      jump(tag_315)\n    tag_317:\n        /* \"#utility.yul\":4704:4705   */\n      0x00\n        /* \"#utility.yul\":4695:4701   */\n      dup5\n        /* \"#utility.yul\":4690:4693   */\n      dup5\n        /* \"#utility.yul\":4686:4702   */\n      add\n        /* \"#utility.yul\":4679:4706   */\n      mstore\n        /* \"#utility.yul\":4528:4712   */\n      pop\n        /* \"#utility.yul\":4466:4712   */\n      pop\n      pop\n      pop\n      jump\t// out\n        /* \"#utility.yul\":4718:5075   */\n    tag_213:\n        /* \"#utility.yul\":4796:4799   */\n      0x00\n        /* \"#utility.yul\":4824:4863   */\n      tag_319\n        /* \"#utility.yul\":4857:4862   */\n      dup3\n        /* \"#utility.yul\":4824:4863   */\n      tag_210\n      jump\t// in\n    tag_319:\n        /* \"#utility.yul\":4879:4940   */\n      tag_320\n        /* \"#utility.yul\":4933:4939   */\n      dup2\n        /* \"#utility.yul\":4928:4931   */\n      dup6\n        /* \"#utility.yul\":4879:4940   */\n      tag_211\n      jump\t// in\n    tag_320:\n        /* \"#utility.yul\":4872:4940   */\n      swap4\n      pop\n        /* \"#utility.yul\":4949:5014   */\n      tag_321\n        /* \"#utility.yul\":5007:5013   */\n      dup2\n        /* \"#utility.yul\":5002:5005   */\n      dup6\n        /* \"#utility.yul\":4995:4999   */\n      0x20\n        /* \"#utility.yul\":4988:4993   */\n      dup7\n        /* \"#utility.yul\":4984:5000   */\n      add\n        /* \"#utility.yul\":4949:5014   */\n      tag_212\n      jump\t// in\n    tag_321:\n        /* \"#utility.yul\":5039:5068   */\n      tag_322\n        /* \"#utility.yul\":5061:5067   */\n      dup2\n        /* \"#utility.yul\":5039:5068   */\n      tag_200\n      jump\t// in\n    tag_322:\n        /* \"#utility.yul\":5034:5037   */\n      dup5\n        /* \"#utility.yul\":5030:5069   */\n      add\n        /* \"#utility.yul\":5023:5069   */\n      swap2\n      pop\n        /* \"#utility.yul\":4800:5075   */\n      pop\n        /* \"#utility.yul\":4718:5075   */\n      swap3\n      swap2\n      pop\n      pop\n      jump\t// out\n        /* \"#utility.yul\":5081:5277   */\n    tag_214:\n        /* \"#utility.yul\":5170:5180   */\n      0x00\n        /* \"#utility.yul\":5205:5271   */\n      tag_324\n        /* \"#utility.yul\":5267:5270   */\n      dup4\n        /* \"#utility.yul\":5259:5265   */\n      dup4\n        /* \"#utility.yul\":5205:5271   */\n      tag_213\n      jump\t// in\n    tag_324:\n        /* \"#utility.yul\":5191:5271   */\n      swap1\n      pop\n        /* \"#utility.yul\":5081:5277   */\n      swap3\n      swap2\n      pop\n      pop\n      jump\t// out\n        /* \"#utility.yul\":5283:5406   */\n    tag_215:\n        /* \"#utility.yul\":5363:5367   */\n      0x00\n        /* \"#utility.yul\":5395:5399   */\n      0x20\n        /* \"#utility.yul\":5390:5393   */\n      dup3\n        /* \"#utility.yul\":5386:5400   */\n      add\n        /* \"#utility.yul\":5378:5400   */\n      swap1\n      pop\n        /* \"#utility.yul\":5283:5406   */\n      swap2\n      swap1\n      pop\n      jump\t// out\n        /* \"#utility.yul\":5440:6431   */\n    tag_216:\n        /* \"#utility.yul\":5579:5582   */\n      0x00\n        /* \"#utility.yul\":5608:5672   */\n      tag_327\n        /* \"#utility.yul\":5666:5671   */\n      dup3\n        /* \"#utility.yul\":5608:5672   */\n      tag_207\n      jump\t// in\n    tag_327:\n        /* \"#utility.yul\":5688:5784   */\n      tag_328\n        /* \"#utility.yul\":5777:5783   */\n      dup2\n        /* \"#utility.yul\":5772:5775   */\n      dup6\n        /* \"#utility.yul\":5688:5784   */\n      tag_208\n      jump\t// in\n    tag_328:\n        /* \"#utility.yul\":5681:5784   */\n      swap4\n      pop\n        /* \"#utility.yul\":5810:5813   */\n      dup4\n        /* \"#utility.yul\":5855:5859   */\n      0x20\n        /* \"#utility.yul\":5847:5853   */\n      dup3\n        /* \"#utility.yul\":5843:5860   */\n      mul\n        /* \"#utility.yul\":5838:5841   */\n      dup6\n        /* \"#utility.yul\":5834:5861   */\n      add\n        /* \"#utility.yul\":5885:5951   */\n      tag_329\n        /* \"#utility.yul\":5945:5950   */\n      dup6\n        /* \"#utility.yul\":5885:5951   */\n      tag_209\n      jump\t// in\n    tag_329:\n        /* \"#utility.yul\":5974:5981   */\n      dup1\n        /* \"#utility.yul\":6005:6006   */\n      0x00\n        /* \"#utility.yul\":5990:6386   */\n    tag_330:\n        /* \"#utility.yul\":6015:6021   */\n      dup6\n        /* \"#utility.yul\":6012:6013   */\n      dup2\n        /* \"#utility.yul\":6009:6022   */\n      lt\n        /* \"#utility.yul\":5990:6386   */\n      iszero\n      tag_332\n      jumpi\n        /* \"#utility.yul\":6086:6095   */\n      dup5\n        /* \"#utility.yul\":6080:6084   */\n      dup5\n        /* \"#utility.yul\":6076:6096   */\n      sub\n        /* \"#utility.yul\":6071:6074   */\n      dup10\n        /* \"#utility.yul\":6064:6097   */\n      mstore\n        /* \"#utility.yul\":6137:6143   */\n      dup2\n        /* \"#utility.yul\":6131:6144   */\n      mload\n        /* \"#utility.yul\":6165:6249   */\n      tag_333\n        /* \"#utility.yul\":6244:6248   */\n      dup6\n        /* \"#utility.yul\":6229:6242   */\n      dup3\n        /* \"#utility.yul\":6165:6249   */\n      tag_214\n      jump\t// in\n    tag_333:\n        /* \"#utility.yul\":6157:6249   */\n      swap5\n      pop\n        /* \"#utility.yul\":6272:6342   */\n      tag_334\n        /* \"#utility.yul\":6335:6341   */\n      dup4\n        /* \"#utility.yul\":6272:6342   */\n      tag_215\n      jump\t// in\n    tag_334:\n        /* \"#utility.yul\":6262:6342   */\n      swap3\n      pop\n        /* \"#utility.yul\":6371:6375   */\n      0x20\n        /* \"#utility.yul\":6366:6369   */\n      dup11\n        /* \"#utility.yul\":6362:6376   */\n      add\n        /* \"#utility.yul\":6355:6376   */\n      swap10\n      pop\n        /* \"#utility.yul\":6050:6386   */\n      pop\n        /* \"#utility.yul\":6037:6038   */\n      0x01\n        /* \"#utility.yul\":6034:6035   */\n      dup2\n        /* \"#utility.yul\":6030:6039   */\n      add\n        /* \"#utility.yul\":6025:6039   */\n      swap1\n      pop\n        /* \"#utility.yul\":5990:6386   */\n      jump(tag_330)\n    tag_332:\n        /* \"#utility.yul\":5994:6008   */\n      pop\n        /* \"#utility.yul\":6402:6406   */\n      dup3\n        /* \"#utility.yul\":6395:6406   */\n      swap8\n      pop\n        /* \"#utility.yul\":6422:6425   */\n      dup8\n        /* \"#utility.yul\":6415:6425   */\n      swap6\n      pop\n        /* \"#utility.yul\":5584:6431   */\n      pop\n      pop\n      pop\n      pop\n      pop\n        /* \"#utility.yul\":5440:6431   */\n      swap3\n      swap2\n      pop\n      pop\n      jump\t// out\n        /* \"#utility.yul\":6437:6551   */\n    tag_217:\n        /* \"#utility.yul\":6504:6510   */\n      0x00\n        /* \"#utility.yul\":6538:6543   */\n      dup2\n        /* \"#utility.yul\":6532:6544   */\n      mload\n        /* \"#utility.yul\":6522:6544   */\n      swap1\n      pop\n        /* \"#utility.yul\":6437:6551   */\n      swap2\n      swap1\n      pop\n      jump\t// out\n        /* \"#utility.yul\":6557:6741   */\n    tag_218:\n        /* \"#utility.yul\":6656:6667   */\n      0x00\n        /* \"#utility.yul\":6690:6696   */\n      dup3\n        /* \"#utility.yul\":6685:6688   */\n      dup3\n        /* \"#utility.yul\":6678:6697   */\n      mstore\n        /* \"#utility.yul\":6730:6734   */\n      0x20\n        /* \"#utility.yul\":6725:6728   */\n      dup3\n        /* \"#utility.yul\":6721:6735   */\n      add\n        /* \"#utility.yul\":6706:6735   */\n      swap1\n      pop\n        /* \"#utility.yul\":6557:6741   */\n      swap3\n      swap2\n      pop\n      pop\n      jump\t// out\n        /* \"#utility.yul\":6747:6879   */\n    tag_219:\n        /* \"#utility.yul\":6814:6818   */\n      0x00\n        /* \"#utility.yul\":6837:6840   */\n      dup2\n        /* \"#utility.yul\":6829:6840   */\n      swap1\n      pop\n        /* \"#utility.yul\":6867:6871   */\n      0x20\n        /* \"#utility.yul\":6862:6865   */\n      dup3\n        /* \"#utility.yul\":6858:6872   */\n      add\n        /* \"#utility.yul\":6850:6872   */\n      swap1\n      pop\n        /* \"#utility.yul\":6747:6879   */\n      swap2\n      swap1\n      pop\n      jump\t// out\n        /* \"#utility.yul\":6885:6962   */\n    tag_220:\n        /* \"#utility.yul\":6922:6929   */\n      0x00\n        /* \"#utility.yul\":6951:6956   */\n      dup2\n        /* \"#utility.yul\":6940:6956   */\n      swap1\n      pop\n        /* \"#utility.yul\":6885:6962   */\n      swap2\n      swap1\n      pop\n      jump\t// out\n        /* \"#utility.yul\":6968:7076   */\n    tag_221:\n        /* \"#utility.yul\":7045:7069   */\n      tag_340\n        /* \"#utility.yul\":7063:7068   */\n      dup2\n        /* \"#utility.yul\":7045:7069   */\n      tag_220\n      jump\t// in\n    tag_340:\n        /* \"#utility.yul\":7040:7043   */\n      dup3\n        /* \"#utility.yul\":7033:7070   */\n      mstore\n        /* \"#utility.yul\":6968:7076   */\n      pop\n      pop\n      jump\t// out\n        /* \"#utility.yul\":7082:7261   */\n    tag_222:\n        /* \"#utility.yul\":7151:7161   */\n      0x00\n        /* \"#utility.yul\":7172:7218   */\n      tag_342\n        /* \"#utility.yul\":7214:7217   */\n      dup4\n        /* \"#utility.yul\":7206:7212   */\n      dup4\n        /* \"#utility.yul\":7172:7218   */\n      tag_221\n      jump\t// in\n    tag_342:\n        /* \"#utility.yul\":7250:7254   */\n      0x20\n        /* \"#utility.yul\":7245:7248   */\n      dup4\n        /* \"#utility.yul\":7241:7255   */\n      add\n        /* \"#utility.yul\":7227:7255   */\n      swap1\n      pop\n        /* \"#utility.yul\":7082:7261   */\n      swap3\n      swap2\n      pop\n      pop\n      jump\t// out\n        /* \"#utility.yul\":7267:7380   */\n    tag_223:\n        /* \"#utility.yul\":7337:7341   */\n      0x00\n        /* \"#utility.yul\":7369:7373   */\n      0x20\n        /* \"#utility.yul\":7364:7367   */\n      dup3\n        /* \"#utility.yul\":7360:7374   */\n      add\n        /* \"#utility.yul\":7352:7374   */\n      swap1\n      pop\n        /* \"#utility.yul\":7267:7380   */\n      swap2\n      swap1\n      pop\n      jump\t// out\n        /* \"#utility.yul\":7416:8148   */\n    tag_224:\n        /* \"#utility.yul\":7535:7538   */\n      0x00\n        /* \"#utility.yul\":7564:7618   */\n      tag_345\n        /* \"#utility.yul\":7612:7617   */\n      dup3\n        /* \"#utility.yul\":7564:7618   */\n      tag_217\n      jump\t// in\n    tag_345:\n        /* \"#utility.yul\":7634:7720   */\n      tag_346\n        /* \"#utility.yul\":7713:7719   */\n      dup2\n        /* \"#utility.yul\":7708:7711   */\n      dup6\n        /* \"#utility.yul\":7634:7720   */\n      tag_218\n      jump\t// in\n    tag_346:\n        /* \"#utility.yul\":7627:7720   */\n      swap4\n      pop\n        /* \"#utility.yul\":7744:7800   */\n      tag_347\n        /* \"#utility.yul\":7794:7799   */\n      dup4\n        /* \"#utility.yul\":7744:7800   */\n      tag_219\n      jump\t// in\n    tag_347:\n        /* \"#utility.yul\":7823:7830   */\n      dup1\n        /* \"#utility.yul\":7854:7855   */\n      0x00\n        /* \"#utility.yul\":7839:8123   */\n    tag_348:\n        /* \"#utility.yul\":7864:7870   */\n      dup4\n        /* \"#utility.yul\":7861:7862   */\n      dup2\n        /* \"#utility.yul\":7858:7871   */\n      lt\n        /* \"#utility.yul\":7839:8123   */\n      iszero\n      tag_350\n      jumpi\n        /* \"#utility.yul\":7940:7946   */\n      dup2\n        /* \"#utility.yul\":7934:7947   */\n      mload\n        /* \"#utility.yul\":7967:8030   */\n      tag_351\n        /* \"#utility.yul\":8026:8029   */\n      dup9\n        /* \"#utility.yul\":8011:8024   */\n      dup3\n        /* \"#utility.yul\":7967:8030   */\n      tag_222\n      jump\t// in\n    tag_351:\n        /* \"#utility.yul\":7960:8030   */\n      swap8\n      pop\n        /* \"#utility.yul\":8053:8113   */\n      tag_352\n        /* \"#utility.yul\":8106:8112   */\n      dup4\n        /* \"#utility.yul\":8053:8113   */\n      tag_223\n      jump\t// in\n    tag_352:\n        /* \"#utility.yul\":8043:8113   */\n      swap3\n      pop\n        /* \"#utility.yul\":7899:8123   */\n      pop\n        /* \"#utility.yul\":7886:7887   */\n      0x01\n        /* \"#utility.yul\":7883:7884   */\n      dup2\n        /* \"#utility.yul\":7879:7888   */\n      add\n        /* \"#utility.yul\":7874:7888   */\n      swap1\n      pop\n        /* \"#utility.yul\":7839:8123   */\n      jump(tag_348)\n    tag_350:\n        /* \"#utility.yul\":7843:7857   */\n      pop\n        /* \"#utility.yul\":8139:8142   */\n      dup6\n        /* \"#utility.yul\":8132:8142   */\n      swap4\n      pop\n        /* \"#utility.yul\":7540:8148   */\n      pop\n      pop\n      pop\n        /* \"#utility.yul\":7416:8148   */\n      swap3\n      swap2\n      pop\n      pop\n      jump\t// out\n        /* \"#utility.yul\":8154:9693   */\n    tag_16:\n        /* \"#utility.yul\":8669:8673   */\n      0x00\n        /* \"#utility.yul\":8707:8710   */\n      0xa0\n        /* \"#utility.yul\":8696:8705   */\n      dup3\n        /* \"#utility.yul\":8692:8711   */\n      add\n        /* \"#utility.yul\":8684:8711   */\n      swap1\n      pop\n        /* \"#utility.yul\":8757:8766   */\n      dup2\n        /* \"#utility.yul\":8751:8755   */\n      dup2\n        /* \"#utility.yul\":8747:8767   */\n      sub\n        /* \"#utility.yul\":8743:8744   */\n      0x00\n        /* \"#utility.yul\":8732:8741   */\n      dup4\n        /* \"#utility.yul\":8728:8745   */\n      add\n        /* \"#utility.yul\":8721:8768   */\n      mstore\n        /* \"#utility.yul\":8785:8913   */\n      tag_354\n        /* \"#utility.yul\":8908:8912   */\n      dup2\n        /* \"#utility.yul\":8899:8905   */\n      dup9\n        /* \"#utility.yul\":8785:8913   */\n      tag_216\n      jump\t// in\n    tag_354:\n        /* \"#utility.yul\":8777:8913   */\n      swap1\n      pop\n        /* \"#utility.yul\":8960:8969   */\n      dup2\n        /* \"#utility.yul\":8954:8958   */\n      dup2\n        /* \"#utility.yul\":8950:8970   */\n      sub\n        /* \"#utility.yul\":8945:8947   */\n      0x20\n        /* \"#utility.yul\":8934:8943   */\n      dup4\n        /* \"#utility.yul\":8930:8948   */\n      add\n        /* \"#utility.yul\":8923:8971   */\n      mstore\n        /* \"#utility.yul\":8988:9116   */\n      tag_355\n        /* \"#utility.yul\":9111:9115   */\n      dup2\n        /* \"#utility.yul\":9102:9108   */\n      dup8\n        /* \"#utility.yul\":8988:9116   */\n      tag_216\n      jump\t// in\n    tag_355:\n        /* \"#utility.yul\":8980:9116   */\n      swap1\n      pop\n        /* \"#utility.yul\":9163:9172   */\n      dup2\n        /* \"#utility.yul\":9157:9161   */\n      dup2\n        /* \"#utility.yul\":9153:9173   */\n      sub\n        /* \"#utility.yul\":9148:9150   */\n      0x40\n        /* \"#utility.yul\":9137:9146   */\n      dup4\n        /* \"#utility.yul\":9133:9151   */\n      add\n        /* \"#utility.yul\":9126:9174   */\n      mstore\n        /* \"#utility.yul\":9191:9319   */\n      tag_356\n        /* \"#utility.yul\":9314:9318   */\n      dup2\n        /* \"#utility.yul\":9305:9311   */\n      dup7\n        /* \"#utility.yul\":9191:9319   */\n      tag_216\n      jump\t// in\n    tag_356:\n        /* \"#utility.yul\":9183:9319   */\n      swap1\n      pop\n        /* \"#utility.yul\":9366:9375   */\n      dup2\n        /* \"#utility.yul\":9360:9364   */\n      dup2\n        /* \"#utility.yul\":9356:9376   */\n      sub\n        /* \"#utility.yul\":9351:9353   */\n      0x60\n        /* \"#utility.yul\":9340:9349   */\n      dup4\n        /* \"#utility.yul\":9336:9354   */\n      add\n        /* \"#utility.yul\":9329:9377   */\n      mstore\n        /* \"#utility.yul\":9394:9502   */\n      tag_357\n        /* \"#utility.yul\":9497:9501   */\n      dup2\n        /* \"#utility.yul\":9488:9494   */\n      dup6\n        /* \"#utility.yul\":9394:9502   */\n      tag_224\n      jump\t// in\n    tag_357:\n        /* \"#utility.yul\":9386:9502   */\n      swap1\n      pop\n        /* \"#utility.yul\":9550:9559   */\n      dup2\n        /* \"#utility.yul\":9544:9548   */\n      dup2\n        /* \"#utility.yul\":9540:9560   */\n      sub\n        /* \"#utility.yul\":9534:9537   */\n      0x80\n        /* \"#utility.yul\":9523:9532   */\n      dup4\n        /* \"#utility.yul\":9519:9538   */\n      add\n        /* \"#utility.yul\":9512:9561   */\n      mstore\n        /* \"#utility.yul\":9578:9686   */\n      tag_358\n        /* \"#utility.yul\":9681:9685   */\n      dup2\n        /* \"#utility.yul\":9672:9678   */\n      dup5\n        /* \"#utility.yul\":9578:9686   */\n      tag_224\n      jump\t// in\n    tag_358:\n        /* \"#utility.yul\":9570:9686   */\n      swap1\n      pop\n        /* \"#utility.yul\":8154:9693   */\n      swap7\n      swap6\n      pop\n      pop\n      pop\n      pop\n      pop\n      pop\n      jump\t// out\n        /* \"#utility.yul\":9699:10112   */\n    tag_20:\n        /* \"#utility.yul\":9862:9866   */\n      0x00\n        /* \"#utility.yul\":9900:9902   */\n      0x20\n        /* \"#utility.yul\":9889:9898   */\n      dup3\n        /* \"#utility.yul\":9885:9903   */\n      add\n        /* \"#utility.yul\":9877:9903   */\n      swap1\n      pop\n        /* \"#utility.yul\":9949:9958   */\n      dup2\n        /* \"#utility.yul\":9943:9947   */\n      dup2\n        /* \"#utility.yul\":9939:9959   */\n      sub\n        /* \"#utility.yul\":9935:9936   */\n      0x00\n        /* \"#utility.yul\":9924:9933   */\n      dup4\n        /* \"#utility.yul\":9920:9937   */\n      add\n        /* \"#utility.yul\":9913:9960   */\n      mstore\n        /* \"#utility.yul\":9977:10105   */\n      tag_360\n        /* \"#utility.yul\":10100:10104   */\n      dup2\n        /* \"#utility.yul\":10091:10097   */\n      dup5\n        /* \"#utility.yul\":9977:10105   */\n      tag_216\n      jump\t// in\n    tag_360:\n        /* \"#utility.yul\":9969:10105   */\n      swap1\n      pop\n        /* \"#utility.yul\":9699:10112   */\n      swap3\n      swap2\n      pop\n      pop\n      jump\t// out\n        /* \"#utility.yul\":10118:10627   */\n    tag_26:\n        /* \"#utility.yul\":10187:10193   */\n      0x00\n        /* \"#utility.yul\":10236:10238   */\n      0x20\n        /* \"#utility.yul\":10224:10233   */\n      dup3\n        /* \"#utility.yul\":10215:10222   */\n      dup5\n        /* \"#utility.yul\":10211:10234   */\n      sub\n        /* \"#utility.yul\":10207:10239   */\n      slt\n        /* \"#utility.yul\":10204:10323   */\n      iszero\n      tag_362\n      jumpi\n        /* \"#utility.yul\":10242:10321   */\n      tag_363\n      tag_196\n      jump\t// in\n    tag_363:\n        /* \"#utility.yul\":10204:10323   */\n    tag_362:\n        /* \"#utility.yul\":10390:10391   */\n      0x00\n        /* \"#utility.yul\":10379:10388   */\n      dup3\n        /* \"#utility.yul\":10375:10392   */\n      add\n        /* \"#utility.yul\":10362:10393   */\n      calldataload\n        /* \"#utility.yul\":10420:10438   */\n      0xffffffffffffffff\n        /* \"#utility.yul\":10412:10418   */\n      dup2\n        /* \"#utility.yul\":10409:10439   */\n      gt\n        /* \"#utility.yul\":10406:10523   */\n      iszero\n      tag_364\n      jumpi\n        /* \"#utility.yul\":10442:10521   */\n      tag_365\n      tag_197\n      jump\t// in\n    tag_365:\n        /* \"#utility.yul\":10406:10523   */\n    tag_364:\n        /* \"#utility.yul\":10547:10610   */\n      tag_366\n        /* \"#utility.yul\":10602:10609   */\n      dup5\n        /* \"#utility.yul\":10593:10599   */\n      dup3\n        /* \"#utility.yul\":10582:10591   */\n      dup6\n        /* \"#utility.yul\":10578:10600   */\n      add\n        /* \"#utility.yul\":10547:10610   */\n      tag_206\n      jump\t// in\n    tag_366:\n        /* \"#utility.yul\":10537:10610   */\n      swap2\n      pop\n        /* \"#utility.yul\":10333:10620   */\n      pop\n        /* \"#utility.yul\":10118:10627   */\n      swap3\n      swap2\n      pop\n      pop\n      jump\t// out\n        /* \"#utility.yul\":10633:10802   */\n    tag_225:\n        /* \"#utility.yul\":10717:10728   */\n      0x00\n        /* \"#utility.yul\":10751:10757   */\n      dup3\n        /* \"#utility.yul\":10746:10749   */\n      dup3\n        /* \"#utility.yul\":10739:10758   */\n      mstore\n        /* \"#utility.yul\":10791:10795   */\n      0x20\n        /* \"#utility.yul\":10786:10789   */\n      dup3\n        /* \"#utility.yul\":10782:10796   */\n      add\n        /* \"#utility.yul\":10767:10796   */\n      swap1\n      pop\n        /* \"#utility.yul\":10633:10802   */\n      swap3\n      swap2\n      pop\n      pop\n      jump\t// out\n        /* \"#utility.yul\":10808:11185   */\n    tag_226:\n        /* \"#utility.yul\":10896:10899   */\n      0x00\n        /* \"#utility.yul\":10924:10963   */\n      tag_369\n        /* \"#utility.yul\":10957:10962   */\n      dup3\n        /* \"#utility.yul\":10924:10963   */\n      tag_210\n      jump\t// in\n    tag_369:\n        /* \"#utility.yul\":10979:11050   */\n      tag_370\n        /* \"#utility.yul\":11043:11049   */\n      dup2\n        /* \"#utility.yul\":11038:11041   */\n      dup6\n        /* \"#utility.yul\":10979:11050   */\n      tag_225\n      jump\t// in\n    tag_370:\n        /* \"#utility.yul\":10972:11050   */\n      swap4\n      pop\n        /* \"#utility.yul\":11059:11124   */\n      tag_371\n        /* \"#utility.yul\":11117:11123   */\n      dup2\n        /* \"#utility.yul\":11112:11115   */\n      dup6\n        /* \"#utility.yul\":11105:11109   */\n      0x20\n        /* \"#utility.yul\":11098:11103   */\n      dup7\n        /* \"#utility.yul\":11094:11110   */\n      add\n        /* \"#utility.yul\":11059:11124   */\n      tag_212\n      jump\t// in\n    tag_371:\n        /* \"#utility.yul\":11149:11178   */\n      tag_372\n        /* \"#utility.yul\":11171:11177   */\n      dup2\n        /* \"#utility.yul\":11149:11178   */\n      tag_200\n      jump\t// in\n    tag_372:\n        /* \"#utility.yul\":11144:11147   */\n      dup5\n        /* \"#utility.yul\":11140:11179   */\n      add\n        /* \"#utility.yul\":11133:11179   */\n      swap2\n      pop\n        /* \"#utility.yul\":10900:11185   */\n      pop\n        /* \"#utility.yul\":10808:11185   */\n      swap3\n      swap2\n      pop\n      pop\n      jump\t// out\n        /* \"#utility.yul\":11191:11309   */\n    tag_227:\n        /* \"#utility.yul\":11278:11302   */\n      tag_374\n        /* \"#utility.yul\":11296:11301   */\n      dup2\n        /* \"#utility.yul\":11278:11302   */\n      tag_220\n      jump\t// in\n    tag_374:\n        /* \"#utility.yul\":11273:11276   */\n      dup3\n        /* \"#utility.yul\":11266:11303   */\n      mstore\n        /* \"#utility.yul\":11191:11309   */\n      pop\n      pop\n      jump\t// out\n        /* \"#utility.yul\":11315:12050   */\n    tag_32:\n        /* \"#utility.yul\":11532:11536   */\n      0x00\n        /* \"#utility.yul\":11570:11573   */\n      0x80\n        /* \"#utility.yul\":11559:11568   */\n      dup3\n        /* \"#utility.yul\":11555:11574   */\n      add\n        /* \"#utility.yul\":11547:11574   */\n      swap1\n      pop\n        /* \"#utility.yul\":11620:11629   */\n      dup2\n        /* \"#utility.yul\":11614:11618   */\n      dup2\n        /* \"#utility.yul\":11610:11630   */\n      sub\n        /* \"#utility.yul\":11606:11607   */\n      0x00\n        /* \"#utility.yul\":11595:11604   */\n      dup4\n        /* \"#utility.yul\":11591:11608   */\n      add\n        /* \"#utility.yul\":11584:11631   */\n      mstore\n        /* \"#utility.yul\":11648:11726   */\n      tag_376\n        /* \"#utility.yul\":11721:11725   */\n      dup2\n        /* \"#utility.yul\":11712:11718   */\n      dup8\n        /* \"#utility.yul\":11648:11726   */\n      tag_226\n      jump\t// in\n    tag_376:\n        /* \"#utility.yul\":11640:11726   */\n      swap1\n      pop\n        /* \"#utility.yul\":11773:11782   */\n      dup2\n        /* \"#utility.yul\":11767:11771   */\n      dup2\n        /* \"#utility.yul\":11763:11783   */\n      sub\n        /* \"#utility.yul\":11758:11760   */\n      0x20\n        /* \"#utility.yul\":11747:11756   */\n      dup4\n        /* \"#utility.yul\":11743:11761   */\n      add\n        /* \"#utility.yul\":11736:11784   */\n      mstore\n        /* \"#utility.yul\":11801:11879   */\n      tag_377\n        /* \"#utility.yul\":11874:11878   */\n      dup2\n        /* \"#utility.yul\":11865:11871   */\n      dup7\n        /* \"#utility.yul\":11801:11879   */\n      tag_226\n      jump\t// in\n    tag_377:\n        /* \"#utility.yul\":11793:11879   */\n      swap1\n      pop\n        /* \"#utility.yul\":11889:11961   */\n      tag_378\n        /* \"#utility.yul\":11957:11959   */\n      0x40\n        /* \"#utility.yul\":11946:11955   */\n      dup4\n        /* \"#utility.yul\":11942:11960   */\n      add\n        /* \"#utility.yul\":11933:11939   */\n      dup6\n        /* \"#utility.yul\":11889:11961   */\n      tag_227\n      jump\t// in\n    tag_378:\n        /* \"#utility.yul\":11971:12043   */\n      tag_379\n        /* \"#utility.yul\":12039:12041   */\n      0x60\n        /* \"#utility.yul\":12028:12037   */\n      dup4\n        /* \"#utility.yul\":12024:12042   */\n      add\n        /* \"#utility.yul\":12015:12021   */\n      dup5\n        /* \"#utility.yul\":11971:12043   */\n      tag_227\n      jump\t// in\n    tag_379:\n        /* \"#utility.yul\":11315:12050   */\n      swap6\n      swap5\n      pop\n      pop\n      pop\n      pop\n      pop\n      jump\t// out\n        /* \"#utility.yul\":12056:12230   */\n    tag_228:\n        /* \"#utility.yul\":12196:12222   */\n      0x4e657720436f6e6e6563742055524c2072657175697265640000000000000000\n        /* \"#utility.yul\":12192:12193   */\n      0x00\n        /* \"#utility.yul\":12184:12190   */\n      dup3\n        /* \"#utility.yul\":12180:12194   */\n      add\n        /* \"#utility.yul\":12173:12223   */\n      mstore\n        /* \"#utility.yul\":12056:12230   */\n      pop\n      jump\t// out\n        /* \"#utility.yul\":12236:12602   */\n    tag_229:\n        /* \"#utility.yul\":12378:12381   */\n      0x00\n        /* \"#utility.yul\":12399:12466   */\n      tag_382\n        /* \"#utility.yul\":12463:12465   */\n      0x18\n        /* \"#utility.yul\":12458:12461   */\n      dup4\n        /* \"#utility.yul\":12399:12466   */\n      tag_225\n      jump\t// in\n    tag_382:\n        /* \"#utility.yul\":12392:12466   */\n      swap2\n      pop\n        /* \"#utility.yul\":12475:12568   */\n      tag_383\n        /* \"#utility.yul\":12564:12567   */\n      dup3\n        /* \"#utility.yul\":12475:12568   */\n      tag_228\n      jump\t// in\n    tag_383:\n        /* \"#utility.yul\":12593:12595   */\n      0x20\n        /* \"#utility.yul\":12588:12591   */\n      dup3\n        /* \"#utility.yul\":12584:12596   */\n      add\n        /* \"#utility.yul\":12577:12596   */\n      swap1\n      pop\n        /* \"#utility.yul\":12236:12602   */\n      swap2\n      swap1\n      pop\n      jump\t// out\n        /* \"#utility.yul\":12608:13027   */\n    tag_36:\n        /* \"#utility.yul\":12774:12778   */\n      0x00\n        /* \"#utility.yul\":12812:12814   */\n      0x20\n        /* \"#utility.yul\":12801:12810   */\n      dup3\n        /* \"#utility.yul\":12797:12815   */\n      add\n        /* \"#utility.yul\":12789:12815   */\n      swap1\n      pop\n        /* \"#utility.yul\":12861:12870   */\n      dup2\n        /* \"#utility.yul\":12855:12859   */\n      dup2\n        /* \"#utility.yul\":12851:12871   */\n      sub\n        /* \"#utility.yul\":12847:12848   */\n      0x00\n        /* \"#utility.yul\":12836:12845   */\n      dup4\n        /* \"#utility.yul\":12832:12849   */\n      add\n        /* \"#utility.yul\":12825:12872   */\n      mstore\n        /* \"#utility.yul\":12889:13020   */\n      tag_385\n        /* \"#utility.yul\":13015:13019   */\n      dup2\n        /* \"#utility.yul\":12889:13020   */\n      tag_229\n      jump\t// in\n    tag_385:\n        /* \"#utility.yul\":12881:13020   */\n      swap1\n      pop\n        /* \"#utility.yul\":12608:13027   */\n      swap2\n      swap1\n      pop\n      jump\t// out\n        /* \"#utility.yul\":13033:13206   */\n    tag_230:\n        /* \"#utility.yul\":13173:13198   */\n      0x4e6577205075626c6963206b6579207265717569726564000000000000000000\n        /* \"#utility.yul\":13169:13170   */\n      0x00\n        /* \"#utility.yul\":13161:13167   */\n      dup3\n        /* \"#utility.yul\":13157:13171   */\n      add\n        /* \"#utility.yul\":13150:13199   */\n      mstore\n        /* \"#utility.yul\":13033:13206   */\n      pop\n      jump\t// out\n        /* \"#utility.yul\":13212:13578   */\n    tag_231:\n        /* \"#utility.yul\":13354:13357   */\n      0x00\n        /* \"#utility.yul\":13375:13442   */\n      tag_388\n        /* \"#utility.yul\":13439:13441   */\n      0x17\n        /* \"#utility.yul\":13434:13437   */\n      dup4\n        /* \"#utility.yul\":13375:13442   */\n      tag_225\n      jump\t// in\n    tag_388:\n        /* \"#utility.yul\":13368:13442   */\n      swap2\n      pop\n        /* \"#utility.yul\":13451:13544   */\n      tag_389\n        /* \"#utility.yul\":13540:13543   */\n      dup3\n        /* \"#utility.yul\":13451:13544   */\n      tag_230\n      jump\t// in\n    tag_389:\n        /* \"#utility.yul\":13569:13571   */\n      0x20\n        /* \"#utility.yul\":13564:13567   */\n      dup3\n        /* \"#utility.yul\":13560:13572   */\n      add\n        /* \"#utility.yul\":13553:13572   */\n      swap1\n      pop\n        /* \"#utility.yul\":13212:13578   */\n      swap2\n      swap1\n      pop\n      jump\t// out\n        /* \"#utility.yul\":13584:14003   */\n    tag_39:\n        /* \"#utility.yul\":13750:13754   */\n      0x00\n        /* \"#utility.yul\":13788:13790   */\n      0x20\n        /* \"#utility.yul\":13777:13786   */\n      dup3\n        /* \"#utility.yul\":13773:13791   */\n      add\n        /* \"#utility.yul\":13765:13791   */\n      swap1\n      pop\n        /* \"#utility.yul\":13837:13846   */\n      dup2\n        /* \"#utility.yul\":13831:13835   */\n      dup2\n        /* \"#utility.yul\":13827:13847   */\n      sub\n        /* \"#utility.yul\":13823:13824   */\n      0x00\n        /* \"#utility.yul\":13812:13821   */\n      dup4\n        /* \"#utility.yul\":13808:13825   */\n      add\n        /* \"#utility.yul\":13801:13848   */\n      mstore\n        /* \"#utility.yul\":13865:13996   */\n      tag_391\n        /* \"#utility.yul\":13991:13995   */\n      dup2\n        /* \"#utility.yul\":13865:13996   */\n      tag_231\n      jump\t// in\n    tag_391:\n        /* \"#utility.yul\":13857:13996   */\n      swap1\n      pop\n        /* \"#utility.yul\":13584:14003   */\n      swap2\n      swap1\n      pop\n      jump\t// out\n        /* \"#utility.yul\":14009:14157   */\n    tag_232:\n        /* \"#utility.yul\":14111:14122   */\n      0x00\n        /* \"#utility.yul\":14148:14151   */\n      dup2\n        /* \"#utility.yul\":14133:14151   */\n      swap1\n      pop\n        /* \"#utility.yul\":14009:14157   */\n      swap3\n      swap2\n      pop\n      pop\n      jump\t// out\n        /* \"#utility.yul\":14163:14553   */\n    tag_233:\n        /* \"#utility.yul\":14269:14272   */\n      0x00\n        /* \"#utility.yul\":14297:14336   */\n      tag_394\n        /* \"#utility.yul\":14330:14335   */\n      dup3\n        /* \"#utility.yul\":14297:14336   */\n      tag_210\n      jump\t// in\n    tag_394:\n        /* \"#utility.yul\":14352:14441   */\n      tag_395\n        /* \"#utility.yul\":14434:14440   */\n      dup2\n        /* \"#utility.yul\":14429:14432   */\n      dup6\n        /* \"#utility.yul\":14352:14441   */\n      tag_232\n      jump\t// in\n    tag_395:\n        /* \"#utility.yul\":14345:14441   */\n      swap4\n      pop\n        /* \"#utility.yul\":14450:14515   */\n      tag_396\n        /* \"#utility.yul\":14508:14514   */\n      dup2\n        /* \"#utility.yul\":14503:14506   */\n      dup6\n        /* \"#utility.yul\":14496:14500   */\n      0x20\n        /* \"#utility.yul\":14489:14494   */\n      dup7\n        /* \"#utility.yul\":14485:14501   */\n      add\n        /* \"#utility.yul\":14450:14515   */\n      tag_212\n      jump\t// in\n    tag_396:\n        /* \"#utility.yul\":14540:14546   */\n      dup1\n        /* \"#utility.yul\":14535:14538   */\n      dup5\n        /* \"#utility.yul\":14531:14547   */\n      add\n        /* \"#utility.yul\":14524:14547   */\n      swap2\n      pop\n        /* \"#utility.yul\":14273:14553   */\n      pop\n        /* \"#utility.yul\":14163:14553   */\n      swap3\n      swap2\n      pop\n      pop\n      jump\t// out\n        /* \"#utility.yul\":14559:14834   */\n    tag_41:\n        /* \"#utility.yul\":14691:14694   */\n      0x00\n        /* \"#utility.yul\":14713:14808   */\n      tag_398\n        /* \"#utility.yul\":14804:14807   */\n      dup3\n        /* \"#utility.yul\":14795:14801   */\n      dup5\n        /* \"#utility.yul\":14713:14808   */\n      tag_233\n      jump\t// in\n    tag_398:\n        /* \"#utility.yul\":14706:14808   */\n      swap2\n      pop\n        /* \"#utility.yul\":14825:14828   */\n      dup2\n        /* \"#utility.yul\":14818:14828   */\n      swap1\n      pop\n        /* \"#utility.yul\":14559:14834   */\n      swap3\n      swap2\n      pop\n      pop\n      jump\t// out\n        /* \"#utility.yul\":14840:15007   */\n    tag_234:\n        /* \"#utility.yul\":14980:14999   */\n      0x456e636c617665206e6f7420666f756e64000000000000000000000000000000\n        /* \"#utility.yul\":14976:14977   */\n      0x00\n        /* \"#utility.yul\":14968:14974   */\n      dup3\n        /* \"#utility.yul\":14964:14978   */\n      add\n        /* \"#utility.yul\":14957:15000   */\n      mstore\n        /* \"#utility.yul\":14840:15007   */\n      pop\n      jump\t// out\n        /* \"#utility.yul\":15013:15379   */\n    tag_235:\n        /* \"#utility.yul\":15155:15158   */\n      0x00\n        /* \"#utility.yul\":15176:15243   */\n      tag_401\n        /* \"#utility.yul\":15240:15242   */\n      0x11\n        /* \"#utility.yul\":15235:15238   */\n      dup4\n        /* \"#utility.yul\":15176:15243   */\n      tag_225\n      jump\t// in\n    tag_401:\n        /* \"#utility.yul\":15169:15243   */\n      swap2\n      pop\n        /* \"#utility.yul\":15252:15345   */\n      tag_402\n        /* \"#utility.yul\":15341:15344   */\n      dup3\n        /* \"#utility.yul\":15252:15345   */\n      tag_234\n      jump\t// in\n    tag_402:\n        /* \"#utility.yul\":15370:15372   */\n      0x20\n        /* \"#utility.yul\":15365:15368   */\n      dup3\n        /* \"#utility.yul\":15361:15373   */\n      add\n        /* \"#utility.yul\":15354:15373   */\n      swap1\n      pop\n        /* \"#utility.yul\":15013:15379   */\n      swap2\n      swap1\n      pop\n      jump\t// out\n        /* \"#utility.yul\":15385:15804   */\n    tag_44:\n        /* \"#utility.yul\":15551:15555   */\n      0x00\n        /* \"#utility.yul\":15589:15591   */\n      0x20\n        /* \"#utility.yul\":15578:15587   */\n      dup3\n        /* \"#utility.yul\":15574:15592   */\n      add\n        /* \"#utility.yul\":15566:15592   */\n      swap1\n      pop\n        /* \"#utility.yul\":15638:15647   */\n      dup2\n        /* \"#utility.yul\":15632:15636   */\n      dup2\n        /* \"#utility.yul\":15628:15648   */\n      sub\n        /* \"#utility.yul\":15624:15625   */\n      0x00\n        /* \"#utility.yul\":15613:15622   */\n      dup4\n        /* \"#utility.yul\":15609:15626   */\n      add\n        /* \"#utility.yul\":15602:15649   */\n      mstore\n        /* \"#utility.yul\":15666:15797   */\n      tag_404\n        /* \"#utility.yul\":15792:15796   */\n      dup2\n        /* \"#utility.yul\":15666:15797   */\n      tag_235\n      jump\t// in\n    tag_404:\n        /* \"#utility.yul\":15658:15797   */\n      swap1\n      pop\n        /* \"#utility.yul\":15385:15804   */\n      swap2\n      swap1\n      pop\n      jump\t// out\n        /* \"#utility.yul\":15810:15990   */\n    tag_236:\n        /* \"#utility.yul\":15858:15935   */\n      0x4e487b7100000000000000000000000000000000000000000000000000000000\n        /* \"#utility.yul\":15855:15856   */\n      0x00\n        /* \"#utility.yul\":15848:15936   */\n      mstore\n        /* \"#utility.yul\":15955:15959   */\n      0x22\n        /* \"#utility.yul\":15952:15953   */\n      0x04\n        /* \"#utility.yul\":15945:15960   */\n      mstore\n        /* \"#utility.yul\":15979:15983   */\n      0x24\n        /* \"#utility.yul\":15976:15977   */\n      0x00\n        /* \"#utility.yul\":15969:15984   */\n      revert\n        /* \"#utility.yul\":15996:16316   */\n    tag_80:\n        /* \"#utility.yul\":16040:16046   */\n      0x00\n        /* \"#utility.yul\":16077:16078   */\n      0x02\n        /* \"#utility.yul\":16071:16075   */\n      dup3\n        /* \"#utility.yul\":16067:16079   */\n      div\n        /* \"#utility.yul\":16057:16079   */\n      swap1\n      pop\n        /* \"#utility.yul\":16124:16125   */\n      0x01\n        /* \"#utility.yul\":16118:16122   */\n      dup3\n        /* \"#utility.yul\":16114:16126   */\n      and\n        /* \"#utility.yul\":16145:16163   */\n      dup1\n        /* \"#utility.yul\":16135:16216   */\n      tag_407\n      jumpi\n        /* \"#utility.yul\":16201:16205   */\n      0x7f\n        /* \"#utility.yul\":16193:16199   */\n      dup3\n        /* \"#utility.yul\":16189:16206   */\n      and\n        /* \"#utility.yul\":16179:16206   */\n      swap2\n      pop\n        /* \"#utility.yul\":16135:16216   */\n    tag_407:\n        /* \"#utility.yul\":16263:16265   */\n      0x20\n        /* \"#utility.yul\":16255:16261   */\n      dup3\n        /* \"#utility.yul\":16252:16266   */\n      lt\n        /* \"#utility.yul\":16232:16250   */\n      dup2\n        /* \"#utility.yul\":16229:16267   */\n      sub\n        /* \"#utility.yul\":16226:16310   */\n      tag_408\n      jumpi\n        /* \"#utility.yul\":16282:16300   */\n      tag_409\n      tag_236\n      jump\t// in\n    tag_409:\n        /* \"#utility.yul\":16226:16310   */\n    tag_408:\n        /* \"#utility.yul\":16047:16316   */\n      pop\n        /* \"#utility.yul\":15996:16316   */\n      swap2\n      swap1\n      pop\n      jump\t// out\n        /* \"#utility.yul\":16322:16463   */\n    tag_237:\n        /* \"#utility.yul\":16371:16375   */\n      0x00\n        /* \"#utility.yul\":16394:16397   */\n      dup2\n        /* \"#utility.yul\":16386:16397   */\n      swap1\n      pop\n        /* \"#utility.yul\":16417:16420   */\n      dup2\n        /* \"#utility.yul\":16414:16415   */\n      0x00\n        /* \"#utility.yul\":16407:16421   */\n      mstore\n        /* \"#utility.yul\":16451:16455   */\n      0x20\n        /* \"#utility.yul\":16448:16449   */\n      0x00\n        /* \"#utility.yul\":16438:16456   */\n      keccak256\n        /* \"#utility.yul\":16430:16456   */\n      swap1\n      pop\n        /* \"#utility.yul\":16322:16463   */\n      swap2\n      swap1\n      pop\n      jump\t// out\n        /* \"#utility.yul\":16469:16562   */\n    tag_238:\n        /* \"#utility.yul\":16506:16512   */\n      0x00\n        /* \"#utility.yul\":16553:16555   */\n      0x20\n        /* \"#utility.yul\":16548:16550   */\n      0x1f\n        /* \"#utility.yul\":16541:16546   */\n      dup4\n        /* \"#utility.yul\":16537:16551   */\n      add\n        /* \"#utility.yul\":16533:16556   */\n      div\n        /* \"#utility.yul\":16523:16556   */\n      swap1\n      pop\n        /* \"#utility.yul\":16469:16562   */\n      swap2\n      swap1\n      pop\n      jump\t// out\n        /* \"#utility.yul\":16568:16675   */\n    tag_239:\n        /* \"#utility.yul\":16612:16620   */\n      0x00\n        /* \"#utility.yul\":16662:16667   */\n      dup3\n        /* \"#utility.yul\":16656:16660   */\n      dup3\n        /* \"#utility.yul\":16652:16668   */\n      shl\n        /* \"#utility.yul\":16631:16668   */\n      swap1\n      pop\n        /* \"#utility.yul\":16568:16675   */\n      swap3\n      swap2\n      pop\n      pop\n      jump\t// out\n        /* \"#utility.yul\":16681:17074   */\n    tag_240:\n        /* \"#utility.yul\":16750:16756   */\n      0x00\n        /* \"#utility.yul\":16800:16801   */\n      0x08\n        /* \"#utility.yul\":16788:16798   */\n      dup4\n        /* \"#utility.yul\":16784:16802   */\n      mul\n        /* \"#utility.yul\":16823:16920   */\n      tag_414\n        /* \"#utility.yul\":16853:16919   */\n      0xffffffffffffffffffffffffffffffffffffffffffffffffffffffffffffffff\n        /* \"#utility.yul\":16842:16851   */\n      dup3\n        /* \"#utility.yul\":16823:16920   */\n      tag_239\n      jump\t// in\n    tag_414:\n        /* \"#utility.yul\":16941:16980   */\n      tag_415\n        /* \"#utility.yul\":16971:16979   */\n      dup7\n        /* \"#utility.yul\":16960:16969   */\n      dup4\n        /* \"#utility.yul\":16941:16980   */\n      tag_239\n      jump\t// in\n    tag_415:\n        /* \"#utility.yul\":16929:16980   */\n      swap6\n      pop\n        /* \"#utility.yul\":17013:17017   */\n      dup1\n        /* \"#utility.yul\":17009:17018   */\n      not\n        /* \"#utility.yul\":17002:17007   */\n      dup5\n        /* \"#utility.yul\":16998:17019   */\n      and\n        /* \"#utility.yul\":16989:17019   */\n      swap4\n      pop\n        /* \"#utility.yul\":17062:17066   */\n      dup1\n        /* \"#utility.yul\":17052:17060   */\n      dup7\n        /* \"#utility.yul\":17048:17067   */\n      and\n        /* \"#utility.yul\":17041:17046   */\n      dup5\n        /* \"#utility.yul\":17038:17068   */\n      or\n        /* \"#utility.yul\":17028:17068   */\n      swap3\n      pop\n        /* \"#utility.yul\":16757:17074   */\n      pop\n      pop\n        /* \"#utility.yul\":16681:17074   */\n      swap4\n      swap3\n      pop\n      pop\n      pop\n      jump\t// out\n        /* \"#utility.yul\":17080:17140   */\n    tag_241:\n        /* \"#utility.yul\":17108:17111   */\n      0x00\n        /* \"#utility.yul\":17129:17134   */\n      dup2\n        /* \"#utility.yul\":17122:17134   */\n      swap1\n      pop\n        /* \"#utility.yul\":17080:17140   */\n      swap2\n      swap1\n      pop\n      jump\t// out\n        /* \"#utility.yul\":17146:17288   */\n    tag_242:\n        /* \"#utility.yul\":17196:17205   */\n      0x00\n        /* \"#utility.yul\":17229:17282   */\n      tag_418\n        /* \"#utility.yul\":17247:17281   */\n      tag_419\n        /* \"#utility.yul\":17256:17280   */\n      tag_420\n        /* \"#utility.yul\":17274:17279   */\n      dup5\n        /* \"#utility.yul\":17256:17280   */\n      tag_220\n      jump\t// in\n    tag_420:\n        /* \"#utility.yul\":17247:17281   */\n      tag_241\n      jump\t// in\n    tag_419:\n        /* \"#utility.yul\":17229:17282   */\n      tag_220\n      jump\t// in\n    tag_418:\n        /* \"#utility.yul\":17216:17282   */\n      swap1\n      pop\n        /* \"#utility.yul\":17146:17288   */\n      swap2\n      swap1\n      pop\n      jump\t// out\n        /* \"#utility.yul\":17294:17369   */\n    tag_243:\n        /* \"#utility.yul\":17337:17340   */\n      0x00\n        /* \"#utility.yul\":17358:17363   */\n      dup2\n        /* \"#utility.yul\":17351:17363   */\n      swap1\n      pop\n        /* \"#utility.yul\":17294:17369   */\n      swap2\n      swap1\n      pop\n      jump\t// out\n        /* \"#utility.yul\":17375:17644   */\n    tag_244:\n        /* \"#utility.yul\":17485:17524   */\n      tag_423\n        /* \"#utility.yul\":17516:17523   */\n      dup4\n        /* \"#utility.yul\":17485:17524   */\n      tag_242\n      jump\t// in\n    tag_423:\n        /* \"#utility.yul\":17546:17637   */\n      tag_424\n        /* \"#utility.yul\":17595:17636   */\n      tag_425\n        /* \"#utility.yul\":17619:17635   */\n      dup3\n        /* \"#utility.yul\":17595:17636   */\n      tag_243\n      jump\t// in\n    tag_425:\n        /* \"#utility.yul\":17587:17593   */\n      dup5\n        /* \"#utility.yul\":17580:17584   */\n      dup5\n        /* \"#utility.yul\":17574:17585   */\n      sload\n        /* \"#utility.yul\":17546:17637   */\n      tag_240\n      jump\t// in\n    tag_424:\n        /* \"#utility.yul\":17540:17544   */\n      dup3\n        /* \"#utility.yul\":17533:17638   */\n      sstore\n        /* \"#utility.yul\":17451:17644   */\n      pop\n        /* \"#utility.yul\":17375:17644   */\n      pop\n      pop\n      pop\n      jump\t// out\n        /* \"#utility.yul\":17650:17723   */\n    tag_245:\n        /* \"#utility.yul\":17695:17698   */\n      0x00\n        /* \"#utility.yul\":17650:17723   */\n      swap1\n      jump\t// out\n        /* \"#utility.yul\":17729:17918   */\n    tag_246:\n        /* \"#utility.yul\":17806:17838   */\n      tag_428\n      tag_245\n      jump\t// in\n    tag_428:\n        /* \"#utility.yul\":17847:17912   */\n      tag_429\n        /* \"#utility.yul\":17905:17911   */\n      dup2\n        /* \"#utility.yul\":17897:17903   */\n      dup5\n        /* \"#utility.yul\":17891:17895   */\n      dup5\n        /* \"#utility.yul\":17847:17912   */\n      tag_244\n      jump\t// in\n    tag_429:\n        /* \"#utility.yul\":17782:17918   */\n      pop\n        /* \"#utility.yul\":17729:17918   */\n      pop\n      pop\n      jump\t// out\n        /* \"#utility.yul\":17924:18110   */\n    tag_247:\n        /* \"#utility.yul\":17984:18104   */\n    tag_431:\n        /* \"#utility.yul\":18001:18004   */\n      dup2\n        /* \"#utility.yul\":17994:17999   */\n      dup2\n        /* \"#utility.yul\":17991:18005   */\n      lt\n        /* \"#utility.yul\":17984:18104   */\n      iszero\n      tag_433\n      jumpi\n        /* \"#utility.yul\":18055:18094   */\n      tag_434\n        /* \"#utility.yul\":18092:18093   */\n      0x00\n        /* \"#utility.yul\":18085:18090   */\n      dup3\n        /* \"#utility.yul\":18055:18094   */\n      tag_246\n      jump\t// in\n    tag_434:\n        /* \"#utility.yul\":18028:18029   */\n      0x01\n        /* \"#utility.yul\":18021:18026   */\n      dup2\n        /* \"#utility.yul\":18017:18030   */\n      add\n        /* \"#utility.yul\":18008:18030   */\n      swap1\n      pop\n        /* \"#utility.yul\":17984:18104   */\n      jump(tag_431)\n    tag_433:\n        /* \"#utility.yul\":17924:18110   */\n      pop\n      pop\n      jump\t// out\n        /* \"#utility.yul\":18116:18659   */\n    tag_248:\n        /* \"#utility.yul\":18217:18219   */\n      0x1f\n        /* \"#utility.yul\":18212:18215   */\n      dup3\n        /* \"#utility.yul\":18209:18220   */\n      gt\n        /* \"#utility.yul\":18206:18652   */\n      iszero\n      tag_436\n      jumpi\n        /* \"#utility.yul\":18251:18289   */\n      tag_437\n        /* \"#utility.yul\":18283:18288   */\n      dup2\n        /* \"#utility.yul\":18251:18289   */\n      tag_237\n      jump\t// in\n    tag_437:\n        /* \"#utility.yul\":18335:18364   */\n      tag_438\n        /* \"#utility.yul\":18353:18363   */\n      dup5\n        /* \"#utility.yul\":18335:18364   */\n      tag_238\n      jump\t// in\n    tag_438:\n        /* \"#utility.yul\":18325:18333   */\n      dup2\n        /* \"#utility.yul\":18321:18365   */\n      add\n        /* \"#utility.yul\":18518:18520   */\n      0x20\n        /* \"#utility.yul\":18506:18516   */\n      dup6\n        /* \"#utility.yul\":18503:18521   */\n      lt\n        /* \"#utility.yul\":18500:18549   */\n      iszero\n      tag_439\n      jumpi\n        /* \"#utility.yul\":18539:18547   */\n      dup2\n        /* \"#utility.yul\":18524:18547   */\n      swap1\n      pop\n        /* \"#utility.yul\":18500:18549   */\n    tag_439:\n        /* \"#utility.yul\":18562:18642   */\n      tag_440\n        /* \"#utility.yul\":18618:18640   */\n      tag_441\n        /* \"#utility.yul\":18636:18639   */\n      dup6\n        /* \"#utility.yul\":18618:18640   */\n      tag_238\n      jump\t// in\n    tag_441:\n        /* \"#utility.yul\":18608:18616   */\n      dup4\n        /* \"#utility.yul\":18604:18641   */\n      add\n        /* \"#utility.yul\":18591:18602   */\n      dup3\n        /* \"#utility.yul\":18562:18642   */\n      tag_247\n      jump\t// in\n    tag_440:\n        /* \"#utility.yul\":18221:18652   */\n      pop\n      pop\n        /* \"#utility.yul\":18206:18652   */\n    tag_436:\n        /* \"#utility.yul\":18116:18659   */\n      pop\n      pop\n      pop\n      jump\t// out\n        /* \"#utility.yul\":18665:18782   */\n    tag_249:\n        /* \"#utility.yul\":18719:18727   */\n      0x00\n        /* \"#utility.yul\":18769:18774   */\n      dup3\n        /* \"#utility.yul\":18763:18767   */\n      dup3\n        /* \"#utility.yul\":18759:18775   */\n      shr\n        /* \"#utility.yul\":18738:18775   */\n      swap1\n      pop\n        /* \"#utility.yul\":18665:18782   */\n      swap3\n      swap2\n      pop\n      pop\n      jump\t// out\n        /* \"#utility.yul\":18788:18957   */\n    tag_250:\n        /* \"#utility.yul\":18832:18838   */\n      0x00\n        /* \"#utility.yul\":18865:18916   */\n      tag_444\n        /* \"#utility.yul\":18913:18914   */\n      0x00\n        /* \"#utility.yul\":18909:18915   */\n      not\n        /* \"#utility.yul\":18901:18906   */\n      dup5\n        /* \"#utility.yul\":18898:18899   */\n      0x08\n        /* \"#utility.yul\":18894:18907   */\n      mul\n        /* \"#utility.yul\":18865:18916   */\n      tag_249\n      jump\t// in\n    tag_444:\n        /* \"#utility.yul\":18861:18917   */\n      not\n        /* \"#utility.yul\":18946:18950   */\n      dup1\n        /* \"#utility.yul\":18940:18944   */\n      dup4\n        /* \"#utility.yul\":18936:18951   */\n      and\n        /* \"#utility.yul\":18926:18951   */\n      swap2\n      pop\n        /* \"#utility.yul\":18839:18957   */\n      pop\n        /* \"#utility.yul\":18788:18957   */\n      swap3\n      swap2\n      pop\n      pop\n      jump\t// out\n        /* \"#utility.yul\":18962:19257   */\n    tag_251:\n        /* \"#utility.yul\":19038:19042   */\n      0x00\n        /* \"#utility.yul\":19184:19213   */\n      tag_446\n        /* \"#utility.yul\":19209:19212   */\n      dup4\n        /* \"#utility.yul\":19203:19207   */\n      dup4\n        /* \"#utility.yul\":19184:19213   */\n      tag_250\n      jump\t// in\n    tag_446:\n        /* \"#utility.yul\":19176:19213   */\n      swap2\n      pop\n        /* \"#utility.yul\":19246:19249   */\n      dup3\n        /* \"#utility.yul\":19243:19244   */\n      0x02\n        /* \"#utility.yul\":19239:19250   */\n      mul\n        /* \"#utility.yul\":19233:19237   */\n      dup3\n        /* \"#utility.yul\":19230:19251   */\n      or\n        /* \"#utility.yul\":19222:19251   */\n      swap1\n      pop\n        /* \"#utility.yul\":18962:19257   */\n      swap3\n      swap2\n      pop\n      pop\n      jump\t// out\n        /* \"#utility.yul\":19262:20657   */\n    tag_46:\n        /* \"#utility.yul\":19379:19416   */\n      tag_448\n        /* \"#utility.yul\":19412:19415   */\n      dup3\n        /* \"#utility.yul\":19379:19416   */\n      tag_210\n      jump\t// in\n    tag_448:\n        /* \"#utility.yul\":19481:19499   */\n      0xffffffffffffffff\n        /* \"#utility.yul\":19473:19479   */\n      dup2\n        /* \"#utility.yul\":19470:19500   */\n      gt\n        /* \"#utility.yul\":19467:19523   */\n      iszero\n      tag_449\n      jumpi\n        /* \"#utility.yul\":19503:19521   */\n      tag_450\n      tag_55\n      jump\t// in\n    tag_450:\n        /* \"#utility.yul\":19467:19523   */\n    tag_449:\n        /* \"#utility.yul\":19547:19585   */\n      tag_451\n        /* \"#utility.yul\":19579:19583   */\n      dup3\n        /* \"#utility.yul\":19573:19584   */\n      sload\n        /* \"#utility.yul\":19547:19585   */\n      tag_80\n      jump\t// in\n    tag_451:\n        /* \"#utility.yul\":19632:19699   */\n      tag_452\n        /* \"#utility.yul\":19692:19698   */\n      dup3\n        /* \"#utility.yul\":19684:19690   */\n      dup3\n        /* \"#utility.yul\":19678:19682   */\n      dup6\n        /* \"#utility.yul\":19632:19699   */\n      tag_248\n      jump\t// in\n    tag_452:\n        /* \"#utility.yul\":19726:19727   */\n      0x00\n        /* \"#utility.yul\":19750:19754   */\n      0x20\n        /* \"#utility.yul\":19737:19754   */\n      swap1\n      pop\n        /* \"#utility.yul\":19782:19784   */\n      0x1f\n        /* \"#utility.yul\":19774:19780   */\n      dup4\n        /* \"#utility.yul\":19771:19785   */\n      gt\n        /* \"#utility.yul\":19799:19800   */\n      0x01\n        /* \"#utility.yul\":19794:20412   */\n      dup2\n      eq\n      tag_454\n      jumpi\n        /* \"#utility.yul\":20456:20457   */\n      0x00\n        /* \"#utility.yul\":20473:20479   */\n      dup5\n        /* \"#utility.yul\":20470:20547   */\n      iszero\n      tag_455\n      jumpi\n        /* \"#utility.yul\":20522:20531   */\n      dup3\n        /* \"#utility.yul\":20517:20520   */\n      dup8\n        /* \"#utility.yul\":20513:20532   */\n      add\n        /* \"#utility.yul\":20507:20533   */\n      mload\n        /* \"#utility.yul\":20498:20533   */\n      swap1\n      pop\n        /* \"#utility.yul\":20470:20547   */\n    tag_455:\n        /* \"#utility.yul\":20573:20640   */\n      tag_456\n        /* \"#utility.yul\":20633:20639   */\n      dup6\n        /* \"#utility.yul\":20626:20631   */\n      dup3\n        /* \"#utility.yul\":20573:20640   */\n      tag_251\n      jump\t// in\n    tag_456:\n        /* \"#utility.yul\":20567:20571   */\n      dup7\n        /* \"#utility.yul\":20560:20641   */\n      sstore\n        /* \"#utility.yul\":20429:20651   */\n      pop\n        /* \"#utility.yul\":19764:20651   */\n      jump(tag_453)\n        /* \"#utility.yul\":19794:20412   */\n    tag_454:\n        /* \"#utility.yul\":19846:19850   */\n      0x1f\n        /* \"#utility.yul\":19842:19851   */\n      not\n        /* \"#utility.yul\":19834:19840   */\n      dup5\n        /* \"#utility.yul\":19830:19852   */\n      and\n        /* \"#utility.yul\":19880:19917   */\n      tag_457\n        /* \"#utility.yul\":19912:19916   */\n      dup7\n        /* \"#utility.yul\":19880:19917   */\n      tag_237\n      jump\t// in\n    tag_457:\n        /* \"#utility.yul\":19939:19940   */\n      0x00\n        /* \"#utility.yul\":19953:20161   */\n    tag_458:\n        /* \"#utility.yul\":19967:19974   */\n      dup3\n        /* \"#utility.yul\":19964:19965   */\n      dup2\n        /* \"#utility.yul\":19961:19975   */\n      lt\n        /* \"#utility.yul\":19953:20161   */\n      iszero\n      tag_460\n      jumpi\n        /* \"#utility.yul\":20046:20055   */\n      dup5\n        /* \"#utility.yul\":20041:20044   */\n      dup10\n        /* \"#utility.yul\":20037:20056   */\n      add\n        /* \"#utility.yul\":20031:20057   */\n      mload\n        /* \"#utility.yul\":20023:20029   */\n      dup3\n        /* \"#utility.yul\":20016:20058   */\n      sstore\n        /* \"#utility.yul\":20097:20098   */\n      0x01\n        /* \"#utility.yul\":20089:20095   */\n      dup3\n        /* \"#utility.yul\":20085:20099   */\n      add\n        /* \"#utility.yul\":20075:20099   */\n      swap2\n      pop\n        /* \"#utility.yul\":20144:20146   */\n      0x20\n        /* \"#utility.yul\":20133:20142   */\n      dup6\n        /* \"#utility.yul\":20129:20147   */\n      add\n        /* \"#utility.yul\":20116:20147   */\n      swap5\n      pop\n        /* \"#utility.yul\":19990:19994   */\n      0x20\n        /* \"#utility.yul\":19987:19988   */\n      dup2\n        /* \"#utility.yul\":19983:19995   */\n      add\n        /* \"#utility.yul\":19978:19995   */\n      swap1\n      pop\n        /* \"#utility.yul\":19953:20161   */\n      jump(tag_458)\n    tag_460:\n        /* \"#utility.yul\":20189:20195   */\n      dup7\n        /* \"#utility.yul\":20180:20187   */\n      dup4\n        /* \"#utility.yul\":20177:20196   */\n      lt\n        /* \"#utility.yul\":20174:20353   */\n      iszero\n      tag_461\n      jumpi\n        /* \"#utility.yul\":20247:20256   */\n      dup5\n        /* \"#utility.yul\":20242:20245   */\n      dup10\n        /* \"#utility.yul\":20238:20257   */\n      add\n        /* \"#utility.yul\":20232:20258   */\n      mload\n        /* \"#utility.yul\":20290:20338   */\n      tag_462\n        /* \"#utility.yul\":20332:20336   */\n      0x1f\n        /* \"#utility.yul\":20324:20330   */\n      dup10\n        /* \"#utility.yul\":20320:20337   */\n      and\n        /* \"#utility.yul\":20309:20318   */\n      dup3\n        /* \"#utility.yul\":20290:20338   */\n      tag_250\n      jump\t// in\n    tag_462:\n        /* \"#utility.yul\":20282:20288   */\n      dup4\n        /* \"#utility.yul\":20275:20339   */\n      sstore\n        /* \"#utility.yul\":20197:20353   */\n      pop\n        /* \"#utility.yul\":20174:20353   */\n    tag_461:\n        /* \"#utility.yul\":20399:20400   */\n      0x01\n        /* \"#utility.yul\":20395:20396   */\n      0x02\n        /* \"#utility.yul\":20387:20393   */\n      dup9\n        /* \"#utility.yul\":20383:20397   */\n      mul\n        /* \"#utility.yul\":20379:20401   */\n      add\n        /* \"#utility.yul\":20373:20377   */\n      dup9\n        /* \"#utility.yul\":20366:20402   */\n      sstore\n        /* \"#utility.yul\":19801:20412   */\n      pop\n      pop\n      pop\n        /* \"#utility.yul\":19764:20651   */\n    tag_453:\n      pop\n        /* \"#utility.yul\":19354:20657   */\n      pop\n      pop\n      pop\n        /* \"#utility.yul\":19262:20657   */\n      pop\n      pop\n      jump\t// out\n        /* \"#utility.yul\":20663:20843   */\n    tag_252:\n        /* \"#utility.yul\":20711:20788   */\n      0x4e487b7100000000000000000000000000000000000000000000000000000000\n        /* \"#utility.yul\":20708:20709   */\n      0x00\n        /* \"#utility.yul\":20701:20789   */\n      mstore\n        /* \"#utility.yul\":20808:20812   */\n      0x11\n        /* \"#utility.yul\":20805:20806   */\n      0x04\n        /* \"#utility.yul\":20798:20813   */\n      mstore\n        /* \"#utility.yul\":20832:20836   */\n      0x24\n        /* \"#utility.yul\":20829:20830   */\n      0x00\n        /* \"#utility.yul\":20822:20837   */\n      revert\n        /* \"#utility.yul\":20849:21040   */\n    tag_49:\n        /* \"#utility.yul\":20889:20892   */\n      0x00\n        /* \"#utility.yul\":20908:20928   */\n      tag_465\n        /* \"#utility.yul\":20926:20927   */\n      dup3\n        /* \"#utility.yul\":20908:20928   */\n      tag_220\n      jump\t// in\n    tag_465:\n        /* \"#utility.yul\":20903:20928   */\n      swap2\n      pop\n        /* \"#utility.yul\":20942:20962   */\n      tag_466\n        /* \"#utility.yul\":20960:20961   */\n      dup4\n        /* \"#utility.yul\":20942:20962   */\n      tag_220\n      jump\t// in\n    tag_466:\n        /* \"#utility.yul\":20937:20962   */\n      swap3\n      pop\n        /* \"#utility.yul\":20985:20986   */\n      dup3\n        /* \"#utility.yul\":20982:20983   */\n      dup3\n        /* \"#utility.yul\":20978:20987   */\n      add\n        /* \"#utility.yul\":20971:20987   */\n      swap1\n      pop\n        /* \"#utility.yul\":21006:21009   */\n      dup1\n        /* \"#utility.yul\":21003:21004   */\n      dup3\n        /* \"#utility.yul\":21000:21010   */\n      gt\n        /* \"#utility.yul\":20997:21033   */\n      iszero\n      tag_467\n      jumpi\n        /* \"#utility.yul\":21013:21031   */\n      tag_468\n      tag_252\n      jump\t// in\n    tag_468:\n        /* \"#utility.yul\":20997:21033   */\n    tag_467:\n        /* \"#utility.yul\":20849:21040   */\n      swap3\n      swap2\n      pop\n      pop\n      jump\t// out\n        /* \"#utility.yul\":21046:21226   */\n    tag_77:\n        /* \"#utility.yul\":21094:21171   */\n      0x4e487b7100000000000000000000000000000000000000000000000000000000\n        /* \"#utility.yul\":21091:21092   */\n      0x00\n        /* \"#utility.yul\":21084:21172   */\n      mstore\n        /* \"#utility.yul\":21191:21195   */\n      0x32\n        /* \"#utility.yul\":21188:21189   */\n      0x04\n        /* \"#utility.yul\":21181:21196   */\n      mstore\n        /* \"#utility.yul\":21215:21219   */\n      0x24\n        /* \"#utility.yul\":21212:21213   */\n      0x00\n        /* \"#utility.yul\":21205:21220   */\n      revert\n        /* \"#utility.yul\":21232:21465   */\n    tag_107:\n        /* \"#utility.yul\":21271:21274   */\n      0x00\n        /* \"#utility.yul\":21294:21318   */\n      tag_471\n        /* \"#utility.yul\":21312:21317   */\n      dup3\n        /* \"#utility.yul\":21294:21318   */\n      tag_220\n      jump\t// in\n    tag_471:\n        /* \"#utility.yul\":21285:21318   */\n      swap2\n      pop\n        /* \"#utility.yul\":21340:21406   */\n      0xffffffffffffffffffffffffffffffffffffffffffffffffffffffffffffffff\n        /* \"#utility.yul\":21333:21338   */\n      dup3\n        /* \"#utility.yul\":21330:21407   */\n      sub\n        /* \"#utility.yul\":21327:21430   */\n      tag_472\n      jumpi\n        /* \"#utility.yul\":21410:21428   */\n      tag_473\n      tag_252\n      jump\t// in\n    tag_473:\n        /* \"#utility.yul\":21327:21430   */\n    tag_472:\n        /* \"#utility.yul\":21457:21458   */\n      0x01\n        /* \"#utility.yul\":21450:21455   */\n      dup3\n        /* \"#utility.yul\":21446:21459   */\n      add\n        /* \"#utility.yul\":21439:21459   */\n      swap1\n      pop\n        /* \"#utility.yul\":21232:21465   */\n      swap2\n      swap1\n      pop\n      jump\t// out\n        /* \"#utility.yul\":21471:21640   */\n    tag_253:\n        /* \"#utility.yul\":21611:21632   */\n      0x456e636c61766520494420726571756972656400000000000000000000000000\n        /* \"#utility.yul\":21607:21608   */\n      0x00\n        /* \"#utility.yul\":21599:21605   */\n      dup3\n        /* \"#utility.yul\":21595:21609   */\n      add\n        /* \"#utility.yul\":21588:21633   */\n      mstore\n        /* \"#utility.yul\":21471:21640   */\n      pop\n      jump\t// out\n        /* \"#utility.yul\":21646:22012   */\n    tag_254:\n        /* \"#utility.yul\":21788:21791   */\n      0x00\n        /* \"#utility.yul\":21809:21876   */\n      tag_476\n        /* \"#utility.yul\":21873:21875   */\n      0x13\n        /* \"#utility.yul\":21868:21871   */\n      dup4\n        /* \"#utility.yul\":21809:21876   */\n      tag_225\n      jump\t// in\n    tag_476:\n        /* \"#utility.yul\":21802:21876   */\n      swap2\n      pop\n        /* \"#utility.yul\":21885:21978   */\n      tag_477\n        /* \"#utility.yul\":21974:21977   */\n      dup3\n        /* \"#utility.yul\":21885:21978   */\n      tag_253\n      jump\t// in\n    tag_477:\n        /* \"#utility.yul\":22003:22005   */\n      0x20\n        /* \"#utility.yul\":21998:22001   */\n      dup3\n        /* \"#utility.yul\":21994:22006   */\n      add\n        /* \"#utility.yul\":21987:22006   */\n      swap1\n      pop\n        /* \"#utility.yul\":21646:22012   */\n      swap2\n      swap1\n      pop\n      jump\t// out\n        /* \"#utility.yul\":22018:22437   */\n    tag_120:\n        /* \"#utility.yul\":22184:22188   */\n      0x00\n        /* \"#utility.yul\":22222:22224   */\n      0x20\n        /* \"#utility.yul\":22211:22220   */\n      dup3\n        /* \"#utility.yul\":22207:22225   */\n      add\n        /* \"#utility.yul\":22199:22225   */\n      swap1\n      pop\n        /* \"#utility.yul\":22271:22280   */\n      dup2\n        /* \"#utility.yul\":22265:22269   */\n      dup2\n        /* \"#utility.yul\":22261:22281   */\n      sub\n        /* \"#utility.yul\":22257:22258   */\n      0x00\n        /* \"#utility.yul\":22246:22255   */\n      dup4\n        /* \"#utility.yul\":22242:22259   */\n      add\n        /* \"#utility.yul\":22235:22282   */\n      mstore\n        /* \"#utility.yul\":22299:22430   */\n      tag_479\n        /* \"#utility.yul\":22425:22429   */\n      dup2\n        /* \"#utility.yul\":22299:22430   */\n      tag_254\n      jump\t// in\n    tag_479:\n        /* \"#utility.yul\":22291:22430   */\n      swap1\n      pop\n        /* \"#utility.yul\":22018:22437   */\n      swap2\n      swap1\n      pop\n      jump\t// out\n        /* \"#utility.yul\":22443:22613   */\n    tag_255:\n        /* \"#utility.yul\":22583:22605   */\n      0x436f6e6e6563742055524c207265717569726564000000000000000000000000\n        /* \"#utility.yul\":22579:22580   */\n      0x00\n        /* \"#utility.yul\":22571:22577   */\n      dup3\n        /* \"#utility.yul\":22567:22581   */\n      add\n        /* \"#utility.yul\":22560:22606   */\n      mstore\n        /* \"#utility.yul\":22443:22613   */\n      pop\n      jump\t// out\n        /* \"#utility.yul\":22619:22985   */\n    tag_256:\n        /* \"#utility.yul\":22761:22764   */\n      0x00\n        /* \"#utility.yul\":22782:22849   */\n      tag_482\n        /* \"#utility.yul\":22846:22848   */\n      0x14\n        /* \"#utility.yul\":22841:22844   */\n      dup4\n        /* \"#utility.yul\":22782:22849   */\n      tag_225\n      jump\t// in\n    tag_482:\n        /* \"#utility.yul\":22775:22849   */\n      swap2\n      pop\n        /* \"#utility.yul\":22858:22951   */\n      tag_483\n        /* \"#utility.yul\":22947:22950   */\n      dup3\n        /* \"#utility.yul\":22858:22951   */\n      tag_255\n      jump\t// in\n    tag_483:\n        /* \"#utility.yul\":22976:22978   */\n      0x20\n        /* \"#utility.yul\":22971:22974   */\n      dup3\n        /* \"#utility.yul\":22967:22979   */\n      add\n        /* \"#utility.yul\":22960:22979   */\n      swap1\n      pop\n        /* \"#utility.yul\":22619:22985   */\n      swap2\n      swap1\n      pop\n      jump\t// out\n        /* \"#utility.yul\":22991:23410   */\n    tag_123:\n        /* \"#utility.yul\":23157:23161   */\n      0x00\n        /* \"#utility.yul\":23195:23197   */\n      0x20\n        /* \"#utility.yul\":23184:23193   */\n      dup3\n        /* \"#utility.yul\":23180:23198   */\n      add\n        /* \"#utility.yul\":23172:23198   */\n      swap1\n      pop\n        /* \"#utility.yul\":23244:23253   */\n      dup2\n        /* \"#utility.yul\":23238:23242   */\n      dup2\n        /* \"#utility.yul\":23234:23254   */\n      sub\n        /* \"#utility.yul\":23230:23231   */\n      0x00\n        /* \"#utility.yul\":23219:23228   */\n      dup4\n        /* \"#utility.yul\":23215:23232   */\n      add\n        /* \"#utility.yul\":23208:23255   */\n      mstore\n        /* \"#utility.yul\":23272:23403   */\n      tag_485\n        /* \"#utility.yul\":23398:23402   */\n      dup2\n        /* \"#utility.yul\":23272:23403   */\n      tag_256\n      jump\t// in\n    tag_485:\n        /* \"#utility.yul\":23264:23403   */\n      swap1\n      pop\n        /* \"#utility.yul\":22991:23410   */\n      swap2\n      swap1\n      pop\n      jump\t// out\n        /* \"#utility.yul\":23416:23585   */\n    tag_257:\n        /* \"#utility.yul\":23556:23577   */\n      0x5075626c6963206b657920726571756972656400000000000000000000000000\n        /* \"#utility.yul\":23552:23553   */\n      0x00\n        /* \"#utility.yul\":23544:23550   */\n      dup3\n        /* \"#utility.yul\":23540:23554   */\n      add\n        /* \"#utility.yul\":23533:23578   */\n      mstore\n        /* \"#utility.yul\":23416:23585   */\n      pop\n      jump\t// out\n        /* \"#utility.yul\":23591:23957   */\n    tag_258:\n        /* \"#utility.yul\":23733:23736   */\n      0x00\n        /* \"#utility.yul\":23754:23821   */\n      tag_488\n        /* \"#utility.yul\":23818:23820   */\n      0x13\n        /* \"#utility.yul\":23813:23816   */\n      dup4\n        /* \"#utility.yul\":23754:23821   */\n      tag_225\n      jump\t// in\n    tag_488:\n        /* \"#utility.yul\":23747:23821   */\n      swap2\n      pop\n        /* \"#utility.yul\":23830:23923   */\n      tag_489\n        /* \"#utility.yul\":23919:23922   */\n      dup3\n        /* \"#utility.yul\":23830:23923   */\n      tag_257\n      jump\t// in\n    tag_489:\n        /* \"#utility.yul\":23948:23950   */\n      0x20\n        /* \"#utility.yul\":23943:23946   */\n      dup3\n        /* \"#utility.yul\":23939:23951   */\n      add\n        /* \"#utility.yul\":23932:23951   */\n      swap1\n      pop\n        /* \"#utility.yul\":23591:23957   */\n      swap2\n      swap1\n      pop\n      jump\t// out\n        /* \"#utility.yul\":23963:24382   */\n    tag_126:\n        /* \"#utility.yul\":24129:24133   */\n      0x00\n        /* \"#utility.yul\":24167:24169   */\n      0x20\n        /* \"#utility.yul\":24156:24165   */\n      dup3\n        /* \"#utility.yul\":24152:24170   */\n      add\n        /* \"#utility.yul\":24144:24170   */\n      swap1\n      pop\n        /* \"#utility.yul\":24216:24225   */\n      dup2\n        /* \"#utility.yul\":24210:24214   */\n      dup2\n        /* \"#utility.yul\":24206:24226   */\n      sub\n        /* \"#utility.yul\":24202:24203   */\n      0x00\n        /* \"#utility.yul\":24191:24200   */\n      dup4\n        /* \"#utility.yul\":24187:24204   */\n      add\n        /* \"#utility.yul\":24180:24227   */\n      mstore\n        /* \"#utility.yul\":24244:24375   */\n      tag_491\n        /* \"#utility.yul\":24370:24374   */\n      dup2\n        /* \"#utility.yul\":24244:24375   */\n      tag_258\n      jump\t// in\n    tag_491:\n        /* \"#utility.yul\":24236:24375   */\n      swap1\n      pop\n        /* \"#utility.yul\":23963:24382   */\n      swap2\n      swap1\n      pop\n      jump\t// out\n        /* \"#utility.yul\":24388:24560   */\n    tag_259:\n        /* \"#utility.yul\":24528:24552   */\n      0x456e636c61766520616c72656164792065786973747300000000000000000000\n        /* \"#utility.yul\":24524:24525   */\n      0x00\n        /* \"#utility.yul\":24516:24522   */\n      dup3\n        /* \"#utility.yul\":24512:24526   */\n      add\n        /* \"#utility.yul\":24505:24553   */\n      mstore\n        /* \"#utility.yul\":24388:24560   */\n      pop\n      jump\t// out\n        /* \"#utility.yul\":24566:24932   */\n    tag_260:\n        /* \"#utility.yul\":24708:24711   */\n      0x00\n        /* \"#utility.yul\":24729:24796   */\n      tag_494\n        /* \"#utility.yul\":24793:24795   */\n      0x16\n        /* \"#utility.yul\":24788:24791   */\n      dup4\n        /* \"#utility.yul\":24729:24796   */\n      tag_225\n      jump\t// in\n    tag_494:\n        /* \"#utility.yul\":24722:24796   */\n      swap2\n      pop\n        /* \"#utility.yul\":24805:24898   */\n      tag_495\n        /* \"#utility.yul\":24894:24897   */\n      dup3\n        /* \"#utility.yul\":24805:24898   */\n      tag_259\n      jump\t// in\n    tag_495:\n        /* \"#utility.yul\":24923:24925   */\n      0x20\n        /* \"#utility.yul\":24918:24921   */\n      dup3\n        /* \"#utility.yul\":24914:24926   */\n      add\n        /* \"#utility.yul\":24907:24926   */\n      swap1\n      pop\n        /* \"#utility.yul\":24566:24932   */\n      swap2\n      swap1\n      pop\n      jump\t// out\n        /* \"#utility.yul\":24938:25357   */\n    tag_130:\n        /* \"#utility.yul\":25104:25108   */\n      0x00\n        /* \"#utility.yul\":25142:25144   */\n      0x20\n        /* \"#utility.yul\":25131:25140   */\n      dup3\n        /* \"#utility.yul\":25127:25145   */\n      add\n        /* \"#utility.yul\":25119:25145   */\n      swap1\n      pop\n        /* \"#utility.yul\":25191:25200   */\n      dup2\n        /* \"#utility.yul\":25185:25189   */\n      dup2\n        /* \"#utility.yul\":25181:25201   */\n      sub\n        /* \"#utility.yul\":25177:25178   */\n      0x00\n        /* \"#utility.yul\":25166:25175   */\n      dup4\n        /* \"#utility.yul\":25162:25179   */\n      add\n        /* \"#utility.yul\":25155:25202   */\n      mstore\n        /* \"#utility.yul\":25219:25350   */\n      tag_497\n        /* \"#utility.yul\":25345:25349   */\n      dup2\n        /* \"#utility.yul\":25219:25350   */\n      tag_260\n      jump\t// in\n    tag_497:\n        /* \"#utility.yul\":25211:25350   */\n      swap1\n      pop\n        /* \"#utility.yul\":24938:25357   */\n      swap2\n      swap1\n      pop\n      jump\t// out\n        /* \"#utility.yul\":25363:25448   */\n    tag_261:\n        /* \"#utility.yul\":25408:25415   */\n      0x00\n        /* \"#utility.yul\":25437:25442   */\n      dup2\n        /* \"#utility.yul\":25426:25442   */\n      swap1\n      pop\n        /* \"#utility.yul\":25363:25448   */\n      swap2\n      swap1\n      pop\n      jump\t// out\n        /* \"#utility.yul\":25454:25612   */\n    tag_262:\n        /* \"#utility.yul\":25512:25521   */\n      0x00\n        /* \"#utility.yul\":25545:25606   */\n      tag_500\n        /* \"#utility.yul\":25563:25605   */\n      tag_501\n        /* \"#utility.yul\":25572:25604   */\n      tag_502\n        /* \"#utility.yul\":25598:25603   */\n      dup5\n        /* \"#utility.yul\":25572:25604   */\n      tag_261\n      jump\t// in\n    tag_502:\n        /* \"#utility.yul\":25563:25605   */\n      tag_241\n      jump\t// in\n    tag_501:\n        /* \"#utility.yul\":25545:25606   */\n      tag_220\n      jump\t// in\n    tag_500:\n        /* \"#utility.yul\":25532:25606   */\n      swap1\n      pop\n        /* \"#utility.yul\":25454:25612   */\n      swap2\n      swap1\n      pop\n      jump\t// out\n        /* \"#utility.yul\":25618:25765   */\n    tag_263:\n        /* \"#utility.yul\":25713:25758   */\n      tag_504\n        /* \"#utility.yul\":25752:25757   */\n      dup2\n        /* \"#utility.yul\":25713:25758   */\n      tag_262\n      jump\t// in\n    tag_504:\n        /* \"#utility.yul\":25708:25711   */\n      dup3\n        /* \"#utility.yul\":25701:25759   */\n      mstore\n        /* \"#utility.yul\":25618:25765   */\n      pop\n      pop\n      jump\t// out\n        /* \"#utility.yul\":25771:26522   */\n    tag_138:\n        /* \"#utility.yul\":25996:26000   */\n      0x00\n        /* \"#utility.yul\":26034:26037   */\n      0x80\n        /* \"#utility.yul\":26023:26032   */\n      dup3\n        /* \"#utility.yul\":26019:26038   */\n      add\n        /* \"#utility.yul\":26011:26038   */\n      swap1\n      pop\n        /* \"#utility.yul\":26084:26093   */\n      dup2\n        /* \"#utility.yul\":26078:26082   */\n      dup2\n        /* \"#utility.yul\":26074:26094   */\n      sub\n        /* \"#utility.yul\":26070:26071   */\n      0x00\n        /* \"#utility.yul\":26059:26068   */\n      dup4\n        /* \"#utility.yul\":26055:26072   */\n      add\n        /* \"#utility.yul\":26048:26095   */\n      mstore\n        /* \"#utility.yul\":26112:26190   */\n      tag_506\n        /* \"#utility.yul\":26185:26189   */\n      dup2\n        /* \"#utility.yul\":26176:26182   */\n      dup8\n        /* \"#utility.yul\":26112:26190   */\n      tag_226\n      jump\t// in\n    tag_506:\n        /* \"#utility.yul\":26104:26190   */\n      swap1\n      pop\n        /* \"#utility.yul\":26237:26246   */\n      dup2\n        /* \"#utility.yul\":26231:26235   */\n      dup2\n        /* \"#utility.yul\":26227:26247   */\n      sub\n        /* \"#utility.yul\":26222:26224   */\n      0x20\n        /* \"#utility.yul\":26211:26220   */\n      dup4\n        /* \"#utility.yul\":26207:26225   */\n      add\n        /* \"#utility.yul\":26200:26248   */\n      mstore\n        /* \"#utility.yul\":26265:26343   */\n      tag_507\n        /* \"#utility.yul\":26338:26342   */\n      dup2\n        /* \"#utility.yul\":26329:26335   */\n      dup7\n        /* \"#utility.yul\":26265:26343   */\n      tag_226\n      jump\t// in\n    tag_507:\n        /* \"#utility.yul\":26257:26343   */\n      swap1\n      pop\n        /* \"#utility.yul\":26353:26433   */\n      tag_508\n        /* \"#utility.yul\":26429:26431   */\n      0x40\n        /* \"#utility.yul\":26418:26427   */\n      dup4\n        /* \"#utility.yul\":26414:26432   */\n      add\n        /* \"#utility.yul\":26405:26411   */\n      dup6\n        /* \"#utility.yul\":26353:26433   */\n      tag_263\n      jump\t// in\n    tag_508:\n        /* \"#utility.yul\":26443:26515   */\n      tag_509\n        /* \"#utility.yul\":26511:26513   */\n      0x60\n        /* \"#utility.yul\":26500:26509   */\n      dup4\n        /* \"#utility.yul\":26496:26514   */\n      add\n        /* \"#utility.yul\":26487:26493   */\n      dup5\n        /* \"#utility.yul\":26443:26515   */\n      tag_227\n      jump\t// in\n    tag_509:\n        /* \"#utility.yul\":25771:26522   */\n      swap6\n      swap5\n      pop\n      pop\n      pop\n      pop\n      pop\n      jump\t// out\n        /* \"#utility.yul\":26552:27426   */\n    tag_264:\n        /* \"#utility.yul\":26655:26658   */\n      0x00\n        /* \"#utility.yul\":26692:26697   */\n      dup2\n        /* \"#utility.yul\":26686:26698   */\n      sload\n        /* \"#utility.yul\":26721:26757   */\n      tag_511\n        /* \"#utility.yul\":26747:26756   */\n      dup2\n        /* \"#utility.yul\":26721:26757   */\n      tag_80\n      jump\t// in\n    tag_511:\n        /* \"#utility.yul\":26773:26862   */\n      tag_512\n        /* \"#utility.yul\":26855:26861   */\n      dup2\n        /* \"#utility.yul\":26850:26853   */\n      dup7\n        /* \"#utility.yul\":26773:26862   */\n      tag_232\n      jump\t// in\n    tag_512:\n        /* \"#utility.yul\":26766:26862   */\n      swap5\n      pop\n        /* \"#utility.yul\":26893:26894   */\n      0x01\n        /* \"#utility.yul\":26882:26891   */\n      dup3\n        /* \"#utility.yul\":26878:26895   */\n      and\n        /* \"#utility.yul\":26909:26910   */\n      0x00\n        /* \"#utility.yul\":26904:27070   */\n      dup2\n      eq\n      tag_514\n      jumpi\n        /* \"#utility.yul\":27084:27085   */\n      0x01\n        /* \"#utility.yul\":27079:27420   */\n      dup2\n      eq\n      tag_515\n      jumpi\n        /* \"#utility.yul\":26871:27420   */\n      jump(tag_513)\n        /* \"#utility.yul\":26904:27070   */\n    tag_514:\n        /* \"#utility.yul\":26988:26992   */\n      0xff\n        /* \"#utility.yul\":26984:26993   */\n      not\n        /* \"#utility.yul\":26973:26982   */\n      dup4\n        /* \"#utility.yul\":26969:26994   */\n      and\n        /* \"#utility.yul\":26964:26967   */\n      dup7\n        /* \"#utility.yul\":26957:26995   */\n      mstore\n        /* \"#utility.yul\":27050:27056   */\n      dup2\n        /* \"#utility.yul\":27043:27057   */\n      iszero\n        /* \"#utility.yul\":27036:27058   */\n      iszero\n        /* \"#utility.yul\":27028:27034   */\n      dup3\n        /* \"#utility.yul\":27024:27059   */\n      mul\n        /* \"#utility.yul\":27019:27022   */\n      dup7\n        /* \"#utility.yul\":27015:27060   */\n      add\n        /* \"#utility.yul\":27008:27060   */\n      swap4\n      pop\n        /* \"#utility.yul\":26904:27070   */\n      jump(tag_513)\n        /* \"#utility.yul\":27079:27420   */\n    tag_515:\n        /* \"#utility.yul\":27146:27184   */\n      tag_516\n        /* \"#utility.yul\":27178:27183   */\n      dup6\n        /* \"#utility.yul\":27146:27184   */\n      tag_237\n      jump\t// in\n    tag_516:\n        /* \"#utility.yul\":27206:27207   */\n      0x00\n        /* \"#utility.yul\":27220:27374   */\n    tag_517:\n        /* \"#utility.yul\":27234:27240   */\n      dup4\n        /* \"#utility.yul\":27231:27232   */\n      dup2\n        /* \"#utility.yul\":27228:27241   */\n      lt\n        /* \"#utility.yul\":27220:27374   */\n      iszero\n      tag_519\n      jumpi\n        /* \"#utility.yul\":27308:27315   */\n      dup2\n        /* \"#utility.yul\":27302:27316   */\n      sload\n        /* \"#utility.yul\":27298:27299   */\n      dup2\n        /* \"#utility.yul\":27293:27296   */\n      dup10\n        /* \"#utility.yul\":27289:27300   */\n      add\n        /* \"#utility.yul\":27282:27317   */\n      mstore\n        /* \"#utility.yul\":27358:27359   */\n      0x01\n        /* \"#utility.yul\":27349:27356   */\n      dup3\n        /* \"#utility.yul\":27345:27360   */\n      add\n        /* \"#utility.yul\":27334:27360   */\n      swap2\n      pop\n        /* \"#utility.yul\":27256:27260   */\n      0x20\n        /* \"#utility.yul\":27253:27254   */\n      dup2\n        /* \"#utility.yul\":27249:27261   */\n      add\n        /* \"#utility.yul\":27244:27261   */\n      swap1\n      pop\n        /* \"#utility.yul\":27220:27374   */\n      jump(tag_517)\n    tag_519:\n        /* \"#utility.yul\":27403:27409   */\n      dup4\n        /* \"#utility.yul\":27398:27401   */\n      dup9\n        /* \"#utility.yul\":27394:27410   */\n      add\n        /* \"#utility.yul\":27387:27410   */\n      swap6\n      pop\n        /* \"#utility.yul\":27086:27420   */\n      pop\n      pop\n        /* \"#utility.yul\":26871:27420   */\n    tag_513:\n      pop\n        /* \"#utility.yul\":26659:27426   */\n      pop\n      pop\n        /* \"#utility.yul\":26552:27426   */\n      swap3\n      swap2\n      pop\n      pop\n      jump\t// out\n        /* \"#utility.yul\":27432:27701   */\n    tag_155:\n        /* \"#utility.yul\":27561:27564   */\n      0x00\n        /* \"#utility.yul\":27583:27675   */\n      tag_521\n        /* \"#utility.yul\":27671:27674   */\n      dup3\n        /* \"#utility.yul\":27662:27668   */\n      dup5\n        /* \"#utility.yul\":27583:27675   */\n      tag_264\n      jump\t// in\n    tag_521:\n        /* \"#utility.yul\":27576:27675   */\n      swap2\n      pop\n        /* \"#utility.yul\":27692:27695   */\n      dup2\n        /* \"#utility.yul\":27685:27695   */\n      swap1\n      pop\n        /* \"#utility.yul\":27432:27701   */\n      swap3\n      swap2\n      pop\n      pop\n      jump\t// out\n        /* \"#utility.yul\":27707:27901   */\n    tag_158:\n        /* \"#utility.yul\":27747:27751   */\n      0x00\n        /* \"#utility.yul\":27767:27787   */\n      tag_523\n        /* \"#utility.yul\":27785:27786   */\n      dup3\n        /* \"#utility.yul\":27767:27787   */\n      tag_220\n      jump\t// in\n    tag_523:\n        /* \"#utility.yul\":27762:27787   */\n      swap2\n      pop\n        /* \"#utility.yul\":27801:27821   */\n      tag_524\n        /* \"#utility.yul\":27819:27820   */\n      dup4\n        /* \"#utility.yul\":27801:27821   */\n      tag_220\n      jump\t// in\n    tag_524:\n        /* \"#utility.yul\":27796:27821   */\n      swap3\n      pop\n        /* \"#utility.yul\":27845:27846   */\n      dup3\n        /* \"#utility.yul\":27842:27843   */\n      dup3\n        /* \"#utility.yul\":27838:27847   */\n      sub\n        /* \"#utility.yul\":27830:27847   */\n      swap1\n      pop\n        /* \"#utility.yul\":27869:27870   */\n      dup2\n        /* \"#utility.yul\":27863:27867   */\n      dup2\n        /* \"#utility.yul\":27860:27871   */\n      gt\n        /* \"#utility.yul\":27857:27894   */\n      iszero\n      tag_525\n      jumpi\n        /* \"#utility.yul\":27874:27892   */\n      tag_526\n      tag_252\n      jump\t// in\n    tag_526:\n        /* \"#utility.yul\":27857:27894   */\n    tag_525:\n        /* \"#utility.yul\":27707:27901   */\n      swap3\n      swap2\n      pop\n      pop\n      jump\t// out\n        /* \"#utility.yul\":27907:28060   */\n    tag_265:\n        /* \"#utility.yul\":27960:27966   */\n      0x00\n        /* \"#utility.yul\":27994:27999   */\n      dup2\n        /* \"#utility.yul\":27988:28000   */\n      sload\n        /* \"#utility.yul\":27978:28000   */\n      swap1\n      pop\n        /* \"#utility.yul\":28020:28053   */\n      tag_528\n        /* \"#utility.yul\":28046:28052   */\n      dup2\n        /* \"#utility.yul\":28020:28053   */\n      tag_80\n      jump\t// in\n    tag_528:\n        /* \"#utility.yul\":28010:28053   */\n      swap1\n      pop\n        /* \"#utility.yul\":27907:28060   */\n      swap2\n      swap1\n      pop\n      jump\t// out\n        /* \"#utility.yul\":28066:28211   */\n    tag_266:\n        /* \"#utility.yul\":28119:28123   */\n      0x00\n        /* \"#utility.yul\":28142:28145   */\n      dup2\n        /* \"#utility.yul\":28134:28145   */\n      swap1\n      pop\n        /* \"#utility.yul\":28165:28168   */\n      dup2\n        /* \"#utility.yul\":28162:28163   */\n      0x00\n        /* \"#utility.yul\":28155:28169   */\n      mstore\n        /* \"#utility.yul\":28199:28203   */\n      0x20\n        /* \"#utility.yul\":28196:28197   */\n      0x00\n        /* \"#utility.yul\":28186:28204   */\n      keccak256\n        /* \"#utility.yul\":28178:28204   */\n      swap1\n      pop\n        /* \"#utility.yul\":28066:28211   */\n      swap2\n      swap1\n      pop\n      jump\t// out\n        /* \"#utility.yul\":28217:29680   */\n    tag_166:\n        /* \"#utility.yul\":28332:28335   */\n      dup2\n        /* \"#utility.yul\":28326:28330   */\n      dup2\n        /* \"#utility.yul\":28323:28336   */\n      sub\n        /* \"#utility.yul\":28320:28346   */\n      tag_531\n      jumpi\n        /* \"#utility.yul\":28339:28344   */\n      pop\n      pop\n      jump(tag_530)\n        /* \"#utility.yul\":28320:28346   */\n    tag_531:\n        /* \"#utility.yul\":28370:28408   */\n      tag_532\n        /* \"#utility.yul\":28404:28407   */\n      dup3\n        /* \"#utility.yul\":28370:28408   */\n      tag_265\n      jump\t// in\n    tag_532:\n        /* \"#utility.yul\":28473:28491   */\n      0xffffffffffffffff\n        /* \"#utility.yul\":28465:28471   */\n      dup2\n        /* \"#utility.yul\":28462:28492   */\n      gt\n        /* \"#utility.yul\":28459:28515   */\n      iszero\n      tag_533\n      jumpi\n        /* \"#utility.yul\":28495:28513   */\n      tag_534\n      tag_55\n      jump\t// in\n    tag_534:\n        /* \"#utility.yul\":28459:28515   */\n    tag_533:\n        /* \"#utility.yul\":28539:28577   */\n      tag_535\n        /* \"#utility.yul\":28571:28575   */\n      dup3\n        /* \"#utility.yul\":28565:28576   */\n      sload\n        /* \"#utility.yul\":28539:28577   */\n      tag_80\n      jump\t// in\n    tag_535:\n        /* \"#utility.yul\":28624:28691   */\n      tag_536\n        /* \"#utility.yul\":28684:28690   */\n      dup3\n        /* \"#utility.yul\":28676:28682   */\n      dup3\n        /* \"#utility.yul\":28670:28674   */\n      dup6\n        /* \"#utility.yul\":28624:28691   */\n      tag_248\n      jump\t// in\n    tag_536:\n        /* \"#utility.yul\":28718:28719   */\n      0x00\n        /* \"#utility.yul\":28747:28749   */\n      0x1f\n        /* \"#utility.yul\":28739:28745   */\n      dup4\n        /* \"#utility.yul\":28736:28750   */\n      gt\n        /* \"#utility.yul\":28764:28765   */\n      0x01\n        /* \"#utility.yul\":28759:29435   */\n      dup2\n      eq\n      tag_538\n      jumpi\n        /* \"#utility.yul\":29479:29480   */\n      0x00\n        /* \"#utility.yul\":29496:29502   */\n      dup5\n        /* \"#utility.yul\":29493:29570   */\n      iszero\n      tag_539\n      jumpi\n        /* \"#utility.yul\":29545:29554   */\n      dup3\n        /* \"#utility.yul\":29540:29543   */\n      dup8\n        /* \"#utility.yul\":29536:29555   */\n      add\n        /* \"#utility.yul\":29530:29556   */\n      sload\n        /* \"#utility.yul\":29521:29556   */\n      swap1\n      pop\n        /* \"#utility.yul\":29493:29570   */\n    tag_539:\n        /* \"#utility.yul\":29596:29663   */\n      tag_540\n        /* \"#utility.yul\":29656:29662   */\n      dup6\n        /* \"#utility.yul\":29649:29654   */\n      dup3\n        /* \"#utility.yul\":29596:29663   */\n      tag_251\n      jump\t// in\n    tag_540:\n        /* \"#utility.yul\":29590:29594   */\n      dup7\n        /* \"#utility.yul\":29583:29664   */\n      sstore\n        /* \"#utility.yul\":29452:29674   */\n      pop\n        /* \"#utility.yul\":28729:29674   */\n      jump(tag_537)\n        /* \"#utility.yul\":28759:29435   */\n    tag_538:\n        /* \"#utility.yul\":28811:28815   */\n      0x1f\n        /* \"#utility.yul\":28807:28816   */\n      not\n        /* \"#utility.yul\":28799:28805   */\n      dup5\n        /* \"#utility.yul\":28795:28817   */\n      and\n        /* \"#utility.yul\":28837:28877   */\n      tag_541\n        /* \"#utility.yul\":28873:28876   */\n      dup8\n        /* \"#utility.yul\":28837:28877   */\n      tag_266\n      jump\t// in\n    tag_541:\n        /* \"#utility.yul\":28830:28877   */\n      swap7\n      pop\n        /* \"#utility.yul\":28904:28941   */\n      tag_542\n        /* \"#utility.yul\":28936:28940   */\n      dup7\n        /* \"#utility.yul\":28904:28941   */\n      tag_237\n      jump\t// in\n    tag_542:\n        /* \"#utility.yul\":28963:28964   */\n      0x00\n        /* \"#utility.yul\":28977:29184   */\n    tag_543:\n        /* \"#utility.yul\":28991:28998   */\n      dup3\n        /* \"#utility.yul\":28988:28989   */\n      dup2\n        /* \"#utility.yul\":28985:28999   */\n      lt\n        /* \"#utility.yul\":28977:29184   */\n      iszero\n      tag_545\n      jumpi\n        /* \"#utility.yul\":29070:29079   */\n      dup5\n        /* \"#utility.yul\":29065:29068   */\n      dup10\n        /* \"#utility.yul\":29061:29080   */\n      add\n        /* \"#utility.yul\":29055:29081   */\n      sload\n        /* \"#utility.yul\":29047:29053   */\n      dup3\n        /* \"#utility.yul\":29040:29082   */\n      sstore\n        /* \"#utility.yul\":29121:29122   */\n      0x01\n        /* \"#utility.yul\":29113:29119   */\n      dup3\n        /* \"#utility.yul\":29109:29123   */\n      add\n        /* \"#utility.yul\":29099:29123   */\n      swap2\n      pop\n        /* \"#utility.yul\":29168:29169   */\n      0x01\n        /* \"#utility.yul\":29157:29166   */\n      dup6\n        /* \"#utility.yul\":29153:29170   */\n      add\n        /* \"#utility.yul\":29140:29170   */\n      swap5\n      pop\n        /* \"#utility.yul\":29014:29018   */\n      0x20\n        /* \"#utility.yul\":29011:29012   */\n      dup2\n        /* \"#utility.yul\":29007:29019   */\n      add\n        /* \"#utility.yul\":29002:29019   */\n      swap1\n      pop\n        /* \"#utility.yul\":28977:29184   */\n      jump(tag_543)\n    tag_545:\n        /* \"#utility.yul\":29212:29218   */\n      dup7\n        /* \"#utility.yul\":29203:29210   */\n      dup4\n        /* \"#utility.yul\":29200:29219   */\n      lt\n        /* \"#utility.yul\":29197:29376   */\n      iszero\n      tag_546\n      jumpi\n        /* \"#utility.yul\":29270:29279   */\n      dup5\n        /* \"#utility.yul\":29265:29268   */\n      dup10\n        /* \"#utility.yul\":29261:29280   */\n      add\n        /* \"#utility.yul\":29255:29281   */\n      sload\n        /* \"#utility.yul\":29313:29361   */\n      tag_547\n        /* \"#utility.yul\":29355:29359   */\n      0x1f\n        /* \"#utility.yul\":29347:29353   */\n      dup10\n        /* \"#utility.yul\":29343:29360   */\n      and\n        /* \"#utility.yul\":29332:29341   */\n      dup3\n        /* \"#utility.yul\":29313:29361   */\n      tag_250\n      jump\t// in\n    tag_547:\n        /* \"#utility.yul\":29305:29311   */\n      dup4\n        /* \"#utility.yul\":29298:29362   */\n      sstore\n        /* \"#utility.yul\":29220:29376   */\n      pop\n        /* \"#utility.yul\":29197:29376   */\n    tag_546:\n        /* \"#utility.yul\":29422:29423   */\n      0x01\n        /* \"#utility.yul\":29418:29419   */\n      0x02\n        /* \"#utility.yul\":29410:29416   */\n      dup9\n        /* \"#utility.yul\":29406:29420   */\n      mul\n        /* \"#utility.yul\":29402:29424   */\n      add\n        /* \"#utility.yul\":29396:29400   */\n      dup9\n        /* \"#utility.yul\":29389:29425   */\n      sstore\n        /* \"#utility.yul\":28766:29435   */\n      pop\n      pop\n      pop\n        /* \"#utility.yul\":28729:29674   */\n    tag_537:\n      pop\n        /* \"#utility.yul\":28310:29680   */\n      pop\n      pop\n      pop\n        /* \"#utility.yul\":28217:29680   */\n      pop\n      pop\n    tag_530:\n      jump\t// out\n        /* \"#utility.yul\":29686:29866   */\n    tag_169:\n        /* \"#utility.yul\":29734:29811   */\n      0x4e487b7100000000000000000000000000000000000000000000000000000000\n        /* \"#utility.yul\":29731:29732   */\n      0x00\n        /* \"#utility.yul\":29724:29812   */\n      mstore\n        /* \"#utility.yul\":29831:29835   */\n      0x31\n        /* \"#utility.yul\":29828:29829   */\n      0x04\n        /* \"#utility.yul\":29821:29836   */\n      mstore\n        /* \"#utility.yul\":29855:29859   */\n      0x24\n        /* \"#utility.yul\":29852:29853   */\n      0x00\n        /* \"#utility.yul\":29845:29860   */\n      revert\n\n    auxdata: 0xa2646970667358221220e508f845e62c6233b6bd0aec48d6faab237e7a94d480adb60c2f45c0533a6f1f64736f6c63430008140033\n}\n",
				"bytecode": {
					"linkReferences": {},
					"object": "608060405234801561000f575f80fd5b50611cf98061001d5f395ff3fe608060405234801561000f575f80fd5b5060043610610060575f3560e01c80636b93491714610064578063702d06d114610080578063a23c1cf5146100a2578063d9ac8ad2146100c0578063deba5eb8146100dc578063e39ae54b146100f8575b5f80fd5b61007e60048036038101906100799190610f56565b61012b565b005b6100886102bb565b6040516100999594939291906111ef565b60405180910390f35b6100aa6106f8565b6040516100b79190611263565b60405180910390f35b6100da60048036038101906100d59190610f56565b6107cc565b005b6100f660048036038101906100f19190611283565b610a02565b005b610112600480360381019061010d9190611283565b610c11565b6040516101229493929190611321565b60405180910390f35b5f82511161016e576040517f08c379a0000000000000000000000000000000000000000000000000000000008152600401610165906113bc565b60405180910390fd5b5f8151116101b1576040517f08c379a00000000000000000000000000000000000000000000000000000000081526004016101a890611424565b60405180910390fd5b5f80846040516101c1919061147c565b908152602001604051809103902090505f816002015411610217576040517f08c379a000000000000000000000000000000000000000000000000000000000815260040161020e906114dc565b60405180910390fd5b82815f01908161022791906116f4565b508181600101908161023991906116f4565b506001816002015f82825461024e91906117f0565b925050819055504281600301819055508360405161026c919061147c565b60405180910390207f32a3abc732792051b4ae39d05ce6c62827f45926bb50971e75840888d7411d3584848460020154426040516102ad9493929190611321565b60405180910390a250505050565b60608060608060605f60018054905090508067ffffffffffffffff8111156102e6576102e5610e32565b5b60405190808252806020026020018201604052801561031957816020015b60608152602001906001900390816103045790505b5095508067ffffffffffffffff81111561033657610335610e32565b5b60405190808252806020026020018201604052801561036957816020015b60608152602001906001900390816103545790505b5094508067ffffffffffffffff81111561038657610385610e32565b5b6040519080825280602002602001820160405280156103b957816020015b60608152602001906001900390816103a45790505b5093508067ffffffffffffffff8111156103d6576103d5610e32565b5b6040519080825280602002602001820160405280156104045781602001602082028036833780820191505090505b5092508067ffffffffffffffff81111561042157610420610e32565b5b60405190808252806020026020018201604052801561044f5781602001602082028036833780820191505090505b5091505f5b818110156106ef575f6001828154811061047157610470611823565b5b905f5260205f2001805461048490611527565b80601f01602080910402602001604051908101604052809291908181526020018280546104b090611527565b80156104fb5780601f106104d2576101008083540402835291602001916104fb565b820191905f5260205f20905b8154815290600101906020018083116104de57829003601f168201915b505050505090505f8082604051610512919061147c565b908152602001604051809103902090508189848151811061053657610535611823565b5b6020026020010181905250805f01805461054f90611527565b80601f016020809104026020016040519081016040528092919081815260200182805461057b90611527565b80156105c65780601f1061059d576101008083540402835291602001916105c6565b820191905f5260205f20905b8154815290600101906020018083116105a957829003601f168201915b50505050508884815181106105de576105dd611823565b5b60200260200101819052508060010180546105f890611527565b80601f016020809104026020016040519081016040528092919081815260200182805461062490611527565b801561066f5780601f106106465761010080835404028352916020019161066f565b820191905f5260205f20905b81548152906001019060200180831161065257829003601f168201915b505050505087848151811061068757610686611823565b5b602002602001018190525080600201548684815181106106aa576106a9611823565b5b60200260200101818152505080600301548584815181106106ce576106cd611823565b5b602002602001018181525050505080806106e790611850565b915050610454565b50509091929394565b60606001805480602002602001604051908101604052809291908181526020015f905b828210156107c3578382905f5260205f2001805461073890611527565b80601f016020809104026020016040519081016040528092919081815260200182805461076490611527565b80156107af5780601f10610786576101008083540402835291602001916107af565b820191905f5260205f20905b81548152906001019060200180831161079257829003601f168201915b50505050508152602001906001019061071b565b50505050905090565b5f83511161080f576040517f08c379a0000000000000000000000000000000000000000000000000000000008152600401610806906118e1565b60405180910390fd5b5f825111610852576040517f08c379a000000000000000000000000000000000000000000000000000000000815260040161084990611949565b60405180910390fd5b5f815111610895576040517f08c379a000000000000000000000000000000000000000000000000000000000815260040161088c906119b1565b60405180910390fd5b5f80846040516108a5919061147c565b908152602001604051809103902060020154146108f7576040517f08c379a00000000000000000000000000000000000000000000000000000000081526004016108ee90611a19565b60405180910390fd5b604051806080016040528083815260200182815260200160018152602001428152505f84604051610928919061147c565b90815260200160405180910390205f820151815f01908161094991906116f4565b50602082015181600101908161095f91906116f4565b506040820151816002015560608201518160030155905050600183908060018154018082558091505060019003905f5260205f20015f9091909190915090816109a891906116f4565b50826040516109b7919061147c565b60405180910390207f3fa539bee9fa84e37f78eda39fa4bcdbd2ed9727b4857312813a8a9c64b81ed483836001426040516109f59493929190611a70565b60405180910390a2505050565b5f8082604051610a12919061147c565b908152602001604051809103902090505f816002015411610a68576040517f08c379a0000000000000000000000000000000000000000000000000000000008152600401610a5f906114dc565b60405180910390fd5b5f82604051610a77919061147c565b90815260200160405180910390205f8082015f610a949190610db1565b600182015f610aa39190610db1565b600282015f9055600382015f905550505f60018054905090505f5b81811015610bc95783604051602001610ad7919061147c565b6040516020818303038152906040528051906020012060018281548110610b0157610b00611823565b5b905f5260205f2001604051602001610b199190611b41565b6040516020818303038152906040528051906020012003610bb65760018083610b429190611b57565b81548110610b5357610b52611823565b5b905f5260205f200160018281548110610b6f57610b6e611823565b5b905f5260205f20019081610b839190611bb1565b506001805480610b9657610b95611c96565b5b600190038181905f5260205f20015f610baf9190610db1565b9055610bc9565b8080610bc190611850565b915050610abe565b5082604051610bd8919061147c565b60405180910390207f89d0532994016674064c39c0f9ab6740e13cf7aa0c4491dcdbd9fd3f9f5a9e9f60405160405180910390a2505050565b6060805f805f8086604051610c26919061147c565b908152602001604051809103902090505f816002015411610c7c576040517f08c379a0000000000000000000000000000000000000000000000000000000008152600401610c73906114dc565b60405180910390fd5b805f018160010182600201548360030154838054610c9990611527565b80601f0160208091040260200160405190810160405280929190818152602001828054610cc590611527565b8015610d105780601f10610ce757610100808354040283529160200191610d10565b820191905f5260205f20905b815481529060010190602001808311610cf357829003601f168201915b50505050509350828054610d2390611527565b80601f0160208091040260200160405190810160405280929190818152602001828054610d4f90611527565b8015610d9a5780601f10610d7157610100808354040283529160200191610d9a565b820191905f5260205f20905b815481529060010190602001808311610d7d57829003601f168201915b505050505092509450945094509450509193509193565b508054610dbd90611527565b5f825580601f10610dce5750610deb565b601f0160209004905f5260205f2090810190610dea9190610dee565b5b50565b5b80821115610e05575f815f905550600101610def565b5090565b5f604051905090565b5f80fd5b5f80fd5b5f80fd5b5f80fd5b5f601f19601f8301169050919050565b7f4e487b71000000000000000000000000000000000000000000000000000000005f52604160045260245ffd5b610e6882610e22565b810181811067ffffffffffffffff82111715610e8757610e86610e32565b5b80604052505050565b5f610e99610e09565b9050610ea58282610e5f565b919050565b5f67ffffffffffffffff821115610ec457610ec3610e32565b5b610ecd82610e22565b9050602081019050919050565b828183375f83830152505050565b5f610efa610ef584610eaa565b610e90565b905082815260208101848484011115610f1657610f15610e1e565b5b610f21848285610eda565b509392505050565b5f82601f830112610f3d57610f3c610e1a565b5b8135610f4d848260208601610ee8565b91505092915050565b5f805f60608486031215610f6d57610f6c610e12565b5b5f84013567ffffffffffffffff811115610f8a57610f89610e16565b5b610f9686828701610f29565b935050602084013567ffffffffffffffff811115610fb757610fb6610e16565b5b610fc386828701610f29565b925050604084013567ffffffffffffffff811115610fe457610fe3610e16565b5b610ff086828701610f29565b9150509250925092565b5f81519050919050565b5f82825260208201905092915050565b5f819050602082019050919050565b5f81519050919050565b5f82825260208201905092915050565b5f5b8381101561105a57808201518184015260208101905061103f565b5f8484015250505050565b5f61106f82611023565b611079818561102d565b935061108981856020860161103d565b61109281610e22565b840191505092915050565b5f6110a88383611065565b905092915050565b5f602082019050919050565b5f6110c682610ffa565b6110d08185611004565b9350836020820285016110e285611014565b805f5b8581101561111d57848403895281516110fe858261109d565b9450611109836110b0565b925060208a019950506001810190506110e5565b50829750879550505050505092915050565b5f81519050919050565b5f82825260208201905092915050565b5f819050602082019050919050565b5f819050919050565b61116a81611158565b82525050565b5f61117b8383611161565b60208301905092915050565b5f602082019050919050565b5f61119d8261112f565b6111a78185611139565b93506111b283611149565b805f5b838110156111e25781516111c98882611170565b97506111d483611187565b9250506001810190506111b5565b5085935050505092915050565b5f60a0820190508181035f83015261120781886110bc565b9050818103602083015261121b81876110bc565b9050818103604083015261122f81866110bc565b905081810360608301526112438185611193565b905081810360808301526112578184611193565b90509695505050505050565b5f6020820190508181035f83015261127b81846110bc565b905092915050565b5f6020828403121561129857611297610e12565b5b5f82013567ffffffffffffffff8111156112b5576112b4610e16565b5b6112c184828501610f29565b91505092915050565b5f82825260208201905092915050565b5f6112e482611023565b6112ee81856112ca565b93506112fe81856020860161103d565b61130781610e22565b840191505092915050565b61131b81611158565b82525050565b5f6080820190508181035f83015261133981876112da565b9050818103602083015261134d81866112da565b905061135c6040830185611312565b6113696060830184611312565b95945050505050565b7f4e657720436f6e6e6563742055524c20726571756972656400000000000000005f82015250565b5f6113a66018836112ca565b91506113b182611372565b602082019050919050565b5f6020820190508181035f8301526113d38161139a565b9050919050565b7f4e6577205075626c6963206b65792072657175697265640000000000000000005f82015250565b5f61140e6017836112ca565b9150611419826113da565b602082019050919050565b5f6020820190508181035f83015261143b81611402565b9050919050565b5f81905092915050565b5f61145682611023565b6114608185611442565b935061147081856020860161103d565b80840191505092915050565b5f611487828461144c565b915081905092915050565b7f456e636c617665206e6f7420666f756e640000000000000000000000000000005f82015250565b5f6114c66011836112ca565b91506114d182611492565b602082019050919050565b5f6020820190508181035f8301526114f3816114ba565b9050919050565b7f4e487b71000000000000000000000000000000000000000000000000000000005f52602260045260245ffd5b5f600282049050600182168061153e57607f821691505b602082108103611551576115506114fa565b5b50919050565b5f819050815f5260205f209050919050565b5f6020601f8301049050919050565b5f82821b905092915050565b5f600883026115b37fffffffffffffffffffffffffffffffffffffffffffffffffffffffffffffffff82611578565b6115bd8683611578565b95508019841693508086168417925050509392505050565b5f819050919050565b5f6115f86115f36115ee84611158565b6115d5565b611158565b9050919050565b5f819050919050565b611611836115de565b61162561161d826115ff565b848454611584565b825550505050565b5f90565b61163961162d565b611644818484611608565b505050565b5b818110156116675761165c5f82611631565b60018101905061164a565b5050565b601f8211156116ac5761167d81611557565b61168684611569565b81016020851015611695578190505b6116a96116a185611569565b830182611649565b50505b505050565b5f82821c905092915050565b5f6116cc5f19846008026116b1565b1980831691505092915050565b5f6116e483836116bd565b9150826002028217905092915050565b6116fd82611023565b67ffffffffffffffff81111561171657611715610e32565b5b6117208254611527565b61172b82828561166b565b5f60209050601f83116001811461175c575f841561174a578287015190505b61175485826116d9565b8655506117bb565b601f19841661176a86611557565b5f5b828110156117915784890151825560018201915060208501945060208101905061176c565b868310156117ae57848901516117aa601f8916826116bd565b8355505b6001600288020188555050505b505050505050565b7f4e487b71000000000000000000000000000000000000000000000000000000005f52601160045260245ffd5b5f6117fa82611158565b915061180583611158565b925082820190508082111561181d5761181c6117c3565b5b92915050565b7f4e487b71000000000000000000000000000000000000000000000000000000005f52603260045260245ffd5b5f61185a82611158565b91507fffffffffffffffffffffffffffffffffffffffffffffffffffffffffffffffff820361188c5761188b6117c3565b5b600182019050919050565b7f456e636c617665204944207265717569726564000000000000000000000000005f82015250565b5f6118cb6013836112ca565b91506118d682611897565b602082019050919050565b5f6020820190508181035f8301526118f8816118bf565b9050919050565b7f436f6e6e6563742055524c2072657175697265640000000000000000000000005f82015250565b5f6119336014836112ca565b915061193e826118ff565b602082019050919050565b5f6020820190508181035f83015261196081611927565b9050919050565b7f5075626c6963206b6579207265717569726564000000000000000000000000005f82015250565b5f61199b6013836112ca565b91506119a682611967565b602082019050919050565b5f6020820190508181035f8301526119c88161198f565b9050919050565b7f456e636c61766520616c726561647920657869737473000000000000000000005f82015250565b5f611a036016836112ca565b9150611a0e826119cf565b602082019050919050565b5f6020820190508181035f830152611a30816119f7565b9050919050565b5f819050919050565b5f611a5a611a55611a5084611a37565b6115d5565b611158565b9050919050565b611a6a81611a40565b82525050565b5f6080820190508181035f830152611a8881876112da565b90508181036020830152611a9c81866112da565b9050611aab6040830185611a61565b611ab86060830184611312565b95945050505050565b5f8154611acd81611527565b611ad78186611442565b9450600182165f8114611af15760018114611b0657611b38565b60ff1983168652811515820286019350611b38565b611b0f85611557565b5f5b83811015611b3057815481890152600182019150602081019050611b11565b838801955050505b50505092915050565b5f611b4c8284611ac1565b915081905092915050565b5f611b6182611158565b9150611b6c83611158565b9250828203905081811115611b8457611b836117c3565b5b92915050565b5f81549050611b9881611527565b9050919050565b5f819050815f5260205f209050919050565b818103611bbf575050611c94565b611bc882611b8a565b67ffffffffffffffff811115611be157611be0610e32565b5b611beb8254611527565b611bf682828561166b565b5f601f831160018114611c23575f8415611c11578287015490505b611c1b85826116d9565b865550611c8d565b601f198416611c3187611b9f565b9650611c3c86611557565b5f5b82811015611c6357848901548255600182019150600185019450602081019050611c3e565b86831015611c805784890154611c7c601f8916826116bd565b8355505b6001600288020188555050505b5050505050505b565b7f4e487b71000000000000000000000000000000000000000000000000000000005f52603160045260245ffdfea2646970667358221220e508f845e62c6233b6bd0aec48d6faab237e7a94d480adb60c2f45c0533a6f1f64736f6c63430008140033",
					"opcodes": "PUSH1 0x80 PUSH1 0x40 MSTORE CALLVALUE DUP1 ISZERO PUSH2 0xF JUMPI PUSH0 DUP1 REVERT JUMPDEST POP PUSH2 0x1CF9 DUP1 PUSH2 0x1D PUSH0 CODECOPY PUSH0 RETURN INVALID PUSH1 0x80 PUSH1 0x40 MSTORE CALLVALUE DUP1 ISZERO PUSH2 0xF JUMPI PUSH0 DUP1 REVERT JUMPDEST POP PUSH1 0x4 CALLDATASIZE LT PUSH2 0x60 JUMPI PUSH0 CALLDATALOAD PUSH1 0xE0 SHR DUP1 PUSH4 0x6B934917 EQ PUSH2 0x64 JUMPI DUP1 PUSH4 0x702D06D1 EQ PUSH2 0x80 JUMPI DUP1 PUSH4 0xA23C1CF5 EQ PUSH2 0xA2 JUMPI DUP1 PUSH4 0xD9AC8AD2 EQ PUSH2 0xC0 JUMPI DUP1 PUSH4 0xDEBA5EB8 EQ PUSH2 0xDC JUMPI DUP1 PUSH4 0xE39AE54B EQ PUSH2 0xF8 JUMPI JUMPDEST PUSH0 DUP1 REVERT JUMPDEST PUSH2 0x7E PUSH1 0x4 DUP1 CALLDATASIZE SUB DUP2 ADD SWAP1 PUSH2 0x79 SWAP2 SWAP1 PUSH2 0xF56 JUMP JUMPDEST PUSH2 0x12B JUMP JUMPDEST STOP JUMPDEST PUSH2 0x88 PUSH2 0x2BB JUMP JUMPDEST PUSH1 0x40 MLOAD PUSH2 0x99 SWAP6 SWAP5 SWAP4 SWAP3 SWAP2 SWAP1 PUSH2 0x11EF JUMP JUMPDEST PUSH1 0x40 MLOAD DUP1 SWAP2 SUB SWAP1 RETURN JUMPDEST PUSH2 0xAA PUSH2 0x6F8 JUMP JUMPDEST PUSH1 0x40 MLOAD PUSH2 0xB7 SWAP2 SWAP1 PUSH2 0x1263 JUMP JUMPDEST PUSH1 0x40 MLOAD DUP1 SWAP2 SUB SWAP1 RETURN JUMPDEST PUSH2 0xDA PUSH1 0x4 DUP1 CALLDATASIZE SUB DUP2 ADD SWAP1 PUSH2 0xD5 SWAP2 SWAP1 PUSH2 0xF56 JUMP JUMPDEST PUSH2 0x7CC JUMP JUMPDEST STOP JUMPDEST PUSH2 0xF6 PUSH1 0x4 DUP1 CALLDATASIZE SUB DUP2 ADD SWAP1 PUSH2 0xF1 SWAP2 SWAP1 PUSH2 0x1283 JUMP JUMPDEST PUSH2 0xA02 JUMP JUMPDEST STOP JUMPDEST PUSH2 0x112 PUSH1 0x4 DUP1 CALLDATASIZE SUB DUP2 ADD SWAP1 PUSH2 0x10D SWAP2 SWAP1 PUSH2 0x1283 JUMP JUMPDEST PUSH2 0xC11 JUMP JUMPDEST PUSH1 0x40 MLOAD PUSH2 0x122 SWAP5 SWAP4 SWAP3 SWAP2 SWAP1 PUSH2 0x1321 JUMP JUMPDEST PUSH1 0x40 MLOAD DUP1 SWAP2 SUB SWAP1 RETURN JUMPDEST PUSH0 DUP3 MLOAD GT PUSH2 0x16E JUMPI PUSH1 0x40 MLOAD PUSH32 0x8C379A000000000000000000000000000000000000000000000000000000000 DUP2 MSTORE PUSH1 0x4 ADD PUSH2 0x165 SWAP1 PUSH2 0x13BC JUMP JUMPDEST PUSH1 0x40 MLOAD DUP1 SWAP2 SUB SWAP1 REVERT JUMPDEST PUSH0 DUP2 MLOAD GT PUSH2 0x1B1 JUMPI PUSH1 0x40 MLOAD PUSH32 0x8C379A000000000000000000000000000000000000000000000000000000000 DUP2 MSTORE PUSH1 0x4 ADD PUSH2 0x1A8 SWAP1 PUSH2 0x1424 JUMP JUMPDEST PUSH1 0x40 MLOAD DUP1 SWAP2 SUB SWAP1 REVERT JUMPDEST PUSH0 DUP1 DUP5 PUSH1 0x40 MLOAD PUSH2 0x1C1 SWAP2 SWAP1 PUSH2 0x147C JUMP JUMPDEST SWAP1 DUP2 MSTORE PUSH1 0x20 ADD PUSH1 0x40 MLOAD DUP1 SWAP2 SUB SWAP1 KECCAK256 SWAP1 POP PUSH0 DUP2 PUSH1 0x2 ADD SLOAD GT PUSH2 0x217 JUMPI PUSH1 0x40 MLOAD PUSH32 0x8C379A000000000000000000000000000000000000000000000000000000000 DUP2 MSTORE PUSH1 0x4 ADD PUSH2 0x20E SWAP1 PUSH2 0x14DC JUMP JUMPDEST PUSH1 0x40 MLOAD DUP1 SWAP2 SUB SWAP1 REVERT JUMPDEST DUP3 DUP2 PUSH0 ADD SWAP1 DUP2 PUSH2 0x227 SWAP2 SWAP1 PUSH2 0x16F4 JUMP JUMPDEST POP DUP2 DUP2 PUSH1 0x1 ADD SWAP1 DUP2 PUSH2 0x239 SWAP2 SWAP1 PUSH2 0x16F4 JUMP JUMPDEST POP PUSH1 0x1 DUP2 PUSH1 0x2 ADD PUSH0 DUP3 DUP3 SLOAD PUSH2 0x24E SWAP2 SWAP1 PUSH2 0x17F0 JUMP JUMPDEST SWAP3 POP POP DUP2 SWAP1 SSTORE POP TIMESTAMP DUP2 PUSH1 0x3 ADD DUP2 SWAP1 SSTORE POP DUP4 PUSH1 0x40 MLOAD PUSH2 0x26C SWAP2 SWAP1 PUSH2 0x147C JUMP JUMPDEST PUSH1 0x40 MLOAD DUP1 SWAP2 SUB SWAP1 KECCAK256 PUSH32 0x32A3ABC732792051B4AE39D05CE6C62827F45926BB50971E75840888D7411D35 DUP5 DUP5 DUP5 PUSH1 0x2 ADD SLOAD TIMESTAMP PUSH1 0x40 MLOAD PUSH2 0x2AD SWAP5 SWAP4 SWAP3 SWAP2 SWAP1 PUSH2 0x1321 JUMP JUMPDEST PUSH1 0x40 MLOAD DUP1 SWAP2 SUB SWAP1 LOG2 POP POP POP POP JUMP JUMPDEST PUSH1 0x60 DUP1 PUSH1 0x60 DUP1 PUSH1 0x60 PUSH0 PUSH1 0x1 DUP1 SLOAD SWAP1 POP SWAP1 POP DUP1 PUSH8 0xFFFFFFFFFFFFFFFF DUP2 GT ISZERO PUSH2 0x2E6 JUMPI PUSH2 0x2E5 PUSH2 0xE32 JUMP JUMPDEST JUMPDEST PUSH1 0x40 MLOAD SWAP1 DUP1 DUP3 MSTORE DUP1 PUSH1 0x20 MUL PUSH1 0x20 ADD DUP3 ADD PUSH1 0x40 MSTORE DUP1 ISZERO PUSH2 0x319 JUMPI DUP2 PUSH1 0x20 ADD JUMPDEST PUSH1 0x60 DUP2 MSTORE PUSH1 0x20 ADD SWAP1 PUSH1 0x1 SWAP1 SUB SWAP1 DUP2 PUSH2 0x304 JUMPI SWAP1 POP JUMPDEST POP SWAP6 POP DUP1 PUSH8 0xFFFFFFFFFFFFFFFF DUP2 GT ISZERO PUSH2 0x336 JUMPI PUSH2 0x335 PUSH2 0xE32 JUMP JUMPDEST JUMPDEST PUSH1 0x40 MLOAD SWAP1 DUP1 DUP3 MSTORE DUP1 PUSH1 0x20 MUL PUSH1 0x20 ADD DUP3 ADD PUSH1 0x40 MSTORE DUP1 ISZERO PUSH2 0x369 JUMPI DUP2 PUSH1 0x20 ADD JUMPDEST PUSH1 0x60 DUP2 MSTORE PUSH1 0x20 ADD SWAP1 PUSH1 0x1 SWAP1 SUB SWAP1 DUP2 PUSH2 0x354 JUMPI SWAP1 POP JUMPDEST POP SWAP5 POP DUP1 PUSH8 0xFFFFFFFFFFFFFFFF DUP2 GT ISZERO PUSH2 0x386 JUMPI PUSH2 0x385 PUSH2 0xE32 JUMP JUMPDEST JUMPDEST PUSH1 0x40 MLOAD SWAP1 DUP1 DUP3 MSTORE DUP1 PUSH1 0x20 MUL PUSH1 0x20 ADD DUP3 ADD PUSH1 0x40 MSTORE DUP1 ISZERO PUSH2 0x3B9 JUMPI DUP2 PUSH1 0x20 ADD JUMPDEST PUSH1 0x60 DUP2 MSTORE PUSH1 0x20 ADD SWAP1 PUSH1 0x1 SWAP1 SUB SWAP1 DUP2 PUSH2 0x3A4 JUMPI SWAP1 POP JUMPDEST POP SWAP4 POP DUP1 PUSH8 0xFFFFFFFFFFFFFFFF DUP2 GT ISZERO PUSH2 0x3D6 JUMPI PUSH2 0x3D5 PUSH2 0xE32 JUMP JUMPDEST JUMPDEST PUSH1 0x40 MLOAD SWAP1 DUP1 DUP3 MSTORE DUP1 PUSH1 0x20 MUL PUSH1 0x20 ADD DUP3 ADD PUSH1 0x40 MSTORE DUP1 ISZERO PUSH2 0x404 JUMPI DUP2 PUSH1 0x20 ADD PUSH1 0x20 DUP3 MUL DUP1 CALLDATASIZE DUP4 CALLDATACOPY DUP1 DUP3 ADD SWAP2 POP POP SWAP1 POP JUMPDEST POP SWAP3 POP DUP1 PUSH8 0xFFFFFFFFFFFFFFFF DUP2 GT ISZERO PUSH2 0x421 JUMPI PUSH2 0x420 PUSH2 0xE32 JUMP JUMPDEST JUMPDEST PUSH1 0x40 MLOAD SWAP1 DUP1 DUP3 MSTORE DUP1 PUSH1 0x20 MUL PUSH1 0x20 ADD DUP3 ADD PUSH1 0x40 MSTORE DUP1 ISZERO PUSH2 0x44F JUMPI DUP2 PUSH1 0x20 ADD PUSH1 0x20 DUP3 MUL DUP1 CALLDATASIZE DUP4 CALLDATACOPY DUP1 DUP3 ADD SWAP2 POP POP SWAP1 POP JUMPDEST POP SWAP2 POP PUSH0 JUMPDEST DUP2 DUP2 LT ISZERO PUSH2 0x6EF JUMPI PUSH0 PUSH1 0x1 DUP3 DUP2 SLOAD DUP2 LT PUSH2 0x471 JUMPI PUSH2 0x470 PUSH2 0x1823 JUMP JUMPDEST JUMPDEST SWAP1 PUSH0 MSTORE PUSH1 0x20 PUSH0 KECCAK256 ADD DUP1 SLOAD PUSH2 0x484 SWAP1 PUSH2 0x1527 JUMP JUMPDEST DUP1 PUSH1 0x1F ADD PUSH1 0x20 DUP1 SWAP2 DIV MUL PUSH1 0x20 ADD PUSH1 0x40 MLOAD SWAP1 DUP2 ADD PUSH1 0x40 MSTORE DUP1 SWAP3 SWAP2 SWAP1 DUP2 DUP2 MSTORE PUSH1 0x20 ADD DUP3 DUP1 SLOAD PUSH2 0x4B0 SWAP1 PUSH2 0x1527 JUMP JUMPDEST DUP1 ISZERO PUSH2 0x4FB JUMPI DUP1 PUSH1 0x1F LT PUSH2 0x4D2 JUMPI PUSH2 0x100 DUP1 DUP4 SLOAD DIV MUL DUP4 MSTORE SWAP2 PUSH1 0x20 ADD SWAP2 PUSH2 0x4FB JUMP JUMPDEST DUP3 ADD SWAP2 SWAP1 PUSH0 MSTORE PUSH1 0x20 PUSH0 KECCAK256 SWAP1 JUMPDEST DUP2 SLOAD DUP2 MSTORE SWAP1 PUSH1 0x1 ADD SWAP1 PUSH1 0x20 ADD DUP1 DUP4 GT PUSH2 0x4DE JUMPI DUP3 SWAP1 SUB PUSH1 0x1F AND DUP3 ADD SWAP2 JUMPDEST POP POP POP POP POP SWAP1 POP PUSH0 DUP1 DUP3 PUSH1 0x40 MLOAD PUSH2 0x512 SWAP2 SWAP1 PUSH2 0x147C JUMP JUMPDEST SWAP1 DUP2 MSTORE PUSH1 0x20 ADD PUSH1 0x40 MLOAD DUP1 SWAP2 SUB SWAP1 KECCAK256 SWAP1 POP DUP2 DUP10 DUP5 DUP2 MLOAD DUP2 LT PUSH2 0x536 JUMPI PUSH2 0x535 PUSH2 0x1823 JUMP JUMPDEST JUMPDEST PUSH1 0x20 MUL PUSH1 0x20 ADD ADD DUP2 SWAP1 MSTORE POP DUP1 PUSH0 ADD DUP1 SLOAD PUSH2 0x54F SWAP1 PUSH2 0x1527 JUMP JUMPDEST DUP1 PUSH1 0x1F ADD PUSH1 0x20 DUP1 SWAP2 DIV MUL PUSH1 0x20 ADD PUSH1 0x40 MLOAD SWAP1 DUP2 ADD PUSH1 0x40 MSTORE DUP1 SWAP3 SWAP2 SWAP1 DUP2 DUP2 MSTORE PUSH1 0x20 ADD DUP3 DUP1 SLOAD PUSH2 0x57B SWAP1 PUSH2 0x1527 JUMP JUMPDEST DUP1 ISZERO PUSH2 0x5C6 JUMPI DUP1 PUSH1 0x1F LT PUSH2 0x59D JUMPI PUSH2 0x100 DUP1 DUP4 SLOAD DIV MUL DUP4 MSTORE SWAP2 PUSH1 0x20 ADD SWAP2 PUSH2 0x5C6 JUMP JUMPDEST DUP3 ADD SWAP2 SWAP1 PUSH0 MSTORE PUSH1 0x20 PUSH0 KECCAK256 SWAP1 JUMPDEST DUP2 SLOAD DUP2 MSTORE SWAP1 PUSH1 0x1 ADD SWAP1 PUSH1 0x20 ADD DUP1 DUP4 GT PUSH2 0x5A9 JUMPI DUP3 SWAP1 SUB PUSH1 0x1F AND DUP3 ADD SWAP2 JUMPDEST POP POP POP POP POP DUP9 DUP5 DUP2 MLOAD DUP2 LT PUSH2 0x5DE JUMPI PUSH2 0x5DD PUSH2 0x1823 JUMP JUMPDEST JUMPDEST PUSH1 0x20 MUL PUSH1 0x20 ADD ADD DUP2 SWAP1 MSTORE POP DUP1 PUSH1 0x1 ADD DUP1 SLOAD PUSH2 0x5F8 SWAP1 PUSH2 0x1527 JUMP JUMPDEST DUP1 PUSH1 0x1F ADD PUSH1 0x20 DUP1 SWAP2 DIV MUL PUSH1 0x20 ADD PUSH1 0x40 MLOAD SWAP1 DUP2 ADD PUSH1 0x40 MSTORE DUP1 SWAP3 SWAP2 SWAP1 DUP2 DUP2 MSTORE PUSH1 0x20 ADD DUP3 DUP1 SLOAD PUSH2 0x624 SWAP1 PUSH2 0x1527 JUMP JUMPDEST DUP1 ISZERO PUSH2 0x66F JUMPI DUP1 PUSH1 0x1F LT PUSH2 0x646 JUMPI PUSH2 0x100 DUP1 DUP4 SLOAD DIV MUL DUP4 MSTORE SWAP2 PUSH1 0x20 ADD SWAP2 PUSH2 0x66F JUMP JUMPDEST DUP3 ADD SWAP2 SWAP1 PUSH0 MSTORE PUSH1 0x20 PUSH0 KECCAK256 SWAP1 JUMPDEST DUP2 SLOAD DUP2 MSTORE SWAP1 PUSH1 0x1 ADD SWAP1 PUSH1 0x20 ADD DUP1 DUP4 GT PUSH2 0x652 JUMPI DUP3 SWAP1 SUB PUSH1 0x1F AND DUP3 ADD SWAP2 JUMPDEST POP POP POP POP POP DUP8 DUP5 DUP2 MLOAD DUP2 LT PUSH2 0x687 JUMPI PUSH2 0x686 PUSH2 0x1823 JUMP JUMPDEST JUMPDEST PUSH1 0x20 MUL PUSH1 0x20 ADD ADD DUP2 SWAP1 MSTORE POP DUP1 PUSH1 0x2 ADD SLOAD DUP7 DUP5 DUP2 MLOAD DUP2 LT PUSH2 0x6AA JUMPI PUSH2 0x6A9 PUSH2 0x1823 JUMP JUMPDEST JUMPDEST PUSH1 0x20 MUL PUSH1 0x20 ADD ADD DUP2 DUP2 MSTORE POP POP DUP1 PUSH1 0x3 ADD SLOAD DUP6 DUP5 DUP2 MLOAD DUP2 LT PUSH2 0x6CE JUMPI PUSH2 0x6CD PUSH2 0x1823 JUMP JUMPDEST JUMPDEST PUSH1 0x20 MUL PUSH1 0x20 ADD ADD DUP2 DUP2 MSTORE POP POP POP POP DUP1 DUP1 PUSH2 0x6E7 SWAP1 PUSH2 0x1850 JUMP JUMPDEST SWAP2 POP POP PUSH2 0x454 JUMP JUMPDEST POP POP SWAP1 SWAP2 SWAP3 SWAP4 SWAP5 JUMP JUMPDEST PUSH1 0x60 PUSH1 0x1 DUP1 SLOAD DUP1 PUSH1 0x20 MUL PUSH1 0x20 ADD PUSH1 0x40 MLOAD SWAP1 DUP2 ADD PUSH1 0x40 MSTORE DUP1 SWAP3 SWAP2 SWAP1 DUP2 DUP2 MSTORE PUSH1 0x20 ADD PUSH0 SWAP1 JUMPDEST DUP3 DUP3 LT ISZERO PUSH2 0x7C3 JUMPI DUP4 DUP3 SWAP1 PUSH0 MSTORE PUSH1 0x20 PUSH0 KECCAK256 ADD DUP1 SLOAD PUSH2 0x738 SWAP1 PUSH2 0x1527 JUMP JUMPDEST DUP1 PUSH1 0x1F ADD PUSH1 0x20 DUP1 SWAP2 DIV MUL PUSH1 0x20 ADD PUSH1 0x40 MLOAD SWAP1 DUP2 ADD PUSH1 0x40 MSTORE DUP1 SWAP3 SWAP2 SWAP1 DUP2 DUP2 MSTORE PUSH1 0x20 ADD DUP3 DUP1 SLOAD PUSH2 0x764 SWAP1 PUSH2 0x1527 JUMP JUMPDEST DUP1 ISZERO PUSH2 0x7AF JUMPI DUP1 PUSH1 0x1F LT PUSH2 0x786 JUMPI PUSH2 0x100 DUP1 DUP4 SLOAD DIV MUL DUP4 MSTORE SWAP2 PUSH1 0x20 ADD SWAP2 PUSH2 0x7AF JUMP JUMPDEST DUP3 ADD SWAP2 SWAP1 PUSH0 MSTORE PUSH1 0x20 PUSH0 KECCAK256 SWAP1 JUMPDEST DUP2 SLOAD DUP2 MSTORE SWAP1 PUSH1 0x1 ADD SWAP1 PUSH1 0x20 ADD DUP1 DUP4 GT PUSH2 0x792 JUMPI DUP3 SWAP1 SUB PUSH1 0x1F AND DUP3 ADD SWAP2 JUMPDEST POP POP POP POP POP DUP2 MSTORE PUSH1 0x20 ADD SWAP1 PUSH1 0x1 ADD SWAP1 PUSH2 0x71B JUMP JUMPDEST POP POP POP POP SWAP1 POP SWAP1 JUMP JUMPDEST PUSH0 DUP4 MLOAD GT PUSH2 0x80F JUMPI PUSH1 0x40 MLOAD PUSH32 0x8C379A000000000000000000000000000000000000000000000000000000000 DUP2 MSTORE PUSH1 0x4 ADD PUSH2 0x806 SWAP1 PUSH2 0x18E1 JUMP JUMPDEST PUSH1 0x40 MLOAD DUP1 SWAP2 SUB SWAP1 REVERT JUMPDEST PUSH0 DUP3 MLOAD GT PUSH2 0x852 JUMPI PUSH1 0x40 MLOAD PUSH32 0x8C379A000000000000000000000000000000000000000000000000000000000 DUP2 MSTORE PUSH1 0x4 ADD PUSH2 0x849 SWAP1 PUSH2 0x1949 JUMP JUMPDEST PUSH1 0x40 MLOAD DUP1 SWAP2 SUB SWAP1 REVERT JUMPDEST PUSH0 DUP2 MLOAD GT PUSH2 0x895 JUMPI PUSH1 0x40 MLOAD PUSH32 0x8C379A000000000000000000000000000000000000000000000000000000000 DUP2 MSTORE PUSH1 0x4 ADD PUSH2 0x88C SWAP1 PUSH2 0x19B1 JUMP JUMPDEST PUSH1 0x40 MLOAD DUP1 SWAP2 SUB SWAP1 REVERT JUMPDEST PUSH0 DUP1 DUP5 PUSH1 0x40 MLOAD PUSH2 0x8A5 SWAP2 SWAP1 PUSH2 0x147C JUMP JUMPDEST SWAP1 DUP2 MSTORE PUSH1 0x20 ADD PUSH1 0x40 MLOAD DUP1 SWAP2 SUB SWAP1 KECCAK256 PUSH1 0x2 ADD SLOAD EQ PUSH2 0x8F7 JUMPI PUSH1 0x40 MLOAD PUSH32 0x8C379A000000000000000000000000000000000000000000000000000000000 DUP2 MSTORE PUSH1 0x4 ADD PUSH2 0x8EE SWAP1 PUSH2 0x1A19 JUMP JUMPDEST PUSH1 0x40 MLOAD DUP1 SWAP2 SUB SWAP1 REVERT JUMPDEST PUSH1 0x40 MLOAD DUP1 PUSH1 0x80 ADD PUSH1 0x40 MSTORE DUP1 DUP4 DUP2 MSTORE PUSH1 0x20 ADD DUP3 DUP2 MSTORE PUSH1 0x20 ADD PUSH1 0x1 DUP2 MSTORE PUSH1 0x20 ADD TIMESTAMP DUP2 MSTORE POP PUSH0 DUP5 PUSH1 0x40 MLOAD PUSH2 0x928 SWAP2 SWAP1 PUSH2 0x147C JUMP JUMPDEST SWAP1 DUP2 MSTORE PUSH1 0x20 ADD PUSH1 0x40 MLOAD DUP1 SWAP2 SUB SWAP1 KECCAK256 PUSH0 DUP3 ADD MLOAD DUP2 PUSH0 ADD SWAP1 DUP2 PUSH2 0x949 SWAP2 SWAP1 PUSH2 0x16F4 JUMP JUMPDEST POP PUSH1 0x20 DUP3 ADD MLOAD DUP2 PUSH1 0x1 ADD SWAP1 DUP2 PUSH2 0x95F SWAP2 SWAP1 PUSH2 0x16F4 JUMP JUMPDEST POP PUSH1 0x40 DUP3 ADD MLOAD DUP2 PUSH1 0x2 ADD SSTORE PUSH1 0x60 DUP3 ADD MLOAD DUP2 PUSH1 0x3 ADD SSTORE SWAP1 POP POP PUSH1 0x1 DUP4 SWAP1 DUP1 PUSH1 0x1 DUP2 SLOAD ADD DUP1 DUP3 SSTORE DUP1 SWAP2 POP POP PUSH1 0x1 SWAP1 SUB SWAP1 PUSH0 MSTORE PUSH1 0x20 PUSH0 KECCAK256 ADD PUSH0 SWAP1 SWAP2 SWAP1 SWAP2 SWAP1 SWAP2 POP SWAP1 DUP2 PUSH2 0x9A8 SWAP2 SWAP1 PUSH2 0x16F4 JUMP JUMPDEST POP DUP3 PUSH1 0x40 MLOAD PUSH2 0x9B7 SWAP2 SWAP1 PUSH2 0x147C JUMP JUMPDEST PUSH1 0x40 MLOAD DUP1 SWAP2 SUB SWAP1 KECCAK256 PUSH32 0x3FA539BEE9FA84E37F78EDA39FA4BCDBD2ED9727B4857312813A8A9C64B81ED4 DUP4 DUP4 PUSH1 0x1 TIMESTAMP PUSH1 0x40 MLOAD PUSH2 0x9F5 SWAP5 SWAP4 SWAP3 SWAP2 SWAP1 PUSH2 0x1A70 JUMP JUMPDEST PUSH1 0x40 MLOAD DUP1 SWAP2 SUB SWAP1 LOG2 POP POP POP JUMP JUMPDEST PUSH0 DUP1 DUP3 PUSH1 0x40 MLOAD PUSH2 0xA12 SWAP2 SWAP1 PUSH2 0x147C JUMP JUMPDEST SWAP1 DUP2 MSTORE PUSH1 0x20 ADD PUSH1 0x40 MLOAD DUP1 SWAP2 SUB SWAP1 KECCAK256 SWAP1 POP PUSH0 DUP2 PUSH1 0x2 ADD SLOAD GT PUSH2 0xA68 JUMPI PUSH1 0x40 MLOAD PUSH32 0x8C379A000000000000000000000000000000000000000000000000000000000 DUP2 MSTORE PUSH1 0x4 ADD PUSH2 0xA5F SWAP1 PUSH2 0x14DC JUMP JUMPDEST PUSH1 0x40 MLOAD DUP1 SWAP2 SUB SWAP1 REVERT JUMPDEST PUSH0 DUP3 PUSH1 0x40 MLOAD PUSH2 0xA77 SWAP2 SWAP1 PUSH2 0x147C JUMP JUMPDEST SWAP1 DUP2 MSTORE PUSH1 0x20 ADD PUSH1 0x40 MLOAD DUP1 SWAP2 SUB SWAP1 KECCAK256 PUSH0 DUP1 DUP3 ADD PUSH0 PUSH2 0xA94 SWAP2 SWAP1 PUSH2 0xDB1 JUMP JUMPDEST PUSH1 0x1 DUP3 ADD PUSH0 PUSH2 0xAA3 SWAP2 SWAP1 PUSH2 0xDB1 JUMP JUMPDEST PUSH1 0x2 DUP3 ADD PUSH0 SWAP1 SSTORE PUSH1 0x3 DUP3 ADD PUSH0 SWAP1 SSTORE POP POP PUSH0 PUSH1 0x1 DUP1 SLOAD SWAP1 POP SWAP1 POP PUSH0 JUMPDEST DUP2 DUP2 LT ISZERO PUSH2 0xBC9 JUMPI DUP4 PUSH1 0x40 MLOAD PUSH1 0x20 ADD PUSH2 0xAD7 SWAP2 SWAP1 PUSH2 0x147C JUMP JUMPDEST PUSH1 0x40 MLOAD PUSH1 0x20 DUP2 DUP4 SUB SUB DUP2 MSTORE SWAP1 PUSH1 0x40 MSTORE DUP1 MLOAD SWAP1 PUSH1 0x20 ADD KECCAK256 PUSH1 0x1 DUP3 DUP2 SLOAD DUP2 LT PUSH2 0xB01 JUMPI PUSH2 0xB00 PUSH2 0x1823 JUMP JUMPDEST JUMPDEST SWAP1 PUSH0 MSTORE PUSH1 0x20 PUSH0 KECCAK256 ADD PUSH1 0x40 MLOAD PUSH1 0x20 ADD PUSH2 0xB19 SWAP2 SWAP1 PUSH2 0x1B41 JUMP JUMPDEST PUSH1 0x40 MLOAD PUSH1 0x20 DUP2 DUP4 SUB SUB DUP2 MSTORE SWAP1 PUSH1 0x40 MSTORE DUP1 MLOAD SWAP1 PUSH1 0x20 ADD KECCAK256 SUB PUSH2 0xBB6 JUMPI PUSH1 0x1 DUP1 DUP4 PUSH2 0xB42 SWAP2 SWAP1 PUSH2 0x1B57 JUMP JUMPDEST DUP2 SLOAD DUP2 LT PUSH2 0xB53 JUMPI PUSH2 0xB52 PUSH2 0x1823 JUMP JUMPDEST JUMPDEST SWAP1 PUSH0 MSTORE PUSH1 0x20 PUSH0 KECCAK256 ADD PUSH1 0x1 DUP3 DUP2 SLOAD DUP2 LT PUSH2 0xB6F JUMPI PUSH2 0xB6E PUSH2 0x1823 JUMP JUMPDEST JUMPDEST SWAP1 PUSH0 MSTORE PUSH1 0x20 PUSH0 KECCAK256 ADD SWAP1 DUP2 PUSH2 0xB83 SWAP2 SWAP1 PUSH2 0x1BB1 JUMP JUMPDEST POP PUSH1 0x1 DUP1 SLOAD DUP1 PUSH2 0xB96 JUMPI PUSH2 0xB95 PUSH2 0x1C96 JUMP JUMPDEST JUMPDEST PUSH1 0x1 SWAP1 SUB DUP2 DUP2 SWAP1 PUSH0 MSTORE PUSH1 0x20 PUSH0 KECCAK256 ADD PUSH0 PUSH2 0xBAF SWAP2 SWAP1 PUSH2 0xDB1 JUMP JUMPDEST SWAP1 SSTORE PUSH2 0xBC9 JUMP JUMPDEST DUP1 DUP1 PUSH2 0xBC1 SWAP1 PUSH2 0x1850 JUMP JUMPDEST SWAP2 POP POP PUSH2 0xABE JUMP JUMPDEST POP DUP3 PUSH1 0x40 MLOAD PUSH2 0xBD8 SWAP2 SWAP1 PUSH2 0x147C JUMP JUMPDEST PUSH1 0x40 MLOAD DUP1 SWAP2 SUB SWAP1 KECCAK256 PUSH32 0x89D0532994016674064C39C0F9AB6740E13CF7AA0C4491DCDBD9FD3F9F5A9E9F PUSH1 0x40 MLOAD PUSH1 0x40 MLOAD DUP1 SWAP2 SUB SWAP1 LOG2 POP POP POP JUMP JUMPDEST PUSH1 0x60 DUP1 PUSH0 DUP1 PUSH0 DUP1 DUP7 PUSH1 0x40 MLOAD PUSH2 0xC26 SWAP2 SWAP1 PUSH2 0x147C JUMP JUMPDEST SWAP1 DUP2 MSTORE PUSH1 0x20 ADD PUSH1 0x40 MLOAD DUP1 SWAP2 SUB SWAP1 KECCAK256 SWAP1 POP PUSH0 DUP2 PUSH1 0x2 ADD SLOAD GT PUSH2 0xC7C JUMPI PUSH1 0x40 MLOAD PUSH32 0x8C379A000000000000000000000000000000000000000000000000000000000 DUP2 MSTORE PUSH1 0x4 ADD PUSH2 0xC73 SWAP1 PUSH2 0x14DC JUMP JUMPDEST PUSH1 0x40 MLOAD DUP1 SWAP2 SUB SWAP1 REVERT JUMPDEST DUP1 PUSH0 ADD DUP2 PUSH1 0x1 ADD DUP3 PUSH1 0x2 ADD SLOAD DUP4 PUSH1 0x3 ADD SLOAD DUP4 DUP1 SLOAD PUSH2 0xC99 SWAP1 PUSH2 0x1527 JUMP JUMPDEST DUP1 PUSH1 0x1F ADD PUSH1 0x20 DUP1 SWAP2 DIV MUL PUSH1 0x20 ADD PUSH1 0x40 MLOAD SWAP1 DUP2 ADD PUSH1 0x40 MSTORE DUP1 SWAP3 SWAP2 SWAP1 DUP2 DUP2 MSTORE PUSH1 0x20 ADD DUP3 DUP1 SLOAD PUSH2 0xCC5 SWAP1 PUSH2 0x1527 JUMP JUMPDEST DUP1 ISZERO PUSH2 0xD10 JUMPI DUP1 PUSH1 0x1F LT PUSH2 0xCE7 JUMPI PUSH2 0x100 DUP1 DUP4 SLOAD DIV MUL DUP4 MSTORE SWAP2 PUSH1 0x20 ADD SWAP2 PUSH2 0xD10 JUMP JUMPDEST DUP3 ADD SWAP2 SWAP1 PUSH0 MSTORE PUSH1 0x20 PUSH0 KECCAK256 SWAP1 JUMPDEST DUP2 SLOAD DUP2 MSTORE SWAP1 PUSH1 0x1 ADD SWAP1 PUSH1 0x20 ADD DUP1 DUP4 GT PUSH2 0xCF3 JUMPI DUP3 SWAP1 SUB PUSH1 0x1F AND DUP3 ADD SWAP2 JUMPDEST POP POP POP POP POP SWAP4 POP DUP3 DUP1 SLOAD PUSH2 0xD23 SWAP1 PUSH2 0x1527 JUMP JUMPDEST DUP1 PUSH1 0x1F ADD PUSH1 0x20 DUP1 SWAP2 DIV MUL PUSH1 0x20 ADD PUSH1 0x40 MLOAD SWAP1 DUP2 ADD PUSH1 0x40 MSTORE DUP1 SWAP3 SWAP2 SWAP1 DUP2 DUP2 MSTORE PUSH1 0x20 ADD DUP3 DUP1 SLOAD PUSH2 0xD4F SWAP1 PUSH2 0x1527 JUMP JUMPDEST DUP1 ISZERO PUSH2 0xD9A JUMPI DUP1 PUSH1 0x1F LT PUSH2 0xD71 JUMPI PUSH2 0x100 DUP1 DUP4 SLOAD DIV MUL DUP4 MSTORE SWAP2 PUSH1 0x20 ADD SWAP2 PUSH2 0xD9A JUMP JUMPDEST DUP3 ADD SWAP2 SWAP1 PUSH0 MSTORE PUSH1 0x20 PUSH0 KECCAK256 SWAP1 JUMPDEST DUP2 SLOAD DUP2 MSTORE SWAP1 PUSH1 0x1 ADD SWAP1 PUSH1 0x20 ADD DUP1 DUP4 GT PUSH2 0xD7D JUMPI DUP3 SWAP1 SUB PUSH1 0x1F AND DUP3 ADD SWAP2 JUMPDEST POP POP POP POP POP SWAP3 POP SWAP5 POP SWAP5 POP SWAP5 POP SWAP5 POP POP SWAP2 SWAP4 POP SWAP2 SWAP4 JUMP JUMPDEST POP DUP1 SLOAD PUSH2 0xDBD SWAP1 PUSH2 0x1527 JUMP JUMPDEST PUSH0 DUP3 SSTORE DUP1 PUSH1 0x1F LT PUSH2 0xDCE JUMPI POP PUSH2 0xDEB JUMP JUMPDEST PUSH1 0x1F ADD PUSH1 0x20 SWAP1 DIV SWAP1 PUSH0 MSTORE PUSH1 0x20 PUSH0 KECCAK256 SWAP1 DUP2 ADD SWAP1 PUSH2 0xDEA SWAP2 SWAP1 PUSH2 0xDEE JUMP JUMPDEST JUMPDEST POP JUMP JUMPDEST JUMPDEST DUP1 DUP3 GT ISZERO PUSH2 0xE05 JUMPI PUSH0 DUP2 PUSH0 SWAP1 SSTORE POP PUSH1 0x1 ADD PUSH2 0xDEF JUMP JUMPDEST POP SWAP1 JUMP JUMPDEST PUSH0 PUSH1 0x40 MLOAD SWAP1 POP SWAP1 JUMP JUMPDEST PUSH0 DUP1 REVERT JUMPDEST PUSH0 DUP1 REVERT JUMPDEST PUSH0 DUP1 REVERT JUMPDEST PUSH0 DUP1 REVERT JUMPDEST PUSH0 PUSH1 0x1F NOT PUSH1 0x1F DUP4 ADD AND SWAP1 POP SWAP2 SWAP1 POP JUMP JUMPDEST PUSH32 0x4E487B7100000000000000000000000000000000000000000000000000000000 PUSH0 MSTORE PUSH1 0x41 PUSH1 0x4 MSTORE PUSH1 0x24 PUSH0 REVERT JUMPDEST PUSH2 0xE68 DUP3 PUSH2 0xE22 JUMP JUMPDEST DUP2 ADD DUP2 DUP2 LT PUSH8 0xFFFFFFFFFFFFFFFF DUP3 GT OR ISZERO PUSH2 0xE87 JUMPI PUSH2 0xE86 PUSH2 0xE32 JUMP JUMPDEST JUMPDEST DUP1 PUSH1 0x40 MSTORE POP POP POP JUMP JUMPDEST PUSH0 PUSH2 0xE99 PUSH2 0xE09 JUMP JUMPDEST SWAP1 POP PUSH2 0xEA5 DUP3 DUP3 PUSH2 0xE5F JUMP JUMPDEST SWAP2 SWAP1 POP JUMP JUMPDEST PUSH0 PUSH8 0xFFFFFFFFFFFFFFFF DUP3 GT ISZERO PUSH2 0xEC4 JUMPI PUSH2 0xEC3 PUSH2 0xE32 JUMP JUMPDEST JUMPDEST PUSH2 0xECD DUP3 PUSH2 0xE22 JUMP JUMPDEST SWAP1 POP PUSH1 0x20 DUP2 ADD SWAP1 POP SWAP2 SWAP1 POP JUMP JUMPDEST DUP3 DUP2 DUP4 CALLDATACOPY PUSH0 DUP4 DUP4 ADD MSTORE POP POP POP JUMP JUMPDEST PUSH0 PUSH2 0xEFA PUSH2 0xEF5 DUP5 PUSH2 0xEAA JUMP JUMPDEST PUSH2 0xE90 JUMP JUMPDEST SWAP1 POP DUP3 DUP2 MSTORE PUSH1 0x20 DUP2 ADD DUP5 DUP5 DUP5 ADD GT ISZERO PUSH2 0xF16 JUMPI PUSH2 0xF15 PUSH2 0xE1E JUMP JUMPDEST JUMPDEST PUSH2 0xF21 DUP5 DUP3 DUP6 PUSH2 0xEDA JUMP JUMPDEST POP SWAP4 SWAP3 POP POP POP JUMP JUMPDEST PUSH0 DUP3 PUSH1 0x1F DUP4 ADD SLT PUSH2 0xF3D JUMPI PUSH2 0xF3C PUSH2 0xE1A JUMP JUMPDEST JUMPDEST DUP2 CALLDATALOAD PUSH2 0xF4D DUP5 DUP3 PUSH1 0x20 DUP7 ADD PUSH2 0xEE8 JUMP JUMPDEST SWAP2 POP POP SWAP3 SWAP2 POP POP JUMP JUMPDEST PUSH0 DUP1 PUSH0 PUSH1 0x60 DUP5 DUP7 SUB SLT ISZERO PUSH2 0xF6D JUMPI PUSH2 0xF6C PUSH2 0xE12 JUMP JUMPDEST JUMPDEST PUSH0 DUP5 ADD CALLDATALOAD PUSH8 0xFFFFFFFFFFFFFFFF DUP2 GT ISZERO PUSH2 0xF8A JUMPI PUSH2 0xF89 PUSH2 0xE16 JUMP JUMPDEST JUMPDEST PUSH2 0xF96 DUP7 DUP3 DUP8 ADD PUSH2 0xF29 JUMP JUMPDEST SWAP4 POP POP PUSH1 0x20 DUP5 ADD CALLDATALOAD PUSH8 0xFFFFFFFFFFFFFFFF DUP2 GT ISZERO PUSH2 0xFB7 JUMPI PUSH2 0xFB6 PUSH2 0xE16 JUMP JUMPDEST JUMPDEST PUSH2 0xFC3 DUP7 DUP3 DUP8 ADD PUSH2 0xF29 JUMP JUMPDEST SWAP3 POP POP PUSH1 0x40 DUP5 ADD CALLDATALOAD PUSH8 0xFFFFFFFFFFFFFFFF DUP2 GT ISZERO PUSH2 0xFE4 JUMPI PUSH2 0xFE3 PUSH2 0xE16 JUMP JUMPDEST JUMPDEST PUSH2 0xFF0 DUP7 DUP3 DUP8 ADD PUSH2 0xF29 JUMP JUMPDEST SWAP2 POP POP SWAP3 POP SWAP3 POP SWAP3 JUMP JUMPDEST PUSH0 DUP2 MLOAD SWAP1 POP SWAP2 SWAP1 POP JUMP JUMPDEST PUSH0 DUP3 DUP3 MSTORE PUSH1 0x20 DUP3 ADD SWAP1 POP SWAP3 SWAP2 POP POP JUMP JUMPDEST PUSH0 DUP2 SWAP1 POP PUSH1 0x20 DUP3 ADD SWAP1 POP SWAP2 SWAP1 POP JUMP JUMPDEST PUSH0 DUP2 MLOAD SWAP1 POP SWAP2 SWAP1 POP JUMP JUMPDEST PUSH0 DUP3 DUP3 MSTORE PUSH1 0x20 DUP3 ADD SWAP1 POP SWAP3 SWAP2 POP POP JUMP JUMPDEST PUSH0 JUMPDEST DUP4 DUP2 LT ISZERO PUSH2 0x105A JUMPI DUP1 DUP3 ADD MLOAD DUP2 DUP5 ADD MSTORE PUSH1 0x20 DUP2 ADD SWAP1 POP PUSH2 0x103F JUMP JUMPDEST PUSH0 DUP5 DUP5 ADD MSTORE POP POP POP POP JUMP JUMPDEST PUSH0 PUSH2 0x106F DUP3 PUSH2 0x1023 JUMP JUMPDEST PUSH2 0x1079 DUP2 DUP6 PUSH2 0x102D JUMP JUMPDEST SWAP4 POP PUSH2 0x1089 DUP2 DUP6 PUSH1 0x20 DUP7 ADD PUSH2 0x103D JUMP JUMPDEST PUSH2 0x1092 DUP2 PUSH2 0xE22 JUMP JUMPDEST DUP5 ADD SWAP2 POP POP SWAP3 SWAP2 POP POP JUMP JUMPDEST PUSH0 PUSH2 0x10A8 DUP4 DUP4 PUSH2 0x1065 JUMP JUMPDEST SWAP1 POP SWAP3 SWAP2 POP POP JUMP JUMPDEST PUSH0 PUSH1 0x20 DUP3 ADD SWAP1 POP SWAP2 SWAP1 POP JUMP JUMPDEST PUSH0 PUSH2 0x10C6 DUP3 PUSH2 0xFFA JUMP JUMPDEST PUSH2 0x10D0 DUP2 DUP6 PUSH2 0x1004 JUMP JUMPDEST SWAP4 POP DUP4 PUSH1 0x20 DUP3 MUL DUP6 ADD PUSH2 0x10E2 DUP6 PUSH2 0x1014 JUMP JUMPDEST DUP1 PUSH0 JUMPDEST DUP6 DUP2 LT ISZERO PUSH2 0x111D JUMPI DUP5 DUP5 SUB DUP10 MSTORE DUP2 MLOAD PUSH2 0x10FE DUP6 DUP3 PUSH2 0x109D JUMP JUMPDEST SWAP5 POP PUSH2 0x1109 DUP4 PUSH2 0x10B0 JUMP JUMPDEST SWAP3 POP PUSH1 0x20 DUP11 ADD SWAP10 POP POP PUSH1 0x1 DUP2 ADD SWAP1 POP PUSH2 0x10E5 JUMP JUMPDEST POP DUP3 SWAP8 POP DUP8 SWAP6 POP POP POP POP POP POP SWAP3 SWAP2 POP POP JUMP JUMPDEST PUSH0 DUP2 MLOAD SWAP1 POP SWAP2 SWAP1 POP JUMP JUMPDEST PUSH0 DUP3 DUP3 MSTORE PUSH1 0x20 DUP3 ADD SWAP1 POP SWAP3 SWAP2 POP POP JUMP JUMPDEST PUSH0 DUP2 SWAP1 POP PUSH1 0x20 DUP3 ADD SWAP1 POP SWAP2 SWAP1 POP JUMP JUMPDEST PUSH0 DUP2 SWAP1 POP SWAP2 SWAP1 POP JUMP JUMPDEST PUSH2 0x116A DUP2 PUSH2 0x1158 JUMP JUMPDEST DUP3 MSTORE POP POP JUMP JUMPDEST PUSH0 PUSH2 0x117B DUP4 DUP4 PUSH2 0x1161 JUMP JUMPDEST PUSH1 0x20 DUP4 ADD SWAP1 POP SWAP3 SWAP2 POP POP JUMP JUMPDEST PUSH0 PUSH1 0x20 DUP3 ADD SWAP1 POP SWAP2 SWAP1 POP JUMP JUMPDEST PUSH0 PUSH2 0x119D DUP3 PUSH2 0x112F JUMP JUMPDEST PUSH2 0x11A7 DUP2 DUP6 PUSH2 0x1139 JUMP JUMPDEST SWAP4 POP PUSH2 0x11B2 DUP4 PUSH2 0x1149 JUMP JUMPDEST DUP1 PUSH0 JUMPDEST DUP4 DUP2 LT ISZERO PUSH2 0x11E2 JUMPI DUP2 MLOAD PUSH2 0x11C9 DUP9 DUP3 PUSH2 0x1170 JUMP JUMPDEST SWAP8 POP PUSH2 0x11D4 DUP4 PUSH2 0x1187 JUMP JUMPDEST SWAP3 POP POP PUSH1 0x1 DUP2 ADD SWAP1 POP PUSH2 0x11B5 JUMP JUMPDEST POP DUP6 SWAP4 POP POP POP POP SWAP3 SWAP2 POP POP JUMP JUMPDEST PUSH0 PUSH1 0xA0 DUP3 ADD SWAP1 POP DUP2 DUP2 SUB PUSH0 DUP4 ADD MSTORE PUSH2 0x1207 DUP2 DUP9 PUSH2 0x10BC JUMP JUMPDEST SWAP1 POP DUP2 DUP2 SUB PUSH1 0x20 DUP4 ADD MSTORE PUSH2 0x121B DUP2 DUP8 PUSH2 0x10BC JUMP JUMPDEST SWAP1 POP DUP2 DUP2 SUB PUSH1 0x40 DUP4 ADD MSTORE PUSH2 0x122F DUP2 DUP7 PUSH2 0x10BC JUMP JUMPDEST SWAP1 POP DUP2 DUP2 SUB PUSH1 0x60 DUP4 ADD MSTORE PUSH2 0x1243 DUP2 DUP6 PUSH2 0x1193 JUMP JUMPDEST SWAP1 POP DUP2 DUP2 SUB PUSH1 0x80 DUP4 ADD MSTORE PUSH2 0x1257 DUP2 DUP5 PUSH2 0x1193 JUMP JUMPDEST SWAP1 POP SWAP7 SWAP6 POP POP POP POP POP POP JUMP JUMPDEST PUSH0 PUSH1 0x20 DUP3 ADD SWAP1 POP DUP2 DUP2 SUB PUSH0 DUP4 ADD MSTORE PUSH2 0x127B DUP2 DUP5 PUSH2 0x10BC JUMP JUMPDEST SWAP1 POP SWAP3 SWAP2 POP POP JUMP JUMPDEST PUSH0 PUSH1 0x20 DUP3 DUP5 SUB SLT ISZERO PUSH2 0x1298 JUMPI PUSH2 0x1297 PUSH2 0xE12 JUMP JUMPDEST JUMPDEST PUSH0 DUP3 ADD CALLDATALOAD PUSH8 0xFFFFFFFFFFFFFFFF DUP2 GT ISZERO PUSH2 0x12B5 JUMPI PUSH2 0x12B4 PUSH2 0xE16 JUMP JUMPDEST JUMPDEST PUSH2 0x12C1 DUP5 DUP3 DUP6 ADD PUSH2 0xF29 JUMP JUMPDEST SWAP2 POP POP SWAP3 SWAP2 POP POP JUMP JUMPDEST PUSH0 DUP3 DUP3 MSTORE PUSH1 0x20 DUP3 ADD SWAP1 POP SWAP3 SWAP2 POP POP JUMP JUMPDEST PUSH0 PUSH2 0x12E4 DUP3 PUSH2 0x1023 JUMP JUMPDEST PUSH2 0x12EE DUP2 DUP6 PUSH2 0x12CA JUMP JUMPDEST SWAP4 POP PUSH2 0x12FE DUP2 DUP6 PUSH1 0x20 DUP7 ADD PUSH2 0x103D JUMP JUMPDEST PUSH2 0x1307 DUP2 PUSH2 0xE22 JUMP JUMPDEST DUP5 ADD SWAP2 POP POP SWAP3 SWAP2 POP POP JUMP JUMPDEST PUSH2 0x131B DUP2 PUSH2 0x1158 JUMP JUMPDEST DUP3 MSTORE POP POP JUMP JUMPDEST PUSH0 PUSH1 0x80 DUP3 ADD SWAP1 POP DUP2 DUP2 SUB PUSH0 DUP4 ADD MSTORE PUSH2 0x1339 DUP2 DUP8 PUSH2 0x12DA JUMP JUMPDEST SWAP1 POP DUP2 DUP2 SUB PUSH1 0x20 DUP4 ADD MSTORE PUSH2 0x134D DUP2 DUP7 PUSH2 0x12DA JUMP JUMPDEST SWAP1 POP PUSH2 0x135C PUSH1 0x40 DUP4 ADD DUP6 PUSH2 0x1312 JUMP JUMPDEST PUSH2 0x1369 PUSH1 0x60 DUP4 ADD DUP5 PUSH2 0x1312 JUMP JUMPDEST SWAP6 SWAP5 POP POP POP POP POP JUMP JUMPDEST PUSH32 0x4E657720436F6E6E6563742055524C2072657175697265640000000000000000 PUSH0 DUP3 ADD MSTORE POP JUMP JUMPDEST PUSH0 PUSH2 0x13A6 PUSH1 0x18 DUP4 PUSH2 0x12CA JUMP JUMPDEST SWAP2 POP PUSH2 0x13B1 DUP3 PUSH2 0x1372 JUMP JUMPDEST PUSH1 0x20 DUP3 ADD SWAP1 POP SWAP2 SWAP1 POP JUMP JUMPDEST PUSH0 PUSH1 0x20 DUP3 ADD SWAP1 POP DUP2 DUP2 SUB PUSH0 DUP4 ADD MSTORE PUSH2 0x13D3 DUP2 PUSH2 0x139A JUMP JUMPDEST SWAP1 POP SWAP2 SWAP1 POP JUMP JUMPDEST PUSH32 0x4E6577205075626C6963206B6579207265717569726564000000000000000000 PUSH0 DUP3 ADD MSTORE POP JUMP JUMPDEST PUSH0 PUSH2 0x140E PUSH1 0x17 DUP4 PUSH2 0x12CA JUMP JUMPDEST SWAP2 POP PUSH2 0x1419 DUP3 PUSH2 0x13DA JUMP JUMPDEST PUSH1 0x20 DUP3 ADD SWAP1 POP SWAP2 SWAP1 POP JUMP JUMPDEST PUSH0 PUSH1 0x20 DUP3 ADD SWAP1 POP DUP2 DUP2 SUB PUSH0 DUP4 ADD MSTORE PUSH2 0x143B DUP2 PUSH2 0x1402 JUMP JUMPDEST SWAP1 POP SWAP2 SWAP1 POP JUMP JUMPDEST PUSH0 DUP2 SWAP1 POP SWAP3 SWAP2 POP POP JUMP JUMPDEST PUSH0 PUSH2 0x1456 DUP3 PUSH2 0x1023 JUMP JUMPDEST PUSH2 0x1460 DUP2 DUP6 PUSH2 0x1442 JUMP JUMPDEST SWAP4 POP PUSH2 0x1470 DUP2 DUP6 PUSH1 0x20 DUP7 ADD PUSH2 0x103D JUMP JUMPDEST DUP1 DUP5 ADD SWAP2 POP POP SWAP3 SWAP2 POP POP JUMP JUMPDEST PUSH0 PUSH2 0x1487 DUP3 DUP5 PUSH2 0x144C JUMP JUMPDEST SWAP2 POP DUP2 SWAP1 POP SWAP3 SWAP2 POP POP JUMP JUMPDEST PUSH32 0x456E636C617665206E6F7420666F756E64000000000000000000000000000000 PUSH0 DUP3 ADD MSTORE POP JUMP JUMPDEST PUSH0 PUSH2 0x14C6 PUSH1 0x11 DUP4 PUSH2 0x12CA JUMP JUMPDEST SWAP2 POP PUSH2 0x14D1 DUP3 PUSH2 0x1492 JUMP JUMPDEST PUSH1 0x20 DUP3 ADD SWAP1 POP SWAP2 SWAP1 POP JUMP JUMPDEST PUSH0 PUSH1 0x20 DUP3 ADD SWAP1 POP DUP2 DUP2 SUB PUSH0 DUP4 ADD MSTORE PUSH2 0x14F3 DUP2 PUSH2 0x14BA JUMP JUMPDEST SWAP1 POP SWAP2 SWAP1 POP JUMP JUMPDEST PUSH32 0x4E487B7100000000000000000000000000000000000000000000000000000000 PUSH0 MSTORE PUSH1 0x22 PUSH1 0x4 MSTORE PUSH1 0x24 PUSH0 REVERT JUMPDEST PUSH0 PUSH1 0x2 DUP3 DIV SWAP1 POP PUSH1 0x1 DUP3 AND DUP1 PUSH2 0x153E JUMPI PUSH1 0x7F DUP3 AND SWAP2 POP JUMPDEST PUSH1 0x20 DUP3 LT DUP2 SUB PUSH2 0x1551 JUMPI PUSH2 0x1550 PUSH2 0x14FA JUMP JUMPDEST JUMPDEST POP SWAP2 SWAP1 POP JUMP JUMPDEST PUSH0 DUP2 SWAP1 POP DUP2 PUSH0 MSTORE PUSH1 0x20 PUSH0 KECCAK256 SWAP1 POP SWAP2 SWAP1 POP JUMP JUMPDEST PUSH0 PUSH1 0x20 PUSH1 0x1F DUP4 ADD DIV SWAP1 POP SWAP2 SWAP1 POP JUMP JUMPDEST PUSH0 DUP3 DUP3 SHL SWAP1 POP SWAP3 SWAP2 POP POP JUMP JUMPDEST PUSH0 PUSH1 0x8 DUP4 MUL PUSH2 0x15B3 PUSH32 0xFFFFFFFFFFFFFFFFFFFFFFFFFFFFFFFFFFFFFFFFFFFFFFFFFFFFFFFFFFFFFFFF DUP3 PUSH2 0x1578 JUMP JUMPDEST PUSH2 0x15BD DUP7 DUP4 PUSH2 0x1578 JUMP JUMPDEST SWAP6 POP DUP1 NOT DUP5 AND SWAP4 POP DUP1 DUP7 AND DUP5 OR SWAP3 POP POP POP SWAP4 SWAP3 POP POP POP JUMP JUMPDEST PUSH0 DUP2 SWAP1 POP SWAP2 SWAP1 POP JUMP JUMPDEST PUSH0 PUSH2 0x15F8 PUSH2 0x15F3 PUSH2 0x15EE DUP5 PUSH2 0x1158 JUMP JUMPDEST PUSH2 0x15D5 JUMP JUMPDEST PUSH2 0x1158 JUMP JUMPDEST SWAP1 POP SWAP2 SWAP1 POP JUMP JUMPDEST PUSH0 DUP2 SWAP1 POP SWAP2 SWAP1 POP JUMP JUMPDEST PUSH2 0x1611 DUP4 PUSH2 0x15DE JUMP JUMPDEST PUSH2 0x1625 PUSH2 0x161D DUP3 PUSH2 0x15FF JUMP JUMPDEST DUP5 DUP5 SLOAD PUSH2 0x1584 JUMP JUMPDEST DUP3 SSTORE POP POP POP POP JUMP JUMPDEST PUSH0 SWAP1 JUMP JUMPDEST PUSH2 0x1639 PUSH2 0x162D JUMP JUMPDEST PUSH2 0x1644 DUP2 DUP5 DUP5 PUSH2 0x1608 JUMP JUMPDEST POP POP POP JUMP JUMPDEST JUMPDEST DUP2 DUP2 LT ISZERO PUSH2 0x1667 JUMPI PUSH2 0x165C PUSH0 DUP3 PUSH2 0x1631 JUMP JUMPDEST PUSH1 0x1 DUP2 ADD SWAP1 POP PUSH2 0x164A JUMP JUMPDEST POP POP JUMP JUMPDEST PUSH1 0x1F DUP3 GT ISZERO PUSH2 0x16AC JUMPI PUSH2 0x167D DUP2 PUSH2 0x1557 JUMP JUMPDEST PUSH2 0x1686 DUP5 PUSH2 0x1569 JUMP JUMPDEST DUP2 ADD PUSH1 0x20 DUP6 LT ISZERO PUSH2 0x1695 JUMPI DUP2 SWAP1 POP JUMPDEST PUSH2 0x16A9 PUSH2 0x16A1 DUP6 PUSH2 0x1569 JUMP JUMPDEST DUP4 ADD DUP3 PUSH2 0x1649 JUMP JUMPDEST POP POP JUMPDEST POP POP POP JUMP JUMPDEST PUSH0 DUP3 DUP3 SHR SWAP1 POP SWAP3 SWAP2 POP POP JUMP JUMPDEST PUSH0 PUSH2 0x16CC PUSH0 NOT DUP5 PUSH1 0x8 MUL PUSH2 0x16B1 JUMP JUMPDEST NOT DUP1 DUP4 AND SWAP2 POP POP SWAP3 SWAP2 POP POP JUMP JUMPDEST PUSH0 PUSH2 0x16E4 DUP4 DUP4 PUSH2 0x16BD JUMP JUMPDEST SWAP2 POP DUP3 PUSH1 0x2 MUL DUP3 OR SWAP1 POP SWAP3 SWAP2 POP POP JUMP JUMPDEST PUSH2 0x16FD DUP3 PUSH2 0x1023 JUMP JUMPDEST PUSH8 0xFFFFFFFFFFFFFFFF DUP2 GT ISZERO PUSH2 0x1716 JUMPI PUSH2 0x1715 PUSH2 0xE32 JUMP JUMPDEST JUMPDEST PUSH2 0x1720 DUP3 SLOAD PUSH2 0x1527 JUMP JUMPDEST PUSH2 0x172B DUP3 DUP3 DUP6 PUSH2 0x166B JUMP JUMPDEST PUSH0 PUSH1 0x20 SWAP1 POP PUSH1 0x1F DUP4 GT PUSH1 0x1 DUP2 EQ PUSH2 0x175C JUMPI PUSH0 DUP5 ISZERO PUSH2 0x174A JUMPI DUP3 DUP8 ADD MLOAD SWAP1 POP JUMPDEST PUSH2 0x1754 DUP6 DUP3 PUSH2 0x16D9 JUMP JUMPDEST DUP7 SSTORE POP PUSH2 0x17BB JUMP JUMPDEST PUSH1 0x1F NOT DUP5 AND PUSH2 0x176A DUP7 PUSH2 0x1557 JUMP JUMPDEST PUSH0 JUMPDEST DUP3 DUP2 LT ISZERO PUSH2 0x1791 JUMPI DUP5 DUP10 ADD MLOAD DUP3 SSTORE PUSH1 0x1 DUP3 ADD SWAP2 POP PUSH1 0x20 DUP6 ADD SWAP5 POP PUSH1 0x20 DUP2 ADD SWAP1 POP PUSH2 0x176C JUMP JUMPDEST DUP7 DUP4 LT ISZERO PUSH2 0x17AE JUMPI DUP5 DUP10 ADD MLOAD PUSH2 0x17AA PUSH1 0x1F DUP10 AND DUP3 PUSH2 0x16BD JUMP JUMPDEST DUP4 SSTORE POP JUMPDEST PUSH1 0x1 PUSH1 0x2 DUP9 MUL ADD DUP9 SSTORE POP POP POP JUMPDEST POP POP POP POP POP POP JUMP JUMPDEST PUSH32 0x4E487B7100000000000000000000000000000000000000000000000000000000 PUSH0 MSTORE PUSH1 0x11 PUSH1 0x4 MSTORE PUSH1 0x24 PUSH0 REVERT JUMPDEST PUSH0 PUSH2 0x17FA DUP3 PUSH2 0x1158 JUMP JUMPDEST SWAP2 POP PUSH2 0x1805 DUP4 PUSH2 0x1158 JUMP JUMPDEST SWAP3 POP DUP3 DUP3 ADD SWAP1 POP DUP1 DUP3 GT ISZERO PUSH2 0x181D JUMPI PUSH2 0x181C PUSH2 0x17C3 JUMP JUMPDEST JUMPDEST SWAP3 SWAP2 POP POP JUMP JUMPDEST PUSH32 0x4E487B7100000000000000000000000000000000000000000000000000000000 PUSH0 MSTORE PUSH1 0x32 PUSH1 0x4 MSTORE PUSH1 0x24 PUSH0 REVERT JUMPDEST PUSH0 PUSH2 0x185A DUP3 PUSH2 0x1158 JUMP JUMPDEST SWAP2 POP PUSH32 0xFFFFFFFFFFFFFFFFFFFFFFFFFFFFFFFFFFFFFFFFFFFFFFFFFFFFFFFFFFFFFFFF DUP3 SUB PUSH2 0x188C JUMPI PUSH2 0x188B PUSH2 0x17C3 JUMP JUMPDEST JUMPDEST PUSH1 0x1 DUP3 ADD SWAP1 POP SWAP2 SWAP1 POP JUMP JUMPDEST PUSH32 0x456E636C61766520494420726571756972656400000000000000000000000000 PUSH0 DUP3 ADD MSTORE POP JUMP JUMPDEST PUSH0 PUSH2 0x18CB PUSH1 0x13 DUP4 PUSH2 0x12CA JUMP JUMPDEST SWAP2 POP PUSH2 0x18D6 DUP3 PUSH2 0x1897 JUMP JUMPDEST PUSH1 0x20 DUP3 ADD SWAP1 POP SWAP2 SWAP1 POP JUMP JUMPDEST PUSH0 PUSH1 0x20 DUP3 ADD SWAP1 POP DUP2 DUP2 SUB PUSH0 DUP4 ADD MSTORE PUSH2 0x18F8 DUP2 PUSH2 0x18BF JUMP JUMPDEST SWAP1 POP SWAP2 SWAP1 POP JUMP JUMPDEST PUSH32 0x436F6E6E6563742055524C207265717569726564000000000000000000000000 PUSH0 DUP3 ADD MSTORE POP JUMP JUMPDEST PUSH0 PUSH2 0x1933 PUSH1 0x14 DUP4 PUSH2 0x12CA JUMP JUMPDEST SWAP2 POP PUSH2 0x193E DUP3 PUSH2 0x18FF JUMP JUMPDEST PUSH1 0x20 DUP3 ADD SWAP1 POP SWAP2 SWAP1 POP JUMP JUMPDEST PUSH0 PUSH1 0x20 DUP3 ADD SWAP1 POP DUP2 DUP2 SUB PUSH0 DUP4 ADD MSTORE PUSH2 0x1960 DUP2 PUSH2 0x1927 JUMP JUMPDEST SWAP1 POP SWAP2 SWAP1 POP JUMP JUMPDEST PUSH32 0x5075626C6963206B657920726571756972656400000000000000000000000000 PUSH0 DUP3 ADD MSTORE POP JUMP JUMPDEST PUSH0 PUSH2 0x199B PUSH1 0x13 DUP4 PUSH2 0x12CA JUMP JUMPDEST SWAP2 POP PUSH2 0x19A6 DUP3 PUSH2 0x1967 JUMP JUMPDEST PUSH1 0x20 DUP3 ADD SWAP1 POP SWAP2 SWAP1 POP JUMP JUMPDEST PUSH0 PUSH1 0x20 DUP3 ADD SWAP1 POP DUP2 DUP2 SUB PUSH0 DUP4 ADD MSTORE PUSH2 0x19C8 DUP2 PUSH2 0x198F JUMP JUMPDEST SWAP1 POP SWAP2 SWAP1 POP JUMP JUMPDEST PUSH32 0x456E636C61766520616C72656164792065786973747300000000000000000000 PUSH0 DUP3 ADD MSTORE POP JUMP JUMPDEST PUSH0 PUSH2 0x1A03 PUSH1 0x16 DUP4 PUSH2 0x12CA JUMP JUMPDEST SWAP2 POP PUSH2 0x1A0E DUP3 PUSH2 0x19CF JUMP JUMPDEST PUSH1 0x20 DUP3 ADD SWAP1 POP SWAP2 SWAP1 POP JUMP JUMPDEST PUSH0 PUSH1 0x20 DUP3 ADD SWAP1 POP DUP2 DUP2 SUB PUSH0 DUP4 ADD MSTORE PUSH2 0x1A30 DUP2 PUSH2 0x19F7 JUMP JUMPDEST SWAP1 POP SWAP2 SWAP1 POP JUMP JUMPDEST PUSH0 DUP2 SWAP1 POP SWAP2 SWAP1 POP JUMP JUMPDEST PUSH0 PUSH2 0x1A5A PUSH2 0x1A55 PUSH2 0x1A50 DUP5 PUSH2 0x1A37 JUMP JUMPDEST PUSH2 0x15D5 JUMP JUMPDEST PUSH2 0x1158 JUMP JUMPDEST SWAP1 POP SWAP2 SWAP1 POP JUMP JUMPDEST PUSH2 0x1A6A DUP2 PUSH2 0x1A40 JUMP JUMPDEST DUP3 MSTORE POP POP JUMP JUMPDEST PUSH0 PUSH1 0x80 DUP3 ADD SWAP1 POP DUP2 DUP2 SUB PUSH0 DUP4 ADD MSTORE PUSH2 0x1A88 DUP2 DUP8 PUSH2 0x12DA JUMP JUMPDEST SWAP1 POP DUP2 DUP2 SUB PUSH1 0x20 DUP4 ADD MSTORE PUSH2 0x1A9C DUP2 DUP7 PUSH2 0x12DA JUMP JUMPDEST SWAP1 POP PUSH2 0x1AAB PUSH1 0x40 DUP4 ADD DUP6 PUSH2 0x1A61 JUMP JUMPDEST PUSH2 0x1AB8 PUSH1 0x60 DUP4 ADD DUP5 PUSH2 0x1312 JUMP JUMPDEST SWAP6 SWAP5 POP POP POP POP POP JUMP JUMPDEST PUSH0 DUP2 SLOAD PUSH2 0x1ACD DUP2 PUSH2 0x1527 JUMP JUMPDEST PUSH2 0x1AD7 DUP2 DUP7 PUSH2 0x1442 JUMP JUMPDEST SWAP5 POP PUSH1 0x1 DUP3 AND PUSH0 DUP2 EQ PUSH2 0x1AF1 JUMPI PUSH1 0x1 DUP2 EQ PUSH2 0x1B06 JUMPI PUSH2 0x1B38 JUMP JUMPDEST PUSH1 0xFF NOT DUP4 AND DUP7 MSTORE DUP2 ISZERO ISZERO DUP3 MUL DUP7 ADD SWAP4 POP PUSH2 0x1B38 JUMP JUMPDEST PUSH2 0x1B0F DUP6 PUSH2 0x1557 JUMP JUMPDEST PUSH0 JUMPDEST DUP4 DUP2 LT ISZERO PUSH2 0x1B30 JUMPI DUP2 SLOAD DUP2 DUP10 ADD MSTORE PUSH1 0x1 DUP3 ADD SWAP2 POP PUSH1 0x20 DUP2 ADD SWAP1 POP PUSH2 0x1B11 JUMP JUMPDEST DUP4 DUP9 ADD SWAP6 POP POP POP JUMPDEST POP POP POP SWAP3 SWAP2 POP POP JUMP JUMPDEST PUSH0 PUSH2 0x1B4C DUP3 DUP5 PUSH2 0x1AC1 JUMP JUMPDEST SWAP2 POP DUP2 SWAP1 POP SWAP3 SWAP2 POP POP JUMP JUMPDEST PUSH0 PUSH2 0x1B61 DUP3 PUSH2 0x1158 JUMP JUMPDEST SWAP2 POP PUSH2 0x1B6C DUP4 PUSH2 0x1158 JUMP JUMPDEST SWAP3 POP DUP3 DUP3 SUB SWAP1 POP DUP2 DUP2 GT ISZERO PUSH2 0x1B84 JUMPI PUSH2 0x1B83 PUSH2 0x17C3 JUMP JUMPDEST JUMPDEST SWAP3 SWAP2 POP POP JUMP JUMPDEST PUSH0 DUP2 SLOAD SWAP1 POP PUSH2 0x1B98 DUP2 PUSH2 0x1527 JUMP JUMPDEST SWAP1 POP SWAP2 SWAP1 POP JUMP JUMPDEST PUSH0 DUP2 SWAP1 POP DUP2 PUSH0 MSTORE PUSH1 0x20 PUSH0 KECCAK256 SWAP1 POP SWAP2 SWAP1 POP JUMP JUMPDEST DUP2 DUP2 SUB PUSH2 0x1BBF JUMPI POP POP PUSH2 0x1C94 JUMP JUMPDEST PUSH2 0x1BC8 DUP3 PUSH2 0x1B8A JUMP JUMPDEST PUSH8 0xFFFFFFFFFFFFFFFF DUP2 GT ISZERO PUSH2 0x1BE1 JUMPI PUSH2 0x1BE0 PUSH2 0xE32 JUMP JUMPDEST JUMPDEST PUSH2 0x1BEB DUP3 SLOAD PUSH2 0x1527 JUMP JUMPDEST PUSH2 0x1BF6 DUP3 DUP3 DUP6 PUSH2 0x166B JUMP JUMPDEST PUSH0 PUSH1 0x1F DUP4 GT PUSH1 0x1 DUP2 EQ PUSH2 0x1C23 JUMPI PUSH0 DUP5 ISZERO PUSH2 0x1C11 JUMPI DUP3 DUP8 ADD SLOAD SWAP1 POP JUMPDEST PUSH2 0x1C1B DUP6 DUP3 PUSH2 0x16D9 JUMP JUMPDEST DUP7 SSTORE POP PUSH2 0x1C8D JUMP JUMPDEST PUSH1 0x1F NOT DUP5 AND PUSH2 0x1C31 DUP8 PUSH2 0x1B9F JUMP JUMPDEST SWAP7 POP PUSH2 0x1C3C DUP7 PUSH2 0x1557 JUMP JUMPDEST PUSH0 JUMPDEST DUP3 DUP2 LT ISZERO PUSH2 0x1C63 JUMPI DUP5 DUP10 ADD SLOAD DUP3 SSTORE PUSH1 0x1 DUP3 ADD SWAP2 POP PUSH1 0x1 DUP6 ADD SWAP5 POP PUSH1 0x20 DUP2 ADD SWAP1 POP PUSH2 0x1C3E JUMP JUMPDEST DUP7 DUP4 LT ISZERO PUSH2 0x1C80 JUMPI DUP5 DUP10 ADD SLOAD PUSH2 0x1C7C PUSH1 0x1F DUP10 AND DUP3 PUSH2 0x16BD JUMP JUMPDEST DUP4 SSTORE POP JUMPDEST PUSH1 0x1 PUSH1 0x2 DUP9 MUL ADD DUP9 SSTORE POP POP POP JUMPDEST POP POP POP POP POP POP JUMPDEST JUMP JUMPDEST PUSH32 0x4E487B7100000000000000000000000000000000000000000000000000000000 PUSH0 MSTORE PUSH1 0x31 PUSH1 0x4 MSTORE PUSH1 0x24 PUSH0 REVERT INVALID LOG2 PUSH5 0x6970667358 0x22 SLT KECCAK256 0xE5 ADDMOD 0xF8 GASLIMIT 0xE6 0x2C PUSH3 0x33B6BD EXP 0xEC BASEFEE 0xD6 STATICCALL 0xAB 0x23 PUSH31 0x7A94D480ADB60C2F45C0533A6F1F64736F6C63430008140033000000000000 "
				},
				"gasEstimates": {
					"creation": {
						"codeDepositCost": "1483400",
						"executionCost": "1546",
						"totalCost": "1484946"
					},
					"external": {
						"deleteEnclave(string)": "infinite",
						"getAllEnclaves()": "infinite",
						"getEnclave(string)": "infinite",
						"listEnclaveIds()": "infinite",
						"registerEnclave(string,string,string)": "infinite",
						"updateEnclave(string,string,string)": "infinite"
					}
				},
				"methodIdentifiers": {
					"deleteEnclave(string)": "deba5eb8",
					"getAllEnclaves()": "702d06d1",
					"getEnclave(string)": "e39ae54b",
					"listEnclaveIds()": "a23c1cf5",
					"registerEnclave(string,string,string)": "d9ac8ad2",
					"updateEnclave(string,string,string)": "6b934917"
				}
			},
			"storageLayout": {
				"storage": [
					{
						"astId": 15,
						"contract": "contracts/enclavecontract.sol:EnclaveRegistry",
						"label": "enclaves",
						"offset": 0,
						"slot": "0",
						"type": "t_mapping(t_string_memory_ptr,t_struct(Enclave)10_storage)"
					},
					{
						"astId": 18,
						"contract": "contracts/enclavecontract.sol:EnclaveRegistry",
						"label": "enclaveIds",
						"offset": 0,
						"slot": "1",
						"type": "t_array(t_string_storage)dyn_storage"
					}
				],
				"types": {
					"t_array(t_string_storage)dyn_storage": {
						"base": "t_string_storage",
						"encoding": "dynamic_array",
						"label": "string[]",
						"numberOfBytes": "32"
					},
					"t_mapping(t_string_memory_ptr,t_struct(Enclave)10_storage)": {
						"encoding": "mapping",
						"key": "t_string_memory_ptr",
						"label": "mapping(string => struct EnclaveRegistry.Enclave)",
						"numberOfBytes": "32",
						"value": "t_struct(Enclave)10_storage"
					},
					"t_string_memory_ptr": {
						"encoding": "bytes",
						"label": "string",
						"numberOfBytes": "32"
					},
					"t_string_storage": {
						"encoding": "bytes",
						"label": "string",
						"numberOfBytes": "32"
					},
					"t_struct(Enclave)10_storage": {
						"encoding": "inplace",
						"label": "struct EnclaveRegistry.Enclave",
						"members": [
							{
								"astId": 3,
								"contract": "contracts/enclavecontract.sol:EnclaveRegistry",
								"label": "connectURL",
								"offset": 0,
								"slot": "0",
								"type": "t_string_storage"
							},
							{
								"astId": 5,
								"contract": "contracts/enclavecontract.sol:EnclaveRegistry",
								"label": "pubkey",
								"offset": 0,
								"slot": "1",
								"type": "t_string_storage"
							},
							{
								"astId": 7,
								"contract": "contracts/enclavecontract.sol:EnclaveRegistry",
								"label": "version",
								"offset": 0,
								"slot": "2",
								"type": "t_uint256"
							},
							{
								"astId": 9,
								"contract": "contracts/enclavecontract.sol:EnclaveRegistry",
								"label": "updatedAt",
								"offset": 0,
								"slot": "3",
								"type": "t_uint256"
							}
						],
						"numberOfBytes": "128"
					},
					"t_uint256": {
						"encoding": "inplace",
						"label": "uint256",
						"numberOfBytes": "32"
					}
				}
			},
			"userdoc": {
				"kind": "user",
				"methods": {
					"getAllEnclaves()": {
						"notice": "✅ New function: get all enclaves in one call (for frontend)"
					}
				},
				"version": 1
			}
		}
	}
}