{
	"data": {
		"bytecode": {
			"linkReferences": {},
			"object": "608060405234801561001057600080fd5b50610726806100206000396000f3fe608060405234801561001057600080fd5b50600436106100365760003560e01c80638d3a622d1461003b5780638ebb4c1514610057575b600080fd5b610055600480360381019061005091906102c5565b610087565b005b610071600480360381019061006c9190610344565b6100bf565b60405161007e91906103f0565b60405180910390f35b6000819080600181540180825580915050600190039060005260206000200160009091909190915090816100bb919061061e565b5050565b600081815481106100cf57600080fd5b9060005260206000200160009150905080546100ea90610441565b80601f016020809104026020016040519081016040528092919081815260200182805461011690610441565b80156101635780601f1061013857610100808354040283529160200191610163565b820191906000526020600020905b81548152906001019060200180831161014657829003601f168201915b505050505081565b6000604051905090565b600080fd5b600080fd5b600080fd5b600080fd5b6000601f19601f8301169050919050565b7f4e487b7100000000000000000000000000000000000000000000000000000000600052604160045260246000fd5b6101d282610189565b810181811067ffffffffffffffff821117156101f1576101f061019a565b5b80604052505050565b600061020461016b565b905061021082826101c9565b919050565b600067ffffffffffffffff8211156102305761022f61019a565b5b61023982610189565b9050602081019050919050565b82818337600083830152505050565b600061026861026384610215565b6101fa565b90508281526020810184848401111561028457610283610184565b5b61028f848285610246565b509392505050565b600082601f8301126102ac576102ab61017f565b5b81356102bc848260208601610255565b91505092915050565b6000602082840312156102db576102da610175565b5b600082013567ffffffffffffffff8111156102f9576102f861017a565b5b61030584828501610297565b91505092915050565b6000819050919050565b6103218161030e565b811461032c57600080fd5b50565b60008135905061033e81610318565b92915050565b60006020828403121561035a57610359610175565b5b60006103688482850161032f565b91505092915050565b600081519050919050565b600082825260208201905092915050565b60005b838110156103ab578082015181840152602081019050610390565b60008484015250505050565b60006103c282610371565b6103cc818561037c565b93506103dc81856020860161038d565b6103e581610189565b840191505092915050565b6000602082019050818103600083015261040a81846103b7565b905092915050565b7f4e487b7100000000000000000000000000000000000000000000000000000000600052602260045260246000fd5b6000600282049050600182168061045957607f821691505b60208210810361046c5761046b610412565b5b50919050565b60008190508160005260206000209050919050565b60006020601f8301049050919050565b600082821b905092915050565b6000600883026104d47fffffffffffffffffffffffffffffffffffffffffffffffffffffffffffffffff82610497565b6104de8683610497565b95508019841693508086168417925050509392505050565b6000819050919050565b600061051b6105166105118461030e565b6104f6565b61030e565b9050919050565b6000819050919050565b61053583610500565b61054961054182610522565b8484546104a4565b825550505050565b600090565b61055e610551565b61056981848461052c565b505050565b5b8181101561058d57610582600082610556565b60018101905061056f565b5050565b601f8211156105d2576105a381610472565b6105ac84610487565b810160208510156105bb578190505b6105cf6105c785610487565b83018261056e565b50505b505050565b600082821c905092915050565b60006105f5600019846008026105d7565b1980831691505092915050565b600061060e83836105e4565b9150826002028217905092915050565b61062782610371565b67ffffffffffffffff8111156106405761063f61019a565b5b61064a8254610441565b610655828285610591565b600060209050601f8311600181146106885760008415610676578287015190505b6106808582610602565b8655506106e8565b601f19841661069686610472565b60005b828110156106be57848901518255600182019150602085019450602081019050610699565b868310156106db57848901516106d7601f8916826105e4565b8355505b6001600288020188555050505b50505050505056fea2646970667358221220a767a741f5cb9903563f1274ac57f0c676df3b398ac15b641cc3b791bc9fe70764736f6c63430008180033",
			"opcodes": "PUSH1 0x80 PUSH1 0x40 MSTORE CALLVALUE DUP1 ISZERO PUSH2 0x10 JUMPI PUSH1 0x0 DUP1 REVERT JUMPDEST POP PUSH2 0x726 DUP1 PUSH2 0x20 PUSH1 0x0 CODECOPY PUSH1 0x0 RETURN INVALID PUSH1 0x80 PUSH1 0x40 MSTORE CALLVALUE DUP1 ISZERO PUSH2 0x10 JUMPI PUSH1 0x0 DUP1 REVERT JUMPDEST POP PUSH1 0x4 CALLDATASIZE LT PUSH2 0x36 JUMPI PUSH1 0x0 CALLDATALOAD PUSH1 0xE0 SHR DUP1 PUSH4 0x8D3A622D EQ PUSH2 0x3B JUMPI DUP1 PUSH4 0x8EBB4C15 EQ PUSH2 0x57 JUMPI JUMPDEST PUSH1 0x0 DUP1 REVERT JUMPDEST PUSH2 0x55 PUSH1 0x4 DUP1 CALLDATASIZE SUB DUP2 ADD SWAP1 PUSH2 0x50 SWAP2 SWAP1 PUSH2 0x2C5 JUMP JUMPDEST PUSH2 0x87 JUMP JUMPDEST STOP JUMPDEST PUSH2 0x71 PUSH1 0x4 DUP1 CALLDATASIZE SUB DUP2 ADD SWAP1 PUSH2 0x6C SWAP2 SWAP1 PUSH2 0x344 JUMP JUMPDEST PUSH2 0xBF JUMP JUMPDEST PUSH1 0x40 MLOAD PUSH2 0x7E SWAP2 SWAP1 PUSH2 0x3F0 JUMP JUMPDEST PUSH1 0x40 MLOAD DUP1 SWAP2 SUB SWAP1 RETURN JUMPDEST PUSH1 0x0 DUP2 SWAP1 DUP1 PUSH1 0x1 DUP2 SLOAD ADD DUP1 DUP3 SSTORE DUP1 SWAP2 POP POP PUSH1 0x1 SWAP1 SUB SWAP1 PUSH1 0x0 MSTORE PUSH1 0x20 PUSH1 0x0 KECCAK256 ADD PUSH1 0x0 SWAP1 SWAP2 SWAP1 SWAP2 SWAP1 SWAP2 POP SWAP1 DUP2 PUSH2 0xBB SWAP2 SWAP1 PUSH2 0x61E JUMP JUMPDEST POP POP JUMP JUMPDEST PUSH1 0x0 DUP2 DUP2 SLOAD DUP2 LT PUSH2 0xCF JUMPI PUSH1 0x0 DUP1 REVERT JUMPDEST SWAP1 PUSH1 0x0 MSTORE PUSH1 0x20 PUSH1 0x0 KECCAK256 ADD PUSH1 0x0 SWAP2 POP SWAP1 POP DUP1 SLOAD PUSH2 0xEA SWAP1 PUSH2 0x441 JUMP JUMPDEST DUP1 PUSH1 0x1F ADD PUSH1 0x20 DUP1 SWAP2 DIV MUL PUSH1 0x20 ADD PUSH1 0x40 MLOAD SWAP1 DUP2 ADD PUSH1 0x40 MSTORE DUP1 SWAP3 SWAP2 SWAP1 DUP2 DUP2 MSTORE PUSH1 0x20 ADD DUP3 DUP1 SLOAD PUSH2 0x116 SWAP1 PUSH2 0x441 JUMP JUMPDEST DUP1 ISZERO PUSH2 0x163 JUMPI DUP1 PUSH1 0x1F LT PUSH2 0x138 JUMPI PUSH2 0x100 DUP1 DUP4 SLOAD DIV MUL DUP4 MSTORE SWAP2 PUSH1 0x20 ADD SWAP2 PUSH2 0x163 JUMP JUMPDEST DUP3 ADD SWAP2 SWAP1 PUSH1 0x0 MSTORE PUSH1 0x20 PUSH1 0x0 KECCAK256 SWAP1 JUMPDEST DUP2 SLOAD DUP2 MSTORE SWAP1 PUSH1 0x1 ADD SWAP1 PUSH1 0x20 ADD DUP1 DUP4 GT PUSH2 0x146 JUMPI DUP3 SWAP1 SUB PUSH1 0x1F AND DUP3 ADD SWAP2 JUMPDEST POP POP POP POP POP DUP2 JUMP JUMPDEST PUSH1 0x0 PUSH1 0x40 MLOAD SWAP1 POP SWAP1 JUMP JUMPDEST PUSH1 0x0 DUP1 REVERT JUMPDEST PUSH1 0x0 DUP1 REVERT JUMPDEST PUSH1 0x0 DUP1 REVERT JUMPDEST PUSH1 0x0 DUP1 REVERT JUMPDEST PUSH1 0x0 PUSH1 0x1F NOT PUSH1 0x1F DUP4 ADD AND SWAP1 POP SWAP2 SWAP1 POP JUMP JUMPDEST PUSH32 0x4E487B7100000000000000000000000000000000000000000000000000000000 PUSH1 0x0 MSTORE PUSH1 0x41 PUSH1 0x4 MSTORE PUSH1 0x24 PUSH1 0x0 REVERT JUMPDEST PUSH2 0x1D2 DUP3 PUSH2 0x189 JUMP JUMPDEST DUP2 ADD DUP2 DUP2 LT PUSH8 0xFFFFFFFFFFFFFFFF DUP3 GT OR ISZERO PUSH2 0x1F1 JUMPI PUSH2 0x1F0 PUSH2 0x19A JUMP JUMPDEST JUMPDEST DUP1 PUSH1 0x40 MSTORE POP POP POP JUMP JUMPDEST PUSH1 0x0 PUSH2 0x204 PUSH2 0x16B JUMP JUMPDEST SWAP1 POP PUSH2 0x210 DUP3 DUP3 PUSH2 0x1C9 JUMP JUMPDEST SWAP2 SWAP1 POP JUMP JUMPDEST PUSH1 0x0 PUSH8 0xFFFFFFFFFFFFFFFF DUP3 GT ISZERO PUSH2 0x230 JUMPI PUSH2 0x22F PUSH2 0x19A JUMP JUMPDEST JUMPDEST PUSH2 0x239 DUP3 PUSH2 0x189 JUMP JUMPDEST SWAP1 POP PUSH1 0x20 DUP2 ADD SWAP1 POP SWAP2 SWAP1 POP JUMP JUMPDEST DUP3 DUP2 DUP4 CALLDATACOPY PUSH1 0x0 DUP4 DUP4 ADD MSTORE POP POP POP JUMP JUMPDEST PUSH1 0x0 PUSH2 0x268 PUSH2 0x263 DUP5 PUSH2 0x215 JUMP JUMPDEST PUSH2 0x1FA JUMP JUMPDEST SWAP1 POP DUP3 DUP2 MSTORE PUSH1 0x20 DUP2 ADD DUP5 DUP5 DUP5 ADD GT ISZERO PUSH2 0x284 JUMPI PUSH2 0x283 PUSH2 0x184 JUMP JUMPDEST JUMPDEST PUSH2 0x28F DUP5 DUP3 DUP6 PUSH2 0x246 JUMP JUMPDEST POP SWAP4 SWAP3 POP POP POP JUMP JUMPDEST PUSH1 0x0 DUP3 PUSH1 0x1F DUP4 ADD SLT PUSH2 0x2AC JUMPI PUSH2 0x2AB PUSH2 0x17F JUMP JUMPDEST JUMPDEST DUP2 CALLDATALOAD PUSH2 0x2BC DUP5 DUP3 PUSH1 0x20 DUP7 ADD PUSH2 0x255 JUMP JUMPDEST SWAP2 POP POP SWAP3 SWAP2 POP POP JUMP JUMPDEST PUSH1 0x0 PUSH1 0x20 DUP3 DUP5 SUB SLT ISZERO PUSH2 0x2DB JUMPI PUSH2 0x2DA PUSH2 0x175 JUMP JUMPDEST JUMPDEST PUSH1 0x0 DUP3 ADD CALLDATALOAD PUSH8 0xFFFFFFFFFFFFFFFF DUP2 GT ISZERO PUSH2 0x2F9 JUMPI PUSH2 0x2F8 PUSH2 0x17A JUMP JUMPDEST JUMPDEST PUSH2 0x305 DUP5 DUP3 DUP6 ADD PUSH2 0x297 JUMP JUMPDEST SWAP2 POP POP SWAP3 SWAP2 POP POP JUMP JUMPDEST PUSH1 0x0 DUP2 SWAP1 POP SWAP2 SWAP1 POP JUMP JUMPDEST PUSH2 0x321 DUP2 PUSH2 0x30E JUMP JUMPDEST DUP2 EQ PUSH2 0x32C JUMPI PUSH1 0x0 DUP1 REVERT JUMPDEST POP JUMP JUMPDEST PUSH1 0x0 DUP2 CALLDATALOAD SWAP1 POP PUSH2 0x33E DUP2 PUSH2 0x318 JUMP JUMPDEST SWAP3 SWAP2 POP POP JUMP JUMPDEST PUSH1 0x0 PUSH1 0x20 DUP3 DUP5 SUB SLT ISZERO PUSH2 0x35A JUMPI PUSH2 0x359 PUSH2 0x175 JUMP JUMPDEST JUMPDEST PUSH1 0x0 PUSH2 0x368 DUP5 DUP3 DUP6 ADD PUSH2 0x32F JUMP JUMPDEST SWAP2 POP POP SWAP3 SWAP2 POP POP JUMP JUMPDEST PUSH1 0x0 DUP2 MLOAD SWAP1 POP SWAP2 SWAP1 POP JUMP JUMPDEST PUSH1 0x0 DUP3 DUP3 MSTORE PUSH1 0x20 DUP3 ADD SWAP1 POP SWAP3 SWAP2 POP POP JUMP JUMPDEST PUSH1 0x0 JUMPDEST DUP4 DUP2 LT ISZERO PUSH2 0x3AB JUMPI DUP1 DUP3 ADD MLOAD DUP2 DUP5 ADD MSTORE PUSH1 0x20 DUP2 ADD SWAP1 POP PUSH2 0x390 JUMP JUMPDEST PUSH1 0x0 DUP5 DUP5 ADD MSTORE POP POP POP POP JUMP JUMPDEST PUSH1 0x0 PUSH2 0x3C2 DUP3 PUSH2 0x371 JUMP JUMPDEST PUSH2 0x3CC DUP2 DUP6 PUSH2 0x37C JUMP JUMPDEST SWAP4 POP PUSH2 0x3DC DUP2 DUP6 PUSH1 0x20 DUP7 ADD PUSH2 0x38D JUMP JUMPDEST PUSH2 0x3E5 DUP2 PUSH2 0x189 JUMP JUMPDEST DUP5 ADD SWAP2 POP POP SWAP3 SWAP2 POP POP JUMP JUMPDEST PUSH1 0x0 PUSH1 0x20 DUP3 ADD SWAP1 POP DUP2 DUP2 SUB PUSH1 0x0 DUP4 ADD MSTORE PUSH2 0x40A DUP2 DUP5 PUSH2 0x3B7 JUMP JUMPDEST SWAP1 POP SWAP3 SWAP2 POP POP JUMP JUMPDEST PUSH32 0x4E487B7100000000000000000000000000000000000000000000000000000000 PUSH1 0x0 MSTORE PUSH1 0x22 PUSH1 0x4 MSTORE PUSH1 0x24 PUSH1 0x0 REVERT JUMPDEST PUSH1 0x0 PUSH1 0x2 DUP3 DIV SWAP1 POP PUSH1 0x1 DUP3 AND DUP1 PUSH2 0x459 JUMPI PUSH1 0x7F DUP3 AND SWAP2 POP JUMPDEST PUSH1 0x20 DUP3 LT DUP2 SUB PUSH2 0x46C JUMPI PUSH2 0x46B PUSH2 0x412 JUMP JUMPDEST JUMPDEST POP SWAP2 SWAP1 POP JUMP JUMPDEST PUSH1 0x0 DUP2 SWAP1 POP DUP2 PUSH1 0x0 MSTORE PUSH1 0x20 PUSH1 0x0 KECCAK256 SWAP1 POP SWAP2 SWAP1 POP JUMP JUMPDEST PUSH1 0x0 PUSH1 0x20 PUSH1 0x1F DUP4 ADD DIV SWAP1 POP SWAP2 SWAP1 POP JUMP JUMPDEST PUSH1 0x0 DUP3 DUP3 SHL SWAP1 POP SWAP3 SWAP2 POP POP JUMP JUMPDEST PUSH1 0x0 PUSH1 0x8 DUP4 MUL PUSH2 0x4D4 PUSH32 0xFFFFFFFFFFFFFFFFFFFFFFFFFFFFFFFFFFFFFFFFFFFFFFFFFFFFFFFFFFFFFFFF DUP3 PUSH2 0x497 JUMP JUMPDEST PUSH2 0x4DE DUP7 DUP4 PUSH2 0x497 JUMP JUMPDEST SWAP6 POP DUP1 NOT DUP5 AND SWAP4 POP DUP1 DUP7 AND DUP5 OR SWAP3 POP POP POP SWAP4 SWAP3 POP POP POP JUMP JUMPDEST PUSH1 0x0 DUP2 SWAP1 POP SWAP2 SWAP1 POP JUMP JUMPDEST PUSH1 0x0 PUSH2 0x51B PUSH2 0x516 PUSH2 0x511 DUP5 PUSH2 0x30E JUMP JUMPDEST PUSH2 0x4F6 JUMP JUMPDEST PUSH2 0x30E JUMP JUMPDEST SWAP1 POP SWAP2 SWAP1 POP JUMP JUMPDEST PUSH1 0x0 DUP2 SWAP1 POP SWAP2 SWAP1 POP JUMP JUMPDEST PUSH2 0x535 DUP4 PUSH2 0x500 JUMP JUMPDEST PUSH2 0x549 PUSH2 0x541 DUP3 PUSH2 0x522 JUMP JUMPDEST DUP5 DUP5 SLOAD PUSH2 0x4A4 JUMP JUMPDEST DUP3 SSTORE POP POP POP POP JUMP JUMPDEST PUSH1 0x0 SWAP1 JUMP JUMPDEST PUSH2 0x55E PUSH2 0x551 JUMP JUMPDEST PUSH2 0x569 DUP2 DUP5 DUP5 PUSH2 0x52C JUMP JUMPDEST POP POP POP JUMP JUMPDEST JUMPDEST DUP2 DUP2 LT ISZERO PUSH2 0x58D JUMPI PUSH2 0x582 PUSH1 0x0 DUP3 PUSH2 0x556 JUMP JUMPDEST PUSH1 0x1 DUP2 ADD SWAP1 POP PUSH2 0x56F JUMP JUMPDEST POP POP JUMP JUMPDEST PUSH1 0x1F DUP3 GT ISZERO PUSH2 0x5D2 JUMPI PUSH2 0x5A3 DUP2 PUSH2 0x472 JUMP JUMPDEST PUSH2 0x5AC DUP5 PUSH2 0x487 JUMP JUMPDEST DUP2 ADD PUSH1 0x20 DUP6 LT ISZERO PUSH2 0x5BB JUMPI DUP2 SWAP1 POP JUMPDEST PUSH2 0x5CF PUSH2 0x5C7 DUP6 PUSH2 0x487 JUMP JUMPDEST DUP4 ADD DUP3 PUSH2 0x56E JUMP JUMPDEST POP POP JUMPDEST POP POP POP JUMP JUMPDEST PUSH1 0x0 DUP3 DUP3 SHR SWAP1 POP SWAP3 SWAP2 POP POP JUMP JUMPDEST PUSH1 0x0 PUSH2 0x5F5 PUSH1 0x0 NOT DUP5 PUSH1 0x8 MUL PUSH2 0x5D7 JUMP JUMPDEST NOT DUP1 DUP4 AND SWAP2 POP POP SWAP3 SWAP2 POP POP JUMP JUMPDEST PUSH1 0x0 PUSH2 0x60E DUP4 DUP4 PUSH2 0x5E4 JUMP JUMPDEST SWAP2 POP DUP3 PUSH1 0x2 MUL DUP3 OR SWAP1 POP SWAP3 SWAP2 POP POP JUMP JUMPDEST PUSH2 0x627 DUP3 PUSH2 0x371 JUMP JUMPDEST PUSH8 0xFFFFFFFFFFFFFFFF DUP2 GT ISZERO PUSH2 0x640 JUMPI PUSH2 0x63F PUSH2 0x19A JUMP JUMPDEST JUMPDEST PUSH2 0x64A DUP3 SLOAD PUSH2 0x441 JUMP JUMPDEST PUSH2 0x655 DUP3 DUP3 DUP6 PUSH2 0x591 JUMP JUMPDEST PUSH1 0x0 PUSH1 0x20 SWAP1 POP PUSH1 0x1F DUP4 GT PUSH1 0x1 DUP2 EQ PUSH2 0x688 JUMPI PUSH1 0x0 DUP5 ISZERO PUSH2 0x676 JUMPI DUP3 DUP8 ADD MLOAD SWAP1 POP JUMPDEST PUSH2 0x680 DUP6 DUP3 PUSH2 0x602 JUMP JUMPDEST DUP7 SSTORE POP PUSH2 0x6E8 JUMP JUMPDEST PUSH1 0x1F NOT DUP5 AND PUSH2 0x696 DUP7 PUSH2 0x472 JUMP JUMPDEST PUSH1 0x0 JUMPDEST DUP3 DUP2 LT ISZERO PUSH2 0x6BE JUMPI DUP5 DUP10 ADD MLOAD DUP3 SSTORE PUSH1 0x1 DUP3 ADD SWAP2 POP PUSH1 0x20 DUP6 ADD SWAP5 POP PUSH1 0x20 DUP2 ADD SWAP1 POP PUSH2 0x699 JUMP JUMPDEST DUP7 DUP4 LT ISZERO PUSH2 0x6DB JUMPI DUP5 DUP10 ADD MLOAD PUSH2 0x6D7 PUSH1 0x1F DUP10 AND DUP3 PUSH2 0x5E4 JUMP JUMPDEST DUP4 SSTORE POP JUMPDEST PUSH1 0x1 PUSH1 0x2 DUP9 MUL ADD DUP9 SSTORE POP POP POP JUMPDEST POP POP POP POP POP POP JUMP INVALID LOG2 PUSH5 0x6970667358 0x22 SLT KECCAK256 0xA7 PUSH8 0xA741F5CB9903563F SLT PUSH21 0xAC57F0C676DF3B398AC15B641CC3B791BC9FE70764 PUSH20 0x6F6C634300081800330000000000000000000000 "
		},
		"gasEstimates": {
			"creation": {
				"codeDepositCost": "366000",
				"executionCost": "405",
				"totalCost": "366405"
			},
			"external": {
				"comment(string)": "infinite",
				"comments(uint256)": "infinite"
			}
		},
		"methodIdentifiers": {
			"comment(string)": "8d3a622d",
			"comments(uint256)": "8ebb4c15"
		}
	},
	"abi": [
		{
			"inputs": [
				{
					"internalType": "string",
					"name": "commentText",
					"type": "string"
				}
			],
			"name": "comment",
			"outputs": [],
			"stateMutability": "nonpayable",
			"type": "function"
		},
		{
			"inputs": [
				{
					"internalType": "uint256",
					"name": "",
					"type": "uint256"
				}
			],
			"name": "comments",
			"outputs": [
				{
					"internalType": "string",
					"name": "",
					"type": "string"
				}
			],
			"stateMutability": "view",
			"type": "function"
		}
	]
}