{
	"data": {
		"bytecode": {
			"linkReferences": {},
			"object": "608060405234801561001057600080fd5b5061446d806100206000396000f3fe6080604052600436106100345760003560e01c8063031855011461003957806310498e9c1461005557806390468c4114610071575b600080fd5b610053600480360381019061004e9190612b26565b6100ae565b005b61006f600480360381019061006a9190612c0d565b610136565b005b34801561007d57600080fd5b5061009860048036038101906100939190612c56565b610224565b6040516100a59190612d31565b60405180910390f35b806000808201518160000160006101000a81548173ffffffffffffffffffffffffffffffffffffffff021916908373ffffffffffffffffffffffffffffffffffffffff1602179055506020820151816001015560408201518160020160006101000a81548167ffffffffffffffff021916908367ffffffffffffffff16021790555090505050565b6000808280602001905181019061014d9190612e01565b915091506000808373ffffffffffffffffffffffffffffffffffffffff16348460405161017a9190612e99565b60006040518083038185875af1925050503d80600081146101b7576040519150601f19603f3d011682016040523d82523d6000602084013e6101bc565b606091505b5091509150816101ce57805160208201fd5b6001600060020160008282829054906101000a900467ffffffffffffffff166101f79190612edf565b92506101000a81548167ffffffffffffffff021916908367ffffffffffffffff1602179055505050505050565b60606000838360405160200161023b929190612f2a565b60405160208183030381529060405290506103746000800160009054906101000a900473ffffffffffffffffffffffffffffffffffffffff166000600101546040518060e00160405280600060020160009054906101000a900467ffffffffffffffff1667ffffffffffffffff16815260200164174876e80081526020016203d09067ffffffffffffffff1681526020013073ffffffffffffffffffffffffffffffffffffffff168152602001600081526020016103663073ffffffffffffffffffffffffffffffffffffffff166310498e9c8860405160240161031f9190612d31565b604051602081830303815290604052915060e01b6020820180517bffffffffffffffffffffffffffffffffffffffffffffffffffffffff838183161783525050505061037d565b815260200146815250610422565b91505092915050565b6060600082510361039f5760405180602001604052806000815250905061041d565b6000806103ba60405180602001604052806000815250610488565b809250819350505060006103de600f60405180602001604052806000815250610676565b6103e790612fb8565b90506103f16128cc565b60006103fb610765565b80935081925050506104158786868685876000015161084c565b955050505050505b919050565b606060006104318386866108c2565b9050602360028460c001516104469190613029565b601b8360400151610457919061306b565b610461919061309f565b61046b919061309f565b81604001818152505061047e838261093d565b9150509392505050565b6000806000610498602085610676565b905060f8801b816000815181106104b2576104b16130d3565b5b6020010181815160f81c60f81b169150907effffffffffffffffffffffffffffffffffffffffffffffffffffffffffffff1916908160001a905350607f60f81b81601f81518110610506576105056130d3565b5b6020010181815160f81c60f81b169150907effffffffffffffffffffffffffffffffffffffffffffffffffffffffffffff1916908160001a905350604060f81b81601f8151811061055a576105596130d3565b5b6020010181815160f81c60f81b179150907effffffffffffffffffffffffffffffffffffffffffffffffffffffffffffff1916908160001a90535060008073010000000000000000000000000000000000000873ffffffffffffffffffffffffffffffffffffffff16836040516105d19190612e99565b600060405180830381855afa9150503d806000811461060c576040519150601f19603f3d011682016040523d82523d6000602084013e610611565b606091505b509150915081610656576040517f08c379a000000000000000000000000000000000000000000000000000000000815260040161064d9061315f565b60405180910390fd5b8061066090613194565b8361066a90613194565b94509450505050915091565b606060008073010000000000000000000000000000000000000173ffffffffffffffffffffffffffffffffffffffff1685856040516020016106b992919061320a565b6040516020818303038152906040526040516106d59190612e99565b600060405180830381855afa9150503d8060008114610710576040519150601f19603f3d011682016040523d82523d6000602084013e610715565b606091505b50915091508161075a576040517f08c379a000000000000000000000000000000000000000000000000000000000815260040161075190613286565b60405180910390fd5b809250505092915050565b600061076f6128cc565b6000806107e66040518060400160405280601681526020017f636f72652e43616c6c446174615075626c69634b6579000000000000000000008152506040518060400160405280600181526020017ff600000000000000000000000000000000000000000000000000000000000000815250610b4a565b9150915060008267ffffffffffffffff161461083957816040517f56401e8e00000000000000000000000000000000000000000000000000000000815260040161083091906132b5565b60405180910390fd5b61084281610c4c565b9350935050509091565b6060600087510361086e576040518060200160405280600081525090506108b8565b600061087c88878786610d51565b90508661088882610dc2565b61089186610eb3565b876040516020016108a594939291906137a3565b6040516020818303038152906040529150505b9695505050505050565b6108ca612900565b60006108fa8560405180606001604052806000801b81526020016000801b81526020018860c0015181525061093d565b905060008160405160200161090f9190612e99565b604051602081830303815290604052805190602001209050610932858583611031565b925050509392505050565b60606000600967ffffffffffffffff81111561095c5761095b612973565b5b60405190808252806020026020018201604052801561098f57816020015b606081526020019060019003908161097a5790505b5090506109a9846000015167ffffffffffffffff166110b5565b816000815181106109bd576109bc6130d3565b5b60200260200101819052506109d584602001516110b5565b816001815181106109e9576109e86130d3565b5b6020026020010181905250610a0b846040015167ffffffffffffffff166110b5565b81600281518110610a1f57610a1e6130d3565b5b6020026020010181905250610a3784606001516110cf565b81600381518110610a4b57610a4a6130d3565b5b6020026020010181905250610a6384608001516110b5565b81600481518110610a7757610a766130d3565b5b6020026020010181905250610a8f8460a00151611100565b81600581518110610aa357610aa26130d3565b5b6020026020010181905250610abb83604001516110b5565b81600681518110610acf57610ace6130d3565b5b6020026020010181905250610aea836000015160001c6110b5565b81600781518110610afe57610afd6130d3565b5b6020026020010181905250610b19836020015160001c6110b5565b81600881518110610b2d57610b2c6130d3565b5b6020026020010181905250610b418161117e565b91505092915050565b6000606060008073010000000000000000000000000000000000010373ffffffffffffffffffffffffffffffffffffffff168686604051602001610b8f9291906138e8565b604051602081830303815290604052604051610bab9190612e99565b600060405180830381855afa9150503d8060008114610be6576040519150601f19603f3d011682016040523d82523d6000602084013e610beb565b606091505b509150915081610c27576040517f902e94f800000000000000000000000000000000000000000000000000000000815260040160405180910390fd5b80806020019051810190610c3b9190613934565b809450819550505050509250929050565b6000610c566128cc565b600080610c648560006111c2565b915091505b6000821115610d4a576000600183610c81919061306b565b9250610c8d8683611259565b80925081935050507f7c2518396795a0874a8bceac66f007e54d69c9cdbf3e1e796439ab70bacaff188103610cd357610cc68683611335565b8096508193505050610d44565b7fc7b28019ccfdbd30ffc65951d94bb85c9e2b8434111a000b5afd533ce65f57a48103610d1157610d0486836115ec565b8095508193505050610d43565b6040517fc75cd84000000000000000000000000000000000000000000000000000000000815260040160405180910390fd5b5b50610c69565b5050915091565b60606000610d5e86610dc2565b604051602001610d6e91906139dc565b6040516020818303038152906040529050610db7610d8c8487611971565b8570ffffffffffffffffffffffffffffffffff19168360405180602001604052806000815250611985565b915050949350505050565b60606017825111610e035781516040610ddb919061309f565b82604051602001610ded929190613a57565b6040516020818303038152906040529050610eae565b60ff825111610e39576058825183604051602001610e2393929190613a7f565b6040516020818303038152906040529050610eae565b61ffff825111610e70576059825183604051602001610e5a93929190613afc565b6040516020818303038152906040529050610eae565b81516040517f9740752b000000000000000000000000000000000000000000000000000000008152600401610ea59190613b35565b60405180910390fd5b919050565b60606018821015610ee55781604051602001610ecf9190613b50565b604051602081830303815290604052905061102c565b60ff80168211610f1957601882604051602001610f03929190613b6b565b604051602081830303815290604052905061102c565b61ffff80168211610f4e57601982604051602001610f38929190613b97565b604051602081830303815290604052905061102c565b63ffffffff80168211610f8557601a82604051602001610f6f929190613c09565b604051602081830303815290604052905061102c565b67ffffffffffffffff80168211610fc057601b82604051602001610faa929190613c6b565b604051602081830303815290604052905061102c565b6fffffffffffffffffffffffffffffffff8016821161100357605082604051602001610fed929190613ce9565b604051602081830303815290604052905061102c565b605860208360405160200161101a93929190613d36565b60405160208183030381529060405290505b919050565b611039612900565b60006110956004856040516020016110519190613d8a565b604051602081830303815290604052856040516020016110719190613d8a565b60405160208183030381529060405260405180602001604052806000815250611a7a565b90506110a081611b6f565b91506110ad8584846120ad565b509392505050565b60606110c86110c383612215565b611100565b9050919050565b60606110f9826040516020016110e59190613ded565b604051602081830303815290604052611100565b9050919050565b606080600183511480156111385750608083600081518110611125576111246130d3565b5b602001015160f81c60f81b60f81c60ff16105b1561114557829050611175565b6111518351608061238c565b83604051602001611163929190613e08565b60405160208183030381529060405290505b80915050919050565b6060600061118b836125d8565b9050611199815160c061238c565b816040516020016111ab929190613e08565b604051602081830303815290604052915050919050565b60008060008484815181106111da576111d96130d3565b5b602001015160f81c60f81b60f81c60ff16905060a08110806111fc575060b781115b15611233576040517ff3b0ca7000000000000000000000000000000000000000000000000000000000815260040160405180910390fd5b60a081611240919061306b565b925060018461124f919061309f565b9150509250929050565b600080606060f81b606060f81b858581518110611279576112786130d3565b5b602001015160f81c60f81b167effffffffffffffffffffffffffffffffffffffffffffffffffffffffffffff1916146112de576040517fc75cd84000000000000000000000000000000000000000000000000000000000815260040160405180910390fd5b600060608585806112ee90613e2c565b965081518110611301576113006130d3565b5b602001015160f81c60f81b60f81c189050808486602001012091508060ff168461132b919061309f565b9250509250929050565b600080600084848151811061134d5761134c6130d3565b5b602001015160f81c60f81b60f81c9050600060178260ff161161138957600185611377919061309f565b828060ff1690509350935050506115e5565b60588260ff16036113d957858561139f90613e2c565b955085815181106113b3576113b26130d3565b5b602001015160f81c60f81b60f81c60ff16905084806113d190613e2c565b955050611510565b604080831660ff16036114205760408686806113f490613e2c565b975081518110611407576114066130d3565b5b602001015160f81c60f81b60f81c1860ff16905061150f565b601080831660ff16036114d15760188260ff160361144157600190506114bd565b60198260ff160361145557600290506114bc565b601a8260ff160361146957600490506114bb565b601b8260ff160361147d57600890506114ba565b816040517f65e2dc5e0000000000000000000000000000000000000000000000000000000081526004016114b19190613e83565b60405180910390fd5b5b5b5b6001856114ca919061309f565b945061150e565b816040517ff98df29d0000000000000000000000000000000000000000000000000000000081526004016115059190613e83565b60405180910390fd5b5b5b602081111561155657806040517ff28b0fc300000000000000000000000000000000000000000000000000000000815260040161154d9190613b35565b60405180910390fd5b85518186611564919061309f565b11156115ac57855185826040517ff5e1d2320000000000000000000000000000000000000000000000000000000081526004016115a393929190613e9e565b60405180910390fd5b8486602001015192506008816115c29190613029565b6101006115cf919061306b565b83901c925080856115e0919061309f565b935050505b9250929050565b60006115f66128cc565b600061160285856111c2565b80945081925050505b600081111561196957600181611621919061306b565b9050600061162f8685611259565b80925081955050507f07855b46a623a8ecabac76ed697aa4e13631e3b6718c8a0d342860c13c30d2fc810361168557600061166a8786611335565b80925081965050508060001b84600001818152505050611963565b7fb902dd46ff1895e2e3efbe277c6b8857ffc82d78a1f8a424cb69a98d1d793a7881036116d35760006116b88786611335565b80925081965050508060001b84602001818152505050611962565b7fc9ce34da33857c4f6ca41e6eea2e497e0e5427cdd674ab6882abf0d8379b3aba8103611716576117048685611335565b84606001818152508195505050611961565b7f838f7b521e7905679d639e84410a3a3d07b9b568b2fc0922c31b364ee245be8d810361192e57605860f81b86858061174e90613e2c565b965081518110611761576117606130d3565b5b602001015160f81c60f81b7effffffffffffffffffffffffffffffffffffffffffffffffffffffffffffff1916146117fc57856001856117a1919061306b565b815181106117b2576117b16130d3565b5b602001015160f81c60f81b60f81c6040517ff98df29d0000000000000000000000000000000000000000000000000000000081526004016117f39190613e83565b60405180910390fd5b604060f81b86858061180d90613e2c565b9650815181106118205761181f6130d3565b5b602001015160f81c60f81b7effffffffffffffffffffffffffffffffffffffffffffffffffffffffffffff1916146118bb5785600185611860919061306b565b81518110611871576118706130d3565b5b602001015160f81c60f81b60f81c6040517f65e2dc5e0000000000000000000000000000000000000000000000000000000081526004016118b29190613e83565b60405180910390fd5b60006020850187015190508060001b84604001516000600281106118e2576118e16130d3565b5b6020020181815250506040850187015190508060001b84604001516001600281106119105761190f6130d3565b5b602002018181525050604085611926919061309f565b945050611960565b6040517fc75cd84000000000000000000000000000000000000000000000000000000000815260040160405180910390fd5b5b5b5b5061160b565b509250929050565b600061197d838361275e565b905092915050565b606060008073010000000000000000000000000000000000000373ffffffffffffffffffffffffffffffffffffffff16878787876040516020016119cc9493929190613ee4565b6040516020818303038152906040526040516119e89190612e99565b600060405180830381855afa9150503d8060008114611a23576040519150601f19603f3d011682016040523d82523d6000602084013e611a28565b606091505b509150915081611a6d576040517f08c379a0000000000000000000000000000000000000000000000000000000008152600401611a6490613f83565b60405180910390fd5b8092505050949350505050565b606060008073010000000000000000000000000000000000000673ffffffffffffffffffffffffffffffffffffffff1687878787604051602001611ac1949392919061401a565b604051602081830303815290604052604051611add9190612e99565b600060405180830381855afa9150503d8060008114611b18576040519150601f19603f3d011682016040523d82523d6000602084013e611b1d565b606091505b509150915081611b62576040517f08c379a0000000000000000000000000000000000000000000000000000000008152600401611b59906140c0565b60405180910390fd5b8092505050949350505050565b611b77612900565b600882511015611bb3576040517f86cd05c500000000000000000000000000000000000000000000000000000000815260040160405180910390fd5b603060f81b82600081518110611bcc57611bcb6130d3565b5b602001015160f81c60f81b7effffffffffffffffffffffffffffffffffffffffffffffffffffffffffffff191614611c30576040517f86cd05c500000000000000000000000000000000000000000000000000000000815260040160405180910390fd5b600260f81b82600281518110611c4957611c486130d3565b5b602001015160f81c60f81b7effffffffffffffffffffffffffffffffffffffffffffffffffffffffffffff191614611cad576040517f86cd05c500000000000000000000000000000000000000000000000000000000815260040160405180910390fd5b600082600181518110611cc357611cc26130d3565b5b602001015160f81c60f81b60f81c60ff169050600083600381518110611cec57611ceb6130d3565b5b602001015160f81c60f81b60f81c60ff1690506021811115611d3a576040517f86cd05c500000000000000000000000000000000000000000000000000000000815260040160405180910390fd5b6000816004611d49919061309f565b9050600085600183611d5b919061309f565b81518110611d6c57611d6b6130d3565b5b602001015160f81c60f81b60f81c60ff1690506021811115611dba576040517f86cd05c500000000000000000000000000000000000000000000000000000000815260040160405180910390fd5b600260f81b868381518110611dd257611dd16130d3565b5b602001015160f81c60f81b7effffffffffffffffffffffffffffffffffffffffffffffffffffffffffffff191614611e36576040517f86cd05c500000000000000000000000000000000000000000000000000000000815260040160405180910390fd5b8360048285611e45919061309f565b611e4f919061309f565b14611e86576040517f86cd05c500000000000000000000000000000000000000000000000000000000815260040160405180910390fd5b600284611e93919061309f565b865114611ecc576040517f86cd05c500000000000000000000000000000000000000000000000000000000815260040160405180910390fd5b600282611ed9919061309f565b915060006004905060218403611f8557600060f81b87600481518110611f0257611f016130d3565b5b602001015160f81c60f81b7effffffffffffffffffffffffffffffffffffffffffffffffffffffffffffff191614611f66576040517f86cd05c500000000000000000000000000000000000000000000000000000000815260040160405180910390fd5b600181611f73919061309f565b9050600184611f82919061306b565b93505b6021820361202857600060f81b878481518110611fa557611fa46130d3565b5b602001015160f81c60f81b7effffffffffffffffffffffffffffffffffffffffffffffffffffffffffffff191614612009576040517f86cd05c500000000000000000000000000000000000000000000000000000000815260040160405180910390fd5b600183612016919061309f565b9250600182612025919061306b565b91505b600080826020018901519150846020018901519050602086101561206557856020612053919061306b565b600861205f9190613029565b82901c91505b602084101561208d5783602061207b919061306b565b60086120879190613029565b81901c90505b818860000181815250508088602001818152505050505050505050919050565b601b8160400181815250508273ffffffffffffffffffffffffffffffffffffffff16600183836040015184600001518560200151604051600081526020016040526040516120fe94939291906140e0565b6020604051602081039080840390855afa158015612120573d6000803e3d6000fd5b5050506020604051035173ffffffffffffffffffffffffffffffffffffffff161461221057601c8160400181815250508273ffffffffffffffffffffffffffffffffffffffff166001838360400151846000015185602001516040516000815260200160405260405161219694939291906140e0565b6020604051602081039080840390855afa1580156121b8573d6000803e3d6000fd5b5050506020604051035173ffffffffffffffffffffffffffffffffffffffff161461220f576040517f4532600d00000000000000000000000000000000000000000000000000000000815260040160405180910390fd5b5b505050565b606060008260405160200161222a9190614125565b604051602081830303815290604052905060005b602081101561229e57600060f81b82828151811061225f5761225e6130d3565b5b602001015160f81c60f81b7effffffffffffffffffffffffffffffffffffffffffffffffffffffffffffff19160361229e57808060010191505061223e565b60008160206122ad919061306b565b67ffffffffffffffff8111156122c6576122c5612973565b5b6040519080825280601f01601f1916602001820160405280156122f85781602001600182028036833780820191505090505b50905060005b81518110156123805783838061231390613e2c565b945081518110612326576123256130d3565b5b602001015160f81c60f81b828281518110612344576123436130d3565b5b60200101907effffffffffffffffffffffffffffffffffffffffffffffffffffffffffffff1916908160001a90535080806001019150506122fe565b50809350505050919050565b606080603884101561243f57600167ffffffffffffffff8111156123b3576123b2612973565b5b6040519080825280601f01601f1916602001820160405280156123e55781602001600182028036833780820191505090505b50905082846123f49190614140565b60f81b8160008151811061240b5761240a6130d3565b5b60200101907effffffffffffffffffffffffffffffffffffffffffffffffffffffffffffff1916908160001a9053506125ce565b600080600190505b6000818761245591906141a4565b1461247d57818061246590613e2c565b925050610100816124769190613029565b9050612447565b60018261248a919061309f565b67ffffffffffffffff8111156124a3576124a2612973565b5b6040519080825280601f01601f1916602001820160405280156124d55781602001600182028036833780820191505090505b509250603785836124e69190614140565b6124f09190614140565b60f81b83600081518110612507576125066130d3565b5b60200101907effffffffffffffffffffffffffffffffffffffffffffffffffffffffffffff1916908160001a905350600190505b8181116125cb576101008183612551919061306b565b61010061255e9190614308565b8761256991906141a4565b6125739190614353565b60f81b838281518110612589576125886130d3565b5b60200101907effffffffffffffffffffffffffffffffffffffffffffffffffffffffffffff1916908160001a90535080806125c390613e2c565b91505061253b565b50505b8091505092915050565b6060600082510361263857600067ffffffffffffffff8111156125fe576125fd612973565b5b6040519080825280601f01601f1916602001820160405280156126305781602001600182028036833780820191505090505b509050612759565b600080600090505b835181101561267f5783818151811061265c5761265b6130d3565b5b60200260200101515182612670919061309f565b91508080600101915050612640565b60008267ffffffffffffffff81111561269b5761269a612973565b5b6040519080825280601f01601f1916602001820160405280156126cd5781602001600182028036833780820191505090505b5090506000602082019050600092505b85518310156127515760008684815181106126fb576126fa6130d3565b5b60200260200101519050600060208201905061271983828451612856565b87858151811061272c5761272b6130d3565b5b60200260200101515183612740919061309f565b9250505082806001019350506126dd565b819450505050505b919050565b600080600073010000000000000000000000000000000000000273ffffffffffffffffffffffffffffffffffffffff1685856040516020016127a19291906143a2565b6040516020818303038152906040526040516127bd9190612e99565b600060405180830381855afa9150503d80600081146127f8576040519150601f19603f3d011682016040523d82523d6000602084013e6127fd565b606091505b509150915081612842576040517f08c379a000000000000000000000000000000000000000000000000000000000815260040161283990614417565b60405180910390fd5b8061284c90613194565b9250505092915050565b6000839050600083905060008390505b602081106128a4578151835260208361287f919061309f565b925060208261288e919061309f565b915060208161289d919061306b565b9050612866565b60006001826020036101000a0390508019835116818551168181178652505050505050505050565b604051806080016040528060008019168152602001600080191681526020016128f3612927565b8152602001600081525090565b60405180606001604052806000801916815260200160008019168152602001600081525090565b6040518060400160405280600290602082028036833780820191505090505090565b6000604051905090565b600080fd5b600080fd5b600080fd5b6000601f19601f8301169050919050565b7f4e487b7100000000000000000000000000000000000000000000000000000000600052604160045260246000fd5b6129ab82612962565b810181811067ffffffffffffffff821117156129ca576129c9612973565b5b80604052505050565b60006129dd612949565b90506129e982826129a2565b919050565b600073ffffffffffffffffffffffffffffffffffffffff82169050919050565b6000612a19826129ee565b9050919050565b612a2981612a0e565b8114612a3457600080fd5b50565b600081359050612a4681612a20565b92915050565b6000819050919050565b612a5f81612a4c565b8114612a6a57600080fd5b50565b600081359050612a7c81612a56565b92915050565b600067ffffffffffffffff82169050919050565b612a9f81612a82565b8114612aaa57600080fd5b50565b600081359050612abc81612a96565b92915050565b600060608284031215612ad857612ad761295d565b5b612ae260606129d3565b90506000612af284828501612a37565b6000830152506020612b0684828501612a6d565b6020830152506040612b1a84828501612aad565b60408301525092915050565b600060608284031215612b3c57612b3b612953565b5b6000612b4a84828501612ac2565b91505092915050565b600080fd5b600080fd5b600067ffffffffffffffff821115612b7857612b77612973565b5b612b8182612962565b9050602081019050919050565b82818337600083830152505050565b6000612bb0612bab84612b5d565b6129d3565b905082815260208101848484011115612bcc57612bcb612b58565b5b612bd7848285612b8e565b509392505050565b600082601f830112612bf457612bf3612b53565b5b8135612c04848260208601612b9d565b91505092915050565b600060208284031215612c2357612c22612953565b5b600082013567ffffffffffffffff811115612c4157612c40612958565b5b612c4d84828501612bdf565b91505092915050565b60008060408385031215612c6d57612c6c612953565b5b6000612c7b85828601612a37565b925050602083013567ffffffffffffffff811115612c9c57612c9b612958565b5b612ca885828601612bdf565b9150509250929050565b600081519050919050565b600082825260208201905092915050565b60005b83811015612cec578082015181840152602081019050612cd1565b60008484015250505050565b6000612d0382612cb2565b612d0d8185612cbd565b9350612d1d818560208601612cce565b612d2681612962565b840191505092915050565b60006020820190508181036000830152612d4b8184612cf8565b905092915050565b6000612d5e826129ee565b9050919050565b612d6e81612d53565b8114612d7957600080fd5b50565b600081519050612d8b81612d65565b92915050565b6000612da4612d9f84612b5d565b6129d3565b905082815260208101848484011115612dc057612dbf612b58565b5b612dcb848285612cce565b509392505050565b600082601f830112612de857612de7612b53565b5b8151612df8848260208601612d91565b91505092915050565b60008060408385031215612e1857612e17612953565b5b6000612e2685828601612d7c565b925050602083015167ffffffffffffffff811115612e4757612e46612958565b5b612e5385828601612dd3565b9150509250929050565b600081905092915050565b6000612e7382612cb2565b612e7d8185612e5d565b9350612e8d818560208601612cce565b80840191505092915050565b6000612ea58284612e68565b915081905092915050565b7f4e487b7100000000000000000000000000000000000000000000000000000000600052601160045260246000fd5b6000612eea82612a82565b9150612ef583612a82565b9250828201905067ffffffffffffffff811115612f1557612f14612eb0565b5b92915050565b612f2481612a0e565b82525050565b6000604082019050612f3f6000830185612f1b565b8181036020830152612f518184612cf8565b90509392505050565b6000819050602082019050919050565b60007fffffffffffffffffffffffffffffff000000000000000000000000000000000082169050919050565b6000612fa28251612f6a565b80915050919050565b600082821b905092915050565b6000612fc382612cb2565b82612fcd84612f5a565b9050612fd881612f96565b9250600f821015613018576130137fffffffffffffffffffffffffffffff000000000000000000000000000000000083600f03600802612fab565b831692505b5050919050565b6000819050919050565b60006130348261301f565b915061303f8361301f565b925082820261304d8161301f565b9150828204841483151761306457613063612eb0565b5b5092915050565b60006130768261301f565b91506130818361301f565b925082820390508181111561309957613098612eb0565b5b92915050565b60006130aa8261301f565b91506130b58361301f565b92508282019050808211156130cd576130cc612eb0565b5b92915050565b7f4e487b7100000000000000000000000000000000000000000000000000000000600052603260045260246000fd5b600082825260208201905092915050565b7f67656e206375727665323535313920706b3a206661696c656400000000000000600082015250565b6000613149601983613102565b915061315482613113565b602082019050919050565b600060208201905081810360008301526131788161313c565b9050919050565b600061318b8251612a4c565b80915050919050565b600061319f82612cb2565b826131a984612f5a565b90506131b48161317f565b925060208210156131f4576131ef7fffffffffffffffffffffffffffffffffffffffffffffffffffffffffffffffff83602003600802612fab565b831692505b5050919050565b6132048161301f565b82525050565b600060408201905061321f60008301856131fb565b81810360208301526132318184612cf8565b90509392505050565b7f72616e646f6d42797465733a206661696c656400000000000000000000000000600082015250565b6000613270601383613102565b915061327b8261323a565b602082019050919050565b6000602082019050818103600083015261329f81613263565b9050919050565b6132af81612a82565b82525050565b60006020820190506132ca60008301846132a6565b92915050565b600081905092915050565b7fa200000000000000000000000000000000000000000000000000000000000000600082015250565b60006133116001836132d0565b915061331c826132db565b600182019050919050565b7f6400000000000000000000000000000000000000000000000000000000000000600082015250565b600061335d6001836132d0565b915061336882613327565b600182019050919050565b7f626f647900000000000000000000000000000000000000000000000000000000600082015250565b60006133a96004836132d0565b91506133b482613373565b600482019050919050565b7fa400000000000000000000000000000000000000000000000000000000000000600082015250565b60006133f56001836132d0565b9150613400826133bf565b600182019050919050565b7f6200000000000000000000000000000000000000000000000000000000000000600082015250565b60006134416001836132d0565b915061344c8261340b565b600182019050919050565b7f706b000000000000000000000000000000000000000000000000000000000000600082015250565b600061348d6002836132d0565b915061349882613457565b600282019050919050565b7f5820000000000000000000000000000000000000000000000000000000000000600082015250565b60006134d96002836132d0565b91506134e4826134a3565b600282019050919050565b60006134fa82612a4c565b9050919050565b6000819050919050565b61351c613517826134ef565b613501565b82525050565b7f6461746100000000000000000000000000000000000000000000000000000000600082015250565b60006135586004836132d0565b915061356382613522565b600482019050919050565b7f6500000000000000000000000000000000000000000000000000000000000000600082015250565b60006135a46001836132d0565b91506135af8261356e565b600182019050919050565b7f65706f6368000000000000000000000000000000000000000000000000000000600082015250565b60006135f06005836132d0565b91506135fb826135ba565b600582019050919050565b7f6e6f6e6365000000000000000000000000000000000000000000000000000000600082015250565b600061363c6005836132d0565b915061364782613606565b600582019050919050565b7f4f00000000000000000000000000000000000000000000000000000000000000600082015250565b60006136886001836132d0565b915061369382613652565b600182019050919050565b6000819050919050565b6136b96136b482612f6a565b61369e565b82525050565b7f6600000000000000000000000000000000000000000000000000000000000000600082015250565b60006136f56001836132d0565b9150613700826136bf565b600182019050919050565b7f666f726d61740000000000000000000000000000000000000000000000000000600082015250565b60006137416006836132d0565b915061374c8261370b565b600682019050919050565b7f0100000000000000000000000000000000000000000000000000000000000000600082015250565b600061378d6001836132d0565b915061379882613757565b600182019050919050565b60006137ae82613304565b91506137b982613350565b91506137c48261339c565b91506137cf826133e8565b91506137da82613434565b91506137e582613480565b91506137f0826134cc565b91506137fc828761350b565b60208201915061380b82613350565b91506138168261354b565b91506138228286612e68565b915061382d82613597565b9150613838826135e3565b91506138448285612e68565b915061384f82613597565b915061385a8261362f565b91506138658261367b565b915061387182846136a8565b600f82019150613880826136e8565b915061388b82613734565b915061389682613780565b915081905095945050505050565b600081519050919050565b60006138ba826138a4565b6138c48185613102565b93506138d4818560208601612cce565b6138dd81612962565b840191505092915050565b6000604082019050818103600083015261390281856138af565b905081810360208301526139168184612cf8565b90509392505050565b60008151905061392e81612a96565b92915050565b6000806040838503121561394b5761394a612953565b5b60006139598582860161391f565b925050602083015167ffffffffffffffff81111561397a57613979612958565b5b61398685828601612dd3565b9150509250929050565b7fa100000000000000000000000000000000000000000000000000000000000000600082015250565b60006139c66001836132d0565b91506139d182613990565b600182019050919050565b60006139e7826139b9565b91506139f282613350565b91506139fd8261339c565b9150613a098284612e68565b915081905092915050565b600060ff82169050919050565b60008160f81b9050919050565b6000613a3982613a21565b9050919050565b613a51613a4c82613a14565b613a2e565b82525050565b6000613a638285613a40565b600182019150613a738284612e68565b91508190509392505050565b6000613a8b8286613a40565b600182019150613a9b8285613a40565b600182019150613aab8284612e68565b9150819050949350505050565b600061ffff82169050919050565b60008160f01b9050919050565b6000613ade82613ac6565b9050919050565b613af6613af182613ab8565b613ad3565b82525050565b6000613b088286613a40565b600182019150613b188285613ae5565b600282019150613b288284612e68565b9150819050949350505050565b6000602082019050613b4a60008301846131fb565b92915050565b6000613b5c8284613a40565b60018201915081905092915050565b6000613b778285613a40565b600182019150613b878284613a40565b6001820191508190509392505050565b6000613ba38285613a40565b600182019150613bb38284613ae5565b6002820191508190509392505050565b600063ffffffff82169050919050565b60008160e01b9050919050565b6000613beb82613bd3565b9050919050565b613c03613bfe82613bc3565b613be0565b82525050565b6000613c158285613a40565b600182019150613c258284613bf2565b6004820191508190509392505050565b60008160c01b9050919050565b6000613c4d82613c35565b9050919050565b613c65613c6082612a82565b613c42565b82525050565b6000613c778285613a40565b600182019150613c878284613c54565b6008820191508190509392505050565b60006fffffffffffffffffffffffffffffffff82169050919050565b60008160801b9050919050565b6000613ccb82613cb3565b9050919050565b613ce3613cde82613c97565b613cc0565b82525050565b6000613cf58285613a40565b600182019150613d058284613cd2565b6010820191508190509392505050565b6000819050919050565b613d30613d2b8261301f565b613d15565b82525050565b6000613d428286613a40565b600182019150613d528285613d1f565b602082019150613d628284613d1f565b602082019150819050949350505050565b613d84613d7f82612a4c565b613501565b82525050565b6000613d968284613d73565b60208201915081905092915050565b60008160601b9050919050565b6000613dbd82613da5565b9050919050565b6000613dcf82613db2565b9050919050565b613de7613de282612a0e565b613dc4565b82525050565b6000613df98284613dd6565b60148201915081905092915050565b6000613e148285612e68565b9150613e208284612e68565b91508190509392505050565b6000613e378261301f565b91507fffffffffffffffffffffffffffffffffffffffffffffffffffffffffffffffff8203613e6957613e68612eb0565b5b600182019050919050565b613e7d81613a14565b82525050565b6000602082019050613e986000830184613e74565b92915050565b6000606082019050613eb360008301866131fb565b613ec060208301856131fb565b613ecd60408301846131fb565b949350505050565b613ede81612a4c565b82525050565b6000608082019050613ef96000830187613ed5565b613f066020830186613ed5565b8181036040830152613f188185612cf8565b90508181036060830152613f2c8184612cf8565b905095945050505050565b7f656e63727970743a206661696c65640000000000000000000000000000000000600082015250565b6000613f6d600f83613102565b9150613f7882613f37565b602082019050919050565b60006020820190508181036000830152613f9c81613f60565b9050919050565b7f4e487b7100000000000000000000000000000000000000000000000000000000600052602160045260246000fd5b60098110613fe357613fe2613fa3565b5b50565b6000819050613ff482613fd2565b919050565b600061400482613fe6565b9050919050565b61401481613ff9565b82525050565b600060808201905061402f600083018761400b565b81810360208301526140418186612cf8565b905081810360408301526140558185612cf8565b905081810360608301526140698184612cf8565b905095945050505050565b7f7369676e3a206661696c65640000000000000000000000000000000000000000600082015250565b60006140aa600c83613102565b91506140b582614074565b602082019050919050565b600060208201905081810360008301526140d98161409d565b9050919050565b60006080820190506140f56000830187613ed5565b6141026020830186613e74565b61410f6040830185613ed5565b61411c6060830184613ed5565b95945050505050565b60006141318284613d1f565b60208201915081905092915050565b600061414b82613a14565b915061415683613a14565b9250828201905060ff81111561416f5761416e612eb0565b5b92915050565b7f4e487b7100000000000000000000000000000000000000000000000000000000600052601260045260246000fd5b60006141af8261301f565b91506141ba8361301f565b9250826141ca576141c9614175565b5b828204905092915050565b60008160011c9050919050565b6000808291508390505b600185111561422c5780860481111561420857614207612eb0565b5b60018516156142175780820291505b8081029050614225856141d5565b94506141ec565b94509492505050565b6000826142455760019050614301565b816142535760009050614301565b81600181146142695760028114614273576142a2565b6001915050614301565b60ff84111561428557614284612eb0565b5b8360020a91508482111561429c5761429b612eb0565b5b50614301565b5060208310610133831016604e8410600b84101617156142d75782820a9050838111156142d2576142d1612eb0565b5b614301565b6142e484848460016141e2565b925090508184048111156142fb576142fa612eb0565b5b81810290505b9392505050565b60006143138261301f565b915061431e8361301f565b925061434b7fffffffffffffffffffffffffffffffffffffffffffffffffffffffffffffffff8484614235565b905092915050565b600061435e8261301f565b91506143698361301f565b92508261437957614378614175565b5b828206905092915050565b61438d816134ef565b82525050565b61439c816134ef565b82525050565b60006040820190506143b76000830185614384565b6143c46020830184614393565b9392505050565b7f64657269766553796d6d65747269634b65793a206661696c6564000000000000600082015250565b6000614401601a83613102565b915061440c826143cb565b602082019050919050565b60006020820190508181036000830152614430816143f4565b905091905056fea264697066735822122058d3951133be1088792536d8d201d7827b43f132868e5f26a72d83a3d0a37e7d64736f6c63430008180033",
			"opcodes": "PUSH1 0x80 PUSH1 0x40 MSTORE CALLVALUE DUP1 ISZERO PUSH2 0x10 JUMPI PUSH1 0x0 DUP1 REVERT JUMPDEST POP PUSH2 0x446D DUP1 PUSH2 0x20 PUSH1 0x0 CODECOPY PUSH1 0x0 RETURN INVALID PUSH1 0x80 PUSH1 0x40 MSTORE PUSH1 0x4 CALLDATASIZE LT PUSH2 0x34 JUMPI PUSH1 0x0 CALLDATALOAD PUSH1 0xE0 SHR DUP1 PUSH4 0x3185501 EQ PUSH2 0x39 JUMPI DUP1 PUSH4 0x10498E9C EQ PUSH2 0x55 JUMPI DUP1 PUSH4 0x90468C41 EQ PUSH2 0x71 JUMPI JUMPDEST PUSH1 0x0 DUP1 REVERT JUMPDEST PUSH2 0x53 PUSH1 0x4 DUP1 CALLDATASIZE SUB DUP2 ADD SWAP1 PUSH2 0x4E SWAP2 SWAP1 PUSH2 0x2B26 JUMP JUMPDEST PUSH2 0xAE JUMP JUMPDEST STOP JUMPDEST PUSH2 0x6F PUSH1 0x4 DUP1 CALLDATASIZE SUB DUP2 ADD SWAP1 PUSH2 0x6A SWAP2 SWAP1 PUSH2 0x2C0D JUMP JUMPDEST PUSH2 0x136 JUMP JUMPDEST STOP JUMPDEST CALLVALUE DUP1 ISZERO PUSH2 0x7D JUMPI PUSH1 0x0 DUP1 REVERT JUMPDEST POP PUSH2 0x98 PUSH1 0x4 DUP1 CALLDATASIZE SUB DUP2 ADD SWAP1 PUSH2 0x93 SWAP2 SWAP1 PUSH2 0x2C56 JUMP JUMPDEST PUSH2 0x224 JUMP JUMPDEST PUSH1 0x40 MLOAD PUSH2 0xA5 SWAP2 SWAP1 PUSH2 0x2D31 JUMP JUMPDEST PUSH1 0x40 MLOAD DUP1 SWAP2 SUB SWAP1 RETURN JUMPDEST DUP1 PUSH1 0x0 DUP1 DUP3 ADD MLOAD DUP2 PUSH1 0x0 ADD PUSH1 0x0 PUSH2 0x100 EXP DUP2 SLOAD DUP2 PUSH20 0xFFFFFFFFFFFFFFFFFFFFFFFFFFFFFFFFFFFFFFFF MUL NOT AND SWAP1 DUP4 PUSH20 0xFFFFFFFFFFFFFFFFFFFFFFFFFFFFFFFFFFFFFFFF AND MUL OR SWAP1 SSTORE POP PUSH1 0x20 DUP3 ADD MLOAD DUP2 PUSH1 0x1 ADD SSTORE PUSH1 0x40 DUP3 ADD MLOAD DUP2 PUSH1 0x2 ADD PUSH1 0x0 PUSH2 0x100 EXP DUP2 SLOAD DUP2 PUSH8 0xFFFFFFFFFFFFFFFF MUL NOT AND SWAP1 DUP4 PUSH8 0xFFFFFFFFFFFFFFFF AND MUL OR SWAP1 SSTORE POP SWAP1 POP POP POP JUMP JUMPDEST PUSH1 0x0 DUP1 DUP3 DUP1 PUSH1 0x20 ADD SWAP1 MLOAD DUP2 ADD SWAP1 PUSH2 0x14D SWAP2 SWAP1 PUSH2 0x2E01 JUMP JUMPDEST SWAP2 POP SWAP2 POP PUSH1 0x0 DUP1 DUP4 PUSH20 0xFFFFFFFFFFFFFFFFFFFFFFFFFFFFFFFFFFFFFFFF AND CALLVALUE DUP5 PUSH1 0x40 MLOAD PUSH2 0x17A SWAP2 SWAP1 PUSH2 0x2E99 JUMP JUMPDEST PUSH1 0x0 PUSH1 0x40 MLOAD DUP1 DUP4 SUB DUP2 DUP6 DUP8 GAS CALL SWAP3 POP POP POP RETURNDATASIZE DUP1 PUSH1 0x0 DUP2 EQ PUSH2 0x1B7 JUMPI PUSH1 0x40 MLOAD SWAP2 POP PUSH1 0x1F NOT PUSH1 0x3F RETURNDATASIZE ADD AND DUP3 ADD PUSH1 0x40 MSTORE RETURNDATASIZE DUP3 MSTORE RETURNDATASIZE PUSH1 0x0 PUSH1 0x20 DUP5 ADD RETURNDATACOPY PUSH2 0x1BC JUMP JUMPDEST PUSH1 0x60 SWAP2 POP JUMPDEST POP SWAP2 POP SWAP2 POP DUP2 PUSH2 0x1CE JUMPI DUP1 MLOAD PUSH1 0x20 DUP3 ADD REVERT JUMPDEST PUSH1 0x1 PUSH1 0x0 PUSH1 0x2 ADD PUSH1 0x0 DUP3 DUP3 DUP3 SWAP1 SLOAD SWAP1 PUSH2 0x100 EXP SWAP1 DIV PUSH8 0xFFFFFFFFFFFFFFFF AND PUSH2 0x1F7 SWAP2 SWAP1 PUSH2 0x2EDF JUMP JUMPDEST SWAP3 POP PUSH2 0x100 EXP DUP2 SLOAD DUP2 PUSH8 0xFFFFFFFFFFFFFFFF MUL NOT AND SWAP1 DUP4 PUSH8 0xFFFFFFFFFFFFFFFF AND MUL OR SWAP1 SSTORE POP POP POP POP POP POP JUMP JUMPDEST PUSH1 0x60 PUSH1 0x0 DUP4 DUP4 PUSH1 0x40 MLOAD PUSH1 0x20 ADD PUSH2 0x23B SWAP3 SWAP2 SWAP1 PUSH2 0x2F2A JUMP JUMPDEST PUSH1 0x40 MLOAD PUSH1 0x20 DUP2 DUP4 SUB SUB DUP2 MSTORE SWAP1 PUSH1 0x40 MSTORE SWAP1 POP PUSH2 0x374 PUSH1 0x0 DUP1 ADD PUSH1 0x0 SWAP1 SLOAD SWAP1 PUSH2 0x100 EXP SWAP1 DIV PUSH20 0xFFFFFFFFFFFFFFFFFFFFFFFFFFFFFFFFFFFFFFFF AND PUSH1 0x0 PUSH1 0x1 ADD SLOAD PUSH1 0x40 MLOAD DUP1 PUSH1 0xE0 ADD PUSH1 0x40 MSTORE DUP1 PUSH1 0x0 PUSH1 0x2 ADD PUSH1 0x0 SWAP1 SLOAD SWAP1 PUSH2 0x100 EXP SWAP1 DIV PUSH8 0xFFFFFFFFFFFFFFFF AND PUSH8 0xFFFFFFFFFFFFFFFF AND DUP2 MSTORE PUSH1 0x20 ADD PUSH5 0x174876E800 DUP2 MSTORE PUSH1 0x20 ADD PUSH3 0x3D090 PUSH8 0xFFFFFFFFFFFFFFFF AND DUP2 MSTORE PUSH1 0x20 ADD ADDRESS PUSH20 0xFFFFFFFFFFFFFFFFFFFFFFFFFFFFFFFFFFFFFFFF AND DUP2 MSTORE PUSH1 0x20 ADD PUSH1 0x0 DUP2 MSTORE PUSH1 0x20 ADD PUSH2 0x366 ADDRESS PUSH20 0xFFFFFFFFFFFFFFFFFFFFFFFFFFFFFFFFFFFFFFFF AND PUSH4 0x10498E9C DUP9 PUSH1 0x40 MLOAD PUSH1 0x24 ADD PUSH2 0x31F SWAP2 SWAP1 PUSH2 0x2D31 JUMP JUMPDEST PUSH1 0x40 MLOAD PUSH1 0x20 DUP2 DUP4 SUB SUB DUP2 MSTORE SWAP1 PUSH1 0x40 MSTORE SWAP2 POP PUSH1 0xE0 SHL PUSH1 0x20 DUP3 ADD DUP1 MLOAD PUSH28 0xFFFFFFFFFFFFFFFFFFFFFFFFFFFFFFFFFFFFFFFFFFFFFFFFFFFFFFFF DUP4 DUP2 DUP4 AND OR DUP4 MSTORE POP POP POP POP PUSH2 0x37D JUMP JUMPDEST DUP2 MSTORE PUSH1 0x20 ADD CHAINID DUP2 MSTORE POP PUSH2 0x422 JUMP JUMPDEST SWAP2 POP POP SWAP3 SWAP2 POP POP JUMP JUMPDEST PUSH1 0x60 PUSH1 0x0 DUP3 MLOAD SUB PUSH2 0x39F JUMPI PUSH1 0x40 MLOAD DUP1 PUSH1 0x20 ADD PUSH1 0x40 MSTORE DUP1 PUSH1 0x0 DUP2 MSTORE POP SWAP1 POP PUSH2 0x41D JUMP JUMPDEST PUSH1 0x0 DUP1 PUSH2 0x3BA PUSH1 0x40 MLOAD DUP1 PUSH1 0x20 ADD PUSH1 0x40 MSTORE DUP1 PUSH1 0x0 DUP2 MSTORE POP PUSH2 0x488 JUMP JUMPDEST DUP1 SWAP3 POP DUP2 SWAP4 POP POP POP PUSH1 0x0 PUSH2 0x3DE PUSH1 0xF PUSH1 0x40 MLOAD DUP1 PUSH1 0x20 ADD PUSH1 0x40 MSTORE DUP1 PUSH1 0x0 DUP2 MSTORE POP PUSH2 0x676 JUMP JUMPDEST PUSH2 0x3E7 SWAP1 PUSH2 0x2FB8 JUMP JUMPDEST SWAP1 POP PUSH2 0x3F1 PUSH2 0x28CC JUMP JUMPDEST PUSH1 0x0 PUSH2 0x3FB PUSH2 0x765 JUMP JUMPDEST DUP1 SWAP4 POP DUP2 SWAP3 POP POP POP PUSH2 0x415 DUP8 DUP7 DUP7 DUP7 DUP6 DUP8 PUSH1 0x0 ADD MLOAD PUSH2 0x84C JUMP JUMPDEST SWAP6 POP POP POP POP POP POP JUMPDEST SWAP2 SWAP1 POP JUMP JUMPDEST PUSH1 0x60 PUSH1 0x0 PUSH2 0x431 DUP4 DUP7 DUP7 PUSH2 0x8C2 JUMP JUMPDEST SWAP1 POP PUSH1 0x23 PUSH1 0x2 DUP5 PUSH1 0xC0 ADD MLOAD PUSH2 0x446 SWAP2 SWAP1 PUSH2 0x3029 JUMP JUMPDEST PUSH1 0x1B DUP4 PUSH1 0x40 ADD MLOAD PUSH2 0x457 SWAP2 SWAP1 PUSH2 0x306B JUMP JUMPDEST PUSH2 0x461 SWAP2 SWAP1 PUSH2 0x309F JUMP JUMPDEST PUSH2 0x46B SWAP2 SWAP1 PUSH2 0x309F JUMP JUMPDEST DUP2 PUSH1 0x40 ADD DUP2 DUP2 MSTORE POP POP PUSH2 0x47E DUP4 DUP3 PUSH2 0x93D JUMP JUMPDEST SWAP2 POP POP SWAP4 SWAP3 POP POP POP JUMP JUMPDEST PUSH1 0x0 DUP1 PUSH1 0x0 PUSH2 0x498 PUSH1 0x20 DUP6 PUSH2 0x676 JUMP JUMPDEST SWAP1 POP PUSH1 0xF8 DUP1 SHL DUP2 PUSH1 0x0 DUP2 MLOAD DUP2 LT PUSH2 0x4B2 JUMPI PUSH2 0x4B1 PUSH2 0x30D3 JUMP JUMPDEST JUMPDEST PUSH1 0x20 ADD ADD DUP2 DUP2 MLOAD PUSH1 0xF8 SHR PUSH1 0xF8 SHL AND SWAP2 POP SWAP1 PUSH31 0xFFFFFFFFFFFFFFFFFFFFFFFFFFFFFFFFFFFFFFFFFFFFFFFFFFFFFFFFFFFFFF NOT AND SWAP1 DUP2 PUSH1 0x0 BYTE SWAP1 MSTORE8 POP PUSH1 0x7F PUSH1 0xF8 SHL DUP2 PUSH1 0x1F DUP2 MLOAD DUP2 LT PUSH2 0x506 JUMPI PUSH2 0x505 PUSH2 0x30D3 JUMP JUMPDEST JUMPDEST PUSH1 0x20 ADD ADD DUP2 DUP2 MLOAD PUSH1 0xF8 SHR PUSH1 0xF8 SHL AND SWAP2 POP SWAP1 PUSH31 0xFFFFFFFFFFFFFFFFFFFFFFFFFFFFFFFFFFFFFFFFFFFFFFFFFFFFFFFFFFFFFF NOT AND SWAP1 DUP2 PUSH1 0x0 BYTE SWAP1 MSTORE8 POP PUSH1 0x40 PUSH1 0xF8 SHL DUP2 PUSH1 0x1F DUP2 MLOAD DUP2 LT PUSH2 0x55A JUMPI PUSH2 0x559 PUSH2 0x30D3 JUMP JUMPDEST JUMPDEST PUSH1 0x20 ADD ADD DUP2 DUP2 MLOAD PUSH1 0xF8 SHR PUSH1 0xF8 SHL OR SWAP2 POP SWAP1 PUSH31 0xFFFFFFFFFFFFFFFFFFFFFFFFFFFFFFFFFFFFFFFFFFFFFFFFFFFFFFFFFFFFFF NOT AND SWAP1 DUP2 PUSH1 0x0 BYTE SWAP1 MSTORE8 POP PUSH1 0x0 DUP1 PUSH20 0x100000000000000000000000000000000000008 PUSH20 0xFFFFFFFFFFFFFFFFFFFFFFFFFFFFFFFFFFFFFFFF AND DUP4 PUSH1 0x40 MLOAD PUSH2 0x5D1 SWAP2 SWAP1 PUSH2 0x2E99 JUMP JUMPDEST PUSH1 0x0 PUSH1 0x40 MLOAD DUP1 DUP4 SUB DUP2 DUP6 GAS STATICCALL SWAP2 POP POP RETURNDATASIZE DUP1 PUSH1 0x0 DUP2 EQ PUSH2 0x60C JUMPI PUSH1 0x40 MLOAD SWAP2 POP PUSH1 0x1F NOT PUSH1 0x3F RETURNDATASIZE ADD AND DUP3 ADD PUSH1 0x40 MSTORE RETURNDATASIZE DUP3 MSTORE RETURNDATASIZE PUSH1 0x0 PUSH1 0x20 DUP5 ADD RETURNDATACOPY PUSH2 0x611 JUMP JUMPDEST PUSH1 0x60 SWAP2 POP JUMPDEST POP SWAP2 POP SWAP2 POP DUP2 PUSH2 0x656 JUMPI PUSH1 0x40 MLOAD PUSH32 0x8C379A000000000000000000000000000000000000000000000000000000000 DUP2 MSTORE PUSH1 0x4 ADD PUSH2 0x64D SWAP1 PUSH2 0x315F JUMP JUMPDEST PUSH1 0x40 MLOAD DUP1 SWAP2 SUB SWAP1 REVERT JUMPDEST DUP1 PUSH2 0x660 SWAP1 PUSH2 0x3194 JUMP JUMPDEST DUP4 PUSH2 0x66A SWAP1 PUSH2 0x3194 JUMP JUMPDEST SWAP5 POP SWAP5 POP POP POP POP SWAP2 POP SWAP2 JUMP JUMPDEST PUSH1 0x60 PUSH1 0x0 DUP1 PUSH20 0x100000000000000000000000000000000000001 PUSH20 0xFFFFFFFFFFFFFFFFFFFFFFFFFFFFFFFFFFFFFFFF AND DUP6 DUP6 PUSH1 0x40 MLOAD PUSH1 0x20 ADD PUSH2 0x6B9 SWAP3 SWAP2 SWAP1 PUSH2 0x320A JUMP JUMPDEST PUSH1 0x40 MLOAD PUSH1 0x20 DUP2 DUP4 SUB SUB DUP2 MSTORE SWAP1 PUSH1 0x40 MSTORE PUSH1 0x40 MLOAD PUSH2 0x6D5 SWAP2 SWAP1 PUSH2 0x2E99 JUMP JUMPDEST PUSH1 0x0 PUSH1 0x40 MLOAD DUP1 DUP4 SUB DUP2 DUP6 GAS STATICCALL SWAP2 POP POP RETURNDATASIZE DUP1 PUSH1 0x0 DUP2 EQ PUSH2 0x710 JUMPI PUSH1 0x40 MLOAD SWAP2 POP PUSH1 0x1F NOT PUSH1 0x3F RETURNDATASIZE ADD AND DUP3 ADD PUSH1 0x40 MSTORE RETURNDATASIZE DUP3 MSTORE RETURNDATASIZE PUSH1 0x0 PUSH1 0x20 DUP5 ADD RETURNDATACOPY PUSH2 0x715 JUMP JUMPDEST PUSH1 0x60 SWAP2 POP JUMPDEST POP SWAP2 POP SWAP2 POP DUP2 PUSH2 0x75A JUMPI PUSH1 0x40 MLOAD PUSH32 0x8C379A000000000000000000000000000000000000000000000000000000000 DUP2 MSTORE PUSH1 0x4 ADD PUSH2 0x751 SWAP1 PUSH2 0x3286 JUMP JUMPDEST PUSH1 0x40 MLOAD DUP1 SWAP2 SUB SWAP1 REVERT JUMPDEST DUP1 SWAP3 POP POP POP SWAP3 SWAP2 POP POP JUMP JUMPDEST PUSH1 0x0 PUSH2 0x76F PUSH2 0x28CC JUMP JUMPDEST PUSH1 0x0 DUP1 PUSH2 0x7E6 PUSH1 0x40 MLOAD DUP1 PUSH1 0x40 ADD PUSH1 0x40 MSTORE DUP1 PUSH1 0x16 DUP2 MSTORE PUSH1 0x20 ADD PUSH32 0x636F72652E43616C6C446174615075626C69634B657900000000000000000000 DUP2 MSTORE POP PUSH1 0x40 MLOAD DUP1 PUSH1 0x40 ADD PUSH1 0x40 MSTORE DUP1 PUSH1 0x1 DUP2 MSTORE PUSH1 0x20 ADD PUSH32 0xF600000000000000000000000000000000000000000000000000000000000000 DUP2 MSTORE POP PUSH2 0xB4A JUMP JUMPDEST SWAP2 POP SWAP2 POP PUSH1 0x0 DUP3 PUSH8 0xFFFFFFFFFFFFFFFF AND EQ PUSH2 0x839 JUMPI DUP2 PUSH1 0x40 MLOAD PUSH32 0x56401E8E00000000000000000000000000000000000000000000000000000000 DUP2 MSTORE PUSH1 0x4 ADD PUSH2 0x830 SWAP2 SWAP1 PUSH2 0x32B5 JUMP JUMPDEST PUSH1 0x40 MLOAD DUP1 SWAP2 SUB SWAP1 REVERT JUMPDEST PUSH2 0x842 DUP2 PUSH2 0xC4C JUMP JUMPDEST SWAP4 POP SWAP4 POP POP POP SWAP1 SWAP2 JUMP JUMPDEST PUSH1 0x60 PUSH1 0x0 DUP8 MLOAD SUB PUSH2 0x86E JUMPI PUSH1 0x40 MLOAD DUP1 PUSH1 0x20 ADD PUSH1 0x40 MSTORE DUP1 PUSH1 0x0 DUP2 MSTORE POP SWAP1 POP PUSH2 0x8B8 JUMP JUMPDEST PUSH1 0x0 PUSH2 0x87C DUP9 DUP8 DUP8 DUP7 PUSH2 0xD51 JUMP JUMPDEST SWAP1 POP DUP7 PUSH2 0x888 DUP3 PUSH2 0xDC2 JUMP JUMPDEST PUSH2 0x891 DUP7 PUSH2 0xEB3 JUMP JUMPDEST DUP8 PUSH1 0x40 MLOAD PUSH1 0x20 ADD PUSH2 0x8A5 SWAP5 SWAP4 SWAP3 SWAP2 SWAP1 PUSH2 0x37A3 JUMP JUMPDEST PUSH1 0x40 MLOAD PUSH1 0x20 DUP2 DUP4 SUB SUB DUP2 MSTORE SWAP1 PUSH1 0x40 MSTORE SWAP2 POP POP JUMPDEST SWAP7 SWAP6 POP POP POP POP POP POP JUMP JUMPDEST PUSH2 0x8CA PUSH2 0x2900 JUMP JUMPDEST PUSH1 0x0 PUSH2 0x8FA DUP6 PUSH1 0x40 MLOAD DUP1 PUSH1 0x60 ADD PUSH1 0x40 MSTORE DUP1 PUSH1 0x0 DUP1 SHL DUP2 MSTORE PUSH1 0x20 ADD PUSH1 0x0 DUP1 SHL DUP2 MSTORE PUSH1 0x20 ADD DUP9 PUSH1 0xC0 ADD MLOAD DUP2 MSTORE POP PUSH2 0x93D JUMP JUMPDEST SWAP1 POP PUSH1 0x0 DUP2 PUSH1 0x40 MLOAD PUSH1 0x20 ADD PUSH2 0x90F SWAP2 SWAP1 PUSH2 0x2E99 JUMP JUMPDEST PUSH1 0x40 MLOAD PUSH1 0x20 DUP2 DUP4 SUB SUB DUP2 MSTORE SWAP1 PUSH1 0x40 MSTORE DUP1 MLOAD SWAP1 PUSH1 0x20 ADD KECCAK256 SWAP1 POP PUSH2 0x932 DUP6 DUP6 DUP4 PUSH2 0x1031 JUMP JUMPDEST SWAP3 POP POP POP SWAP4 SWAP3 POP POP POP JUMP JUMPDEST PUSH1 0x60 PUSH1 0x0 PUSH1 0x9 PUSH8 0xFFFFFFFFFFFFFFFF DUP2 GT ISZERO PUSH2 0x95C JUMPI PUSH2 0x95B PUSH2 0x2973 JUMP JUMPDEST JUMPDEST PUSH1 0x40 MLOAD SWAP1 DUP1 DUP3 MSTORE DUP1 PUSH1 0x20 MUL PUSH1 0x20 ADD DUP3 ADD PUSH1 0x40 MSTORE DUP1 ISZERO PUSH2 0x98F JUMPI DUP2 PUSH1 0x20 ADD JUMPDEST PUSH1 0x60 DUP2 MSTORE PUSH1 0x20 ADD SWAP1 PUSH1 0x1 SWAP1 SUB SWAP1 DUP2 PUSH2 0x97A JUMPI SWAP1 POP JUMPDEST POP SWAP1 POP PUSH2 0x9A9 DUP5 PUSH1 0x0 ADD MLOAD PUSH8 0xFFFFFFFFFFFFFFFF AND PUSH2 0x10B5 JUMP JUMPDEST DUP2 PUSH1 0x0 DUP2 MLOAD DUP2 LT PUSH2 0x9BD JUMPI PUSH2 0x9BC PUSH2 0x30D3 JUMP JUMPDEST JUMPDEST PUSH1 0x20 MUL PUSH1 0x20 ADD ADD DUP2 SWAP1 MSTORE POP PUSH2 0x9D5 DUP5 PUSH1 0x20 ADD MLOAD PUSH2 0x10B5 JUMP JUMPDEST DUP2 PUSH1 0x1 DUP2 MLOAD DUP2 LT PUSH2 0x9E9 JUMPI PUSH2 0x9E8 PUSH2 0x30D3 JUMP JUMPDEST JUMPDEST PUSH1 0x20 MUL PUSH1 0x20 ADD ADD DUP2 SWAP1 MSTORE POP PUSH2 0xA0B DUP5 PUSH1 0x40 ADD MLOAD PUSH8 0xFFFFFFFFFFFFFFFF AND PUSH2 0x10B5 JUMP JUMPDEST DUP2 PUSH1 0x2 DUP2 MLOAD DUP2 LT PUSH2 0xA1F JUMPI PUSH2 0xA1E PUSH2 0x30D3 JUMP JUMPDEST JUMPDEST PUSH1 0x20 MUL PUSH1 0x20 ADD ADD DUP2 SWAP1 MSTORE POP PUSH2 0xA37 DUP5 PUSH1 0x60 ADD MLOAD PUSH2 0x10CF JUMP JUMPDEST DUP2 PUSH1 0x3 DUP2 MLOAD DUP2 LT PUSH2 0xA4B JUMPI PUSH2 0xA4A PUSH2 0x30D3 JUMP JUMPDEST JUMPDEST PUSH1 0x20 MUL PUSH1 0x20 ADD ADD DUP2 SWAP1 MSTORE POP PUSH2 0xA63 DUP5 PUSH1 0x80 ADD MLOAD PUSH2 0x10B5 JUMP JUMPDEST DUP2 PUSH1 0x4 DUP2 MLOAD DUP2 LT PUSH2 0xA77 JUMPI PUSH2 0xA76 PUSH2 0x30D3 JUMP JUMPDEST JUMPDEST PUSH1 0x20 MUL PUSH1 0x20 ADD ADD DUP2 SWAP1 MSTORE POP PUSH2 0xA8F DUP5 PUSH1 0xA0 ADD MLOAD PUSH2 0x1100 JUMP JUMPDEST DUP2 PUSH1 0x5 DUP2 MLOAD DUP2 LT PUSH2 0xAA3 JUMPI PUSH2 0xAA2 PUSH2 0x30D3 JUMP JUMPDEST JUMPDEST PUSH1 0x20 MUL PUSH1 0x20 ADD ADD DUP2 SWAP1 MSTORE POP PUSH2 0xABB DUP4 PUSH1 0x40 ADD MLOAD PUSH2 0x10B5 JUMP JUMPDEST DUP2 PUSH1 0x6 DUP2 MLOAD DUP2 LT PUSH2 0xACF JUMPI PUSH2 0xACE PUSH2 0x30D3 JUMP JUMPDEST JUMPDEST PUSH1 0x20 MUL PUSH1 0x20 ADD ADD DUP2 SWAP1 MSTORE POP PUSH2 0xAEA DUP4 PUSH1 0x0 ADD MLOAD PUSH1 0x0 SHR PUSH2 0x10B5 JUMP JUMPDEST DUP2 PUSH1 0x7 DUP2 MLOAD DUP2 LT PUSH2 0xAFE JUMPI PUSH2 0xAFD PUSH2 0x30D3 JUMP JUMPDEST JUMPDEST PUSH1 0x20 MUL PUSH1 0x20 ADD ADD DUP2 SWAP1 MSTORE POP PUSH2 0xB19 DUP4 PUSH1 0x20 ADD MLOAD PUSH1 0x0 SHR PUSH2 0x10B5 JUMP JUMPDEST DUP2 PUSH1 0x8 DUP2 MLOAD DUP2 LT PUSH2 0xB2D JUMPI PUSH2 0xB2C PUSH2 0x30D3 JUMP JUMPDEST JUMPDEST PUSH1 0x20 MUL PUSH1 0x20 ADD ADD DUP2 SWAP1 MSTORE POP PUSH2 0xB41 DUP2 PUSH2 0x117E JUMP JUMPDEST SWAP2 POP POP SWAP3 SWAP2 POP POP JUMP JUMPDEST PUSH1 0x0 PUSH1 0x60 PUSH1 0x0 DUP1 PUSH20 0x100000000000000000000000000000000000103 PUSH20 0xFFFFFFFFFFFFFFFFFFFFFFFFFFFFFFFFFFFFFFFF AND DUP7 DUP7 PUSH1 0x40 MLOAD PUSH1 0x20 ADD PUSH2 0xB8F SWAP3 SWAP2 SWAP1 PUSH2 0x38E8 JUMP JUMPDEST PUSH1 0x40 MLOAD PUSH1 0x20 DUP2 DUP4 SUB SUB DUP2 MSTORE SWAP1 PUSH1 0x40 MSTORE PUSH1 0x40 MLOAD PUSH2 0xBAB SWAP2 SWAP1 PUSH2 0x2E99 JUMP JUMPDEST PUSH1 0x0 PUSH1 0x40 MLOAD DUP1 DUP4 SUB DUP2 DUP6 GAS STATICCALL SWAP2 POP POP RETURNDATASIZE DUP1 PUSH1 0x0 DUP2 EQ PUSH2 0xBE6 JUMPI PUSH1 0x40 MLOAD SWAP2 POP PUSH1 0x1F NOT PUSH1 0x3F RETURNDATASIZE ADD AND DUP3 ADD PUSH1 0x40 MSTORE RETURNDATASIZE DUP3 MSTORE RETURNDATASIZE PUSH1 0x0 PUSH1 0x20 DUP5 ADD RETURNDATACOPY PUSH2 0xBEB JUMP JUMPDEST PUSH1 0x60 SWAP2 POP JUMPDEST POP SWAP2 POP SWAP2 POP DUP2 PUSH2 0xC27 JUMPI PUSH1 0x40 MLOAD PUSH32 0x902E94F800000000000000000000000000000000000000000000000000000000 DUP2 MSTORE PUSH1 0x4 ADD PUSH1 0x40 MLOAD DUP1 SWAP2 SUB SWAP1 REVERT JUMPDEST DUP1 DUP1 PUSH1 0x20 ADD SWAP1 MLOAD DUP2 ADD SWAP1 PUSH2 0xC3B SWAP2 SWAP1 PUSH2 0x3934 JUMP JUMPDEST DUP1 SWAP5 POP DUP2 SWAP6 POP POP POP POP POP SWAP3 POP SWAP3 SWAP1 POP JUMP JUMPDEST PUSH1 0x0 PUSH2 0xC56 PUSH2 0x28CC JUMP JUMPDEST PUSH1 0x0 DUP1 PUSH2 0xC64 DUP6 PUSH1 0x0 PUSH2 0x11C2 JUMP JUMPDEST SWAP2 POP SWAP2 POP JUMPDEST PUSH1 0x0 DUP3 GT ISZERO PUSH2 0xD4A JUMPI PUSH1 0x0 PUSH1 0x1 DUP4 PUSH2 0xC81 SWAP2 SWAP1 PUSH2 0x306B JUMP JUMPDEST SWAP3 POP PUSH2 0xC8D DUP7 DUP4 PUSH2 0x1259 JUMP JUMPDEST DUP1 SWAP3 POP DUP2 SWAP4 POP POP POP PUSH32 0x7C2518396795A0874A8BCEAC66F007E54D69C9CDBF3E1E796439AB70BACAFF18 DUP2 SUB PUSH2 0xCD3 JUMPI PUSH2 0xCC6 DUP7 DUP4 PUSH2 0x1335 JUMP JUMPDEST DUP1 SWAP7 POP DUP2 SWAP4 POP POP POP PUSH2 0xD44 JUMP JUMPDEST PUSH32 0xC7B28019CCFDBD30FFC65951D94BB85C9E2B8434111A000B5AFD533CE65F57A4 DUP2 SUB PUSH2 0xD11 JUMPI PUSH2 0xD04 DUP7 DUP4 PUSH2 0x15EC JUMP JUMPDEST DUP1 SWAP6 POP DUP2 SWAP4 POP POP POP PUSH2 0xD43 JUMP JUMPDEST PUSH1 0x40 MLOAD PUSH32 0xC75CD84000000000000000000000000000000000000000000000000000000000 DUP2 MSTORE PUSH1 0x4 ADD PUSH1 0x40 MLOAD DUP1 SWAP2 SUB SWAP1 REVERT JUMPDEST JUMPDEST POP PUSH2 0xC69 JUMP JUMPDEST POP POP SWAP2 POP SWAP2 JUMP JUMPDEST PUSH1 0x60 PUSH1 0x0 PUSH2 0xD5E DUP7 PUSH2 0xDC2 JUMP JUMPDEST PUSH1 0x40 MLOAD PUSH1 0x20 ADD PUSH2 0xD6E SWAP2 SWAP1 PUSH2 0x39DC JUMP JUMPDEST PUSH1 0x40 MLOAD PUSH1 0x20 DUP2 DUP4 SUB SUB DUP2 MSTORE SWAP1 PUSH1 0x40 MSTORE SWAP1 POP PUSH2 0xDB7 PUSH2 0xD8C DUP5 DUP8 PUSH2 0x1971 JUMP JUMPDEST DUP6 PUSH17 0xFFFFFFFFFFFFFFFFFFFFFFFFFFFFFFFFFF NOT AND DUP4 PUSH1 0x40 MLOAD DUP1 PUSH1 0x20 ADD PUSH1 0x40 MSTORE DUP1 PUSH1 0x0 DUP2 MSTORE POP PUSH2 0x1985 JUMP JUMPDEST SWAP2 POP POP SWAP5 SWAP4 POP POP POP POP JUMP JUMPDEST PUSH1 0x60 PUSH1 0x17 DUP3 MLOAD GT PUSH2 0xE03 JUMPI DUP2 MLOAD PUSH1 0x40 PUSH2 0xDDB SWAP2 SWAP1 PUSH2 0x309F JUMP JUMPDEST DUP3 PUSH1 0x40 MLOAD PUSH1 0x20 ADD PUSH2 0xDED SWAP3 SWAP2 SWAP1 PUSH2 0x3A57 JUMP JUMPDEST PUSH1 0x40 MLOAD PUSH1 0x20 DUP2 DUP4 SUB SUB DUP2 MSTORE SWAP1 PUSH1 0x40 MSTORE SWAP1 POP PUSH2 0xEAE JUMP JUMPDEST PUSH1 0xFF DUP3 MLOAD GT PUSH2 0xE39 JUMPI PUSH1 0x58 DUP3 MLOAD DUP4 PUSH1 0x40 MLOAD PUSH1 0x20 ADD PUSH2 0xE23 SWAP4 SWAP3 SWAP2 SWAP1 PUSH2 0x3A7F JUMP JUMPDEST PUSH1 0x40 MLOAD PUSH1 0x20 DUP2 DUP4 SUB SUB DUP2 MSTORE SWAP1 PUSH1 0x40 MSTORE SWAP1 POP PUSH2 0xEAE JUMP JUMPDEST PUSH2 0xFFFF DUP3 MLOAD GT PUSH2 0xE70 JUMPI PUSH1 0x59 DUP3 MLOAD DUP4 PUSH1 0x40 MLOAD PUSH1 0x20 ADD PUSH2 0xE5A SWAP4 SWAP3 SWAP2 SWAP1 PUSH2 0x3AFC JUMP JUMPDEST PUSH1 0x40 MLOAD PUSH1 0x20 DUP2 DUP4 SUB SUB DUP2 MSTORE SWAP1 PUSH1 0x40 MSTORE SWAP1 POP PUSH2 0xEAE JUMP JUMPDEST DUP2 MLOAD PUSH1 0x40 MLOAD PUSH32 0x9740752B00000000000000000000000000000000000000000000000000000000 DUP2 MSTORE PUSH1 0x4 ADD PUSH2 0xEA5 SWAP2 SWAP1 PUSH2 0x3B35 JUMP JUMPDEST PUSH1 0x40 MLOAD DUP1 SWAP2 SUB SWAP1 REVERT JUMPDEST SWAP2 SWAP1 POP JUMP JUMPDEST PUSH1 0x60 PUSH1 0x18 DUP3 LT ISZERO PUSH2 0xEE5 JUMPI DUP2 PUSH1 0x40 MLOAD PUSH1 0x20 ADD PUSH2 0xECF SWAP2 SWAP1 PUSH2 0x3B50 JUMP JUMPDEST PUSH1 0x40 MLOAD PUSH1 0x20 DUP2 DUP4 SUB SUB DUP2 MSTORE SWAP1 PUSH1 0x40 MSTORE SWAP1 POP PUSH2 0x102C JUMP JUMPDEST PUSH1 0xFF DUP1 AND DUP3 GT PUSH2 0xF19 JUMPI PUSH1 0x18 DUP3 PUSH1 0x40 MLOAD PUSH1 0x20 ADD PUSH2 0xF03 SWAP3 SWAP2 SWAP1 PUSH2 0x3B6B JUMP JUMPDEST PUSH1 0x40 MLOAD PUSH1 0x20 DUP2 DUP4 SUB SUB DUP2 MSTORE SWAP1 PUSH1 0x40 MSTORE SWAP1 POP PUSH2 0x102C JUMP JUMPDEST PUSH2 0xFFFF DUP1 AND DUP3 GT PUSH2 0xF4E JUMPI PUSH1 0x19 DUP3 PUSH1 0x40 MLOAD PUSH1 0x20 ADD PUSH2 0xF38 SWAP3 SWAP2 SWAP1 PUSH2 0x3B97 JUMP JUMPDEST PUSH1 0x40 MLOAD PUSH1 0x20 DUP2 DUP4 SUB SUB DUP2 MSTORE SWAP1 PUSH1 0x40 MSTORE SWAP1 POP PUSH2 0x102C JUMP JUMPDEST PUSH4 0xFFFFFFFF DUP1 AND DUP3 GT PUSH2 0xF85 JUMPI PUSH1 0x1A DUP3 PUSH1 0x40 MLOAD PUSH1 0x20 ADD PUSH2 0xF6F SWAP3 SWAP2 SWAP1 PUSH2 0x3C09 JUMP JUMPDEST PUSH1 0x40 MLOAD PUSH1 0x20 DUP2 DUP4 SUB SUB DUP2 MSTORE SWAP1 PUSH1 0x40 MSTORE SWAP1 POP PUSH2 0x102C JUMP JUMPDEST PUSH8 0xFFFFFFFFFFFFFFFF DUP1 AND DUP3 GT PUSH2 0xFC0 JUMPI PUSH1 0x1B DUP3 PUSH1 0x40 MLOAD PUSH1 0x20 ADD PUSH2 0xFAA SWAP3 SWAP2 SWAP1 PUSH2 0x3C6B JUMP JUMPDEST PUSH1 0x40 MLOAD PUSH1 0x20 DUP2 DUP4 SUB SUB DUP2 MSTORE SWAP1 PUSH1 0x40 MSTORE SWAP1 POP PUSH2 0x102C JUMP JUMPDEST PUSH16 0xFFFFFFFFFFFFFFFFFFFFFFFFFFFFFFFF DUP1 AND DUP3 GT PUSH2 0x1003 JUMPI PUSH1 0x50 DUP3 PUSH1 0x40 MLOAD PUSH1 0x20 ADD PUSH2 0xFED SWAP3 SWAP2 SWAP1 PUSH2 0x3CE9 JUMP JUMPDEST PUSH1 0x40 MLOAD PUSH1 0x20 DUP2 DUP4 SUB SUB DUP2 MSTORE SWAP1 PUSH1 0x40 MSTORE SWAP1 POP PUSH2 0x102C JUMP JUMPDEST PUSH1 0x58 PUSH1 0x20 DUP4 PUSH1 0x40 MLOAD PUSH1 0x20 ADD PUSH2 0x101A SWAP4 SWAP3 SWAP2 SWAP1 PUSH2 0x3D36 JUMP JUMPDEST PUSH1 0x40 MLOAD PUSH1 0x20 DUP2 DUP4 SUB SUB DUP2 MSTORE SWAP1 PUSH1 0x40 MSTORE SWAP1 POP JUMPDEST SWAP2 SWAP1 POP JUMP JUMPDEST PUSH2 0x1039 PUSH2 0x2900 JUMP JUMPDEST PUSH1 0x0 PUSH2 0x1095 PUSH1 0x4 DUP6 PUSH1 0x40 MLOAD PUSH1 0x20 ADD PUSH2 0x1051 SWAP2 SWAP1 PUSH2 0x3D8A JUMP JUMPDEST PUSH1 0x40 MLOAD PUSH1 0x20 DUP2 DUP4 SUB SUB DUP2 MSTORE SWAP1 PUSH1 0x40 MSTORE DUP6 PUSH1 0x40 MLOAD PUSH1 0x20 ADD PUSH2 0x1071 SWAP2 SWAP1 PUSH2 0x3D8A JUMP JUMPDEST PUSH1 0x40 MLOAD PUSH1 0x20 DUP2 DUP4 SUB SUB DUP2 MSTORE SWAP1 PUSH1 0x40 MSTORE PUSH1 0x40 MLOAD DUP1 PUSH1 0x20 ADD PUSH1 0x40 MSTORE DUP1 PUSH1 0x0 DUP2 MSTORE POP PUSH2 0x1A7A JUMP JUMPDEST SWAP1 POP PUSH2 0x10A0 DUP2 PUSH2 0x1B6F JUMP JUMPDEST SWAP2 POP PUSH2 0x10AD DUP6 DUP5 DUP5 PUSH2 0x20AD JUMP JUMPDEST POP SWAP4 SWAP3 POP POP POP JUMP JUMPDEST PUSH1 0x60 PUSH2 0x10C8 PUSH2 0x10C3 DUP4 PUSH2 0x2215 JUMP JUMPDEST PUSH2 0x1100 JUMP JUMPDEST SWAP1 POP SWAP2 SWAP1 POP JUMP JUMPDEST PUSH1 0x60 PUSH2 0x10F9 DUP3 PUSH1 0x40 MLOAD PUSH1 0x20 ADD PUSH2 0x10E5 SWAP2 SWAP1 PUSH2 0x3DED JUMP JUMPDEST PUSH1 0x40 MLOAD PUSH1 0x20 DUP2 DUP4 SUB SUB DUP2 MSTORE SWAP1 PUSH1 0x40 MSTORE PUSH2 0x1100 JUMP JUMPDEST SWAP1 POP SWAP2 SWAP1 POP JUMP JUMPDEST PUSH1 0x60 DUP1 PUSH1 0x1 DUP4 MLOAD EQ DUP1 ISZERO PUSH2 0x1138 JUMPI POP PUSH1 0x80 DUP4 PUSH1 0x0 DUP2 MLOAD DUP2 LT PUSH2 0x1125 JUMPI PUSH2 0x1124 PUSH2 0x30D3 JUMP JUMPDEST JUMPDEST PUSH1 0x20 ADD ADD MLOAD PUSH1 0xF8 SHR PUSH1 0xF8 SHL PUSH1 0xF8 SHR PUSH1 0xFF AND LT JUMPDEST ISZERO PUSH2 0x1145 JUMPI DUP3 SWAP1 POP PUSH2 0x1175 JUMP JUMPDEST PUSH2 0x1151 DUP4 MLOAD PUSH1 0x80 PUSH2 0x238C JUMP JUMPDEST DUP4 PUSH1 0x40 MLOAD PUSH1 0x20 ADD PUSH2 0x1163 SWAP3 SWAP2 SWAP1 PUSH2 0x3E08 JUMP JUMPDEST PUSH1 0x40 MLOAD PUSH1 0x20 DUP2 DUP4 SUB SUB DUP2 MSTORE SWAP1 PUSH1 0x40 MSTORE SWAP1 POP JUMPDEST DUP1 SWAP2 POP POP SWAP2 SWAP1 POP JUMP JUMPDEST PUSH1 0x60 PUSH1 0x0 PUSH2 0x118B DUP4 PUSH2 0x25D8 JUMP JUMPDEST SWAP1 POP PUSH2 0x1199 DUP2 MLOAD PUSH1 0xC0 PUSH2 0x238C JUMP JUMPDEST DUP2 PUSH1 0x40 MLOAD PUSH1 0x20 ADD PUSH2 0x11AB SWAP3 SWAP2 SWAP1 PUSH2 0x3E08 JUMP JUMPDEST PUSH1 0x40 MLOAD PUSH1 0x20 DUP2 DUP4 SUB SUB DUP2 MSTORE SWAP1 PUSH1 0x40 MSTORE SWAP2 POP POP SWAP2 SWAP1 POP JUMP JUMPDEST PUSH1 0x0 DUP1 PUSH1 0x0 DUP5 DUP5 DUP2 MLOAD DUP2 LT PUSH2 0x11DA JUMPI PUSH2 0x11D9 PUSH2 0x30D3 JUMP JUMPDEST JUMPDEST PUSH1 0x20 ADD ADD MLOAD PUSH1 0xF8 SHR PUSH1 0xF8 SHL PUSH1 0xF8 SHR PUSH1 0xFF AND SWAP1 POP PUSH1 0xA0 DUP2 LT DUP1 PUSH2 0x11FC JUMPI POP PUSH1 0xB7 DUP2 GT JUMPDEST ISZERO PUSH2 0x1233 JUMPI PUSH1 0x40 MLOAD PUSH32 0xF3B0CA7000000000000000000000000000000000000000000000000000000000 DUP2 MSTORE PUSH1 0x4 ADD PUSH1 0x40 MLOAD DUP1 SWAP2 SUB SWAP1 REVERT JUMPDEST PUSH1 0xA0 DUP2 PUSH2 0x1240 SWAP2 SWAP1 PUSH2 0x306B JUMP JUMPDEST SWAP3 POP PUSH1 0x1 DUP5 PUSH2 0x124F SWAP2 SWAP1 PUSH2 0x309F JUMP JUMPDEST SWAP2 POP POP SWAP3 POP SWAP3 SWAP1 POP JUMP JUMPDEST PUSH1 0x0 DUP1 PUSH1 0x60 PUSH1 0xF8 SHL PUSH1 0x60 PUSH1 0xF8 SHL DUP6 DUP6 DUP2 MLOAD DUP2 LT PUSH2 0x1279 JUMPI PUSH2 0x1278 PUSH2 0x30D3 JUMP JUMPDEST JUMPDEST PUSH1 0x20 ADD ADD MLOAD PUSH1 0xF8 SHR PUSH1 0xF8 SHL AND PUSH31 0xFFFFFFFFFFFFFFFFFFFFFFFFFFFFFFFFFFFFFFFFFFFFFFFFFFFFFFFFFFFFFF NOT AND EQ PUSH2 0x12DE JUMPI PUSH1 0x40 MLOAD PUSH32 0xC75CD84000000000000000000000000000000000000000000000000000000000 DUP2 MSTORE PUSH1 0x4 ADD PUSH1 0x40 MLOAD DUP1 SWAP2 SUB SWAP1 REVERT JUMPDEST PUSH1 0x0 PUSH1 0x60 DUP6 DUP6 DUP1 PUSH2 0x12EE SWAP1 PUSH2 0x3E2C JUMP JUMPDEST SWAP7 POP DUP2 MLOAD DUP2 LT PUSH2 0x1301 JUMPI PUSH2 0x1300 PUSH2 0x30D3 JUMP JUMPDEST JUMPDEST PUSH1 0x20 ADD ADD MLOAD PUSH1 0xF8 SHR PUSH1 0xF8 SHL PUSH1 0xF8 SHR XOR SWAP1 POP DUP1 DUP5 DUP7 PUSH1 0x20 ADD ADD KECCAK256 SWAP2 POP DUP1 PUSH1 0xFF AND DUP5 PUSH2 0x132B SWAP2 SWAP1 PUSH2 0x309F JUMP JUMPDEST SWAP3 POP POP SWAP3 POP SWAP3 SWAP1 POP JUMP JUMPDEST PUSH1 0x0 DUP1 PUSH1 0x0 DUP5 DUP5 DUP2 MLOAD DUP2 LT PUSH2 0x134D JUMPI PUSH2 0x134C PUSH2 0x30D3 JUMP JUMPDEST JUMPDEST PUSH1 0x20 ADD ADD MLOAD PUSH1 0xF8 SHR PUSH1 0xF8 SHL PUSH1 0xF8 SHR SWAP1 POP PUSH1 0x0 PUSH1 0x17 DUP3 PUSH1 0xFF AND GT PUSH2 0x1389 JUMPI PUSH1 0x1 DUP6 PUSH2 0x1377 SWAP2 SWAP1 PUSH2 0x309F JUMP JUMPDEST DUP3 DUP1 PUSH1 0xFF AND SWAP1 POP SWAP4 POP SWAP4 POP POP POP PUSH2 0x15E5 JUMP JUMPDEST PUSH1 0x58 DUP3 PUSH1 0xFF AND SUB PUSH2 0x13D9 JUMPI DUP6 DUP6 PUSH2 0x139F SWAP1 PUSH2 0x3E2C JUMP JUMPDEST SWAP6 POP DUP6 DUP2 MLOAD DUP2 LT PUSH2 0x13B3 JUMPI PUSH2 0x13B2 PUSH2 0x30D3 JUMP JUMPDEST JUMPDEST PUSH1 0x20 ADD ADD MLOAD PUSH1 0xF8 SHR PUSH1 0xF8 SHL PUSH1 0xF8 SHR PUSH1 0xFF AND SWAP1 POP DUP5 DUP1 PUSH2 0x13D1 SWAP1 PUSH2 0x3E2C JUMP JUMPDEST SWAP6 POP POP PUSH2 0x1510 JUMP JUMPDEST PUSH1 0x40 DUP1 DUP4 AND PUSH1 0xFF AND SUB PUSH2 0x1420 JUMPI PUSH1 0x40 DUP7 DUP7 DUP1 PUSH2 0x13F4 SWAP1 PUSH2 0x3E2C JUMP JUMPDEST SWAP8 POP DUP2 MLOAD DUP2 LT PUSH2 0x1407 JUMPI PUSH2 0x1406 PUSH2 0x30D3 JUMP JUMPDEST JUMPDEST PUSH1 0x20 ADD ADD MLOAD PUSH1 0xF8 SHR PUSH1 0xF8 SHL PUSH1 0xF8 SHR XOR PUSH1 0xFF AND SWAP1 POP PUSH2 0x150F JUMP JUMPDEST PUSH1 0x10 DUP1 DUP4 AND PUSH1 0xFF AND SUB PUSH2 0x14D1 JUMPI PUSH1 0x18 DUP3 PUSH1 0xFF AND SUB PUSH2 0x1441 JUMPI PUSH1 0x1 SWAP1 POP PUSH2 0x14BD JUMP JUMPDEST PUSH1 0x19 DUP3 PUSH1 0xFF AND SUB PUSH2 0x1455 JUMPI PUSH1 0x2 SWAP1 POP PUSH2 0x14BC JUMP JUMPDEST PUSH1 0x1A DUP3 PUSH1 0xFF AND SUB PUSH2 0x1469 JUMPI PUSH1 0x4 SWAP1 POP PUSH2 0x14BB JUMP JUMPDEST PUSH1 0x1B DUP3 PUSH1 0xFF AND SUB PUSH2 0x147D JUMPI PUSH1 0x8 SWAP1 POP PUSH2 0x14BA JUMP JUMPDEST DUP2 PUSH1 0x40 MLOAD PUSH32 0x65E2DC5E00000000000000000000000000000000000000000000000000000000 DUP2 MSTORE PUSH1 0x4 ADD PUSH2 0x14B1 SWAP2 SWAP1 PUSH2 0x3E83 JUMP JUMPDEST PUSH1 0x40 MLOAD DUP1 SWAP2 SUB SWAP1 REVERT JUMPDEST JUMPDEST JUMPDEST JUMPDEST PUSH1 0x1 DUP6 PUSH2 0x14CA SWAP2 SWAP1 PUSH2 0x309F JUMP JUMPDEST SWAP5 POP PUSH2 0x150E JUMP JUMPDEST DUP2 PUSH1 0x40 MLOAD PUSH32 0xF98DF29D00000000000000000000000000000000000000000000000000000000 DUP2 MSTORE PUSH1 0x4 ADD PUSH2 0x1505 SWAP2 SWAP1 PUSH2 0x3E83 JUMP JUMPDEST PUSH1 0x40 MLOAD DUP1 SWAP2 SUB SWAP1 REVERT JUMPDEST JUMPDEST JUMPDEST PUSH1 0x20 DUP2 GT ISZERO PUSH2 0x1556 JUMPI DUP1 PUSH1 0x40 MLOAD PUSH32 0xF28B0FC300000000000000000000000000000000000000000000000000000000 DUP2 MSTORE PUSH1 0x4 ADD PUSH2 0x154D SWAP2 SWAP1 PUSH2 0x3B35 JUMP JUMPDEST PUSH1 0x40 MLOAD DUP1 SWAP2 SUB SWAP1 REVERT JUMPDEST DUP6 MLOAD DUP2 DUP7 PUSH2 0x1564 SWAP2 SWAP1 PUSH2 0x309F JUMP JUMPDEST GT ISZERO PUSH2 0x15AC JUMPI DUP6 MLOAD DUP6 DUP3 PUSH1 0x40 MLOAD PUSH32 0xF5E1D23200000000000000000000000000000000000000000000000000000000 DUP2 MSTORE PUSH1 0x4 ADD PUSH2 0x15A3 SWAP4 SWAP3 SWAP2 SWAP1 PUSH2 0x3E9E JUMP JUMPDEST PUSH1 0x40 MLOAD DUP1 SWAP2 SUB SWAP1 REVERT JUMPDEST DUP5 DUP7 PUSH1 0x20 ADD ADD MLOAD SWAP3 POP PUSH1 0x8 DUP2 PUSH2 0x15C2 SWAP2 SWAP1 PUSH2 0x3029 JUMP JUMPDEST PUSH2 0x100 PUSH2 0x15CF SWAP2 SWAP1 PUSH2 0x306B JUMP JUMPDEST DUP4 SWAP1 SHR SWAP3 POP DUP1 DUP6 PUSH2 0x15E0 SWAP2 SWAP1 PUSH2 0x309F JUMP JUMPDEST SWAP4 POP POP POP JUMPDEST SWAP3 POP SWAP3 SWAP1 POP JUMP JUMPDEST PUSH1 0x0 PUSH2 0x15F6 PUSH2 0x28CC JUMP JUMPDEST PUSH1 0x0 PUSH2 0x1602 DUP6 DUP6 PUSH2 0x11C2 JUMP JUMPDEST DUP1 SWAP5 POP DUP2 SWAP3 POP POP POP JUMPDEST PUSH1 0x0 DUP2 GT ISZERO PUSH2 0x1969 JUMPI PUSH1 0x1 DUP2 PUSH2 0x1621 SWAP2 SWAP1 PUSH2 0x306B JUMP JUMPDEST SWAP1 POP PUSH1 0x0 PUSH2 0x162F DUP7 DUP6 PUSH2 0x1259 JUMP JUMPDEST DUP1 SWAP3 POP DUP2 SWAP6 POP POP POP PUSH32 0x7855B46A623A8ECABAC76ED697AA4E13631E3B6718C8A0D342860C13C30D2FC DUP2 SUB PUSH2 0x1685 JUMPI PUSH1 0x0 PUSH2 0x166A DUP8 DUP7 PUSH2 0x1335 JUMP JUMPDEST DUP1 SWAP3 POP DUP2 SWAP7 POP POP POP DUP1 PUSH1 0x0 SHL DUP5 PUSH1 0x0 ADD DUP2 DUP2 MSTORE POP POP POP PUSH2 0x1963 JUMP JUMPDEST PUSH32 0xB902DD46FF1895E2E3EFBE277C6B8857FFC82D78A1F8A424CB69A98D1D793A78 DUP2 SUB PUSH2 0x16D3 JUMPI PUSH1 0x0 PUSH2 0x16B8 DUP8 DUP7 PUSH2 0x1335 JUMP JUMPDEST DUP1 SWAP3 POP DUP2 SWAP7 POP POP POP DUP1 PUSH1 0x0 SHL DUP5 PUSH1 0x20 ADD DUP2 DUP2 MSTORE POP POP POP PUSH2 0x1962 JUMP JUMPDEST PUSH32 0xC9CE34DA33857C4F6CA41E6EEA2E497E0E5427CDD674AB6882ABF0D8379B3ABA DUP2 SUB PUSH2 0x1716 JUMPI PUSH2 0x1704 DUP7 DUP6 PUSH2 0x1335 JUMP JUMPDEST DUP5 PUSH1 0x60 ADD DUP2 DUP2 MSTORE POP DUP2 SWAP6 POP POP POP PUSH2 0x1961 JUMP JUMPDEST PUSH32 0x838F7B521E7905679D639E84410A3A3D07B9B568B2FC0922C31B364EE245BE8D DUP2 SUB PUSH2 0x192E JUMPI PUSH1 0x58 PUSH1 0xF8 SHL DUP7 DUP6 DUP1 PUSH2 0x174E SWAP1 PUSH2 0x3E2C JUMP JUMPDEST SWAP7 POP DUP2 MLOAD DUP2 LT PUSH2 0x1761 JUMPI PUSH2 0x1760 PUSH2 0x30D3 JUMP JUMPDEST JUMPDEST PUSH1 0x20 ADD ADD MLOAD PUSH1 0xF8 SHR PUSH1 0xF8 SHL PUSH31 0xFFFFFFFFFFFFFFFFFFFFFFFFFFFFFFFFFFFFFFFFFFFFFFFFFFFFFFFFFFFFFF NOT AND EQ PUSH2 0x17FC JUMPI DUP6 PUSH1 0x1 DUP6 PUSH2 0x17A1 SWAP2 SWAP1 PUSH2 0x306B JUMP JUMPDEST DUP2 MLOAD DUP2 LT PUSH2 0x17B2 JUMPI PUSH2 0x17B1 PUSH2 0x30D3 JUMP JUMPDEST JUMPDEST PUSH1 0x20 ADD ADD MLOAD PUSH1 0xF8 SHR PUSH1 0xF8 SHL PUSH1 0xF8 SHR PUSH1 0x40 MLOAD PUSH32 0xF98DF29D00000000000000000000000000000000000000000000000000000000 DUP2 MSTORE PUSH1 0x4 ADD PUSH2 0x17F3 SWAP2 SWAP1 PUSH2 0x3E83 JUMP JUMPDEST PUSH1 0x40 MLOAD DUP1 SWAP2 SUB SWAP1 REVERT JUMPDEST PUSH1 0x40 PUSH1 0xF8 SHL DUP7 DUP6 DUP1 PUSH2 0x180D SWAP1 PUSH2 0x3E2C JUMP JUMPDEST SWAP7 POP DUP2 MLOAD DUP2 LT PUSH2 0x1820 JUMPI PUSH2 0x181F PUSH2 0x30D3 JUMP JUMPDEST JUMPDEST PUSH1 0x20 ADD ADD MLOAD PUSH1 0xF8 SHR PUSH1 0xF8 SHL PUSH31 0xFFFFFFFFFFFFFFFFFFFFFFFFFFFFFFFFFFFFFFFFFFFFFFFFFFFFFFFFFFFFFF NOT AND EQ PUSH2 0x18BB JUMPI DUP6 PUSH1 0x1 DUP6 PUSH2 0x1860 SWAP2 SWAP1 PUSH2 0x306B JUMP JUMPDEST DUP2 MLOAD DUP2 LT PUSH2 0x1871 JUMPI PUSH2 0x1870 PUSH2 0x30D3 JUMP JUMPDEST JUMPDEST PUSH1 0x20 ADD ADD MLOAD PUSH1 0xF8 SHR PUSH1 0xF8 SHL PUSH1 0xF8 SHR PUSH1 0x40 MLOAD PUSH32 0x65E2DC5E00000000000000000000000000000000000000000000000000000000 DUP2 MSTORE PUSH1 0x4 ADD PUSH2 0x18B2 SWAP2 SWAP1 PUSH2 0x3E83 JUMP JUMPDEST PUSH1 0x40 MLOAD DUP1 SWAP2 SUB SWAP1 REVERT JUMPDEST PUSH1 0x0 PUSH1 0x20 DUP6 ADD DUP8 ADD MLOAD SWAP1 POP DUP1 PUSH1 0x0 SHL DUP5 PUSH1 0x40 ADD MLOAD PUSH1 0x0 PUSH1 0x2 DUP2 LT PUSH2 0x18E2 JUMPI PUSH2 0x18E1 PUSH2 0x30D3 JUMP JUMPDEST JUMPDEST PUSH1 0x20 MUL ADD DUP2 DUP2 MSTORE POP POP PUSH1 0x40 DUP6 ADD DUP8 ADD MLOAD SWAP1 POP DUP1 PUSH1 0x0 SHL DUP5 PUSH1 0x40 ADD MLOAD PUSH1 0x1 PUSH1 0x2 DUP2 LT PUSH2 0x1910 JUMPI PUSH2 0x190F PUSH2 0x30D3 JUMP JUMPDEST JUMPDEST PUSH1 0x20 MUL ADD DUP2 DUP2 MSTORE POP POP PUSH1 0x40 DUP6 PUSH2 0x1926 SWAP2 SWAP1 PUSH2 0x309F JUMP JUMPDEST SWAP5 POP POP PUSH2 0x1960 JUMP JUMPDEST PUSH1 0x40 MLOAD PUSH32 0xC75CD84000000000000000000000000000000000000000000000000000000000 DUP2 MSTORE PUSH1 0x4 ADD PUSH1 0x40 MLOAD DUP1 SWAP2 SUB SWAP1 REVERT JUMPDEST JUMPDEST JUMPDEST JUMPDEST POP PUSH2 0x160B JUMP JUMPDEST POP SWAP3 POP SWAP3 SWAP1 POP JUMP JUMPDEST PUSH1 0x0 PUSH2 0x197D DUP4 DUP4 PUSH2 0x275E JUMP JUMPDEST SWAP1 POP SWAP3 SWAP2 POP POP JUMP JUMPDEST PUSH1 0x60 PUSH1 0x0 DUP1 PUSH20 0x100000000000000000000000000000000000003 PUSH20 0xFFFFFFFFFFFFFFFFFFFFFFFFFFFFFFFFFFFFFFFF AND DUP8 DUP8 DUP8 DUP8 PUSH1 0x40 MLOAD PUSH1 0x20 ADD PUSH2 0x19CC SWAP5 SWAP4 SWAP3 SWAP2 SWAP1 PUSH2 0x3EE4 JUMP JUMPDEST PUSH1 0x40 MLOAD PUSH1 0x20 DUP2 DUP4 SUB SUB DUP2 MSTORE SWAP1 PUSH1 0x40 MSTORE PUSH1 0x40 MLOAD PUSH2 0x19E8 SWAP2 SWAP1 PUSH2 0x2E99 JUMP JUMPDEST PUSH1 0x0 PUSH1 0x40 MLOAD DUP1 DUP4 SUB DUP2 DUP6 GAS STATICCALL SWAP2 POP POP RETURNDATASIZE DUP1 PUSH1 0x0 DUP2 EQ PUSH2 0x1A23 JUMPI PUSH1 0x40 MLOAD SWAP2 POP PUSH1 0x1F NOT PUSH1 0x3F RETURNDATASIZE ADD AND DUP3 ADD PUSH1 0x40 MSTORE RETURNDATASIZE DUP3 MSTORE RETURNDATASIZE PUSH1 0x0 PUSH1 0x20 DUP5 ADD RETURNDATACOPY PUSH2 0x1A28 JUMP JUMPDEST PUSH1 0x60 SWAP2 POP JUMPDEST POP SWAP2 POP SWAP2 POP DUP2 PUSH2 0x1A6D JUMPI PUSH1 0x40 MLOAD PUSH32 0x8C379A000000000000000000000000000000000000000000000000000000000 DUP2 MSTORE PUSH1 0x4 ADD PUSH2 0x1A64 SWAP1 PUSH2 0x3F83 JUMP JUMPDEST PUSH1 0x40 MLOAD DUP1 SWAP2 SUB SWAP1 REVERT JUMPDEST DUP1 SWAP3 POP POP POP SWAP5 SWAP4 POP POP POP POP JUMP JUMPDEST PUSH1 0x60 PUSH1 0x0 DUP1 PUSH20 0x100000000000000000000000000000000000006 PUSH20 0xFFFFFFFFFFFFFFFFFFFFFFFFFFFFFFFFFFFFFFFF AND DUP8 DUP8 DUP8 DUP8 PUSH1 0x40 MLOAD PUSH1 0x20 ADD PUSH2 0x1AC1 SWAP5 SWAP4 SWAP3 SWAP2 SWAP1 PUSH2 0x401A JUMP JUMPDEST PUSH1 0x40 MLOAD PUSH1 0x20 DUP2 DUP4 SUB SUB DUP2 MSTORE SWAP1 PUSH1 0x40 MSTORE PUSH1 0x40 MLOAD PUSH2 0x1ADD SWAP2 SWAP1 PUSH2 0x2E99 JUMP JUMPDEST PUSH1 0x0 PUSH1 0x40 MLOAD DUP1 DUP4 SUB DUP2 DUP6 GAS STATICCALL SWAP2 POP POP RETURNDATASIZE DUP1 PUSH1 0x0 DUP2 EQ PUSH2 0x1B18 JUMPI PUSH1 0x40 MLOAD SWAP2 POP PUSH1 0x1F NOT PUSH1 0x3F RETURNDATASIZE ADD AND DUP3 ADD PUSH1 0x40 MSTORE RETURNDATASIZE DUP3 MSTORE RETURNDATASIZE PUSH1 0x0 PUSH1 0x20 DUP5 ADD RETURNDATACOPY PUSH2 0x1B1D JUMP JUMPDEST PUSH1 0x60 SWAP2 POP JUMPDEST POP SWAP2 POP SWAP2 POP DUP2 PUSH2 0x1B62 JUMPI PUSH1 0x40 MLOAD PUSH32 0x8C379A000000000000000000000000000000000000000000000000000000000 DUP2 MSTORE PUSH1 0x4 ADD PUSH2 0x1B59 SWAP1 PUSH2 0x40C0 JUMP JUMPDEST PUSH1 0x40 MLOAD DUP1 SWAP2 SUB SWAP1 REVERT JUMPDEST DUP1 SWAP3 POP POP POP SWAP5 SWAP4 POP POP POP POP JUMP JUMPDEST PUSH2 0x1B77 PUSH2 0x2900 JUMP JUMPDEST PUSH1 0x8 DUP3 MLOAD LT ISZERO PUSH2 0x1BB3 JUMPI PUSH1 0x40 MLOAD PUSH32 0x86CD05C500000000000000000000000000000000000000000000000000000000 DUP2 MSTORE PUSH1 0x4 ADD PUSH1 0x40 MLOAD DUP1 SWAP2 SUB SWAP1 REVERT JUMPDEST PUSH1 0x30 PUSH1 0xF8 SHL DUP3 PUSH1 0x0 DUP2 MLOAD DUP2 LT PUSH2 0x1BCC JUMPI PUSH2 0x1BCB PUSH2 0x30D3 JUMP JUMPDEST JUMPDEST PUSH1 0x20 ADD ADD MLOAD PUSH1 0xF8 SHR PUSH1 0xF8 SHL PUSH31 0xFFFFFFFFFFFFFFFFFFFFFFFFFFFFFFFFFFFFFFFFFFFFFFFFFFFFFFFFFFFFFF NOT AND EQ PUSH2 0x1C30 JUMPI PUSH1 0x40 MLOAD PUSH32 0x86CD05C500000000000000000000000000000000000000000000000000000000 DUP2 MSTORE PUSH1 0x4 ADD PUSH1 0x40 MLOAD DUP1 SWAP2 SUB SWAP1 REVERT JUMPDEST PUSH1 0x2 PUSH1 0xF8 SHL DUP3 PUSH1 0x2 DUP2 MLOAD DUP2 LT PUSH2 0x1C49 JUMPI PUSH2 0x1C48 PUSH2 0x30D3 JUMP JUMPDEST JUMPDEST PUSH1 0x20 ADD ADD MLOAD PUSH1 0xF8 SHR PUSH1 0xF8 SHL PUSH31 0xFFFFFFFFFFFFFFFFFFFFFFFFFFFFFFFFFFFFFFFFFFFFFFFFFFFFFFFFFFFFFF NOT AND EQ PUSH2 0x1CAD JUMPI PUSH1 0x40 MLOAD PUSH32 0x86CD05C500000000000000000000000000000000000000000000000000000000 DUP2 MSTORE PUSH1 0x4 ADD PUSH1 0x40 MLOAD DUP1 SWAP2 SUB SWAP1 REVERT JUMPDEST PUSH1 0x0 DUP3 PUSH1 0x1 DUP2 MLOAD DUP2 LT PUSH2 0x1CC3 JUMPI PUSH2 0x1CC2 PUSH2 0x30D3 JUMP JUMPDEST JUMPDEST PUSH1 0x20 ADD ADD MLOAD PUSH1 0xF8 SHR PUSH1 0xF8 SHL PUSH1 0xF8 SHR PUSH1 0xFF AND SWAP1 POP PUSH1 0x0 DUP4 PUSH1 0x3 DUP2 MLOAD DUP2 LT PUSH2 0x1CEC JUMPI PUSH2 0x1CEB PUSH2 0x30D3 JUMP JUMPDEST JUMPDEST PUSH1 0x20 ADD ADD MLOAD PUSH1 0xF8 SHR PUSH1 0xF8 SHL PUSH1 0xF8 SHR PUSH1 0xFF AND SWAP1 POP PUSH1 0x21 DUP2 GT ISZERO PUSH2 0x1D3A JUMPI PUSH1 0x40 MLOAD PUSH32 0x86CD05C500000000000000000000000000000000000000000000000000000000 DUP2 MSTORE PUSH1 0x4 ADD PUSH1 0x40 MLOAD DUP1 SWAP2 SUB SWAP1 REVERT JUMPDEST PUSH1 0x0 DUP2 PUSH1 0x4 PUSH2 0x1D49 SWAP2 SWAP1 PUSH2 0x309F JUMP JUMPDEST SWAP1 POP PUSH1 0x0 DUP6 PUSH1 0x1 DUP4 PUSH2 0x1D5B SWAP2 SWAP1 PUSH2 0x309F JUMP JUMPDEST DUP2 MLOAD DUP2 LT PUSH2 0x1D6C JUMPI PUSH2 0x1D6B PUSH2 0x30D3 JUMP JUMPDEST JUMPDEST PUSH1 0x20 ADD ADD MLOAD PUSH1 0xF8 SHR PUSH1 0xF8 SHL PUSH1 0xF8 SHR PUSH1 0xFF AND SWAP1 POP PUSH1 0x21 DUP2 GT ISZERO PUSH2 0x1DBA JUMPI PUSH1 0x40 MLOAD PUSH32 0x86CD05C500000000000000000000000000000000000000000000000000000000 DUP2 MSTORE PUSH1 0x4 ADD PUSH1 0x40 MLOAD DUP1 SWAP2 SUB SWAP1 REVERT JUMPDEST PUSH1 0x2 PUSH1 0xF8 SHL DUP7 DUP4 DUP2 MLOAD DUP2 LT PUSH2 0x1DD2 JUMPI PUSH2 0x1DD1 PUSH2 0x30D3 JUMP JUMPDEST JUMPDEST PUSH1 0x20 ADD ADD MLOAD PUSH1 0xF8 SHR PUSH1 0xF8 SHL PUSH31 0xFFFFFFFFFFFFFFFFFFFFFFFFFFFFFFFFFFFFFFFFFFFFFFFFFFFFFFFFFFFFFF NOT AND EQ PUSH2 0x1E36 JUMPI PUSH1 0x40 MLOAD PUSH32 0x86CD05C500000000000000000000000000000000000000000000000000000000 DUP2 MSTORE PUSH1 0x4 ADD PUSH1 0x40 MLOAD DUP1 SWAP2 SUB SWAP1 REVERT JUMPDEST DUP4 PUSH1 0x4 DUP3 DUP6 PUSH2 0x1E45 SWAP2 SWAP1 PUSH2 0x309F JUMP JUMPDEST PUSH2 0x1E4F SWAP2 SWAP1 PUSH2 0x309F JUMP JUMPDEST EQ PUSH2 0x1E86 JUMPI PUSH1 0x40 MLOAD PUSH32 0x86CD05C500000000000000000000000000000000000000000000000000000000 DUP2 MSTORE PUSH1 0x4 ADD PUSH1 0x40 MLOAD DUP1 SWAP2 SUB SWAP1 REVERT JUMPDEST PUSH1 0x2 DUP5 PUSH2 0x1E93 SWAP2 SWAP1 PUSH2 0x309F JUMP JUMPDEST DUP7 MLOAD EQ PUSH2 0x1ECC JUMPI PUSH1 0x40 MLOAD PUSH32 0x86CD05C500000000000000000000000000000000000000000000000000000000 DUP2 MSTORE PUSH1 0x4 ADD PUSH1 0x40 MLOAD DUP1 SWAP2 SUB SWAP1 REVERT JUMPDEST PUSH1 0x2 DUP3 PUSH2 0x1ED9 SWAP2 SWAP1 PUSH2 0x309F JUMP JUMPDEST SWAP2 POP PUSH1 0x0 PUSH1 0x4 SWAP1 POP PUSH1 0x21 DUP5 SUB PUSH2 0x1F85 JUMPI PUSH1 0x0 PUSH1 0xF8 SHL DUP8 PUSH1 0x4 DUP2 MLOAD DUP2 LT PUSH2 0x1F02 JUMPI PUSH2 0x1F01 PUSH2 0x30D3 JUMP JUMPDEST JUMPDEST PUSH1 0x20 ADD ADD MLOAD PUSH1 0xF8 SHR PUSH1 0xF8 SHL PUSH31 0xFFFFFFFFFFFFFFFFFFFFFFFFFFFFFFFFFFFFFFFFFFFFFFFFFFFFFFFFFFFFFF NOT AND EQ PUSH2 0x1F66 JUMPI PUSH1 0x40 MLOAD PUSH32 0x86CD05C500000000000000000000000000000000000000000000000000000000 DUP2 MSTORE PUSH1 0x4 ADD PUSH1 0x40 MLOAD DUP1 SWAP2 SUB SWAP1 REVERT JUMPDEST PUSH1 0x1 DUP2 PUSH2 0x1F73 SWAP2 SWAP1 PUSH2 0x309F JUMP JUMPDEST SWAP1 POP PUSH1 0x1 DUP5 PUSH2 0x1F82 SWAP2 SWAP1 PUSH2 0x306B JUMP JUMPDEST SWAP4 POP JUMPDEST PUSH1 0x21 DUP3 SUB PUSH2 0x2028 JUMPI PUSH1 0x0 PUSH1 0xF8 SHL DUP8 DUP5 DUP2 MLOAD DUP2 LT PUSH2 0x1FA5 JUMPI PUSH2 0x1FA4 PUSH2 0x30D3 JUMP JUMPDEST JUMPDEST PUSH1 0x20 ADD ADD MLOAD PUSH1 0xF8 SHR PUSH1 0xF8 SHL PUSH31 0xFFFFFFFFFFFFFFFFFFFFFFFFFFFFFFFFFFFFFFFFFFFFFFFFFFFFFFFFFFFFFF NOT AND EQ PUSH2 0x2009 JUMPI PUSH1 0x40 MLOAD PUSH32 0x86CD05C500000000000000000000000000000000000000000000000000000000 DUP2 MSTORE PUSH1 0x4 ADD PUSH1 0x40 MLOAD DUP1 SWAP2 SUB SWAP1 REVERT JUMPDEST PUSH1 0x1 DUP4 PUSH2 0x2016 SWAP2 SWAP1 PUSH2 0x309F JUMP JUMPDEST SWAP3 POP PUSH1 0x1 DUP3 PUSH2 0x2025 SWAP2 SWAP1 PUSH2 0x306B JUMP JUMPDEST SWAP2 POP JUMPDEST PUSH1 0x0 DUP1 DUP3 PUSH1 0x20 ADD DUP10 ADD MLOAD SWAP2 POP DUP5 PUSH1 0x20 ADD DUP10 ADD MLOAD SWAP1 POP PUSH1 0x20 DUP7 LT ISZERO PUSH2 0x2065 JUMPI DUP6 PUSH1 0x20 PUSH2 0x2053 SWAP2 SWAP1 PUSH2 0x306B JUMP JUMPDEST PUSH1 0x8 PUSH2 0x205F SWAP2 SWAP1 PUSH2 0x3029 JUMP JUMPDEST DUP3 SWAP1 SHR SWAP2 POP JUMPDEST PUSH1 0x20 DUP5 LT ISZERO PUSH2 0x208D JUMPI DUP4 PUSH1 0x20 PUSH2 0x207B SWAP2 SWAP1 PUSH2 0x306B JUMP JUMPDEST PUSH1 0x8 PUSH2 0x2087 SWAP2 SWAP1 PUSH2 0x3029 JUMP JUMPDEST DUP2 SWAP1 SHR SWAP1 POP JUMPDEST DUP2 DUP9 PUSH1 0x0 ADD DUP2 DUP2 MSTORE POP POP DUP1 DUP9 PUSH1 0x20 ADD DUP2 DUP2 MSTORE POP POP POP POP POP POP POP POP POP SWAP2 SWAP1 POP JUMP JUMPDEST PUSH1 0x1B DUP2 PUSH1 0x40 ADD DUP2 DUP2 MSTORE POP POP DUP3 PUSH20 0xFFFFFFFFFFFFFFFFFFFFFFFFFFFFFFFFFFFFFFFF AND PUSH1 0x1 DUP4 DUP4 PUSH1 0x40 ADD MLOAD DUP5 PUSH1 0x0 ADD MLOAD DUP6 PUSH1 0x20 ADD MLOAD PUSH1 0x40 MLOAD PUSH1 0x0 DUP2 MSTORE PUSH1 0x20 ADD PUSH1 0x40 MSTORE PUSH1 0x40 MLOAD PUSH2 0x20FE SWAP5 SWAP4 SWAP3 SWAP2 SWAP1 PUSH2 0x40E0 JUMP JUMPDEST PUSH1 0x20 PUSH1 0x40 MLOAD PUSH1 0x20 DUP2 SUB SWAP1 DUP1 DUP5 SUB SWAP1 DUP6 GAS STATICCALL ISZERO DUP1 ISZERO PUSH2 0x2120 JUMPI RETURNDATASIZE PUSH1 0x0 DUP1 RETURNDATACOPY RETURNDATASIZE PUSH1 0x0 REVERT JUMPDEST POP POP POP PUSH1 0x20 PUSH1 0x40 MLOAD SUB MLOAD PUSH20 0xFFFFFFFFFFFFFFFFFFFFFFFFFFFFFFFFFFFFFFFF AND EQ PUSH2 0x2210 JUMPI PUSH1 0x1C DUP2 PUSH1 0x40 ADD DUP2 DUP2 MSTORE POP POP DUP3 PUSH20 0xFFFFFFFFFFFFFFFFFFFFFFFFFFFFFFFFFFFFFFFF AND PUSH1 0x1 DUP4 DUP4 PUSH1 0x40 ADD MLOAD DUP5 PUSH1 0x0 ADD MLOAD DUP6 PUSH1 0x20 ADD MLOAD PUSH1 0x40 MLOAD PUSH1 0x0 DUP2 MSTORE PUSH1 0x20 ADD PUSH1 0x40 MSTORE PUSH1 0x40 MLOAD PUSH2 0x2196 SWAP5 SWAP4 SWAP3 SWAP2 SWAP1 PUSH2 0x40E0 JUMP JUMPDEST PUSH1 0x20 PUSH1 0x40 MLOAD PUSH1 0x20 DUP2 SUB SWAP1 DUP1 DUP5 SUB SWAP1 DUP6 GAS STATICCALL ISZERO DUP1 ISZERO PUSH2 0x21B8 JUMPI RETURNDATASIZE PUSH1 0x0 DUP1 RETURNDATACOPY RETURNDATASIZE PUSH1 0x0 REVERT JUMPDEST POP POP POP PUSH1 0x20 PUSH1 0x40 MLOAD SUB MLOAD PUSH20 0xFFFFFFFFFFFFFFFFFFFFFFFFFFFFFFFFFFFFFFFF AND EQ PUSH2 0x220F JUMPI PUSH1 0x40 MLOAD PUSH32 0x4532600D00000000000000000000000000000000000000000000000000000000 DUP2 MSTORE PUSH1 0x4 ADD PUSH1 0x40 MLOAD DUP1 SWAP2 SUB SWAP1 REVERT JUMPDEST JUMPDEST POP POP POP JUMP JUMPDEST PUSH1 0x60 PUSH1 0x0 DUP3 PUSH1 0x40 MLOAD PUSH1 0x20 ADD PUSH2 0x222A SWAP2 SWAP1 PUSH2 0x4125 JUMP JUMPDEST PUSH1 0x40 MLOAD PUSH1 0x20 DUP2 DUP4 SUB SUB DUP2 MSTORE SWAP1 PUSH1 0x40 MSTORE SWAP1 POP PUSH1 0x0 JUMPDEST PUSH1 0x20 DUP2 LT ISZERO PUSH2 0x229E JUMPI PUSH1 0x0 PUSH1 0xF8 SHL DUP3 DUP3 DUP2 MLOAD DUP2 LT PUSH2 0x225F JUMPI PUSH2 0x225E PUSH2 0x30D3 JUMP JUMPDEST JUMPDEST PUSH1 0x20 ADD ADD MLOAD PUSH1 0xF8 SHR PUSH1 0xF8 SHL PUSH31 0xFFFFFFFFFFFFFFFFFFFFFFFFFFFFFFFFFFFFFFFFFFFFFFFFFFFFFFFFFFFFFF NOT AND SUB PUSH2 0x229E JUMPI DUP1 DUP1 PUSH1 0x1 ADD SWAP2 POP POP PUSH2 0x223E JUMP JUMPDEST PUSH1 0x0 DUP2 PUSH1 0x20 PUSH2 0x22AD SWAP2 SWAP1 PUSH2 0x306B JUMP JUMPDEST PUSH8 0xFFFFFFFFFFFFFFFF DUP2 GT ISZERO PUSH2 0x22C6 JUMPI PUSH2 0x22C5 PUSH2 0x2973 JUMP JUMPDEST JUMPDEST PUSH1 0x40 MLOAD SWAP1 DUP1 DUP3 MSTORE DUP1 PUSH1 0x1F ADD PUSH1 0x1F NOT AND PUSH1 0x20 ADD DUP3 ADD PUSH1 0x40 MSTORE DUP1 ISZERO PUSH2 0x22F8 JUMPI DUP2 PUSH1 0x20 ADD PUSH1 0x1 DUP3 MUL DUP1 CALLDATASIZE DUP4 CALLDATACOPY DUP1 DUP3 ADD SWAP2 POP POP SWAP1 POP JUMPDEST POP SWAP1 POP PUSH1 0x0 JUMPDEST DUP2 MLOAD DUP2 LT ISZERO PUSH2 0x2380 JUMPI DUP4 DUP4 DUP1 PUSH2 0x2313 SWAP1 PUSH2 0x3E2C JUMP JUMPDEST SWAP5 POP DUP2 MLOAD DUP2 LT PUSH2 0x2326 JUMPI PUSH2 0x2325 PUSH2 0x30D3 JUMP JUMPDEST JUMPDEST PUSH1 0x20 ADD ADD MLOAD PUSH1 0xF8 SHR PUSH1 0xF8 SHL DUP3 DUP3 DUP2 MLOAD DUP2 LT PUSH2 0x2344 JUMPI PUSH2 0x2343 PUSH2 0x30D3 JUMP JUMPDEST JUMPDEST PUSH1 0x20 ADD ADD SWAP1 PUSH31 0xFFFFFFFFFFFFFFFFFFFFFFFFFFFFFFFFFFFFFFFFFFFFFFFFFFFFFFFFFFFFFF NOT AND SWAP1 DUP2 PUSH1 0x0 BYTE SWAP1 MSTORE8 POP DUP1 DUP1 PUSH1 0x1 ADD SWAP2 POP POP PUSH2 0x22FE JUMP JUMPDEST POP DUP1 SWAP4 POP POP POP POP SWAP2 SWAP1 POP JUMP JUMPDEST PUSH1 0x60 DUP1 PUSH1 0x38 DUP5 LT ISZERO PUSH2 0x243F JUMPI PUSH1 0x1 PUSH8 0xFFFFFFFFFFFFFFFF DUP2 GT ISZERO PUSH2 0x23B3 JUMPI PUSH2 0x23B2 PUSH2 0x2973 JUMP JUMPDEST JUMPDEST PUSH1 0x40 MLOAD SWAP1 DUP1 DUP3 MSTORE DUP1 PUSH1 0x1F ADD PUSH1 0x1F NOT AND PUSH1 0x20 ADD DUP3 ADD PUSH1 0x40 MSTORE DUP1 ISZERO PUSH2 0x23E5 JUMPI DUP2 PUSH1 0x20 ADD PUSH1 0x1 DUP3 MUL DUP1 CALLDATASIZE DUP4 CALLDATACOPY DUP1 DUP3 ADD SWAP2 POP POP SWAP1 POP JUMPDEST POP SWAP1 POP DUP3 DUP5 PUSH2 0x23F4 SWAP2 SWAP1 PUSH2 0x4140 JUMP JUMPDEST PUSH1 0xF8 SHL DUP2 PUSH1 0x0 DUP2 MLOAD DUP2 LT PUSH2 0x240B JUMPI PUSH2 0x240A PUSH2 0x30D3 JUMP JUMPDEST JUMPDEST PUSH1 0x20 ADD ADD SWAP1 PUSH31 0xFFFFFFFFFFFFFFFFFFFFFFFFFFFFFFFFFFFFFFFFFFFFFFFFFFFFFFFFFFFFFF NOT AND SWAP1 DUP2 PUSH1 0x0 BYTE SWAP1 MSTORE8 POP PUSH2 0x25CE JUMP JUMPDEST PUSH1 0x0 DUP1 PUSH1 0x1 SWAP1 POP JUMPDEST PUSH1 0x0 DUP2 DUP8 PUSH2 0x2455 SWAP2 SWAP1 PUSH2 0x41A4 JUMP JUMPDEST EQ PUSH2 0x247D JUMPI DUP2 DUP1 PUSH2 0x2465 SWAP1 PUSH2 0x3E2C JUMP JUMPDEST SWAP3 POP POP PUSH2 0x100 DUP2 PUSH2 0x2476 SWAP2 SWAP1 PUSH2 0x3029 JUMP JUMPDEST SWAP1 POP PUSH2 0x2447 JUMP JUMPDEST PUSH1 0x1 DUP3 PUSH2 0x248A SWAP2 SWAP1 PUSH2 0x309F JUMP JUMPDEST PUSH8 0xFFFFFFFFFFFFFFFF DUP2 GT ISZERO PUSH2 0x24A3 JUMPI PUSH2 0x24A2 PUSH2 0x2973 JUMP JUMPDEST JUMPDEST PUSH1 0x40 MLOAD SWAP1 DUP1 DUP3 MSTORE DUP1 PUSH1 0x1F ADD PUSH1 0x1F NOT AND PUSH1 0x20 ADD DUP3 ADD PUSH1 0x40 MSTORE DUP1 ISZERO PUSH2 0x24D5 JUMPI DUP2 PUSH1 0x20 ADD PUSH1 0x1 DUP3 MUL DUP1 CALLDATASIZE DUP4 CALLDATACOPY DUP1 DUP3 ADD SWAP2 POP POP SWAP1 POP JUMPDEST POP SWAP3 POP PUSH1 0x37 DUP6 DUP4 PUSH2 0x24E6 SWAP2 SWAP1 PUSH2 0x4140 JUMP JUMPDEST PUSH2 0x24F0 SWAP2 SWAP1 PUSH2 0x4140 JUMP JUMPDEST PUSH1 0xF8 SHL DUP4 PUSH1 0x0 DUP2 MLOAD DUP2 LT PUSH2 0x2507 JUMPI PUSH2 0x2506 PUSH2 0x30D3 JUMP JUMPDEST JUMPDEST PUSH1 0x20 ADD ADD SWAP1 PUSH31 0xFFFFFFFFFFFFFFFFFFFFFFFFFFFFFFFFFFFFFFFFFFFFFFFFFFFFFFFFFFFFFF NOT AND SWAP1 DUP2 PUSH1 0x0 BYTE SWAP1 MSTORE8 POP PUSH1 0x1 SWAP1 POP JUMPDEST DUP2 DUP2 GT PUSH2 0x25CB JUMPI PUSH2 0x100 DUP2 DUP4 PUSH2 0x2551 SWAP2 SWAP1 PUSH2 0x306B JUMP JUMPDEST PUSH2 0x100 PUSH2 0x255E SWAP2 SWAP1 PUSH2 0x4308 JUMP JUMPDEST DUP8 PUSH2 0x2569 SWAP2 SWAP1 PUSH2 0x41A4 JUMP JUMPDEST PUSH2 0x2573 SWAP2 SWAP1 PUSH2 0x4353 JUMP JUMPDEST PUSH1 0xF8 SHL DUP4 DUP3 DUP2 MLOAD DUP2 LT PUSH2 0x2589 JUMPI PUSH2 0x2588 PUSH2 0x30D3 JUMP JUMPDEST JUMPDEST PUSH1 0x20 ADD ADD SWAP1 PUSH31 0xFFFFFFFFFFFFFFFFFFFFFFFFFFFFFFFFFFFFFFFFFFFFFFFFFFFFFFFFFFFFFF NOT AND SWAP1 DUP2 PUSH1 0x0 BYTE SWAP1 MSTORE8 POP DUP1 DUP1 PUSH2 0x25C3 SWAP1 PUSH2 0x3E2C JUMP JUMPDEST SWAP2 POP POP PUSH2 0x253B JUMP JUMPDEST POP POP JUMPDEST DUP1 SWAP2 POP POP SWAP3 SWAP2 POP POP JUMP JUMPDEST PUSH1 0x60 PUSH1 0x0 DUP3 MLOAD SUB PUSH2 0x2638 JUMPI PUSH1 0x0 PUSH8 0xFFFFFFFFFFFFFFFF DUP2 GT ISZERO PUSH2 0x25FE JUMPI PUSH2 0x25FD PUSH2 0x2973 JUMP JUMPDEST JUMPDEST PUSH1 0x40 MLOAD SWAP1 DUP1 DUP3 MSTORE DUP1 PUSH1 0x1F ADD PUSH1 0x1F NOT AND PUSH1 0x20 ADD DUP3 ADD PUSH1 0x40 MSTORE DUP1 ISZERO PUSH2 0x2630 JUMPI DUP2 PUSH1 0x20 ADD PUSH1 0x1 DUP3 MUL DUP1 CALLDATASIZE DUP4 CALLDATACOPY DUP1 DUP3 ADD SWAP2 POP POP SWAP1 POP JUMPDEST POP SWAP1 POP PUSH2 0x2759 JUMP JUMPDEST PUSH1 0x0 DUP1 PUSH1 0x0 SWAP1 POP JUMPDEST DUP4 MLOAD DUP2 LT ISZERO PUSH2 0x267F JUMPI DUP4 DUP2 DUP2 MLOAD DUP2 LT PUSH2 0x265C JUMPI PUSH2 0x265B PUSH2 0x30D3 JUMP JUMPDEST JUMPDEST PUSH1 0x20 MUL PUSH1 0x20 ADD ADD MLOAD MLOAD DUP3 PUSH2 0x2670 SWAP2 SWAP1 PUSH2 0x309F JUMP JUMPDEST SWAP2 POP DUP1 DUP1 PUSH1 0x1 ADD SWAP2 POP POP PUSH2 0x2640 JUMP JUMPDEST PUSH1 0x0 DUP3 PUSH8 0xFFFFFFFFFFFFFFFF DUP2 GT ISZERO PUSH2 0x269B JUMPI PUSH2 0x269A PUSH2 0x2973 JUMP JUMPDEST JUMPDEST PUSH1 0x40 MLOAD SWAP1 DUP1 DUP3 MSTORE DUP1 PUSH1 0x1F ADD PUSH1 0x1F NOT AND PUSH1 0x20 ADD DUP3 ADD PUSH1 0x40 MSTORE DUP1 ISZERO PUSH2 0x26CD JUMPI DUP2 PUSH1 0x20 ADD PUSH1 0x1 DUP3 MUL DUP1 CALLDATASIZE DUP4 CALLDATACOPY DUP1 DUP3 ADD SWAP2 POP POP SWAP1 POP JUMPDEST POP SWAP1 POP PUSH1 0x0 PUSH1 0x20 DUP3 ADD SWAP1 POP PUSH1 0x0 SWAP3 POP JUMPDEST DUP6 MLOAD DUP4 LT ISZERO PUSH2 0x2751 JUMPI PUSH1 0x0 DUP7 DUP5 DUP2 MLOAD DUP2 LT PUSH2 0x26FB JUMPI PUSH2 0x26FA PUSH2 0x30D3 JUMP JUMPDEST JUMPDEST PUSH1 0x20 MUL PUSH1 0x20 ADD ADD MLOAD SWAP1 POP PUSH1 0x0 PUSH1 0x20 DUP3 ADD SWAP1 POP PUSH2 0x2719 DUP4 DUP3 DUP5 MLOAD PUSH2 0x2856 JUMP JUMPDEST DUP8 DUP6 DUP2 MLOAD DUP2 LT PUSH2 0x272C JUMPI PUSH2 0x272B PUSH2 0x30D3 JUMP JUMPDEST JUMPDEST PUSH1 0x20 MUL PUSH1 0x20 ADD ADD MLOAD MLOAD DUP4 PUSH2 0x2740 SWAP2 SWAP1 PUSH2 0x309F JUMP JUMPDEST SWAP3 POP POP POP DUP3 DUP1 PUSH1 0x1 ADD SWAP4 POP POP PUSH2 0x26DD JUMP JUMPDEST DUP2 SWAP5 POP POP POP POP POP JUMPDEST SWAP2 SWAP1 POP JUMP JUMPDEST PUSH1 0x0 DUP1 PUSH1 0x0 PUSH20 0x100000000000000000000000000000000000002 PUSH20 0xFFFFFFFFFFFFFFFFFFFFFFFFFFFFFFFFFFFFFFFF AND DUP6 DUP6 PUSH1 0x40 MLOAD PUSH1 0x20 ADD PUSH2 0x27A1 SWAP3 SWAP2 SWAP1 PUSH2 0x43A2 JUMP JUMPDEST PUSH1 0x40 MLOAD PUSH1 0x20 DUP2 DUP4 SUB SUB DUP2 MSTORE SWAP1 PUSH1 0x40 MSTORE PUSH1 0x40 MLOAD PUSH2 0x27BD SWAP2 SWAP1 PUSH2 0x2E99 JUMP JUMPDEST PUSH1 0x0 PUSH1 0x40 MLOAD DUP1 DUP4 SUB DUP2 DUP6 GAS STATICCALL SWAP2 POP POP RETURNDATASIZE DUP1 PUSH1 0x0 DUP2 EQ PUSH2 0x27F8 JUMPI PUSH1 0x40 MLOAD SWAP2 POP PUSH1 0x1F NOT PUSH1 0x3F RETURNDATASIZE ADD AND DUP3 ADD PUSH1 0x40 MSTORE RETURNDATASIZE DUP3 MSTORE RETURNDATASIZE PUSH1 0x0 PUSH1 0x20 DUP5 ADD RETURNDATACOPY PUSH2 0x27FD JUMP JUMPDEST PUSH1 0x60 SWAP2 POP JUMPDEST POP SWAP2 POP SWAP2 POP DUP2 PUSH2 0x2842 JUMPI PUSH1 0x40 MLOAD PUSH32 0x8C379A000000000000000000000000000000000000000000000000000000000 DUP2 MSTORE PUSH1 0x4 ADD PUSH2 0x2839 SWAP1 PUSH2 0x4417 JUMP JUMPDEST PUSH1 0x40 MLOAD DUP1 SWAP2 SUB SWAP1 REVERT JUMPDEST DUP1 PUSH2 0x284C SWAP1 PUSH2 0x3194 JUMP JUMPDEST SWAP3 POP POP POP SWAP3 SWAP2 POP POP JUMP JUMPDEST PUSH1 0x0 DUP4 SWAP1 POP PUSH1 0x0 DUP4 SWAP1 POP PUSH1 0x0 DUP4 SWAP1 POP JUMPDEST PUSH1 0x20 DUP2 LT PUSH2 0x28A4 JUMPI DUP2 MLOAD DUP4 MSTORE PUSH1 0x20 DUP4 PUSH2 0x287F SWAP2 SWAP1 PUSH2 0x309F JUMP JUMPDEST SWAP3 POP PUSH1 0x20 DUP3 PUSH2 0x288E SWAP2 SWAP1 PUSH2 0x309F JUMP JUMPDEST SWAP2 POP PUSH1 0x20 DUP2 PUSH2 0x289D SWAP2 SWAP1 PUSH2 0x306B JUMP JUMPDEST SWAP1 POP PUSH2 0x2866 JUMP JUMPDEST PUSH1 0x0 PUSH1 0x1 DUP3 PUSH1 0x20 SUB PUSH2 0x100 EXP SUB SWAP1 POP DUP1 NOT DUP4 MLOAD AND DUP2 DUP6 MLOAD AND DUP2 DUP2 OR DUP7 MSTORE POP POP POP POP POP POP POP POP POP JUMP JUMPDEST PUSH1 0x40 MLOAD DUP1 PUSH1 0x80 ADD PUSH1 0x40 MSTORE DUP1 PUSH1 0x0 DUP1 NOT AND DUP2 MSTORE PUSH1 0x20 ADD PUSH1 0x0 DUP1 NOT AND DUP2 MSTORE PUSH1 0x20 ADD PUSH2 0x28F3 PUSH2 0x2927 JUMP JUMPDEST DUP2 MSTORE PUSH1 0x20 ADD PUSH1 0x0 DUP2 MSTORE POP SWAP1 JUMP JUMPDEST PUSH1 0x40 MLOAD DUP1 PUSH1 0x60 ADD PUSH1 0x40 MSTORE DUP1 PUSH1 0x0 DUP1 NOT AND DUP2 MSTORE PUSH1 0x20 ADD PUSH1 0x0 DUP1 NOT AND DUP2 MSTORE PUSH1 0x20 ADD PUSH1 0x0 DUP2 MSTORE POP SWAP1 JUMP JUMPDEST PUSH1 0x40 MLOAD DUP1 PUSH1 0x40 ADD PUSH1 0x40 MSTORE DUP1 PUSH1 0x2 SWAP1 PUSH1 0x20 DUP3 MUL DUP1 CALLDATASIZE DUP4 CALLDATACOPY DUP1 DUP3 ADD SWAP2 POP POP SWAP1 POP POP SWAP1 JUMP JUMPDEST PUSH1 0x0 PUSH1 0x40 MLOAD SWAP1 POP SWAP1 JUMP JUMPDEST PUSH1 0x0 DUP1 REVERT JUMPDEST PUSH1 0x0 DUP1 REVERT JUMPDEST PUSH1 0x0 DUP1 REVERT JUMPDEST PUSH1 0x0 PUSH1 0x1F NOT PUSH1 0x1F DUP4 ADD AND SWAP1 POP SWAP2 SWAP1 POP JUMP JUMPDEST PUSH32 0x4E487B7100000000000000000000000000000000000000000000000000000000 PUSH1 0x0 MSTORE PUSH1 0x41 PUSH1 0x4 MSTORE PUSH1 0x24 PUSH1 0x0 REVERT JUMPDEST PUSH2 0x29AB DUP3 PUSH2 0x2962 JUMP JUMPDEST DUP2 ADD DUP2 DUP2 LT PUSH8 0xFFFFFFFFFFFFFFFF DUP3 GT OR ISZERO PUSH2 0x29CA JUMPI PUSH2 0x29C9 PUSH2 0x2973 JUMP JUMPDEST JUMPDEST DUP1 PUSH1 0x40 MSTORE POP POP POP JUMP JUMPDEST PUSH1 0x0 PUSH2 0x29DD PUSH2 0x2949 JUMP JUMPDEST SWAP1 POP PUSH2 0x29E9 DUP3 DUP3 PUSH2 0x29A2 JUMP JUMPDEST SWAP2 SWAP1 POP JUMP JUMPDEST PUSH1 0x0 PUSH20 0xFFFFFFFFFFFFFFFFFFFFFFFFFFFFFFFFFFFFFFFF DUP3 AND SWAP1 POP SWAP2 SWAP1 POP JUMP JUMPDEST PUSH1 0x0 PUSH2 0x2A19 DUP3 PUSH2 0x29EE JUMP JUMPDEST SWAP1 POP SWAP2 SWAP1 POP JUMP JUMPDEST PUSH2 0x2A29 DUP2 PUSH2 0x2A0E JUMP JUMPDEST DUP2 EQ PUSH2 0x2A34 JUMPI PUSH1 0x0 DUP1 REVERT JUMPDEST POP JUMP JUMPDEST PUSH1 0x0 DUP2 CALLDATALOAD SWAP1 POP PUSH2 0x2A46 DUP2 PUSH2 0x2A20 JUMP JUMPDEST SWAP3 SWAP2 POP POP JUMP JUMPDEST PUSH1 0x0 DUP2 SWAP1 POP SWAP2 SWAP1 POP JUMP JUMPDEST PUSH2 0x2A5F DUP2 PUSH2 0x2A4C JUMP JUMPDEST DUP2 EQ PUSH2 0x2A6A JUMPI PUSH1 0x0 DUP1 REVERT JUMPDEST POP JUMP JUMPDEST PUSH1 0x0 DUP2 CALLDATALOAD SWAP1 POP PUSH2 0x2A7C DUP2 PUSH2 0x2A56 JUMP JUMPDEST SWAP3 SWAP2 POP POP JUMP JUMPDEST PUSH1 0x0 PUSH8 0xFFFFFFFFFFFFFFFF DUP3 AND SWAP1 POP SWAP2 SWAP1 POP JUMP JUMPDEST PUSH2 0x2A9F DUP2 PUSH2 0x2A82 JUMP JUMPDEST DUP2 EQ PUSH2 0x2AAA JUMPI PUSH1 0x0 DUP1 REVERT JUMPDEST POP JUMP JUMPDEST PUSH1 0x0 DUP2 CALLDATALOAD SWAP1 POP PUSH2 0x2ABC DUP2 PUSH2 0x2A96 JUMP JUMPDEST SWAP3 SWAP2 POP POP JUMP JUMPDEST PUSH1 0x0 PUSH1 0x60 DUP3 DUP5 SUB SLT ISZERO PUSH2 0x2AD8 JUMPI PUSH2 0x2AD7 PUSH2 0x295D JUMP JUMPDEST JUMPDEST PUSH2 0x2AE2 PUSH1 0x60 PUSH2 0x29D3 JUMP JUMPDEST SWAP1 POP PUSH1 0x0 PUSH2 0x2AF2 DUP5 DUP3 DUP6 ADD PUSH2 0x2A37 JUMP JUMPDEST PUSH1 0x0 DUP4 ADD MSTORE POP PUSH1 0x20 PUSH2 0x2B06 DUP5 DUP3 DUP6 ADD PUSH2 0x2A6D JUMP JUMPDEST PUSH1 0x20 DUP4 ADD MSTORE POP PUSH1 0x40 PUSH2 0x2B1A DUP5 DUP3 DUP6 ADD PUSH2 0x2AAD JUMP JUMPDEST PUSH1 0x40 DUP4 ADD MSTORE POP SWAP3 SWAP2 POP POP JUMP JUMPDEST PUSH1 0x0 PUSH1 0x60 DUP3 DUP5 SUB SLT ISZERO PUSH2 0x2B3C JUMPI PUSH2 0x2B3B PUSH2 0x2953 JUMP JUMPDEST JUMPDEST PUSH1 0x0 PUSH2 0x2B4A DUP5 DUP3 DUP6 ADD PUSH2 0x2AC2 JUMP JUMPDEST SWAP2 POP POP SWAP3 SWAP2 POP POP JUMP JUMPDEST PUSH1 0x0 DUP1 REVERT JUMPDEST PUSH1 0x0 DUP1 REVERT JUMPDEST PUSH1 0x0 PUSH8 0xFFFFFFFFFFFFFFFF DUP3 GT ISZERO PUSH2 0x2B78 JUMPI PUSH2 0x2B77 PUSH2 0x2973 JUMP JUMPDEST JUMPDEST PUSH2 0x2B81 DUP3 PUSH2 0x2962 JUMP JUMPDEST SWAP1 POP PUSH1 0x20 DUP2 ADD SWAP1 POP SWAP2 SWAP1 POP JUMP JUMPDEST DUP3 DUP2 DUP4 CALLDATACOPY PUSH1 0x0 DUP4 DUP4 ADD MSTORE POP POP POP JUMP JUMPDEST PUSH1 0x0 PUSH2 0x2BB0 PUSH2 0x2BAB DUP5 PUSH2 0x2B5D JUMP JUMPDEST PUSH2 0x29D3 JUMP JUMPDEST SWAP1 POP DUP3 DUP2 MSTORE PUSH1 0x20 DUP2 ADD DUP5 DUP5 DUP5 ADD GT ISZERO PUSH2 0x2BCC JUMPI PUSH2 0x2BCB PUSH2 0x2B58 JUMP JUMPDEST JUMPDEST PUSH2 0x2BD7 DUP5 DUP3 DUP6 PUSH2 0x2B8E JUMP JUMPDEST POP SWAP4 SWAP3 POP POP POP JUMP JUMPDEST PUSH1 0x0 DUP3 PUSH1 0x1F DUP4 ADD SLT PUSH2 0x2BF4 JUMPI PUSH2 0x2BF3 PUSH2 0x2B53 JUMP JUMPDEST JUMPDEST DUP2 CALLDATALOAD PUSH2 0x2C04 DUP5 DUP3 PUSH1 0x20 DUP7 ADD PUSH2 0x2B9D JUMP JUMPDEST SWAP2 POP POP SWAP3 SWAP2 POP POP JUMP JUMPDEST PUSH1 0x0 PUSH1 0x20 DUP3 DUP5 SUB SLT ISZERO PUSH2 0x2C23 JUMPI PUSH2 0x2C22 PUSH2 0x2953 JUMP JUMPDEST JUMPDEST PUSH1 0x0 DUP3 ADD CALLDATALOAD PUSH8 0xFFFFFFFFFFFFFFFF DUP2 GT ISZERO PUSH2 0x2C41 JUMPI PUSH2 0x2C40 PUSH2 0x2958 JUMP JUMPDEST JUMPDEST PUSH2 0x2C4D DUP5 DUP3 DUP6 ADD PUSH2 0x2BDF JUMP JUMPDEST SWAP2 POP POP SWAP3 SWAP2 POP POP JUMP JUMPDEST PUSH1 0x0 DUP1 PUSH1 0x40 DUP4 DUP6 SUB SLT ISZERO PUSH2 0x2C6D JUMPI PUSH2 0x2C6C PUSH2 0x2953 JUMP JUMPDEST JUMPDEST PUSH1 0x0 PUSH2 0x2C7B DUP6 DUP3 DUP7 ADD PUSH2 0x2A37 JUMP JUMPDEST SWAP3 POP POP PUSH1 0x20 DUP4 ADD CALLDATALOAD PUSH8 0xFFFFFFFFFFFFFFFF DUP2 GT ISZERO PUSH2 0x2C9C JUMPI PUSH2 0x2C9B PUSH2 0x2958 JUMP JUMPDEST JUMPDEST PUSH2 0x2CA8 DUP6 DUP3 DUP7 ADD PUSH2 0x2BDF JUMP JUMPDEST SWAP2 POP POP SWAP3 POP SWAP3 SWAP1 POP JUMP JUMPDEST PUSH1 0x0 DUP2 MLOAD SWAP1 POP SWAP2 SWAP1 POP JUMP JUMPDEST PUSH1 0x0 DUP3 DUP3 MSTORE PUSH1 0x20 DUP3 ADD SWAP1 POP SWAP3 SWAP2 POP POP JUMP JUMPDEST PUSH1 0x0 JUMPDEST DUP4 DUP2 LT ISZERO PUSH2 0x2CEC JUMPI DUP1 DUP3 ADD MLOAD DUP2 DUP5 ADD MSTORE PUSH1 0x20 DUP2 ADD SWAP1 POP PUSH2 0x2CD1 JUMP JUMPDEST PUSH1 0x0 DUP5 DUP5 ADD MSTORE POP POP POP POP JUMP JUMPDEST PUSH1 0x0 PUSH2 0x2D03 DUP3 PUSH2 0x2CB2 JUMP JUMPDEST PUSH2 0x2D0D DUP2 DUP6 PUSH2 0x2CBD JUMP JUMPDEST SWAP4 POP PUSH2 0x2D1D DUP2 DUP6 PUSH1 0x20 DUP7 ADD PUSH2 0x2CCE JUMP JUMPDEST PUSH2 0x2D26 DUP2 PUSH2 0x2962 JUMP JUMPDEST DUP5 ADD SWAP2 POP POP SWAP3 SWAP2 POP POP JUMP JUMPDEST PUSH1 0x0 PUSH1 0x20 DUP3 ADD SWAP1 POP DUP2 DUP2 SUB PUSH1 0x0 DUP4 ADD MSTORE PUSH2 0x2D4B DUP2 DUP5 PUSH2 0x2CF8 JUMP JUMPDEST SWAP1 POP SWAP3 SWAP2 POP POP JUMP JUMPDEST PUSH1 0x0 PUSH2 0x2D5E DUP3 PUSH2 0x29EE JUMP JUMPDEST SWAP1 POP SWAP2 SWAP1 POP JUMP JUMPDEST PUSH2 0x2D6E DUP2 PUSH2 0x2D53 JUMP JUMPDEST DUP2 EQ PUSH2 0x2D79 JUMPI PUSH1 0x0 DUP1 REVERT JUMPDEST POP JUMP JUMPDEST PUSH1 0x0 DUP2 MLOAD SWAP1 POP PUSH2 0x2D8B DUP2 PUSH2 0x2D65 JUMP JUMPDEST SWAP3 SWAP2 POP POP JUMP JUMPDEST PUSH1 0x0 PUSH2 0x2DA4 PUSH2 0x2D9F DUP5 PUSH2 0x2B5D JUMP JUMPDEST PUSH2 0x29D3 JUMP JUMPDEST SWAP1 POP DUP3 DUP2 MSTORE PUSH1 0x20 DUP2 ADD DUP5 DUP5 DUP5 ADD GT ISZERO PUSH2 0x2DC0 JUMPI PUSH2 0x2DBF PUSH2 0x2B58 JUMP JUMPDEST JUMPDEST PUSH2 0x2DCB DUP5 DUP3 DUP6 PUSH2 0x2CCE JUMP JUMPDEST POP SWAP4 SWAP3 POP POP POP JUMP JUMPDEST PUSH1 0x0 DUP3 PUSH1 0x1F DUP4 ADD SLT PUSH2 0x2DE8 JUMPI PUSH2 0x2DE7 PUSH2 0x2B53 JUMP JUMPDEST JUMPDEST DUP2 MLOAD PUSH2 0x2DF8 DUP5 DUP3 PUSH1 0x20 DUP7 ADD PUSH2 0x2D91 JUMP JUMPDEST SWAP2 POP POP SWAP3 SWAP2 POP POP JUMP JUMPDEST PUSH1 0x0 DUP1 PUSH1 0x40 DUP4 DUP6 SUB SLT ISZERO PUSH2 0x2E18 JUMPI PUSH2 0x2E17 PUSH2 0x2953 JUMP JUMPDEST JUMPDEST PUSH1 0x0 PUSH2 0x2E26 DUP6 DUP3 DUP7 ADD PUSH2 0x2D7C JUMP JUMPDEST SWAP3 POP POP PUSH1 0x20 DUP4 ADD MLOAD PUSH8 0xFFFFFFFFFFFFFFFF DUP2 GT ISZERO PUSH2 0x2E47 JUMPI PUSH2 0x2E46 PUSH2 0x2958 JUMP JUMPDEST JUMPDEST PUSH2 0x2E53 DUP6 DUP3 DUP7 ADD PUSH2 0x2DD3 JUMP JUMPDEST SWAP2 POP POP SWAP3 POP SWAP3 SWAP1 POP JUMP JUMPDEST PUSH1 0x0 DUP2 SWAP1 POP SWAP3 SWAP2 POP POP JUMP JUMPDEST PUSH1 0x0 PUSH2 0x2E73 DUP3 PUSH2 0x2CB2 JUMP JUMPDEST PUSH2 0x2E7D DUP2 DUP6 PUSH2 0x2E5D JUMP JUMPDEST SWAP4 POP PUSH2 0x2E8D DUP2 DUP6 PUSH1 0x20 DUP7 ADD PUSH2 0x2CCE JUMP JUMPDEST DUP1 DUP5 ADD SWAP2 POP POP SWAP3 SWAP2 POP POP JUMP JUMPDEST PUSH1 0x0 PUSH2 0x2EA5 DUP3 DUP5 PUSH2 0x2E68 JUMP JUMPDEST SWAP2 POP DUP2 SWAP1 POP SWAP3 SWAP2 POP POP JUMP JUMPDEST PUSH32 0x4E487B7100000000000000000000000000000000000000000000000000000000 PUSH1 0x0 MSTORE PUSH1 0x11 PUSH1 0x4 MSTORE PUSH1 0x24 PUSH1 0x0 REVERT JUMPDEST PUSH1 0x0 PUSH2 0x2EEA DUP3 PUSH2 0x2A82 JUMP JUMPDEST SWAP2 POP PUSH2 0x2EF5 DUP4 PUSH2 0x2A82 JUMP JUMPDEST SWAP3 POP DUP3 DUP3 ADD SWAP1 POP PUSH8 0xFFFFFFFFFFFFFFFF DUP2 GT ISZERO PUSH2 0x2F15 JUMPI PUSH2 0x2F14 PUSH2 0x2EB0 JUMP JUMPDEST JUMPDEST SWAP3 SWAP2 POP POP JUMP JUMPDEST PUSH2 0x2F24 DUP2 PUSH2 0x2A0E JUMP JUMPDEST DUP3 MSTORE POP POP JUMP JUMPDEST PUSH1 0x0 PUSH1 0x40 DUP3 ADD SWAP1 POP PUSH2 0x2F3F PUSH1 0x0 DUP4 ADD DUP6 PUSH2 0x2F1B JUMP JUMPDEST DUP2 DUP2 SUB PUSH1 0x20 DUP4 ADD MSTORE PUSH2 0x2F51 DUP2 DUP5 PUSH2 0x2CF8 JUMP JUMPDEST SWAP1 POP SWAP4 SWAP3 POP POP POP JUMP JUMPDEST PUSH1 0x0 DUP2 SWAP1 POP PUSH1 0x20 DUP3 ADD SWAP1 POP SWAP2 SWAP1 POP JUMP JUMPDEST PUSH1 0x0 PUSH32 0xFFFFFFFFFFFFFFFFFFFFFFFFFFFFFF0000000000000000000000000000000000 DUP3 AND SWAP1 POP SWAP2 SWAP1 POP JUMP JUMPDEST PUSH1 0x0 PUSH2 0x2FA2 DUP3 MLOAD PUSH2 0x2F6A JUMP JUMPDEST DUP1 SWAP2 POP POP SWAP2 SWAP1 POP JUMP JUMPDEST PUSH1 0x0 DUP3 DUP3 SHL SWAP1 POP SWAP3 SWAP2 POP POP JUMP JUMPDEST PUSH1 0x0 PUSH2 0x2FC3 DUP3 PUSH2 0x2CB2 JUMP JUMPDEST DUP3 PUSH2 0x2FCD DUP5 PUSH2 0x2F5A JUMP JUMPDEST SWAP1 POP PUSH2 0x2FD8 DUP2 PUSH2 0x2F96 JUMP JUMPDEST SWAP3 POP PUSH1 0xF DUP3 LT ISZERO PUSH2 0x3018 JUMPI PUSH2 0x3013 PUSH32 0xFFFFFFFFFFFFFFFFFFFFFFFFFFFFFF0000000000000000000000000000000000 DUP4 PUSH1 0xF SUB PUSH1 0x8 MUL PUSH2 0x2FAB JUMP JUMPDEST DUP4 AND SWAP3 POP JUMPDEST POP POP SWAP2 SWAP1 POP JUMP JUMPDEST PUSH1 0x0 DUP2 SWAP1 POP SWAP2 SWAP1 POP JUMP JUMPDEST PUSH1 0x0 PUSH2 0x3034 DUP3 PUSH2 0x301F JUMP JUMPDEST SWAP2 POP PUSH2 0x303F DUP4 PUSH2 0x301F JUMP JUMPDEST SWAP3 POP DUP3 DUP3 MUL PUSH2 0x304D DUP2 PUSH2 0x301F JUMP JUMPDEST SWAP2 POP DUP3 DUP3 DIV DUP5 EQ DUP4 ISZERO OR PUSH2 0x3064 JUMPI PUSH2 0x3063 PUSH2 0x2EB0 JUMP JUMPDEST JUMPDEST POP SWAP3 SWAP2 POP POP JUMP JUMPDEST PUSH1 0x0 PUSH2 0x3076 DUP3 PUSH2 0x301F JUMP JUMPDEST SWAP2 POP PUSH2 0x3081 DUP4 PUSH2 0x301F JUMP JUMPDEST SWAP3 POP DUP3 DUP3 SUB SWAP1 POP DUP2 DUP2 GT ISZERO PUSH2 0x3099 JUMPI PUSH2 0x3098 PUSH2 0x2EB0 JUMP JUMPDEST JUMPDEST SWAP3 SWAP2 POP POP JUMP JUMPDEST PUSH1 0x0 PUSH2 0x30AA DUP3 PUSH2 0x301F JUMP JUMPDEST SWAP2 POP PUSH2 0x30B5 DUP4 PUSH2 0x301F JUMP JUMPDEST SWAP3 POP DUP3 DUP3 ADD SWAP1 POP DUP1 DUP3 GT ISZERO PUSH2 0x30CD JUMPI PUSH2 0x30CC PUSH2 0x2EB0 JUMP JUMPDEST JUMPDEST SWAP3 SWAP2 POP POP JUMP JUMPDEST PUSH32 0x4E487B7100000000000000000000000000000000000000000000000000000000 PUSH1 0x0 MSTORE PUSH1 0x32 PUSH1 0x4 MSTORE PUSH1 0x24 PUSH1 0x0 REVERT JUMPDEST PUSH1 0x0 DUP3 DUP3 MSTORE PUSH1 0x20 DUP3 ADD SWAP1 POP SWAP3 SWAP2 POP POP JUMP JUMPDEST PUSH32 0x67656E206375727665323535313920706B3A206661696C656400000000000000 PUSH1 0x0 DUP3 ADD MSTORE POP JUMP JUMPDEST PUSH1 0x0 PUSH2 0x3149 PUSH1 0x19 DUP4 PUSH2 0x3102 JUMP JUMPDEST SWAP2 POP PUSH2 0x3154 DUP3 PUSH2 0x3113 JUMP JUMPDEST PUSH1 0x20 DUP3 ADD SWAP1 POP SWAP2 SWAP1 POP JUMP JUMPDEST PUSH1 0x0 PUSH1 0x20 DUP3 ADD SWAP1 POP DUP2 DUP2 SUB PUSH1 0x0 DUP4 ADD MSTORE PUSH2 0x3178 DUP2 PUSH2 0x313C JUMP JUMPDEST SWAP1 POP SWAP2 SWAP1 POP JUMP JUMPDEST PUSH1 0x0 PUSH2 0x318B DUP3 MLOAD PUSH2 0x2A4C JUMP JUMPDEST DUP1 SWAP2 POP POP SWAP2 SWAP1 POP JUMP JUMPDEST PUSH1 0x0 PUSH2 0x319F DUP3 PUSH2 0x2CB2 JUMP JUMPDEST DUP3 PUSH2 0x31A9 DUP5 PUSH2 0x2F5A JUMP JUMPDEST SWAP1 POP PUSH2 0x31B4 DUP2 PUSH2 0x317F JUMP JUMPDEST SWAP3 POP PUSH1 0x20 DUP3 LT ISZERO PUSH2 0x31F4 JUMPI PUSH2 0x31EF PUSH32 0xFFFFFFFFFFFFFFFFFFFFFFFFFFFFFFFFFFFFFFFFFFFFFFFFFFFFFFFFFFFFFFFF DUP4 PUSH1 0x20 SUB PUSH1 0x8 MUL PUSH2 0x2FAB JUMP JUMPDEST DUP4 AND SWAP3 POP JUMPDEST POP POP SWAP2 SWAP1 POP JUMP JUMPDEST PUSH2 0x3204 DUP2 PUSH2 0x301F JUMP JUMPDEST DUP3 MSTORE POP POP JUMP JUMPDEST PUSH1 0x0 PUSH1 0x40 DUP3 ADD SWAP1 POP PUSH2 0x321F PUSH1 0x0 DUP4 ADD DUP6 PUSH2 0x31FB JUMP JUMPDEST DUP2 DUP2 SUB PUSH1 0x20 DUP4 ADD MSTORE PUSH2 0x3231 DUP2 DUP5 PUSH2 0x2CF8 JUMP JUMPDEST SWAP1 POP SWAP4 SWAP3 POP POP POP JUMP JUMPDEST PUSH32 0x72616E646F6D42797465733A206661696C656400000000000000000000000000 PUSH1 0x0 DUP3 ADD MSTORE POP JUMP JUMPDEST PUSH1 0x0 PUSH2 0x3270 PUSH1 0x13 DUP4 PUSH2 0x3102 JUMP JUMPDEST SWAP2 POP PUSH2 0x327B DUP3 PUSH2 0x323A JUMP JUMPDEST PUSH1 0x20 DUP3 ADD SWAP1 POP SWAP2 SWAP1 POP JUMP JUMPDEST PUSH1 0x0 PUSH1 0x20 DUP3 ADD SWAP1 POP DUP2 DUP2 SUB PUSH1 0x0 DUP4 ADD MSTORE PUSH2 0x329F DUP2 PUSH2 0x3263 JUMP JUMPDEST SWAP1 POP SWAP2 SWAP1 POP JUMP JUMPDEST PUSH2 0x32AF DUP2 PUSH2 0x2A82 JUMP JUMPDEST DUP3 MSTORE POP POP JUMP JUMPDEST PUSH1 0x0 PUSH1 0x20 DUP3 ADD SWAP1 POP PUSH2 0x32CA PUSH1 0x0 DUP4 ADD DUP5 PUSH2 0x32A6 JUMP JUMPDEST SWAP3 SWAP2 POP POP JUMP JUMPDEST PUSH1 0x0 DUP2 SWAP1 POP SWAP3 SWAP2 POP POP JUMP JUMPDEST PUSH32 0xA200000000000000000000000000000000000000000000000000000000000000 PUSH1 0x0 DUP3 ADD MSTORE POP JUMP JUMPDEST PUSH1 0x0 PUSH2 0x3311 PUSH1 0x1 DUP4 PUSH2 0x32D0 JUMP JUMPDEST SWAP2 POP PUSH2 0x331C DUP3 PUSH2 0x32DB JUMP JUMPDEST PUSH1 0x1 DUP3 ADD SWAP1 POP SWAP2 SWAP1 POP JUMP JUMPDEST PUSH32 0x6400000000000000000000000000000000000000000000000000000000000000 PUSH1 0x0 DUP3 ADD MSTORE POP JUMP JUMPDEST PUSH1 0x0 PUSH2 0x335D PUSH1 0x1 DUP4 PUSH2 0x32D0 JUMP JUMPDEST SWAP2 POP PUSH2 0x3368 DUP3 PUSH2 0x3327 JUMP JUMPDEST PUSH1 0x1 DUP3 ADD SWAP1 POP SWAP2 SWAP1 POP JUMP JUMPDEST PUSH32 0x626F647900000000000000000000000000000000000000000000000000000000 PUSH1 0x0 DUP3 ADD MSTORE POP JUMP JUMPDEST PUSH1 0x0 PUSH2 0x33A9 PUSH1 0x4 DUP4 PUSH2 0x32D0 JUMP JUMPDEST SWAP2 POP PUSH2 0x33B4 DUP3 PUSH2 0x3373 JUMP JUMPDEST PUSH1 0x4 DUP3 ADD SWAP1 POP SWAP2 SWAP1 POP JUMP JUMPDEST PUSH32 0xA400000000000000000000000000000000000000000000000000000000000000 PUSH1 0x0 DUP3 ADD MSTORE POP JUMP JUMPDEST PUSH1 0x0 PUSH2 0x33F5 PUSH1 0x1 DUP4 PUSH2 0x32D0 JUMP JUMPDEST SWAP2 POP PUSH2 0x3400 DUP3 PUSH2 0x33BF JUMP JUMPDEST PUSH1 0x1 DUP3 ADD SWAP1 POP SWAP2 SWAP1 POP JUMP JUMPDEST PUSH32 0x6200000000000000000000000000000000000000000000000000000000000000 PUSH1 0x0 DUP3 ADD MSTORE POP JUMP JUMPDEST PUSH1 0x0 PUSH2 0x3441 PUSH1 0x1 DUP4 PUSH2 0x32D0 JUMP JUMPDEST SWAP2 POP PUSH2 0x344C DUP3 PUSH2 0x340B JUMP JUMPDEST PUSH1 0x1 DUP3 ADD SWAP1 POP SWAP2 SWAP1 POP JUMP JUMPDEST PUSH32 0x706B000000000000000000000000000000000000000000000000000000000000 PUSH1 0x0 DUP3 ADD MSTORE POP JUMP JUMPDEST PUSH1 0x0 PUSH2 0x348D PUSH1 0x2 DUP4 PUSH2 0x32D0 JUMP JUMPDEST SWAP2 POP PUSH2 0x3498 DUP3 PUSH2 0x3457 JUMP JUMPDEST PUSH1 0x2 DUP3 ADD SWAP1 POP SWAP2 SWAP1 POP JUMP JUMPDEST PUSH32 0x5820000000000000000000000000000000000000000000000000000000000000 PUSH1 0x0 DUP3 ADD MSTORE POP JUMP JUMPDEST PUSH1 0x0 PUSH2 0x34D9 PUSH1 0x2 DUP4 PUSH2 0x32D0 JUMP JUMPDEST SWAP2 POP PUSH2 0x34E4 DUP3 PUSH2 0x34A3 JUMP JUMPDEST PUSH1 0x2 DUP3 ADD SWAP1 POP SWAP2 SWAP1 POP JUMP JUMPDEST PUSH1 0x0 PUSH2 0x34FA DUP3 PUSH2 0x2A4C JUMP JUMPDEST SWAP1 POP SWAP2 SWAP1 POP JUMP JUMPDEST PUSH1 0x0 DUP2 SWAP1 POP SWAP2 SWAP1 POP JUMP JUMPDEST PUSH2 0x351C PUSH2 0x3517 DUP3 PUSH2 0x34EF JUMP JUMPDEST PUSH2 0x3501 JUMP JUMPDEST DUP3 MSTORE POP POP JUMP JUMPDEST PUSH32 0x6461746100000000000000000000000000000000000000000000000000000000 PUSH1 0x0 DUP3 ADD MSTORE POP JUMP JUMPDEST PUSH1 0x0 PUSH2 0x3558 PUSH1 0x4 DUP4 PUSH2 0x32D0 JUMP JUMPDEST SWAP2 POP PUSH2 0x3563 DUP3 PUSH2 0x3522 JUMP JUMPDEST PUSH1 0x4 DUP3 ADD SWAP1 POP SWAP2 SWAP1 POP JUMP JUMPDEST PUSH32 0x6500000000000000000000000000000000000000000000000000000000000000 PUSH1 0x0 DUP3 ADD MSTORE POP JUMP JUMPDEST PUSH1 0x0 PUSH2 0x35A4 PUSH1 0x1 DUP4 PUSH2 0x32D0 JUMP JUMPDEST SWAP2 POP PUSH2 0x35AF DUP3 PUSH2 0x356E JUMP JUMPDEST PUSH1 0x1 DUP3 ADD SWAP1 POP SWAP2 SWAP1 POP JUMP JUMPDEST PUSH32 0x65706F6368000000000000000000000000000000000000000000000000000000 PUSH1 0x0 DUP3 ADD MSTORE POP JUMP JUMPDEST PUSH1 0x0 PUSH2 0x35F0 PUSH1 0x5 DUP4 PUSH2 0x32D0 JUMP JUMPDEST SWAP2 POP PUSH2 0x35FB DUP3 PUSH2 0x35BA JUMP JUMPDEST PUSH1 0x5 DUP3 ADD SWAP1 POP SWAP2 SWAP1 POP JUMP JUMPDEST PUSH32 0x6E6F6E6365000000000000000000000000000000000000000000000000000000 PUSH1 0x0 DUP3 ADD MSTORE POP JUMP JUMPDEST PUSH1 0x0 PUSH2 0x363C PUSH1 0x5 DUP4 PUSH2 0x32D0 JUMP JUMPDEST SWAP2 POP PUSH2 0x3647 DUP3 PUSH2 0x3606 JUMP JUMPDEST PUSH1 0x5 DUP3 ADD SWAP1 POP SWAP2 SWAP1 POP JUMP JUMPDEST PUSH32 0x4F00000000000000000000000000000000000000000000000000000000000000 PUSH1 0x0 DUP3 ADD MSTORE POP JUMP JUMPDEST PUSH1 0x0 PUSH2 0x3688 PUSH1 0x1 DUP4 PUSH2 0x32D0 JUMP JUMPDEST SWAP2 POP PUSH2 0x3693 DUP3 PUSH2 0x3652 JUMP JUMPDEST PUSH1 0x1 DUP3 ADD SWAP1 POP SWAP2 SWAP1 POP JUMP JUMPDEST PUSH1 0x0 DUP2 SWAP1 POP SWAP2 SWAP1 POP JUMP JUMPDEST PUSH2 0x36B9 PUSH2 0x36B4 DUP3 PUSH2 0x2F6A JUMP JUMPDEST PUSH2 0x369E JUMP JUMPDEST DUP3 MSTORE POP POP JUMP JUMPDEST PUSH32 0x6600000000000000000000000000000000000000000000000000000000000000 PUSH1 0x0 DUP3 ADD MSTORE POP JUMP JUMPDEST PUSH1 0x0 PUSH2 0x36F5 PUSH1 0x1 DUP4 PUSH2 0x32D0 JUMP JUMPDEST SWAP2 POP PUSH2 0x3700 DUP3 PUSH2 0x36BF JUMP JUMPDEST PUSH1 0x1 DUP3 ADD SWAP1 POP SWAP2 SWAP1 POP JUMP JUMPDEST PUSH32 0x666F726D61740000000000000000000000000000000000000000000000000000 PUSH1 0x0 DUP3 ADD MSTORE POP JUMP JUMPDEST PUSH1 0x0 PUSH2 0x3741 PUSH1 0x6 DUP4 PUSH2 0x32D0 JUMP JUMPDEST SWAP2 POP PUSH2 0x374C DUP3 PUSH2 0x370B JUMP JUMPDEST PUSH1 0x6 DUP3 ADD SWAP1 POP SWAP2 SWAP1 POP JUMP JUMPDEST PUSH32 0x100000000000000000000000000000000000000000000000000000000000000 PUSH1 0x0 DUP3 ADD MSTORE POP JUMP JUMPDEST PUSH1 0x0 PUSH2 0x378D PUSH1 0x1 DUP4 PUSH2 0x32D0 JUMP JUMPDEST SWAP2 POP PUSH2 0x3798 DUP3 PUSH2 0x3757 JUMP JUMPDEST PUSH1 0x1 DUP3 ADD SWAP1 POP SWAP2 SWAP1 POP JUMP JUMPDEST PUSH1 0x0 PUSH2 0x37AE DUP3 PUSH2 0x3304 JUMP JUMPDEST SWAP2 POP PUSH2 0x37B9 DUP3 PUSH2 0x3350 JUMP JUMPDEST SWAP2 POP PUSH2 0x37C4 DUP3 PUSH2 0x339C JUMP JUMPDEST SWAP2 POP PUSH2 0x37CF DUP3 PUSH2 0x33E8 JUMP JUMPDEST SWAP2 POP PUSH2 0x37DA DUP3 PUSH2 0x3434 JUMP JUMPDEST SWAP2 POP PUSH2 0x37E5 DUP3 PUSH2 0x3480 JUMP JUMPDEST SWAP2 POP PUSH2 0x37F0 DUP3 PUSH2 0x34CC JUMP JUMPDEST SWAP2 POP PUSH2 0x37FC DUP3 DUP8 PUSH2 0x350B JUMP JUMPDEST PUSH1 0x20 DUP3 ADD SWAP2 POP PUSH2 0x380B DUP3 PUSH2 0x3350 JUMP JUMPDEST SWAP2 POP PUSH2 0x3816 DUP3 PUSH2 0x354B JUMP JUMPDEST SWAP2 POP PUSH2 0x3822 DUP3 DUP7 PUSH2 0x2E68 JUMP JUMPDEST SWAP2 POP PUSH2 0x382D DUP3 PUSH2 0x3597 JUMP JUMPDEST SWAP2 POP PUSH2 0x3838 DUP3 PUSH2 0x35E3 JUMP JUMPDEST SWAP2 POP PUSH2 0x3844 DUP3 DUP6 PUSH2 0x2E68 JUMP JUMPDEST SWAP2 POP PUSH2 0x384F DUP3 PUSH2 0x3597 JUMP JUMPDEST SWAP2 POP PUSH2 0x385A DUP3 PUSH2 0x362F JUMP JUMPDEST SWAP2 POP PUSH2 0x3865 DUP3 PUSH2 0x367B JUMP JUMPDEST SWAP2 POP PUSH2 0x3871 DUP3 DUP5 PUSH2 0x36A8 JUMP JUMPDEST PUSH1 0xF DUP3 ADD SWAP2 POP PUSH2 0x3880 DUP3 PUSH2 0x36E8 JUMP JUMPDEST SWAP2 POP PUSH2 0x388B DUP3 PUSH2 0x3734 JUMP JUMPDEST SWAP2 POP PUSH2 0x3896 DUP3 PUSH2 0x3780 JUMP JUMPDEST SWAP2 POP DUP2 SWAP1 POP SWAP6 SWAP5 POP POP POP POP POP JUMP JUMPDEST PUSH1 0x0 DUP2 MLOAD SWAP1 POP SWAP2 SWAP1 POP JUMP JUMPDEST PUSH1 0x0 PUSH2 0x38BA DUP3 PUSH2 0x38A4 JUMP JUMPDEST PUSH2 0x38C4 DUP2 DUP6 PUSH2 0x3102 JUMP JUMPDEST SWAP4 POP PUSH2 0x38D4 DUP2 DUP6 PUSH1 0x20 DUP7 ADD PUSH2 0x2CCE JUMP JUMPDEST PUSH2 0x38DD DUP2 PUSH2 0x2962 JUMP JUMPDEST DUP5 ADD SWAP2 POP POP SWAP3 SWAP2 POP POP JUMP JUMPDEST PUSH1 0x0 PUSH1 0x40 DUP3 ADD SWAP1 POP DUP2 DUP2 SUB PUSH1 0x0 DUP4 ADD MSTORE PUSH2 0x3902 DUP2 DUP6 PUSH2 0x38AF JUMP JUMPDEST SWAP1 POP DUP2 DUP2 SUB PUSH1 0x20 DUP4 ADD MSTORE PUSH2 0x3916 DUP2 DUP5 PUSH2 0x2CF8 JUMP JUMPDEST SWAP1 POP SWAP4 SWAP3 POP POP POP JUMP JUMPDEST PUSH1 0x0 DUP2 MLOAD SWAP1 POP PUSH2 0x392E DUP2 PUSH2 0x2A96 JUMP JUMPDEST SWAP3 SWAP2 POP POP JUMP JUMPDEST PUSH1 0x0 DUP1 PUSH1 0x40 DUP4 DUP6 SUB SLT ISZERO PUSH2 0x394B JUMPI PUSH2 0x394A PUSH2 0x2953 JUMP JUMPDEST JUMPDEST PUSH1 0x0 PUSH2 0x3959 DUP6 DUP3 DUP7 ADD PUSH2 0x391F JUMP JUMPDEST SWAP3 POP POP PUSH1 0x20 DUP4 ADD MLOAD PUSH8 0xFFFFFFFFFFFFFFFF DUP2 GT ISZERO PUSH2 0x397A JUMPI PUSH2 0x3979 PUSH2 0x2958 JUMP JUMPDEST JUMPDEST PUSH2 0x3986 DUP6 DUP3 DUP7 ADD PUSH2 0x2DD3 JUMP JUMPDEST SWAP2 POP POP SWAP3 POP SWAP3 SWAP1 POP JUMP JUMPDEST PUSH32 0xA100000000000000000000000000000000000000000000000000000000000000 PUSH1 0x0 DUP3 ADD MSTORE POP JUMP JUMPDEST PUSH1 0x0 PUSH2 0x39C6 PUSH1 0x1 DUP4 PUSH2 0x32D0 JUMP JUMPDEST SWAP2 POP PUSH2 0x39D1 DUP3 PUSH2 0x3990 JUMP JUMPDEST PUSH1 0x1 DUP3 ADD SWAP1 POP SWAP2 SWAP1 POP JUMP JUMPDEST PUSH1 0x0 PUSH2 0x39E7 DUP3 PUSH2 0x39B9 JUMP JUMPDEST SWAP2 POP PUSH2 0x39F2 DUP3 PUSH2 0x3350 JUMP JUMPDEST SWAP2 POP PUSH2 0x39FD DUP3 PUSH2 0x339C JUMP JUMPDEST SWAP2 POP PUSH2 0x3A09 DUP3 DUP5 PUSH2 0x2E68 JUMP JUMPDEST SWAP2 POP DUP2 SWAP1 POP SWAP3 SWAP2 POP POP JUMP JUMPDEST PUSH1 0x0 PUSH1 0xFF DUP3 AND SWAP1 POP SWAP2 SWAP1 POP JUMP JUMPDEST PUSH1 0x0 DUP2 PUSH1 0xF8 SHL SWAP1 POP SWAP2 SWAP1 POP JUMP JUMPDEST PUSH1 0x0 PUSH2 0x3A39 DUP3 PUSH2 0x3A21 JUMP JUMPDEST SWAP1 POP SWAP2 SWAP1 POP JUMP JUMPDEST PUSH2 0x3A51 PUSH2 0x3A4C DUP3 PUSH2 0x3A14 JUMP JUMPDEST PUSH2 0x3A2E JUMP JUMPDEST DUP3 MSTORE POP POP JUMP JUMPDEST PUSH1 0x0 PUSH2 0x3A63 DUP3 DUP6 PUSH2 0x3A40 JUMP JUMPDEST PUSH1 0x1 DUP3 ADD SWAP2 POP PUSH2 0x3A73 DUP3 DUP5 PUSH2 0x2E68 JUMP JUMPDEST SWAP2 POP DUP2 SWAP1 POP SWAP4 SWAP3 POP POP POP JUMP JUMPDEST PUSH1 0x0 PUSH2 0x3A8B DUP3 DUP7 PUSH2 0x3A40 JUMP JUMPDEST PUSH1 0x1 DUP3 ADD SWAP2 POP PUSH2 0x3A9B DUP3 DUP6 PUSH2 0x3A40 JUMP JUMPDEST PUSH1 0x1 DUP3 ADD SWAP2 POP PUSH2 0x3AAB DUP3 DUP5 PUSH2 0x2E68 JUMP JUMPDEST SWAP2 POP DUP2 SWAP1 POP SWAP5 SWAP4 POP POP POP POP JUMP JUMPDEST PUSH1 0x0 PUSH2 0xFFFF DUP3 AND SWAP1 POP SWAP2 SWAP1 POP JUMP JUMPDEST PUSH1 0x0 DUP2 PUSH1 0xF0 SHL SWAP1 POP SWAP2 SWAP1 POP JUMP JUMPDEST PUSH1 0x0 PUSH2 0x3ADE DUP3 PUSH2 0x3AC6 JUMP JUMPDEST SWAP1 POP SWAP2 SWAP1 POP JUMP JUMPDEST PUSH2 0x3AF6 PUSH2 0x3AF1 DUP3 PUSH2 0x3AB8 JUMP JUMPDEST PUSH2 0x3AD3 JUMP JUMPDEST DUP3 MSTORE POP POP JUMP JUMPDEST PUSH1 0x0 PUSH2 0x3B08 DUP3 DUP7 PUSH2 0x3A40 JUMP JUMPDEST PUSH1 0x1 DUP3 ADD SWAP2 POP PUSH2 0x3B18 DUP3 DUP6 PUSH2 0x3AE5 JUMP JUMPDEST PUSH1 0x2 DUP3 ADD SWAP2 POP PUSH2 0x3B28 DUP3 DUP5 PUSH2 0x2E68 JUMP JUMPDEST SWAP2 POP DUP2 SWAP1 POP SWAP5 SWAP4 POP POP POP POP JUMP JUMPDEST PUSH1 0x0 PUSH1 0x20 DUP3 ADD SWAP1 POP PUSH2 0x3B4A PUSH1 0x0 DUP4 ADD DUP5 PUSH2 0x31FB JUMP JUMPDEST SWAP3 SWAP2 POP POP JUMP JUMPDEST PUSH1 0x0 PUSH2 0x3B5C DUP3 DUP5 PUSH2 0x3A40 JUMP JUMPDEST PUSH1 0x1 DUP3 ADD SWAP2 POP DUP2 SWAP1 POP SWAP3 SWAP2 POP POP JUMP JUMPDEST PUSH1 0x0 PUSH2 0x3B77 DUP3 DUP6 PUSH2 0x3A40 JUMP JUMPDEST PUSH1 0x1 DUP3 ADD SWAP2 POP PUSH2 0x3B87 DUP3 DUP5 PUSH2 0x3A40 JUMP JUMPDEST PUSH1 0x1 DUP3 ADD SWAP2 POP DUP2 SWAP1 POP SWAP4 SWAP3 POP POP POP JUMP JUMPDEST PUSH1 0x0 PUSH2 0x3BA3 DUP3 DUP6 PUSH2 0x3A40 JUMP JUMPDEST PUSH1 0x1 DUP3 ADD SWAP2 POP PUSH2 0x3BB3 DUP3 DUP5 PUSH2 0x3AE5 JUMP JUMPDEST PUSH1 0x2 DUP3 ADD SWAP2 POP DUP2 SWAP1 POP SWAP4 SWAP3 POP POP POP JUMP JUMPDEST PUSH1 0x0 PUSH4 0xFFFFFFFF DUP3 AND SWAP1 POP SWAP2 SWAP1 POP JUMP JUMPDEST PUSH1 0x0 DUP2 PUSH1 0xE0 SHL SWAP1 POP SWAP2 SWAP1 POP JUMP JUMPDEST PUSH1 0x0 PUSH2 0x3BEB DUP3 PUSH2 0x3BD3 JUMP JUMPDEST SWAP1 POP SWAP2 SWAP1 POP JUMP JUMPDEST PUSH2 0x3C03 PUSH2 0x3BFE DUP3 PUSH2 0x3BC3 JUMP JUMPDEST PUSH2 0x3BE0 JUMP JUMPDEST DUP3 MSTORE POP POP JUMP JUMPDEST PUSH1 0x0 PUSH2 0x3C15 DUP3 DUP6 PUSH2 0x3A40 JUMP JUMPDEST PUSH1 0x1 DUP3 ADD SWAP2 POP PUSH2 0x3C25 DUP3 DUP5 PUSH2 0x3BF2 JUMP JUMPDEST PUSH1 0x4 DUP3 ADD SWAP2 POP DUP2 SWAP1 POP SWAP4 SWAP3 POP POP POP JUMP JUMPDEST PUSH1 0x0 DUP2 PUSH1 0xC0 SHL SWAP1 POP SWAP2 SWAP1 POP JUMP JUMPDEST PUSH1 0x0 PUSH2 0x3C4D DUP3 PUSH2 0x3C35 JUMP JUMPDEST SWAP1 POP SWAP2 SWAP1 POP JUMP JUMPDEST PUSH2 0x3C65 PUSH2 0x3C60 DUP3 PUSH2 0x2A82 JUMP JUMPDEST PUSH2 0x3C42 JUMP JUMPDEST DUP3 MSTORE POP POP JUMP JUMPDEST PUSH1 0x0 PUSH2 0x3C77 DUP3 DUP6 PUSH2 0x3A40 JUMP JUMPDEST PUSH1 0x1 DUP3 ADD SWAP2 POP PUSH2 0x3C87 DUP3 DUP5 PUSH2 0x3C54 JUMP JUMPDEST PUSH1 0x8 DUP3 ADD SWAP2 POP DUP2 SWAP1 POP SWAP4 SWAP3 POP POP POP JUMP JUMPDEST PUSH1 0x0 PUSH16 0xFFFFFFFFFFFFFFFFFFFFFFFFFFFFFFFF DUP3 AND SWAP1 POP SWAP2 SWAP1 POP JUMP JUMPDEST PUSH1 0x0 DUP2 PUSH1 0x80 SHL SWAP1 POP SWAP2 SWAP1 POP JUMP JUMPDEST PUSH1 0x0 PUSH2 0x3CCB DUP3 PUSH2 0x3CB3 JUMP JUMPDEST SWAP1 POP SWAP2 SWAP1 POP JUMP JUMPDEST PUSH2 0x3CE3 PUSH2 0x3CDE DUP3 PUSH2 0x3C97 JUMP JUMPDEST PUSH2 0x3CC0 JUMP JUMPDEST DUP3 MSTORE POP POP JUMP JUMPDEST PUSH1 0x0 PUSH2 0x3CF5 DUP3 DUP6 PUSH2 0x3A40 JUMP JUMPDEST PUSH1 0x1 DUP3 ADD SWAP2 POP PUSH2 0x3D05 DUP3 DUP5 PUSH2 0x3CD2 JUMP JUMPDEST PUSH1 0x10 DUP3 ADD SWAP2 POP DUP2 SWAP1 POP SWAP4 SWAP3 POP POP POP JUMP JUMPDEST PUSH1 0x0 DUP2 SWAP1 POP SWAP2 SWAP1 POP JUMP JUMPDEST PUSH2 0x3D30 PUSH2 0x3D2B DUP3 PUSH2 0x301F JUMP JUMPDEST PUSH2 0x3D15 JUMP JUMPDEST DUP3 MSTORE POP POP JUMP JUMPDEST PUSH1 0x0 PUSH2 0x3D42 DUP3 DUP7 PUSH2 0x3A40 JUMP JUMPDEST PUSH1 0x1 DUP3 ADD SWAP2 POP PUSH2 0x3D52 DUP3 DUP6 PUSH2 0x3D1F JUMP JUMPDEST PUSH1 0x20 DUP3 ADD SWAP2 POP PUSH2 0x3D62 DUP3 DUP5 PUSH2 0x3D1F JUMP JUMPDEST PUSH1 0x20 DUP3 ADD SWAP2 POP DUP2 SWAP1 POP SWAP5 SWAP4 POP POP POP POP JUMP JUMPDEST PUSH2 0x3D84 PUSH2 0x3D7F DUP3 PUSH2 0x2A4C JUMP JUMPDEST PUSH2 0x3501 JUMP JUMPDEST DUP3 MSTORE POP POP JUMP JUMPDEST PUSH1 0x0 PUSH2 0x3D96 DUP3 DUP5 PUSH2 0x3D73 JUMP JUMPDEST PUSH1 0x20 DUP3 ADD SWAP2 POP DUP2 SWAP1 POP SWAP3 SWAP2 POP POP JUMP JUMPDEST PUSH1 0x0 DUP2 PUSH1 0x60 SHL SWAP1 POP SWAP2 SWAP1 POP JUMP JUMPDEST PUSH1 0x0 PUSH2 0x3DBD DUP3 PUSH2 0x3DA5 JUMP JUMPDEST SWAP1 POP SWAP2 SWAP1 POP JUMP JUMPDEST PUSH1 0x0 PUSH2 0x3DCF DUP3 PUSH2 0x3DB2 JUMP JUMPDEST SWAP1 POP SWAP2 SWAP1 POP JUMP JUMPDEST PUSH2 0x3DE7 PUSH2 0x3DE2 DUP3 PUSH2 0x2A0E JUMP JUMPDEST PUSH2 0x3DC4 JUMP JUMPDEST DUP3 MSTORE POP POP JUMP JUMPDEST PUSH1 0x0 PUSH2 0x3DF9 DUP3 DUP5 PUSH2 0x3DD6 JUMP JUMPDEST PUSH1 0x14 DUP3 ADD SWAP2 POP DUP2 SWAP1 POP SWAP3 SWAP2 POP POP JUMP JUMPDEST PUSH1 0x0 PUSH2 0x3E14 DUP3 DUP6 PUSH2 0x2E68 JUMP JUMPDEST SWAP2 POP PUSH2 0x3E20 DUP3 DUP5 PUSH2 0x2E68 JUMP JUMPDEST SWAP2 POP DUP2 SWAP1 POP SWAP4 SWAP3 POP POP POP JUMP JUMPDEST PUSH1 0x0 PUSH2 0x3E37 DUP3 PUSH2 0x301F JUMP JUMPDEST SWAP2 POP PUSH32 0xFFFFFFFFFFFFFFFFFFFFFFFFFFFFFFFFFFFFFFFFFFFFFFFFFFFFFFFFFFFFFFFF DUP3 SUB PUSH2 0x3E69 JUMPI PUSH2 0x3E68 PUSH2 0x2EB0 JUMP JUMPDEST JUMPDEST PUSH1 0x1 DUP3 ADD SWAP1 POP SWAP2 SWAP1 POP JUMP JUMPDEST PUSH2 0x3E7D DUP2 PUSH2 0x3A14 JUMP JUMPDEST DUP3 MSTORE POP POP JUMP JUMPDEST PUSH1 0x0 PUSH1 0x20 DUP3 ADD SWAP1 POP PUSH2 0x3E98 PUSH1 0x0 DUP4 ADD DUP5 PUSH2 0x3E74 JUMP JUMPDEST SWAP3 SWAP2 POP POP JUMP JUMPDEST PUSH1 0x0 PUSH1 0x60 DUP3 ADD SWAP1 POP PUSH2 0x3EB3 PUSH1 0x0 DUP4 ADD DUP7 PUSH2 0x31FB JUMP JUMPDEST PUSH2 0x3EC0 PUSH1 0x20 DUP4 ADD DUP6 PUSH2 0x31FB JUMP JUMPDEST PUSH2 0x3ECD PUSH1 0x40 DUP4 ADD DUP5 PUSH2 0x31FB JUMP JUMPDEST SWAP5 SWAP4 POP POP POP POP JUMP JUMPDEST PUSH2 0x3EDE DUP2 PUSH2 0x2A4C JUMP JUMPDEST DUP3 MSTORE POP POP JUMP JUMPDEST PUSH1 0x0 PUSH1 0x80 DUP3 ADD SWAP1 POP PUSH2 0x3EF9 PUSH1 0x0 DUP4 ADD DUP8 PUSH2 0x3ED5 JUMP JUMPDEST PUSH2 0x3F06 PUSH1 0x20 DUP4 ADD DUP7 PUSH2 0x3ED5 JUMP JUMPDEST DUP2 DUP2 SUB PUSH1 0x40 DUP4 ADD MSTORE PUSH2 0x3F18 DUP2 DUP6 PUSH2 0x2CF8 JUMP JUMPDEST SWAP1 POP DUP2 DUP2 SUB PUSH1 0x60 DUP4 ADD MSTORE PUSH2 0x3F2C DUP2 DUP5 PUSH2 0x2CF8 JUMP JUMPDEST SWAP1 POP SWAP6 SWAP5 POP POP POP POP POP JUMP JUMPDEST PUSH32 0x656E63727970743A206661696C65640000000000000000000000000000000000 PUSH1 0x0 DUP3 ADD MSTORE POP JUMP JUMPDEST PUSH1 0x0 PUSH2 0x3F6D PUSH1 0xF DUP4 PUSH2 0x3102 JUMP JUMPDEST SWAP2 POP PUSH2 0x3F78 DUP3 PUSH2 0x3F37 JUMP JUMPDEST PUSH1 0x20 DUP3 ADD SWAP1 POP SWAP2 SWAP1 POP JUMP JUMPDEST PUSH1 0x0 PUSH1 0x20 DUP3 ADD SWAP1 POP DUP2 DUP2 SUB PUSH1 0x0 DUP4 ADD MSTORE PUSH2 0x3F9C DUP2 PUSH2 0x3F60 JUMP JUMPDEST SWAP1 POP SWAP2 SWAP1 POP JUMP JUMPDEST PUSH32 0x4E487B7100000000000000000000000000000000000000000000000000000000 PUSH1 0x0 MSTORE PUSH1 0x21 PUSH1 0x4 MSTORE PUSH1 0x24 PUSH1 0x0 REVERT JUMPDEST PUSH1 0x9 DUP2 LT PUSH2 0x3FE3 JUMPI PUSH2 0x3FE2 PUSH2 0x3FA3 JUMP JUMPDEST JUMPDEST POP JUMP JUMPDEST PUSH1 0x0 DUP2 SWAP1 POP PUSH2 0x3FF4 DUP3 PUSH2 0x3FD2 JUMP JUMPDEST SWAP2 SWAP1 POP JUMP JUMPDEST PUSH1 0x0 PUSH2 0x4004 DUP3 PUSH2 0x3FE6 JUMP JUMPDEST SWAP1 POP SWAP2 SWAP1 POP JUMP JUMPDEST PUSH2 0x4014 DUP2 PUSH2 0x3FF9 JUMP JUMPDEST DUP3 MSTORE POP POP JUMP JUMPDEST PUSH1 0x0 PUSH1 0x80 DUP3 ADD SWAP1 POP PUSH2 0x402F PUSH1 0x0 DUP4 ADD DUP8 PUSH2 0x400B JUMP JUMPDEST DUP2 DUP2 SUB PUSH1 0x20 DUP4 ADD MSTORE PUSH2 0x4041 DUP2 DUP7 PUSH2 0x2CF8 JUMP JUMPDEST SWAP1 POP DUP2 DUP2 SUB PUSH1 0x40 DUP4 ADD MSTORE PUSH2 0x4055 DUP2 DUP6 PUSH2 0x2CF8 JUMP JUMPDEST SWAP1 POP DUP2 DUP2 SUB PUSH1 0x60 DUP4 ADD MSTORE PUSH2 0x4069 DUP2 DUP5 PUSH2 0x2CF8 JUMP JUMPDEST SWAP1 POP SWAP6 SWAP5 POP POP POP POP POP JUMP JUMPDEST PUSH32 0x7369676E3A206661696C65640000000000000000000000000000000000000000 PUSH1 0x0 DUP3 ADD MSTORE POP JUMP JUMPDEST PUSH1 0x0 PUSH2 0x40AA PUSH1 0xC DUP4 PUSH2 0x3102 JUMP JUMPDEST SWAP2 POP PUSH2 0x40B5 DUP3 PUSH2 0x4074 JUMP JUMPDEST PUSH1 0x20 DUP3 ADD SWAP1 POP SWAP2 SWAP1 POP JUMP JUMPDEST PUSH1 0x0 PUSH1 0x20 DUP3 ADD SWAP1 POP DUP2 DUP2 SUB PUSH1 0x0 DUP4 ADD MSTORE PUSH2 0x40D9 DUP2 PUSH2 0x409D JUMP JUMPDEST SWAP1 POP SWAP2 SWAP1 POP JUMP JUMPDEST PUSH1 0x0 PUSH1 0x80 DUP3 ADD SWAP1 POP PUSH2 0x40F5 PUSH1 0x0 DUP4 ADD DUP8 PUSH2 0x3ED5 JUMP JUMPDEST PUSH2 0x4102 PUSH1 0x20 DUP4 ADD DUP7 PUSH2 0x3E74 JUMP JUMPDEST PUSH2 0x410F PUSH1 0x40 DUP4 ADD DUP6 PUSH2 0x3ED5 JUMP JUMPDEST PUSH2 0x411C PUSH1 0x60 DUP4 ADD DUP5 PUSH2 0x3ED5 JUMP JUMPDEST SWAP6 SWAP5 POP POP POP POP POP JUMP JUMPDEST PUSH1 0x0 PUSH2 0x4131 DUP3 DUP5 PUSH2 0x3D1F JUMP JUMPDEST PUSH1 0x20 DUP3 ADD SWAP2 POP DUP2 SWAP1 POP SWAP3 SWAP2 POP POP JUMP JUMPDEST PUSH1 0x0 PUSH2 0x414B DUP3 PUSH2 0x3A14 JUMP JUMPDEST SWAP2 POP PUSH2 0x4156 DUP4 PUSH2 0x3A14 JUMP JUMPDEST SWAP3 POP DUP3 DUP3 ADD SWAP1 POP PUSH1 0xFF DUP2 GT ISZERO PUSH2 0x416F JUMPI PUSH2 0x416E PUSH2 0x2EB0 JUMP JUMPDEST JUMPDEST SWAP3 SWAP2 POP POP JUMP JUMPDEST PUSH32 0x4E487B7100000000000000000000000000000000000000000000000000000000 PUSH1 0x0 MSTORE PUSH1 0x12 PUSH1 0x4 MSTORE PUSH1 0x24 PUSH1 0x0 REVERT JUMPDEST PUSH1 0x0 PUSH2 0x41AF DUP3 PUSH2 0x301F JUMP JUMPDEST SWAP2 POP PUSH2 0x41BA DUP4 PUSH2 0x301F JUMP JUMPDEST SWAP3 POP DUP3 PUSH2 0x41CA JUMPI PUSH2 0x41C9 PUSH2 0x4175 JUMP JUMPDEST JUMPDEST DUP3 DUP3 DIV SWAP1 POP SWAP3 SWAP2 POP POP JUMP JUMPDEST PUSH1 0x0 DUP2 PUSH1 0x1 SHR SWAP1 POP SWAP2 SWAP1 POP JUMP JUMPDEST PUSH1 0x0 DUP1 DUP3 SWAP2 POP DUP4 SWAP1 POP JUMPDEST PUSH1 0x1 DUP6 GT ISZERO PUSH2 0x422C JUMPI DUP1 DUP7 DIV DUP2 GT ISZERO PUSH2 0x4208 JUMPI PUSH2 0x4207 PUSH2 0x2EB0 JUMP JUMPDEST JUMPDEST PUSH1 0x1 DUP6 AND ISZERO PUSH2 0x4217 JUMPI DUP1 DUP3 MUL SWAP2 POP JUMPDEST DUP1 DUP2 MUL SWAP1 POP PUSH2 0x4225 DUP6 PUSH2 0x41D5 JUMP JUMPDEST SWAP5 POP PUSH2 0x41EC JUMP JUMPDEST SWAP5 POP SWAP5 SWAP3 POP POP POP JUMP JUMPDEST PUSH1 0x0 DUP3 PUSH2 0x4245 JUMPI PUSH1 0x1 SWAP1 POP PUSH2 0x4301 JUMP JUMPDEST DUP2 PUSH2 0x4253 JUMPI PUSH1 0x0 SWAP1 POP PUSH2 0x4301 JUMP JUMPDEST DUP2 PUSH1 0x1 DUP2 EQ PUSH2 0x4269 JUMPI PUSH1 0x2 DUP2 EQ PUSH2 0x4273 JUMPI PUSH2 0x42A2 JUMP JUMPDEST PUSH1 0x1 SWAP2 POP POP PUSH2 0x4301 JUMP JUMPDEST PUSH1 0xFF DUP5 GT ISZERO PUSH2 0x4285 JUMPI PUSH2 0x4284 PUSH2 0x2EB0 JUMP JUMPDEST JUMPDEST DUP4 PUSH1 0x2 EXP SWAP2 POP DUP5 DUP3 GT ISZERO PUSH2 0x429C JUMPI PUSH2 0x429B PUSH2 0x2EB0 JUMP JUMPDEST JUMPDEST POP PUSH2 0x4301 JUMP JUMPDEST POP PUSH1 0x20 DUP4 LT PUSH2 0x133 DUP4 LT AND PUSH1 0x4E DUP5 LT PUSH1 0xB DUP5 LT AND OR ISZERO PUSH2 0x42D7 JUMPI DUP3 DUP3 EXP SWAP1 POP DUP4 DUP2 GT ISZERO PUSH2 0x42D2 JUMPI PUSH2 0x42D1 PUSH2 0x2EB0 JUMP JUMPDEST JUMPDEST PUSH2 0x4301 JUMP JUMPDEST PUSH2 0x42E4 DUP5 DUP5 DUP5 PUSH1 0x1 PUSH2 0x41E2 JUMP JUMPDEST SWAP3 POP SWAP1 POP DUP2 DUP5 DIV DUP2 GT ISZERO PUSH2 0x42FB JUMPI PUSH2 0x42FA PUSH2 0x2EB0 JUMP JUMPDEST JUMPDEST DUP2 DUP2 MUL SWAP1 POP JUMPDEST SWAP4 SWAP3 POP POP POP JUMP JUMPDEST PUSH1 0x0 PUSH2 0x4313 DUP3 PUSH2 0x301F JUMP JUMPDEST SWAP2 POP PUSH2 0x431E DUP4 PUSH2 0x301F JUMP JUMPDEST SWAP3 POP PUSH2 0x434B PUSH32 0xFFFFFFFFFFFFFFFFFFFFFFFFFFFFFFFFFFFFFFFFFFFFFFFFFFFFFFFFFFFFFFFF DUP5 DUP5 PUSH2 0x4235 JUMP JUMPDEST SWAP1 POP SWAP3 SWAP2 POP POP JUMP JUMPDEST PUSH1 0x0 PUSH2 0x435E DUP3 PUSH2 0x301F JUMP JUMPDEST SWAP2 POP PUSH2 0x4369 DUP4 PUSH2 0x301F JUMP JUMPDEST SWAP3 POP DUP3 PUSH2 0x4379 JUMPI PUSH2 0x4378 PUSH2 0x4175 JUMP JUMPDEST JUMPDEST DUP3 DUP3 MOD SWAP1 POP SWAP3 SWAP2 POP POP JUMP JUMPDEST PUSH2 0x438D DUP2 PUSH2 0x34EF JUMP JUMPDEST DUP3 MSTORE POP POP JUMP JUMPDEST PUSH2 0x439C DUP2 PUSH2 0x34EF JUMP JUMPDEST DUP3 MSTORE POP POP JUMP JUMPDEST PUSH1 0x0 PUSH1 0x40 DUP3 ADD SWAP1 POP PUSH2 0x43B7 PUSH1 0x0 DUP4 ADD DUP6 PUSH2 0x4384 JUMP JUMPDEST PUSH2 0x43C4 PUSH1 0x20 DUP4 ADD DUP5 PUSH2 0x4393 JUMP JUMPDEST SWAP4 SWAP3 POP POP POP JUMP JUMPDEST PUSH32 0x64657269766553796D6D65747269634B65793A206661696C6564000000000000 PUSH1 0x0 DUP3 ADD MSTORE POP JUMP JUMPDEST PUSH1 0x0 PUSH2 0x4401 PUSH1 0x1A DUP4 PUSH2 0x3102 JUMP JUMPDEST SWAP2 POP PUSH2 0x440C DUP3 PUSH2 0x43CB JUMP JUMPDEST PUSH1 0x20 DUP3 ADD SWAP1 POP SWAP2 SWAP1 POP JUMP JUMPDEST PUSH1 0x0 PUSH1 0x20 DUP3 ADD SWAP1 POP DUP2 DUP2 SUB PUSH1 0x0 DUP4 ADD MSTORE PUSH2 0x4430 DUP2 PUSH2 0x43F4 JUMP JUMPDEST SWAP1 POP SWAP2 SWAP1 POP JUMP INVALID LOG2 PUSH5 0x6970667358 0x22 SLT KECCAK256 PC 0xD3 SWAP6 GT CALLER 0xBE LT DUP9 PUSH26 0x2536D8D201D7827B43F132868E5F26A72D83A3D0A37E7D64736F PUSH13 0x63430008180033000000000000 "
		},
		"gasEstimates": {
			"creation": {
				"codeDepositCost": "3503400",
				"executionCost": "3925",
				"totalCost": "3507325"
			},
			"external": {
				"makeProxyTx(address,bytes)": "infinite",
				"proxy(bytes)": "infinite",
				"setKeypair((address,bytes32,uint64))": "71806"
			}
		},
		"methodIdentifiers": {
			"makeProxyTx(address,bytes)": "90468c41",
			"proxy(bytes)": "10498e9c",
			"setKeypair((address,bytes32,uint64))": "03185501"
		}
	},
	"abi": [
		{
			"inputs": [
				{
					"internalType": "uint256",
					"name": "len",
					"type": "uint256"
				},
				{
					"internalType": "uint256",
					"name": "offset",
					"type": "uint256"
				},
				{
					"internalType": "uint256",
					"name": "need",
					"type": "uint256"
				}
			],
			"name": "CBOR_Error_BufferOverrun",
			"type": "error"
		},
		{
			"inputs": [
				{
					"internalType": "uint256",
					"name": "byteLength",
					"type": "uint256"
				}
			],
			"name": "CBOR_Error_BytesTooLong",
			"type": "error"
		},
		{
			"inputs": [],
			"name": "CBOR_InvalidKey",
			"type": "error"
		},
		{
			"inputs": [
				{
					"internalType": "uint256",
					"name": "",
					"type": "uint256"
				}
			],
			"name": "CBOR_InvalidLength",
			"type": "error"
		},
		{
			"inputs": [],
			"name": "CBOR_InvalidMap",
			"type": "error"
		},
		{
			"inputs": [
				{
					"internalType": "uint8",
					"name": "",
					"type": "uint8"
				}
			],
			"name": "CBOR_InvalidUintPrefix",
			"type": "error"
		},
		{
			"inputs": [
				{
					"internalType": "uint8",
					"name": "",
					"type": "uint8"
				}
			],
			"name": "CBOR_InvalidUintSize",
			"type": "error"
		},
		{
			"inputs": [
				{
					"internalType": "uint64",
					"name": "",
					"type": "uint64"
				}
			],
			"name": "CoreCallDataPublicKeyError",
			"type": "error"
		},
		{
			"inputs": [],
			"name": "DER_Split_Error",
			"type": "error"
		},
		{
			"inputs": [],
			"name": "SubcallError",
			"type": "error"
		},
		{
			"inputs": [],
			"name": "recoverV_Error",
			"type": "error"
		},
		{
			"inputs": [
				{
					"internalType": "address",
					"name": "innercallAddr",
					"type": "address"
				},
				{
					"internalType": "bytes",
					"name": "innercall",
					"type": "bytes"
				}
			],
			"name": "makeProxyTx",
			"outputs": [
				{
					"internalType": "bytes",
					"name": "output",
					"type": "bytes"
				}
			],
			"stateMutability": "view",
			"type": "function"
		},
		{
			"inputs": [
				{
					"internalType": "bytes",
					"name": "data",
					"type": "bytes"
				}
			],
			"name": "proxy",
			"outputs": [],
			"stateMutability": "payable",
			"type": "function"
		},
		{
			"inputs": [
				{
					"components": [
						{
							"internalType": "address",
							"name": "addr",
							"type": "address"
						},
						{
							"internalType": "bytes32",
							"name": "secret",
							"type": "bytes32"
						},
						{
							"internalType": "uint64",
							"name": "nonce",
							"type": "uint64"
						}
					],
					"internalType": "struct EthereumKeypair",
					"name": "keypair",
					"type": "tuple"
				}
			],
			"name": "setKeypair",
			"outputs": [],
			"stateMutability": "payable",
			"type": "function"
		}
	]
}