{
	"data": {
		"bytecode": {
			"linkReferences": {},
			"object": "60a06040523480156200001157600080fd5b506040516200387e3803806200387e833981810160405281019062000037919062000344565b806200005a602060405180602001604052806000815250620000b960201b60201c565b6200006590620003de565b60028190555080600190816200007c91906200068c565b5050620000a0602060405180602001604052806000815250620000b960201b60201c565b620000ab90620003de565b6080818152505050620008e8565b606060008073010000000000000000000000000000000000000173ffffffffffffffffffffffffffffffffffffffff168585604051602001620000fe929190620007d6565b6040516020818303038152906040526040516200011c91906200084c565b600060405180830381855afa9150503d806000811462000159576040519150601f19603f3d011682016040523d82523d6000602084013e6200015e565b606091505b509150915081620001a6576040517f08c379a00000000000000000000000000000000000000000000000000000000081526004016200019d90620008c6565b60405180910390fd5b809250505092915050565b6000604051905090565b600080fd5b600080fd5b600080fd5b600080fd5b6000601f19601f8301169050919050565b7f4e487b7100000000000000000000000000000000000000000000000000000000600052604160045260246000fd5b6200021a82620001cf565b810181811067ffffffffffffffff821117156200023c576200023b620001e0565b5b80604052505050565b600062000251620001b1565b90506200025f82826200020f565b919050565b600067ffffffffffffffff821115620002825762000281620001e0565b5b6200028d82620001cf565b9050602081019050919050565b60005b83811015620002ba5780820151818401526020810190506200029d565b60008484015250505050565b6000620002dd620002d78462000264565b62000245565b905082815260208101848484011115620002fc57620002fb620001ca565b5b620003098482856200029a565b509392505050565b600082601f830112620003295762000328620001c5565b5b81516200033b848260208601620002c6565b91505092915050565b6000602082840312156200035d576200035c620001bb565b5b600082015167ffffffffffffffff8111156200037e576200037d620001c0565b5b6200038c8482850162000311565b91505092915050565b600081519050919050565b6000819050602082019050919050565b6000819050919050565b6000620003c88251620003b0565b80915050919050565b600082821b905092915050565b6000620003eb8262000395565b82620003f784620003a0565b90506200040481620003ba565b925060208210156200044757620004427fffffffffffffffffffffffffffffffffffffffffffffffffffffffffffffffff83602003600802620003d1565b831692505b5050919050565b600081519050919050565b7f4e487b7100000000000000000000000000000000000000000000000000000000600052602260045260246000fd5b60006002820490506001821680620004a157607f821691505b602082108103620004b757620004b662000459565b5b50919050565b60008190508160005260206000209050919050565b60006020601f8301049050919050565b600060088302620005147fffffffffffffffffffffffffffffffffffffffffffffffffffffffffffffffff82620003d1565b620005208683620003d1565b95508019841693508086168417925050509392505050565b6000819050919050565b6000819050919050565b60006200056d62000567620005618462000538565b62000542565b62000538565b9050919050565b6000819050919050565b62000589836200054c565b620005a1620005988262000574565b848454620004e2565b825550505050565b600090565b620005b8620005a9565b620005c58184846200057e565b505050565b5b81811015620005ed57620005e1600082620005ae565b600181019050620005cb565b5050565b601f8211156200063c576200060681620004bd565b6200061184620004d2565b8101602085101562000621578190505b620006396200063085620004d2565b830182620005ca565b50505b505050565b600082821c905092915050565b6000620006616000198460080262000641565b1980831691505092915050565b60006200067c83836200064e565b9150826002028217905092915050565b62000697826200044e565b67ffffffffffffffff811115620006b357620006b2620001e0565b5b620006bf825462000488565b620006cc828285620005f1565b600060209050601f831160018114620007045760008415620006ef578287015190505b620006fb85826200066e565b8655506200076b565b601f1984166200071486620004bd565b60005b828110156200073e5784890151825560018201915060208501945060208101905062000717565b868310156200075e57848901516200075a601f8916826200064e565b8355505b6001600288020188555050505b505050505050565b6200077e8162000538565b82525050565b600082825260208201905092915050565b6000620007a28262000395565b620007ae818562000784565b9350620007c08185602086016200029a565b620007cb81620001cf565b840191505092915050565b6000604082019050620007ed600083018562000773565b818103602083015262000801818462000795565b90509392505050565b600081905092915050565b6000620008228262000395565b6200082e81856200080a565b9350620008408185602086016200029a565b80840191505092915050565b60006200085a828462000815565b915081905092915050565b600082825260208201905092915050565b7f72616e646f6d42797465733a206661696c656400000000000000000000000000600082015250565b6000620008ae60138362000865565b9150620008bb8262000876565b602082019050919050565b60006020820190508181036000830152620008e1816200089f565b9050919050565b608051612f7d6200090160003960005050612f7d6000f3fe608060405234801561001057600080fd5b50600436106100625760003560e01c80631bf6085b146100675780633ab9d858146100855780637f476b6f146100a3578063a6c3e6b9146100d3578063c2fb26a6146100f1578063e65e6de91461010f575b600080fd5b61006f61012b565b60405161007c91906122c7565b60405180910390f35b61008d610151565b60405161009a91906122fb565b60405180910390f35b6100bd60048036038101906100b891906123a9565b61015b565b6040516100ca9190612499565b60405180910390f35b6100db61054e565b6040516100e891906122c7565b60405180910390f35b6100f9610574565b6040516101069190612510565b60405180910390f35b6101296004803603810190610124919061255e565b610606565b005b600360009054906101000a900473ffffffffffffffffffffffffffffffffffffffff1681565b6000600654905090565b60606101656121a7565b600061017386869050610610565b868660405160200161018793929190612647565b6040516020818303038152906040529050600060018280519060200120866040013587600001358860200135604051600081526020016040526040516101d09493929190612694565b6020604051602081039080840390855afa1580156101f2573d6000803e3d6000fd5b50505060206040510351905080836020019073ffffffffffffffffffffffffffffffffffffffff16908173ffffffffffffffffffffffffffffffffffffffff1681525050600061024288886106de565b9050468160a0015114610281576040517f362c833700000000000000000000000000000000000000000000000000000000815260040160405180910390fd5b600160405161029091906127dc565b6040518091039020816000015180519060200120146102db576040517f283d62bd00000000000000000000000000000000000000000000000000000000815260040160405180910390fd5b806000015184600001819052508173ffffffffffffffffffffffffffffffffffffffff16816020015173ffffffffffffffffffffffffffffffffffffffff1614610351576040517f05cc02e100000000000000000000000000000000000000000000000000000000815260040160405180910390fd5b600081610120015151141580156103755750610371816101200151610d1d565b4211155b156103ac576040517f299d02f100000000000000000000000000000000000000000000000000000000815260040160405180910390fd5b600081610100015151146103dc5760006103ca826101000151610d1d565b905080856040018181525050506103f5565b62015180426103eb919061282c565b8460400181815250505b83604001514210610432576040517fb171155000000000000000000000000000000000000000000000000000000000815260040160405180910390fd5b806040015184606001819052508061016001515167ffffffffffffffff81111561045f5761045e612860565b5b60405190808252806020026020018201604052801561049257816020015b606081526020019060019003908161047d5790505b50846080018190525060005b816101600151518110156104fb5781610160015181815181106104c4576104c361288f565b5b6020026020010151856080015182815181106104e3576104e261288f565b5b6020026020010181905250808060010191505061049e565b50600061053d6002546000801b876040516020016105199190612a6c565b60405160208183030381529060405260405180602001604052806000815250610dac565b905080955050505050509392505050565b600460009054906101000a900473ffffffffffffffffffffffffffffffffffffffff1681565b60606001805461058390612708565b80601f01602080910402602001604051908101604052809291908181526020018280546105af90612708565b80156105fc5780601f106105d1576101008083540402835291602001916105fc565b820191906000526020600020905b8154815290600101906020018083116105df57829003601f168201915b5050505050905090565b8060068190555050565b60606000600161061f84610ea1565b01905060008167ffffffffffffffff81111561063e5761063d612860565b5b6040519080825280601f01601f1916602001820160405280156106705781602001600182028036833780820191505090505b509050600082602083010190505b6001156106d3578080600190039150507f3031323334353637383961626364656600000000000000000000000000000000600a86061a8153600a85816106c7576106c6612a8e565b5b0494506000850361067e575b819350505050919050565b6106e66121ec565b6106ee6121ec565b60005b848490508110156107cb577f20000000000000000000000000000000000000000000000000000000000000008585838181106107305761072f61288f565b5b9050013560f81c60f81b7effffffffffffffffffffffffffffffffffffffffffffffffffffffffffffff1916036107be576107b185858080601f016020809104026020016040519081016040528093929190818152602001838380828437600081840152601f19601f82011690508083019250505050505050600083610ff4565b82600001819052506107cb565b80806001019150506106f1565b6032816107d8919061282c565b905061084f61084a86868080601f016020809104026020016040519081016040528093929190818152602001838380828437600081840152601f19601f82011690508083019250505050505050600284610832919061282c565b935083602885610842919061282c565b945084610ff4565b6110f6565b826020019073ffffffffffffffffffffffffffffffffffffffff16908173ffffffffffffffffffffffffffffffffffffffff1681525050600281610893919061282c565b9050848490508110801561090557507f0a000000000000000000000000000000000000000000000000000000000000008585838181106108d6576108d561288f565b5b9050013560f81c60f81b7effffffffffffffffffffffffffffffffffffffffffffffffffffffffffffff191614155b156109de5760008190505b858590508110156109dc57600a60f81b8686838181106109335761093261288f565b5b9050013560f81c60f81b7effffffffffffffffffffffffffffffffffffffffffffffffffffffffffffff1916036109cf576109b386868080601f016020809104026020016040519081016040528093929190818152602001838380828437600081840152601f19601f820116905080830192505050505050508383610ff4565b83604001819052506001816109c8919061282c565b91506109dc565b8080600101915050610910565b505b80806109e990612abd565b915050610a2d85856040518060400160405280600381526020017f55524900000000000000000000000000000000000000000000000000000000008152508461129b565b836060018193508290525050610a7a85856040518060400160405280600781526020017f56657273696f6e000000000000000000000000000000000000000000000000008152508461129b565b8360800181935082905250506060610ac986866040518060400160405280600881526020017f436861696e2049440000000000000000000000000000000000000000000000008152508561129b565b8093508192505050610ada81611566565b8360a0018181525050610b2486866040518060400160405280600581526020017f4e6f6e63650000000000000000000000000000000000000000000000000000008152508561129b565b8460c001819450829052505060088360c00151511015610b70576040517fb4bc030c00000000000000000000000000000000000000000000000000000000815260040160405180910390fd5b610bb186866040518060400160405280600981526020017f49737375656420417400000000000000000000000000000000000000000000008152508561129b565b8460e0018194508290525050610bfe86866040518060400160405280600f81526020017f45787069726174696f6e2054696d6500000000000000000000000000000000008152508561129b565b84610100018194508290525050610c4c86866040518060400160405280600a81526020017f4e6f74204265666f7265000000000000000000000000000000000000000000008152508561129b565b84610120018194508290525050610c9a86866040518060400160405280600a81526020017f52657175657374204944000000000000000000000000000000000000000000008152508561129b565b846101400181945082905250506000610cea87876040518060400160405280600981526020017f5265736f757263657300000000000000000000000000000000000000000000008152508661129b565b905080915050828114610d1057610d028787836115d9565b856101600181955082905250505b8394505050505092915050565b6000610da5610d37610d328460006004610ff4565b611566565b610d4c610d478560056007610ff4565b611566565b610d61610d5c866008600a610ff4565b611566565b610d76610d7187600b600d610ff4565b611566565b610d8b610d8688600e6010610ff4565b611566565b610da0610d9b8960116013610ff4565b611566565b611a09565b9050919050565b606060008073010000000000000000000000000000000000000373ffffffffffffffffffffffffffffffffffffffff1687878787604051602001610df39493929190612b05565b604051602081830303815290604052604051610e0f9190612b89565b600060405180830381855afa9150503d8060008114610e4a576040519150601f19603f3d011682016040523d82523d6000602084013e610e4f565b606091505b509150915081610e94576040517f08c379a0000000000000000000000000000000000000000000000000000000008152600401610e8b90612bec565b60405180910390fd5b8092505050949350505050565b600080600090507a184f03e93ff9f4daa797ed6e38ed64bf6a1f0100000000000000008310610eff577a184f03e93ff9f4daa797ed6e38ed64bf6a1f0100000000000000008381610ef557610ef4612a8e565b5b0492506040810190505b6d04ee2d6d415b85acef81000000008310610f3c576d04ee2d6d415b85acef81000000008381610f3257610f31612a8e565b5b0492506020810190505b662386f26fc100008310610f6b57662386f26fc100008381610f6157610f60612a8e565b5b0492506010810190505b6305f5e1008310610f94576305f5e1008381610f8a57610f89612a8e565b5b0492506008810190505b6127108310610fb9576127108381610faf57610fae612a8e565b5b0492506004810190505b60648310610fdc5760648381610fd257610fd1612a8e565b5b0492506002810190505b600a8310610feb576001810190505b80915050919050565b6060600083836110049190612c0c565b67ffffffffffffffff81111561101d5761101c612860565b5b6040519080825280601f01601f19166020018201604052801561104f5781602001600182028036833780820191505090505b50905060008490505b83811080156110675750855181105b156110ea5785818151811061107f5761107e61288f565b5b602001015160f81c60f81b8286836110979190612c0c565b815181106110a8576110a761288f565b5b60200101907effffffffffffffffffffffffffffffffffffffffffffffffffffffffffffff1916908160001a90535080806110e290612abd565b915050611058565b50809150509392505050565b60006028825114611133576040517facf8696900000000000000000000000000000000000000000000000000000000815260040160405180910390fd5b6000600283516111439190612c40565b67ffffffffffffffff81111561115c5761115b612860565b5b6040519080825280601f01601f19166020018201604052801561118e5781602001600182028036833780820191505090505b50905060005b600284516111a29190612c40565b811015611285576111ea8460018360026111bc9190612c71565b6111c6919061282c565b815181106111d7576111d661288f565b5b602001015160f81c60f81b60f81c611dc9565b6010611221868460026111fd9190612c71565b8151811061120e5761120d61288f565b5b602001015160f81c60f81b60f81c611dc9565b61122b9190612cb3565b6112359190612cf0565b60f81b82828151811061124b5761124a61288f565b5b60200101907effffffffffffffffffffffffffffffffffffffffffffffffffffffffffffff1916908160001a905350806001019050611194565b508061129090612d83565b60601c915050919050565b60606000808390505b8686905081101561143f577f3a000000000000000000000000000000000000000000000000000000000000008787838181106112e3576112e261288f565b5b9050013560f81c60f81b7effffffffffffffffffffffffffffffffffffffffffffffffffffffffffffff19160361142c57848051906020012061136b88888080601f016020809104026020016040519081016040528093929190818152602001838380828437600081840152601f19601f820116905080830192505050505050508684610ff4565b805190602001201461139357836040518060200160405280600081525090925092505061155d565b808061139e90612abd565b915050868690508110801561141057507f20000000000000000000000000000000000000000000000000000000000000008787838181106113e2576113e161288f565b5b9050013560f81c60f81b7effffffffffffffffffffffffffffffffffffffffffffffffffffffffffffff1916145b1561142457808061142090612abd565b9150505b80935061143f565b808061143790612abd565b9150506112a4565b5b8686905081101561150757600a60f81b8787838181106114635761146261288f565b5b9050013560f81c60f81b7effffffffffffffffffffffffffffffffffffffffffffffffffffffffffffff1916036114fa576114e387878080601f016020809104026020016040519081016040528093929190818152602001838380828437600081840152601f19601f820116905080830192505050505050508583610ff4565b6001826114f0919061282c565b925092505061155d565b8080600101915050611440565b61155687878080601f016020809104026020016040519081016040528093929190818152602001838380828437600081840152601f19601f820116905080830192505050505050508583610ff4565b8192509250505b94509492505050565b6000806000905060005b83518110156115cf57603084828151811061158e5761158d61288f565b5b602001015160f81c60f81b60f81c60ff166115a99190612c0c565b600a836115b69190612c71565b6115c0919061282c565b91508080600101915050611570565b5080915050919050565b606060008083905060005b6001878790506115f49190612c0c565b82101561177d577f2d0000000000000000000000000000000000000000000000000000000000000087878481811061162f5761162e61288f565b5b9050013560f81c60f81b7effffffffffffffffffffffffffffffffffffffffffffffffffffffffffffff19161480156116d157507f20000000000000000000000000000000000000000000000000000000000000008787600185611693919061282c565b8181106116a3576116a261288f565b5b9050013560f81c60f81b7effffffffffffffffffffffffffffffffffffffffffffffffffffffffffffff1916145b156116f8576002826116e3919061282c565b915080806116f090612abd565b9150506116fd565b61177d565b5b86869050821080156117525750600a60f81b8787848181106117235761172261288f565b5b9050013560f81c60f81b7effffffffffffffffffffffffffffffffffffffffffffffffffffffffffffff191614155b1561176a57818061176290612abd565b9250506116fe565b818061177590612abd565b9250506115e4565b60008167ffffffffffffffff81111561179957611798612860565b5b6040519080825280602002602001820160405280156117cc57816020015b60608152602001906001900390816117b75790505b50905085925060005b6001898990506117e59190612c0c565b841080156117f35750828114155b156119f7577f2d0000000000000000000000000000000000000000000000000000000000000089898681811061182c5761182b61288f565b5b9050013560f81c60f81b7effffffffffffffffffffffffffffffffffffffffffffffffffffffffffffff19161480156118ce57507f20000000000000000000000000000000000000000000000000000000000000008989600187611890919061282c565b8181106118a05761189f61288f565b5b9050013560f81c60f81b7effffffffffffffffffffffffffffffffffffffffffffffffffffffffffffff1916145b156118e3576002846118e0919061282c565b96505b5b88889050841080156119385750600a60f81b8989868181106119095761190861288f565b5b9050013560f81c60f81b7effffffffffffffffffffffffffffffffffffffffffffffffffffffffffffff191614155b1561195057838061194890612abd565b9450506118e4565b61199f89898080601f016020809104026020016040519081016040528093929190818152602001838380828437600081840152601f19601f820116905080830192505050505050508886610ff4565b8282815181106119b2576119b161288f565b5b602002602001018190525080806119c890612abd565b9150508888905084036119e45783806119e090612dea565b9450505b83806119ef90612abd565b9450506117d5565b50808394509450505050935093915050565b6000806107b290505b8761ffff168161ffff161015611a6757611a2b81612138565b15611a47576301e2850082611a40919061282c565b9150611a5a565b6301e1338082611a57919061282c565b91505b8080600101915050611a12565b611a6f612263565b601f816000600c8110611a8557611a8461288f565b5b602002019063ffffffff16908163ffffffff1681525050611aa589612138565b15611adc57601d816001600c8110611ac057611abf61288f565b5b602002019063ffffffff16908163ffffffff1681525050611b0a565b601c816001600c8110611af257611af161288f565b5b602002019063ffffffff16908163ffffffff16815250505b601f816002600c8110611b2057611b1f61288f565b5b602002019063ffffffff16908163ffffffff1681525050601e816003600c8110611b4d57611b4c61288f565b5b602002019063ffffffff16908163ffffffff1681525050601f816004600c8110611b7a57611b7961288f565b5b602002019063ffffffff16908163ffffffff1681525050601e816005600c8110611ba757611ba661288f565b5b602002019063ffffffff16908163ffffffff1681525050601f816006600c8110611bd457611bd361288f565b5b602002019063ffffffff16908163ffffffff1681525050601f816007600c8110611c0157611c0061288f565b5b602002019063ffffffff16908163ffffffff1681525050601e816008600c8110611c2e57611c2d61288f565b5b602002019063ffffffff16908163ffffffff1681525050601f816009600c8110611c5b57611c5a61288f565b5b602002019063ffffffff16908163ffffffff1681525050601e81600a600c8110611c8857611c8761288f565b5b602002019063ffffffff16908163ffffffff1681525050601f81600b600c8110611cb557611cb461288f565b5b602002019063ffffffff16908163ffffffff1681525050600191505b8760ff168261ffff161015611d36576201518081600184611cf29190612e21565b61ffff16600c8110611d0757611d0661288f565b5b6020020151611d169190612e67565b63ffffffff1683611d27919061282c565b92508180600101925050611cd1565b62015180600188611d479190612ea4565b60ff16611d549190612e67565b63ffffffff1683611d65919061282c565b9250610e108660ff16611d789190612e67565b63ffffffff1683611d89919061282c565b9250603c8560ff16611d9b9190612ed9565b61ffff1683611daa919061282c565b92508360ff1683611dbb919061282c565b925050509695505050505050565b60007f30000000000000000000000000000000000000000000000000000000000000007effffffffffffffffffffffffffffffffffffffffffffffffffffffffffffff19168260f81b7effffffffffffffffffffffffffffffffffffffffffffffffffffffffffffff191610158015611ea957507f39000000000000000000000000000000000000000000000000000000000000007effffffffffffffffffffffffffffffffffffffffffffffffffffffffffffff19168260f81b7effffffffffffffffffffffffffffffffffffffffffffffffffffffffffffff191611155b15611ee4577f300000000000000000000000000000000000000000000000000000000000000060f81c82611edd9190612ea4565b9050612133565b7f61000000000000000000000000000000000000000000000000000000000000007effffffffffffffffffffffffffffffffffffffffffffffffffffffffffffff19168260f81b7effffffffffffffffffffffffffffffffffffffffffffffffffffffffffffff191610158015611fc257507f66000000000000000000000000000000000000000000000000000000000000007effffffffffffffffffffffffffffffffffffffffffffffffffffffffffffff19168260f81b7effffffffffffffffffffffffffffffffffffffffffffffffffffffffffffff191611155b15612009577f610000000000000000000000000000000000000000000000000000000000000060f81c82600a611ff89190612cf0565b6120029190612ea4565b9050612133565b7f41000000000000000000000000000000000000000000000000000000000000007effffffffffffffffffffffffffffffffffffffffffffffffffffffffffffff19168260f81b7effffffffffffffffffffffffffffffffffffffffffffffffffffffffffffff1916101580156120e757507f46000000000000000000000000000000000000000000000000000000000000007effffffffffffffffffffffffffffffffffffffffffffffffffffffffffffff19168260f81b7effffffffffffffffffffffffffffffffffffffffffffffffffffffffffffff191611155b1561212e577f410000000000000000000000000000000000000000000000000000000000000060f81c82600a61211d9190612cf0565b6121279190612ea4565b9050612133565b600090505b919050565b6000806004836121489190612f16565b61ffff161461215a57600090506121a2565b60006064836121699190612f16565b61ffff161461217b57600190506121a2565b60006101908361218b9190612f16565b61ffff161461219d57600090506121a2565b600190505b919050565b6040518060a0016040528060608152602001600073ffffffffffffffffffffffffffffffffffffffff1681526020016000815260200160608152602001606081525090565b60405180610180016040528060608152602001600073ffffffffffffffffffffffffffffffffffffffff168152602001606081526020016060815260200160608152602001600081526020016060815260200160608152602001606081526020016060815260200160608152602001606081525090565b604051806101800160405280600c90602082028036833780820191505090505090565b600073ffffffffffffffffffffffffffffffffffffffff82169050919050565b60006122b182612286565b9050919050565b6122c1816122a6565b82525050565b60006020820190506122dc60008301846122b8565b92915050565b6000819050919050565b6122f5816122e2565b82525050565b600060208201905061231060008301846122ec565b92915050565b600080fd5b600080fd5b600080fd5b600080fd5b600080fd5b60008083601f84011261234557612344612320565b5b8235905067ffffffffffffffff81111561236257612361612325565b5b60208301915083600182028301111561237e5761237d61232a565b5b9250929050565b600080fd5b6000606082840312156123a05761239f612385565b5b81905092915050565b6000806000608084860312156123c2576123c1612316565b5b600084013567ffffffffffffffff8111156123e0576123df61231b565b5b6123ec8682870161232f565b935093505060206123ff8682870161238a565b9150509250925092565b600081519050919050565b600082825260208201905092915050565b60005b83811015612443578082015181840152602081019050612428565b60008484015250505050565b6000601f19601f8301169050919050565b600061246b82612409565b6124758185612414565b9350612485818560208601612425565b61248e8161244f565b840191505092915050565b600060208201905081810360008301526124b38184612460565b905092915050565b600081519050919050565b600082825260208201905092915050565b60006124e2826124bb565b6124ec81856124c6565b93506124fc818560208601612425565b6125058161244f565b840191505092915050565b6000602082019050818103600083015261252a81846124d7565b905092915050565b61253b816122e2565b811461254657600080fd5b50565b60008135905061255881612532565b92915050565b60006020828403121561257457612573612316565b5b600061258284828501612549565b91505092915050565b600081905092915050565b7f19457468657265756d205369676e6564204d6573736167653a0a000000000000600082015250565b60006125cc601a8361258b565b91506125d782612596565b601a82019050919050565b60006125ed826124bb565b6125f7818561258b565b9350612607818560208601612425565b80840191505092915050565b82818337600083830152505050565b600061262e838561258b565b935061263b838584612613565b82840190509392505050565b6000612652826125bf565b915061265e82866125e2565b915061266b828486612622565b9150819050949350505050565b600060ff82169050919050565b61268e81612678565b82525050565b60006080820190506126a960008301876122ec565b6126b66020830186612685565b6126c360408301856122ec565b6126d060608301846122ec565b95945050505050565b7f4e487b7100000000000000000000000000000000000000000000000000000000600052602260045260246000fd5b6000600282049050600182168061272057607f821691505b602082108103612733576127326126d9565b5b50919050565b600081905092915050565b60008190508160005260206000209050919050565b6000815461276681612708565b6127708186612739565b9450600182166000811461278b57600181146127a0576127d3565b60ff19831686528115158202860193506127d3565b6127a985612744565b60005b838110156127cb578154818901526001820191506020810190506127ac565b838801955050505b50505092915050565b60006127e88284612759565b915081905092915050565b6000819050919050565b7f4e487b7100000000000000000000000000000000000000000000000000000000600052601160045260246000fd5b6000612837826127f3565b9150612842836127f3565b925082820190508082111561285a576128596127fd565b5b92915050565b7f4e487b7100000000000000000000000000000000000000000000000000000000600052604160045260246000fd5b7f4e487b7100000000000000000000000000000000000000000000000000000000600052603260045260246000fd5b600082825260208201905092915050565b60006128da826124bb565b6128e481856128be565b93506128f4818560208601612425565b6128fd8161244f565b840191505092915050565b612911816122a6565b82525050565b612920816127f3565b82525050565b600081519050919050565b600082825260208201905092915050565b6000819050602082019050919050565b600061295e83836128cf565b905092915050565b6000602082019050919050565b600061297e82612926565b6129888185612931565b93508360208202850161299a85612942565b8060005b858110156129d657848403895281516129b78582612952565b94506129c283612966565b925060208a0199505060018101905061299e565b50829750879550505050505092915050565b600060a0830160008301518482036000860152612a0582826128cf565b9150506020830151612a1a6020860182612908565b506040830151612a2d6040860182612917565b5060608301518482036060860152612a4582826128cf565b91505060808301518482036080860152612a5f8282612973565b9150508091505092915050565b60006020820190508181036000830152612a8681846129e8565b905092915050565b7f4e487b7100000000000000000000000000000000000000000000000000000000600052601260045260246000fd5b6000612ac8826127f3565b91507fffffffffffffffffffffffffffffffffffffffffffffffffffffffffffffffff8203612afa57612af96127fd565b5b600182019050919050565b6000608082019050612b1a60008301876122ec565b612b2760208301866122ec565b8181036040830152612b398185612460565b90508181036060830152612b4d8184612460565b905095945050505050565b6000612b6382612409565b612b6d8185612739565b9350612b7d818560208601612425565b80840191505092915050565b6000612b958284612b58565b915081905092915050565b7f656e63727970743a206661696c65640000000000000000000000000000000000600082015250565b6000612bd6600f836124c6565b9150612be182612ba0565b602082019050919050565b60006020820190508181036000830152612c0581612bc9565b9050919050565b6000612c17826127f3565b9150612c22836127f3565b9250828203905081811115612c3a57612c396127fd565b5b92915050565b6000612c4b826127f3565b9150612c56836127f3565b925082612c6657612c65612a8e565b5b828204905092915050565b6000612c7c826127f3565b9150612c87836127f3565b9250828202612c95816127f3565b91508282048414831517612cac57612cab6127fd565b5b5092915050565b6000612cbe82612678565b9150612cc983612678565b9250828202612cd781612678565b9150808214612ce957612ce86127fd565b5b5092915050565b6000612cfb82612678565b9150612d0683612678565b9250828201905060ff811115612d1f57612d1e6127fd565b5b92915050565b6000819050602082019050919050565b60007fffffffffffffffffffffffffffffffffffffffff00000000000000000000000082169050919050565b6000612d6d8251612d35565b80915050919050565b600082821b905092915050565b6000612d8e82612409565b82612d9884612d25565b9050612da381612d61565b92506014821015612de357612dde7fffffffffffffffffffffffffffffffffffffffff00000000000000000000000083601403600802612d76565b831692505b5050919050565b6000612df5826127f3565b915060008203612e0857612e076127fd565b5b600182039050919050565b600061ffff82169050919050565b6000612e2c82612e13565b9150612e3783612e13565b9250828203905061ffff811115612e5157612e506127fd565b5b92915050565b600063ffffffff82169050919050565b6000612e7282612e57565b9150612e7d83612e57565b9250828202612e8b81612e57565b9150808214612e9d57612e9c6127fd565b5b5092915050565b6000612eaf82612678565b9150612eba83612678565b9250828203905060ff811115612ed357612ed26127fd565b5b92915050565b6000612ee482612e13565b9150612eef83612e13565b9250828202612efd81612e13565b9150808214612f0f57612f0e6127fd565b5b5092915050565b6000612f2182612e13565b9150612f2c83612e13565b925082612f3c57612f3b612a8e565b5b82820690509291505056fea26469706673582212200001005d772eab75ba580a83857806a8c43a4a46ac57002f3d7fca0116b8500664736f6c63430008180033",
			"opcodes": "PUSH1 0xA0 PUSH1 0x40 MSTORE CALLVALUE DUP1 ISZERO PUSH3 0x11 JUMPI PUSH1 0x0 DUP1 REVERT JUMPDEST POP PUSH1 0x40 MLOAD PUSH3 0x387E CODESIZE SUB DUP1 PUSH3 0x387E DUP4 CODECOPY DUP2 DUP2 ADD PUSH1 0x40 MSTORE DUP2 ADD SWAP1 PUSH3 0x37 SWAP2 SWAP1 PUSH3 0x344 JUMP JUMPDEST DUP1 PUSH3 0x5A PUSH1 0x20 PUSH1 0x40 MLOAD DUP1 PUSH1 0x20 ADD PUSH1 0x40 MSTORE DUP1 PUSH1 0x0 DUP2 MSTORE POP PUSH3 0xB9 PUSH1 0x20 SHL PUSH1 0x20 SHR JUMP JUMPDEST PUSH3 0x65 SWAP1 PUSH3 0x3DE JUMP JUMPDEST PUSH1 0x2 DUP2 SWAP1 SSTORE POP DUP1 PUSH1 0x1 SWAP1 DUP2 PUSH3 0x7C SWAP2 SWAP1 PUSH3 0x68C JUMP JUMPDEST POP POP PUSH3 0xA0 PUSH1 0x20 PUSH1 0x40 MLOAD DUP1 PUSH1 0x20 ADD PUSH1 0x40 MSTORE DUP1 PUSH1 0x0 DUP2 MSTORE POP PUSH3 0xB9 PUSH1 0x20 SHL PUSH1 0x20 SHR JUMP JUMPDEST PUSH3 0xAB SWAP1 PUSH3 0x3DE JUMP JUMPDEST PUSH1 0x80 DUP2 DUP2 MSTORE POP POP POP PUSH3 0x8E8 JUMP JUMPDEST PUSH1 0x60 PUSH1 0x0 DUP1 PUSH20 0x100000000000000000000000000000000000001 PUSH20 0xFFFFFFFFFFFFFFFFFFFFFFFFFFFFFFFFFFFFFFFF AND DUP6 DUP6 PUSH1 0x40 MLOAD PUSH1 0x20 ADD PUSH3 0xFE SWAP3 SWAP2 SWAP1 PUSH3 0x7D6 JUMP JUMPDEST PUSH1 0x40 MLOAD PUSH1 0x20 DUP2 DUP4 SUB SUB DUP2 MSTORE SWAP1 PUSH1 0x40 MSTORE PUSH1 0x40 MLOAD PUSH3 0x11C SWAP2 SWAP1 PUSH3 0x84C JUMP JUMPDEST PUSH1 0x0 PUSH1 0x40 MLOAD DUP1 DUP4 SUB DUP2 DUP6 GAS STATICCALL SWAP2 POP POP RETURNDATASIZE DUP1 PUSH1 0x0 DUP2 EQ PUSH3 0x159 JUMPI PUSH1 0x40 MLOAD SWAP2 POP PUSH1 0x1F NOT PUSH1 0x3F RETURNDATASIZE ADD AND DUP3 ADD PUSH1 0x40 MSTORE RETURNDATASIZE DUP3 MSTORE RETURNDATASIZE PUSH1 0x0 PUSH1 0x20 DUP5 ADD RETURNDATACOPY PUSH3 0x15E JUMP JUMPDEST PUSH1 0x60 SWAP2 POP JUMPDEST POP SWAP2 POP SWAP2 POP DUP2 PUSH3 0x1A6 JUMPI PUSH1 0x40 MLOAD PUSH32 0x8C379A000000000000000000000000000000000000000000000000000000000 DUP2 MSTORE PUSH1 0x4 ADD PUSH3 0x19D SWAP1 PUSH3 0x8C6 JUMP JUMPDEST PUSH1 0x40 MLOAD DUP1 SWAP2 SUB SWAP1 REVERT JUMPDEST DUP1 SWAP3 POP POP POP SWAP3 SWAP2 POP POP JUMP JUMPDEST PUSH1 0x0 PUSH1 0x40 MLOAD SWAP1 POP SWAP1 JUMP JUMPDEST PUSH1 0x0 DUP1 REVERT JUMPDEST PUSH1 0x0 DUP1 REVERT JUMPDEST PUSH1 0x0 DUP1 REVERT JUMPDEST PUSH1 0x0 DUP1 REVERT JUMPDEST PUSH1 0x0 PUSH1 0x1F NOT PUSH1 0x1F DUP4 ADD AND SWAP1 POP SWAP2 SWAP1 POP JUMP JUMPDEST PUSH32 0x4E487B7100000000000000000000000000000000000000000000000000000000 PUSH1 0x0 MSTORE PUSH1 0x41 PUSH1 0x4 MSTORE PUSH1 0x24 PUSH1 0x0 REVERT JUMPDEST PUSH3 0x21A DUP3 PUSH3 0x1CF JUMP JUMPDEST DUP2 ADD DUP2 DUP2 LT PUSH8 0xFFFFFFFFFFFFFFFF DUP3 GT OR ISZERO PUSH3 0x23C JUMPI PUSH3 0x23B PUSH3 0x1E0 JUMP JUMPDEST JUMPDEST DUP1 PUSH1 0x40 MSTORE POP POP POP JUMP JUMPDEST PUSH1 0x0 PUSH3 0x251 PUSH3 0x1B1 JUMP JUMPDEST SWAP1 POP PUSH3 0x25F DUP3 DUP3 PUSH3 0x20F JUMP JUMPDEST SWAP2 SWAP1 POP JUMP JUMPDEST PUSH1 0x0 PUSH8 0xFFFFFFFFFFFFFFFF DUP3 GT ISZERO PUSH3 0x282 JUMPI PUSH3 0x281 PUSH3 0x1E0 JUMP JUMPDEST JUMPDEST PUSH3 0x28D DUP3 PUSH3 0x1CF JUMP JUMPDEST SWAP1 POP PUSH1 0x20 DUP2 ADD SWAP1 POP SWAP2 SWAP1 POP JUMP JUMPDEST PUSH1 0x0 JUMPDEST DUP4 DUP2 LT ISZERO PUSH3 0x2BA JUMPI DUP1 DUP3 ADD MLOAD DUP2 DUP5 ADD MSTORE PUSH1 0x20 DUP2 ADD SWAP1 POP PUSH3 0x29D JUMP JUMPDEST PUSH1 0x0 DUP5 DUP5 ADD MSTORE POP POP POP POP JUMP JUMPDEST PUSH1 0x0 PUSH3 0x2DD PUSH3 0x2D7 DUP5 PUSH3 0x264 JUMP JUMPDEST PUSH3 0x245 JUMP JUMPDEST SWAP1 POP DUP3 DUP2 MSTORE PUSH1 0x20 DUP2 ADD DUP5 DUP5 DUP5 ADD GT ISZERO PUSH3 0x2FC JUMPI PUSH3 0x2FB PUSH3 0x1CA JUMP JUMPDEST JUMPDEST PUSH3 0x309 DUP5 DUP3 DUP6 PUSH3 0x29A JUMP JUMPDEST POP SWAP4 SWAP3 POP POP POP JUMP JUMPDEST PUSH1 0x0 DUP3 PUSH1 0x1F DUP4 ADD SLT PUSH3 0x329 JUMPI PUSH3 0x328 PUSH3 0x1C5 JUMP JUMPDEST JUMPDEST DUP2 MLOAD PUSH3 0x33B DUP5 DUP3 PUSH1 0x20 DUP7 ADD PUSH3 0x2C6 JUMP JUMPDEST SWAP2 POP POP SWAP3 SWAP2 POP POP JUMP JUMPDEST PUSH1 0x0 PUSH1 0x20 DUP3 DUP5 SUB SLT ISZERO PUSH3 0x35D JUMPI PUSH3 0x35C PUSH3 0x1BB JUMP JUMPDEST JUMPDEST PUSH1 0x0 DUP3 ADD MLOAD PUSH8 0xFFFFFFFFFFFFFFFF DUP2 GT ISZERO PUSH3 0x37E JUMPI PUSH3 0x37D PUSH3 0x1C0 JUMP JUMPDEST JUMPDEST PUSH3 0x38C DUP5 DUP3 DUP6 ADD PUSH3 0x311 JUMP JUMPDEST SWAP2 POP POP SWAP3 SWAP2 POP POP JUMP JUMPDEST PUSH1 0x0 DUP2 MLOAD SWAP1 POP SWAP2 SWAP1 POP JUMP JUMPDEST PUSH1 0x0 DUP2 SWAP1 POP PUSH1 0x20 DUP3 ADD SWAP1 POP SWAP2 SWAP1 POP JUMP JUMPDEST PUSH1 0x0 DUP2 SWAP1 POP SWAP2 SWAP1 POP JUMP JUMPDEST PUSH1 0x0 PUSH3 0x3C8 DUP3 MLOAD PUSH3 0x3B0 JUMP JUMPDEST DUP1 SWAP2 POP POP SWAP2 SWAP1 POP JUMP JUMPDEST PUSH1 0x0 DUP3 DUP3 SHL SWAP1 POP SWAP3 SWAP2 POP POP JUMP JUMPDEST PUSH1 0x0 PUSH3 0x3EB DUP3 PUSH3 0x395 JUMP JUMPDEST DUP3 PUSH3 0x3F7 DUP5 PUSH3 0x3A0 JUMP JUMPDEST SWAP1 POP PUSH3 0x404 DUP2 PUSH3 0x3BA JUMP JUMPDEST SWAP3 POP PUSH1 0x20 DUP3 LT ISZERO PUSH3 0x447 JUMPI PUSH3 0x442 PUSH32 0xFFFFFFFFFFFFFFFFFFFFFFFFFFFFFFFFFFFFFFFFFFFFFFFFFFFFFFFFFFFFFFFF DUP4 PUSH1 0x20 SUB PUSH1 0x8 MUL PUSH3 0x3D1 JUMP JUMPDEST DUP4 AND SWAP3 POP JUMPDEST POP POP SWAP2 SWAP1 POP JUMP JUMPDEST PUSH1 0x0 DUP2 MLOAD SWAP1 POP SWAP2 SWAP1 POP JUMP JUMPDEST PUSH32 0x4E487B7100000000000000000000000000000000000000000000000000000000 PUSH1 0x0 MSTORE PUSH1 0x22 PUSH1 0x4 MSTORE PUSH1 0x24 PUSH1 0x0 REVERT JUMPDEST PUSH1 0x0 PUSH1 0x2 DUP3 DIV SWAP1 POP PUSH1 0x1 DUP3 AND DUP1 PUSH3 0x4A1 JUMPI PUSH1 0x7F DUP3 AND SWAP2 POP JUMPDEST PUSH1 0x20 DUP3 LT DUP2 SUB PUSH3 0x4B7 JUMPI PUSH3 0x4B6 PUSH3 0x459 JUMP JUMPDEST JUMPDEST POP SWAP2 SWAP1 POP JUMP JUMPDEST PUSH1 0x0 DUP2 SWAP1 POP DUP2 PUSH1 0x0 MSTORE PUSH1 0x20 PUSH1 0x0 KECCAK256 SWAP1 POP SWAP2 SWAP1 POP JUMP JUMPDEST PUSH1 0x0 PUSH1 0x20 PUSH1 0x1F DUP4 ADD DIV SWAP1 POP SWAP2 SWAP1 POP JUMP JUMPDEST PUSH1 0x0 PUSH1 0x8 DUP4 MUL PUSH3 0x514 PUSH32 0xFFFFFFFFFFFFFFFFFFFFFFFFFFFFFFFFFFFFFFFFFFFFFFFFFFFFFFFFFFFFFFFF DUP3 PUSH3 0x3D1 JUMP JUMPDEST PUSH3 0x520 DUP7 DUP4 PUSH3 0x3D1 JUMP JUMPDEST SWAP6 POP DUP1 NOT DUP5 AND SWAP4 POP DUP1 DUP7 AND DUP5 OR SWAP3 POP POP POP SWAP4 SWAP3 POP POP POP JUMP JUMPDEST PUSH1 0x0 DUP2 SWAP1 POP SWAP2 SWAP1 POP JUMP JUMPDEST PUSH1 0x0 DUP2 SWAP1 POP SWAP2 SWAP1 POP JUMP JUMPDEST PUSH1 0x0 PUSH3 0x56D PUSH3 0x567 PUSH3 0x561 DUP5 PUSH3 0x538 JUMP JUMPDEST PUSH3 0x542 JUMP JUMPDEST PUSH3 0x538 JUMP JUMPDEST SWAP1 POP SWAP2 SWAP1 POP JUMP JUMPDEST PUSH1 0x0 DUP2 SWAP1 POP SWAP2 SWAP1 POP JUMP JUMPDEST PUSH3 0x589 DUP4 PUSH3 0x54C JUMP JUMPDEST PUSH3 0x5A1 PUSH3 0x598 DUP3 PUSH3 0x574 JUMP JUMPDEST DUP5 DUP5 SLOAD PUSH3 0x4E2 JUMP JUMPDEST DUP3 SSTORE POP POP POP POP JUMP JUMPDEST PUSH1 0x0 SWAP1 JUMP JUMPDEST PUSH3 0x5B8 PUSH3 0x5A9 JUMP JUMPDEST PUSH3 0x5C5 DUP2 DUP5 DUP5 PUSH3 0x57E JUMP JUMPDEST POP POP POP JUMP JUMPDEST JUMPDEST DUP2 DUP2 LT ISZERO PUSH3 0x5ED JUMPI PUSH3 0x5E1 PUSH1 0x0 DUP3 PUSH3 0x5AE JUMP JUMPDEST PUSH1 0x1 DUP2 ADD SWAP1 POP PUSH3 0x5CB JUMP JUMPDEST POP POP JUMP JUMPDEST PUSH1 0x1F DUP3 GT ISZERO PUSH3 0x63C JUMPI PUSH3 0x606 DUP2 PUSH3 0x4BD JUMP JUMPDEST PUSH3 0x611 DUP5 PUSH3 0x4D2 JUMP JUMPDEST DUP2 ADD PUSH1 0x20 DUP6 LT ISZERO PUSH3 0x621 JUMPI DUP2 SWAP1 POP JUMPDEST PUSH3 0x639 PUSH3 0x630 DUP6 PUSH3 0x4D2 JUMP JUMPDEST DUP4 ADD DUP3 PUSH3 0x5CA JUMP JUMPDEST POP POP JUMPDEST POP POP POP JUMP JUMPDEST PUSH1 0x0 DUP3 DUP3 SHR SWAP1 POP SWAP3 SWAP2 POP POP JUMP JUMPDEST PUSH1 0x0 PUSH3 0x661 PUSH1 0x0 NOT DUP5 PUSH1 0x8 MUL PUSH3 0x641 JUMP JUMPDEST NOT DUP1 DUP4 AND SWAP2 POP POP SWAP3 SWAP2 POP POP JUMP JUMPDEST PUSH1 0x0 PUSH3 0x67C DUP4 DUP4 PUSH3 0x64E JUMP JUMPDEST SWAP2 POP DUP3 PUSH1 0x2 MUL DUP3 OR SWAP1 POP SWAP3 SWAP2 POP POP JUMP JUMPDEST PUSH3 0x697 DUP3 PUSH3 0x44E JUMP JUMPDEST PUSH8 0xFFFFFFFFFFFFFFFF DUP2 GT ISZERO PUSH3 0x6B3 JUMPI PUSH3 0x6B2 PUSH3 0x1E0 JUMP JUMPDEST JUMPDEST PUSH3 0x6BF DUP3 SLOAD PUSH3 0x488 JUMP JUMPDEST PUSH3 0x6CC DUP3 DUP3 DUP6 PUSH3 0x5F1 JUMP JUMPDEST PUSH1 0x0 PUSH1 0x20 SWAP1 POP PUSH1 0x1F DUP4 GT PUSH1 0x1 DUP2 EQ PUSH3 0x704 JUMPI PUSH1 0x0 DUP5 ISZERO PUSH3 0x6EF JUMPI DUP3 DUP8 ADD MLOAD SWAP1 POP JUMPDEST PUSH3 0x6FB DUP6 DUP3 PUSH3 0x66E JUMP JUMPDEST DUP7 SSTORE POP PUSH3 0x76B JUMP JUMPDEST PUSH1 0x1F NOT DUP5 AND PUSH3 0x714 DUP7 PUSH3 0x4BD JUMP JUMPDEST PUSH1 0x0 JUMPDEST DUP3 DUP2 LT ISZERO PUSH3 0x73E JUMPI DUP5 DUP10 ADD MLOAD DUP3 SSTORE PUSH1 0x1 DUP3 ADD SWAP2 POP PUSH1 0x20 DUP6 ADD SWAP5 POP PUSH1 0x20 DUP2 ADD SWAP1 POP PUSH3 0x717 JUMP JUMPDEST DUP7 DUP4 LT ISZERO PUSH3 0x75E JUMPI DUP5 DUP10 ADD MLOAD PUSH3 0x75A PUSH1 0x1F DUP10 AND DUP3 PUSH3 0x64E JUMP JUMPDEST DUP4 SSTORE POP JUMPDEST PUSH1 0x1 PUSH1 0x2 DUP9 MUL ADD DUP9 SSTORE POP POP POP JUMPDEST POP POP POP POP POP POP JUMP JUMPDEST PUSH3 0x77E DUP2 PUSH3 0x538 JUMP JUMPDEST DUP3 MSTORE POP POP JUMP JUMPDEST PUSH1 0x0 DUP3 DUP3 MSTORE PUSH1 0x20 DUP3 ADD SWAP1 POP SWAP3 SWAP2 POP POP JUMP JUMPDEST PUSH1 0x0 PUSH3 0x7A2 DUP3 PUSH3 0x395 JUMP JUMPDEST PUSH3 0x7AE DUP2 DUP6 PUSH3 0x784 JUMP JUMPDEST SWAP4 POP PUSH3 0x7C0 DUP2 DUP6 PUSH1 0x20 DUP7 ADD PUSH3 0x29A JUMP JUMPDEST PUSH3 0x7CB DUP2 PUSH3 0x1CF JUMP JUMPDEST DUP5 ADD SWAP2 POP POP SWAP3 SWAP2 POP POP JUMP JUMPDEST PUSH1 0x0 PUSH1 0x40 DUP3 ADD SWAP1 POP PUSH3 0x7ED PUSH1 0x0 DUP4 ADD DUP6 PUSH3 0x773 JUMP JUMPDEST DUP2 DUP2 SUB PUSH1 0x20 DUP4 ADD MSTORE PUSH3 0x801 DUP2 DUP5 PUSH3 0x795 JUMP JUMPDEST SWAP1 POP SWAP4 SWAP3 POP POP POP JUMP JUMPDEST PUSH1 0x0 DUP2 SWAP1 POP SWAP3 SWAP2 POP POP JUMP JUMPDEST PUSH1 0x0 PUSH3 0x822 DUP3 PUSH3 0x395 JUMP JUMPDEST PUSH3 0x82E DUP2 DUP6 PUSH3 0x80A JUMP JUMPDEST SWAP4 POP PUSH3 0x840 DUP2 DUP6 PUSH1 0x20 DUP7 ADD PUSH3 0x29A JUMP JUMPDEST DUP1 DUP5 ADD SWAP2 POP POP SWAP3 SWAP2 POP POP JUMP JUMPDEST PUSH1 0x0 PUSH3 0x85A DUP3 DUP5 PUSH3 0x815 JUMP JUMPDEST SWAP2 POP DUP2 SWAP1 POP SWAP3 SWAP2 POP POP JUMP JUMPDEST PUSH1 0x0 DUP3 DUP3 MSTORE PUSH1 0x20 DUP3 ADD SWAP1 POP SWAP3 SWAP2 POP POP JUMP JUMPDEST PUSH32 0x72616E646F6D42797465733A206661696C656400000000000000000000000000 PUSH1 0x0 DUP3 ADD MSTORE POP JUMP JUMPDEST PUSH1 0x0 PUSH3 0x8AE PUSH1 0x13 DUP4 PUSH3 0x865 JUMP JUMPDEST SWAP2 POP PUSH3 0x8BB DUP3 PUSH3 0x876 JUMP JUMPDEST PUSH1 0x20 DUP3 ADD SWAP1 POP SWAP2 SWAP1 POP JUMP JUMPDEST PUSH1 0x0 PUSH1 0x20 DUP3 ADD SWAP1 POP DUP2 DUP2 SUB PUSH1 0x0 DUP4 ADD MSTORE PUSH3 0x8E1 DUP2 PUSH3 0x89F JUMP JUMPDEST SWAP1 POP SWAP2 SWAP1 POP JUMP JUMPDEST PUSH1 0x80 MLOAD PUSH2 0x2F7D PUSH3 0x901 PUSH1 0x0 CODECOPY PUSH1 0x0 POP POP PUSH2 0x2F7D PUSH1 0x0 RETURN INVALID PUSH1 0x80 PUSH1 0x40 MSTORE CALLVALUE DUP1 ISZERO PUSH2 0x10 JUMPI PUSH1 0x0 DUP1 REVERT JUMPDEST POP PUSH1 0x4 CALLDATASIZE LT PUSH2 0x62 JUMPI PUSH1 0x0 CALLDATALOAD PUSH1 0xE0 SHR DUP1 PUSH4 0x1BF6085B EQ PUSH2 0x67 JUMPI DUP1 PUSH4 0x3AB9D858 EQ PUSH2 0x85 JUMPI DUP1 PUSH4 0x7F476B6F EQ PUSH2 0xA3 JUMPI DUP1 PUSH4 0xA6C3E6B9 EQ PUSH2 0xD3 JUMPI DUP1 PUSH4 0xC2FB26A6 EQ PUSH2 0xF1 JUMPI DUP1 PUSH4 0xE65E6DE9 EQ PUSH2 0x10F JUMPI JUMPDEST PUSH1 0x0 DUP1 REVERT JUMPDEST PUSH2 0x6F PUSH2 0x12B JUMP JUMPDEST PUSH1 0x40 MLOAD PUSH2 0x7C SWAP2 SWAP1 PUSH2 0x22C7 JUMP JUMPDEST PUSH1 0x40 MLOAD DUP1 SWAP2 SUB SWAP1 RETURN JUMPDEST PUSH2 0x8D PUSH2 0x151 JUMP JUMPDEST PUSH1 0x40 MLOAD PUSH2 0x9A SWAP2 SWAP1 PUSH2 0x22FB JUMP JUMPDEST PUSH1 0x40 MLOAD DUP1 SWAP2 SUB SWAP1 RETURN JUMPDEST PUSH2 0xBD PUSH1 0x4 DUP1 CALLDATASIZE SUB DUP2 ADD SWAP1 PUSH2 0xB8 SWAP2 SWAP1 PUSH2 0x23A9 JUMP JUMPDEST PUSH2 0x15B JUMP JUMPDEST PUSH1 0x40 MLOAD PUSH2 0xCA SWAP2 SWAP1 PUSH2 0x2499 JUMP JUMPDEST PUSH1 0x40 MLOAD DUP1 SWAP2 SUB SWAP1 RETURN JUMPDEST PUSH2 0xDB PUSH2 0x54E JUMP JUMPDEST PUSH1 0x40 MLOAD PUSH2 0xE8 SWAP2 SWAP1 PUSH2 0x22C7 JUMP JUMPDEST PUSH1 0x40 MLOAD DUP1 SWAP2 SUB SWAP1 RETURN JUMPDEST PUSH2 0xF9 PUSH2 0x574 JUMP JUMPDEST PUSH1 0x40 MLOAD PUSH2 0x106 SWAP2 SWAP1 PUSH2 0x2510 JUMP JUMPDEST PUSH1 0x40 MLOAD DUP1 SWAP2 SUB SWAP1 RETURN JUMPDEST PUSH2 0x129 PUSH1 0x4 DUP1 CALLDATASIZE SUB DUP2 ADD SWAP1 PUSH2 0x124 SWAP2 SWAP1 PUSH2 0x255E JUMP JUMPDEST PUSH2 0x606 JUMP JUMPDEST STOP JUMPDEST PUSH1 0x3 PUSH1 0x0 SWAP1 SLOAD SWAP1 PUSH2 0x100 EXP SWAP1 DIV PUSH20 0xFFFFFFFFFFFFFFFFFFFFFFFFFFFFFFFFFFFFFFFF AND DUP2 JUMP JUMPDEST PUSH1 0x0 PUSH1 0x6 SLOAD SWAP1 POP SWAP1 JUMP JUMPDEST PUSH1 0x60 PUSH2 0x165 PUSH2 0x21A7 JUMP JUMPDEST PUSH1 0x0 PUSH2 0x173 DUP7 DUP7 SWAP1 POP PUSH2 0x610 JUMP JUMPDEST DUP7 DUP7 PUSH1 0x40 MLOAD PUSH1 0x20 ADD PUSH2 0x187 SWAP4 SWAP3 SWAP2 SWAP1 PUSH2 0x2647 JUMP JUMPDEST PUSH1 0x40 MLOAD PUSH1 0x20 DUP2 DUP4 SUB SUB DUP2 MSTORE SWAP1 PUSH1 0x40 MSTORE SWAP1 POP PUSH1 0x0 PUSH1 0x1 DUP3 DUP1 MLOAD SWAP1 PUSH1 0x20 ADD KECCAK256 DUP7 PUSH1 0x40 ADD CALLDATALOAD DUP8 PUSH1 0x0 ADD CALLDATALOAD DUP9 PUSH1 0x20 ADD CALLDATALOAD PUSH1 0x40 MLOAD PUSH1 0x0 DUP2 MSTORE PUSH1 0x20 ADD PUSH1 0x40 MSTORE PUSH1 0x40 MLOAD PUSH2 0x1D0 SWAP5 SWAP4 SWAP3 SWAP2 SWAP1 PUSH2 0x2694 JUMP JUMPDEST PUSH1 0x20 PUSH1 0x40 MLOAD PUSH1 0x20 DUP2 SUB SWAP1 DUP1 DUP5 SUB SWAP1 DUP6 GAS STATICCALL ISZERO DUP1 ISZERO PUSH2 0x1F2 JUMPI RETURNDATASIZE PUSH1 0x0 DUP1 RETURNDATACOPY RETURNDATASIZE PUSH1 0x0 REVERT JUMPDEST POP POP POP PUSH1 0x20 PUSH1 0x40 MLOAD SUB MLOAD SWAP1 POP DUP1 DUP4 PUSH1 0x20 ADD SWAP1 PUSH20 0xFFFFFFFFFFFFFFFFFFFFFFFFFFFFFFFFFFFFFFFF AND SWAP1 DUP2 PUSH20 0xFFFFFFFFFFFFFFFFFFFFFFFFFFFFFFFFFFFFFFFF AND DUP2 MSTORE POP POP PUSH1 0x0 PUSH2 0x242 DUP9 DUP9 PUSH2 0x6DE JUMP JUMPDEST SWAP1 POP CHAINID DUP2 PUSH1 0xA0 ADD MLOAD EQ PUSH2 0x281 JUMPI PUSH1 0x40 MLOAD PUSH32 0x362C833700000000000000000000000000000000000000000000000000000000 DUP2 MSTORE PUSH1 0x4 ADD PUSH1 0x40 MLOAD DUP1 SWAP2 SUB SWAP1 REVERT JUMPDEST PUSH1 0x1 PUSH1 0x40 MLOAD PUSH2 0x290 SWAP2 SWAP1 PUSH2 0x27DC JUMP JUMPDEST PUSH1 0x40 MLOAD DUP1 SWAP2 SUB SWAP1 KECCAK256 DUP2 PUSH1 0x0 ADD MLOAD DUP1 MLOAD SWAP1 PUSH1 0x20 ADD KECCAK256 EQ PUSH2 0x2DB JUMPI PUSH1 0x40 MLOAD PUSH32 0x283D62BD00000000000000000000000000000000000000000000000000000000 DUP2 MSTORE PUSH1 0x4 ADD PUSH1 0x40 MLOAD DUP1 SWAP2 SUB SWAP1 REVERT JUMPDEST DUP1 PUSH1 0x0 ADD MLOAD DUP5 PUSH1 0x0 ADD DUP2 SWAP1 MSTORE POP DUP2 PUSH20 0xFFFFFFFFFFFFFFFFFFFFFFFFFFFFFFFFFFFFFFFF AND DUP2 PUSH1 0x20 ADD MLOAD PUSH20 0xFFFFFFFFFFFFFFFFFFFFFFFFFFFFFFFFFFFFFFFF AND EQ PUSH2 0x351 JUMPI PUSH1 0x40 MLOAD PUSH32 0x5CC02E100000000000000000000000000000000000000000000000000000000 DUP2 MSTORE PUSH1 0x4 ADD PUSH1 0x40 MLOAD DUP1 SWAP2 SUB SWAP1 REVERT JUMPDEST PUSH1 0x0 DUP2 PUSH2 0x120 ADD MLOAD MLOAD EQ ISZERO DUP1 ISZERO PUSH2 0x375 JUMPI POP PUSH2 0x371 DUP2 PUSH2 0x120 ADD MLOAD PUSH2 0xD1D JUMP JUMPDEST TIMESTAMP GT ISZERO JUMPDEST ISZERO PUSH2 0x3AC JUMPI PUSH1 0x40 MLOAD PUSH32 0x299D02F100000000000000000000000000000000000000000000000000000000 DUP2 MSTORE PUSH1 0x4 ADD PUSH1 0x40 MLOAD DUP1 SWAP2 SUB SWAP1 REVERT JUMPDEST PUSH1 0x0 DUP2 PUSH2 0x100 ADD MLOAD MLOAD EQ PUSH2 0x3DC JUMPI PUSH1 0x0 PUSH2 0x3CA DUP3 PUSH2 0x100 ADD MLOAD PUSH2 0xD1D JUMP JUMPDEST SWAP1 POP DUP1 DUP6 PUSH1 0x40 ADD DUP2 DUP2 MSTORE POP POP POP PUSH2 0x3F5 JUMP JUMPDEST PUSH3 0x15180 TIMESTAMP PUSH2 0x3EB SWAP2 SWAP1 PUSH2 0x282C JUMP JUMPDEST DUP5 PUSH1 0x40 ADD DUP2 DUP2 MSTORE POP POP JUMPDEST DUP4 PUSH1 0x40 ADD MLOAD TIMESTAMP LT PUSH2 0x432 JUMPI PUSH1 0x40 MLOAD PUSH32 0xB171155000000000000000000000000000000000000000000000000000000000 DUP2 MSTORE PUSH1 0x4 ADD PUSH1 0x40 MLOAD DUP1 SWAP2 SUB SWAP1 REVERT JUMPDEST DUP1 PUSH1 0x40 ADD MLOAD DUP5 PUSH1 0x60 ADD DUP2 SWAP1 MSTORE POP DUP1 PUSH2 0x160 ADD MLOAD MLOAD PUSH8 0xFFFFFFFFFFFFFFFF DUP2 GT ISZERO PUSH2 0x45F JUMPI PUSH2 0x45E PUSH2 0x2860 JUMP JUMPDEST JUMPDEST PUSH1 0x40 MLOAD SWAP1 DUP1 DUP3 MSTORE DUP1 PUSH1 0x20 MUL PUSH1 0x20 ADD DUP3 ADD PUSH1 0x40 MSTORE DUP1 ISZERO PUSH2 0x492 JUMPI DUP2 PUSH1 0x20 ADD JUMPDEST PUSH1 0x60 DUP2 MSTORE PUSH1 0x20 ADD SWAP1 PUSH1 0x1 SWAP1 SUB SWAP1 DUP2 PUSH2 0x47D JUMPI SWAP1 POP JUMPDEST POP DUP5 PUSH1 0x80 ADD DUP2 SWAP1 MSTORE POP PUSH1 0x0 JUMPDEST DUP2 PUSH2 0x160 ADD MLOAD MLOAD DUP2 LT ISZERO PUSH2 0x4FB JUMPI DUP2 PUSH2 0x160 ADD MLOAD DUP2 DUP2 MLOAD DUP2 LT PUSH2 0x4C4 JUMPI PUSH2 0x4C3 PUSH2 0x288F JUMP JUMPDEST JUMPDEST PUSH1 0x20 MUL PUSH1 0x20 ADD ADD MLOAD DUP6 PUSH1 0x80 ADD MLOAD DUP3 DUP2 MLOAD DUP2 LT PUSH2 0x4E3 JUMPI PUSH2 0x4E2 PUSH2 0x288F JUMP JUMPDEST JUMPDEST PUSH1 0x20 MUL PUSH1 0x20 ADD ADD DUP2 SWAP1 MSTORE POP DUP1 DUP1 PUSH1 0x1 ADD SWAP2 POP POP PUSH2 0x49E JUMP JUMPDEST POP PUSH1 0x0 PUSH2 0x53D PUSH1 0x2 SLOAD PUSH1 0x0 DUP1 SHL DUP8 PUSH1 0x40 MLOAD PUSH1 0x20 ADD PUSH2 0x519 SWAP2 SWAP1 PUSH2 0x2A6C JUMP JUMPDEST PUSH1 0x40 MLOAD PUSH1 0x20 DUP2 DUP4 SUB SUB DUP2 MSTORE SWAP1 PUSH1 0x40 MSTORE PUSH1 0x40 MLOAD DUP1 PUSH1 0x20 ADD PUSH1 0x40 MSTORE DUP1 PUSH1 0x0 DUP2 MSTORE POP PUSH2 0xDAC JUMP JUMPDEST SWAP1 POP DUP1 SWAP6 POP POP POP POP POP POP SWAP4 SWAP3 POP POP POP JUMP JUMPDEST PUSH1 0x4 PUSH1 0x0 SWAP1 SLOAD SWAP1 PUSH2 0x100 EXP SWAP1 DIV PUSH20 0xFFFFFFFFFFFFFFFFFFFFFFFFFFFFFFFFFFFFFFFF AND DUP2 JUMP JUMPDEST PUSH1 0x60 PUSH1 0x1 DUP1 SLOAD PUSH2 0x583 SWAP1 PUSH2 0x2708 JUMP JUMPDEST DUP1 PUSH1 0x1F ADD PUSH1 0x20 DUP1 SWAP2 DIV MUL PUSH1 0x20 ADD PUSH1 0x40 MLOAD SWAP1 DUP2 ADD PUSH1 0x40 MSTORE DUP1 SWAP3 SWAP2 SWAP1 DUP2 DUP2 MSTORE PUSH1 0x20 ADD DUP3 DUP1 SLOAD PUSH2 0x5AF SWAP1 PUSH2 0x2708 JUMP JUMPDEST DUP1 ISZERO PUSH2 0x5FC JUMPI DUP1 PUSH1 0x1F LT PUSH2 0x5D1 JUMPI PUSH2 0x100 DUP1 DUP4 SLOAD DIV MUL DUP4 MSTORE SWAP2 PUSH1 0x20 ADD SWAP2 PUSH2 0x5FC JUMP JUMPDEST DUP3 ADD SWAP2 SWAP1 PUSH1 0x0 MSTORE PUSH1 0x20 PUSH1 0x0 KECCAK256 SWAP1 JUMPDEST DUP2 SLOAD DUP2 MSTORE SWAP1 PUSH1 0x1 ADD SWAP1 PUSH1 0x20 ADD DUP1 DUP4 GT PUSH2 0x5DF JUMPI DUP3 SWAP1 SUB PUSH1 0x1F AND DUP3 ADD SWAP2 JUMPDEST POP POP POP POP POP SWAP1 POP SWAP1 JUMP JUMPDEST DUP1 PUSH1 0x6 DUP2 SWAP1 SSTORE POP POP JUMP JUMPDEST PUSH1 0x60 PUSH1 0x0 PUSH1 0x1 PUSH2 0x61F DUP5 PUSH2 0xEA1 JUMP JUMPDEST ADD SWAP1 POP PUSH1 0x0 DUP2 PUSH8 0xFFFFFFFFFFFFFFFF DUP2 GT ISZERO PUSH2 0x63E JUMPI PUSH2 0x63D PUSH2 0x2860 JUMP JUMPDEST JUMPDEST PUSH1 0x40 MLOAD SWAP1 DUP1 DUP3 MSTORE DUP1 PUSH1 0x1F ADD PUSH1 0x1F NOT AND PUSH1 0x20 ADD DUP3 ADD PUSH1 0x40 MSTORE DUP1 ISZERO PUSH2 0x670 JUMPI DUP2 PUSH1 0x20 ADD PUSH1 0x1 DUP3 MUL DUP1 CALLDATASIZE DUP4 CALLDATACOPY DUP1 DUP3 ADD SWAP2 POP POP SWAP1 POP JUMPDEST POP SWAP1 POP PUSH1 0x0 DUP3 PUSH1 0x20 DUP4 ADD ADD SWAP1 POP JUMPDEST PUSH1 0x1 ISZERO PUSH2 0x6D3 JUMPI DUP1 DUP1 PUSH1 0x1 SWAP1 SUB SWAP2 POP POP PUSH32 0x3031323334353637383961626364656600000000000000000000000000000000 PUSH1 0xA DUP7 MOD BYTE DUP2 MSTORE8 PUSH1 0xA DUP6 DUP2 PUSH2 0x6C7 JUMPI PUSH2 0x6C6 PUSH2 0x2A8E JUMP JUMPDEST JUMPDEST DIV SWAP5 POP PUSH1 0x0 DUP6 SUB PUSH2 0x67E JUMPI JUMPDEST DUP2 SWAP4 POP POP POP POP SWAP2 SWAP1 POP JUMP JUMPDEST PUSH2 0x6E6 PUSH2 0x21EC JUMP JUMPDEST PUSH2 0x6EE PUSH2 0x21EC JUMP JUMPDEST PUSH1 0x0 JUMPDEST DUP5 DUP5 SWAP1 POP DUP2 LT ISZERO PUSH2 0x7CB JUMPI PUSH32 0x2000000000000000000000000000000000000000000000000000000000000000 DUP6 DUP6 DUP4 DUP2 DUP2 LT PUSH2 0x730 JUMPI PUSH2 0x72F PUSH2 0x288F JUMP JUMPDEST JUMPDEST SWAP1 POP ADD CALLDATALOAD PUSH1 0xF8 SHR PUSH1 0xF8 SHL PUSH31 0xFFFFFFFFFFFFFFFFFFFFFFFFFFFFFFFFFFFFFFFFFFFFFFFFFFFFFFFFFFFFFF NOT AND SUB PUSH2 0x7BE JUMPI PUSH2 0x7B1 DUP6 DUP6 DUP1 DUP1 PUSH1 0x1F ADD PUSH1 0x20 DUP1 SWAP2 DIV MUL PUSH1 0x20 ADD PUSH1 0x40 MLOAD SWAP1 DUP2 ADD PUSH1 0x40 MSTORE DUP1 SWAP4 SWAP3 SWAP2 SWAP1 DUP2 DUP2 MSTORE PUSH1 0x20 ADD DUP4 DUP4 DUP1 DUP3 DUP5 CALLDATACOPY PUSH1 0x0 DUP2 DUP5 ADD MSTORE PUSH1 0x1F NOT PUSH1 0x1F DUP3 ADD AND SWAP1 POP DUP1 DUP4 ADD SWAP3 POP POP POP POP POP POP POP PUSH1 0x0 DUP4 PUSH2 0xFF4 JUMP JUMPDEST DUP3 PUSH1 0x0 ADD DUP2 SWAP1 MSTORE POP PUSH2 0x7CB JUMP JUMPDEST DUP1 DUP1 PUSH1 0x1 ADD SWAP2 POP POP PUSH2 0x6F1 JUMP JUMPDEST PUSH1 0x32 DUP2 PUSH2 0x7D8 SWAP2 SWAP1 PUSH2 0x282C JUMP JUMPDEST SWAP1 POP PUSH2 0x84F PUSH2 0x84A DUP7 DUP7 DUP1 DUP1 PUSH1 0x1F ADD PUSH1 0x20 DUP1 SWAP2 DIV MUL PUSH1 0x20 ADD PUSH1 0x40 MLOAD SWAP1 DUP2 ADD PUSH1 0x40 MSTORE DUP1 SWAP4 SWAP3 SWAP2 SWAP1 DUP2 DUP2 MSTORE PUSH1 0x20 ADD DUP4 DUP4 DUP1 DUP3 DUP5 CALLDATACOPY PUSH1 0x0 DUP2 DUP5 ADD MSTORE PUSH1 0x1F NOT PUSH1 0x1F DUP3 ADD AND SWAP1 POP DUP1 DUP4 ADD SWAP3 POP POP POP POP POP POP POP PUSH1 0x2 DUP5 PUSH2 0x832 SWAP2 SWAP1 PUSH2 0x282C JUMP JUMPDEST SWAP4 POP DUP4 PUSH1 0x28 DUP6 PUSH2 0x842 SWAP2 SWAP1 PUSH2 0x282C JUMP JUMPDEST SWAP5 POP DUP5 PUSH2 0xFF4 JUMP JUMPDEST PUSH2 0x10F6 JUMP JUMPDEST DUP3 PUSH1 0x20 ADD SWAP1 PUSH20 0xFFFFFFFFFFFFFFFFFFFFFFFFFFFFFFFFFFFFFFFF AND SWAP1 DUP2 PUSH20 0xFFFFFFFFFFFFFFFFFFFFFFFFFFFFFFFFFFFFFFFF AND DUP2 MSTORE POP POP PUSH1 0x2 DUP2 PUSH2 0x893 SWAP2 SWAP1 PUSH2 0x282C JUMP JUMPDEST SWAP1 POP DUP5 DUP5 SWAP1 POP DUP2 LT DUP1 ISZERO PUSH2 0x905 JUMPI POP PUSH32 0xA00000000000000000000000000000000000000000000000000000000000000 DUP6 DUP6 DUP4 DUP2 DUP2 LT PUSH2 0x8D6 JUMPI PUSH2 0x8D5 PUSH2 0x288F JUMP JUMPDEST JUMPDEST SWAP1 POP ADD CALLDATALOAD PUSH1 0xF8 SHR PUSH1 0xF8 SHL PUSH31 0xFFFFFFFFFFFFFFFFFFFFFFFFFFFFFFFFFFFFFFFFFFFFFFFFFFFFFFFFFFFFFF NOT AND EQ ISZERO JUMPDEST ISZERO PUSH2 0x9DE JUMPI PUSH1 0x0 DUP2 SWAP1 POP JUMPDEST DUP6 DUP6 SWAP1 POP DUP2 LT ISZERO PUSH2 0x9DC JUMPI PUSH1 0xA PUSH1 0xF8 SHL DUP7 DUP7 DUP4 DUP2 DUP2 LT PUSH2 0x933 JUMPI PUSH2 0x932 PUSH2 0x288F JUMP JUMPDEST JUMPDEST SWAP1 POP ADD CALLDATALOAD PUSH1 0xF8 SHR PUSH1 0xF8 SHL PUSH31 0xFFFFFFFFFFFFFFFFFFFFFFFFFFFFFFFFFFFFFFFFFFFFFFFFFFFFFFFFFFFFFF NOT AND SUB PUSH2 0x9CF JUMPI PUSH2 0x9B3 DUP7 DUP7 DUP1 DUP1 PUSH1 0x1F ADD PUSH1 0x20 DUP1 SWAP2 DIV MUL PUSH1 0x20 ADD PUSH1 0x40 MLOAD SWAP1 DUP2 ADD PUSH1 0x40 MSTORE DUP1 SWAP4 SWAP3 SWAP2 SWAP1 DUP2 DUP2 MSTORE PUSH1 0x20 ADD DUP4 DUP4 DUP1 DUP3 DUP5 CALLDATACOPY PUSH1 0x0 DUP2 DUP5 ADD MSTORE PUSH1 0x1F NOT PUSH1 0x1F DUP3 ADD AND SWAP1 POP DUP1 DUP4 ADD SWAP3 POP POP POP POP POP POP POP DUP4 DUP4 PUSH2 0xFF4 JUMP JUMPDEST DUP4 PUSH1 0x40 ADD DUP2 SWAP1 MSTORE POP PUSH1 0x1 DUP2 PUSH2 0x9C8 SWAP2 SWAP1 PUSH2 0x282C JUMP JUMPDEST SWAP2 POP PUSH2 0x9DC JUMP JUMPDEST DUP1 DUP1 PUSH1 0x1 ADD SWAP2 POP POP PUSH2 0x910 JUMP JUMPDEST POP JUMPDEST DUP1 DUP1 PUSH2 0x9E9 SWAP1 PUSH2 0x2ABD JUMP JUMPDEST SWAP2 POP POP PUSH2 0xA2D DUP6 DUP6 PUSH1 0x40 MLOAD DUP1 PUSH1 0x40 ADD PUSH1 0x40 MSTORE DUP1 PUSH1 0x3 DUP2 MSTORE PUSH1 0x20 ADD PUSH32 0x5552490000000000000000000000000000000000000000000000000000000000 DUP2 MSTORE POP DUP5 PUSH2 0x129B JUMP JUMPDEST DUP4 PUSH1 0x60 ADD DUP2 SWAP4 POP DUP3 SWAP1 MSTORE POP POP PUSH2 0xA7A DUP6 DUP6 PUSH1 0x40 MLOAD DUP1 PUSH1 0x40 ADD PUSH1 0x40 MSTORE DUP1 PUSH1 0x7 DUP2 MSTORE PUSH1 0x20 ADD PUSH32 0x56657273696F6E00000000000000000000000000000000000000000000000000 DUP2 MSTORE POP DUP5 PUSH2 0x129B JUMP JUMPDEST DUP4 PUSH1 0x80 ADD DUP2 SWAP4 POP DUP3 SWAP1 MSTORE POP POP PUSH1 0x60 PUSH2 0xAC9 DUP7 DUP7 PUSH1 0x40 MLOAD DUP1 PUSH1 0x40 ADD PUSH1 0x40 MSTORE DUP1 PUSH1 0x8 DUP2 MSTORE PUSH1 0x20 ADD PUSH32 0x436861696E204944000000000000000000000000000000000000000000000000 DUP2 MSTORE POP DUP6 PUSH2 0x129B JUMP JUMPDEST DUP1 SWAP4 POP DUP2 SWAP3 POP POP POP PUSH2 0xADA DUP2 PUSH2 0x1566 JUMP JUMPDEST DUP4 PUSH1 0xA0 ADD DUP2 DUP2 MSTORE POP POP PUSH2 0xB24 DUP7 DUP7 PUSH1 0x40 MLOAD DUP1 PUSH1 0x40 ADD PUSH1 0x40 MSTORE DUP1 PUSH1 0x5 DUP2 MSTORE PUSH1 0x20 ADD PUSH32 0x4E6F6E6365000000000000000000000000000000000000000000000000000000 DUP2 MSTORE POP DUP6 PUSH2 0x129B JUMP JUMPDEST DUP5 PUSH1 0xC0 ADD DUP2 SWAP5 POP DUP3 SWAP1 MSTORE POP POP PUSH1 0x8 DUP4 PUSH1 0xC0 ADD MLOAD MLOAD LT ISZERO PUSH2 0xB70 JUMPI PUSH1 0x40 MLOAD PUSH32 0xB4BC030C00000000000000000000000000000000000000000000000000000000 DUP2 MSTORE PUSH1 0x4 ADD PUSH1 0x40 MLOAD DUP1 SWAP2 SUB SWAP1 REVERT JUMPDEST PUSH2 0xBB1 DUP7 DUP7 PUSH1 0x40 MLOAD DUP1 PUSH1 0x40 ADD PUSH1 0x40 MSTORE DUP1 PUSH1 0x9 DUP2 MSTORE PUSH1 0x20 ADD PUSH32 0x4973737565642041740000000000000000000000000000000000000000000000 DUP2 MSTORE POP DUP6 PUSH2 0x129B JUMP JUMPDEST DUP5 PUSH1 0xE0 ADD DUP2 SWAP5 POP DUP3 SWAP1 MSTORE POP POP PUSH2 0xBFE DUP7 DUP7 PUSH1 0x40 MLOAD DUP1 PUSH1 0x40 ADD PUSH1 0x40 MSTORE DUP1 PUSH1 0xF DUP2 MSTORE PUSH1 0x20 ADD PUSH32 0x45787069726174696F6E2054696D650000000000000000000000000000000000 DUP2 MSTORE POP DUP6 PUSH2 0x129B JUMP JUMPDEST DUP5 PUSH2 0x100 ADD DUP2 SWAP5 POP DUP3 SWAP1 MSTORE POP POP PUSH2 0xC4C DUP7 DUP7 PUSH1 0x40 MLOAD DUP1 PUSH1 0x40 ADD PUSH1 0x40 MSTORE DUP1 PUSH1 0xA DUP2 MSTORE PUSH1 0x20 ADD PUSH32 0x4E6F74204265666F726500000000000000000000000000000000000000000000 DUP2 MSTORE POP DUP6 PUSH2 0x129B JUMP JUMPDEST DUP5 PUSH2 0x120 ADD DUP2 SWAP5 POP DUP3 SWAP1 MSTORE POP POP PUSH2 0xC9A DUP7 DUP7 PUSH1 0x40 MLOAD DUP1 PUSH1 0x40 ADD PUSH1 0x40 MSTORE DUP1 PUSH1 0xA DUP2 MSTORE PUSH1 0x20 ADD PUSH32 0x5265717565737420494400000000000000000000000000000000000000000000 DUP2 MSTORE POP DUP6 PUSH2 0x129B JUMP JUMPDEST DUP5 PUSH2 0x140 ADD DUP2 SWAP5 POP DUP3 SWAP1 MSTORE POP POP PUSH1 0x0 PUSH2 0xCEA DUP8 DUP8 PUSH1 0x40 MLOAD DUP1 PUSH1 0x40 ADD PUSH1 0x40 MSTORE DUP1 PUSH1 0x9 DUP2 MSTORE PUSH1 0x20 ADD PUSH32 0x5265736F75726365730000000000000000000000000000000000000000000000 DUP2 MSTORE POP DUP7 PUSH2 0x129B JUMP JUMPDEST SWAP1 POP DUP1 SWAP2 POP POP DUP3 DUP2 EQ PUSH2 0xD10 JUMPI PUSH2 0xD02 DUP8 DUP8 DUP4 PUSH2 0x15D9 JUMP JUMPDEST DUP6 PUSH2 0x160 ADD DUP2 SWAP6 POP DUP3 SWAP1 MSTORE POP POP JUMPDEST DUP4 SWAP5 POP POP POP POP POP SWAP3 SWAP2 POP POP JUMP JUMPDEST PUSH1 0x0 PUSH2 0xDA5 PUSH2 0xD37 PUSH2 0xD32 DUP5 PUSH1 0x0 PUSH1 0x4 PUSH2 0xFF4 JUMP JUMPDEST PUSH2 0x1566 JUMP JUMPDEST PUSH2 0xD4C PUSH2 0xD47 DUP6 PUSH1 0x5 PUSH1 0x7 PUSH2 0xFF4 JUMP JUMPDEST PUSH2 0x1566 JUMP JUMPDEST PUSH2 0xD61 PUSH2 0xD5C DUP7 PUSH1 0x8 PUSH1 0xA PUSH2 0xFF4 JUMP JUMPDEST PUSH2 0x1566 JUMP JUMPDEST PUSH2 0xD76 PUSH2 0xD71 DUP8 PUSH1 0xB PUSH1 0xD PUSH2 0xFF4 JUMP JUMPDEST PUSH2 0x1566 JUMP JUMPDEST PUSH2 0xD8B PUSH2 0xD86 DUP9 PUSH1 0xE PUSH1 0x10 PUSH2 0xFF4 JUMP JUMPDEST PUSH2 0x1566 JUMP JUMPDEST PUSH2 0xDA0 PUSH2 0xD9B DUP10 PUSH1 0x11 PUSH1 0x13 PUSH2 0xFF4 JUMP JUMPDEST PUSH2 0x1566 JUMP JUMPDEST PUSH2 0x1A09 JUMP JUMPDEST SWAP1 POP SWAP2 SWAP1 POP JUMP JUMPDEST PUSH1 0x60 PUSH1 0x0 DUP1 PUSH20 0x100000000000000000000000000000000000003 PUSH20 0xFFFFFFFFFFFFFFFFFFFFFFFFFFFFFFFFFFFFFFFF AND DUP8 DUP8 DUP8 DUP8 PUSH1 0x40 MLOAD PUSH1 0x20 ADD PUSH2 0xDF3 SWAP5 SWAP4 SWAP3 SWAP2 SWAP1 PUSH2 0x2B05 JUMP JUMPDEST PUSH1 0x40 MLOAD PUSH1 0x20 DUP2 DUP4 SUB SUB DUP2 MSTORE SWAP1 PUSH1 0x40 MSTORE PUSH1 0x40 MLOAD PUSH2 0xE0F SWAP2 SWAP1 PUSH2 0x2B89 JUMP JUMPDEST PUSH1 0x0 PUSH1 0x40 MLOAD DUP1 DUP4 SUB DUP2 DUP6 GAS STATICCALL SWAP2 POP POP RETURNDATASIZE DUP1 PUSH1 0x0 DUP2 EQ PUSH2 0xE4A JUMPI PUSH1 0x40 MLOAD SWAP2 POP PUSH1 0x1F NOT PUSH1 0x3F RETURNDATASIZE ADD AND DUP3 ADD PUSH1 0x40 MSTORE RETURNDATASIZE DUP3 MSTORE RETURNDATASIZE PUSH1 0x0 PUSH1 0x20 DUP5 ADD RETURNDATACOPY PUSH2 0xE4F JUMP JUMPDEST PUSH1 0x60 SWAP2 POP JUMPDEST POP SWAP2 POP SWAP2 POP DUP2 PUSH2 0xE94 JUMPI PUSH1 0x40 MLOAD PUSH32 0x8C379A000000000000000000000000000000000000000000000000000000000 DUP2 MSTORE PUSH1 0x4 ADD PUSH2 0xE8B SWAP1 PUSH2 0x2BEC JUMP JUMPDEST PUSH1 0x40 MLOAD DUP1 SWAP2 SUB SWAP1 REVERT JUMPDEST DUP1 SWAP3 POP POP POP SWAP5 SWAP4 POP POP POP POP JUMP JUMPDEST PUSH1 0x0 DUP1 PUSH1 0x0 SWAP1 POP PUSH27 0x184F03E93FF9F4DAA797ED6E38ED64BF6A1F010000000000000000 DUP4 LT PUSH2 0xEFF JUMPI PUSH27 0x184F03E93FF9F4DAA797ED6E38ED64BF6A1F010000000000000000 DUP4 DUP2 PUSH2 0xEF5 JUMPI PUSH2 0xEF4 PUSH2 0x2A8E JUMP JUMPDEST JUMPDEST DIV SWAP3 POP PUSH1 0x40 DUP2 ADD SWAP1 POP JUMPDEST PUSH14 0x4EE2D6D415B85ACEF8100000000 DUP4 LT PUSH2 0xF3C JUMPI PUSH14 0x4EE2D6D415B85ACEF8100000000 DUP4 DUP2 PUSH2 0xF32 JUMPI PUSH2 0xF31 PUSH2 0x2A8E JUMP JUMPDEST JUMPDEST DIV SWAP3 POP PUSH1 0x20 DUP2 ADD SWAP1 POP JUMPDEST PUSH7 0x2386F26FC10000 DUP4 LT PUSH2 0xF6B JUMPI PUSH7 0x2386F26FC10000 DUP4 DUP2 PUSH2 0xF61 JUMPI PUSH2 0xF60 PUSH2 0x2A8E JUMP JUMPDEST JUMPDEST DIV SWAP3 POP PUSH1 0x10 DUP2 ADD SWAP1 POP JUMPDEST PUSH4 0x5F5E100 DUP4 LT PUSH2 0xF94 JUMPI PUSH4 0x5F5E100 DUP4 DUP2 PUSH2 0xF8A JUMPI PUSH2 0xF89 PUSH2 0x2A8E JUMP JUMPDEST JUMPDEST DIV SWAP3 POP PUSH1 0x8 DUP2 ADD SWAP1 POP JUMPDEST PUSH2 0x2710 DUP4 LT PUSH2 0xFB9 JUMPI PUSH2 0x2710 DUP4 DUP2 PUSH2 0xFAF JUMPI PUSH2 0xFAE PUSH2 0x2A8E JUMP JUMPDEST JUMPDEST DIV SWAP3 POP PUSH1 0x4 DUP2 ADD SWAP1 POP JUMPDEST PUSH1 0x64 DUP4 LT PUSH2 0xFDC JUMPI PUSH1 0x64 DUP4 DUP2 PUSH2 0xFD2 JUMPI PUSH2 0xFD1 PUSH2 0x2A8E JUMP JUMPDEST JUMPDEST DIV SWAP3 POP PUSH1 0x2 DUP2 ADD SWAP1 POP JUMPDEST PUSH1 0xA DUP4 LT PUSH2 0xFEB JUMPI PUSH1 0x1 DUP2 ADD SWAP1 POP JUMPDEST DUP1 SWAP2 POP POP SWAP2 SWAP1 POP JUMP JUMPDEST PUSH1 0x60 PUSH1 0x0 DUP4 DUP4 PUSH2 0x1004 SWAP2 SWAP1 PUSH2 0x2C0C JUMP JUMPDEST PUSH8 0xFFFFFFFFFFFFFFFF DUP2 GT ISZERO PUSH2 0x101D JUMPI PUSH2 0x101C PUSH2 0x2860 JUMP JUMPDEST JUMPDEST PUSH1 0x40 MLOAD SWAP1 DUP1 DUP3 MSTORE DUP1 PUSH1 0x1F ADD PUSH1 0x1F NOT AND PUSH1 0x20 ADD DUP3 ADD PUSH1 0x40 MSTORE DUP1 ISZERO PUSH2 0x104F JUMPI DUP2 PUSH1 0x20 ADD PUSH1 0x1 DUP3 MUL DUP1 CALLDATASIZE DUP4 CALLDATACOPY DUP1 DUP3 ADD SWAP2 POP POP SWAP1 POP JUMPDEST POP SWAP1 POP PUSH1 0x0 DUP5 SWAP1 POP JUMPDEST DUP4 DUP2 LT DUP1 ISZERO PUSH2 0x1067 JUMPI POP DUP6 MLOAD DUP2 LT JUMPDEST ISZERO PUSH2 0x10EA JUMPI DUP6 DUP2 DUP2 MLOAD DUP2 LT PUSH2 0x107F JUMPI PUSH2 0x107E PUSH2 0x288F JUMP JUMPDEST JUMPDEST PUSH1 0x20 ADD ADD MLOAD PUSH1 0xF8 SHR PUSH1 0xF8 SHL DUP3 DUP7 DUP4 PUSH2 0x1097 SWAP2 SWAP1 PUSH2 0x2C0C JUMP JUMPDEST DUP2 MLOAD DUP2 LT PUSH2 0x10A8 JUMPI PUSH2 0x10A7 PUSH2 0x288F JUMP JUMPDEST JUMPDEST PUSH1 0x20 ADD ADD SWAP1 PUSH31 0xFFFFFFFFFFFFFFFFFFFFFFFFFFFFFFFFFFFFFFFFFFFFFFFFFFFFFFFFFFFFFF NOT AND SWAP1 DUP2 PUSH1 0x0 BYTE SWAP1 MSTORE8 POP DUP1 DUP1 PUSH2 0x10E2 SWAP1 PUSH2 0x2ABD JUMP JUMPDEST SWAP2 POP POP PUSH2 0x1058 JUMP JUMPDEST POP DUP1 SWAP2 POP POP SWAP4 SWAP3 POP POP POP JUMP JUMPDEST PUSH1 0x0 PUSH1 0x28 DUP3 MLOAD EQ PUSH2 0x1133 JUMPI PUSH1 0x40 MLOAD PUSH32 0xACF8696900000000000000000000000000000000000000000000000000000000 DUP2 MSTORE PUSH1 0x4 ADD PUSH1 0x40 MLOAD DUP1 SWAP2 SUB SWAP1 REVERT JUMPDEST PUSH1 0x0 PUSH1 0x2 DUP4 MLOAD PUSH2 0x1143 SWAP2 SWAP1 PUSH2 0x2C40 JUMP JUMPDEST PUSH8 0xFFFFFFFFFFFFFFFF DUP2 GT ISZERO PUSH2 0x115C JUMPI PUSH2 0x115B PUSH2 0x2860 JUMP JUMPDEST JUMPDEST PUSH1 0x40 MLOAD SWAP1 DUP1 DUP3 MSTORE DUP1 PUSH1 0x1F ADD PUSH1 0x1F NOT AND PUSH1 0x20 ADD DUP3 ADD PUSH1 0x40 MSTORE DUP1 ISZERO PUSH2 0x118E JUMPI DUP2 PUSH1 0x20 ADD PUSH1 0x1 DUP3 MUL DUP1 CALLDATASIZE DUP4 CALLDATACOPY DUP1 DUP3 ADD SWAP2 POP POP SWAP1 POP JUMPDEST POP SWAP1 POP PUSH1 0x0 JUMPDEST PUSH1 0x2 DUP5 MLOAD PUSH2 0x11A2 SWAP2 SWAP1 PUSH2 0x2C40 JUMP JUMPDEST DUP2 LT ISZERO PUSH2 0x1285 JUMPI PUSH2 0x11EA DUP5 PUSH1 0x1 DUP4 PUSH1 0x2 PUSH2 0x11BC SWAP2 SWAP1 PUSH2 0x2C71 JUMP JUMPDEST PUSH2 0x11C6 SWAP2 SWAP1 PUSH2 0x282C JUMP JUMPDEST DUP2 MLOAD DUP2 LT PUSH2 0x11D7 JUMPI PUSH2 0x11D6 PUSH2 0x288F JUMP JUMPDEST JUMPDEST PUSH1 0x20 ADD ADD MLOAD PUSH1 0xF8 SHR PUSH1 0xF8 SHL PUSH1 0xF8 SHR PUSH2 0x1DC9 JUMP JUMPDEST PUSH1 0x10 PUSH2 0x1221 DUP7 DUP5 PUSH1 0x2 PUSH2 0x11FD SWAP2 SWAP1 PUSH2 0x2C71 JUMP JUMPDEST DUP2 MLOAD DUP2 LT PUSH2 0x120E JUMPI PUSH2 0x120D PUSH2 0x288F JUMP JUMPDEST JUMPDEST PUSH1 0x20 ADD ADD MLOAD PUSH1 0xF8 SHR PUSH1 0xF8 SHL PUSH1 0xF8 SHR PUSH2 0x1DC9 JUMP JUMPDEST PUSH2 0x122B SWAP2 SWAP1 PUSH2 0x2CB3 JUMP JUMPDEST PUSH2 0x1235 SWAP2 SWAP1 PUSH2 0x2CF0 JUMP JUMPDEST PUSH1 0xF8 SHL DUP3 DUP3 DUP2 MLOAD DUP2 LT PUSH2 0x124B JUMPI PUSH2 0x124A PUSH2 0x288F JUMP JUMPDEST JUMPDEST PUSH1 0x20 ADD ADD SWAP1 PUSH31 0xFFFFFFFFFFFFFFFFFFFFFFFFFFFFFFFFFFFFFFFFFFFFFFFFFFFFFFFFFFFFFF NOT AND SWAP1 DUP2 PUSH1 0x0 BYTE SWAP1 MSTORE8 POP DUP1 PUSH1 0x1 ADD SWAP1 POP PUSH2 0x1194 JUMP JUMPDEST POP DUP1 PUSH2 0x1290 SWAP1 PUSH2 0x2D83 JUMP JUMPDEST PUSH1 0x60 SHR SWAP2 POP POP SWAP2 SWAP1 POP JUMP JUMPDEST PUSH1 0x60 PUSH1 0x0 DUP1 DUP4 SWAP1 POP JUMPDEST DUP7 DUP7 SWAP1 POP DUP2 LT ISZERO PUSH2 0x143F JUMPI PUSH32 0x3A00000000000000000000000000000000000000000000000000000000000000 DUP8 DUP8 DUP4 DUP2 DUP2 LT PUSH2 0x12E3 JUMPI PUSH2 0x12E2 PUSH2 0x288F JUMP JUMPDEST JUMPDEST SWAP1 POP ADD CALLDATALOAD PUSH1 0xF8 SHR PUSH1 0xF8 SHL PUSH31 0xFFFFFFFFFFFFFFFFFFFFFFFFFFFFFFFFFFFFFFFFFFFFFFFFFFFFFFFFFFFFFF NOT AND SUB PUSH2 0x142C JUMPI DUP5 DUP1 MLOAD SWAP1 PUSH1 0x20 ADD KECCAK256 PUSH2 0x136B DUP9 DUP9 DUP1 DUP1 PUSH1 0x1F ADD PUSH1 0x20 DUP1 SWAP2 DIV MUL PUSH1 0x20 ADD PUSH1 0x40 MLOAD SWAP1 DUP2 ADD PUSH1 0x40 MSTORE DUP1 SWAP4 SWAP3 SWAP2 SWAP1 DUP2 DUP2 MSTORE PUSH1 0x20 ADD DUP4 DUP4 DUP1 DUP3 DUP5 CALLDATACOPY PUSH1 0x0 DUP2 DUP5 ADD MSTORE PUSH1 0x1F NOT PUSH1 0x1F DUP3 ADD AND SWAP1 POP DUP1 DUP4 ADD SWAP3 POP POP POP POP POP POP POP DUP7 DUP5 PUSH2 0xFF4 JUMP JUMPDEST DUP1 MLOAD SWAP1 PUSH1 0x20 ADD KECCAK256 EQ PUSH2 0x1393 JUMPI DUP4 PUSH1 0x40 MLOAD DUP1 PUSH1 0x20 ADD PUSH1 0x40 MSTORE DUP1 PUSH1 0x0 DUP2 MSTORE POP SWAP1 SWAP3 POP SWAP3 POP POP PUSH2 0x155D JUMP JUMPDEST DUP1 DUP1 PUSH2 0x139E SWAP1 PUSH2 0x2ABD JUMP JUMPDEST SWAP2 POP POP DUP7 DUP7 SWAP1 POP DUP2 LT DUP1 ISZERO PUSH2 0x1410 JUMPI POP PUSH32 0x2000000000000000000000000000000000000000000000000000000000000000 DUP8 DUP8 DUP4 DUP2 DUP2 LT PUSH2 0x13E2 JUMPI PUSH2 0x13E1 PUSH2 0x288F JUMP JUMPDEST JUMPDEST SWAP1 POP ADD CALLDATALOAD PUSH1 0xF8 SHR PUSH1 0xF8 SHL PUSH31 0xFFFFFFFFFFFFFFFFFFFFFFFFFFFFFFFFFFFFFFFFFFFFFFFFFFFFFFFFFFFFFF NOT AND EQ JUMPDEST ISZERO PUSH2 0x1424 JUMPI DUP1 DUP1 PUSH2 0x1420 SWAP1 PUSH2 0x2ABD JUMP JUMPDEST SWAP2 POP POP JUMPDEST DUP1 SWAP4 POP PUSH2 0x143F JUMP JUMPDEST DUP1 DUP1 PUSH2 0x1437 SWAP1 PUSH2 0x2ABD JUMP JUMPDEST SWAP2 POP POP PUSH2 0x12A4 JUMP JUMPDEST JUMPDEST DUP7 DUP7 SWAP1 POP DUP2 LT ISZERO PUSH2 0x1507 JUMPI PUSH1 0xA PUSH1 0xF8 SHL DUP8 DUP8 DUP4 DUP2 DUP2 LT PUSH2 0x1463 JUMPI PUSH2 0x1462 PUSH2 0x288F JUMP JUMPDEST JUMPDEST SWAP1 POP ADD CALLDATALOAD PUSH1 0xF8 SHR PUSH1 0xF8 SHL PUSH31 0xFFFFFFFFFFFFFFFFFFFFFFFFFFFFFFFFFFFFFFFFFFFFFFFFFFFFFFFFFFFFFF NOT AND SUB PUSH2 0x14FA JUMPI PUSH2 0x14E3 DUP8 DUP8 DUP1 DUP1 PUSH1 0x1F ADD PUSH1 0x20 DUP1 SWAP2 DIV MUL PUSH1 0x20 ADD PUSH1 0x40 MLOAD SWAP1 DUP2 ADD PUSH1 0x40 MSTORE DUP1 SWAP4 SWAP3 SWAP2 SWAP1 DUP2 DUP2 MSTORE PUSH1 0x20 ADD DUP4 DUP4 DUP1 DUP3 DUP5 CALLDATACOPY PUSH1 0x0 DUP2 DUP5 ADD MSTORE PUSH1 0x1F NOT PUSH1 0x1F DUP3 ADD AND SWAP1 POP DUP1 DUP4 ADD SWAP3 POP POP POP POP POP POP POP DUP6 DUP4 PUSH2 0xFF4 JUMP JUMPDEST PUSH1 0x1 DUP3 PUSH2 0x14F0 SWAP2 SWAP1 PUSH2 0x282C JUMP JUMPDEST SWAP3 POP SWAP3 POP POP PUSH2 0x155D JUMP JUMPDEST DUP1 DUP1 PUSH1 0x1 ADD SWAP2 POP POP PUSH2 0x1440 JUMP JUMPDEST PUSH2 0x1556 DUP8 DUP8 DUP1 DUP1 PUSH1 0x1F ADD PUSH1 0x20 DUP1 SWAP2 DIV MUL PUSH1 0x20 ADD PUSH1 0x40 MLOAD SWAP1 DUP2 ADD PUSH1 0x40 MSTORE DUP1 SWAP4 SWAP3 SWAP2 SWAP1 DUP2 DUP2 MSTORE PUSH1 0x20 ADD DUP4 DUP4 DUP1 DUP3 DUP5 CALLDATACOPY PUSH1 0x0 DUP2 DUP5 ADD MSTORE PUSH1 0x1F NOT PUSH1 0x1F DUP3 ADD AND SWAP1 POP DUP1 DUP4 ADD SWAP3 POP POP POP POP POP POP POP DUP6 DUP4 PUSH2 0xFF4 JUMP JUMPDEST DUP2 SWAP3 POP SWAP3 POP POP JUMPDEST SWAP5 POP SWAP5 SWAP3 POP POP POP JUMP JUMPDEST PUSH1 0x0 DUP1 PUSH1 0x0 SWAP1 POP PUSH1 0x0 JUMPDEST DUP4 MLOAD DUP2 LT ISZERO PUSH2 0x15CF JUMPI PUSH1 0x30 DUP5 DUP3 DUP2 MLOAD DUP2 LT PUSH2 0x158E JUMPI PUSH2 0x158D PUSH2 0x288F JUMP JUMPDEST JUMPDEST PUSH1 0x20 ADD ADD MLOAD PUSH1 0xF8 SHR PUSH1 0xF8 SHL PUSH1 0xF8 SHR PUSH1 0xFF AND PUSH2 0x15A9 SWAP2 SWAP1 PUSH2 0x2C0C JUMP JUMPDEST PUSH1 0xA DUP4 PUSH2 0x15B6 SWAP2 SWAP1 PUSH2 0x2C71 JUMP JUMPDEST PUSH2 0x15C0 SWAP2 SWAP1 PUSH2 0x282C JUMP JUMPDEST SWAP2 POP DUP1 DUP1 PUSH1 0x1 ADD SWAP2 POP POP PUSH2 0x1570 JUMP JUMPDEST POP DUP1 SWAP2 POP POP SWAP2 SWAP1 POP JUMP JUMPDEST PUSH1 0x60 PUSH1 0x0 DUP1 DUP4 SWAP1 POP PUSH1 0x0 JUMPDEST PUSH1 0x1 DUP8 DUP8 SWAP1 POP PUSH2 0x15F4 SWAP2 SWAP1 PUSH2 0x2C0C JUMP JUMPDEST DUP3 LT ISZERO PUSH2 0x177D JUMPI PUSH32 0x2D00000000000000000000000000000000000000000000000000000000000000 DUP8 DUP8 DUP5 DUP2 DUP2 LT PUSH2 0x162F JUMPI PUSH2 0x162E PUSH2 0x288F JUMP JUMPDEST JUMPDEST SWAP1 POP ADD CALLDATALOAD PUSH1 0xF8 SHR PUSH1 0xF8 SHL PUSH31 0xFFFFFFFFFFFFFFFFFFFFFFFFFFFFFFFFFFFFFFFFFFFFFFFFFFFFFFFFFFFFFF NOT AND EQ DUP1 ISZERO PUSH2 0x16D1 JUMPI POP PUSH32 0x2000000000000000000000000000000000000000000000000000000000000000 DUP8 DUP8 PUSH1 0x1 DUP6 PUSH2 0x1693 SWAP2 SWAP1 PUSH2 0x282C JUMP JUMPDEST DUP2 DUP2 LT PUSH2 0x16A3 JUMPI PUSH2 0x16A2 PUSH2 0x288F JUMP JUMPDEST JUMPDEST SWAP1 POP ADD CALLDATALOAD PUSH1 0xF8 SHR PUSH1 0xF8 SHL PUSH31 0xFFFFFFFFFFFFFFFFFFFFFFFFFFFFFFFFFFFFFFFFFFFFFFFFFFFFFFFFFFFFFF NOT AND EQ JUMPDEST ISZERO PUSH2 0x16F8 JUMPI PUSH1 0x2 DUP3 PUSH2 0x16E3 SWAP2 SWAP1 PUSH2 0x282C JUMP JUMPDEST SWAP2 POP DUP1 DUP1 PUSH2 0x16F0 SWAP1 PUSH2 0x2ABD JUMP JUMPDEST SWAP2 POP POP PUSH2 0x16FD JUMP JUMPDEST PUSH2 0x177D JUMP JUMPDEST JUMPDEST DUP7 DUP7 SWAP1 POP DUP3 LT DUP1 ISZERO PUSH2 0x1752 JUMPI POP PUSH1 0xA PUSH1 0xF8 SHL DUP8 DUP8 DUP5 DUP2 DUP2 LT PUSH2 0x1723 JUMPI PUSH2 0x1722 PUSH2 0x288F JUMP JUMPDEST JUMPDEST SWAP1 POP ADD CALLDATALOAD PUSH1 0xF8 SHR PUSH1 0xF8 SHL PUSH31 0xFFFFFFFFFFFFFFFFFFFFFFFFFFFFFFFFFFFFFFFFFFFFFFFFFFFFFFFFFFFFFF NOT AND EQ ISZERO JUMPDEST ISZERO PUSH2 0x176A JUMPI DUP2 DUP1 PUSH2 0x1762 SWAP1 PUSH2 0x2ABD JUMP JUMPDEST SWAP3 POP POP PUSH2 0x16FE JUMP JUMPDEST DUP2 DUP1 PUSH2 0x1775 SWAP1 PUSH2 0x2ABD JUMP JUMPDEST SWAP3 POP POP PUSH2 0x15E4 JUMP JUMPDEST PUSH1 0x0 DUP2 PUSH8 0xFFFFFFFFFFFFFFFF DUP2 GT ISZERO PUSH2 0x1799 JUMPI PUSH2 0x1798 PUSH2 0x2860 JUMP JUMPDEST JUMPDEST PUSH1 0x40 MLOAD SWAP1 DUP1 DUP3 MSTORE DUP1 PUSH1 0x20 MUL PUSH1 0x20 ADD DUP3 ADD PUSH1 0x40 MSTORE DUP1 ISZERO PUSH2 0x17CC JUMPI DUP2 PUSH1 0x20 ADD JUMPDEST PUSH1 0x60 DUP2 MSTORE PUSH1 0x20 ADD SWAP1 PUSH1 0x1 SWAP1 SUB SWAP1 DUP2 PUSH2 0x17B7 JUMPI SWAP1 POP JUMPDEST POP SWAP1 POP DUP6 SWAP3 POP PUSH1 0x0 JUMPDEST PUSH1 0x1 DUP10 DUP10 SWAP1 POP PUSH2 0x17E5 SWAP2 SWAP1 PUSH2 0x2C0C JUMP JUMPDEST DUP5 LT DUP1 ISZERO PUSH2 0x17F3 JUMPI POP DUP3 DUP2 EQ ISZERO JUMPDEST ISZERO PUSH2 0x19F7 JUMPI PUSH32 0x2D00000000000000000000000000000000000000000000000000000000000000 DUP10 DUP10 DUP7 DUP2 DUP2 LT PUSH2 0x182C JUMPI PUSH2 0x182B PUSH2 0x288F JUMP JUMPDEST JUMPDEST SWAP1 POP ADD CALLDATALOAD PUSH1 0xF8 SHR PUSH1 0xF8 SHL PUSH31 0xFFFFFFFFFFFFFFFFFFFFFFFFFFFFFFFFFFFFFFFFFFFFFFFFFFFFFFFFFFFFFF NOT AND EQ DUP1 ISZERO PUSH2 0x18CE JUMPI POP PUSH32 0x2000000000000000000000000000000000000000000000000000000000000000 DUP10 DUP10 PUSH1 0x1 DUP8 PUSH2 0x1890 SWAP2 SWAP1 PUSH2 0x282C JUMP JUMPDEST DUP2 DUP2 LT PUSH2 0x18A0 JUMPI PUSH2 0x189F PUSH2 0x288F JUMP JUMPDEST JUMPDEST SWAP1 POP ADD CALLDATALOAD PUSH1 0xF8 SHR PUSH1 0xF8 SHL PUSH31 0xFFFFFFFFFFFFFFFFFFFFFFFFFFFFFFFFFFFFFFFFFFFFFFFFFFFFFFFFFFFFFF NOT AND EQ JUMPDEST ISZERO PUSH2 0x18E3 JUMPI PUSH1 0x2 DUP5 PUSH2 0x18E0 SWAP2 SWAP1 PUSH2 0x282C JUMP JUMPDEST SWAP7 POP JUMPDEST JUMPDEST DUP9 DUP9 SWAP1 POP DUP5 LT DUP1 ISZERO PUSH2 0x1938 JUMPI POP PUSH1 0xA PUSH1 0xF8 SHL DUP10 DUP10 DUP7 DUP2 DUP2 LT PUSH2 0x1909 JUMPI PUSH2 0x1908 PUSH2 0x288F JUMP JUMPDEST JUMPDEST SWAP1 POP ADD CALLDATALOAD PUSH1 0xF8 SHR PUSH1 0xF8 SHL PUSH31 0xFFFFFFFFFFFFFFFFFFFFFFFFFFFFFFFFFFFFFFFFFFFFFFFFFFFFFFFFFFFFFF NOT AND EQ ISZERO JUMPDEST ISZERO PUSH2 0x1950 JUMPI DUP4 DUP1 PUSH2 0x1948 SWAP1 PUSH2 0x2ABD JUMP JUMPDEST SWAP5 POP POP PUSH2 0x18E4 JUMP JUMPDEST PUSH2 0x199F DUP10 DUP10 DUP1 DUP1 PUSH1 0x1F ADD PUSH1 0x20 DUP1 SWAP2 DIV MUL PUSH1 0x20 ADD PUSH1 0x40 MLOAD SWAP1 DUP2 ADD PUSH1 0x40 MSTORE DUP1 SWAP4 SWAP3 SWAP2 SWAP1 DUP2 DUP2 MSTORE PUSH1 0x20 ADD DUP4 DUP4 DUP1 DUP3 DUP5 CALLDATACOPY PUSH1 0x0 DUP2 DUP5 ADD MSTORE PUSH1 0x1F NOT PUSH1 0x1F DUP3 ADD AND SWAP1 POP DUP1 DUP4 ADD SWAP3 POP POP POP POP POP POP POP DUP9 DUP7 PUSH2 0xFF4 JUMP JUMPDEST DUP3 DUP3 DUP2 MLOAD DUP2 LT PUSH2 0x19B2 JUMPI PUSH2 0x19B1 PUSH2 0x288F JUMP JUMPDEST JUMPDEST PUSH1 0x20 MUL PUSH1 0x20 ADD ADD DUP2 SWAP1 MSTORE POP DUP1 DUP1 PUSH2 0x19C8 SWAP1 PUSH2 0x2ABD JUMP JUMPDEST SWAP2 POP POP DUP9 DUP9 SWAP1 POP DUP5 SUB PUSH2 0x19E4 JUMPI DUP4 DUP1 PUSH2 0x19E0 SWAP1 PUSH2 0x2DEA JUMP JUMPDEST SWAP5 POP POP JUMPDEST DUP4 DUP1 PUSH2 0x19EF SWAP1 PUSH2 0x2ABD JUMP JUMPDEST SWAP5 POP POP PUSH2 0x17D5 JUMP JUMPDEST POP DUP1 DUP4 SWAP5 POP SWAP5 POP POP POP POP SWAP4 POP SWAP4 SWAP2 POP POP JUMP JUMPDEST PUSH1 0x0 DUP1 PUSH2 0x7B2 SWAP1 POP JUMPDEST DUP8 PUSH2 0xFFFF AND DUP2 PUSH2 0xFFFF AND LT ISZERO PUSH2 0x1A67 JUMPI PUSH2 0x1A2B DUP2 PUSH2 0x2138 JUMP JUMPDEST ISZERO PUSH2 0x1A47 JUMPI PUSH4 0x1E28500 DUP3 PUSH2 0x1A40 SWAP2 SWAP1 PUSH2 0x282C JUMP JUMPDEST SWAP2 POP PUSH2 0x1A5A JUMP JUMPDEST PUSH4 0x1E13380 DUP3 PUSH2 0x1A57 SWAP2 SWAP1 PUSH2 0x282C JUMP JUMPDEST SWAP2 POP JUMPDEST DUP1 DUP1 PUSH1 0x1 ADD SWAP2 POP POP PUSH2 0x1A12 JUMP JUMPDEST PUSH2 0x1A6F PUSH2 0x2263 JUMP JUMPDEST PUSH1 0x1F DUP2 PUSH1 0x0 PUSH1 0xC DUP2 LT PUSH2 0x1A85 JUMPI PUSH2 0x1A84 PUSH2 0x288F JUMP JUMPDEST JUMPDEST PUSH1 0x20 MUL ADD SWAP1 PUSH4 0xFFFFFFFF AND SWAP1 DUP2 PUSH4 0xFFFFFFFF AND DUP2 MSTORE POP POP PUSH2 0x1AA5 DUP10 PUSH2 0x2138 JUMP JUMPDEST ISZERO PUSH2 0x1ADC JUMPI PUSH1 0x1D DUP2 PUSH1 0x1 PUSH1 0xC DUP2 LT PUSH2 0x1AC0 JUMPI PUSH2 0x1ABF PUSH2 0x288F JUMP JUMPDEST JUMPDEST PUSH1 0x20 MUL ADD SWAP1 PUSH4 0xFFFFFFFF AND SWAP1 DUP2 PUSH4 0xFFFFFFFF AND DUP2 MSTORE POP POP PUSH2 0x1B0A JUMP JUMPDEST PUSH1 0x1C DUP2 PUSH1 0x1 PUSH1 0xC DUP2 LT PUSH2 0x1AF2 JUMPI PUSH2 0x1AF1 PUSH2 0x288F JUMP JUMPDEST JUMPDEST PUSH1 0x20 MUL ADD SWAP1 PUSH4 0xFFFFFFFF AND SWAP1 DUP2 PUSH4 0xFFFFFFFF AND DUP2 MSTORE POP POP JUMPDEST PUSH1 0x1F DUP2 PUSH1 0x2 PUSH1 0xC DUP2 LT PUSH2 0x1B20 JUMPI PUSH2 0x1B1F PUSH2 0x288F JUMP JUMPDEST JUMPDEST PUSH1 0x20 MUL ADD SWAP1 PUSH4 0xFFFFFFFF AND SWAP1 DUP2 PUSH4 0xFFFFFFFF AND DUP2 MSTORE POP POP PUSH1 0x1E DUP2 PUSH1 0x3 PUSH1 0xC DUP2 LT PUSH2 0x1B4D JUMPI PUSH2 0x1B4C PUSH2 0x288F JUMP JUMPDEST JUMPDEST PUSH1 0x20 MUL ADD SWAP1 PUSH4 0xFFFFFFFF AND SWAP1 DUP2 PUSH4 0xFFFFFFFF AND DUP2 MSTORE POP POP PUSH1 0x1F DUP2 PUSH1 0x4 PUSH1 0xC DUP2 LT PUSH2 0x1B7A JUMPI PUSH2 0x1B79 PUSH2 0x288F JUMP JUMPDEST JUMPDEST PUSH1 0x20 MUL ADD SWAP1 PUSH4 0xFFFFFFFF AND SWAP1 DUP2 PUSH4 0xFFFFFFFF AND DUP2 MSTORE POP POP PUSH1 0x1E DUP2 PUSH1 0x5 PUSH1 0xC DUP2 LT PUSH2 0x1BA7 JUMPI PUSH2 0x1BA6 PUSH2 0x288F JUMP JUMPDEST JUMPDEST PUSH1 0x20 MUL ADD SWAP1 PUSH4 0xFFFFFFFF AND SWAP1 DUP2 PUSH4 0xFFFFFFFF AND DUP2 MSTORE POP POP PUSH1 0x1F DUP2 PUSH1 0x6 PUSH1 0xC DUP2 LT PUSH2 0x1BD4 JUMPI PUSH2 0x1BD3 PUSH2 0x288F JUMP JUMPDEST JUMPDEST PUSH1 0x20 MUL ADD SWAP1 PUSH4 0xFFFFFFFF AND SWAP1 DUP2 PUSH4 0xFFFFFFFF AND DUP2 MSTORE POP POP PUSH1 0x1F DUP2 PUSH1 0x7 PUSH1 0xC DUP2 LT PUSH2 0x1C01 JUMPI PUSH2 0x1C00 PUSH2 0x288F JUMP JUMPDEST JUMPDEST PUSH1 0x20 MUL ADD SWAP1 PUSH4 0xFFFFFFFF AND SWAP1 DUP2 PUSH4 0xFFFFFFFF AND DUP2 MSTORE POP POP PUSH1 0x1E DUP2 PUSH1 0x8 PUSH1 0xC DUP2 LT PUSH2 0x1C2E JUMPI PUSH2 0x1C2D PUSH2 0x288F JUMP JUMPDEST JUMPDEST PUSH1 0x20 MUL ADD SWAP1 PUSH4 0xFFFFFFFF AND SWAP1 DUP2 PUSH4 0xFFFFFFFF AND DUP2 MSTORE POP POP PUSH1 0x1F DUP2 PUSH1 0x9 PUSH1 0xC DUP2 LT PUSH2 0x1C5B JUMPI PUSH2 0x1C5A PUSH2 0x288F JUMP JUMPDEST JUMPDEST PUSH1 0x20 MUL ADD SWAP1 PUSH4 0xFFFFFFFF AND SWAP1 DUP2 PUSH4 0xFFFFFFFF AND DUP2 MSTORE POP POP PUSH1 0x1E DUP2 PUSH1 0xA PUSH1 0xC DUP2 LT PUSH2 0x1C88 JUMPI PUSH2 0x1C87 PUSH2 0x288F JUMP JUMPDEST JUMPDEST PUSH1 0x20 MUL ADD SWAP1 PUSH4 0xFFFFFFFF AND SWAP1 DUP2 PUSH4 0xFFFFFFFF AND DUP2 MSTORE POP POP PUSH1 0x1F DUP2 PUSH1 0xB PUSH1 0xC DUP2 LT PUSH2 0x1CB5 JUMPI PUSH2 0x1CB4 PUSH2 0x288F JUMP JUMPDEST JUMPDEST PUSH1 0x20 MUL ADD SWAP1 PUSH4 0xFFFFFFFF AND SWAP1 DUP2 PUSH4 0xFFFFFFFF AND DUP2 MSTORE POP POP PUSH1 0x1 SWAP2 POP JUMPDEST DUP8 PUSH1 0xFF AND DUP3 PUSH2 0xFFFF AND LT ISZERO PUSH2 0x1D36 JUMPI PUSH3 0x15180 DUP2 PUSH1 0x1 DUP5 PUSH2 0x1CF2 SWAP2 SWAP1 PUSH2 0x2E21 JUMP JUMPDEST PUSH2 0xFFFF AND PUSH1 0xC DUP2 LT PUSH2 0x1D07 JUMPI PUSH2 0x1D06 PUSH2 0x288F JUMP JUMPDEST JUMPDEST PUSH1 0x20 MUL ADD MLOAD PUSH2 0x1D16 SWAP2 SWAP1 PUSH2 0x2E67 JUMP JUMPDEST PUSH4 0xFFFFFFFF AND DUP4 PUSH2 0x1D27 SWAP2 SWAP1 PUSH2 0x282C JUMP JUMPDEST SWAP3 POP DUP2 DUP1 PUSH1 0x1 ADD SWAP3 POP POP PUSH2 0x1CD1 JUMP JUMPDEST PUSH3 0x15180 PUSH1 0x1 DUP9 PUSH2 0x1D47 SWAP2 SWAP1 PUSH2 0x2EA4 JUMP JUMPDEST PUSH1 0xFF AND PUSH2 0x1D54 SWAP2 SWAP1 PUSH2 0x2E67 JUMP JUMPDEST PUSH4 0xFFFFFFFF AND DUP4 PUSH2 0x1D65 SWAP2 SWAP1 PUSH2 0x282C JUMP JUMPDEST SWAP3 POP PUSH2 0xE10 DUP7 PUSH1 0xFF AND PUSH2 0x1D78 SWAP2 SWAP1 PUSH2 0x2E67 JUMP JUMPDEST PUSH4 0xFFFFFFFF AND DUP4 PUSH2 0x1D89 SWAP2 SWAP1 PUSH2 0x282C JUMP JUMPDEST SWAP3 POP PUSH1 0x3C DUP6 PUSH1 0xFF AND PUSH2 0x1D9B SWAP2 SWAP1 PUSH2 0x2ED9 JUMP JUMPDEST PUSH2 0xFFFF AND DUP4 PUSH2 0x1DAA SWAP2 SWAP1 PUSH2 0x282C JUMP JUMPDEST SWAP3 POP DUP4 PUSH1 0xFF AND DUP4 PUSH2 0x1DBB SWAP2 SWAP1 PUSH2 0x282C JUMP JUMPDEST SWAP3 POP POP POP SWAP7 SWAP6 POP POP POP POP POP POP JUMP JUMPDEST PUSH1 0x0 PUSH32 0x3000000000000000000000000000000000000000000000000000000000000000 PUSH31 0xFFFFFFFFFFFFFFFFFFFFFFFFFFFFFFFFFFFFFFFFFFFFFFFFFFFFFFFFFFFFFF NOT AND DUP3 PUSH1 0xF8 SHL PUSH31 0xFFFFFFFFFFFFFFFFFFFFFFFFFFFFFFFFFFFFFFFFFFFFFFFFFFFFFFFFFFFFFF NOT AND LT ISZERO DUP1 ISZERO PUSH2 0x1EA9 JUMPI POP PUSH32 0x3900000000000000000000000000000000000000000000000000000000000000 PUSH31 0xFFFFFFFFFFFFFFFFFFFFFFFFFFFFFFFFFFFFFFFFFFFFFFFFFFFFFFFFFFFFFF NOT AND DUP3 PUSH1 0xF8 SHL PUSH31 0xFFFFFFFFFFFFFFFFFFFFFFFFFFFFFFFFFFFFFFFFFFFFFFFFFFFFFFFFFFFFFF NOT AND GT ISZERO JUMPDEST ISZERO PUSH2 0x1EE4 JUMPI PUSH32 0x3000000000000000000000000000000000000000000000000000000000000000 PUSH1 0xF8 SHR DUP3 PUSH2 0x1EDD SWAP2 SWAP1 PUSH2 0x2EA4 JUMP JUMPDEST SWAP1 POP PUSH2 0x2133 JUMP JUMPDEST PUSH32 0x6100000000000000000000000000000000000000000000000000000000000000 PUSH31 0xFFFFFFFFFFFFFFFFFFFFFFFFFFFFFFFFFFFFFFFFFFFFFFFFFFFFFFFFFFFFFF NOT AND DUP3 PUSH1 0xF8 SHL PUSH31 0xFFFFFFFFFFFFFFFFFFFFFFFFFFFFFFFFFFFFFFFFFFFFFFFFFFFFFFFFFFFFFF NOT AND LT ISZERO DUP1 ISZERO PUSH2 0x1FC2 JUMPI POP PUSH32 0x6600000000000000000000000000000000000000000000000000000000000000 PUSH31 0xFFFFFFFFFFFFFFFFFFFFFFFFFFFFFFFFFFFFFFFFFFFFFFFFFFFFFFFFFFFFFF NOT AND DUP3 PUSH1 0xF8 SHL PUSH31 0xFFFFFFFFFFFFFFFFFFFFFFFFFFFFFFFFFFFFFFFFFFFFFFFFFFFFFFFFFFFFFF NOT AND GT ISZERO JUMPDEST ISZERO PUSH2 0x2009 JUMPI PUSH32 0x6100000000000000000000000000000000000000000000000000000000000000 PUSH1 0xF8 SHR DUP3 PUSH1 0xA PUSH2 0x1FF8 SWAP2 SWAP1 PUSH2 0x2CF0 JUMP JUMPDEST PUSH2 0x2002 SWAP2 SWAP1 PUSH2 0x2EA4 JUMP JUMPDEST SWAP1 POP PUSH2 0x2133 JUMP JUMPDEST PUSH32 0x4100000000000000000000000000000000000000000000000000000000000000 PUSH31 0xFFFFFFFFFFFFFFFFFFFFFFFFFFFFFFFFFFFFFFFFFFFFFFFFFFFFFFFFFFFFFF NOT AND DUP3 PUSH1 0xF8 SHL PUSH31 0xFFFFFFFFFFFFFFFFFFFFFFFFFFFFFFFFFFFFFFFFFFFFFFFFFFFFFFFFFFFFFF NOT AND LT ISZERO DUP1 ISZERO PUSH2 0x20E7 JUMPI POP PUSH32 0x4600000000000000000000000000000000000000000000000000000000000000 PUSH31 0xFFFFFFFFFFFFFFFFFFFFFFFFFFFFFFFFFFFFFFFFFFFFFFFFFFFFFFFFFFFFFF NOT AND DUP3 PUSH1 0xF8 SHL PUSH31 0xFFFFFFFFFFFFFFFFFFFFFFFFFFFFFFFFFFFFFFFFFFFFFFFFFFFFFFFFFFFFFF NOT AND GT ISZERO JUMPDEST ISZERO PUSH2 0x212E JUMPI PUSH32 0x4100000000000000000000000000000000000000000000000000000000000000 PUSH1 0xF8 SHR DUP3 PUSH1 0xA PUSH2 0x211D SWAP2 SWAP1 PUSH2 0x2CF0 JUMP JUMPDEST PUSH2 0x2127 SWAP2 SWAP1 PUSH2 0x2EA4 JUMP JUMPDEST SWAP1 POP PUSH2 0x2133 JUMP JUMPDEST PUSH1 0x0 SWAP1 POP JUMPDEST SWAP2 SWAP1 POP JUMP JUMPDEST PUSH1 0x0 DUP1 PUSH1 0x4 DUP4 PUSH2 0x2148 SWAP2 SWAP1 PUSH2 0x2F16 JUMP JUMPDEST PUSH2 0xFFFF AND EQ PUSH2 0x215A JUMPI PUSH1 0x0 SWAP1 POP PUSH2 0x21A2 JUMP JUMPDEST PUSH1 0x0 PUSH1 0x64 DUP4 PUSH2 0x2169 SWAP2 SWAP1 PUSH2 0x2F16 JUMP JUMPDEST PUSH2 0xFFFF AND EQ PUSH2 0x217B JUMPI PUSH1 0x1 SWAP1 POP PUSH2 0x21A2 JUMP JUMPDEST PUSH1 0x0 PUSH2 0x190 DUP4 PUSH2 0x218B SWAP2 SWAP1 PUSH2 0x2F16 JUMP JUMPDEST PUSH2 0xFFFF AND EQ PUSH2 0x219D JUMPI PUSH1 0x0 SWAP1 POP PUSH2 0x21A2 JUMP JUMPDEST PUSH1 0x1 SWAP1 POP JUMPDEST SWAP2 SWAP1 POP JUMP JUMPDEST PUSH1 0x40 MLOAD DUP1 PUSH1 0xA0 ADD PUSH1 0x40 MSTORE DUP1 PUSH1 0x60 DUP2 MSTORE PUSH1 0x20 ADD PUSH1 0x0 PUSH20 0xFFFFFFFFFFFFFFFFFFFFFFFFFFFFFFFFFFFFFFFF AND DUP2 MSTORE PUSH1 0x20 ADD PUSH1 0x0 DUP2 MSTORE PUSH1 0x20 ADD PUSH1 0x60 DUP2 MSTORE PUSH1 0x20 ADD PUSH1 0x60 DUP2 MSTORE POP SWAP1 JUMP JUMPDEST PUSH1 0x40 MLOAD DUP1 PUSH2 0x180 ADD PUSH1 0x40 MSTORE DUP1 PUSH1 0x60 DUP2 MSTORE PUSH1 0x20 ADD PUSH1 0x0 PUSH20 0xFFFFFFFFFFFFFFFFFFFFFFFFFFFFFFFFFFFFFFFF AND DUP2 MSTORE PUSH1 0x20 ADD PUSH1 0x60 DUP2 MSTORE PUSH1 0x20 ADD PUSH1 0x60 DUP2 MSTORE PUSH1 0x20 ADD PUSH1 0x60 DUP2 MSTORE PUSH1 0x20 ADD PUSH1 0x0 DUP2 MSTORE PUSH1 0x20 ADD PUSH1 0x60 DUP2 MSTORE PUSH1 0x20 ADD PUSH1 0x60 DUP2 MSTORE PUSH1 0x20 ADD PUSH1 0x60 DUP2 MSTORE PUSH1 0x20 ADD PUSH1 0x60 DUP2 MSTORE PUSH1 0x20 ADD PUSH1 0x60 DUP2 MSTORE PUSH1 0x20 ADD PUSH1 0x60 DUP2 MSTORE POP SWAP1 JUMP JUMPDEST PUSH1 0x40 MLOAD DUP1 PUSH2 0x180 ADD PUSH1 0x40 MSTORE DUP1 PUSH1 0xC SWAP1 PUSH1 0x20 DUP3 MUL DUP1 CALLDATASIZE DUP4 CALLDATACOPY DUP1 DUP3 ADD SWAP2 POP POP SWAP1 POP POP SWAP1 JUMP JUMPDEST PUSH1 0x0 PUSH20 0xFFFFFFFFFFFFFFFFFFFFFFFFFFFFFFFFFFFFFFFF DUP3 AND SWAP1 POP SWAP2 SWAP1 POP JUMP JUMPDEST PUSH1 0x0 PUSH2 0x22B1 DUP3 PUSH2 0x2286 JUMP JUMPDEST SWAP1 POP SWAP2 SWAP1 POP JUMP JUMPDEST PUSH2 0x22C1 DUP2 PUSH2 0x22A6 JUMP JUMPDEST DUP3 MSTORE POP POP JUMP JUMPDEST PUSH1 0x0 PUSH1 0x20 DUP3 ADD SWAP1 POP PUSH2 0x22DC PUSH1 0x0 DUP4 ADD DUP5 PUSH2 0x22B8 JUMP JUMPDEST SWAP3 SWAP2 POP POP JUMP JUMPDEST PUSH1 0x0 DUP2 SWAP1 POP SWAP2 SWAP1 POP JUMP JUMPDEST PUSH2 0x22F5 DUP2 PUSH2 0x22E2 JUMP JUMPDEST DUP3 MSTORE POP POP JUMP JUMPDEST PUSH1 0x0 PUSH1 0x20 DUP3 ADD SWAP1 POP PUSH2 0x2310 PUSH1 0x0 DUP4 ADD DUP5 PUSH2 0x22EC JUMP JUMPDEST SWAP3 SWAP2 POP POP JUMP JUMPDEST PUSH1 0x0 DUP1 REVERT JUMPDEST PUSH1 0x0 DUP1 REVERT JUMPDEST PUSH1 0x0 DUP1 REVERT JUMPDEST PUSH1 0x0 DUP1 REVERT JUMPDEST PUSH1 0x0 DUP1 REVERT JUMPDEST PUSH1 0x0 DUP1 DUP4 PUSH1 0x1F DUP5 ADD SLT PUSH2 0x2345 JUMPI PUSH2 0x2344 PUSH2 0x2320 JUMP JUMPDEST JUMPDEST DUP3 CALLDATALOAD SWAP1 POP PUSH8 0xFFFFFFFFFFFFFFFF DUP2 GT ISZERO PUSH2 0x2362 JUMPI PUSH2 0x2361 PUSH2 0x2325 JUMP JUMPDEST JUMPDEST PUSH1 0x20 DUP4 ADD SWAP2 POP DUP4 PUSH1 0x1 DUP3 MUL DUP4 ADD GT ISZERO PUSH2 0x237E JUMPI PUSH2 0x237D PUSH2 0x232A JUMP JUMPDEST JUMPDEST SWAP3 POP SWAP3 SWAP1 POP JUMP JUMPDEST PUSH1 0x0 DUP1 REVERT JUMPDEST PUSH1 0x0 PUSH1 0x60 DUP3 DUP5 SUB SLT ISZERO PUSH2 0x23A0 JUMPI PUSH2 0x239F PUSH2 0x2385 JUMP JUMPDEST JUMPDEST DUP2 SWAP1 POP SWAP3 SWAP2 POP POP JUMP JUMPDEST PUSH1 0x0 DUP1 PUSH1 0x0 PUSH1 0x80 DUP5 DUP7 SUB SLT ISZERO PUSH2 0x23C2 JUMPI PUSH2 0x23C1 PUSH2 0x2316 JUMP JUMPDEST JUMPDEST PUSH1 0x0 DUP5 ADD CALLDATALOAD PUSH8 0xFFFFFFFFFFFFFFFF DUP2 GT ISZERO PUSH2 0x23E0 JUMPI PUSH2 0x23DF PUSH2 0x231B JUMP JUMPDEST JUMPDEST PUSH2 0x23EC DUP7 DUP3 DUP8 ADD PUSH2 0x232F JUMP JUMPDEST SWAP4 POP SWAP4 POP POP PUSH1 0x20 PUSH2 0x23FF DUP7 DUP3 DUP8 ADD PUSH2 0x238A JUMP JUMPDEST SWAP2 POP POP SWAP3 POP SWAP3 POP SWAP3 JUMP JUMPDEST PUSH1 0x0 DUP2 MLOAD SWAP1 POP SWAP2 SWAP1 POP JUMP JUMPDEST PUSH1 0x0 DUP3 DUP3 MSTORE PUSH1 0x20 DUP3 ADD SWAP1 POP SWAP3 SWAP2 POP POP JUMP JUMPDEST PUSH1 0x0 JUMPDEST DUP4 DUP2 LT ISZERO PUSH2 0x2443 JUMPI DUP1 DUP3 ADD MLOAD DUP2 DUP5 ADD MSTORE PUSH1 0x20 DUP2 ADD SWAP1 POP PUSH2 0x2428 JUMP JUMPDEST PUSH1 0x0 DUP5 DUP5 ADD MSTORE POP POP POP POP JUMP JUMPDEST PUSH1 0x0 PUSH1 0x1F NOT PUSH1 0x1F DUP4 ADD AND SWAP1 POP SWAP2 SWAP1 POP JUMP JUMPDEST PUSH1 0x0 PUSH2 0x246B DUP3 PUSH2 0x2409 JUMP JUMPDEST PUSH2 0x2475 DUP2 DUP6 PUSH2 0x2414 JUMP JUMPDEST SWAP4 POP PUSH2 0x2485 DUP2 DUP6 PUSH1 0x20 DUP7 ADD PUSH2 0x2425 JUMP JUMPDEST PUSH2 0x248E DUP2 PUSH2 0x244F JUMP JUMPDEST DUP5 ADD SWAP2 POP POP SWAP3 SWAP2 POP POP JUMP JUMPDEST PUSH1 0x0 PUSH1 0x20 DUP3 ADD SWAP1 POP DUP2 DUP2 SUB PUSH1 0x0 DUP4 ADD MSTORE PUSH2 0x24B3 DUP2 DUP5 PUSH2 0x2460 JUMP JUMPDEST SWAP1 POP SWAP3 SWAP2 POP POP JUMP JUMPDEST PUSH1 0x0 DUP2 MLOAD SWAP1 POP SWAP2 SWAP1 POP JUMP JUMPDEST PUSH1 0x0 DUP3 DUP3 MSTORE PUSH1 0x20 DUP3 ADD SWAP1 POP SWAP3 SWAP2 POP POP JUMP JUMPDEST PUSH1 0x0 PUSH2 0x24E2 DUP3 PUSH2 0x24BB JUMP JUMPDEST PUSH2 0x24EC DUP2 DUP6 PUSH2 0x24C6 JUMP JUMPDEST SWAP4 POP PUSH2 0x24FC DUP2 DUP6 PUSH1 0x20 DUP7 ADD PUSH2 0x2425 JUMP JUMPDEST PUSH2 0x2505 DUP2 PUSH2 0x244F JUMP JUMPDEST DUP5 ADD SWAP2 POP POP SWAP3 SWAP2 POP POP JUMP JUMPDEST PUSH1 0x0 PUSH1 0x20 DUP3 ADD SWAP1 POP DUP2 DUP2 SUB PUSH1 0x0 DUP4 ADD MSTORE PUSH2 0x252A DUP2 DUP5 PUSH2 0x24D7 JUMP JUMPDEST SWAP1 POP SWAP3 SWAP2 POP POP JUMP JUMPDEST PUSH2 0x253B DUP2 PUSH2 0x22E2 JUMP JUMPDEST DUP2 EQ PUSH2 0x2546 JUMPI PUSH1 0x0 DUP1 REVERT JUMPDEST POP JUMP JUMPDEST PUSH1 0x0 DUP2 CALLDATALOAD SWAP1 POP PUSH2 0x2558 DUP2 PUSH2 0x2532 JUMP JUMPDEST SWAP3 SWAP2 POP POP JUMP JUMPDEST PUSH1 0x0 PUSH1 0x20 DUP3 DUP5 SUB SLT ISZERO PUSH2 0x2574 JUMPI PUSH2 0x2573 PUSH2 0x2316 JUMP JUMPDEST JUMPDEST PUSH1 0x0 PUSH2 0x2582 DUP5 DUP3 DUP6 ADD PUSH2 0x2549 JUMP JUMPDEST SWAP2 POP POP SWAP3 SWAP2 POP POP JUMP JUMPDEST PUSH1 0x0 DUP2 SWAP1 POP SWAP3 SWAP2 POP POP JUMP JUMPDEST PUSH32 0x19457468657265756D205369676E6564204D6573736167653A0A000000000000 PUSH1 0x0 DUP3 ADD MSTORE POP JUMP JUMPDEST PUSH1 0x0 PUSH2 0x25CC PUSH1 0x1A DUP4 PUSH2 0x258B JUMP JUMPDEST SWAP2 POP PUSH2 0x25D7 DUP3 PUSH2 0x2596 JUMP JUMPDEST PUSH1 0x1A DUP3 ADD SWAP1 POP SWAP2 SWAP1 POP JUMP JUMPDEST PUSH1 0x0 PUSH2 0x25ED DUP3 PUSH2 0x24BB JUMP JUMPDEST PUSH2 0x25F7 DUP2 DUP6 PUSH2 0x258B JUMP JUMPDEST SWAP4 POP PUSH2 0x2607 DUP2 DUP6 PUSH1 0x20 DUP7 ADD PUSH2 0x2425 JUMP JUMPDEST DUP1 DUP5 ADD SWAP2 POP POP SWAP3 SWAP2 POP POP JUMP JUMPDEST DUP3 DUP2 DUP4 CALLDATACOPY PUSH1 0x0 DUP4 DUP4 ADD MSTORE POP POP POP JUMP JUMPDEST PUSH1 0x0 PUSH2 0x262E DUP4 DUP6 PUSH2 0x258B JUMP JUMPDEST SWAP4 POP PUSH2 0x263B DUP4 DUP6 DUP5 PUSH2 0x2613 JUMP JUMPDEST DUP3 DUP5 ADD SWAP1 POP SWAP4 SWAP3 POP POP POP JUMP JUMPDEST PUSH1 0x0 PUSH2 0x2652 DUP3 PUSH2 0x25BF JUMP JUMPDEST SWAP2 POP PUSH2 0x265E DUP3 DUP7 PUSH2 0x25E2 JUMP JUMPDEST SWAP2 POP PUSH2 0x266B DUP3 DUP5 DUP7 PUSH2 0x2622 JUMP JUMPDEST SWAP2 POP DUP2 SWAP1 POP SWAP5 SWAP4 POP POP POP POP JUMP JUMPDEST PUSH1 0x0 PUSH1 0xFF DUP3 AND SWAP1 POP SWAP2 SWAP1 POP JUMP JUMPDEST PUSH2 0x268E DUP2 PUSH2 0x2678 JUMP JUMPDEST DUP3 MSTORE POP POP JUMP JUMPDEST PUSH1 0x0 PUSH1 0x80 DUP3 ADD SWAP1 POP PUSH2 0x26A9 PUSH1 0x0 DUP4 ADD DUP8 PUSH2 0x22EC JUMP JUMPDEST PUSH2 0x26B6 PUSH1 0x20 DUP4 ADD DUP7 PUSH2 0x2685 JUMP JUMPDEST PUSH2 0x26C3 PUSH1 0x40 DUP4 ADD DUP6 PUSH2 0x22EC JUMP JUMPDEST PUSH2 0x26D0 PUSH1 0x60 DUP4 ADD DUP5 PUSH2 0x22EC JUMP JUMPDEST SWAP6 SWAP5 POP POP POP POP POP JUMP JUMPDEST PUSH32 0x4E487B7100000000000000000000000000000000000000000000000000000000 PUSH1 0x0 MSTORE PUSH1 0x22 PUSH1 0x4 MSTORE PUSH1 0x24 PUSH1 0x0 REVERT JUMPDEST PUSH1 0x0 PUSH1 0x2 DUP3 DIV SWAP1 POP PUSH1 0x1 DUP3 AND DUP1 PUSH2 0x2720 JUMPI PUSH1 0x7F DUP3 AND SWAP2 POP JUMPDEST PUSH1 0x20 DUP3 LT DUP2 SUB PUSH2 0x2733 JUMPI PUSH2 0x2732 PUSH2 0x26D9 JUMP JUMPDEST JUMPDEST POP SWAP2 SWAP1 POP JUMP JUMPDEST PUSH1 0x0 DUP2 SWAP1 POP SWAP3 SWAP2 POP POP JUMP JUMPDEST PUSH1 0x0 DUP2 SWAP1 POP DUP2 PUSH1 0x0 MSTORE PUSH1 0x20 PUSH1 0x0 KECCAK256 SWAP1 POP SWAP2 SWAP1 POP JUMP JUMPDEST PUSH1 0x0 DUP2 SLOAD PUSH2 0x2766 DUP2 PUSH2 0x2708 JUMP JUMPDEST PUSH2 0x2770 DUP2 DUP7 PUSH2 0x2739 JUMP JUMPDEST SWAP5 POP PUSH1 0x1 DUP3 AND PUSH1 0x0 DUP2 EQ PUSH2 0x278B JUMPI PUSH1 0x1 DUP2 EQ PUSH2 0x27A0 JUMPI PUSH2 0x27D3 JUMP JUMPDEST PUSH1 0xFF NOT DUP4 AND DUP7 MSTORE DUP2 ISZERO ISZERO DUP3 MUL DUP7 ADD SWAP4 POP PUSH2 0x27D3 JUMP JUMPDEST PUSH2 0x27A9 DUP6 PUSH2 0x2744 JUMP JUMPDEST PUSH1 0x0 JUMPDEST DUP4 DUP2 LT ISZERO PUSH2 0x27CB JUMPI DUP2 SLOAD DUP2 DUP10 ADD MSTORE PUSH1 0x1 DUP3 ADD SWAP2 POP PUSH1 0x20 DUP2 ADD SWAP1 POP PUSH2 0x27AC JUMP JUMPDEST DUP4 DUP9 ADD SWAP6 POP POP POP JUMPDEST POP POP POP SWAP3 SWAP2 POP POP JUMP JUMPDEST PUSH1 0x0 PUSH2 0x27E8 DUP3 DUP5 PUSH2 0x2759 JUMP JUMPDEST SWAP2 POP DUP2 SWAP1 POP SWAP3 SWAP2 POP POP JUMP JUMPDEST PUSH1 0x0 DUP2 SWAP1 POP SWAP2 SWAP1 POP JUMP JUMPDEST PUSH32 0x4E487B7100000000000000000000000000000000000000000000000000000000 PUSH1 0x0 MSTORE PUSH1 0x11 PUSH1 0x4 MSTORE PUSH1 0x24 PUSH1 0x0 REVERT JUMPDEST PUSH1 0x0 PUSH2 0x2837 DUP3 PUSH2 0x27F3 JUMP JUMPDEST SWAP2 POP PUSH2 0x2842 DUP4 PUSH2 0x27F3 JUMP JUMPDEST SWAP3 POP DUP3 DUP3 ADD SWAP1 POP DUP1 DUP3 GT ISZERO PUSH2 0x285A JUMPI PUSH2 0x2859 PUSH2 0x27FD JUMP JUMPDEST JUMPDEST SWAP3 SWAP2 POP POP JUMP JUMPDEST PUSH32 0x4E487B7100000000000000000000000000000000000000000000000000000000 PUSH1 0x0 MSTORE PUSH1 0x41 PUSH1 0x4 MSTORE PUSH1 0x24 PUSH1 0x0 REVERT JUMPDEST PUSH32 0x4E487B7100000000000000000000000000000000000000000000000000000000 PUSH1 0x0 MSTORE PUSH1 0x32 PUSH1 0x4 MSTORE PUSH1 0x24 PUSH1 0x0 REVERT JUMPDEST PUSH1 0x0 DUP3 DUP3 MSTORE PUSH1 0x20 DUP3 ADD SWAP1 POP SWAP3 SWAP2 POP POP JUMP JUMPDEST PUSH1 0x0 PUSH2 0x28DA DUP3 PUSH2 0x24BB JUMP JUMPDEST PUSH2 0x28E4 DUP2 DUP6 PUSH2 0x28BE JUMP JUMPDEST SWAP4 POP PUSH2 0x28F4 DUP2 DUP6 PUSH1 0x20 DUP7 ADD PUSH2 0x2425 JUMP JUMPDEST PUSH2 0x28FD DUP2 PUSH2 0x244F JUMP JUMPDEST DUP5 ADD SWAP2 POP POP SWAP3 SWAP2 POP POP JUMP JUMPDEST PUSH2 0x2911 DUP2 PUSH2 0x22A6 JUMP JUMPDEST DUP3 MSTORE POP POP JUMP JUMPDEST PUSH2 0x2920 DUP2 PUSH2 0x27F3 JUMP JUMPDEST DUP3 MSTORE POP POP JUMP JUMPDEST PUSH1 0x0 DUP2 MLOAD SWAP1 POP SWAP2 SWAP1 POP JUMP JUMPDEST PUSH1 0x0 DUP3 DUP3 MSTORE PUSH1 0x20 DUP3 ADD SWAP1 POP SWAP3 SWAP2 POP POP JUMP JUMPDEST PUSH1 0x0 DUP2 SWAP1 POP PUSH1 0x20 DUP3 ADD SWAP1 POP SWAP2 SWAP1 POP JUMP JUMPDEST PUSH1 0x0 PUSH2 0x295E DUP4 DUP4 PUSH2 0x28CF JUMP JUMPDEST SWAP1 POP SWAP3 SWAP2 POP POP JUMP JUMPDEST PUSH1 0x0 PUSH1 0x20 DUP3 ADD SWAP1 POP SWAP2 SWAP1 POP JUMP JUMPDEST PUSH1 0x0 PUSH2 0x297E DUP3 PUSH2 0x2926 JUMP JUMPDEST PUSH2 0x2988 DUP2 DUP6 PUSH2 0x2931 JUMP JUMPDEST SWAP4 POP DUP4 PUSH1 0x20 DUP3 MUL DUP6 ADD PUSH2 0x299A DUP6 PUSH2 0x2942 JUMP JUMPDEST DUP1 PUSH1 0x0 JUMPDEST DUP6 DUP2 LT ISZERO PUSH2 0x29D6 JUMPI DUP5 DUP5 SUB DUP10 MSTORE DUP2 MLOAD PUSH2 0x29B7 DUP6 DUP3 PUSH2 0x2952 JUMP JUMPDEST SWAP5 POP PUSH2 0x29C2 DUP4 PUSH2 0x2966 JUMP JUMPDEST SWAP3 POP PUSH1 0x20 DUP11 ADD SWAP10 POP POP PUSH1 0x1 DUP2 ADD SWAP1 POP PUSH2 0x299E JUMP JUMPDEST POP DUP3 SWAP8 POP DUP8 SWAP6 POP POP POP POP POP POP SWAP3 SWAP2 POP POP JUMP JUMPDEST PUSH1 0x0 PUSH1 0xA0 DUP4 ADD PUSH1 0x0 DUP4 ADD MLOAD DUP5 DUP3 SUB PUSH1 0x0 DUP7 ADD MSTORE PUSH2 0x2A05 DUP3 DUP3 PUSH2 0x28CF JUMP JUMPDEST SWAP2 POP POP PUSH1 0x20 DUP4 ADD MLOAD PUSH2 0x2A1A PUSH1 0x20 DUP7 ADD DUP3 PUSH2 0x2908 JUMP JUMPDEST POP PUSH1 0x40 DUP4 ADD MLOAD PUSH2 0x2A2D PUSH1 0x40 DUP7 ADD DUP3 PUSH2 0x2917 JUMP JUMPDEST POP PUSH1 0x60 DUP4 ADD MLOAD DUP5 DUP3 SUB PUSH1 0x60 DUP7 ADD MSTORE PUSH2 0x2A45 DUP3 DUP3 PUSH2 0x28CF JUMP JUMPDEST SWAP2 POP POP PUSH1 0x80 DUP4 ADD MLOAD DUP5 DUP3 SUB PUSH1 0x80 DUP7 ADD MSTORE PUSH2 0x2A5F DUP3 DUP3 PUSH2 0x2973 JUMP JUMPDEST SWAP2 POP POP DUP1 SWAP2 POP POP SWAP3 SWAP2 POP POP JUMP JUMPDEST PUSH1 0x0 PUSH1 0x20 DUP3 ADD SWAP1 POP DUP2 DUP2 SUB PUSH1 0x0 DUP4 ADD MSTORE PUSH2 0x2A86 DUP2 DUP5 PUSH2 0x29E8 JUMP JUMPDEST SWAP1 POP SWAP3 SWAP2 POP POP JUMP JUMPDEST PUSH32 0x4E487B7100000000000000000000000000000000000000000000000000000000 PUSH1 0x0 MSTORE PUSH1 0x12 PUSH1 0x4 MSTORE PUSH1 0x24 PUSH1 0x0 REVERT JUMPDEST PUSH1 0x0 PUSH2 0x2AC8 DUP3 PUSH2 0x27F3 JUMP JUMPDEST SWAP2 POP PUSH32 0xFFFFFFFFFFFFFFFFFFFFFFFFFFFFFFFFFFFFFFFFFFFFFFFFFFFFFFFFFFFFFFFF DUP3 SUB PUSH2 0x2AFA JUMPI PUSH2 0x2AF9 PUSH2 0x27FD JUMP JUMPDEST JUMPDEST PUSH1 0x1 DUP3 ADD SWAP1 POP SWAP2 SWAP1 POP JUMP JUMPDEST PUSH1 0x0 PUSH1 0x80 DUP3 ADD SWAP1 POP PUSH2 0x2B1A PUSH1 0x0 DUP4 ADD DUP8 PUSH2 0x22EC JUMP JUMPDEST PUSH2 0x2B27 PUSH1 0x20 DUP4 ADD DUP7 PUSH2 0x22EC JUMP JUMPDEST DUP2 DUP2 SUB PUSH1 0x40 DUP4 ADD MSTORE PUSH2 0x2B39 DUP2 DUP6 PUSH2 0x2460 JUMP JUMPDEST SWAP1 POP DUP2 DUP2 SUB PUSH1 0x60 DUP4 ADD MSTORE PUSH2 0x2B4D DUP2 DUP5 PUSH2 0x2460 JUMP JUMPDEST SWAP1 POP SWAP6 SWAP5 POP POP POP POP POP JUMP JUMPDEST PUSH1 0x0 PUSH2 0x2B63 DUP3 PUSH2 0x2409 JUMP JUMPDEST PUSH2 0x2B6D DUP2 DUP6 PUSH2 0x2739 JUMP JUMPDEST SWAP4 POP PUSH2 0x2B7D DUP2 DUP6 PUSH1 0x20 DUP7 ADD PUSH2 0x2425 JUMP JUMPDEST DUP1 DUP5 ADD SWAP2 POP POP SWAP3 SWAP2 POP POP JUMP JUMPDEST PUSH1 0x0 PUSH2 0x2B95 DUP3 DUP5 PUSH2 0x2B58 JUMP JUMPDEST SWAP2 POP DUP2 SWAP1 POP SWAP3 SWAP2 POP POP JUMP JUMPDEST PUSH32 0x656E63727970743A206661696C65640000000000000000000000000000000000 PUSH1 0x0 DUP3 ADD MSTORE POP JUMP JUMPDEST PUSH1 0x0 PUSH2 0x2BD6 PUSH1 0xF DUP4 PUSH2 0x24C6 JUMP JUMPDEST SWAP2 POP PUSH2 0x2BE1 DUP3 PUSH2 0x2BA0 JUMP JUMPDEST PUSH1 0x20 DUP3 ADD SWAP1 POP SWAP2 SWAP1 POP JUMP JUMPDEST PUSH1 0x0 PUSH1 0x20 DUP3 ADD SWAP1 POP DUP2 DUP2 SUB PUSH1 0x0 DUP4 ADD MSTORE PUSH2 0x2C05 DUP2 PUSH2 0x2BC9 JUMP JUMPDEST SWAP1 POP SWAP2 SWAP1 POP JUMP JUMPDEST PUSH1 0x0 PUSH2 0x2C17 DUP3 PUSH2 0x27F3 JUMP JUMPDEST SWAP2 POP PUSH2 0x2C22 DUP4 PUSH2 0x27F3 JUMP JUMPDEST SWAP3 POP DUP3 DUP3 SUB SWAP1 POP DUP2 DUP2 GT ISZERO PUSH2 0x2C3A JUMPI PUSH2 0x2C39 PUSH2 0x27FD JUMP JUMPDEST JUMPDEST SWAP3 SWAP2 POP POP JUMP JUMPDEST PUSH1 0x0 PUSH2 0x2C4B DUP3 PUSH2 0x27F3 JUMP JUMPDEST SWAP2 POP PUSH2 0x2C56 DUP4 PUSH2 0x27F3 JUMP JUMPDEST SWAP3 POP DUP3 PUSH2 0x2C66 JUMPI PUSH2 0x2C65 PUSH2 0x2A8E JUMP JUMPDEST JUMPDEST DUP3 DUP3 DIV SWAP1 POP SWAP3 SWAP2 POP POP JUMP JUMPDEST PUSH1 0x0 PUSH2 0x2C7C DUP3 PUSH2 0x27F3 JUMP JUMPDEST SWAP2 POP PUSH2 0x2C87 DUP4 PUSH2 0x27F3 JUMP JUMPDEST SWAP3 POP DUP3 DUP3 MUL PUSH2 0x2C95 DUP2 PUSH2 0x27F3 JUMP JUMPDEST SWAP2 POP DUP3 DUP3 DIV DUP5 EQ DUP4 ISZERO OR PUSH2 0x2CAC JUMPI PUSH2 0x2CAB PUSH2 0x27FD JUMP JUMPDEST JUMPDEST POP SWAP3 SWAP2 POP POP JUMP JUMPDEST PUSH1 0x0 PUSH2 0x2CBE DUP3 PUSH2 0x2678 JUMP JUMPDEST SWAP2 POP PUSH2 0x2CC9 DUP4 PUSH2 0x2678 JUMP JUMPDEST SWAP3 POP DUP3 DUP3 MUL PUSH2 0x2CD7 DUP2 PUSH2 0x2678 JUMP JUMPDEST SWAP2 POP DUP1 DUP3 EQ PUSH2 0x2CE9 JUMPI PUSH2 0x2CE8 PUSH2 0x27FD JUMP JUMPDEST JUMPDEST POP SWAP3 SWAP2 POP POP JUMP JUMPDEST PUSH1 0x0 PUSH2 0x2CFB DUP3 PUSH2 0x2678 JUMP JUMPDEST SWAP2 POP PUSH2 0x2D06 DUP4 PUSH2 0x2678 JUMP JUMPDEST SWAP3 POP DUP3 DUP3 ADD SWAP1 POP PUSH1 0xFF DUP2 GT ISZERO PUSH2 0x2D1F JUMPI PUSH2 0x2D1E PUSH2 0x27FD JUMP JUMPDEST JUMPDEST SWAP3 SWAP2 POP POP JUMP JUMPDEST PUSH1 0x0 DUP2 SWAP1 POP PUSH1 0x20 DUP3 ADD SWAP1 POP SWAP2 SWAP1 POP JUMP JUMPDEST PUSH1 0x0 PUSH32 0xFFFFFFFFFFFFFFFFFFFFFFFFFFFFFFFFFFFFFFFF000000000000000000000000 DUP3 AND SWAP1 POP SWAP2 SWAP1 POP JUMP JUMPDEST PUSH1 0x0 PUSH2 0x2D6D DUP3 MLOAD PUSH2 0x2D35 JUMP JUMPDEST DUP1 SWAP2 POP POP SWAP2 SWAP1 POP JUMP JUMPDEST PUSH1 0x0 DUP3 DUP3 SHL SWAP1 POP SWAP3 SWAP2 POP POP JUMP JUMPDEST PUSH1 0x0 PUSH2 0x2D8E DUP3 PUSH2 0x2409 JUMP JUMPDEST DUP3 PUSH2 0x2D98 DUP5 PUSH2 0x2D25 JUMP JUMPDEST SWAP1 POP PUSH2 0x2DA3 DUP2 PUSH2 0x2D61 JUMP JUMPDEST SWAP3 POP PUSH1 0x14 DUP3 LT ISZERO PUSH2 0x2DE3 JUMPI PUSH2 0x2DDE PUSH32 0xFFFFFFFFFFFFFFFFFFFFFFFFFFFFFFFFFFFFFFFF000000000000000000000000 DUP4 PUSH1 0x14 SUB PUSH1 0x8 MUL PUSH2 0x2D76 JUMP JUMPDEST DUP4 AND SWAP3 POP JUMPDEST POP POP SWAP2 SWAP1 POP JUMP JUMPDEST PUSH1 0x0 PUSH2 0x2DF5 DUP3 PUSH2 0x27F3 JUMP JUMPDEST SWAP2 POP PUSH1 0x0 DUP3 SUB PUSH2 0x2E08 JUMPI PUSH2 0x2E07 PUSH2 0x27FD JUMP JUMPDEST JUMPDEST PUSH1 0x1 DUP3 SUB SWAP1 POP SWAP2 SWAP1 POP JUMP JUMPDEST PUSH1 0x0 PUSH2 0xFFFF DUP3 AND SWAP1 POP SWAP2 SWAP1 POP JUMP JUMPDEST PUSH1 0x0 PUSH2 0x2E2C DUP3 PUSH2 0x2E13 JUMP JUMPDEST SWAP2 POP PUSH2 0x2E37 DUP4 PUSH2 0x2E13 JUMP JUMPDEST SWAP3 POP DUP3 DUP3 SUB SWAP1 POP PUSH2 0xFFFF DUP2 GT ISZERO PUSH2 0x2E51 JUMPI PUSH2 0x2E50 PUSH2 0x27FD JUMP JUMPDEST JUMPDEST SWAP3 SWAP2 POP POP JUMP JUMPDEST PUSH1 0x0 PUSH4 0xFFFFFFFF DUP3 AND SWAP1 POP SWAP2 SWAP1 POP JUMP JUMPDEST PUSH1 0x0 PUSH2 0x2E72 DUP3 PUSH2 0x2E57 JUMP JUMPDEST SWAP2 POP PUSH2 0x2E7D DUP4 PUSH2 0x2E57 JUMP JUMPDEST SWAP3 POP DUP3 DUP3 MUL PUSH2 0x2E8B DUP2 PUSH2 0x2E57 JUMP JUMPDEST SWAP2 POP DUP1 DUP3 EQ PUSH2 0x2E9D JUMPI PUSH2 0x2E9C PUSH2 0x27FD JUMP JUMPDEST JUMPDEST POP SWAP3 SWAP2 POP POP JUMP JUMPDEST PUSH1 0x0 PUSH2 0x2EAF DUP3 PUSH2 0x2678 JUMP JUMPDEST SWAP2 POP PUSH2 0x2EBA DUP4 PUSH2 0x2678 JUMP JUMPDEST SWAP3 POP DUP3 DUP3 SUB SWAP1 POP PUSH1 0xFF DUP2 GT ISZERO PUSH2 0x2ED3 JUMPI PUSH2 0x2ED2 PUSH2 0x27FD JUMP JUMPDEST JUMPDEST SWAP3 SWAP2 POP POP JUMP JUMPDEST PUSH1 0x0 PUSH2 0x2EE4 DUP3 PUSH2 0x2E13 JUMP JUMPDEST SWAP2 POP PUSH2 0x2EEF DUP4 PUSH2 0x2E13 JUMP JUMPDEST SWAP3 POP DUP3 DUP3 MUL PUSH2 0x2EFD DUP2 PUSH2 0x2E13 JUMP JUMPDEST SWAP2 POP DUP1 DUP3 EQ PUSH2 0x2F0F JUMPI PUSH2 0x2F0E PUSH2 0x27FD JUMP JUMPDEST JUMPDEST POP SWAP3 SWAP2 POP POP JUMP JUMPDEST PUSH1 0x0 PUSH2 0x2F21 DUP3 PUSH2 0x2E13 JUMP JUMPDEST SWAP2 POP PUSH2 0x2F2C DUP4 PUSH2 0x2E13 JUMP JUMPDEST SWAP3 POP DUP3 PUSH2 0x2F3C JUMPI PUSH2 0x2F3B PUSH2 0x2A8E JUMP JUMPDEST JUMPDEST DUP3 DUP3 MOD SWAP1 POP SWAP3 SWAP2 POP POP JUMP INVALID LOG2 PUSH5 0x6970667358 0x22 SLT KECCAK256 STOP ADD STOP TSTORE PUSH24 0x2EAB75BA580A83857806A8C43A4A46AC57002F3D7FCA0116 0xB8 POP MOD PUSH5 0x736F6C6343 STOP ADDMOD XOR STOP CALLER "
		},
		"gasEstimates": {
			"creation": {
				"codeDepositCost": "2431400",
				"executionCost": "infinite",
				"totalCost": "infinite"
			},
			"external": {
				"author()": "2558",
				"domain()": "infinite",
				"getEnclavePCR0()": "2437",
				"jwtIssuer()": "2492",
				"login(string,(bytes32,bytes32,uint256))": "infinite",
				"updateEnclavePCR0(bytes32)": "22608"
			}
		},
		"methodIdentifiers": {
			"author()": "a6c3e6b9",
			"domain()": "c2fb26a6",
			"getEnclavePCR0()": "3ab9d858",
			"jwtIssuer()": "1bf6085b",
			"login(string,(bytes32,bytes32,uint256))": "7f476b6f",
			"updateEnclavePCR0(bytes32)": "e65e6de9"
		}
	},
	"abi": [
		{
			"inputs": [
				{
					"internalType": "string",
					"name": "domain",
					"type": "string"
				}
			],
			"stateMutability": "nonpayable",
			"type": "constructor"
		},
		{
			"inputs": [],
			"name": "A13e_RevokedAuthToken",
			"type": "error"
		},
		{
			"inputs": [],
			"name": "SiweAuth_AddressMismatch",
			"type": "error"
		},
		{
			"inputs": [],
			"name": "SiweAuth_ChainIdMismatch",
			"type": "error"
		},
		{
			"inputs": [],
			"name": "SiweAuth_DomainMismatch",
			"type": "error"
		},
		{
			"inputs": [],
			"name": "SiweAuth_Expired",
			"type": "error"
		},
		{
			"inputs": [],
			"name": "SiweAuth_NotBeforeInFuture",
			"type": "error"
		},
		{
			"inputs": [],
			"name": "SiweParser_InvalidAddressLength",
			"type": "error"
		},
		{
			"inputs": [],
			"name": "SiweParser_InvalidNonce",
			"type": "error"
		},
		{
			"anonymous": false,
			"inputs": [
				{
					"indexed": true,
					"internalType": "address",
					"name": "user",
					"type": "address"
				},
				{
					"indexed": true,
					"internalType": "bytes32",
					"name": "eventHash",
					"type": "bytes32"
				}
			],
			"name": "NostrSigned",
			"type": "event"
		},
		{
			"inputs": [],
			"name": "author",
			"outputs": [
				{
					"internalType": "address",
					"name": "",
					"type": "address"
				}
			],
			"stateMutability": "view",
			"type": "function"
		},
		{
			"inputs": [],
			"name": "domain",
			"outputs": [
				{
					"internalType": "string",
					"name": "",
					"type": "string"
				}
			],
			"stateMutability": "view",
			"type": "function"
		},
		{
			"inputs": [],
			"name": "getEnclavePCR0",
			"outputs": [
				{
					"internalType": "bytes32",
					"name": "",
					"type": "bytes32"
				}
			],
			"stateMutability": "view",
			"type": "function"
		},
		{
			"inputs": [],
			"name": "jwtIssuer",
			"outputs": [
				{
					"internalType": "address",
					"name": "",
					"type": "address"
				}
			],
			"stateMutability": "view",
			"type": "function"
		},
		{
			"inputs": [
				{
					"internalType": "string",
					"name": "siweMsg",
					"type": "string"
				},
				{
					"components": [
						{
							"internalType": "bytes32",
							"name": "r",
							"type": "bytes32"
						},
						{
							"internalType": "bytes32",
							"name": "s",
							"type": "bytes32"
						},
						{
							"internalType": "uint256",
							"name": "v",
							"type": "uint256"
						}
					],
					"internalType": "struct SignatureRSV",
					"name": "sig",
					"type": "tuple"
				}
			],
			"name": "login",
			"outputs": [
				{
					"internalType": "bytes",
					"name": "",
					"type": "bytes"
				}
			],
			"stateMutability": "view",
			"type": "function"
		},
		{
			"inputs": [
				{
					"internalType": "bytes32",
					"name": "enclavePCR",
					"type": "bytes32"
				}
			],
			"name": "updateEnclavePCR0",
			"outputs": [],
			"stateMutability": "nonpayable",
			"type": "function"
		}
	]
}