{
	"data": {
		"bytecode": {
			"linkReferences": {},
			"object": "608060405234801561001057600080fd5b506111a8806100206000396000f3fe60806040523480156200001157600080fd5b50600436106200003a5760003560e01c80636517579c146200003f5780637d23a4671462000075575b600080fd5b6200005d600480360381019062000057919062000318565b620000ab565b6040516200006c91906200038f565b60405180910390f35b6200009360048036038101906200008d91906200041a565b620000e7565b604051620000a291906200038f565b60405180910390f35b600080600083815260200190815260200160002060009054906101000a900473ffffffffffffffffffffffffffffffffffffffff169050919050565b60008073ffffffffffffffffffffffffffffffffffffffff1660008086815260200190815260200160002060009054906101000a900473ffffffffffffffffffffffffffffffffffffffff1673ffffffffffffffffffffffffffffffffffffffff16146200018c576040517f08c379a00000000000000000000000000000000000000000000000000000000081526004016200018390620004e5565b60405180910390fd5b60008484846040516200019f90620002c5565b620001ad939291906200059a565b604051809103906000f080158015620001ca573d6000803e3d6000fd5b5090508073ffffffffffffffffffffffffffffffffffffffff16638129fc1c6040518163ffffffff1660e01b8152600401600060405180830381600087803b1580156200021657600080fd5b505af11580156200022b573d6000803e3d6000fd5b505050508060008087815260200190815260200160002060006101000a81548173ffffffffffffffffffffffffffffffffffffffff021916908373ffffffffffffffffffffffffffffffffffffffff160217905550847fc3255cfde9a7a1cd889cf998a48506b2719cb1312ff3879b5722f24c21708ef382604051620002b291906200038f565b60405180910390a2809150509392505050565b610ba280620005d183390190565b600080fd5b600080fd5b6000819050919050565b620002f281620002dd565b8114620002fe57600080fd5b50565b6000813590506200031281620002e7565b92915050565b600060208284031215620003315762000330620002d3565b5b6000620003418482850162000301565b91505092915050565b600073ffffffffffffffffffffffffffffffffffffffff82169050919050565b600062000377826200034a565b9050919050565b62000389816200036a565b82525050565b6000602082019050620003a660008301846200037e565b92915050565b600080fd5b600080fd5b600080fd5b60008083601f840112620003d457620003d3620003ac565b5b8235905067ffffffffffffffff811115620003f457620003f3620003b1565b5b602083019150836020820283011115620004135762000412620003b6565b5b9250929050565b600080600060408486031215620004365762000435620002d3565b5b6000620004468682870162000301565b935050602084013567ffffffffffffffff8111156200046a5762000469620002d8565b5b6200047886828701620003bb565b92509250509250925092565b600082825260208201905092915050565b7f555345525f455849535453000000000000000000000000000000000000000000600082015250565b6000620004cd600b8362000484565b9150620004da8262000495565b602082019050919050565b600060208201905081810360008301526200050081620004be565b9050919050565b6200051281620002dd565b82525050565b600082825260208201905092915050565b600080fd5b82818337505050565b600062000545838562000518565b93507f07ffffffffffffffffffffffffffffffffffffffffffffffffffffffffffffff8311156200057b576200057a62000529565b5b6020830292506200058e8385846200052e565b82840190509392505050565b6000604082019050620005b1600083018662000507565b8181036020830152620005c681848662000537565b905094935050505056fe60c06040523480156200001157600080fd5b5060405162000ba238038062000ba28339818101604052810190620000379190620002a4565b3373ffffffffffffffffffffffffffffffffffffffff1660808173ffffffffffffffffffffffffffffffffffffffff16815250508160a0818152505060005b8151811015620000d7576001600260008484815181106200009c576200009b6200030a565b5b6020026020010151815260200190815260200160002060006101000a81548160ff021916908315150217905550808060010191505062000076565b50505062000339565b6000604051905090565b600080fd5b600080fd5b6000819050919050565b6200010981620000f4565b81146200011557600080fd5b50565b6000815190506200012981620000fe565b92915050565b600080fd5b6000601f19601f8301169050919050565b7f4e487b7100000000000000000000000000000000000000000000000000000000600052604160045260246000fd5b6200017f8262000134565b810181811067ffffffffffffffff82111715620001a157620001a062000145565b5b80604052505050565b6000620001b6620000e0565b9050620001c4828262000174565b919050565b600067ffffffffffffffff821115620001e757620001e662000145565b5b602082029050602081019050919050565b600080fd5b6000620002146200020e84620001c9565b620001aa565b905080838252602082019050602084028301858111156200023a5762000239620001f8565b5b835b8181101562000267578062000252888262000118565b8452602084019350506020810190506200023c565b5050509392505050565b600082601f8301126200028957620002886200012f565b5b81516200029b848260208601620001fd565b91505092915050565b60008060408385031215620002be57620002bd620000ea565b5b6000620002ce8582860162000118565b925050602083015167ffffffffffffffff811115620002f257620002f1620000ef565b5b620003008582860162000271565b9150509250929050565b7f4e487b7100000000000000000000000000000000000000000000000000000000600052603260045260246000fd5b60805160a05161083c6200036660003960006101cf01526000818161020d0152610422015261083c6000f3fe608060405234801561001057600080fd5b50600436106100935760003560e01c80638129fc1c116100665780638129fc1c1461011057806399fe26281461011a578063af596c991461014a578063c45a015514610166578063d071cb0f1461018457610093565b8063158ef93e146100985780631dc5b2d8146100b657806336cb8477146100d4578063476b4364146100f2575b600080fd5b6100a06101b4565b6040516100ad919061047f565b60405180910390f35b6100be6101c7565b6040516100cb91906104b3565b60405180910390f35b6100dc6101cd565b6040516100e991906104b3565b60405180910390f35b6100fa6101f1565b60405161010791906104f1565b60405180910390f35b61011861020b565b005b610134600480360381019061012f919061053d565b610306565b604051610141919061047f565b60405180910390f35b610164600480360381019061015f9190610596565b61033f565b005b61016e610420565b60405161017b919061062a565b60405180910390f35b61019e6004803603810190610199919061053d565b610444565b6040516101ab919061047f565b60405180910390f35b600360009054906101000a900460ff1681565b60005481565b7f000000000000000000000000000000000000000000000000000000000000000081565b600160009054906101000a900467ffffffffffffffff1681565b7f000000000000000000000000000000000000000000000000000000000000000073ffffffffffffffffffffffffffffffffffffffff163373ffffffffffffffffffffffffffffffffffffffff1614610299576040517f08c379a0000000000000000000000000000000000000000000000000000000008152600401610290906106a2565b60405180910390fd5b600360009054906101000a900460ff16156102e9576040517f08c379a00000000000000000000000000000000000000000000000000000000081526004016102e09061070e565b60405180910390fd5b6001600360006101000a81548160ff021916908315150217905550565b6000816000541480156103385750600160009054906101000a900467ffffffffffffffff1667ffffffffffffffff1642105b9050919050565b6002600082815260200190815260200160002060009054906101000a900460ff1661039f576040517f08c379a00000000000000000000000000000000000000000000000000000000081526004016103969061077a565b60405180910390fd5b8167ffffffffffffffff1642106103eb576040517f08c379a00000000000000000000000000000000000000000000000000000000081526004016103e2906107e6565b60405180910390fd5b8260008190555081600160006101000a81548167ffffffffffffffff021916908367ffffffffffffffff160217905550505050565b7f000000000000000000000000000000000000000000000000000000000000000081565b60026020528060005260406000206000915054906101000a900460ff1681565b60008115159050919050565b61047981610464565b82525050565b60006020820190506104946000830184610470565b92915050565b6000819050919050565b6104ad8161049a565b82525050565b60006020820190506104c860008301846104a4565b92915050565b600067ffffffffffffffff82169050919050565b6104eb816104ce565b82525050565b600060208201905061050660008301846104e2565b92915050565b600080fd5b61051a8161049a565b811461052557600080fd5b50565b60008135905061053781610511565b92915050565b6000602082840312156105535761055261050c565b5b600061056184828501610528565b91505092915050565b610573816104ce565b811461057e57600080fd5b50565b6000813590506105908161056a565b92915050565b6000806000606084860312156105af576105ae61050c565b5b60006105bd86828701610528565b93505060206105ce86828701610581565b92505060406105df86828701610528565b9150509250925092565b600073ffffffffffffffffffffffffffffffffffffffff82169050919050565b6000610614826105e9565b9050919050565b61062481610609565b82525050565b600060208201905061063f600083018461061b565b92915050565b600082825260208201905092915050565b7f4e4f545f464143544f5259000000000000000000000000000000000000000000600082015250565b600061068c600b83610645565b915061069782610656565b602082019050919050565b600060208201905081810360008301526106bb8161067f565b9050919050565b7f414c52454144595f494e49540000000000000000000000000000000000000000600082015250565b60006106f8600c83610645565b9150610703826106c2565b602082019050919050565b60006020820190508181036000830152610727816106eb565b9050919050565b7f504352305f4e4f545f414c4c4f57454400000000000000000000000000000000600082015250565b6000610764601083610645565b915061076f8261072e565b602082019050919050565b6000602082019050818103600083015261079381610757565b9050919050565b7f4558504952454400000000000000000000000000000000000000000000000000600082015250565b60006107d0600783610645565b91506107db8261079a565b602082019050919050565b600060208201905081810360008301526107ff816107c3565b905091905056fea264697066735822122010c3050db4207f8dbe7d4debc4f9f9ceec381c41f9082a0ba02102b8b9053ea564736f6c63430008180033a26469706673582212204c0a1781d450eb7357fb33699d834799de53517d251147125455c0754dccfb5e64736f6c63430008180033",
			"opcodes": "PUSH1 0x80 PUSH1 0x40 MSTORE CALLVALUE DUP1 ISZERO PUSH2 0x10 JUMPI PUSH1 0x0 DUP1 REVERT JUMPDEST POP PUSH2 0x11A8 DUP1 PUSH2 0x20 PUSH1 0x0 CODECOPY PUSH1 0x0 RETURN INVALID PUSH1 0x80 PUSH1 0x40 MSTORE CALLVALUE DUP1 ISZERO PUSH3 0x11 JUMPI PUSH1 0x0 DUP1 REVERT JUMPDEST POP PUSH1 0x4 CALLDATASIZE LT PUSH3 0x3A JUMPI PUSH1 0x0 CALLDATALOAD PUSH1 0xE0 SHR DUP1 PUSH4 0x6517579C EQ PUSH3 0x3F JUMPI DUP1 PUSH4 0x7D23A467 EQ PUSH3 0x75 JUMPI JUMPDEST PUSH1 0x0 DUP1 REVERT JUMPDEST PUSH3 0x5D PUSH1 0x4 DUP1 CALLDATASIZE SUB DUP2 ADD SWAP1 PUSH3 0x57 SWAP2 SWAP1 PUSH3 0x318 JUMP JUMPDEST PUSH3 0xAB JUMP JUMPDEST PUSH1 0x40 MLOAD PUSH3 0x6C SWAP2 SWAP1 PUSH3 0x38F JUMP JUMPDEST PUSH1 0x40 MLOAD DUP1 SWAP2 SUB SWAP1 RETURN JUMPDEST PUSH3 0x93 PUSH1 0x4 DUP1 CALLDATASIZE SUB DUP2 ADD SWAP1 PUSH3 0x8D SWAP2 SWAP1 PUSH3 0x41A JUMP JUMPDEST PUSH3 0xE7 JUMP JUMPDEST PUSH1 0x40 MLOAD PUSH3 0xA2 SWAP2 SWAP1 PUSH3 0x38F JUMP JUMPDEST PUSH1 0x40 MLOAD DUP1 SWAP2 SUB SWAP1 RETURN JUMPDEST PUSH1 0x0 DUP1 PUSH1 0x0 DUP4 DUP2 MSTORE PUSH1 0x20 ADD SWAP1 DUP2 MSTORE PUSH1 0x20 ADD PUSH1 0x0 KECCAK256 PUSH1 0x0 SWAP1 SLOAD SWAP1 PUSH2 0x100 EXP SWAP1 DIV PUSH20 0xFFFFFFFFFFFFFFFFFFFFFFFFFFFFFFFFFFFFFFFF AND SWAP1 POP SWAP2 SWAP1 POP JUMP JUMPDEST PUSH1 0x0 DUP1 PUSH20 0xFFFFFFFFFFFFFFFFFFFFFFFFFFFFFFFFFFFFFFFF AND PUSH1 0x0 DUP1 DUP7 DUP2 MSTORE PUSH1 0x20 ADD SWAP1 DUP2 MSTORE PUSH1 0x20 ADD PUSH1 0x0 KECCAK256 PUSH1 0x0 SWAP1 SLOAD SWAP1 PUSH2 0x100 EXP SWAP1 DIV PUSH20 0xFFFFFFFFFFFFFFFFFFFFFFFFFFFFFFFFFFFFFFFF AND PUSH20 0xFFFFFFFFFFFFFFFFFFFFFFFFFFFFFFFFFFFFFFFF AND EQ PUSH3 0x18C JUMPI PUSH1 0x40 MLOAD PUSH32 0x8C379A000000000000000000000000000000000000000000000000000000000 DUP2 MSTORE PUSH1 0x4 ADD PUSH3 0x183 SWAP1 PUSH3 0x4E5 JUMP JUMPDEST PUSH1 0x40 MLOAD DUP1 SWAP2 SUB SWAP1 REVERT JUMPDEST PUSH1 0x0 DUP5 DUP5 DUP5 PUSH1 0x40 MLOAD PUSH3 0x19F SWAP1 PUSH3 0x2C5 JUMP JUMPDEST PUSH3 0x1AD SWAP4 SWAP3 SWAP2 SWAP1 PUSH3 0x59A JUMP JUMPDEST PUSH1 0x40 MLOAD DUP1 SWAP2 SUB SWAP1 PUSH1 0x0 CREATE DUP1 ISZERO DUP1 ISZERO PUSH3 0x1CA JUMPI RETURNDATASIZE PUSH1 0x0 DUP1 RETURNDATACOPY RETURNDATASIZE PUSH1 0x0 REVERT JUMPDEST POP SWAP1 POP DUP1 PUSH20 0xFFFFFFFFFFFFFFFFFFFFFFFFFFFFFFFFFFFFFFFF AND PUSH4 0x8129FC1C PUSH1 0x40 MLOAD DUP2 PUSH4 0xFFFFFFFF AND PUSH1 0xE0 SHL DUP2 MSTORE PUSH1 0x4 ADD PUSH1 0x0 PUSH1 0x40 MLOAD DUP1 DUP4 SUB DUP2 PUSH1 0x0 DUP8 DUP1 EXTCODESIZE ISZERO DUP1 ISZERO PUSH3 0x216 JUMPI PUSH1 0x0 DUP1 REVERT JUMPDEST POP GAS CALL ISZERO DUP1 ISZERO PUSH3 0x22B JUMPI RETURNDATASIZE PUSH1 0x0 DUP1 RETURNDATACOPY RETURNDATASIZE PUSH1 0x0 REVERT JUMPDEST POP POP POP POP DUP1 PUSH1 0x0 DUP1 DUP8 DUP2 MSTORE PUSH1 0x20 ADD SWAP1 DUP2 MSTORE PUSH1 0x20 ADD PUSH1 0x0 KECCAK256 PUSH1 0x0 PUSH2 0x100 EXP DUP2 SLOAD DUP2 PUSH20 0xFFFFFFFFFFFFFFFFFFFFFFFFFFFFFFFFFFFFFFFF MUL NOT AND SWAP1 DUP4 PUSH20 0xFFFFFFFFFFFFFFFFFFFFFFFFFFFFFFFFFFFFFFFF AND MUL OR SWAP1 SSTORE POP DUP5 PUSH32 0xC3255CFDE9A7A1CD889CF998A48506B2719CB1312FF3879B5722F24C21708EF3 DUP3 PUSH1 0x40 MLOAD PUSH3 0x2B2 SWAP2 SWAP1 PUSH3 0x38F JUMP JUMPDEST PUSH1 0x40 MLOAD DUP1 SWAP2 SUB SWAP1 LOG2 DUP1 SWAP2 POP POP SWAP4 SWAP3 POP POP POP JUMP JUMPDEST PUSH2 0xBA2 DUP1 PUSH3 0x5D1 DUP4 CODECOPY ADD SWAP1 JUMP JUMPDEST PUSH1 0x0 DUP1 REVERT JUMPDEST PUSH1 0x0 DUP1 REVERT JUMPDEST PUSH1 0x0 DUP2 SWAP1 POP SWAP2 SWAP1 POP JUMP JUMPDEST PUSH3 0x2F2 DUP2 PUSH3 0x2DD JUMP JUMPDEST DUP2 EQ PUSH3 0x2FE JUMPI PUSH1 0x0 DUP1 REVERT JUMPDEST POP JUMP JUMPDEST PUSH1 0x0 DUP2 CALLDATALOAD SWAP1 POP PUSH3 0x312 DUP2 PUSH3 0x2E7 JUMP JUMPDEST SWAP3 SWAP2 POP POP JUMP JUMPDEST PUSH1 0x0 PUSH1 0x20 DUP3 DUP5 SUB SLT ISZERO PUSH3 0x331 JUMPI PUSH3 0x330 PUSH3 0x2D3 JUMP JUMPDEST JUMPDEST PUSH1 0x0 PUSH3 0x341 DUP5 DUP3 DUP6 ADD PUSH3 0x301 JUMP JUMPDEST SWAP2 POP POP SWAP3 SWAP2 POP POP JUMP JUMPDEST PUSH1 0x0 PUSH20 0xFFFFFFFFFFFFFFFFFFFFFFFFFFFFFFFFFFFFFFFF DUP3 AND SWAP1 POP SWAP2 SWAP1 POP JUMP JUMPDEST PUSH1 0x0 PUSH3 0x377 DUP3 PUSH3 0x34A JUMP JUMPDEST SWAP1 POP SWAP2 SWAP1 POP JUMP JUMPDEST PUSH3 0x389 DUP2 PUSH3 0x36A JUMP JUMPDEST DUP3 MSTORE POP POP JUMP JUMPDEST PUSH1 0x0 PUSH1 0x20 DUP3 ADD SWAP1 POP PUSH3 0x3A6 PUSH1 0x0 DUP4 ADD DUP5 PUSH3 0x37E JUMP JUMPDEST SWAP3 SWAP2 POP POP JUMP JUMPDEST PUSH1 0x0 DUP1 REVERT JUMPDEST PUSH1 0x0 DUP1 REVERT JUMPDEST PUSH1 0x0 DUP1 REVERT JUMPDEST PUSH1 0x0 DUP1 DUP4 PUSH1 0x1F DUP5 ADD SLT PUSH3 0x3D4 JUMPI PUSH3 0x3D3 PUSH3 0x3AC JUMP JUMPDEST JUMPDEST DUP3 CALLDATALOAD SWAP1 POP PUSH8 0xFFFFFFFFFFFFFFFF DUP2 GT ISZERO PUSH3 0x3F4 JUMPI PUSH3 0x3F3 PUSH3 0x3B1 JUMP JUMPDEST JUMPDEST PUSH1 0x20 DUP4 ADD SWAP2 POP DUP4 PUSH1 0x20 DUP3 MUL DUP4 ADD GT ISZERO PUSH3 0x413 JUMPI PUSH3 0x412 PUSH3 0x3B6 JUMP JUMPDEST JUMPDEST SWAP3 POP SWAP3 SWAP1 POP JUMP JUMPDEST PUSH1 0x0 DUP1 PUSH1 0x0 PUSH1 0x40 DUP5 DUP7 SUB SLT ISZERO PUSH3 0x436 JUMPI PUSH3 0x435 PUSH3 0x2D3 JUMP JUMPDEST JUMPDEST PUSH1 0x0 PUSH3 0x446 DUP7 DUP3 DUP8 ADD PUSH3 0x301 JUMP JUMPDEST SWAP4 POP POP PUSH1 0x20 DUP5 ADD CALLDATALOAD PUSH8 0xFFFFFFFFFFFFFFFF DUP2 GT ISZERO PUSH3 0x46A JUMPI PUSH3 0x469 PUSH3 0x2D8 JUMP JUMPDEST JUMPDEST PUSH3 0x478 DUP7 DUP3 DUP8 ADD PUSH3 0x3BB JUMP JUMPDEST SWAP3 POP SWAP3 POP POP SWAP3 POP SWAP3 POP SWAP3 JUMP JUMPDEST PUSH1 0x0 DUP3 DUP3 MSTORE PUSH1 0x20 DUP3 ADD SWAP1 POP SWAP3 SWAP2 POP POP JUMP JUMPDEST PUSH32 0x555345525F455849535453000000000000000000000000000000000000000000 PUSH1 0x0 DUP3 ADD MSTORE POP JUMP JUMPDEST PUSH1 0x0 PUSH3 0x4CD PUSH1 0xB DUP4 PUSH3 0x484 JUMP JUMPDEST SWAP2 POP PUSH3 0x4DA DUP3 PUSH3 0x495 JUMP JUMPDEST PUSH1 0x20 DUP3 ADD SWAP1 POP SWAP2 SWAP1 POP JUMP JUMPDEST PUSH1 0x0 PUSH1 0x20 DUP3 ADD SWAP1 POP DUP2 DUP2 SUB PUSH1 0x0 DUP4 ADD MSTORE PUSH3 0x500 DUP2 PUSH3 0x4BE JUMP JUMPDEST SWAP1 POP SWAP2 SWAP1 POP JUMP JUMPDEST PUSH3 0x512 DUP2 PUSH3 0x2DD JUMP JUMPDEST DUP3 MSTORE POP POP JUMP JUMPDEST PUSH1 0x0 DUP3 DUP3 MSTORE PUSH1 0x20 DUP3 ADD SWAP1 POP SWAP3 SWAP2 POP POP JUMP JUMPDEST PUSH1 0x0 DUP1 REVERT JUMPDEST DUP3 DUP2 DUP4 CALLDATACOPY POP POP POP JUMP JUMPDEST PUSH1 0x0 PUSH3 0x545 DUP4 DUP6 PUSH3 0x518 JUMP JUMPDEST SWAP4 POP PUSH32 0x7FFFFFFFFFFFFFFFFFFFFFFFFFFFFFFFFFFFFFFFFFFFFFFFFFFFFFFFFFFFFFF DUP4 GT ISZERO PUSH3 0x57B JUMPI PUSH3 0x57A PUSH3 0x529 JUMP JUMPDEST JUMPDEST PUSH1 0x20 DUP4 MUL SWAP3 POP PUSH3 0x58E DUP4 DUP6 DUP5 PUSH3 0x52E JUMP JUMPDEST DUP3 DUP5 ADD SWAP1 POP SWAP4 SWAP3 POP POP POP JUMP JUMPDEST PUSH1 0x0 PUSH1 0x40 DUP3 ADD SWAP1 POP PUSH3 0x5B1 PUSH1 0x0 DUP4 ADD DUP7 PUSH3 0x507 JUMP JUMPDEST DUP2 DUP2 SUB PUSH1 0x20 DUP4 ADD MSTORE PUSH3 0x5C6 DUP2 DUP5 DUP7 PUSH3 0x537 JUMP JUMPDEST SWAP1 POP SWAP5 SWAP4 POP POP POP POP JUMP INVALID PUSH1 0xC0 PUSH1 0x40 MSTORE CALLVALUE DUP1 ISZERO PUSH3 0x11 JUMPI PUSH1 0x0 DUP1 REVERT JUMPDEST POP PUSH1 0x40 MLOAD PUSH3 0xBA2 CODESIZE SUB DUP1 PUSH3 0xBA2 DUP4 CODECOPY DUP2 DUP2 ADD PUSH1 0x40 MSTORE DUP2 ADD SWAP1 PUSH3 0x37 SWAP2 SWAP1 PUSH3 0x2A4 JUMP JUMPDEST CALLER PUSH20 0xFFFFFFFFFFFFFFFFFFFFFFFFFFFFFFFFFFFFFFFF AND PUSH1 0x80 DUP2 PUSH20 0xFFFFFFFFFFFFFFFFFFFFFFFFFFFFFFFFFFFFFFFF AND DUP2 MSTORE POP POP DUP2 PUSH1 0xA0 DUP2 DUP2 MSTORE POP POP PUSH1 0x0 JUMPDEST DUP2 MLOAD DUP2 LT ISZERO PUSH3 0xD7 JUMPI PUSH1 0x1 PUSH1 0x2 PUSH1 0x0 DUP5 DUP5 DUP2 MLOAD DUP2 LT PUSH3 0x9C JUMPI PUSH3 0x9B PUSH3 0x30A JUMP JUMPDEST JUMPDEST PUSH1 0x20 MUL PUSH1 0x20 ADD ADD MLOAD DUP2 MSTORE PUSH1 0x20 ADD SWAP1 DUP2 MSTORE PUSH1 0x20 ADD PUSH1 0x0 KECCAK256 PUSH1 0x0 PUSH2 0x100 EXP DUP2 SLOAD DUP2 PUSH1 0xFF MUL NOT AND SWAP1 DUP4 ISZERO ISZERO MUL OR SWAP1 SSTORE POP DUP1 DUP1 PUSH1 0x1 ADD SWAP2 POP POP PUSH3 0x76 JUMP JUMPDEST POP POP POP PUSH3 0x339 JUMP JUMPDEST PUSH1 0x0 PUSH1 0x40 MLOAD SWAP1 POP SWAP1 JUMP JUMPDEST PUSH1 0x0 DUP1 REVERT JUMPDEST PUSH1 0x0 DUP1 REVERT JUMPDEST PUSH1 0x0 DUP2 SWAP1 POP SWAP2 SWAP1 POP JUMP JUMPDEST PUSH3 0x109 DUP2 PUSH3 0xF4 JUMP JUMPDEST DUP2 EQ PUSH3 0x115 JUMPI PUSH1 0x0 DUP1 REVERT JUMPDEST POP JUMP JUMPDEST PUSH1 0x0 DUP2 MLOAD SWAP1 POP PUSH3 0x129 DUP2 PUSH3 0xFE JUMP JUMPDEST SWAP3 SWAP2 POP POP JUMP JUMPDEST PUSH1 0x0 DUP1 REVERT JUMPDEST PUSH1 0x0 PUSH1 0x1F NOT PUSH1 0x1F DUP4 ADD AND SWAP1 POP SWAP2 SWAP1 POP JUMP JUMPDEST PUSH32 0x4E487B7100000000000000000000000000000000000000000000000000000000 PUSH1 0x0 MSTORE PUSH1 0x41 PUSH1 0x4 MSTORE PUSH1 0x24 PUSH1 0x0 REVERT JUMPDEST PUSH3 0x17F DUP3 PUSH3 0x134 JUMP JUMPDEST DUP2 ADD DUP2 DUP2 LT PUSH8 0xFFFFFFFFFFFFFFFF DUP3 GT OR ISZERO PUSH3 0x1A1 JUMPI PUSH3 0x1A0 PUSH3 0x145 JUMP JUMPDEST JUMPDEST DUP1 PUSH1 0x40 MSTORE POP POP POP JUMP JUMPDEST PUSH1 0x0 PUSH3 0x1B6 PUSH3 0xE0 JUMP JUMPDEST SWAP1 POP PUSH3 0x1C4 DUP3 DUP3 PUSH3 0x174 JUMP JUMPDEST SWAP2 SWAP1 POP JUMP JUMPDEST PUSH1 0x0 PUSH8 0xFFFFFFFFFFFFFFFF DUP3 GT ISZERO PUSH3 0x1E7 JUMPI PUSH3 0x1E6 PUSH3 0x145 JUMP JUMPDEST JUMPDEST PUSH1 0x20 DUP3 MUL SWAP1 POP PUSH1 0x20 DUP2 ADD SWAP1 POP SWAP2 SWAP1 POP JUMP JUMPDEST PUSH1 0x0 DUP1 REVERT JUMPDEST PUSH1 0x0 PUSH3 0x214 PUSH3 0x20E DUP5 PUSH3 0x1C9 JUMP JUMPDEST PUSH3 0x1AA JUMP JUMPDEST SWAP1 POP DUP1 DUP4 DUP3 MSTORE PUSH1 0x20 DUP3 ADD SWAP1 POP PUSH1 0x20 DUP5 MUL DUP4 ADD DUP6 DUP2 GT ISZERO PUSH3 0x23A JUMPI PUSH3 0x239 PUSH3 0x1F8 JUMP JUMPDEST JUMPDEST DUP4 JUMPDEST DUP2 DUP2 LT ISZERO PUSH3 0x267 JUMPI DUP1 PUSH3 0x252 DUP9 DUP3 PUSH3 0x118 JUMP JUMPDEST DUP5 MSTORE PUSH1 0x20 DUP5 ADD SWAP4 POP POP PUSH1 0x20 DUP2 ADD SWAP1 POP PUSH3 0x23C JUMP JUMPDEST POP POP POP SWAP4 SWAP3 POP POP POP JUMP JUMPDEST PUSH1 0x0 DUP3 PUSH1 0x1F DUP4 ADD SLT PUSH3 0x289 JUMPI PUSH3 0x288 PUSH3 0x12F JUMP JUMPDEST JUMPDEST DUP2 MLOAD PUSH3 0x29B DUP5 DUP3 PUSH1 0x20 DUP7 ADD PUSH3 0x1FD JUMP JUMPDEST SWAP2 POP POP SWAP3 SWAP2 POP POP JUMP JUMPDEST PUSH1 0x0 DUP1 PUSH1 0x40 DUP4 DUP6 SUB SLT ISZERO PUSH3 0x2BE JUMPI PUSH3 0x2BD PUSH3 0xEA JUMP JUMPDEST JUMPDEST PUSH1 0x0 PUSH3 0x2CE DUP6 DUP3 DUP7 ADD PUSH3 0x118 JUMP JUMPDEST SWAP3 POP POP PUSH1 0x20 DUP4 ADD MLOAD PUSH8 0xFFFFFFFFFFFFFFFF DUP2 GT ISZERO PUSH3 0x2F2 JUMPI PUSH3 0x2F1 PUSH3 0xEF JUMP JUMPDEST JUMPDEST PUSH3 0x300 DUP6 DUP3 DUP7 ADD PUSH3 0x271 JUMP JUMPDEST SWAP2 POP POP SWAP3 POP SWAP3 SWAP1 POP JUMP JUMPDEST PUSH32 0x4E487B7100000000000000000000000000000000000000000000000000000000 PUSH1 0x0 MSTORE PUSH1 0x32 PUSH1 0x4 MSTORE PUSH1 0x24 PUSH1 0x0 REVERT JUMPDEST PUSH1 0x80 MLOAD PUSH1 0xA0 MLOAD PUSH2 0x83C PUSH3 0x366 PUSH1 0x0 CODECOPY PUSH1 0x0 PUSH2 0x1CF ADD MSTORE PUSH1 0x0 DUP2 DUP2 PUSH2 0x20D ADD MSTORE PUSH2 0x422 ADD MSTORE PUSH2 0x83C PUSH1 0x0 RETURN INVALID PUSH1 0x80 PUSH1 0x40 MSTORE CALLVALUE DUP1 ISZERO PUSH2 0x10 JUMPI PUSH1 0x0 DUP1 REVERT JUMPDEST POP PUSH1 0x4 CALLDATASIZE LT PUSH2 0x93 JUMPI PUSH1 0x0 CALLDATALOAD PUSH1 0xE0 SHR DUP1 PUSH4 0x8129FC1C GT PUSH2 0x66 JUMPI DUP1 PUSH4 0x8129FC1C EQ PUSH2 0x110 JUMPI DUP1 PUSH4 0x99FE2628 EQ PUSH2 0x11A JUMPI DUP1 PUSH4 0xAF596C99 EQ PUSH2 0x14A JUMPI DUP1 PUSH4 0xC45A0155 EQ PUSH2 0x166 JUMPI DUP1 PUSH4 0xD071CB0F EQ PUSH2 0x184 JUMPI PUSH2 0x93 JUMP JUMPDEST DUP1 PUSH4 0x158EF93E EQ PUSH2 0x98 JUMPI DUP1 PUSH4 0x1DC5B2D8 EQ PUSH2 0xB6 JUMPI DUP1 PUSH4 0x36CB8477 EQ PUSH2 0xD4 JUMPI DUP1 PUSH4 0x476B4364 EQ PUSH2 0xF2 JUMPI JUMPDEST PUSH1 0x0 DUP1 REVERT JUMPDEST PUSH2 0xA0 PUSH2 0x1B4 JUMP JUMPDEST PUSH1 0x40 MLOAD PUSH2 0xAD SWAP2 SWAP1 PUSH2 0x47F JUMP JUMPDEST PUSH1 0x40 MLOAD DUP1 SWAP2 SUB SWAP1 RETURN JUMPDEST PUSH2 0xBE PUSH2 0x1C7 JUMP JUMPDEST PUSH1 0x40 MLOAD PUSH2 0xCB SWAP2 SWAP1 PUSH2 0x4B3 JUMP JUMPDEST PUSH1 0x40 MLOAD DUP1 SWAP2 SUB SWAP1 RETURN JUMPDEST PUSH2 0xDC PUSH2 0x1CD JUMP JUMPDEST PUSH1 0x40 MLOAD PUSH2 0xE9 SWAP2 SWAP1 PUSH2 0x4B3 JUMP JUMPDEST PUSH1 0x40 MLOAD DUP1 SWAP2 SUB SWAP1 RETURN JUMPDEST PUSH2 0xFA PUSH2 0x1F1 JUMP JUMPDEST PUSH1 0x40 MLOAD PUSH2 0x107 SWAP2 SWAP1 PUSH2 0x4F1 JUMP JUMPDEST PUSH1 0x40 MLOAD DUP1 SWAP2 SUB SWAP1 RETURN JUMPDEST PUSH2 0x118 PUSH2 0x20B JUMP JUMPDEST STOP JUMPDEST PUSH2 0x134 PUSH1 0x4 DUP1 CALLDATASIZE SUB DUP2 ADD SWAP1 PUSH2 0x12F SWAP2 SWAP1 PUSH2 0x53D JUMP JUMPDEST PUSH2 0x306 JUMP JUMPDEST PUSH1 0x40 MLOAD PUSH2 0x141 SWAP2 SWAP1 PUSH2 0x47F JUMP JUMPDEST PUSH1 0x40 MLOAD DUP1 SWAP2 SUB SWAP1 RETURN JUMPDEST PUSH2 0x164 PUSH1 0x4 DUP1 CALLDATASIZE SUB DUP2 ADD SWAP1 PUSH2 0x15F SWAP2 SWAP1 PUSH2 0x596 JUMP JUMPDEST PUSH2 0x33F JUMP JUMPDEST STOP JUMPDEST PUSH2 0x16E PUSH2 0x420 JUMP JUMPDEST PUSH1 0x40 MLOAD PUSH2 0x17B SWAP2 SWAP1 PUSH2 0x62A JUMP JUMPDEST PUSH1 0x40 MLOAD DUP1 SWAP2 SUB SWAP1 RETURN JUMPDEST PUSH2 0x19E PUSH1 0x4 DUP1 CALLDATASIZE SUB DUP2 ADD SWAP1 PUSH2 0x199 SWAP2 SWAP1 PUSH2 0x53D JUMP JUMPDEST PUSH2 0x444 JUMP JUMPDEST PUSH1 0x40 MLOAD PUSH2 0x1AB SWAP2 SWAP1 PUSH2 0x47F JUMP JUMPDEST PUSH1 0x40 MLOAD DUP1 SWAP2 SUB SWAP1 RETURN JUMPDEST PUSH1 0x3 PUSH1 0x0 SWAP1 SLOAD SWAP1 PUSH2 0x100 EXP SWAP1 DIV PUSH1 0xFF AND DUP2 JUMP JUMPDEST PUSH1 0x0 SLOAD DUP2 JUMP JUMPDEST PUSH32 0x0 DUP2 JUMP JUMPDEST PUSH1 0x1 PUSH1 0x0 SWAP1 SLOAD SWAP1 PUSH2 0x100 EXP SWAP1 DIV PUSH8 0xFFFFFFFFFFFFFFFF AND DUP2 JUMP JUMPDEST PUSH32 0x0 PUSH20 0xFFFFFFFFFFFFFFFFFFFFFFFFFFFFFFFFFFFFFFFF AND CALLER PUSH20 0xFFFFFFFFFFFFFFFFFFFFFFFFFFFFFFFFFFFFFFFF AND EQ PUSH2 0x299 JUMPI PUSH1 0x40 MLOAD PUSH32 0x8C379A000000000000000000000000000000000000000000000000000000000 DUP2 MSTORE PUSH1 0x4 ADD PUSH2 0x290 SWAP1 PUSH2 0x6A2 JUMP JUMPDEST PUSH1 0x40 MLOAD DUP1 SWAP2 SUB SWAP1 REVERT JUMPDEST PUSH1 0x3 PUSH1 0x0 SWAP1 SLOAD SWAP1 PUSH2 0x100 EXP SWAP1 DIV PUSH1 0xFF AND ISZERO PUSH2 0x2E9 JUMPI PUSH1 0x40 MLOAD PUSH32 0x8C379A000000000000000000000000000000000000000000000000000000000 DUP2 MSTORE PUSH1 0x4 ADD PUSH2 0x2E0 SWAP1 PUSH2 0x70E JUMP JUMPDEST PUSH1 0x40 MLOAD DUP1 SWAP2 SUB SWAP1 REVERT JUMPDEST PUSH1 0x1 PUSH1 0x3 PUSH1 0x0 PUSH2 0x100 EXP DUP2 SLOAD DUP2 PUSH1 0xFF MUL NOT AND SWAP1 DUP4 ISZERO ISZERO MUL OR SWAP1 SSTORE POP JUMP JUMPDEST PUSH1 0x0 DUP2 PUSH1 0x0 SLOAD EQ DUP1 ISZERO PUSH2 0x338 JUMPI POP PUSH1 0x1 PUSH1 0x0 SWAP1 SLOAD SWAP1 PUSH2 0x100 EXP SWAP1 DIV PUSH8 0xFFFFFFFFFFFFFFFF AND PUSH8 0xFFFFFFFFFFFFFFFF AND TIMESTAMP LT JUMPDEST SWAP1 POP SWAP2 SWAP1 POP JUMP JUMPDEST PUSH1 0x2 PUSH1 0x0 DUP3 DUP2 MSTORE PUSH1 0x20 ADD SWAP1 DUP2 MSTORE PUSH1 0x20 ADD PUSH1 0x0 KECCAK256 PUSH1 0x0 SWAP1 SLOAD SWAP1 PUSH2 0x100 EXP SWAP1 DIV PUSH1 0xFF AND PUSH2 0x39F JUMPI PUSH1 0x40 MLOAD PUSH32 0x8C379A000000000000000000000000000000000000000000000000000000000 DUP2 MSTORE PUSH1 0x4 ADD PUSH2 0x396 SWAP1 PUSH2 0x77A JUMP JUMPDEST PUSH1 0x40 MLOAD DUP1 SWAP2 SUB SWAP1 REVERT JUMPDEST DUP2 PUSH8 0xFFFFFFFFFFFFFFFF AND TIMESTAMP LT PUSH2 0x3EB JUMPI PUSH1 0x40 MLOAD PUSH32 0x8C379A000000000000000000000000000000000000000000000000000000000 DUP2 MSTORE PUSH1 0x4 ADD PUSH2 0x3E2 SWAP1 PUSH2 0x7E6 JUMP JUMPDEST PUSH1 0x40 MLOAD DUP1 SWAP2 SUB SWAP1 REVERT JUMPDEST DUP3 PUSH1 0x0 DUP2 SWAP1 SSTORE POP DUP2 PUSH1 0x1 PUSH1 0x0 PUSH2 0x100 EXP DUP2 SLOAD DUP2 PUSH8 0xFFFFFFFFFFFFFFFF MUL NOT AND SWAP1 DUP4 PUSH8 0xFFFFFFFFFFFFFFFF AND MUL OR SWAP1 SSTORE POP POP POP POP JUMP JUMPDEST PUSH32 0x0 DUP2 JUMP JUMPDEST PUSH1 0x2 PUSH1 0x20 MSTORE DUP1 PUSH1 0x0 MSTORE PUSH1 0x40 PUSH1 0x0 KECCAK256 PUSH1 0x0 SWAP2 POP SLOAD SWAP1 PUSH2 0x100 EXP SWAP1 DIV PUSH1 0xFF AND DUP2 JUMP JUMPDEST PUSH1 0x0 DUP2 ISZERO ISZERO SWAP1 POP SWAP2 SWAP1 POP JUMP JUMPDEST PUSH2 0x479 DUP2 PUSH2 0x464 JUMP JUMPDEST DUP3 MSTORE POP POP JUMP JUMPDEST PUSH1 0x0 PUSH1 0x20 DUP3 ADD SWAP1 POP PUSH2 0x494 PUSH1 0x0 DUP4 ADD DUP5 PUSH2 0x470 JUMP JUMPDEST SWAP3 SWAP2 POP POP JUMP JUMPDEST PUSH1 0x0 DUP2 SWAP1 POP SWAP2 SWAP1 POP JUMP JUMPDEST PUSH2 0x4AD DUP2 PUSH2 0x49A JUMP JUMPDEST DUP3 MSTORE POP POP JUMP JUMPDEST PUSH1 0x0 PUSH1 0x20 DUP3 ADD SWAP1 POP PUSH2 0x4C8 PUSH1 0x0 DUP4 ADD DUP5 PUSH2 0x4A4 JUMP JUMPDEST SWAP3 SWAP2 POP POP JUMP JUMPDEST PUSH1 0x0 PUSH8 0xFFFFFFFFFFFFFFFF DUP3 AND SWAP1 POP SWAP2 SWAP1 POP JUMP JUMPDEST PUSH2 0x4EB DUP2 PUSH2 0x4CE JUMP JUMPDEST DUP3 MSTORE POP POP JUMP JUMPDEST PUSH1 0x0 PUSH1 0x20 DUP3 ADD SWAP1 POP PUSH2 0x506 PUSH1 0x0 DUP4 ADD DUP5 PUSH2 0x4E2 JUMP JUMPDEST SWAP3 SWAP2 POP POP JUMP JUMPDEST PUSH1 0x0 DUP1 REVERT JUMPDEST PUSH2 0x51A DUP2 PUSH2 0x49A JUMP JUMPDEST DUP2 EQ PUSH2 0x525 JUMPI PUSH1 0x0 DUP1 REVERT JUMPDEST POP JUMP JUMPDEST PUSH1 0x0 DUP2 CALLDATALOAD SWAP1 POP PUSH2 0x537 DUP2 PUSH2 0x511 JUMP JUMPDEST SWAP3 SWAP2 POP POP JUMP JUMPDEST PUSH1 0x0 PUSH1 0x20 DUP3 DUP5 SUB SLT ISZERO PUSH2 0x553 JUMPI PUSH2 0x552 PUSH2 0x50C JUMP JUMPDEST JUMPDEST PUSH1 0x0 PUSH2 0x561 DUP5 DUP3 DUP6 ADD PUSH2 0x528 JUMP JUMPDEST SWAP2 POP POP SWAP3 SWAP2 POP POP JUMP JUMPDEST PUSH2 0x573 DUP2 PUSH2 0x4CE JUMP JUMPDEST DUP2 EQ PUSH2 0x57E JUMPI PUSH1 0x0 DUP1 REVERT JUMPDEST POP JUMP JUMPDEST PUSH1 0x0 DUP2 CALLDATALOAD SWAP1 POP PUSH2 0x590 DUP2 PUSH2 0x56A JUMP JUMPDEST SWAP3 SWAP2 POP POP JUMP JUMPDEST PUSH1 0x0 DUP1 PUSH1 0x0 PUSH1 0x60 DUP5 DUP7 SUB SLT ISZERO PUSH2 0x5AF JUMPI PUSH2 0x5AE PUSH2 0x50C JUMP JUMPDEST JUMPDEST PUSH1 0x0 PUSH2 0x5BD DUP7 DUP3 DUP8 ADD PUSH2 0x528 JUMP JUMPDEST SWAP4 POP POP PUSH1 0x20 PUSH2 0x5CE DUP7 DUP3 DUP8 ADD PUSH2 0x581 JUMP JUMPDEST SWAP3 POP POP PUSH1 0x40 PUSH2 0x5DF DUP7 DUP3 DUP8 ADD PUSH2 0x528 JUMP JUMPDEST SWAP2 POP POP SWAP3 POP SWAP3 POP SWAP3 JUMP JUMPDEST PUSH1 0x0 PUSH20 0xFFFFFFFFFFFFFFFFFFFFFFFFFFFFFFFFFFFFFFFF DUP3 AND SWAP1 POP SWAP2 SWAP1 POP JUMP JUMPDEST PUSH1 0x0 PUSH2 0x614 DUP3 PUSH2 0x5E9 JUMP JUMPDEST SWAP1 POP SWAP2 SWAP1 POP JUMP JUMPDEST PUSH2 0x624 DUP2 PUSH2 0x609 JUMP JUMPDEST DUP3 MSTORE POP POP JUMP JUMPDEST PUSH1 0x0 PUSH1 0x20 DUP3 ADD SWAP1 POP PUSH2 0x63F PUSH1 0x0 DUP4 ADD DUP5 PUSH2 0x61B JUMP JUMPDEST SWAP3 SWAP2 POP POP JUMP JUMPDEST PUSH1 0x0 DUP3 DUP3 MSTORE PUSH1 0x20 DUP3 ADD SWAP1 POP SWAP3 SWAP2 POP POP JUMP JUMPDEST PUSH32 0x4E4F545F464143544F5259000000000000000000000000000000000000000000 PUSH1 0x0 DUP3 ADD MSTORE POP JUMP JUMPDEST PUSH1 0x0 PUSH2 0x68C PUSH1 0xB DUP4 PUSH2 0x645 JUMP JUMPDEST SWAP2 POP PUSH2 0x697 DUP3 PUSH2 0x656 JUMP JUMPDEST PUSH1 0x20 DUP3 ADD SWAP1 POP SWAP2 SWAP1 POP JUMP JUMPDEST PUSH1 0x0 PUSH1 0x20 DUP3 ADD SWAP1 POP DUP2 DUP2 SUB PUSH1 0x0 DUP4 ADD MSTORE PUSH2 0x6BB DUP2 PUSH2 0x67F JUMP JUMPDEST SWAP1 POP SWAP2 SWAP1 POP JUMP JUMPDEST PUSH32 0x414C52454144595F494E49540000000000000000000000000000000000000000 PUSH1 0x0 DUP3 ADD MSTORE POP JUMP JUMPDEST PUSH1 0x0 PUSH2 0x6F8 PUSH1 0xC DUP4 PUSH2 0x645 JUMP JUMPDEST SWAP2 POP PUSH2 0x703 DUP3 PUSH2 0x6C2 JUMP JUMPDEST PUSH1 0x20 DUP3 ADD SWAP1 POP SWAP2 SWAP1 POP JUMP JUMPDEST PUSH1 0x0 PUSH1 0x20 DUP3 ADD SWAP1 POP DUP2 DUP2 SUB PUSH1 0x0 DUP4 ADD MSTORE PUSH2 0x727 DUP2 PUSH2 0x6EB JUMP JUMPDEST SWAP1 POP SWAP2 SWAP1 POP JUMP JUMPDEST PUSH32 0x504352305F4E4F545F414C4C4F57454400000000000000000000000000000000 PUSH1 0x0 DUP3 ADD MSTORE POP JUMP JUMPDEST PUSH1 0x0 PUSH2 0x764 PUSH1 0x10 DUP4 PUSH2 0x645 JUMP JUMPDEST SWAP2 POP PUSH2 0x76F DUP3 PUSH2 0x72E JUMP JUMPDEST PUSH1 0x20 DUP3 ADD SWAP1 POP SWAP2 SWAP1 POP JUMP JUMPDEST PUSH1 0x0 PUSH1 0x20 DUP3 ADD SWAP1 POP DUP2 DUP2 SUB PUSH1 0x0 DUP4 ADD MSTORE PUSH2 0x793 DUP2 PUSH2 0x757 JUMP JUMPDEST SWAP1 POP SWAP2 SWAP1 POP JUMP JUMPDEST PUSH32 0x4558504952454400000000000000000000000000000000000000000000000000 PUSH1 0x0 DUP3 ADD MSTORE POP JUMP JUMPDEST PUSH1 0x0 PUSH2 0x7D0 PUSH1 0x7 DUP4 PUSH2 0x645 JUMP JUMPDEST SWAP2 POP PUSH2 0x7DB DUP3 PUSH2 0x79A JUMP JUMPDEST PUSH1 0x20 DUP3 ADD SWAP1 POP SWAP2 SWAP1 POP JUMP JUMPDEST PUSH1 0x0 PUSH1 0x20 DUP3 ADD SWAP1 POP DUP2 DUP2 SUB PUSH1 0x0 DUP4 ADD MSTORE PUSH2 0x7FF DUP2 PUSH2 0x7C3 JUMP JUMPDEST SWAP1 POP SWAP2 SWAP1 POP JUMP INVALID LOG2 PUSH5 0x6970667358 0x22 SLT KECCAK256 LT 0xC3 SDIV 0xD 0xB4 KECCAK256 PUSH32 0x8DBE7D4DEBC4F9F9CEEC381C41F9082A0BA02102B8B9053EA564736F6C634300 ADDMOD XOR STOP CALLER LOG2 PUSH5 0x6970667358 0x22 SLT KECCAK256 0x4C EXP OR DUP2 0xD4 POP 0xEB PUSH20 0x57FB33699D834799DE53517D251147125455C075 0x4D 0xCC 0xFB MCOPY PUSH5 0x736F6C6343 STOP ADDMOD XOR STOP CALLER "
		},
		"gasEstimates": {
			"creation": {
				"codeDepositCost": "904000",
				"executionCost": "942",
				"totalCost": "904942"
			},
			"external": {
				"createUser(bytes32,bytes32[])": "infinite",
				"getUser(bytes32)": "2843"
			}
		},
		"methodIdentifiers": {
			"createUser(bytes32,bytes32[])": "7d23a467",
			"getUser(bytes32)": "6517579c"
		}
	},
	"abi": [
		{
			"anonymous": false,
			"inputs": [
				{
					"indexed": true,
					"internalType": "bytes32",
					"name": "emailHash",
					"type": "bytes32"
				},
				{
					"indexed": false,
					"internalType": "address",
					"name": "userContract",
					"type": "address"
				}
			],
			"name": "UserCreated",
			"type": "event"
		},
		{
			"inputs": [
				{
					"internalType": "bytes32",
					"name": "emailHash",
					"type": "bytes32"
				},
				{
					"internalType": "bytes32[]",
					"name": "initialPCR0s",
					"type": "bytes32[]"
				}
			],
			"name": "createUser",
			"outputs": [
				{
					"internalType": "address",
					"name": "",
					"type": "address"
				}
			],
			"stateMutability": "nonpayable",
			"type": "function"
		},
		{
			"inputs": [
				{
					"internalType": "bytes32",
					"name": "emailHash",
					"type": "bytes32"
				}
			],
			"name": "getUser",
			"outputs": [
				{
					"internalType": "address",
					"name": "",
					"type": "address"
				}
			],
			"stateMutability": "view",
			"type": "function"
		}
	]
}